{"contracts/libraries/BaseXNFTLibrary.sol":{"BaseXNFTLibrary":{"abi":[{"inputs":[{"internalType":"uint256","name":"blockNumber","type":"uint256"},{"internalType":"uint256","name":"blockTimestamp","type":"uint256"},{"internalType":"uint256","name":"blockDifficulty","type":"uint256"},{"internalType":"address","name":"msgSender","type":"address"},{"internalType":"address","name":"lastAddress","type":"address"}],"name":"calculateNFTInfo","outputs":[{"components":[{"internalType":"uint256","name":"tokenId","type":"uint256"},{"internalType":"enum BaseXNFTLibrary.Rank","name":"rank","type":"BaseXNFTLibrary.Rank"}],"internalType":"struct BaseXNFTLibrary.NFT","name":"","type":"tuple"}],"stateMutability":"view","type":"function"},{"inputs":[{"internalType":"uint256","name":"_totalSupply","type":"uint256"},{"internalType":"uint256","name":"_limitMintWhilteList","type":"uint256"}],"name":"calculatePrice","outputs":[{"internalType":"uint256","name":"","type":"uint256"}],"stateMutability":"view","type":"function"}],"evm":{"bytecode":{"linkReferences":{},"object":"61062a610053600b82828239805160001a607314610046577f4e487b7100000000000000000000000000000000000000000000000000000000600052600060045260246000fd5b30600052607381538281f3fe73000000000000000000000000000000000000000030146080604052600436106100405760003560e01c80638b5c98fa14610045578063a6413a2714610075575b600080fd5b61005f600480360381019061005a91906102b4565b6100a5565b60405161006c91906103e4565b60405180910390f35b61008f600480360381019061008a91906103ff565b610196565b60405161009c919061044e565b60405180910390f35b6100ad6101ef565b600086868686866040516020016100c89594939291906104d2565b6040516020818303038152906040528051906020012060001c905060006064826100f29190610560565b90506000603c82108015610107575060008210155b15610115576000905061015a565b6055821080156101265750603c8210155b156101345760019050610159565b605f82108015610145575060558210155b156101535760029050610158565b600390505b5b5b60006040518060400160405280600081526020018360038111156101815761018061033e565b5b81525090508094505050505095945050505050565b60008060009050602883856101ab91906105c0565b106101be576512309ce5400090506101e5565b600a83856101cc91906105c0565b106101df576509184e72a00090506101e4565b600090505b5b8091505092915050565b604051806040016040528060008152602001600060038111156102155761021461033e565b5b81525090565b600080fd5b6000819050919050565b61023381610220565b811461023e57600080fd5b50565b6000813590506102508161022a565b92915050565b600073ffffffffffffffffffffffffffffffffffffffff82169050919050565b600061028182610256565b9050919050565b61029181610276565b811461029c57600080fd5b50565b6000813590506102ae81610288565b92915050565b600080600080600060a086880312156102d0576102cf61021b565b5b60006102de88828901610241565b95505060206102ef88828901610241565b945050604061030088828901610241565b93505060606103118882890161029f565b92505060806103228882890161029f565b9150509295509295909350565b61033881610220565b82525050565b7f4e487b7100000000000000000000000000000000000000000000000000000000600052602160045260246000fd5b6004811061037e5761037d61033e565b5b50565b600081905061038f8261036d565b919050565b600061039f82610381565b9050919050565b6103af81610394565b82525050565b6040820160008201516103cb600085018261032f565b5060208201516103de60208501826103a6565b50505050565b60006040820190506103f960008301846103b5565b92915050565b600080604083850312156104165761041561021b565b5b600061042485828601610241565b925050602061043585828601610241565b9150509250929050565b61044881610220565b82525050565b6000602082019050610463600083018461043f565b92915050565b6000819050919050565b61048461047f82610220565b610469565b82525050565b60008160601b9050919050565b60006104a28261048a565b9050919050565b60006104b482610497565b9050919050565b6104cc6104c782610276565b6104a9565b82525050565b60006104de8288610473565b6020820191506104ee8287610473565b6020820191506104fe8286610473565b60208201915061050e82856104bb565b60148201915061051e82846104bb565b6014820191508190509695505050505050565b7f4e487b7100000000000000000000000000000000000000000000000000000000600052601260045260246000fd5b600061056b82610220565b915061057683610220565b92508261058657610585610531565b5b828206905092915050565b7f4e487b7100000000000000000000000000000000000000000000000000000000600052601160045260246000fd5b60006105cb82610220565b91506105d683610220565b92508282019050808211156105ee576105ed610591565b5b9291505056fea26469706673582212204e26a8f197d0dee0cb34ae3e99d8a03e14a0f25961009cd016378fa9431161b464736f6c63430008120033","opcodes":"PUSH2 0x62A PUSH2 0x53 PUSH1 0xB DUP3 DUP3 DUP3 CODECOPY DUP1 MLOAD PUSH1 0x0 BYTE PUSH1 0x73 EQ PUSH2 0x46 JUMPI PUSH32 0x4E487B7100000000000000000000000000000000000000000000000000000000 PUSH1 0x0 MSTORE PUSH1 0x0 PUSH1 0x4 MSTORE PUSH1 0x24 PUSH1 0x0 REVERT JUMPDEST ADDRESS PUSH1 0x0 MSTORE PUSH1 0x73 DUP2 MSTORE8 DUP3 DUP2 RETURN INVALID PUSH20 0x0 ADDRESS EQ PUSH1 0x80 PUSH1 0x40 MSTORE PUSH1 0x4 CALLDATASIZE LT PUSH2 0x40 JUMPI PUSH1 0x0 CALLDATALOAD PUSH1 0xE0 SHR DUP1 PUSH4 0x8B5C98FA EQ PUSH2 0x45 JUMPI DUP1 PUSH4 0xA6413A27 EQ PUSH2 0x75 JUMPI JUMPDEST PUSH1 0x0 DUP1 REVERT JUMPDEST PUSH2 0x5F PUSH1 0x4 DUP1 CALLDATASIZE SUB DUP2 ADD SWAP1 PUSH2 0x5A SWAP2 SWAP1 PUSH2 0x2B4 JUMP JUMPDEST PUSH2 0xA5 JUMP JUMPDEST PUSH1 0x40 MLOAD PUSH2 0x6C SWAP2 SWAP1 PUSH2 0x3E4 JUMP JUMPDEST PUSH1 0x40 MLOAD DUP1 SWAP2 SUB SWAP1 RETURN JUMPDEST PUSH2 0x8F PUSH1 0x4 DUP1 CALLDATASIZE SUB DUP2 ADD SWAP1 PUSH2 0x8A SWAP2 SWAP1 PUSH2 0x3FF JUMP JUMPDEST PUSH2 0x196 JUMP JUMPDEST PUSH1 0x40 MLOAD PUSH2 0x9C SWAP2 SWAP1 PUSH2 0x44E JUMP JUMPDEST PUSH1 0x40 MLOAD DUP1 SWAP2 SUB SWAP1 RETURN JUMPDEST PUSH2 0xAD PUSH2 0x1EF JUMP JUMPDEST PUSH1 0x0 DUP7 DUP7 DUP7 DUP7 DUP7 PUSH1 0x40 MLOAD PUSH1 0x20 ADD PUSH2 0xC8 SWAP6 SWAP5 SWAP4 SWAP3 SWAP2 SWAP1 PUSH2 0x4D2 JUMP JUMPDEST PUSH1 0x40 MLOAD PUSH1 0x20 DUP2 DUP4 SUB SUB DUP2 MSTORE SWAP1 PUSH1 0x40 MSTORE DUP1 MLOAD SWAP1 PUSH1 0x20 ADD KECCAK256 PUSH1 0x0 SHR SWAP1 POP PUSH1 0x0 PUSH1 0x64 DUP3 PUSH2 0xF2 SWAP2 SWAP1 PUSH2 0x560 JUMP JUMPDEST SWAP1 POP PUSH1 0x0 PUSH1 0x3C DUP3 LT DUP1 ISZERO PUSH2 0x107 JUMPI POP PUSH1 0x0 DUP3 LT ISZERO JUMPDEST ISZERO PUSH2 0x115 JUMPI PUSH1 0x0 SWAP1 POP PUSH2 0x15A JUMP JUMPDEST PUSH1 0x55 DUP3 LT DUP1 ISZERO PUSH2 0x126 JUMPI POP PUSH1 0x3C DUP3 LT ISZERO JUMPDEST ISZERO PUSH2 0x134 JUMPI PUSH1 0x1 SWAP1 POP PUSH2 0x159 JUMP JUMPDEST PUSH1 0x5F DUP3 LT DUP1 ISZERO PUSH2 0x145 JUMPI POP PUSH1 0x55 DUP3 LT ISZERO JUMPDEST ISZERO PUSH2 0x153 JUMPI PUSH1 0x2 SWAP1 POP PUSH2 0x158 JUMP JUMPDEST PUSH1 0x3 SWAP1 POP JUMPDEST JUMPDEST JUMPDEST PUSH1 0x0 PUSH1 0x40 MLOAD DUP1 PUSH1 0x40 ADD PUSH1 0x40 MSTORE DUP1 PUSH1 0x0 DUP2 MSTORE PUSH1 0x20 ADD DUP4 PUSH1 0x3 DUP2 GT ISZERO PUSH2 0x181 JUMPI PUSH2 0x180 PUSH2 0x33E JUMP JUMPDEST JUMPDEST DUP2 MSTORE POP SWAP1 POP DUP1 SWAP5 POP POP POP POP POP SWAP6 SWAP5 POP POP POP POP POP JUMP JUMPDEST PUSH1 0x0 DUP1 PUSH1 0x0 SWAP1 POP PUSH1 0x28 DUP4 DUP6 PUSH2 0x1AB SWAP2 SWAP1 PUSH2 0x5C0 JUMP JUMPDEST LT PUSH2 0x1BE JUMPI PUSH6 0x12309CE54000 SWAP1 POP PUSH2 0x1E5 JUMP JUMPDEST PUSH1 0xA DUP4 DUP6 PUSH2 0x1CC SWAP2 SWAP1 PUSH2 0x5C0 JUMP JUMPDEST LT PUSH2 0x1DF JUMPI PUSH6 0x9184E72A000 SWAP1 POP PUSH2 0x1E4 JUMP JUMPDEST PUSH1 0x0 SWAP1 POP JUMPDEST JUMPDEST DUP1 SWAP2 POP POP SWAP3 SWAP2 POP POP JUMP JUMPDEST PUSH1 0x40 MLOAD DUP1 PUSH1 0x40 ADD PUSH1 0x40 MSTORE DUP1 PUSH1 0x0 DUP2 MSTORE PUSH1 0x20 ADD PUSH1 0x0 PUSH1 0x3 DUP2 GT ISZERO PUSH2 0x215 JUMPI PUSH2 0x214 PUSH2 0x33E JUMP JUMPDEST JUMPDEST DUP2 MSTORE POP SWAP1 JUMP JUMPDEST PUSH1 0x0 DUP1 REVERT JUMPDEST PUSH1 0x0 DUP2 SWAP1 POP SWAP2 SWAP1 POP JUMP JUMPDEST PUSH2 0x233 DUP2 PUSH2 0x220 JUMP JUMPDEST DUP2 EQ PUSH2 0x23E JUMPI PUSH1 0x0 DUP1 REVERT JUMPDEST POP JUMP JUMPDEST PUSH1 0x0 DUP2 CALLDATALOAD SWAP1 POP PUSH2 0x250 DUP2 PUSH2 0x22A JUMP JUMPDEST SWAP3 SWAP2 POP POP JUMP JUMPDEST PUSH1 0x0 PUSH20 0xFFFFFFFFFFFFFFFFFFFFFFFFFFFFFFFFFFFFFFFF DUP3 AND SWAP1 POP SWAP2 SWAP1 POP JUMP JUMPDEST PUSH1 0x0 PUSH2 0x281 DUP3 PUSH2 0x256 JUMP JUMPDEST SWAP1 POP SWAP2 SWAP1 POP JUMP JUMPDEST PUSH2 0x291 DUP2 PUSH2 0x276 JUMP JUMPDEST DUP2 EQ PUSH2 0x29C JUMPI PUSH1 0x0 DUP1 REVERT JUMPDEST POP JUMP JUMPDEST PUSH1 0x0 DUP2 CALLDATALOAD SWAP1 POP PUSH2 0x2AE DUP2 PUSH2 0x288 JUMP JUMPDEST SWAP3 SWAP2 POP POP JUMP JUMPDEST PUSH1 0x0 DUP1 PUSH1 0x0 DUP1 PUSH1 0x0 PUSH1 0xA0 DUP7 DUP9 SUB SLT ISZERO PUSH2 0x2D0 JUMPI PUSH2 0x2CF PUSH2 0x21B JUMP JUMPDEST JUMPDEST PUSH1 0x0 PUSH2 0x2DE DUP9 DUP3 DUP10 ADD PUSH2 0x241 JUMP JUMPDEST SWAP6 POP POP PUSH1 0x20 PUSH2 0x2EF DUP9 DUP3 DUP10 ADD PUSH2 0x241 JUMP JUMPDEST SWAP5 POP POP PUSH1 0x40 PUSH2 0x300 DUP9 DUP3 DUP10 ADD PUSH2 0x241 JUMP JUMPDEST SWAP4 POP POP PUSH1 0x60 PUSH2 0x311 DUP9 DUP3 DUP10 ADD PUSH2 0x29F JUMP JUMPDEST SWAP3 POP POP PUSH1 0x80 PUSH2 0x322 DUP9 DUP3 DUP10 ADD PUSH2 0x29F JUMP JUMPDEST SWAP2 POP POP SWAP3 SWAP6 POP SWAP3 SWAP6 SWAP1 SWAP4 POP JUMP JUMPDEST PUSH2 0x338 DUP2 PUSH2 0x220 JUMP JUMPDEST DUP3 MSTORE POP POP JUMP JUMPDEST PUSH32 0x4E487B7100000000000000000000000000000000000000000000000000000000 PUSH1 0x0 MSTORE PUSH1 0x21 PUSH1 0x4 MSTORE PUSH1 0x24 PUSH1 0x0 REVERT JUMPDEST PUSH1 0x4 DUP2 LT PUSH2 0x37E JUMPI PUSH2 0x37D PUSH2 0x33E JUMP JUMPDEST JUMPDEST POP JUMP JUMPDEST PUSH1 0x0 DUP2 SWAP1 POP PUSH2 0x38F DUP3 PUSH2 0x36D JUMP JUMPDEST SWAP2 SWAP1 POP JUMP JUMPDEST PUSH1 0x0 PUSH2 0x39F DUP3 PUSH2 0x381 JUMP JUMPDEST SWAP1 POP SWAP2 SWAP1 POP JUMP JUMPDEST PUSH2 0x3AF DUP2 PUSH2 0x394 JUMP JUMPDEST DUP3 MSTORE POP POP JUMP JUMPDEST PUSH1 0x40 DUP3 ADD PUSH1 0x0 DUP3 ADD MLOAD PUSH2 0x3CB PUSH1 0x0 DUP6 ADD DUP3 PUSH2 0x32F JUMP JUMPDEST POP PUSH1 0x20 DUP3 ADD MLOAD PUSH2 0x3DE PUSH1 0x20 DUP6 ADD DUP3 PUSH2 0x3A6 JUMP JUMPDEST POP POP POP POP JUMP JUMPDEST PUSH1 0x0 PUSH1 0x40 DUP3 ADD SWAP1 POP PUSH2 0x3F9 PUSH1 0x0 DUP4 ADD DUP5 PUSH2 0x3B5 JUMP JUMPDEST SWAP3 SWAP2 POP POP JUMP JUMPDEST PUSH1 0x0 DUP1 PUSH1 0x40 DUP4 DUP6 SUB SLT ISZERO PUSH2 0x416 JUMPI PUSH2 0x415 PUSH2 0x21B JUMP JUMPDEST JUMPDEST PUSH1 0x0 PUSH2 0x424 DUP6 DUP3 DUP7 ADD PUSH2 0x241 JUMP JUMPDEST SWAP3 POP POP PUSH1 0x20 PUSH2 0x435 DUP6 DUP3 DUP7 ADD PUSH2 0x241 JUMP JUMPDEST SWAP2 POP POP SWAP3 POP SWAP3 SWAP1 POP JUMP JUMPDEST PUSH2 0x448 DUP2 PUSH2 0x220 JUMP JUMPDEST DUP3 MSTORE POP POP JUMP JUMPDEST PUSH1 0x0 PUSH1 0x20 DUP3 ADD SWAP1 POP PUSH2 0x463 PUSH1 0x0 DUP4 ADD DUP5 PUSH2 0x43F JUMP JUMPDEST SWAP3 SWAP2 POP POP JUMP JUMPDEST PUSH1 0x0 DUP2 SWAP1 POP SWAP2 SWAP1 POP JUMP JUMPDEST PUSH2 0x484 PUSH2 0x47F DUP3 PUSH2 0x220 JUMP JUMPDEST PUSH2 0x469 JUMP JUMPDEST DUP3 MSTORE POP POP JUMP JUMPDEST PUSH1 0x0 DUP2 PUSH1 0x60 SHL SWAP1 POP SWAP2 SWAP1 POP JUMP JUMPDEST PUSH1 0x0 PUSH2 0x4A2 DUP3 PUSH2 0x48A JUMP JUMPDEST SWAP1 POP SWAP2 SWAP1 POP JUMP JUMPDEST PUSH1 0x0 PUSH2 0x4B4 DUP3 PUSH2 0x497 JUMP JUMPDEST SWAP1 POP SWAP2 SWAP1 POP JUMP JUMPDEST PUSH2 0x4CC PUSH2 0x4C7 DUP3 PUSH2 0x276 JUMP JUMPDEST PUSH2 0x4A9 JUMP JUMPDEST DUP3 MSTORE POP POP JUMP JUMPDEST PUSH1 0x0 PUSH2 0x4DE DUP3 DUP9 PUSH2 0x473 JUMP JUMPDEST PUSH1 0x20 DUP3 ADD SWAP2 POP PUSH2 0x4EE DUP3 DUP8 PUSH2 0x473 JUMP JUMPDEST PUSH1 0x20 DUP3 ADD SWAP2 POP PUSH2 0x4FE DUP3 DUP7 PUSH2 0x473 JUMP JUMPDEST PUSH1 0x20 DUP3 ADD SWAP2 POP PUSH2 0x50E DUP3 DUP6 PUSH2 0x4BB JUMP JUMPDEST PUSH1 0x14 DUP3 ADD SWAP2 POP PUSH2 0x51E DUP3 DUP5 PUSH2 0x4BB JUMP JUMPDEST PUSH1 0x14 DUP3 ADD SWAP2 POP DUP2 SWAP1 POP SWAP7 SWAP6 POP POP POP POP POP POP JUMP JUMPDEST PUSH32 0x4E487B7100000000000000000000000000000000000000000000000000000000 PUSH1 0x0 MSTORE PUSH1 0x12 PUSH1 0x4 MSTORE PUSH1 0x24 PUSH1 0x0 REVERT JUMPDEST PUSH1 0x0 PUSH2 0x56B DUP3 PUSH2 0x220 JUMP JUMPDEST SWAP2 POP PUSH2 0x576 DUP4 PUSH2 0x220 JUMP JUMPDEST SWAP3 POP DUP3 PUSH2 0x586 JUMPI PUSH2 0x585 PUSH2 0x531 JUMP JUMPDEST JUMPDEST DUP3 DUP3 MOD SWAP1 POP SWAP3 SWAP2 POP POP JUMP JUMPDEST PUSH32 0x4E487B7100000000000000000000000000000000000000000000000000000000 PUSH1 0x0 MSTORE PUSH1 0x11 PUSH1 0x4 MSTORE PUSH1 0x24 PUSH1 0x0 REVERT JUMPDEST PUSH1 0x0 PUSH2 0x5CB DUP3 PUSH2 0x220 JUMP JUMPDEST SWAP2 POP PUSH2 0x5D6 DUP4 PUSH2 0x220 JUMP JUMPDEST SWAP3 POP DUP3 DUP3 ADD SWAP1 POP DUP1 DUP3 GT ISZERO PUSH2 0x5EE JUMPI PUSH2 0x5ED PUSH2 0x591 JUMP JUMPDEST JUMPDEST SWAP3 SWAP2 POP POP JUMP INVALID LOG2 PUSH5 0x6970667358 0x22 SLT KECCAK256 0x4E 0x26 0xA8 CALL SWAP8 0xD0 0xDE 0xE0 0xCB CALLVALUE 0xAE RETURNDATACOPY SWAP10 0xD8 LOG0 RETURNDATACOPY EQ LOG0 CALLCODE MSIZE PUSH2 0x9C 0xD0 AND CALLDATACOPY DUP16 0xA9 NUMBER GT PUSH2 0xB464 PUSH20 0x6F6C634300081200330000000000000000000000 "},"methodIdentifiers":{"calculateNFTInfo(uint256,uint256,uint256,address,address)":"8b5c98fa","calculatePrice(uint256,uint256)":"a6413a27"}}}}}