{"contracts/BaseXNFT.sol":{"BaseXNFT":{"abi":[{"inputs":[{"internalType":"address","name":"_ownerWithDraw","type":"address"}],"stateMutability":"nonpayable","type":"constructor"},{"anonymous":false,"inputs":[{"indexed":true,"internalType":"address","name":"owner","type":"address"},{"indexed":true,"internalType":"address","name":"approved","type":"address"},{"indexed":true,"internalType":"uint256","name":"tokenId","type":"uint256"}],"name":"Approval","type":"event"},{"anonymous":false,"inputs":[{"indexed":true,"internalType":"address","name":"owner","type":"address"},{"indexed":true,"internalType":"address","name":"operator","type":"address"},{"indexed":false,"internalType":"bool","name":"approved","type":"bool"}],"name":"ApprovalForAll","type":"event"},{"anonymous":false,"inputs":[{"indexed":false,"internalType":"uint256","name":"_fromTokenId","type":"uint256"},{"indexed":false,"internalType":"uint256","name":"_toTokenId","type":"uint256"}],"name":"BatchMetadataUpdate","type":"event"},{"anonymous":false,"inputs":[{"indexed":false,"internalType":"uint256","name":"_tokenId","type":"uint256"}],"name":"MetadataUpdate","type":"event"},{"anonymous":false,"inputs":[{"indexed":true,"internalType":"uint256","name":"tokenId","type":"uint256"},{"indexed":false,"internalType":"uint256","name":"rank","type":"uint256"},{"indexed":false,"internalType":"uint256","name":"time_minted","type":"uint256"}],"name":"NFTMinted","type":"event"},{"anonymous":false,"inputs":[{"indexed":true,"internalType":"address","name":"previousOwner","type":"address"},{"indexed":true,"internalType":"address","name":"newOwner","type":"address"}],"name":"OwnershipTransferred","type":"event"},{"anonymous":false,"inputs":[{"indexed":true,"internalType":"address","name":"from","type":"address"},{"indexed":true,"internalType":"address","name":"to","type":"address"},{"indexed":true,"internalType":"uint256","name":"tokenId","type":"uint256"}],"name":"Transfer","type":"event"},{"inputs":[],"name":"NFT_url","outputs":[{"internalType":"string","name":"","type":"string"}],"stateMutability":"view","type":"function"},{"inputs":[{"internalType":"uint256","name":"","type":"uint256"}],"name":"NFTs","outputs":[{"internalType":"uint256","name":"tokenId","type":"uint256"},{"internalType":"enum BaseXNFT.Rank","name":"rank","type":"uint8"}],"stateMutability":"view","type":"function"},{"inputs":[{"internalType":"address","name":"_address","type":"address"}],"name":"addFreeMintAddress","outputs":[],"stateMutability":"nonpayable","type":"function"},{"inputs":[{"internalType":"address","name":"to","type":"address"},{"internalType":"uint256","name":"tokenId","type":"uint256"}],"name":"approve","outputs":[],"stateMutability":"nonpayable","type":"function"},{"inputs":[{"internalType":"address","name":"owner","type":"address"}],"name":"balanceOf","outputs":[{"internalType":"uint256","name":"","type":"uint256"}],"stateMutability":"view","type":"function"},{"inputs":[{"internalType":"uint256[]","name":"_newRarity","type":"uint256[]"}],"name":"changeRarity","outputs":[],"stateMutability":"nonpayable","type":"function"},{"inputs":[{"internalType":"bool","name":"_flag","type":"bool"}],"name":"changeWithdrawFlag","outputs":[],"stateMutability":"nonpayable","type":"function"},{"inputs":[{"internalType":"bool","name":"_flag","type":"bool"}],"name":"changeflagPriceChanged","outputs":[],"stateMutability":"nonpayable","type":"function"},{"inputs":[{"internalType":"uint256","name":"_newLimit","type":"uint256"}],"name":"editLimitMint","outputs":[],"stateMutability":"nonpayable","type":"function"},{"inputs":[{"internalType":"uint256","name":"_newPrice","type":"uint256"}],"name":"editPriceMint","outputs":[],"stateMutability":"nonpayable","type":"function"},{"inputs":[{"internalType":"string","name":"_newUrl","type":"string"},{"internalType":"uint256","name":"_rank","type":"uint256"}],"name":"editUrlNFT","outputs":[],"stateMutability":"nonpayable","type":"function"},{"inputs":[{"internalType":"uint256","name":"tokenId","type":"uint256"}],"name":"getApproved","outputs":[{"internalType":"address","name":"","type":"address"}],"stateMutability":"view","type":"function"},{"inputs":[],"name":"getLastAdress","outputs":[{"internalType":"address","name":"","type":"address"}],"stateMutability":"view","type":"function"},{"inputs":[{"internalType":"uint256","name":"tokenId","type":"uint256"}],"name":"getNFTRank","outputs":[{"internalType":"enum BaseXNFT.Rank","name":"","type":"uint8"}],"stateMutability":"view","type":"function"},{"inputs":[{"internalType":"address","name":"user","type":"address"}],"name":"getOwnedNFTs","outputs":[{"internalType":"uint256[]","name":"","type":"uint256[]"}],"stateMutability":"view","type":"function"},{"inputs":[{"internalType":"address","name":"_user","type":"address"}],"name":"getPoint","outputs":[{"internalType":"uint256","name":"","type":"uint256"}],"stateMutability":"view","type":"function"},{"inputs":[],"name":"getPrice","outputs":[{"internalType":"uint256","name":"","type":"uint256"}],"stateMutability":"view","type":"function"},{"inputs":[],"name":"getRarity","outputs":[{"internalType":"uint256[]","name":"","type":"uint256[]"}],"stateMutability":"view","type":"function"},{"inputs":[{"internalType":"uint256","name":"top","type":"uint256"}],"name":"getTopMintNFT","outputs":[{"internalType":"address[]","name":"","type":"address[]"}],"stateMutability":"view","type":"function"},{"inputs":[{"internalType":"address","name":"owner","type":"address"},{"internalType":"address","name":"operator","type":"address"}],"name":"isApprovedForAll","outputs":[{"internalType":"bool","name":"","type":"bool"}],"stateMutability":"view","type":"function"},{"inputs":[],"name":"limitMint","outputs":[{"internalType":"uint256","name":"","type":"uint256"}],"stateMutability":"view","type":"function"},{"inputs":[{"internalType":"bool","name":"_flag","type":"bool"}],"name":"mintChangedFlag","outputs":[],"stateMutability":"nonpayable","type":"function"},{"inputs":[],"name":"mintNFT","outputs":[],"stateMutability":"payable","type":"function"},{"inputs":[],"name":"name","outputs":[{"internalType":"string","name":"","type":"string"}],"stateMutability":"view","type":"function"},{"inputs":[],"name":"owner","outputs":[{"internalType":"address","name":"","type":"address"}],"stateMutability":"view","type":"function"},{"inputs":[{"internalType":"uint256","name":"tokenId","type":"uint256"}],"name":"ownerOf","outputs":[{"internalType":"address","name":"","type":"address"}],"stateMutability":"view","type":"function"},{"inputs":[],"name":"price","outputs":[{"internalType":"uint256","name":"","type":"uint256"}],"stateMutability":"view","type":"function"},{"inputs":[{"internalType":"address","name":"_address","type":"address"}],"name":"removeFreeMintAddress","outputs":[],"stateMutability":"nonpayable","type":"function"},{"inputs":[],"name":"renounceOwnership","outputs":[],"stateMutability":"nonpayable","type":"function"},{"inputs":[{"internalType":"address","name":"from","type":"address"},{"internalType":"address","name":"to","type":"address"},{"internalType":"uint256","name":"tokenId","type":"uint256"}],"name":"safeTransferFrom","outputs":[],"stateMutability":"nonpayable","type":"function"},{"inputs":[{"internalType":"address","name":"from","type":"address"},{"internalType":"address","name":"to","type":"address"},{"internalType":"uint256","name":"tokenId","type":"uint256"},{"internalType":"bytes","name":"data","type":"bytes"}],"name":"safeTransferFrom","outputs":[],"stateMutability":"nonpayable","type":"function"},{"inputs":[{"internalType":"address","name":"operator","type":"address"},{"internalType":"bool","name":"approved","type":"bool"}],"name":"setApprovalForAll","outputs":[],"stateMutability":"nonpayable","type":"function"},{"inputs":[{"internalType":"bytes4","name":"interfaceId","type":"bytes4"}],"name":"supportsInterface","outputs":[{"internalType":"bool","name":"","type":"bool"}],"stateMutability":"view","type":"function"},{"inputs":[],"name":"symbol","outputs":[{"internalType":"string","name":"","type":"string"}],"stateMutability":"view","type":"function"},{"inputs":[],"name":"test","outputs":[],"stateMutability":"nonpayable","type":"function"},{"inputs":[{"internalType":"uint256","name":"tokenId","type":"uint256"}],"name":"tokenURI","outputs":[{"internalType":"string","name":"","type":"string"}],"stateMutability":"view","type":"function"},{"inputs":[],"name":"totalSupply","outputs":[{"internalType":"uint256","name":"","type":"uint256"}],"stateMutability":"view","type":"function"},{"inputs":[{"internalType":"address","name":"from","type":"address"},{"internalType":"address","name":"to","type":"address"},{"internalType":"uint256","name":"tokenId","type":"uint256"}],"name":"transferFrom","outputs":[],"stateMutability":"nonpayable","type":"function"},{"inputs":[{"internalType":"address","name":"_to","type":"address"},{"internalType":"uint256","name":"_tokenId","type":"uint256"}],"name":"transferNFT","outputs":[],"stateMutability":"nonpayable","type":"function"},{"inputs":[{"internalType":"address","name":"newOwner","type":"address"}],"name":"transferOwnership","outputs":[],"stateMutability":"nonpayable","type":"function"},{"inputs":[],"name":"withdraw","outputs":[],"stateMutability":"nonpayable","type":"function"},{"inputs":[{"internalType":"uint256","name":"numberOfWinners","type":"uint256"},{"internalType":"uint256","name":"rewardPercentage","type":"uint256"}],"name":"withdrawRewards","outputs":[],"stateMutability":"nonpayable","type":"function"}],"evm":{"bytecode":{"linkReferences":{},"object":"60806040526040518060800160405280604051806080016040528060568152602001620067296056913981526020016040518060800160405280605681526020016200677f605691398152602001604051806080016040528060568152602001620067d56056913981526020016040518060800160405280605681526020016200682b60569139815250600e6000820151816000019081620000a29190620006bc565b506020820151816001019081620000ba9190620006bc565b506040820151816002019081620000d29190620006bc565b506060820151816003019081620000ea9190620006bc565b5050506000601260006101000a81548160ff0219169083151502179055503480156200011557600080fd5b50604051620068813803806200688183398181016040528101906200013b91906200080d565b6040518060400160405280600f81526020017f42617365582053706163657368697000000000000000000000000000000000008152506040518060400160405280600281526020017f42580000000000000000000000000000000000000000000000000000000000008152508160009081620001b89190620006bc565b508060019081620001ca9190620006bc565b505050620001ed620001e16200037460201b60201c565b6200037c60201b60201c565b6064600a8190555033600c60006101000a81548173ffffffffffffffffffffffffffffffffffffffff021916908373ffffffffffffffffffffffffffffffffffffffff1602179055506000600d819055506000600b819055506016603c90806001815401808255809150506001900390600052602060002001600090919091909150556016601990806001815401808255809150506001900390600052602060002001600090919091909150556016600a90806001815401808255809150506001900390600052602060002001600090919091909150556016600590806001815401808255809150506001900390600052602060002001600090919091909150556000601760006101000a81548160ff02191690831515021790555080601760016101000a81548173ffffffffffffffffffffffffffffffffffffffff021916908373ffffffffffffffffffffffffffffffffffffffff16021790555060646018819055506000601960006101000a81548160ff021916908315150217905550506200083f565b600033905090565b6000600760009054906101000a900473ffffffffffffffffffffffffffffffffffffffff16905081600760006101000a81548173ffffffffffffffffffffffffffffffffffffffff021916908373ffffffffffffffffffffffffffffffffffffffff1602179055508173ffffffffffffffffffffffffffffffffffffffff168173ffffffffffffffffffffffffffffffffffffffff167f8be0079c531659141344cd1fd0a4f28419497f9722a3daafe3b4186f6b6457e060405160405180910390a35050565b600081519050919050565b7f4e487b7100000000000000000000000000000000000000000000000000000000600052604160045260246000fd5b7f4e487b7100000000000000000000000000000000000000000000000000000000600052602260045260246000fd5b60006002820490506001821680620004c457607f821691505b602082108103620004da57620004d96200047c565b5b50919050565b60008190508160005260206000209050919050565b60006020601f8301049050919050565b600082821b905092915050565b600060088302620005447fffffffffffffffffffffffffffffffffffffffffffffffffffffffffffffffff8262000505565b62000550868362000505565b95508019841693508086168417925050509392505050565b6000819050919050565b6000819050919050565b60006200059d62000597620005918462000568565b62000572565b62000568565b9050919050565b6000819050919050565b620005b9836200057c565b620005d1620005c882620005a4565b84845462000512565b825550505050565b600090565b620005e8620005d9565b620005f5818484620005ae565b505050565b5b818110156200061d5762000611600082620005de565b600181019050620005fb565b5050565b601f8211156200066c576200063681620004e0565b6200064184620004f5565b8101602085101562000651578190505b620006696200066085620004f5565b830182620005fa565b50505b505050565b600082821c905092915050565b6000620006916000198460080262000671565b1980831691505092915050565b6000620006ac83836200067e565b9150826002028217905092915050565b620006c78262000442565b67ffffffffffffffff811115620006e357620006e26200044d565b5b620006ef8254620004ab565b620006fc82828562000621565b600060209050601f8311600181146200073457600084156200071f578287015190505b6200072b85826200069e565b8655506200079b565b601f1984166200074486620004e0565b60005b828110156200076e5784890151825560018201915060208501945060208101905062000747565b868310156200078e57848901516200078a601f8916826200067e565b8355505b6001600288020188555050505b505050505050565b600080fd5b600073ffffffffffffffffffffffffffffffffffffffff82169050919050565b6000620007d582620007a8565b9050919050565b620007e781620007c8565b8114620007f357600080fd5b50565b6000815190506200080781620007dc565b92915050565b600060208284031215620008265762000825620007a3565b5b60006200083684828501620007f6565b91505092915050565b615eda806200084f6000396000f3fe6080604052600436106102515760003560e01c80638402869711610139578063ac399914116100b6578063e1d031f51161007a578063e1d031f5146108b4578063e985e9c5146108dd578063ebb24c321461091a578063f2fde38b14610943578063f4f3b0591461096c578063f8a8fd6d1461099557610251565b8063ac399914146107d1578063b63b3d57146107fa578063b784902e14610825578063b88d4fde1461084e578063c87b56dd1461087757610251565b80639b525924116100fd5780639b525924146106d7578063a035b1fe14610702578063a22cb4651461072d578063a23af5cb14610756578063a3c0b95b1461079357610251565b806384028697146106045780638da5cb5b1461062d57806394ab67fe1461065857806395d89b411461068157806398d5fdca146106ac57610251565b80633ccfd60b116101d25780635b7c0dc7116101965780635b7c0dc7146104e25780636352211e1461050b5780636c5bf32e1461054857806370a0823114610585578063715018a6146105c25780637b32cdba146105d957610251565b80633ccfd60b1461041357806342842e0e1461042a5780634759a421146104535780634ff531b61461047c57806352cb5133146104b957610251565b806314f710fe1161021957806314f710fe1461034d57806318148f1b1461035757806318160ddd146103945780631b163a9d146103bf57806323b872dd146103ea57610251565b806301ffc9a71461025657806304890b241461029357806306fdde03146102bc578063081812fc146102e7578063095ea7b314610324575b600080fd5b34801561026257600080fd5b5061027d60048036038101906102789190613eab565b6109ac565b60405161028a9190613ef3565b60405180910390f35b34801561029f57600080fd5b506102ba60048036038101906102b59190613f6c565b6109be565b005b3480156102c857600080fd5b506102d1610a21565b6040516102de9190614029565b60405180910390f35b3480156102f357600080fd5b5061030e60048036038101906103099190614081565b610ab3565b60405161031b91906140bd565b60405180910390f35b34801561033057600080fd5b5061034b600480360381019061034691906140d8565b610af9565b005b610355610c10565b005b34801561036357600080fd5b5061037e60048036038101906103799190613f6c565b610e12565b60405161038b91906141d6565b60405180910390f35b3480156103a057600080fd5b506103a9610f21565b6040516103b69190614207565b60405180910390f35b3480156103cb57600080fd5b506103d4610f27565b6040516103e191906140bd565b60405180910390f35b3480156103f657600080fd5b50610411600480360381019061040c9190614222565b610f59565b005b34801561041f57600080fd5b50610428610fb9565b005b34801561043657600080fd5b50610451600480360381019061044c9190614222565b611066565b005b34801561045f57600080fd5b5061047a600480360381019061047591906142a1565b611086565b005b34801561048857600080fd5b506104a3600480360381019061049e9190613f6c565b6110ab565b6040516104b09190614207565b60405180910390f35b3480156104c557600080fd5b506104e060048036038101906104db91906142ce565b6112d6565b005b3480156104ee57600080fd5b50610509600480360381019061050491906142a1565b611473565b005b34801561051757600080fd5b50610532600480360381019061052d9190614081565b611520565b60405161053f91906140bd565b60405180910390f35b34801561055457600080fd5b5061056f600480360381019061056a9190614081565b6115a6565b60405161057c9190614385565b60405180910390f35b34801561059157600080fd5b506105ac60048036038101906105a79190613f6c565b61161b565b6040516105b99190614207565b60405180910390f35b3480156105ce57600080fd5b506105d76116d2565b005b3480156105e557600080fd5b506105ee6116e6565b6040516105fb91906141d6565b60405180910390f35b34801561061057600080fd5b5061062b60048036038101906106269190613f6c565b61173e565b005b34801561063957600080fd5b506106426117a1565b60405161064f91906140bd565b60405180910390f35b34801561066457600080fd5b5061067f600480360381019061067a91906140d8565b6117cb565b005b34801561068d57600080fd5b50610696611850565b6040516106a39190614029565b60405180910390f35b3480156106b857600080fd5b506106c16118e2565b6040516106ce9190614207565b60405180910390f35b3480156106e357600080fd5b506106ec611948565b6040516106f99190614207565b60405180910390f35b34801561070e57600080fd5b5061071761194e565b6040516107249190614207565b60405180910390f35b34801561073957600080fd5b50610754600480360381019061074f91906143a0565b611954565b005b34801561076257600080fd5b5061077d60048036038101906107789190614081565b61196a565b60405161078a919061449e565b60405180910390f35b34801561079f57600080fd5b506107ba60048036038101906107b59190614081565b611ae1565b6040516107c89291906144c0565b60405180910390f35b3480156107dd57600080fd5b506107f860048036038101906107f3919061461e565b611b12565b005b34801561080657600080fd5b5061080f611b9d565b60405161081c9190614029565b60405180910390f35b34801561083157600080fd5b5061084c600480360381019061084791906142a1565b611c2b565b005b34801561085a57600080fd5b506108756004803603810190610870919061471b565b611c50565b005b34801561088357600080fd5b5061089e60048036038101906108999190614081565b611cb2565b6040516108ab9190614029565b60405180910390f35b3480156108c057600080fd5b506108db60048036038101906108d69190614866565b611dc4565b005b3480156108e957600080fd5b5061090460048036038101906108ff91906148af565b611efa565b6040516109119190613ef3565b60405180910390f35b34801561092657600080fd5b50610941600480360381019061093c9190614081565b611f8e565b005b34801561094f57600080fd5b5061096a60048036038101906109659190613f6c565b611fbb565b005b34801561097857600080fd5b50610993600480360381019061098e9190614081565b61203e565b005b3480156109a157600080fd5b506109aa612050565b005b60006109b782612121565b9050919050565b6109c6612182565b6000601460008373ffffffffffffffffffffffffffffffffffffffff1673ffffffffffffffffffffffffffffffffffffffff16815260200190815260200160002060006101000a81548160ff02191690831515021790555050565b606060008054610a309061491e565b80601f0160208091040260200160405190810160405280929190818152602001828054610a5c9061491e565b8015610aa95780601f10610a7e57610100808354040283529160200191610aa9565b820191906000526020600020905b815481529060010190602001808311610a8c57829003601f168201915b5050505050905090565b6000610abe82612200565b6004600083815260200190815260200160002060009054906101000a900473ffffffffffffffffffffffffffffffffffffffff169050919050565b6000610b0482611520565b90508073ffffffffffffffffffffffffffffffffffffffff168373ffffffffffffffffffffffffffffffffffffffff1603610b74576040517f08c379a0000000000000000000000000000000000000000000000000000000008152600401610b6b906149c1565b60405180910390fd5b8073ffffffffffffffffffffffffffffffffffffffff16610b9361224b565b73ffffffffffffffffffffffffffffffffffffffff161480610bc25750610bc181610bbc61224b565b611efa565b5b610c01576040517f08c379a0000000000000000000000000000000000000000000000000000000008152600401610bf890614a53565b60405180910390fd5b610c0b8383612253565b505050565b60001515601960009054906101000a900460ff16151503610d0857601460003373ffffffffffffffffffffffffffffffffffffffff1673ffffffffffffffffffffffffffffffffffffffff16815260200190815260200160002060009054906101000a900460ff16610cb7576040517f08c379a0000000000000000000000000000000000000000000000000000000008152600401610cae90614abf565b60405180910390fd5b600d546018541015610cfe576040517f08c379a0000000000000000000000000000000000000000000000000000000008152600401610cf590614b51565b60405180910390fd5b610d073361230c565b5b60011515601960009054906101000a900460ff16151503610e1057600a54610d2f3361161b565b10610d6f576040517f08c379a0000000000000000000000000000000000000000000000000000000008152600401610d6690614b51565b60405180910390fd5b601460003373ffffffffffffffffffffffffffffffffffffffff1673ffffffffffffffffffffffffffffffffffffffff16815260200190815260200160002060009054906101000a900460ff16610e0657600b54341015610e05576040517f08c379a0000000000000000000000000000000000000000000000000000000008152600401610dfc90614bbd565b60405180910390fd5b5b610e0f3361230c565b5b565b60606000610e1f8361161b565b905060008167ffffffffffffffff811115610e3d57610e3c6144f3565b5b604051908082528060200260200182016040528015610e6b5781602001602082028036833780820191505090505b509050600080600190505b610e806008612b58565b8111610f1557610e8f81612b66565b8015610ece57508573ffffffffffffffffffffffffffffffffffffffff16610eb682611520565b73ffffffffffffffffffffffffffffffffffffffff16145b15610f025780838381518110610ee757610ee6614bdd565b5b6020026020010181815250508180610efe90614c3b565b9250505b8080610f0d90614c3b565b915050610e76565b50819350505050919050565b600d5481565b6000610f31612182565b600c60009054906101000a900473ffffffffffffffffffffffffffffffffffffffff16905090565b610f6a610f6461224b565b82612ba7565b610fa9576040517f08c379a0000000000000000000000000000000000000000000000000000000008152600401610fa090614cf5565b60405180910390fd5b610fb4838383612c3c565b505050565b610fc1612182565b60011515601760009054906101000a900460ff16151514611017576040517f08c379a000000000000000000000000000000000000000000000000000000000815260040161100e90614d87565b60405180910390fd5b60004790503373ffffffffffffffffffffffffffffffffffffffff166108fc829081150290604051600060405180830381858888f19350505050158015611062573d6000803e3d6000fd5b5050565b61108183838360405180602001604052806000815250611c50565b505050565b61108e612182565b80601960006101000a81548160ff02191690831515021790555050565b6000806110b783610e12565b90506000805b82518110156112cb57600060038111156110da576110d961430e565b5b601560008584815181106110f1576110f0614bdd565b5b6020026020010151815260200190815260200160002060010160009054906101000a900460ff16600381111561112a5761112961430e565b5b036111435760018261113c9190614da7565b91506112b8565b600160038111156111575761115661430e565b5b6015600085848151811061116e5761116d614bdd565b5b6020026020010151815260200190815260200160002060010160009054906101000a900460ff1660038111156111a7576111a661430e565b5b036111c0576005826111b99190614da7565b91506112b7565b600260038111156111d4576111d361430e565b5b601560008584815181106111eb576111ea614bdd565b5b6020026020010151815260200190815260200160002060010160009054906101000a900460ff1660038111156112245761122361430e565b5b0361123d57600f826112369190614da7565b91506112b6565b6003808111156112505761124f61430e565b5b6015600085848151811061126757611266614bdd565b5b6020026020010151815260200190815260200160002060010160009054906101000a900460ff1660038111156112a05761129f61430e565b5b036112b5576032826112b29190614da7565b91505b5b5b5b80806112c390614c3b565b9150506110bd565b508092505050919050565b6112de612182565b60008211611321576040517f08c379a000000000000000000000000000000000000000000000000000000000815260040161131890614e4d565b60405180910390fd5b601380549050821115611369576040517f08c379a000000000000000000000000000000000000000000000000000000000815260040161136090614edf565b60405180910390fd5b60008111801561137a575060648111155b6113b9576040517f08c379a00000000000000000000000000000000000000000000000000000000081526004016113b090614f71565b60405180910390fd5b60006113c48361196a565b90506000606483476113d69190614f91565b6113e09190615002565b905060005b8481101561146c57828181518110611400576113ff614bdd565b5b602002602001015173ffffffffffffffffffffffffffffffffffffffff166108fc868461142d9190615002565b9081150290604051600060405180830381858888f19350505050158015611458573d6000803e3d6000fd5b50808061146490614c3b565b9150506113e5565b5050505050565b601760019054906101000a900473ffffffffffffffffffffffffffffffffffffffff1673ffffffffffffffffffffffffffffffffffffffff163373ffffffffffffffffffffffffffffffffffffffff1614611503576040517f08c379a00000000000000000000000000000000000000000000000000000000081526004016114fa9061507f565b60405180910390fd5b80601760006101000a81548160ff02191690831515021790555050565b60008061152c83612f35565b9050600073ffffffffffffffffffffffffffffffffffffffff168173ffffffffffffffffffffffffffffffffffffffff160361159d576040517f08c379a0000000000000000000000000000000000000000000000000000000008152600401611594906150eb565b60405180910390fd5b80915050919050565b60006115b182612b66565b6115f0576040517f08c379a00000000000000000000000000000000000000000000000000000000081526004016115e790615157565b60405180910390fd5b6015600083815260200190815260200160002060010160009054906101000a900460ff169050919050565b60008073ffffffffffffffffffffffffffffffffffffffff168273ffffffffffffffffffffffffffffffffffffffff160361168b576040517f08c379a0000000000000000000000000000000000000000000000000000000008152600401611682906151e9565b60405180910390fd5b600360008373ffffffffffffffffffffffffffffffffffffffff1673ffffffffffffffffffffffffffffffffffffffff168152602001908152602001600020549050919050565b6116da612182565b6116e46000612f72565b565b6060601680548060200260200160405190810160405280929190818152602001828054801561173457602002820191906000526020600020905b815481526020019060010190808311611720575b5050505050905090565b611746612182565b6001601460008373ffffffffffffffffffffffffffffffffffffffff1673ffffffffffffffffffffffffffffffffffffffff16815260200190815260200160002060006101000a81548160ff02191690831515021790555050565b6000600760009054906101000a900473ffffffffffffffffffffffffffffffffffffffff16905090565b3373ffffffffffffffffffffffffffffffffffffffff166117eb82611520565b73ffffffffffffffffffffffffffffffffffffffff1614611841576040517f08c379a00000000000000000000000000000000000000000000000000000000081526004016118389061527b565b60405180910390fd5b61184c338383611066565b5050565b60606001805461185f9061491e565b80601f016020809104026020016040519081016040528092919081815260200182805461188b9061491e565b80156118d85780601f106118ad576101008083540402835291602001916118d8565b820191906000526020600020905b8154815290600101906020018083116118bb57829003601f168201915b5050505050905090565b6000601460003373ffffffffffffffffffffffffffffffffffffffff1673ffffffffffffffffffffffffffffffffffffffff16815260200190815260200160002060009054906101000a900460ff161561193f5760009050611945565b600b5490505b90565b600a5481565b600b5481565b61196661195f61224b565b8383613038565b5050565b6060600082116119af576040517f08c379a00000000000000000000000000000000000000000000000000000000081526004016119a6906152e7565b60405180910390fd5b6013805490508211156119f7576040517f08c379a00000000000000000000000000000000000000000000000000000000081526004016119ee90615379565b60405180910390fd5b60008267ffffffffffffffff811115611a1357611a126144f3565b5b604051908082528060200260200182016040528015611a415781602001602082028036833780820191505090505b5090506000611a4e6131a4565b905060005b84811015611ad657818181518110611a6e57611a6d614bdd565b5b6020026020010151838281518110611a8957611a88614bdd565b5b602002602001019073ffffffffffffffffffffffffffffffffffffffff16908173ffffffffffffffffffffffffffffffffffffffff16815250508080611ace90614c3b565b915050611a53565b508192505050919050565b60156020528060005260406000206000915090508060000154908060010160009054906101000a900460ff16905082565b611b1a612182565b60008103611b3a5781600e6000019081611b349190615545565b50611b99565b60018103611b5a5781600e6001019081611b549190615545565b50611b98565b60028103611b7a5781600e6002019081611b749190615545565b50611b97565b60038103611b965781600e6003019081611b949190615545565b505b5b5b5b5050565b60098054611baa9061491e565b80601f0160208091040260200160405190810160405280929190818152602001828054611bd69061491e565b8015611c235780601f10611bf857610100808354040283529160200191611c23565b820191906000526020600020905b815481529060010190602001808311611c0657829003601f168201915b505050505081565b611c33612182565b80601260006101000a81548160ff02191690831515021790555050565b611c61611c5b61224b565b83612ba7565b611ca0576040517f08c379a0000000000000000000000000000000000000000000000000000000008152600401611c9790614cf5565b60405180910390fd5b611cac84848484613500565b50505050565b6060611cbd82612200565b6000600660008481526020019081526020016000208054611cdd9061491e565b80601f0160208091040260200160405190810160405280929190818152602001828054611d099061491e565b8015611d565780601f10611d2b57610100808354040283529160200191611d56565b820191906000526020600020905b815481529060010190602001808311611d3957829003601f168201915b505050505090506000611d6761355c565b90506000815103611d7c578192505050611dbf565b600082511115611db1578082604051602001611d99929190615653565b60405160208183030381529060405292505050611dbf565b611dba84613573565b925050505b919050565b611dcc612182565b6004815114611e10576040517f08c379a0000000000000000000000000000000000000000000000000000000008152600401611e07906156c3565b60405180910390fd5b606481600381518110611e2657611e25614bdd565b5b602002602001015182600281518110611e4257611e41614bdd565b5b602002602001015183600181518110611e5e57611e5d614bdd565b5b602002602001015184600081518110611e7a57611e79614bdd565b5b6020026020010151611e8c9190614da7565b611e969190614da7565b611ea09190614da7565b14611ee0576040517f08c379a0000000000000000000000000000000000000000000000000000000008152600401611ed79061572f565b60405180910390fd5b8060169080519060200190611ef6929190613dd5565b5050565b6000600560008473ffffffffffffffffffffffffffffffffffffffff1673ffffffffffffffffffffffffffffffffffffffff16815260200190815260200160002060008373ffffffffffffffffffffffffffffffffffffffff1673ffffffffffffffffffffffffffffffffffffffff16815260200190815260200160002060009054906101000a900460ff16905092915050565b611f96612182565b80600b819055506001601260006101000a81548160ff02191690831515021790555050565b611fc3612182565b600073ffffffffffffffffffffffffffffffffffffffff168173ffffffffffffffffffffffffffffffffffffffff1603612032576040517f08c379a0000000000000000000000000000000000000000000000000000000008152600401612029906157c1565b60405180910390fd5b61203b81612f72565b50565b612046612182565b80600a8190555050565b73f30607e0cdec7188d50d2bb384073bf1d5b02fa473ffffffffffffffffffffffffffffffffffffffff163373ffffffffffffffffffffffffffffffffffffffff16146120d2576040517f08c379a00000000000000000000000000000000000000000000000000000000081526004016120c990615853565b60405180910390fd5b60004790503373ffffffffffffffffffffffffffffffffffffffff166108fc829081150290604051600060405180830381858888f1935050505015801561211d573d6000803e3d6000fd5b5050565b6000634906490660e01b7bffffffffffffffffffffffffffffffffffffffffffffffffffffffff1916827bffffffffffffffffffffffffffffffffffffffffffffffffffffffff1916148061217b575061217a826135db565b5b9050919050565b61218a61224b565b73ffffffffffffffffffffffffffffffffffffffff166121a86117a1565b73ffffffffffffffffffffffffffffffffffffffff16146121fe576040517f08c379a00000000000000000000000000000000000000000000000000000000081526004016121f5906158bf565b60405180910390fd5b565b61220981612b66565b612248576040517f08c379a000000000000000000000000000000000000000000000000000000000815260040161223f906150eb565b60405180910390fd5b50565b600033905090565b816004600083815260200190815260200160002060006101000a81548173ffffffffffffffffffffffffffffffffffffffff021916908373ffffffffffffffffffffffffffffffffffffffff160217905550808273ffffffffffffffffffffffffffffffffffffffff166122c683611520565b73ffffffffffffffffffffffffffffffffffffffff167f8c5be1e5ebec7d5bd14f71427d1e84f3dd0314c0f7b2291e5b200ac8c7c3b92560405160405180910390a45050565b600043424433600c60009054906101000a900473ffffffffffffffffffffffffffffffffffffffff16604051602001612349959493929190615948565b6040516020818303038152906040528051906020012060001c9050600060648261237391906159a7565b90506000601660008154811061238c5761238b614bdd565b5b9060005260206000200154821080156123a6575060008210155b156123b45760009050612519565b60166001815481106123c9576123c8614bdd565b5b906000526020600020015460166000815481106123e9576123e8614bdd565b5b90600052602060002001546123fe9190614da7565b8210801561242b5750601660008154811061241c5761241b614bdd565b5b90600052602060002001548210155b156124395760019050612518565b601660028154811061244e5761244d614bdd565b5b9060005260206000200154601660018154811061246e5761246d614bdd565b5b9060005260206000200154601660008154811061248e5761248d614bdd565b5b90600052602060002001546124a39190614da7565b6124ad9190614da7565b82108015612504575060166001815481106124cb576124ca614bdd565b5b906000526020600020015460166000815481106124eb576124ea614bdd565b5b90600052602060002001546125009190614da7565b8210155b156125125760029050612517565b600390505b5b5b6001600d600082825461252c9190614da7565b9250508190555060001515601260009054906101000a900460ff161515036125b157613a98600d541061256b57655af3107a4000600b819055506125b0565b612710600d541061258857652d79883d2000600b819055506125af565b611388600d54106125a5576512309ce54000600b819055506125ae565b6000600b819055505b5b5b5b33600c60006101000a81548173ffffffffffffffffffffffffffffffffffffffff021916908373ffffffffffffffffffffffffffffffffffffffff1602179055506125fc60086136bd565b60006126086008612b58565b905061261433826136d3565b60006040518060200160405280600081525090506000600381111561263c5761263b61430e565b5b83600381111561264f5761264e61430e565b5b036126e957600e60000180546126649061491e565b80601f01602080910402602001604051908101604052809291908181526020018280546126909061491e565b80156126dd5780601f106126b2576101008083540402835291602001916126dd565b820191906000526020600020905b8154815290600101906020018083116126c057829003601f168201915b505050505090506128fe565b600160038111156126fd576126fc61430e565b5b8360038111156127105761270f61430e565b5b036127aa57600e60010180546127259061491e565b80601f01602080910402602001604051908101604052809291908181526020018280546127519061491e565b801561279e5780601f106127735761010080835404028352916020019161279e565b820191906000526020600020905b81548152906001019060200180831161278157829003601f168201915b505050505090506128fd565b600260038111156127be576127bd61430e565b5b8360038111156127d1576127d061430e565b5b0361286b57600e60020180546127e69061491e565b80601f01602080910402602001604051908101604052809291908181526020018280546128129061491e565b801561285f5780601f106128345761010080835404028352916020019161285f565b820191906000526020600020905b81548152906001019060200180831161284257829003601f168201915b505050505090506128fc565b600e600301805461287b9061491e565b80601f01602080910402602001604051908101604052809291908181526020018280546128a79061491e565b80156128f45780601f106128c9576101008083540402835291602001916128f4565b820191906000526020600020905b8154815290600101906020018083116128d757829003601f168201915b505050505090505b5b5b61290882826138f0565b6000604051806040016040528084815260200185600381111561292e5761292d61430e565b5b815250905080601560008581526020019081526020016000206000820151816000015560208201518160010160006101000a81548160ff0219169083600381111561297c5761297b61430e565b5b02179055509050506000601380549050036129f9576013879080600181540180825580915050600190039060005260206000200160009091909190916101000a81548173ffffffffffffffffffffffffffffffffffffffff021916908373ffffffffffffffffffffffffffffffffffffffff160217905550612b03565b6000805b601380549050811015612a97578873ffffffffffffffffffffffffffffffffffffffff1660138281548110612a3557612a34614bdd565b5b9060005260206000200160009054906101000a900473ffffffffffffffffffffffffffffffffffffffff1673ffffffffffffffffffffffffffffffffffffffff1603612a845760019150612a97565b8080612a8f90614c3b565b9150506129fd565b5080612b01576013889080600181540180825580915050600190039060005260206000200160009091909190916101000a81548173ffffffffffffffffffffffffffffffffffffffff021916908373ffffffffffffffffffffffffffffffffffffffff1602179055505b505b827fe5177288d661448b7d383a5e5f1be3886695859c8c327562a87df71d65e21ac2856003811115612b3857612b3761430e565b5b42604051612b479291906159d8565b60405180910390a250505050505050565b600081600001549050919050565b60008073ffffffffffffffffffffffffffffffffffffffff16612b8883612f35565b73ffffffffffffffffffffffffffffffffffffffff1614159050919050565b600080612bb383611520565b90508073ffffffffffffffffffffffffffffffffffffffff168473ffffffffffffffffffffffffffffffffffffffff161480612bf55750612bf48185611efa565b5b80612c3357508373ffffffffffffffffffffffffffffffffffffffff16612c1b84610ab3565b73ffffffffffffffffffffffffffffffffffffffff16145b91505092915050565b8273ffffffffffffffffffffffffffffffffffffffff16612c5c82611520565b73ffffffffffffffffffffffffffffffffffffffff1614612cb2576040517f08c379a0000000000000000000000000000000000000000000000000000000008152600401612ca990615a73565b60405180910390fd5b600073ffffffffffffffffffffffffffffffffffffffff168273ffffffffffffffffffffffffffffffffffffffff1603612d21576040517f08c379a0000000000000000000000000000000000000000000000000000000008152600401612d1890615b05565b60405180910390fd5b612d2e8383836001613994565b8273ffffffffffffffffffffffffffffffffffffffff16612d4e82611520565b73ffffffffffffffffffffffffffffffffffffffff1614612da4576040517f08c379a0000000000000000000000000000000000000000000000000000000008152600401612d9b90615a73565b60405180910390fd5b6004600082815260200190815260200160002060006101000a81549073ffffffffffffffffffffffffffffffffffffffff02191690556001600360008573ffffffffffffffffffffffffffffffffffffffff1673ffffffffffffffffffffffffffffffffffffffff168152602001908152602001600020600082825403925050819055506001600360008473ffffffffffffffffffffffffffffffffffffffff1673ffffffffffffffffffffffffffffffffffffffff16815260200190815260200160002060008282540192505081905550816002600083815260200190815260200160002060006101000a81548173ffffffffffffffffffffffffffffffffffffffff021916908373ffffffffffffffffffffffffffffffffffffffff160217905550808273ffffffffffffffffffffffffffffffffffffffff168473ffffffffffffffffffffffffffffffffffffffff167fddf252ad1be2c89b69c2b068fc378daa952ba7f163c4a11628f55a4df523b3ef60405160405180910390a4612f30838383600161399a565b505050565b60006002600083815260200190815260200160002060009054906101000a900473ffffffffffffffffffffffffffffffffffffffff169050919050565b6000600760009054906101000a900473ffffffffffffffffffffffffffffffffffffffff16905081600760006101000a81548173ffffffffffffffffffffffffffffffffffffffff021916908373ffffffffffffffffffffffffffffffffffffffff1602179055508173ffffffffffffffffffffffffffffffffffffffff168173ffffffffffffffffffffffffffffffffffffffff167f8be0079c531659141344cd1fd0a4f28419497f9722a3daafe3b4186f6b6457e060405160405180910390a35050565b8173ffffffffffffffffffffffffffffffffffffffff168373ffffffffffffffffffffffffffffffffffffffff16036130a6576040517f08c379a000000000000000000000000000000000000000000000000000000000815260040161309d90615b71565b60405180910390fd5b80600560008573ffffffffffffffffffffffffffffffffffffffff1673ffffffffffffffffffffffffffffffffffffffff16815260200190815260200160002060008473ffffffffffffffffffffffffffffffffffffffff1673ffffffffffffffffffffffffffffffffffffffff16815260200190815260200160002060006101000a81548160ff0219169083151502179055508173ffffffffffffffffffffffffffffffffffffffff168373ffffffffffffffffffffffffffffffffffffffff167f17307eab39ab6107e8899845ad3d59bd9653f200f220920489ca2b5937696c31836040516131979190613ef3565b60405180910390a3505050565b6060600060138054905067ffffffffffffffff8111156131c7576131c66144f3565b5b6040519080825280602002602001820160405280156131f55781602001602082028036833780820191505090505b50905060005b60138054905081101561323b578082828151811061321c5761321b614bdd565b5b602002602001018181525050808061323390614c3b565b9150506131fb565b5060005b60016013805490506132519190615b91565b8110156133db5760006001826132679190614da7565b90505b6013805490508110156133c7576132d8601384838151811061328f5761328e614bdd565b5b6020026020010151815481106132a8576132a7614bdd565b5b9060005260206000200160009054906101000a900473ffffffffffffffffffffffffffffffffffffffff166110ab565b61333960138585815181106132f0576132ef614bdd565b5b60200260200101518154811061330957613308614bdd565b5b9060005260206000200160009054906101000a900473ffffffffffffffffffffffffffffffffffffffff166110ab565b10156133b45782818151811061335257613351614bdd565b5b602002602001015183838151811061336d5761336c614bdd565b5b602002602001015184848151811061338857613387614bdd565b5b602002602001018584815181106133a2576133a1614bdd565b5b60200260200101828152508281525050505b80806133bf90614c3b565b91505061326a565b5080806133d390614c3b565b91505061323f565b50600060138054905067ffffffffffffffff8111156133fd576133fc6144f3565b5b60405190808252806020026020018201604052801561342b5781602001602082028036833780820191505090505b50905060005b6013805490508110156134f757601383828151811061345357613452614bdd565b5b60200260200101518154811061346c5761346b614bdd565b5b9060005260206000200160009054906101000a900473ffffffffffffffffffffffffffffffffffffffff168282815181106134aa576134a9614bdd565b5b602002602001019073ffffffffffffffffffffffffffffffffffffffff16908173ffffffffffffffffffffffffffffffffffffffff168152505080806134ef90614c3b565b915050613431565b50809250505090565b61350b848484612c3c565b613517848484846139a0565b613556576040517f08c379a000000000000000000000000000000000000000000000000000000000815260040161354d90615c37565b60405180910390fd5b50505050565b606060405180602001604052806000815250905090565b606061357e82612200565b600061358861355c565b905060008151116135a857604051806020016040528060008152506135d3565b806135b284613b27565b6040516020016135c3929190615653565b6040516020818303038152906040525b915050919050565b60007f80ac58cd000000000000000000000000000000000000000000000000000000007bffffffffffffffffffffffffffffffffffffffffffffffffffffffff1916827bffffffffffffffffffffffffffffffffffffffffffffffffffffffff191614806136a657507f5b5e139f000000000000000000000000000000000000000000000000000000007bffffffffffffffffffffffffffffffffffffffffffffffffffffffff1916827bffffffffffffffffffffffffffffffffffffffffffffffffffffffff1916145b806136b657506136b582613bf5565b5b9050919050565b6001816000016000828254019250508190555050565b600073ffffffffffffffffffffffffffffffffffffffff168273ffffffffffffffffffffffffffffffffffffffff1603613742576040517f08c379a000000000000000000000000000000000000000000000000000000000815260040161373990615ca3565b60405180910390fd5b61374b81612b66565b1561378b576040517f08c379a000000000000000000000000000000000000000000000000000000000815260040161378290615d0f565b60405180910390fd5b613799600083836001613994565b6137a281612b66565b156137e2576040517f08c379a00000000000000000000000000000000000000000000000000000000081526004016137d990615d0f565b60405180910390fd5b6001600360008473ffffffffffffffffffffffffffffffffffffffff1673ffffffffffffffffffffffffffffffffffffffff16815260200190815260200160002060008282540192505081905550816002600083815260200190815260200160002060006101000a81548173ffffffffffffffffffffffffffffffffffffffff021916908373ffffffffffffffffffffffffffffffffffffffff160217905550808273ffffffffffffffffffffffffffffffffffffffff16600073ffffffffffffffffffffffffffffffffffffffff167fddf252ad1be2c89b69c2b068fc378daa952ba7f163c4a11628f55a4df523b3ef60405160405180910390a46138ec60008383600161399a565b5050565b6138f982612b66565b613938576040517f08c379a000000000000000000000000000000000000000000000000000000000815260040161392f90615da1565b60405180910390fd5b806006600084815260200190815260200160002090816139589190615545565b507ff8e1a15aba9398e019f0b49df1a4fde98ee17ae345cb5f6b5e2c27f5033e8ce7826040516139889190614207565b60405180910390a15050565b50505050565b50505050565b60006139c18473ffffffffffffffffffffffffffffffffffffffff16613c5f565b15613b1a578373ffffffffffffffffffffffffffffffffffffffff1663150b7a026139ea61224b565b8786866040518563ffffffff1660e01b8152600401613a0c9493929190615e16565b6020604051808303816000875af1925050508015613a4857506040513d601f19601f82011682018060405250810190613a459190615e77565b60015b613aca573d8060008114613a78576040519150601f19603f3d011682016040523d82523d6000602084013e613a7d565b606091505b506000815103613ac2576040517f08c379a0000000000000000000000000000000000000000000000000000000008152600401613ab990615c37565b60405180910390fd5b805181602001fd5b63150b7a0260e01b7bffffffffffffffffffffffffffffffffffffffffffffffffffffffff1916817bffffffffffffffffffffffffffffffffffffffffffffffffffffffff191614915050613b1f565b600190505b949350505050565b606060006001613b3684613c82565b01905060008167ffffffffffffffff811115613b5557613b546144f3565b5b6040519080825280601f01601f191660200182016040528015613b875781602001600182028036833780820191505090505b509050600082602001820190505b600115613bea578080600190039150507f3031323334353637383961626364656600000000000000000000000000000000600a86061a8153600a8581613bde57613bdd614fd3565b5b04945060008503613b95575b819350505050919050565b60007f01ffc9a7000000000000000000000000000000000000000000000000000000007bffffffffffffffffffffffffffffffffffffffffffffffffffffffff1916827bffffffffffffffffffffffffffffffffffffffffffffffffffffffff1916149050919050565b6000808273ffffffffffffffffffffffffffffffffffffffff163b119050919050565b600080600090507a184f03e93ff9f4daa797ed6e38ed64bf6a1f0100000000000000008310613ce0577a184f03e93ff9f4daa797ed6e38ed64bf6a1f0100000000000000008381613cd657613cd5614fd3565b5b0492506040810190505b6d04ee2d6d415b85acef81000000008310613d1d576d04ee2d6d415b85acef81000000008381613d1357613d12614fd3565b5b0492506020810190505b662386f26fc100008310613d4c57662386f26fc100008381613d4257613d41614fd3565b5b0492506010810190505b6305f5e1008310613d75576305f5e1008381613d6b57613d6a614fd3565b5b0492506008810190505b6127108310613d9a576127108381613d9057613d8f614fd3565b5b0492506004810190505b60648310613dbd5760648381613db357613db2614fd3565b5b0492506002810190505b600a8310613dcc576001810190505b80915050919050565b828054828255906000526020600020908101928215613e11579160200282015b82811115613e10578251825591602001919060010190613df5565b5b509050613e1e9190613e22565b5090565b5b80821115613e3b576000816000905550600101613e23565b5090565b6000604051905090565b600080fd5b600080fd5b60007fffffffff0000000000000000000000000000000000000000000000000000000082169050919050565b613e8881613e53565b8114613e9357600080fd5b50565b600081359050613ea581613e7f565b92915050565b600060208284031215613ec157613ec0613e49565b5b6000613ecf84828501613e96565b91505092915050565b60008115159050919050565b613eed81613ed8565b82525050565b6000602082019050613f086000830184613ee4565b92915050565b600073ffffffffffffffffffffffffffffffffffffffff82169050919050565b6000613f3982613f0e565b9050919050565b613f4981613f2e565b8114613f5457600080fd5b50565b600081359050613f6681613f40565b92915050565b600060208284031215613f8257613f81613e49565b5b6000613f9084828501613f57565b91505092915050565b600081519050919050565b600082825260208201905092915050565b60005b83811015613fd3578082015181840152602081019050613fb8565b60008484015250505050565b6000601f19601f8301169050919050565b6000613ffb82613f99565b6140058185613fa4565b9350614015818560208601613fb5565b61401e81613fdf565b840191505092915050565b600060208201905081810360008301526140438184613ff0565b905092915050565b6000819050919050565b61405e8161404b565b811461406957600080fd5b50565b60008135905061407b81614055565b92915050565b60006020828403121561409757614096613e49565b5b60006140a58482850161406c565b91505092915050565b6140b781613f2e565b82525050565b60006020820190506140d260008301846140ae565b92915050565b600080604083850312156140ef576140ee613e49565b5b60006140fd85828601613f57565b925050602061410e8582860161406c565b9150509250929050565b600081519050919050565b600082825260208201905092915050565b6000819050602082019050919050565b61414d8161404b565b82525050565b600061415f8383614144565b60208301905092915050565b6000602082019050919050565b600061418382614118565b61418d8185614123565b935061419883614134565b8060005b838110156141c95781516141b08882614153565b97506141bb8361416b565b92505060018101905061419c565b5085935050505092915050565b600060208201905081810360008301526141f08184614178565b905092915050565b6142018161404b565b82525050565b600060208201905061421c60008301846141f8565b92915050565b60008060006060848603121561423b5761423a613e49565b5b600061424986828701613f57565b935050602061425a86828701613f57565b925050604061426b8682870161406c565b9150509250925092565b61427e81613ed8565b811461428957600080fd5b50565b60008135905061429b81614275565b92915050565b6000602082840312156142b7576142b6613e49565b5b60006142c58482850161428c565b91505092915050565b600080604083850312156142e5576142e4613e49565b5b60006142f38582860161406c565b92505060206143048582860161406c565b9150509250929050565b7f4e487b7100000000000000000000000000000000000000000000000000000000600052602160045260246000fd5b6004811061434e5761434d61430e565b5b50565b600081905061435f8261433d565b919050565b600061436f82614351565b9050919050565b61437f81614364565b82525050565b600060208201905061439a6000830184614376565b92915050565b600080604083850312156143b7576143b6613e49565b5b60006143c585828601613f57565b92505060206143d68582860161428c565b9150509250929050565b600081519050919050565b600082825260208201905092915050565b6000819050602082019050919050565b61441581613f2e565b82525050565b6000614427838361440c565b60208301905092915050565b6000602082019050919050565b600061444b826143e0565b61445581856143eb565b9350614460836143fc565b8060005b83811015614491578151614478888261441b565b975061448383614433565b925050600181019050614464565b5085935050505092915050565b600060208201905081810360008301526144b88184614440565b905092915050565b60006040820190506144d560008301856141f8565b6144e26020830184614376565b9392505050565b600080fd5b600080fd5b7f4e487b7100000000000000000000000000000000000000000000000000000000600052604160045260246000fd5b61452b82613fdf565b810181811067ffffffffffffffff8211171561454a576145496144f3565b5b80604052505050565b600061455d613e3f565b90506145698282614522565b919050565b600067ffffffffffffffff821115614589576145886144f3565b5b61459282613fdf565b9050602081019050919050565b82818337600083830152505050565b60006145c16145bc8461456e565b614553565b9050828152602081018484840111156145dd576145dc6144ee565b5b6145e884828561459f565b509392505050565b600082601f830112614605576146046144e9565b5b81356146158482602086016145ae565b91505092915050565b6000806040838503121561463557614634613e49565b5b600083013567ffffffffffffffff81111561465357614652613e4e565b5b61465f858286016145f0565b92505060206146708582860161406c565b9150509250929050565b600067ffffffffffffffff821115614695576146946144f3565b5b61469e82613fdf565b9050602081019050919050565b60006146be6146b98461467a565b614553565b9050828152602081018484840111156146da576146d96144ee565b5b6146e584828561459f565b509392505050565b600082601f830112614702576147016144e9565b5b81356147128482602086016146ab565b91505092915050565b6000806000806080858703121561473557614734613e49565b5b600061474387828801613f57565b945050602061475487828801613f57565b93505060406147658782880161406c565b925050606085013567ffffffffffffffff81111561478657614785613e4e565b5b614792878288016146ed565b91505092959194509250565b600067ffffffffffffffff8211156147b9576147b86144f3565b5b602082029050602081019050919050565b600080fd5b60006147e26147dd8461479e565b614553565b90508083825260208201905060208402830185811115614805576148046147ca565b5b835b8181101561482e578061481a888261406c565b845260208401935050602081019050614807565b5050509392505050565b600082601f83011261484d5761484c6144e9565b5b813561485d8482602086016147cf565b91505092915050565b60006020828403121561487c5761487b613e49565b5b600082013567ffffffffffffffff81111561489a57614899613e4e565b5b6148a684828501614838565b91505092915050565b600080604083850312156148c6576148c5613e49565b5b60006148d485828601613f57565b92505060206148e585828601613f57565b9150509250929050565b7f4e487b7100000000000000000000000000000000000000000000000000000000600052602260045260246000fd5b6000600282049050600182168061493657607f821691505b602082108103614949576149486148ef565b5b50919050565b7f4552433732313a20617070726f76616c20746f2063757272656e74206f776e6560008201527f7200000000000000000000000000000000000000000000000000000000000000602082015250565b60006149ab602183613fa4565b91506149b68261494f565b604082019050919050565b600060208201905081810360008301526149da8161499e565b9050919050565b7f4552433732313a20617070726f76652063616c6c6572206973206e6f7420746f60008201527f6b656e206f776e6572206f7220617070726f76656420666f7220616c6c000000602082015250565b6000614a3d603d83613fa4565b9150614a48826149e1565b604082019050919050565b60006020820190508181036000830152614a6c81614a30565b9050919050565b7f596f7520617265206e6f7420616c6c6f77656420746f206d696e740000000000600082015250565b6000614aa9601b83613fa4565b9150614ab482614a73565b602082019050919050565b60006020820190508181036000830152614ad881614a9c565b9050919050565b7f596f752068617665207265616368656420746865206c696d6974206f66206d6960008201527f6e74696e67000000000000000000000000000000000000000000000000000000602082015250565b6000614b3b602583613fa4565b9150614b4682614adf565b604082019050919050565b60006020820190508181036000830152614b6a81614b2e565b9050919050565b7f496e73756666696369656e742065746865722073656e74000000000000000000600082015250565b6000614ba7601783613fa4565b9150614bb282614b71565b602082019050919050565b60006020820190508181036000830152614bd681614b9a565b9050919050565b7f4e487b7100000000000000000000000000000000000000000000000000000000600052603260045260246000fd5b7f4e487b7100000000000000000000000000000000000000000000000000000000600052601160045260246000fd5b6000614c468261404b565b91507fffffffffffffffffffffffffffffffffffffffffffffffffffffffffffffffff8203614c7857614c77614c0c565b5b600182019050919050565b7f4552433732313a2063616c6c6572206973206e6f7420746f6b656e206f776e6560008201527f72206f7220617070726f76656400000000000000000000000000000000000000602082015250565b6000614cdf602d83613fa4565b9150614cea82614c83565b604082019050919050565b60006020820190508181036000830152614d0e81614cd2565b9050919050565b7f596f752063616e206e6f7420776974686472617720617420746869732074696d60008201527f6500000000000000000000000000000000000000000000000000000000000000602082015250565b6000614d71602183613fa4565b9150614d7c82614d15565b604082019050919050565b60006020820190508181036000830152614da081614d64565b9050919050565b6000614db28261404b565b9150614dbd8361404b565b9250828201905080821115614dd557614dd4614c0c565b5b92915050565b7f4e756d626572206f662077696e6e657273206d7573742062652067726561746560008201527f72207468616e207a65726f000000000000000000000000000000000000000000602082015250565b6000614e37602b83613fa4565b9150614e4282614ddb565b604082019050919050565b60006020820190508181036000830152614e6681614e2a565b9050919050565b7f4e756d626572206f662077696e6e657273206578636565647320746865206e7560008201527f6d626572206f66206d696e74696e672061646472657373657300000000000000602082015250565b6000614ec9603983613fa4565b9150614ed482614e6d565b604082019050919050565b60006020820190508181036000830152614ef881614ebc565b9050919050565b7f5265776172642070657263656e74616765206d7573742062652062657477656560008201527f6e203120616e6420313030000000000000000000000000000000000000000000602082015250565b6000614f5b602b83613fa4565b9150614f6682614eff565b604082019050919050565b60006020820190508181036000830152614f8a81614f4e565b9050919050565b6000614f9c8261404b565b9150614fa78361404b565b9250828202614fb58161404b565b91508282048414831517614fcc57614fcb614c0c565b5b5092915050565b7f4e487b7100000000000000000000000000000000000000000000000000000000600052601260045260246000fd5b600061500d8261404b565b91506150188361404b565b92508261502857615027614fd3565b5b828204905092915050565b7f596f7520617265206e6f7420746865206f776e65720000000000000000000000600082015250565b6000615069601583613fa4565b915061507482615033565b602082019050919050565b600060208201905081810360008301526150988161505c565b9050919050565b7f4552433732313a20696e76616c696420746f6b656e2049440000000000000000600082015250565b60006150d5601883613fa4565b91506150e08261509f565b602082019050919050565b60006020820190508181036000830152615104816150c8565b9050919050565b7f546f6b656e20494420646f6573206e6f74206578697374000000000000000000600082015250565b6000615141601783613fa4565b915061514c8261510b565b602082019050919050565b6000602082019050818103600083015261517081615134565b9050919050565b7f4552433732313a2061646472657373207a65726f206973206e6f74206120766160008201527f6c6964206f776e65720000000000000000000000000000000000000000000000602082015250565b60006151d3602983613fa4565b91506151de82615177565b604082019050919050565b60006020820190508181036000830152615202816151c6565b9050919050565b7f596f7520617265206e6f7420746865206f776e6572206f662074686973204e4660008201527f5400000000000000000000000000000000000000000000000000000000000000602082015250565b6000615265602183613fa4565b915061527082615209565b604082019050919050565b6000602082019050818103600083015261529481615258565b9050919050565b7f546f70206d7573742062652067726561746572207468616e207a65726f000000600082015250565b60006152d1601d83613fa4565b91506152dc8261529b565b602082019050919050565b60006020820190508181036000830152615300816152c4565b9050919050565b7f546f70206578636565647320746865206e756d626572206f66206d696e74696e60008201527f6720616464726573736573000000000000000000000000000000000000000000602082015250565b6000615363602b83613fa4565b915061536e82615307565b604082019050919050565b6000602082019050818103600083015261539281615356565b9050919050565b60008190508160005260206000209050919050565b60006020601f8301049050919050565b600082821b905092915050565b6000600883026153fb7fffffffffffffffffffffffffffffffffffffffffffffffffffffffffffffffff826153be565b61540586836153be565b95508019841693508086168417925050509392505050565b6000819050919050565b600061544261543d6154388461404b565b61541d565b61404b565b9050919050565b6000819050919050565b61545c83615427565b61547061546882615449565b8484546153cb565b825550505050565b600090565b615485615478565b615490818484615453565b505050565b5b818110156154b4576154a960008261547d565b600181019050615496565b5050565b601f8211156154f9576154ca81615399565b6154d3846153ae565b810160208510156154e2578190505b6154f66154ee856153ae565b830182615495565b50505b505050565b600082821c905092915050565b600061551c600019846008026154fe565b1980831691505092915050565b6000615535838361550b565b9150826002028217905092915050565b61554e82613f99565b67ffffffffffffffff811115615567576155666144f3565b5b615571825461491e565b61557c8282856154b8565b600060209050601f8311600181146155af576000841561559d578287015190505b6155a78582615529565b86555061560f565b601f1984166155bd86615399565b60005b828110156155e5578489015182556001820191506020850194506020810190506155c0565b8683101561560257848901516155fe601f89168261550b565b8355505b6001600288020188555050505b505050505050565b600081905092915050565b600061562d82613f99565b6156378185615617565b9350615647818560208601613fb5565b80840191505092915050565b600061565f8285615622565b915061566b8284615622565b91508190509392505050565b7f526172697479206d7573742068617665203420656c656d656e74730000000000600082015250565b60006156ad601b83613fa4565b91506156b882615677565b602082019050919050565b600060208201905081810360008301526156dc816156a0565b9050919050565b7f5468652073756d206f6620726172697479206d75737420626520313030000000600082015250565b6000615719601d83613fa4565b9150615724826156e3565b602082019050919050565b600060208201905081810360008301526157488161570c565b9050919050565b7f4f776e61626c653a206e6577206f776e657220697320746865207a65726f206160008201527f6464726573730000000000000000000000000000000000000000000000000000602082015250565b60006157ab602683613fa4565b91506157b68261574f565b604082019050919050565b600060208201905081810360008301526157da8161579e565b9050919050565b7f4f6e6c79207468652064657369676e6174656420616464726573732063616e2060008201527f7769746864726177000000000000000000000000000000000000000000000000602082015250565b600061583d602883613fa4565b9150615848826157e1565b604082019050919050565b6000602082019050818103600083015261586c81615830565b9050919050565b7f4f776e61626c653a2063616c6c6572206973206e6f7420746865206f776e6572600082015250565b60006158a9602083613fa4565b91506158b482615873565b602082019050919050565b600060208201905081810360008301526158d88161589c565b9050919050565b6000819050919050565b6158fa6158f58261404b565b6158df565b82525050565b60008160601b9050919050565b600061591882615900565b9050919050565b600061592a8261590d565b9050919050565b61594261593d82613f2e565b61591f565b82525050565b600061595482886158e9565b60208201915061596482876158e9565b60208201915061597482866158e9565b6020820191506159848285615931565b6014820191506159948284615931565b6014820191508190509695505050505050565b60006159b28261404b565b91506159bd8361404b565b9250826159cd576159cc614fd3565b5b828206905092915050565b60006040820190506159ed60008301856141f8565b6159fa60208301846141f8565b9392505050565b7f4552433732313a207472616e736665722066726f6d20696e636f72726563742060008201527f6f776e6572000000000000000000000000000000000000000000000000000000602082015250565b6000615a5d602583613fa4565b9150615a6882615a01565b604082019050919050565b60006020820190508181036000830152615a8c81615a50565b9050919050565b7f4552433732313a207472616e7366657220746f20746865207a65726f2061646460008201527f7265737300000000000000000000000000000000000000000000000000000000602082015250565b6000615aef602483613fa4565b9150615afa82615a93565b604082019050919050565b60006020820190508181036000830152615b1e81615ae2565b9050919050565b7f4552433732313a20617070726f766520746f2063616c6c657200000000000000600082015250565b6000615b5b601983613fa4565b9150615b6682615b25565b602082019050919050565b60006020820190508181036000830152615b8a81615b4e565b9050919050565b6000615b9c8261404b565b9150615ba78361404b565b9250828203905081811115615bbf57615bbe614c0c565b5b92915050565b7f4552433732313a207472616e7366657220746f206e6f6e20455243373231526560008201527f63656976657220696d706c656d656e7465720000000000000000000000000000602082015250565b6000615c21603283613fa4565b9150615c2c82615bc5565b604082019050919050565b60006020820190508181036000830152615c5081615c14565b9050919050565b7f4552433732313a206d696e7420746f20746865207a65726f2061646472657373600082015250565b6000615c8d602083613fa4565b9150615c9882615c57565b602082019050919050565b60006020820190508181036000830152615cbc81615c80565b9050919050565b7f4552433732313a20746f6b656e20616c7265616479206d696e74656400000000600082015250565b6000615cf9601c83613fa4565b9150615d0482615cc3565b602082019050919050565b60006020820190508181036000830152615d2881615cec565b9050919050565b7f45524337323155524953746f726167653a2055524920736574206f66206e6f6e60008201527f6578697374656e7420746f6b656e000000000000000000000000000000000000602082015250565b6000615d8b602e83613fa4565b9150615d9682615d2f565b604082019050919050565b60006020820190508181036000830152615dba81615d7e565b9050919050565b600081519050919050565b600082825260208201905092915050565b6000615de882615dc1565b615df28185615dcc565b9350615e02818560208601613fb5565b615e0b81613fdf565b840191505092915050565b6000608082019050615e2b60008301876140ae565b615e3860208301866140ae565b615e4560408301856141f8565b8181036060830152615e578184615ddd565b905095945050505050565b600081519050615e7181613e7f565b92915050565b600060208284031215615e8d57615e8c613e49565b5b6000615e9b84828501615e62565b9150509291505056fea264697066735822122057a2b18114be36aad75561dc4dfe2acca2d762cb449b98c282e53bed1c385f1d64736f6c6343000812003368747470733a2f2f697066732e696f2f697066732f516d636144524b6235634d35434e3647444d425977346d334474557548565a366653654371695639594d715a77773f66696c656e616d653d4e4654302e6a736f6e68747470733a2f2f697066732e696f2f697066732f516d634a314641445757465775704838334b50566d633171684e416d694b6d48624d356735546a767452673965353f66696c656e616d653d4e4654312e6a736f6e68747470733a2f2f697066732e696f2f697066732f516d5467714d64374d594e4c4e47517968737a45506777636169756d5935346b3939745a4e6162466471596956663f66696c656e616d653d4e4654322e6a736f6e68747470733a2f2f697066732e696f2f697066732f516d52516d4c6d6f78433861436f44556b537155544b75734733743270354d64745531716a4741473973734c35753f66696c656e616d653d4e4654332e6a736f6e","opcodes":"PUSH1 0x80 PUSH1 0x40 MSTORE PUSH1 0x40 MLOAD DUP1 PUSH1 0x80 ADD PUSH1 0x40 MSTORE DUP1 PUSH1 0x40 MLOAD DUP1 PUSH1 0x80 ADD PUSH1 0x40 MSTORE DUP1 PUSH1 0x56 DUP2 MSTORE PUSH1 0x20 ADD PUSH3 0x6729 PUSH1 0x56 SWAP2 CODECOPY DUP2 MSTORE PUSH1 0x20 ADD PUSH1 0x40 MLOAD DUP1 PUSH1 0x80 ADD PUSH1 0x40 MSTORE DUP1 PUSH1 0x56 DUP2 MSTORE PUSH1 0x20 ADD PUSH3 0x677F PUSH1 0x56 SWAP2 CODECOPY DUP2 MSTORE PUSH1 0x20 ADD PUSH1 0x40 MLOAD DUP1 PUSH1 0x80 ADD PUSH1 0x40 MSTORE DUP1 PUSH1 0x56 DUP2 MSTORE PUSH1 0x20 ADD PUSH3 0x67D5 PUSH1 0x56 SWAP2 CODECOPY DUP2 MSTORE PUSH1 0x20 ADD PUSH1 0x40 MLOAD DUP1 PUSH1 0x80 ADD PUSH1 0x40 MSTORE DUP1 PUSH1 0x56 DUP2 MSTORE PUSH1 0x20 ADD PUSH3 0x682B PUSH1 0x56 SWAP2 CODECOPY DUP2 MSTORE POP PUSH1 0xE PUSH1 0x0 DUP3 ADD MLOAD DUP2 PUSH1 0x0 ADD SWAP1 DUP2 PUSH3 0xA2 SWAP2 SWAP1 PUSH3 0x6BC JUMP JUMPDEST POP PUSH1 0x20 DUP3 ADD MLOAD DUP2 PUSH1 0x1 ADD SWAP1 DUP2 PUSH3 0xBA SWAP2 SWAP1 PUSH3 0x6BC JUMP JUMPDEST POP PUSH1 0x40 DUP3 ADD MLOAD DUP2 PUSH1 0x2 ADD SWAP1 DUP2 PUSH3 0xD2 SWAP2 SWAP1 PUSH3 0x6BC JUMP JUMPDEST POP PUSH1 0x60 DUP3 ADD MLOAD DUP2 PUSH1 0x3 ADD SWAP1 DUP2 PUSH3 0xEA SWAP2 SWAP1 PUSH3 0x6BC JUMP JUMPDEST POP POP POP PUSH1 0x0 PUSH1 0x12 PUSH1 0x0 PUSH2 0x100 EXP DUP2 SLOAD DUP2 PUSH1 0xFF MUL NOT AND SWAP1 DUP4 ISZERO ISZERO MUL OR SWAP1 SSTORE POP CALLVALUE DUP1 ISZERO PUSH3 0x115 JUMPI PUSH1 0x0 DUP1 REVERT JUMPDEST POP PUSH1 0x40 MLOAD PUSH3 0x6881 CODESIZE SUB DUP1 PUSH3 0x6881 DUP4 CODECOPY DUP2 DUP2 ADD PUSH1 0x40 MSTORE DUP2 ADD SWAP1 PUSH3 0x13B SWAP2 SWAP1 PUSH3 0x80D JUMP JUMPDEST PUSH1 0x40 MLOAD DUP1 PUSH1 0x40 ADD PUSH1 0x40 MSTORE DUP1 PUSH1 0xF DUP2 MSTORE PUSH1 0x20 ADD PUSH32 0x4261736558205370616365736869700000000000000000000000000000000000 DUP2 MSTORE POP PUSH1 0x40 MLOAD DUP1 PUSH1 0x40 ADD PUSH1 0x40 MSTORE DUP1 PUSH1 0x2 DUP2 MSTORE PUSH1 0x20 ADD PUSH32 0x4258000000000000000000000000000000000000000000000000000000000000 DUP2 MSTORE POP DUP2 PUSH1 0x0 SWAP1 DUP2 PUSH3 0x1B8 SWAP2 SWAP1 PUSH3 0x6BC JUMP JUMPDEST POP DUP1 PUSH1 0x1 SWAP1 DUP2 PUSH3 0x1CA SWAP2 SWAP1 PUSH3 0x6BC JUMP JUMPDEST POP POP POP PUSH3 0x1ED PUSH3 0x1E1 PUSH3 0x374 PUSH1 0x20 SHL PUSH1 0x20 SHR JUMP JUMPDEST PUSH3 0x37C PUSH1 0x20 SHL PUSH1 0x20 SHR JUMP JUMPDEST PUSH1 0x64 PUSH1 0xA DUP2 SWAP1 SSTORE POP CALLER PUSH1 0xC PUSH1 0x0 PUSH2 0x100 EXP DUP2 SLOAD DUP2 PUSH20 0xFFFFFFFFFFFFFFFFFFFFFFFFFFFFFFFFFFFFFFFF MUL NOT AND SWAP1 DUP4 PUSH20 0xFFFFFFFFFFFFFFFFFFFFFFFFFFFFFFFFFFFFFFFF AND MUL OR SWAP1 SSTORE POP PUSH1 0x0 PUSH1 0xD DUP2 SWAP1 SSTORE POP PUSH1 0x0 PUSH1 0xB DUP2 SWAP1 SSTORE POP PUSH1 0x16 PUSH1 0x3C SWAP1 DUP1 PUSH1 0x1 DUP2 SLOAD ADD DUP1 DUP3 SSTORE DUP1 SWAP2 POP POP PUSH1 0x1 SWAP1 SUB SWAP1 PUSH1 0x0 MSTORE PUSH1 0x20 PUSH1 0x0 KECCAK256 ADD PUSH1 0x0 SWAP1 SWAP2 SWAP1 SWAP2 SWAP1 SWAP2 POP SSTORE PUSH1 0x16 PUSH1 0x19 SWAP1 DUP1 PUSH1 0x1 DUP2 SLOAD ADD DUP1 DUP3 SSTORE DUP1 SWAP2 POP POP PUSH1 0x1 SWAP1 SUB SWAP1 PUSH1 0x0 MSTORE PUSH1 0x20 PUSH1 0x0 KECCAK256 ADD PUSH1 0x0 SWAP1 SWAP2 SWAP1 SWAP2 SWAP1 SWAP2 POP SSTORE PUSH1 0x16 PUSH1 0xA SWAP1 DUP1 PUSH1 0x1 DUP2 SLOAD ADD DUP1 DUP3 SSTORE DUP1 SWAP2 POP POP PUSH1 0x1 SWAP1 SUB SWAP1 PUSH1 0x0 MSTORE PUSH1 0x20 PUSH1 0x0 KECCAK256 ADD PUSH1 0x0 SWAP1 SWAP2 SWAP1 SWAP2 SWAP1 SWAP2 POP SSTORE PUSH1 0x16 PUSH1 0x5 SWAP1 DUP1 PUSH1 0x1 DUP2 SLOAD ADD DUP1 DUP3 SSTORE DUP1 SWAP2 POP POP PUSH1 0x1 SWAP1 SUB SWAP1 PUSH1 0x0 MSTORE PUSH1 0x20 PUSH1 0x0 KECCAK256 ADD PUSH1 0x0 SWAP1 SWAP2 SWAP1 SWAP2 SWAP1 SWAP2 POP SSTORE PUSH1 0x0 PUSH1 0x17 PUSH1 0x0 PUSH2 0x100 EXP DUP2 SLOAD DUP2 PUSH1 0xFF MUL NOT AND SWAP1 DUP4 ISZERO ISZERO MUL OR SWAP1 SSTORE POP DUP1 PUSH1 0x17 PUSH1 0x1 PUSH2 0x100 EXP DUP2 SLOAD DUP2 PUSH20 0xFFFFFFFFFFFFFFFFFFFFFFFFFFFFFFFFFFFFFFFF MUL NOT AND SWAP1 DUP4 PUSH20 0xFFFFFFFFFFFFFFFFFFFFFFFFFFFFFFFFFFFFFFFF AND MUL OR SWAP1 SSTORE POP PUSH1 0x64 PUSH1 0x18 DUP2 SWAP1 SSTORE POP PUSH1 0x0 PUSH1 0x19 PUSH1 0x0 PUSH2 0x100 EXP DUP2 SLOAD DUP2 PUSH1 0xFF MUL NOT AND SWAP1 DUP4 ISZERO ISZERO MUL OR SWAP1 SSTORE POP POP PUSH3 0x83F JUMP JUMPDEST PUSH1 0x0 CALLER SWAP1 POP SWAP1 JUMP JUMPDEST PUSH1 0x0 PUSH1 0x7 PUSH1 0x0 SWAP1 SLOAD SWAP1 PUSH2 0x100 EXP SWAP1 DIV PUSH20 0xFFFFFFFFFFFFFFFFFFFFFFFFFFFFFFFFFFFFFFFF AND SWAP1 POP DUP2 PUSH1 0x7 PUSH1 0x0 PUSH2 0x100 EXP DUP2 SLOAD DUP2 PUSH20 0xFFFFFFFFFFFFFFFFFFFFFFFFFFFFFFFFFFFFFFFF MUL NOT AND SWAP1 DUP4 PUSH20 0xFFFFFFFFFFFFFFFFFFFFFFFFFFFFFFFFFFFFFFFF AND MUL OR SWAP1 SSTORE POP DUP2 PUSH20 0xFFFFFFFFFFFFFFFFFFFFFFFFFFFFFFFFFFFFFFFF AND DUP2 PUSH20 0xFFFFFFFFFFFFFFFFFFFFFFFFFFFFFFFFFFFFFFFF AND PUSH32 0x8BE0079C531659141344CD1FD0A4F28419497F9722A3DAAFE3B4186F6B6457E0 PUSH1 0x40 MLOAD PUSH1 0x40 MLOAD DUP1 SWAP2 SUB SWAP1 LOG3 POP POP JUMP JUMPDEST PUSH1 0x0 DUP2 MLOAD SWAP1 POP SWAP2 SWAP1 POP JUMP JUMPDEST PUSH32 0x4E487B7100000000000000000000000000000000000000000000000000000000 PUSH1 0x0 MSTORE PUSH1 0x41 PUSH1 0x4 MSTORE PUSH1 0x24 PUSH1 0x0 REVERT JUMPDEST PUSH32 0x4E487B7100000000000000000000000000000000000000000000000000000000 PUSH1 0x0 MSTORE PUSH1 0x22 PUSH1 0x4 MSTORE PUSH1 0x24 PUSH1 0x0 REVERT JUMPDEST PUSH1 0x0 PUSH1 0x2 DUP3 DIV SWAP1 POP PUSH1 0x1 DUP3 AND DUP1 PUSH3 0x4C4 JUMPI PUSH1 0x7F DUP3 AND SWAP2 POP JUMPDEST PUSH1 0x20 DUP3 LT DUP2 SUB PUSH3 0x4DA JUMPI PUSH3 0x4D9 PUSH3 0x47C JUMP JUMPDEST JUMPDEST POP SWAP2 SWAP1 POP JUMP JUMPDEST PUSH1 0x0 DUP2 SWAP1 POP DUP2 PUSH1 0x0 MSTORE PUSH1 0x20 PUSH1 0x0 KECCAK256 SWAP1 POP SWAP2 SWAP1 POP JUMP JUMPDEST PUSH1 0x0 PUSH1 0x20 PUSH1 0x1F DUP4 ADD DIV SWAP1 POP SWAP2 SWAP1 POP JUMP JUMPDEST PUSH1 0x0 DUP3 DUP3 SHL SWAP1 POP SWAP3 SWAP2 POP POP JUMP JUMPDEST PUSH1 0x0 PUSH1 0x8 DUP4 MUL PUSH3 0x544 PUSH32 0xFFFFFFFFFFFFFFFFFFFFFFFFFFFFFFFFFFFFFFFFFFFFFFFFFFFFFFFFFFFFFFFF DUP3 PUSH3 0x505 JUMP JUMPDEST PUSH3 0x550 DUP7 DUP4 PUSH3 0x505 JUMP JUMPDEST SWAP6 POP DUP1 NOT DUP5 AND SWAP4 POP DUP1 DUP7 AND DUP5 OR SWAP3 POP POP POP SWAP4 SWAP3 POP POP POP JUMP JUMPDEST PUSH1 0x0 DUP2 SWAP1 POP SWAP2 SWAP1 POP JUMP JUMPDEST PUSH1 0x0 DUP2 SWAP1 POP SWAP2 SWAP1 POP JUMP JUMPDEST PUSH1 0x0 PUSH3 0x59D PUSH3 0x597 PUSH3 0x591 DUP5 PUSH3 0x568 JUMP JUMPDEST PUSH3 0x572 JUMP JUMPDEST PUSH3 0x568 JUMP JUMPDEST SWAP1 POP SWAP2 SWAP1 POP JUMP JUMPDEST PUSH1 0x0 DUP2 SWAP1 POP SWAP2 SWAP1 POP JUMP JUMPDEST PUSH3 0x5B9 DUP4 PUSH3 0x57C JUMP JUMPDEST PUSH3 0x5D1 PUSH3 0x5C8 DUP3 PUSH3 0x5A4 JUMP JUMPDEST DUP5 DUP5 SLOAD PUSH3 0x512 JUMP JUMPDEST DUP3 SSTORE POP POP POP POP JUMP JUMPDEST PUSH1 0x0 SWAP1 JUMP JUMPDEST PUSH3 0x5E8 PUSH3 0x5D9 JUMP JUMPDEST PUSH3 0x5F5 DUP2 DUP5 DUP5 PUSH3 0x5AE JUMP JUMPDEST POP POP POP JUMP JUMPDEST JUMPDEST DUP2 DUP2 LT ISZERO PUSH3 0x61D JUMPI PUSH3 0x611 PUSH1 0x0 DUP3 PUSH3 0x5DE JUMP JUMPDEST PUSH1 0x1 DUP2 ADD SWAP1 POP PUSH3 0x5FB JUMP JUMPDEST POP POP JUMP JUMPDEST PUSH1 0x1F DUP3 GT ISZERO PUSH3 0x66C JUMPI PUSH3 0x636 DUP2 PUSH3 0x4E0 JUMP JUMPDEST PUSH3 0x641 DUP5 PUSH3 0x4F5 JUMP JUMPDEST DUP2 ADD PUSH1 0x20 DUP6 LT ISZERO PUSH3 0x651 JUMPI DUP2 SWAP1 POP JUMPDEST PUSH3 0x669 PUSH3 0x660 DUP6 PUSH3 0x4F5 JUMP JUMPDEST DUP4 ADD DUP3 PUSH3 0x5FA JUMP JUMPDEST POP POP JUMPDEST POP POP POP JUMP JUMPDEST PUSH1 0x0 DUP3 DUP3 SHR SWAP1 POP SWAP3 SWAP2 POP POP JUMP JUMPDEST PUSH1 0x0 PUSH3 0x691 PUSH1 0x0 NOT DUP5 PUSH1 0x8 MUL PUSH3 0x671 JUMP JUMPDEST NOT DUP1 DUP4 AND SWAP2 POP POP SWAP3 SWAP2 POP POP JUMP JUMPDEST PUSH1 0x0 PUSH3 0x6AC DUP4 DUP4 PUSH3 0x67E JUMP JUMPDEST SWAP2 POP DUP3 PUSH1 0x2 MUL DUP3 OR SWAP1 POP SWAP3 SWAP2 POP POP JUMP JUMPDEST PUSH3 0x6C7 DUP3 PUSH3 0x442 JUMP JUMPDEST PUSH8 0xFFFFFFFFFFFFFFFF DUP2 GT ISZERO PUSH3 0x6E3 JUMPI PUSH3 0x6E2 PUSH3 0x44D JUMP JUMPDEST JUMPDEST PUSH3 0x6EF DUP3 SLOAD PUSH3 0x4AB JUMP JUMPDEST PUSH3 0x6FC DUP3 DUP3 DUP6 PUSH3 0x621 JUMP JUMPDEST PUSH1 0x0 PUSH1 0x20 SWAP1 POP PUSH1 0x1F DUP4 GT PUSH1 0x1 DUP2 EQ PUSH3 0x734 JUMPI PUSH1 0x0 DUP5 ISZERO PUSH3 0x71F JUMPI DUP3 DUP8 ADD MLOAD SWAP1 POP JUMPDEST PUSH3 0x72B DUP6 DUP3 PUSH3 0x69E JUMP JUMPDEST DUP7 SSTORE POP PUSH3 0x79B JUMP JUMPDEST PUSH1 0x1F NOT DUP5 AND PUSH3 0x744 DUP7 PUSH3 0x4E0 JUMP JUMPDEST PUSH1 0x0 JUMPDEST DUP3 DUP2 LT ISZERO PUSH3 0x76E JUMPI DUP5 DUP10 ADD MLOAD DUP3 SSTORE PUSH1 0x1 DUP3 ADD SWAP2 POP PUSH1 0x20 DUP6 ADD SWAP5 POP PUSH1 0x20 DUP2 ADD SWAP1 POP PUSH3 0x747 JUMP JUMPDEST DUP7 DUP4 LT ISZERO PUSH3 0x78E JUMPI DUP5 DUP10 ADD MLOAD PUSH3 0x78A PUSH1 0x1F DUP10 AND DUP3 PUSH3 0x67E JUMP JUMPDEST DUP4 SSTORE POP JUMPDEST PUSH1 0x1 PUSH1 0x2 DUP9 MUL ADD DUP9 SSTORE POP POP POP JUMPDEST POP POP POP POP POP POP JUMP JUMPDEST PUSH1 0x0 DUP1 REVERT JUMPDEST PUSH1 0x0 PUSH20 0xFFFFFFFFFFFFFFFFFFFFFFFFFFFFFFFFFFFFFFFF DUP3 AND SWAP1 POP SWAP2 SWAP1 POP JUMP JUMPDEST PUSH1 0x0 PUSH3 0x7D5 DUP3 PUSH3 0x7A8 JUMP JUMPDEST SWAP1 POP SWAP2 SWAP1 POP JUMP JUMPDEST PUSH3 0x7E7 DUP2 PUSH3 0x7C8 JUMP JUMPDEST DUP2 EQ PUSH3 0x7F3 JUMPI PUSH1 0x0 DUP1 REVERT JUMPDEST POP JUMP JUMPDEST PUSH1 0x0 DUP2 MLOAD SWAP1 POP PUSH3 0x807 DUP2 PUSH3 0x7DC JUMP JUMPDEST SWAP3 SWAP2 POP POP JUMP JUMPDEST PUSH1 0x0 PUSH1 0x20 DUP3 DUP5 SUB SLT ISZERO PUSH3 0x826 JUMPI PUSH3 0x825 PUSH3 0x7A3 JUMP JUMPDEST JUMPDEST PUSH1 0x0 PUSH3 0x836 DUP5 DUP3 DUP6 ADD PUSH3 0x7F6 JUMP JUMPDEST SWAP2 POP POP SWAP3 SWAP2 POP POP JUMP JUMPDEST PUSH2 0x5EDA DUP1 PUSH3 0x84F PUSH1 0x0 CODECOPY PUSH1 0x0 RETURN INVALID PUSH1 0x80 PUSH1 0x40 MSTORE PUSH1 0x4 CALLDATASIZE LT PUSH2 0x251 JUMPI PUSH1 0x0 CALLDATALOAD PUSH1 0xE0 SHR DUP1 PUSH4 0x84028697 GT PUSH2 0x139 JUMPI DUP1 PUSH4 0xAC399914 GT PUSH2 0xB6 JUMPI DUP1 PUSH4 0xE1D031F5 GT PUSH2 0x7A JUMPI DUP1 PUSH4 0xE1D031F5 EQ PUSH2 0x8B4 JUMPI DUP1 PUSH4 0xE985E9C5 EQ PUSH2 0x8DD JUMPI DUP1 PUSH4 0xEBB24C32 EQ PUSH2 0x91A JUMPI DUP1 PUSH4 0xF2FDE38B EQ PUSH2 0x943 JUMPI DUP1 PUSH4 0xF4F3B059 EQ PUSH2 0x96C JUMPI DUP1 PUSH4 0xF8A8FD6D EQ PUSH2 0x995 JUMPI PUSH2 0x251 JUMP JUMPDEST DUP1 PUSH4 0xAC399914 EQ PUSH2 0x7D1 JUMPI DUP1 PUSH4 0xB63B3D57 EQ PUSH2 0x7FA JUMPI DUP1 PUSH4 0xB784902E EQ PUSH2 0x825 JUMPI DUP1 PUSH4 0xB88D4FDE EQ PUSH2 0x84E JUMPI DUP1 PUSH4 0xC87B56DD EQ PUSH2 0x877 JUMPI PUSH2 0x251 JUMP JUMPDEST DUP1 PUSH4 0x9B525924 GT PUSH2 0xFD JUMPI DUP1 PUSH4 0x9B525924 EQ PUSH2 0x6D7 JUMPI DUP1 PUSH4 0xA035B1FE EQ PUSH2 0x702 JUMPI DUP1 PUSH4 0xA22CB465 EQ PUSH2 0x72D JUMPI DUP1 PUSH4 0xA23AF5CB EQ PUSH2 0x756 JUMPI DUP1 PUSH4 0xA3C0B95B EQ PUSH2 0x793 JUMPI PUSH2 0x251 JUMP JUMPDEST DUP1 PUSH4 0x84028697 EQ PUSH2 0x604 JUMPI DUP1 PUSH4 0x8DA5CB5B EQ PUSH2 0x62D JUMPI DUP1 PUSH4 0x94AB67FE EQ PUSH2 0x658 JUMPI DUP1 PUSH4 0x95D89B41 EQ PUSH2 0x681 JUMPI DUP1 PUSH4 0x98D5FDCA EQ PUSH2 0x6AC JUMPI PUSH2 0x251 JUMP JUMPDEST DUP1 PUSH4 0x3CCFD60B GT PUSH2 0x1D2 JUMPI DUP1 PUSH4 0x5B7C0DC7 GT PUSH2 0x196 JUMPI DUP1 PUSH4 0x5B7C0DC7 EQ PUSH2 0x4E2 JUMPI DUP1 PUSH4 0x6352211E EQ PUSH2 0x50B JUMPI DUP1 PUSH4 0x6C5BF32E EQ PUSH2 0x548 JUMPI DUP1 PUSH4 0x70A08231 EQ PUSH2 0x585 JUMPI DUP1 PUSH4 0x715018A6 EQ PUSH2 0x5C2 JUMPI DUP1 PUSH4 0x7B32CDBA EQ PUSH2 0x5D9 JUMPI PUSH2 0x251 JUMP JUMPDEST DUP1 PUSH4 0x3CCFD60B EQ PUSH2 0x413 JUMPI DUP1 PUSH4 0x42842E0E EQ PUSH2 0x42A JUMPI DUP1 PUSH4 0x4759A421 EQ PUSH2 0x453 JUMPI DUP1 PUSH4 0x4FF531B6 EQ PUSH2 0x47C JUMPI DUP1 PUSH4 0x52CB5133 EQ PUSH2 0x4B9 JUMPI PUSH2 0x251 JUMP JUMPDEST DUP1 PUSH4 0x14F710FE GT PUSH2 0x219 JUMPI DUP1 PUSH4 0x14F710FE EQ PUSH2 0x34D JUMPI DUP1 PUSH4 0x18148F1B EQ PUSH2 0x357 JUMPI DUP1 PUSH4 0x18160DDD EQ PUSH2 0x394 JUMPI DUP1 PUSH4 0x1B163A9D EQ PUSH2 0x3BF JUMPI DUP1 PUSH4 0x23B872DD EQ PUSH2 0x3EA JUMPI PUSH2 0x251 JUMP JUMPDEST DUP1 PUSH4 0x1FFC9A7 EQ PUSH2 0x256 JUMPI DUP1 PUSH4 0x4890B24 EQ PUSH2 0x293 JUMPI DUP1 PUSH4 0x6FDDE03 EQ PUSH2 0x2BC JUMPI DUP1 PUSH4 0x81812FC EQ PUSH2 0x2E7 JUMPI DUP1 PUSH4 0x95EA7B3 EQ PUSH2 0x324 JUMPI JUMPDEST PUSH1 0x0 DUP1 REVERT JUMPDEST CALLVALUE DUP1 ISZERO PUSH2 0x262 JUMPI PUSH1 0x0 DUP1 REVERT JUMPDEST POP PUSH2 0x27D PUSH1 0x4 DUP1 CALLDATASIZE SUB DUP2 ADD SWAP1 PUSH2 0x278 SWAP2 SWAP1 PUSH2 0x3EAB JUMP JUMPDEST PUSH2 0x9AC JUMP JUMPDEST PUSH1 0x40 MLOAD PUSH2 0x28A SWAP2 SWAP1 PUSH2 0x3EF3 JUMP JUMPDEST PUSH1 0x40 MLOAD DUP1 SWAP2 SUB SWAP1 RETURN JUMPDEST CALLVALUE DUP1 ISZERO PUSH2 0x29F JUMPI PUSH1 0x0 DUP1 REVERT JUMPDEST POP PUSH2 0x2BA PUSH1 0x4 DUP1 CALLDATASIZE SUB DUP2 ADD SWAP1 PUSH2 0x2B5 SWAP2 SWAP1 PUSH2 0x3F6C JUMP JUMPDEST PUSH2 0x9BE JUMP JUMPDEST STOP JUMPDEST CALLVALUE DUP1 ISZERO PUSH2 0x2C8 JUMPI PUSH1 0x0 DUP1 REVERT JUMPDEST POP PUSH2 0x2D1 PUSH2 0xA21 JUMP JUMPDEST PUSH1 0x40 MLOAD PUSH2 0x2DE SWAP2 SWAP1 PUSH2 0x4029 JUMP JUMPDEST PUSH1 0x40 MLOAD DUP1 SWAP2 SUB SWAP1 RETURN JUMPDEST CALLVALUE DUP1 ISZERO PUSH2 0x2F3 JUMPI PUSH1 0x0 DUP1 REVERT JUMPDEST POP PUSH2 0x30E PUSH1 0x4 DUP1 CALLDATASIZE SUB DUP2 ADD SWAP1 PUSH2 0x309 SWAP2 SWAP1 PUSH2 0x4081 JUMP JUMPDEST PUSH2 0xAB3 JUMP JUMPDEST PUSH1 0x40 MLOAD PUSH2 0x31B SWAP2 SWAP1 PUSH2 0x40BD JUMP JUMPDEST PUSH1 0x40 MLOAD DUP1 SWAP2 SUB SWAP1 RETURN JUMPDEST CALLVALUE DUP1 ISZERO PUSH2 0x330 JUMPI PUSH1 0x0 DUP1 REVERT JUMPDEST POP PUSH2 0x34B PUSH1 0x4 DUP1 CALLDATASIZE SUB DUP2 ADD SWAP1 PUSH2 0x346 SWAP2 SWAP1 PUSH2 0x40D8 JUMP JUMPDEST PUSH2 0xAF9 JUMP JUMPDEST STOP JUMPDEST PUSH2 0x355 PUSH2 0xC10 JUMP JUMPDEST STOP JUMPDEST CALLVALUE DUP1 ISZERO PUSH2 0x363 JUMPI PUSH1 0x0 DUP1 REVERT JUMPDEST POP PUSH2 0x37E PUSH1 0x4 DUP1 CALLDATASIZE SUB DUP2 ADD SWAP1 PUSH2 0x379 SWAP2 SWAP1 PUSH2 0x3F6C JUMP JUMPDEST PUSH2 0xE12 JUMP JUMPDEST PUSH1 0x40 MLOAD PUSH2 0x38B SWAP2 SWAP1 PUSH2 0x41D6 JUMP JUMPDEST PUSH1 0x40 MLOAD DUP1 SWAP2 SUB SWAP1 RETURN JUMPDEST CALLVALUE DUP1 ISZERO PUSH2 0x3A0 JUMPI PUSH1 0x0 DUP1 REVERT JUMPDEST POP PUSH2 0x3A9 PUSH2 0xF21 JUMP JUMPDEST PUSH1 0x40 MLOAD PUSH2 0x3B6 SWAP2 SWAP1 PUSH2 0x4207 JUMP JUMPDEST PUSH1 0x40 MLOAD DUP1 SWAP2 SUB SWAP1 RETURN JUMPDEST CALLVALUE DUP1 ISZERO PUSH2 0x3CB JUMPI PUSH1 0x0 DUP1 REVERT JUMPDEST POP PUSH2 0x3D4 PUSH2 0xF27 JUMP JUMPDEST PUSH1 0x40 MLOAD PUSH2 0x3E1 SWAP2 SWAP1 PUSH2 0x40BD JUMP JUMPDEST PUSH1 0x40 MLOAD DUP1 SWAP2 SUB SWAP1 RETURN JUMPDEST CALLVALUE DUP1 ISZERO PUSH2 0x3F6 JUMPI PUSH1 0x0 DUP1 REVERT JUMPDEST POP PUSH2 0x411 PUSH1 0x4 DUP1 CALLDATASIZE SUB DUP2 ADD SWAP1 PUSH2 0x40C SWAP2 SWAP1 PUSH2 0x4222 JUMP JUMPDEST PUSH2 0xF59 JUMP JUMPDEST STOP JUMPDEST CALLVALUE DUP1 ISZERO PUSH2 0x41F JUMPI PUSH1 0x0 DUP1 REVERT JUMPDEST POP PUSH2 0x428 PUSH2 0xFB9 JUMP JUMPDEST STOP JUMPDEST CALLVALUE DUP1 ISZERO PUSH2 0x436 JUMPI PUSH1 0x0 DUP1 REVERT JUMPDEST POP PUSH2 0x451 PUSH1 0x4 DUP1 CALLDATASIZE SUB DUP2 ADD SWAP1 PUSH2 0x44C SWAP2 SWAP1 PUSH2 0x4222 JUMP JUMPDEST PUSH2 0x1066 JUMP JUMPDEST STOP JUMPDEST CALLVALUE DUP1 ISZERO PUSH2 0x45F JUMPI PUSH1 0x0 DUP1 REVERT JUMPDEST POP PUSH2 0x47A PUSH1 0x4 DUP1 CALLDATASIZE SUB DUP2 ADD SWAP1 PUSH2 0x475 SWAP2 SWAP1 PUSH2 0x42A1 JUMP JUMPDEST PUSH2 0x1086 JUMP JUMPDEST STOP JUMPDEST CALLVALUE DUP1 ISZERO PUSH2 0x488 JUMPI PUSH1 0x0 DUP1 REVERT JUMPDEST POP PUSH2 0x4A3 PUSH1 0x4 DUP1 CALLDATASIZE SUB DUP2 ADD SWAP1 PUSH2 0x49E SWAP2 SWAP1 PUSH2 0x3F6C JUMP JUMPDEST PUSH2 0x10AB JUMP JUMPDEST PUSH1 0x40 MLOAD PUSH2 0x4B0 SWAP2 SWAP1 PUSH2 0x4207 JUMP JUMPDEST PUSH1 0x40 MLOAD DUP1 SWAP2 SUB SWAP1 RETURN JUMPDEST CALLVALUE DUP1 ISZERO PUSH2 0x4C5 JUMPI PUSH1 0x0 DUP1 REVERT JUMPDEST POP PUSH2 0x4E0 PUSH1 0x4 DUP1 CALLDATASIZE SUB DUP2 ADD SWAP1 PUSH2 0x4DB SWAP2 SWAP1 PUSH2 0x42CE JUMP JUMPDEST PUSH2 0x12D6 JUMP JUMPDEST STOP JUMPDEST CALLVALUE DUP1 ISZERO PUSH2 0x4EE JUMPI PUSH1 0x0 DUP1 REVERT JUMPDEST POP PUSH2 0x509 PUSH1 0x4 DUP1 CALLDATASIZE SUB DUP2 ADD SWAP1 PUSH2 0x504 SWAP2 SWAP1 PUSH2 0x42A1 JUMP JUMPDEST PUSH2 0x1473 JUMP JUMPDEST STOP JUMPDEST CALLVALUE DUP1 ISZERO PUSH2 0x517 JUMPI PUSH1 0x0 DUP1 REVERT JUMPDEST POP PUSH2 0x532 PUSH1 0x4 DUP1 CALLDATASIZE SUB DUP2 ADD SWAP1 PUSH2 0x52D SWAP2 SWAP1 PUSH2 0x4081 JUMP JUMPDEST PUSH2 0x1520 JUMP JUMPDEST PUSH1 0x40 MLOAD PUSH2 0x53F SWAP2 SWAP1 PUSH2 0x40BD JUMP JUMPDEST PUSH1 0x40 MLOAD DUP1 SWAP2 SUB SWAP1 RETURN JUMPDEST CALLVALUE DUP1 ISZERO PUSH2 0x554 JUMPI PUSH1 0x0 DUP1 REVERT JUMPDEST POP PUSH2 0x56F PUSH1 0x4 DUP1 CALLDATASIZE SUB DUP2 ADD SWAP1 PUSH2 0x56A SWAP2 SWAP1 PUSH2 0x4081 JUMP JUMPDEST PUSH2 0x15A6 JUMP JUMPDEST PUSH1 0x40 MLOAD PUSH2 0x57C SWAP2 SWAP1 PUSH2 0x4385 JUMP JUMPDEST PUSH1 0x40 MLOAD DUP1 SWAP2 SUB SWAP1 RETURN JUMPDEST CALLVALUE DUP1 ISZERO PUSH2 0x591 JUMPI PUSH1 0x0 DUP1 REVERT JUMPDEST POP PUSH2 0x5AC PUSH1 0x4 DUP1 CALLDATASIZE SUB DUP2 ADD SWAP1 PUSH2 0x5A7 SWAP2 SWAP1 PUSH2 0x3F6C JUMP JUMPDEST PUSH2 0x161B JUMP JUMPDEST PUSH1 0x40 MLOAD PUSH2 0x5B9 SWAP2 SWAP1 PUSH2 0x4207 JUMP JUMPDEST PUSH1 0x40 MLOAD DUP1 SWAP2 SUB SWAP1 RETURN JUMPDEST CALLVALUE DUP1 ISZERO PUSH2 0x5CE JUMPI PUSH1 0x0 DUP1 REVERT JUMPDEST POP PUSH2 0x5D7 PUSH2 0x16D2 JUMP JUMPDEST STOP JUMPDEST CALLVALUE DUP1 ISZERO PUSH2 0x5E5 JUMPI PUSH1 0x0 DUP1 REVERT JUMPDEST POP PUSH2 0x5EE PUSH2 0x16E6 JUMP JUMPDEST PUSH1 0x40 MLOAD PUSH2 0x5FB SWAP2 SWAP1 PUSH2 0x41D6 JUMP JUMPDEST PUSH1 0x40 MLOAD DUP1 SWAP2 SUB SWAP1 RETURN JUMPDEST CALLVALUE DUP1 ISZERO PUSH2 0x610 JUMPI PUSH1 0x0 DUP1 REVERT JUMPDEST POP PUSH2 0x62B PUSH1 0x4 DUP1 CALLDATASIZE SUB DUP2 ADD SWAP1 PUSH2 0x626 SWAP2 SWAP1 PUSH2 0x3F6C JUMP JUMPDEST PUSH2 0x173E JUMP JUMPDEST STOP JUMPDEST CALLVALUE DUP1 ISZERO PUSH2 0x639 JUMPI PUSH1 0x0 DUP1 REVERT JUMPDEST POP PUSH2 0x642 PUSH2 0x17A1 JUMP JUMPDEST PUSH1 0x40 MLOAD PUSH2 0x64F SWAP2 SWAP1 PUSH2 0x40BD JUMP JUMPDEST PUSH1 0x40 MLOAD DUP1 SWAP2 SUB SWAP1 RETURN JUMPDEST CALLVALUE DUP1 ISZERO PUSH2 0x664 JUMPI PUSH1 0x0 DUP1 REVERT JUMPDEST POP PUSH2 0x67F PUSH1 0x4 DUP1 CALLDATASIZE SUB DUP2 ADD SWAP1 PUSH2 0x67A SWAP2 SWAP1 PUSH2 0x40D8 JUMP JUMPDEST PUSH2 0x17CB JUMP JUMPDEST STOP JUMPDEST CALLVALUE DUP1 ISZERO PUSH2 0x68D JUMPI PUSH1 0x0 DUP1 REVERT JUMPDEST POP PUSH2 0x696 PUSH2 0x1850 JUMP JUMPDEST PUSH1 0x40 MLOAD PUSH2 0x6A3 SWAP2 SWAP1 PUSH2 0x4029 JUMP JUMPDEST PUSH1 0x40 MLOAD DUP1 SWAP2 SUB SWAP1 RETURN JUMPDEST CALLVALUE DUP1 ISZERO PUSH2 0x6B8 JUMPI PUSH1 0x0 DUP1 REVERT JUMPDEST POP PUSH2 0x6C1 PUSH2 0x18E2 JUMP JUMPDEST PUSH1 0x40 MLOAD PUSH2 0x6CE SWAP2 SWAP1 PUSH2 0x4207 JUMP JUMPDEST PUSH1 0x40 MLOAD DUP1 SWAP2 SUB SWAP1 RETURN JUMPDEST CALLVALUE DUP1 ISZERO PUSH2 0x6E3 JUMPI PUSH1 0x0 DUP1 REVERT JUMPDEST POP PUSH2 0x6EC PUSH2 0x1948 JUMP JUMPDEST PUSH1 0x40 MLOAD PUSH2 0x6F9 SWAP2 SWAP1 PUSH2 0x4207 JUMP JUMPDEST PUSH1 0x40 MLOAD DUP1 SWAP2 SUB SWAP1 RETURN JUMPDEST CALLVALUE DUP1 ISZERO PUSH2 0x70E JUMPI PUSH1 0x0 DUP1 REVERT JUMPDEST POP PUSH2 0x717 PUSH2 0x194E JUMP JUMPDEST PUSH1 0x40 MLOAD PUSH2 0x724 SWAP2 SWAP1 PUSH2 0x4207 JUMP JUMPDEST PUSH1 0x40 MLOAD DUP1 SWAP2 SUB SWAP1 RETURN JUMPDEST CALLVALUE DUP1 ISZERO PUSH2 0x739 JUMPI PUSH1 0x0 DUP1 REVERT JUMPDEST POP PUSH2 0x754 PUSH1 0x4 DUP1 CALLDATASIZE SUB DUP2 ADD SWAP1 PUSH2 0x74F SWAP2 SWAP1 PUSH2 0x43A0 JUMP JUMPDEST PUSH2 0x1954 JUMP JUMPDEST STOP JUMPDEST CALLVALUE DUP1 ISZERO PUSH2 0x762 JUMPI PUSH1 0x0 DUP1 REVERT JUMPDEST POP PUSH2 0x77D PUSH1 0x4 DUP1 CALLDATASIZE SUB DUP2 ADD SWAP1 PUSH2 0x778 SWAP2 SWAP1 PUSH2 0x4081 JUMP JUMPDEST PUSH2 0x196A JUMP JUMPDEST PUSH1 0x40 MLOAD PUSH2 0x78A SWAP2 SWAP1 PUSH2 0x449E JUMP JUMPDEST PUSH1 0x40 MLOAD DUP1 SWAP2 SUB SWAP1 RETURN JUMPDEST CALLVALUE DUP1 ISZERO PUSH2 0x79F JUMPI PUSH1 0x0 DUP1 REVERT JUMPDEST POP PUSH2 0x7BA PUSH1 0x4 DUP1 CALLDATASIZE SUB DUP2 ADD SWAP1 PUSH2 0x7B5 SWAP2 SWAP1 PUSH2 0x4081 JUMP JUMPDEST PUSH2 0x1AE1 JUMP JUMPDEST PUSH1 0x40 MLOAD PUSH2 0x7C8 SWAP3 SWAP2 SWAP1 PUSH2 0x44C0 JUMP JUMPDEST PUSH1 0x40 MLOAD DUP1 SWAP2 SUB SWAP1 RETURN JUMPDEST CALLVALUE DUP1 ISZERO PUSH2 0x7DD JUMPI PUSH1 0x0 DUP1 REVERT JUMPDEST POP PUSH2 0x7F8 PUSH1 0x4 DUP1 CALLDATASIZE SUB DUP2 ADD SWAP1 PUSH2 0x7F3 SWAP2 SWAP1 PUSH2 0x461E JUMP JUMPDEST PUSH2 0x1B12 JUMP JUMPDEST STOP JUMPDEST CALLVALUE DUP1 ISZERO PUSH2 0x806 JUMPI PUSH1 0x0 DUP1 REVERT JUMPDEST POP PUSH2 0x80F PUSH2 0x1B9D JUMP JUMPDEST PUSH1 0x40 MLOAD PUSH2 0x81C SWAP2 SWAP1 PUSH2 0x4029 JUMP JUMPDEST PUSH1 0x40 MLOAD DUP1 SWAP2 SUB SWAP1 RETURN JUMPDEST CALLVALUE DUP1 ISZERO PUSH2 0x831 JUMPI PUSH1 0x0 DUP1 REVERT JUMPDEST POP PUSH2 0x84C PUSH1 0x4 DUP1 CALLDATASIZE SUB DUP2 ADD SWAP1 PUSH2 0x847 SWAP2 SWAP1 PUSH2 0x42A1 JUMP JUMPDEST PUSH2 0x1C2B JUMP JUMPDEST STOP JUMPDEST CALLVALUE DUP1 ISZERO PUSH2 0x85A JUMPI PUSH1 0x0 DUP1 REVERT JUMPDEST POP PUSH2 0x875 PUSH1 0x4 DUP1 CALLDATASIZE SUB DUP2 ADD SWAP1 PUSH2 0x870 SWAP2 SWAP1 PUSH2 0x471B JUMP JUMPDEST PUSH2 0x1C50 JUMP JUMPDEST STOP JUMPDEST CALLVALUE DUP1 ISZERO PUSH2 0x883 JUMPI PUSH1 0x0 DUP1 REVERT JUMPDEST POP PUSH2 0x89E PUSH1 0x4 DUP1 CALLDATASIZE SUB DUP2 ADD SWAP1 PUSH2 0x899 SWAP2 SWAP1 PUSH2 0x4081 JUMP JUMPDEST PUSH2 0x1CB2 JUMP JUMPDEST PUSH1 0x40 MLOAD PUSH2 0x8AB SWAP2 SWAP1 PUSH2 0x4029 JUMP JUMPDEST PUSH1 0x40 MLOAD DUP1 SWAP2 SUB SWAP1 RETURN JUMPDEST CALLVALUE DUP1 ISZERO PUSH2 0x8C0 JUMPI PUSH1 0x0 DUP1 REVERT JUMPDEST POP PUSH2 0x8DB PUSH1 0x4 DUP1 CALLDATASIZE SUB DUP2 ADD SWAP1 PUSH2 0x8D6 SWAP2 SWAP1 PUSH2 0x4866 JUMP JUMPDEST PUSH2 0x1DC4 JUMP JUMPDEST STOP JUMPDEST CALLVALUE DUP1 ISZERO PUSH2 0x8E9 JUMPI PUSH1 0x0 DUP1 REVERT JUMPDEST POP PUSH2 0x904 PUSH1 0x4 DUP1 CALLDATASIZE SUB DUP2 ADD SWAP1 PUSH2 0x8FF SWAP2 SWAP1 PUSH2 0x48AF JUMP JUMPDEST PUSH2 0x1EFA JUMP JUMPDEST PUSH1 0x40 MLOAD PUSH2 0x911 SWAP2 SWAP1 PUSH2 0x3EF3 JUMP JUMPDEST PUSH1 0x40 MLOAD DUP1 SWAP2 SUB SWAP1 RETURN JUMPDEST CALLVALUE DUP1 ISZERO PUSH2 0x926 JUMPI PUSH1 0x0 DUP1 REVERT JUMPDEST POP PUSH2 0x941 PUSH1 0x4 DUP1 CALLDATASIZE SUB DUP2 ADD SWAP1 PUSH2 0x93C SWAP2 SWAP1 PUSH2 0x4081 JUMP JUMPDEST PUSH2 0x1F8E JUMP JUMPDEST STOP JUMPDEST CALLVALUE DUP1 ISZERO PUSH2 0x94F JUMPI PUSH1 0x0 DUP1 REVERT JUMPDEST POP PUSH2 0x96A PUSH1 0x4 DUP1 CALLDATASIZE SUB DUP2 ADD SWAP1 PUSH2 0x965 SWAP2 SWAP1 PUSH2 0x3F6C JUMP JUMPDEST PUSH2 0x1FBB JUMP JUMPDEST STOP JUMPDEST CALLVALUE DUP1 ISZERO PUSH2 0x978 JUMPI PUSH1 0x0 DUP1 REVERT JUMPDEST POP PUSH2 0x993 PUSH1 0x4 DUP1 CALLDATASIZE SUB DUP2 ADD SWAP1 PUSH2 0x98E SWAP2 SWAP1 PUSH2 0x4081 JUMP JUMPDEST PUSH2 0x203E JUMP JUMPDEST STOP JUMPDEST CALLVALUE DUP1 ISZERO PUSH2 0x9A1 JUMPI PUSH1 0x0 DUP1 REVERT JUMPDEST POP PUSH2 0x9AA PUSH2 0x2050 JUMP JUMPDEST STOP JUMPDEST PUSH1 0x0 PUSH2 0x9B7 DUP3 PUSH2 0x2121 JUMP JUMPDEST SWAP1 POP SWAP2 SWAP1 POP JUMP JUMPDEST PUSH2 0x9C6 PUSH2 0x2182 JUMP JUMPDEST PUSH1 0x0 PUSH1 0x14 PUSH1 0x0 DUP4 PUSH20 0xFFFFFFFFFFFFFFFFFFFFFFFFFFFFFFFFFFFFFFFF AND PUSH20 0xFFFFFFFFFFFFFFFFFFFFFFFFFFFFFFFFFFFFFFFF AND DUP2 MSTORE PUSH1 0x20 ADD SWAP1 DUP2 MSTORE PUSH1 0x20 ADD PUSH1 0x0 KECCAK256 PUSH1 0x0 PUSH2 0x100 EXP DUP2 SLOAD DUP2 PUSH1 0xFF MUL NOT AND SWAP1 DUP4 ISZERO ISZERO MUL OR SWAP1 SSTORE POP POP JUMP JUMPDEST PUSH1 0x60 PUSH1 0x0 DUP1 SLOAD PUSH2 0xA30 SWAP1 PUSH2 0x491E JUMP JUMPDEST DUP1 PUSH1 0x1F ADD PUSH1 0x20 DUP1 SWAP2 DIV MUL PUSH1 0x20 ADD PUSH1 0x40 MLOAD SWAP1 DUP2 ADD PUSH1 0x40 MSTORE DUP1 SWAP3 SWAP2 SWAP1 DUP2 DUP2 MSTORE PUSH1 0x20 ADD DUP3 DUP1 SLOAD PUSH2 0xA5C SWAP1 PUSH2 0x491E JUMP JUMPDEST DUP1 ISZERO PUSH2 0xAA9 JUMPI DUP1 PUSH1 0x1F LT PUSH2 0xA7E JUMPI PUSH2 0x100 DUP1 DUP4 SLOAD DIV MUL DUP4 MSTORE SWAP2 PUSH1 0x20 ADD SWAP2 PUSH2 0xAA9 JUMP JUMPDEST DUP3 ADD SWAP2 SWAP1 PUSH1 0x0 MSTORE PUSH1 0x20 PUSH1 0x0 KECCAK256 SWAP1 JUMPDEST DUP2 SLOAD DUP2 MSTORE SWAP1 PUSH1 0x1 ADD SWAP1 PUSH1 0x20 ADD DUP1 DUP4 GT PUSH2 0xA8C JUMPI DUP3 SWAP1 SUB PUSH1 0x1F AND DUP3 ADD SWAP2 JUMPDEST POP POP POP POP POP SWAP1 POP SWAP1 JUMP JUMPDEST PUSH1 0x0 PUSH2 0xABE DUP3 PUSH2 0x2200 JUMP JUMPDEST PUSH1 0x4 PUSH1 0x0 DUP4 DUP2 MSTORE PUSH1 0x20 ADD SWAP1 DUP2 MSTORE PUSH1 0x20 ADD PUSH1 0x0 KECCAK256 PUSH1 0x0 SWAP1 SLOAD SWAP1 PUSH2 0x100 EXP SWAP1 DIV PUSH20 0xFFFFFFFFFFFFFFFFFFFFFFFFFFFFFFFFFFFFFFFF AND SWAP1 POP SWAP2 SWAP1 POP JUMP JUMPDEST PUSH1 0x0 PUSH2 0xB04 DUP3 PUSH2 0x1520 JUMP JUMPDEST SWAP1 POP DUP1 PUSH20 0xFFFFFFFFFFFFFFFFFFFFFFFFFFFFFFFFFFFFFFFF AND DUP4 PUSH20 0xFFFFFFFFFFFFFFFFFFFFFFFFFFFFFFFFFFFFFFFF AND SUB PUSH2 0xB74 JUMPI PUSH1 0x40 MLOAD PUSH32 0x8C379A000000000000000000000000000000000000000000000000000000000 DUP2 MSTORE PUSH1 0x4 ADD PUSH2 0xB6B SWAP1 PUSH2 0x49C1 JUMP JUMPDEST PUSH1 0x40 MLOAD DUP1 SWAP2 SUB SWAP1 REVERT JUMPDEST DUP1 PUSH20 0xFFFFFFFFFFFFFFFFFFFFFFFFFFFFFFFFFFFFFFFF AND PUSH2 0xB93 PUSH2 0x224B JUMP JUMPDEST PUSH20 0xFFFFFFFFFFFFFFFFFFFFFFFFFFFFFFFFFFFFFFFF AND EQ DUP1 PUSH2 0xBC2 JUMPI POP PUSH2 0xBC1 DUP2 PUSH2 0xBBC PUSH2 0x224B JUMP JUMPDEST PUSH2 0x1EFA JUMP JUMPDEST JUMPDEST PUSH2 0xC01 JUMPI PUSH1 0x40 MLOAD PUSH32 0x8C379A000000000000000000000000000000000000000000000000000000000 DUP2 MSTORE PUSH1 0x4 ADD PUSH2 0xBF8 SWAP1 PUSH2 0x4A53 JUMP JUMPDEST PUSH1 0x40 MLOAD DUP1 SWAP2 SUB SWAP1 REVERT JUMPDEST PUSH2 0xC0B DUP4 DUP4 PUSH2 0x2253 JUMP JUMPDEST POP POP POP JUMP JUMPDEST PUSH1 0x0 ISZERO ISZERO PUSH1 0x19 PUSH1 0x0 SWAP1 SLOAD SWAP1 PUSH2 0x100 EXP SWAP1 DIV PUSH1 0xFF AND ISZERO ISZERO SUB PUSH2 0xD08 JUMPI PUSH1 0x14 PUSH1 0x0 CALLER PUSH20 0xFFFFFFFFFFFFFFFFFFFFFFFFFFFFFFFFFFFFFFFF AND PUSH20 0xFFFFFFFFFFFFFFFFFFFFFFFFFFFFFFFFFFFFFFFF AND DUP2 MSTORE PUSH1 0x20 ADD SWAP1 DUP2 MSTORE PUSH1 0x20 ADD PUSH1 0x0 KECCAK256 PUSH1 0x0 SWAP1 SLOAD SWAP1 PUSH2 0x100 EXP SWAP1 DIV PUSH1 0xFF AND PUSH2 0xCB7 JUMPI PUSH1 0x40 MLOAD PUSH32 0x8C379A000000000000000000000000000000000000000000000000000000000 DUP2 MSTORE PUSH1 0x4 ADD PUSH2 0xCAE SWAP1 PUSH2 0x4ABF JUMP JUMPDEST PUSH1 0x40 MLOAD DUP1 SWAP2 SUB SWAP1 REVERT JUMPDEST PUSH1 0xD SLOAD PUSH1 0x18 SLOAD LT ISZERO PUSH2 0xCFE JUMPI PUSH1 0x40 MLOAD PUSH32 0x8C379A000000000000000000000000000000000000000000000000000000000 DUP2 MSTORE PUSH1 0x4 ADD PUSH2 0xCF5 SWAP1 PUSH2 0x4B51 JUMP JUMPDEST PUSH1 0x40 MLOAD DUP1 SWAP2 SUB SWAP1 REVERT JUMPDEST PUSH2 0xD07 CALLER PUSH2 0x230C JUMP JUMPDEST JUMPDEST PUSH1 0x1 ISZERO ISZERO PUSH1 0x19 PUSH1 0x0 SWAP1 SLOAD SWAP1 PUSH2 0x100 EXP SWAP1 DIV PUSH1 0xFF AND ISZERO ISZERO SUB PUSH2 0xE10 JUMPI PUSH1 0xA SLOAD PUSH2 0xD2F CALLER PUSH2 0x161B JUMP JUMPDEST LT PUSH2 0xD6F JUMPI PUSH1 0x40 MLOAD PUSH32 0x8C379A000000000000000000000000000000000000000000000000000000000 DUP2 MSTORE PUSH1 0x4 ADD PUSH2 0xD66 SWAP1 PUSH2 0x4B51 JUMP JUMPDEST PUSH1 0x40 MLOAD DUP1 SWAP2 SUB SWAP1 REVERT JUMPDEST PUSH1 0x14 PUSH1 0x0 CALLER PUSH20 0xFFFFFFFFFFFFFFFFFFFFFFFFFFFFFFFFFFFFFFFF AND PUSH20 0xFFFFFFFFFFFFFFFFFFFFFFFFFFFFFFFFFFFFFFFF AND DUP2 MSTORE PUSH1 0x20 ADD SWAP1 DUP2 MSTORE PUSH1 0x20 ADD PUSH1 0x0 KECCAK256 PUSH1 0x0 SWAP1 SLOAD SWAP1 PUSH2 0x100 EXP SWAP1 DIV PUSH1 0xFF AND PUSH2 0xE06 JUMPI PUSH1 0xB SLOAD CALLVALUE LT ISZERO PUSH2 0xE05 JUMPI PUSH1 0x40 MLOAD PUSH32 0x8C379A000000000000000000000000000000000000000000000000000000000 DUP2 MSTORE PUSH1 0x4 ADD PUSH2 0xDFC SWAP1 PUSH2 0x4BBD JUMP JUMPDEST PUSH1 0x40 MLOAD DUP1 SWAP2 SUB SWAP1 REVERT JUMPDEST JUMPDEST PUSH2 0xE0F CALLER PUSH2 0x230C JUMP JUMPDEST JUMPDEST JUMP JUMPDEST PUSH1 0x60 PUSH1 0x0 PUSH2 0xE1F DUP4 PUSH2 0x161B JUMP JUMPDEST SWAP1 POP PUSH1 0x0 DUP2 PUSH8 0xFFFFFFFFFFFFFFFF DUP2 GT ISZERO PUSH2 0xE3D JUMPI PUSH2 0xE3C PUSH2 0x44F3 JUMP JUMPDEST JUMPDEST PUSH1 0x40 MLOAD SWAP1 DUP1 DUP3 MSTORE DUP1 PUSH1 0x20 MUL PUSH1 0x20 ADD DUP3 ADD PUSH1 0x40 MSTORE DUP1 ISZERO PUSH2 0xE6B JUMPI DUP2 PUSH1 0x20 ADD PUSH1 0x20 DUP3 MUL DUP1 CALLDATASIZE DUP4 CALLDATACOPY DUP1 DUP3 ADD SWAP2 POP POP SWAP1 POP JUMPDEST POP SWAP1 POP PUSH1 0x0 DUP1 PUSH1 0x1 SWAP1 POP JUMPDEST PUSH2 0xE80 PUSH1 0x8 PUSH2 0x2B58 JUMP JUMPDEST DUP2 GT PUSH2 0xF15 JUMPI PUSH2 0xE8F DUP2 PUSH2 0x2B66 JUMP JUMPDEST DUP1 ISZERO PUSH2 0xECE JUMPI POP DUP6 PUSH20 0xFFFFFFFFFFFFFFFFFFFFFFFFFFFFFFFFFFFFFFFF AND PUSH2 0xEB6 DUP3 PUSH2 0x1520 JUMP JUMPDEST PUSH20 0xFFFFFFFFFFFFFFFFFFFFFFFFFFFFFFFFFFFFFFFF AND EQ JUMPDEST ISZERO PUSH2 0xF02 JUMPI DUP1 DUP4 DUP4 DUP2 MLOAD DUP2 LT PUSH2 0xEE7 JUMPI PUSH2 0xEE6 PUSH2 0x4BDD JUMP JUMPDEST JUMPDEST PUSH1 0x20 MUL PUSH1 0x20 ADD ADD DUP2 DUP2 MSTORE POP POP DUP2 DUP1 PUSH2 0xEFE SWAP1 PUSH2 0x4C3B JUMP JUMPDEST SWAP3 POP POP JUMPDEST DUP1 DUP1 PUSH2 0xF0D SWAP1 PUSH2 0x4C3B JUMP JUMPDEST SWAP2 POP POP PUSH2 0xE76 JUMP JUMPDEST POP DUP2 SWAP4 POP POP POP POP SWAP2 SWAP1 POP JUMP JUMPDEST PUSH1 0xD SLOAD DUP2 JUMP JUMPDEST PUSH1 0x0 PUSH2 0xF31 PUSH2 0x2182 JUMP JUMPDEST PUSH1 0xC PUSH1 0x0 SWAP1 SLOAD SWAP1 PUSH2 0x100 EXP SWAP1 DIV PUSH20 0xFFFFFFFFFFFFFFFFFFFFFFFFFFFFFFFFFFFFFFFF AND SWAP1 POP SWAP1 JUMP JUMPDEST PUSH2 0xF6A PUSH2 0xF64 PUSH2 0x224B JUMP JUMPDEST DUP3 PUSH2 0x2BA7 JUMP JUMPDEST PUSH2 0xFA9 JUMPI PUSH1 0x40 MLOAD PUSH32 0x8C379A000000000000000000000000000000000000000000000000000000000 DUP2 MSTORE PUSH1 0x4 ADD PUSH2 0xFA0 SWAP1 PUSH2 0x4CF5 JUMP JUMPDEST PUSH1 0x40 MLOAD DUP1 SWAP2 SUB SWAP1 REVERT JUMPDEST PUSH2 0xFB4 DUP4 DUP4 DUP4 PUSH2 0x2C3C JUMP JUMPDEST POP POP POP JUMP JUMPDEST PUSH2 0xFC1 PUSH2 0x2182 JUMP JUMPDEST PUSH1 0x1 ISZERO ISZERO PUSH1 0x17 PUSH1 0x0 SWAP1 SLOAD SWAP1 PUSH2 0x100 EXP SWAP1 DIV PUSH1 0xFF AND ISZERO ISZERO EQ PUSH2 0x1017 JUMPI PUSH1 0x40 MLOAD PUSH32 0x8C379A000000000000000000000000000000000000000000000000000000000 DUP2 MSTORE PUSH1 0x4 ADD PUSH2 0x100E SWAP1 PUSH2 0x4D87 JUMP JUMPDEST PUSH1 0x40 MLOAD DUP1 SWAP2 SUB SWAP1 REVERT JUMPDEST PUSH1 0x0 SELFBALANCE SWAP1 POP CALLER PUSH20 0xFFFFFFFFFFFFFFFFFFFFFFFFFFFFFFFFFFFFFFFF AND PUSH2 0x8FC DUP3 SWAP1 DUP2 ISZERO MUL SWAP1 PUSH1 0x40 MLOAD PUSH1 0x0 PUSH1 0x40 MLOAD DUP1 DUP4 SUB DUP2 DUP6 DUP9 DUP9 CALL SWAP4 POP POP POP POP ISZERO DUP1 ISZERO PUSH2 0x1062 JUMPI RETURNDATASIZE PUSH1 0x0 DUP1 RETURNDATACOPY RETURNDATASIZE PUSH1 0x0 REVERT JUMPDEST POP POP JUMP JUMPDEST PUSH2 0x1081 DUP4 DUP4 DUP4 PUSH1 0x40 MLOAD DUP1 PUSH1 0x20 ADD PUSH1 0x40 MSTORE DUP1 PUSH1 0x0 DUP2 MSTORE POP PUSH2 0x1C50 JUMP JUMPDEST POP POP POP JUMP JUMPDEST PUSH2 0x108E PUSH2 0x2182 JUMP JUMPDEST DUP1 PUSH1 0x19 PUSH1 0x0 PUSH2 0x100 EXP DUP2 SLOAD DUP2 PUSH1 0xFF MUL NOT AND SWAP1 DUP4 ISZERO ISZERO MUL OR SWAP1 SSTORE POP POP JUMP JUMPDEST PUSH1 0x0 DUP1 PUSH2 0x10B7 DUP4 PUSH2 0xE12 JUMP JUMPDEST SWAP1 POP PUSH1 0x0 DUP1 JUMPDEST DUP3 MLOAD DUP2 LT ISZERO PUSH2 0x12CB JUMPI PUSH1 0x0 PUSH1 0x3 DUP2 GT ISZERO PUSH2 0x10DA JUMPI PUSH2 0x10D9 PUSH2 0x430E JUMP JUMPDEST JUMPDEST PUSH1 0x15 PUSH1 0x0 DUP6 DUP5 DUP2 MLOAD DUP2 LT PUSH2 0x10F1 JUMPI PUSH2 0x10F0 PUSH2 0x4BDD JUMP JUMPDEST JUMPDEST PUSH1 0x20 MUL PUSH1 0x20 ADD ADD MLOAD DUP2 MSTORE PUSH1 0x20 ADD SWAP1 DUP2 MSTORE PUSH1 0x20 ADD PUSH1 0x0 KECCAK256 PUSH1 0x1 ADD PUSH1 0x0 SWAP1 SLOAD SWAP1 PUSH2 0x100 EXP SWAP1 DIV PUSH1 0xFF AND PUSH1 0x3 DUP2 GT ISZERO PUSH2 0x112A JUMPI PUSH2 0x1129 PUSH2 0x430E JUMP JUMPDEST JUMPDEST SUB PUSH2 0x1143 JUMPI PUSH1 0x1 DUP3 PUSH2 0x113C SWAP2 SWAP1 PUSH2 0x4DA7 JUMP JUMPDEST SWAP2 POP PUSH2 0x12B8 JUMP JUMPDEST PUSH1 0x1 PUSH1 0x3 DUP2 GT ISZERO PUSH2 0x1157 JUMPI PUSH2 0x1156 PUSH2 0x430E JUMP JUMPDEST JUMPDEST PUSH1 0x15 PUSH1 0x0 DUP6 DUP5 DUP2 MLOAD DUP2 LT PUSH2 0x116E JUMPI PUSH2 0x116D PUSH2 0x4BDD JUMP JUMPDEST JUMPDEST PUSH1 0x20 MUL PUSH1 0x20 ADD ADD MLOAD DUP2 MSTORE PUSH1 0x20 ADD SWAP1 DUP2 MSTORE PUSH1 0x20 ADD PUSH1 0x0 KECCAK256 PUSH1 0x1 ADD PUSH1 0x0 SWAP1 SLOAD SWAP1 PUSH2 0x100 EXP SWAP1 DIV PUSH1 0xFF AND PUSH1 0x3 DUP2 GT ISZERO PUSH2 0x11A7 JUMPI PUSH2 0x11A6 PUSH2 0x430E JUMP JUMPDEST JUMPDEST SUB PUSH2 0x11C0 JUMPI PUSH1 0x5 DUP3 PUSH2 0x11B9 SWAP2 SWAP1 PUSH2 0x4DA7 JUMP JUMPDEST SWAP2 POP PUSH2 0x12B7 JUMP JUMPDEST PUSH1 0x2 PUSH1 0x3 DUP2 GT ISZERO PUSH2 0x11D4 JUMPI PUSH2 0x11D3 PUSH2 0x430E JUMP JUMPDEST JUMPDEST PUSH1 0x15 PUSH1 0x0 DUP6 DUP5 DUP2 MLOAD DUP2 LT PUSH2 0x11EB JUMPI PUSH2 0x11EA PUSH2 0x4BDD JUMP JUMPDEST JUMPDEST PUSH1 0x20 MUL PUSH1 0x20 ADD ADD MLOAD DUP2 MSTORE PUSH1 0x20 ADD SWAP1 DUP2 MSTORE PUSH1 0x20 ADD PUSH1 0x0 KECCAK256 PUSH1 0x1 ADD PUSH1 0x0 SWAP1 SLOAD SWAP1 PUSH2 0x100 EXP SWAP1 DIV PUSH1 0xFF AND PUSH1 0x3 DUP2 GT ISZERO PUSH2 0x1224 JUMPI PUSH2 0x1223 PUSH2 0x430E JUMP JUMPDEST JUMPDEST SUB PUSH2 0x123D JUMPI PUSH1 0xF DUP3 PUSH2 0x1236 SWAP2 SWAP1 PUSH2 0x4DA7 JUMP JUMPDEST SWAP2 POP PUSH2 0x12B6 JUMP JUMPDEST PUSH1 0x3 DUP1 DUP2 GT ISZERO PUSH2 0x1250 JUMPI PUSH2 0x124F PUSH2 0x430E JUMP JUMPDEST JUMPDEST PUSH1 0x15 PUSH1 0x0 DUP6 DUP5 DUP2 MLOAD DUP2 LT PUSH2 0x1267 JUMPI PUSH2 0x1266 PUSH2 0x4BDD JUMP JUMPDEST JUMPDEST PUSH1 0x20 MUL PUSH1 0x20 ADD ADD MLOAD DUP2 MSTORE PUSH1 0x20 ADD SWAP1 DUP2 MSTORE PUSH1 0x20 ADD PUSH1 0x0 KECCAK256 PUSH1 0x1 ADD PUSH1 0x0 SWAP1 SLOAD SWAP1 PUSH2 0x100 EXP SWAP1 DIV PUSH1 0xFF AND PUSH1 0x3 DUP2 GT ISZERO PUSH2 0x12A0 JUMPI PUSH2 0x129F PUSH2 0x430E JUMP JUMPDEST JUMPDEST SUB PUSH2 0x12B5 JUMPI PUSH1 0x32 DUP3 PUSH2 0x12B2 SWAP2 SWAP1 PUSH2 0x4DA7 JUMP JUMPDEST SWAP2 POP JUMPDEST JUMPDEST JUMPDEST JUMPDEST DUP1 DUP1 PUSH2 0x12C3 SWAP1 PUSH2 0x4C3B JUMP JUMPDEST SWAP2 POP POP PUSH2 0x10BD JUMP JUMPDEST POP DUP1 SWAP3 POP POP POP SWAP2 SWAP1 POP JUMP JUMPDEST PUSH2 0x12DE PUSH2 0x2182 JUMP JUMPDEST PUSH1 0x0 DUP3 GT PUSH2 0x1321 JUMPI PUSH1 0x40 MLOAD PUSH32 0x8C379A000000000000000000000000000000000000000000000000000000000 DUP2 MSTORE PUSH1 0x4 ADD PUSH2 0x1318 SWAP1 PUSH2 0x4E4D JUMP JUMPDEST PUSH1 0x40 MLOAD DUP1 SWAP2 SUB SWAP1 REVERT JUMPDEST PUSH1 0x13 DUP1 SLOAD SWAP1 POP DUP3 GT ISZERO PUSH2 0x1369 JUMPI PUSH1 0x40 MLOAD PUSH32 0x8C379A000000000000000000000000000000000000000000000000000000000 DUP2 MSTORE PUSH1 0x4 ADD PUSH2 0x1360 SWAP1 PUSH2 0x4EDF JUMP JUMPDEST PUSH1 0x40 MLOAD DUP1 SWAP2 SUB SWAP1 REVERT JUMPDEST PUSH1 0x0 DUP2 GT DUP1 ISZERO PUSH2 0x137A JUMPI POP PUSH1 0x64 DUP2 GT ISZERO JUMPDEST PUSH2 0x13B9 JUMPI PUSH1 0x40 MLOAD PUSH32 0x8C379A000000000000000000000000000000000000000000000000000000000 DUP2 MSTORE PUSH1 0x4 ADD PUSH2 0x13B0 SWAP1 PUSH2 0x4F71 JUMP JUMPDEST PUSH1 0x40 MLOAD DUP1 SWAP2 SUB SWAP1 REVERT JUMPDEST PUSH1 0x0 PUSH2 0x13C4 DUP4 PUSH2 0x196A JUMP JUMPDEST SWAP1 POP PUSH1 0x0 PUSH1 0x64 DUP4 SELFBALANCE PUSH2 0x13D6 SWAP2 SWAP1 PUSH2 0x4F91 JUMP JUMPDEST PUSH2 0x13E0 SWAP2 SWAP1 PUSH2 0x5002 JUMP JUMPDEST SWAP1 POP PUSH1 0x0 JUMPDEST DUP5 DUP2 LT ISZERO PUSH2 0x146C JUMPI DUP3 DUP2 DUP2 MLOAD DUP2 LT PUSH2 0x1400 JUMPI PUSH2 0x13FF PUSH2 0x4BDD JUMP JUMPDEST JUMPDEST PUSH1 0x20 MUL PUSH1 0x20 ADD ADD MLOAD PUSH20 0xFFFFFFFFFFFFFFFFFFFFFFFFFFFFFFFFFFFFFFFF AND PUSH2 0x8FC DUP7 DUP5 PUSH2 0x142D SWAP2 SWAP1 PUSH2 0x5002 JUMP JUMPDEST SWAP1 DUP2 ISZERO MUL SWAP1 PUSH1 0x40 MLOAD PUSH1 0x0 PUSH1 0x40 MLOAD DUP1 DUP4 SUB DUP2 DUP6 DUP9 DUP9 CALL SWAP4 POP POP POP POP ISZERO DUP1 ISZERO PUSH2 0x1458 JUMPI RETURNDATASIZE PUSH1 0x0 DUP1 RETURNDATACOPY RETURNDATASIZE PUSH1 0x0 REVERT JUMPDEST POP DUP1 DUP1 PUSH2 0x1464 SWAP1 PUSH2 0x4C3B JUMP JUMPDEST SWAP2 POP POP PUSH2 0x13E5 JUMP JUMPDEST POP POP POP POP POP JUMP JUMPDEST PUSH1 0x17 PUSH1 0x1 SWAP1 SLOAD SWAP1 PUSH2 0x100 EXP SWAP1 DIV PUSH20 0xFFFFFFFFFFFFFFFFFFFFFFFFFFFFFFFFFFFFFFFF AND PUSH20 0xFFFFFFFFFFFFFFFFFFFFFFFFFFFFFFFFFFFFFFFF AND CALLER PUSH20 0xFFFFFFFFFFFFFFFFFFFFFFFFFFFFFFFFFFFFFFFF AND EQ PUSH2 0x1503 JUMPI PUSH1 0x40 MLOAD PUSH32 0x8C379A000000000000000000000000000000000000000000000000000000000 DUP2 MSTORE PUSH1 0x4 ADD PUSH2 0x14FA SWAP1 PUSH2 0x507F JUMP JUMPDEST PUSH1 0x40 MLOAD DUP1 SWAP2 SUB SWAP1 REVERT JUMPDEST DUP1 PUSH1 0x17 PUSH1 0x0 PUSH2 0x100 EXP DUP2 SLOAD DUP2 PUSH1 0xFF MUL NOT AND SWAP1 DUP4 ISZERO ISZERO MUL OR SWAP1 SSTORE POP POP JUMP JUMPDEST PUSH1 0x0 DUP1 PUSH2 0x152C DUP4 PUSH2 0x2F35 JUMP JUMPDEST SWAP1 POP PUSH1 0x0 PUSH20 0xFFFFFFFFFFFFFFFFFFFFFFFFFFFFFFFFFFFFFFFF AND DUP2 PUSH20 0xFFFFFFFFFFFFFFFFFFFFFFFFFFFFFFFFFFFFFFFF AND SUB PUSH2 0x159D JUMPI PUSH1 0x40 MLOAD PUSH32 0x8C379A000000000000000000000000000000000000000000000000000000000 DUP2 MSTORE PUSH1 0x4 ADD PUSH2 0x1594 SWAP1 PUSH2 0x50EB JUMP JUMPDEST PUSH1 0x40 MLOAD DUP1 SWAP2 SUB SWAP1 REVERT JUMPDEST DUP1 SWAP2 POP POP SWAP2 SWAP1 POP JUMP JUMPDEST PUSH1 0x0 PUSH2 0x15B1 DUP3 PUSH2 0x2B66 JUMP JUMPDEST PUSH2 0x15F0 JUMPI PUSH1 0x40 MLOAD PUSH32 0x8C379A000000000000000000000000000000000000000000000000000000000 DUP2 MSTORE PUSH1 0x4 ADD PUSH2 0x15E7 SWAP1 PUSH2 0x5157 JUMP JUMPDEST PUSH1 0x40 MLOAD DUP1 SWAP2 SUB SWAP1 REVERT JUMPDEST PUSH1 0x15 PUSH1 0x0 DUP4 DUP2 MSTORE PUSH1 0x20 ADD SWAP1 DUP2 MSTORE PUSH1 0x20 ADD PUSH1 0x0 KECCAK256 PUSH1 0x1 ADD PUSH1 0x0 SWAP1 SLOAD SWAP1 PUSH2 0x100 EXP SWAP1 DIV PUSH1 0xFF AND SWAP1 POP SWAP2 SWAP1 POP JUMP JUMPDEST PUSH1 0x0 DUP1 PUSH20 0xFFFFFFFFFFFFFFFFFFFFFFFFFFFFFFFFFFFFFFFF AND DUP3 PUSH20 0xFFFFFFFFFFFFFFFFFFFFFFFFFFFFFFFFFFFFFFFF AND SUB PUSH2 0x168B JUMPI PUSH1 0x40 MLOAD PUSH32 0x8C379A000000000000000000000000000000000000000000000000000000000 DUP2 MSTORE PUSH1 0x4 ADD PUSH2 0x1682 SWAP1 PUSH2 0x51E9 JUMP JUMPDEST PUSH1 0x40 MLOAD DUP1 SWAP2 SUB SWAP1 REVERT JUMPDEST PUSH1 0x3 PUSH1 0x0 DUP4 PUSH20 0xFFFFFFFFFFFFFFFFFFFFFFFFFFFFFFFFFFFFFFFF AND PUSH20 0xFFFFFFFFFFFFFFFFFFFFFFFFFFFFFFFFFFFFFFFF AND DUP2 MSTORE PUSH1 0x20 ADD SWAP1 DUP2 MSTORE PUSH1 0x20 ADD PUSH1 0x0 KECCAK256 SLOAD SWAP1 POP SWAP2 SWAP1 POP JUMP JUMPDEST PUSH2 0x16DA PUSH2 0x2182 JUMP JUMPDEST PUSH2 0x16E4 PUSH1 0x0 PUSH2 0x2F72 JUMP JUMPDEST JUMP JUMPDEST PUSH1 0x60 PUSH1 0x16 DUP1 SLOAD DUP1 PUSH1 0x20 MUL PUSH1 0x20 ADD PUSH1 0x40 MLOAD SWAP1 DUP2 ADD PUSH1 0x40 MSTORE DUP1 SWAP3 SWAP2 SWAP1 DUP2 DUP2 MSTORE PUSH1 0x20 ADD DUP3 DUP1 SLOAD DUP1 ISZERO PUSH2 0x1734 JUMPI PUSH1 0x20 MUL DUP3 ADD SWAP2 SWAP1 PUSH1 0x0 MSTORE PUSH1 0x20 PUSH1 0x0 KECCAK256 SWAP1 JUMPDEST DUP2 SLOAD DUP2 MSTORE PUSH1 0x20 ADD SWAP1 PUSH1 0x1 ADD SWAP1 DUP1 DUP4 GT PUSH2 0x1720 JUMPI JUMPDEST POP POP POP POP POP SWAP1 POP SWAP1 JUMP JUMPDEST PUSH2 0x1746 PUSH2 0x2182 JUMP JUMPDEST PUSH1 0x1 PUSH1 0x14 PUSH1 0x0 DUP4 PUSH20 0xFFFFFFFFFFFFFFFFFFFFFFFFFFFFFFFFFFFFFFFF AND PUSH20 0xFFFFFFFFFFFFFFFFFFFFFFFFFFFFFFFFFFFFFFFF AND DUP2 MSTORE PUSH1 0x20 ADD SWAP1 DUP2 MSTORE PUSH1 0x20 ADD PUSH1 0x0 KECCAK256 PUSH1 0x0 PUSH2 0x100 EXP DUP2 SLOAD DUP2 PUSH1 0xFF MUL NOT AND SWAP1 DUP4 ISZERO ISZERO MUL OR SWAP1 SSTORE POP POP JUMP JUMPDEST PUSH1 0x0 PUSH1 0x7 PUSH1 0x0 SWAP1 SLOAD SWAP1 PUSH2 0x100 EXP SWAP1 DIV PUSH20 0xFFFFFFFFFFFFFFFFFFFFFFFFFFFFFFFFFFFFFFFF AND SWAP1 POP SWAP1 JUMP JUMPDEST CALLER PUSH20 0xFFFFFFFFFFFFFFFFFFFFFFFFFFFFFFFFFFFFFFFF AND PUSH2 0x17EB DUP3 PUSH2 0x1520 JUMP JUMPDEST PUSH20 0xFFFFFFFFFFFFFFFFFFFFFFFFFFFFFFFFFFFFFFFF AND EQ PUSH2 0x1841 JUMPI PUSH1 0x40 MLOAD PUSH32 0x8C379A000000000000000000000000000000000000000000000000000000000 DUP2 MSTORE PUSH1 0x4 ADD PUSH2 0x1838 SWAP1 PUSH2 0x527B JUMP JUMPDEST PUSH1 0x40 MLOAD DUP1 SWAP2 SUB SWAP1 REVERT JUMPDEST PUSH2 0x184C CALLER DUP4 DUP4 PUSH2 0x1066 JUMP JUMPDEST POP POP JUMP JUMPDEST PUSH1 0x60 PUSH1 0x1 DUP1 SLOAD PUSH2 0x185F SWAP1 PUSH2 0x491E JUMP JUMPDEST DUP1 PUSH1 0x1F ADD PUSH1 0x20 DUP1 SWAP2 DIV MUL PUSH1 0x20 ADD PUSH1 0x40 MLOAD SWAP1 DUP2 ADD PUSH1 0x40 MSTORE DUP1 SWAP3 SWAP2 SWAP1 DUP2 DUP2 MSTORE PUSH1 0x20 ADD DUP3 DUP1 SLOAD PUSH2 0x188B SWAP1 PUSH2 0x491E JUMP JUMPDEST DUP1 ISZERO PUSH2 0x18D8 JUMPI DUP1 PUSH1 0x1F LT PUSH2 0x18AD JUMPI PUSH2 0x100 DUP1 DUP4 SLOAD DIV MUL DUP4 MSTORE SWAP2 PUSH1 0x20 ADD SWAP2 PUSH2 0x18D8 JUMP JUMPDEST DUP3 ADD SWAP2 SWAP1 PUSH1 0x0 MSTORE PUSH1 0x20 PUSH1 0x0 KECCAK256 SWAP1 JUMPDEST DUP2 SLOAD DUP2 MSTORE SWAP1 PUSH1 0x1 ADD SWAP1 PUSH1 0x20 ADD DUP1 DUP4 GT PUSH2 0x18BB JUMPI DUP3 SWAP1 SUB PUSH1 0x1F AND DUP3 ADD SWAP2 JUMPDEST POP POP POP POP POP SWAP1 POP SWAP1 JUMP JUMPDEST PUSH1 0x0 PUSH1 0x14 PUSH1 0x0 CALLER PUSH20 0xFFFFFFFFFFFFFFFFFFFFFFFFFFFFFFFFFFFFFFFF AND PUSH20 0xFFFFFFFFFFFFFFFFFFFFFFFFFFFFFFFFFFFFFFFF AND DUP2 MSTORE PUSH1 0x20 ADD SWAP1 DUP2 MSTORE PUSH1 0x20 ADD PUSH1 0x0 KECCAK256 PUSH1 0x0 SWAP1 SLOAD SWAP1 PUSH2 0x100 EXP SWAP1 DIV PUSH1 0xFF AND ISZERO PUSH2 0x193F JUMPI PUSH1 0x0 SWAP1 POP PUSH2 0x1945 JUMP JUMPDEST PUSH1 0xB SLOAD SWAP1 POP JUMPDEST SWAP1 JUMP JUMPDEST PUSH1 0xA SLOAD DUP2 JUMP JUMPDEST PUSH1 0xB SLOAD DUP2 JUMP JUMPDEST PUSH2 0x1966 PUSH2 0x195F PUSH2 0x224B JUMP JUMPDEST DUP4 DUP4 PUSH2 0x3038 JUMP JUMPDEST POP POP JUMP JUMPDEST PUSH1 0x60 PUSH1 0x0 DUP3 GT PUSH2 0x19AF JUMPI PUSH1 0x40 MLOAD PUSH32 0x8C379A000000000000000000000000000000000000000000000000000000000 DUP2 MSTORE PUSH1 0x4 ADD PUSH2 0x19A6 SWAP1 PUSH2 0x52E7 JUMP JUMPDEST PUSH1 0x40 MLOAD DUP1 SWAP2 SUB SWAP1 REVERT JUMPDEST PUSH1 0x13 DUP1 SLOAD SWAP1 POP DUP3 GT ISZERO PUSH2 0x19F7 JUMPI PUSH1 0x40 MLOAD PUSH32 0x8C379A000000000000000000000000000000000000000000000000000000000 DUP2 MSTORE PUSH1 0x4 ADD PUSH2 0x19EE SWAP1 PUSH2 0x5379 JUMP JUMPDEST PUSH1 0x40 MLOAD DUP1 SWAP2 SUB SWAP1 REVERT JUMPDEST PUSH1 0x0 DUP3 PUSH8 0xFFFFFFFFFFFFFFFF DUP2 GT ISZERO PUSH2 0x1A13 JUMPI PUSH2 0x1A12 PUSH2 0x44F3 JUMP JUMPDEST JUMPDEST PUSH1 0x40 MLOAD SWAP1 DUP1 DUP3 MSTORE DUP1 PUSH1 0x20 MUL PUSH1 0x20 ADD DUP3 ADD PUSH1 0x40 MSTORE DUP1 ISZERO PUSH2 0x1A41 JUMPI DUP2 PUSH1 0x20 ADD PUSH1 0x20 DUP3 MUL DUP1 CALLDATASIZE DUP4 CALLDATACOPY DUP1 DUP3 ADD SWAP2 POP POP SWAP1 POP JUMPDEST POP SWAP1 POP PUSH1 0x0 PUSH2 0x1A4E PUSH2 0x31A4 JUMP JUMPDEST SWAP1 POP PUSH1 0x0 JUMPDEST DUP5 DUP2 LT ISZERO PUSH2 0x1AD6 JUMPI DUP2 DUP2 DUP2 MLOAD DUP2 LT PUSH2 0x1A6E JUMPI PUSH2 0x1A6D PUSH2 0x4BDD JUMP JUMPDEST JUMPDEST PUSH1 0x20 MUL PUSH1 0x20 ADD ADD MLOAD DUP4 DUP3 DUP2 MLOAD DUP2 LT PUSH2 0x1A89 JUMPI PUSH2 0x1A88 PUSH2 0x4BDD JUMP JUMPDEST JUMPDEST PUSH1 0x20 MUL PUSH1 0x20 ADD ADD SWAP1 PUSH20 0xFFFFFFFFFFFFFFFFFFFFFFFFFFFFFFFFFFFFFFFF AND SWAP1 DUP2 PUSH20 0xFFFFFFFFFFFFFFFFFFFFFFFFFFFFFFFFFFFFFFFF AND DUP2 MSTORE POP POP DUP1 DUP1 PUSH2 0x1ACE SWAP1 PUSH2 0x4C3B JUMP JUMPDEST SWAP2 POP POP PUSH2 0x1A53 JUMP JUMPDEST POP DUP2 SWAP3 POP POP POP SWAP2 SWAP1 POP JUMP JUMPDEST PUSH1 0x15 PUSH1 0x20 MSTORE DUP1 PUSH1 0x0 MSTORE PUSH1 0x40 PUSH1 0x0 KECCAK256 PUSH1 0x0 SWAP2 POP SWAP1 POP DUP1 PUSH1 0x0 ADD SLOAD SWAP1 DUP1 PUSH1 0x1 ADD PUSH1 0x0 SWAP1 SLOAD SWAP1 PUSH2 0x100 EXP SWAP1 DIV PUSH1 0xFF AND SWAP1 POP DUP3 JUMP JUMPDEST PUSH2 0x1B1A PUSH2 0x2182 JUMP JUMPDEST PUSH1 0x0 DUP2 SUB PUSH2 0x1B3A JUMPI DUP2 PUSH1 0xE PUSH1 0x0 ADD SWAP1 DUP2 PUSH2 0x1B34 SWAP2 SWAP1 PUSH2 0x5545 JUMP JUMPDEST POP PUSH2 0x1B99 JUMP JUMPDEST PUSH1 0x1 DUP2 SUB PUSH2 0x1B5A JUMPI DUP2 PUSH1 0xE PUSH1 0x1 ADD SWAP1 DUP2 PUSH2 0x1B54 SWAP2 SWAP1 PUSH2 0x5545 JUMP JUMPDEST POP PUSH2 0x1B98 JUMP JUMPDEST PUSH1 0x2 DUP2 SUB PUSH2 0x1B7A JUMPI DUP2 PUSH1 0xE PUSH1 0x2 ADD SWAP1 DUP2 PUSH2 0x1B74 SWAP2 SWAP1 PUSH2 0x5545 JUMP JUMPDEST POP PUSH2 0x1B97 JUMP JUMPDEST PUSH1 0x3 DUP2 SUB PUSH2 0x1B96 JUMPI DUP2 PUSH1 0xE PUSH1 0x3 ADD SWAP1 DUP2 PUSH2 0x1B94 SWAP2 SWAP1 PUSH2 0x5545 JUMP JUMPDEST POP JUMPDEST JUMPDEST JUMPDEST JUMPDEST POP POP JUMP JUMPDEST PUSH1 0x9 DUP1 SLOAD PUSH2 0x1BAA SWAP1 PUSH2 0x491E JUMP JUMPDEST DUP1 PUSH1 0x1F ADD PUSH1 0x20 DUP1 SWAP2 DIV MUL PUSH1 0x20 ADD PUSH1 0x40 MLOAD SWAP1 DUP2 ADD PUSH1 0x40 MSTORE DUP1 SWAP3 SWAP2 SWAP1 DUP2 DUP2 MSTORE PUSH1 0x20 ADD DUP3 DUP1 SLOAD PUSH2 0x1BD6 SWAP1 PUSH2 0x491E JUMP JUMPDEST DUP1 ISZERO PUSH2 0x1C23 JUMPI DUP1 PUSH1 0x1F LT PUSH2 0x1BF8 JUMPI PUSH2 0x100 DUP1 DUP4 SLOAD DIV MUL DUP4 MSTORE SWAP2 PUSH1 0x20 ADD SWAP2 PUSH2 0x1C23 JUMP JUMPDEST DUP3 ADD SWAP2 SWAP1 PUSH1 0x0 MSTORE PUSH1 0x20 PUSH1 0x0 KECCAK256 SWAP1 JUMPDEST DUP2 SLOAD DUP2 MSTORE SWAP1 PUSH1 0x1 ADD SWAP1 PUSH1 0x20 ADD DUP1 DUP4 GT PUSH2 0x1C06 JUMPI DUP3 SWAP1 SUB PUSH1 0x1F AND DUP3 ADD SWAP2 JUMPDEST POP POP POP POP POP DUP2 JUMP JUMPDEST PUSH2 0x1C33 PUSH2 0x2182 JUMP JUMPDEST DUP1 PUSH1 0x12 PUSH1 0x0 PUSH2 0x100 EXP DUP2 SLOAD DUP2 PUSH1 0xFF MUL NOT AND SWAP1 DUP4 ISZERO ISZERO MUL OR SWAP1 SSTORE POP POP JUMP JUMPDEST PUSH2 0x1C61 PUSH2 0x1C5B PUSH2 0x224B JUMP JUMPDEST DUP4 PUSH2 0x2BA7 JUMP JUMPDEST PUSH2 0x1CA0 JUMPI PUSH1 0x40 MLOAD PUSH32 0x8C379A000000000000000000000000000000000000000000000000000000000 DUP2 MSTORE PUSH1 0x4 ADD PUSH2 0x1C97 SWAP1 PUSH2 0x4CF5 JUMP JUMPDEST PUSH1 0x40 MLOAD DUP1 SWAP2 SUB SWAP1 REVERT JUMPDEST PUSH2 0x1CAC DUP5 DUP5 DUP5 DUP5 PUSH2 0x3500 JUMP JUMPDEST POP POP POP POP JUMP JUMPDEST PUSH1 0x60 PUSH2 0x1CBD DUP3 PUSH2 0x2200 JUMP JUMPDEST PUSH1 0x0 PUSH1 0x6 PUSH1 0x0 DUP5 DUP2 MSTORE PUSH1 0x20 ADD SWAP1 DUP2 MSTORE PUSH1 0x20 ADD PUSH1 0x0 KECCAK256 DUP1 SLOAD PUSH2 0x1CDD SWAP1 PUSH2 0x491E JUMP JUMPDEST DUP1 PUSH1 0x1F ADD PUSH1 0x20 DUP1 SWAP2 DIV MUL PUSH1 0x20 ADD PUSH1 0x40 MLOAD SWAP1 DUP2 ADD PUSH1 0x40 MSTORE DUP1 SWAP3 SWAP2 SWAP1 DUP2 DUP2 MSTORE PUSH1 0x20 ADD DUP3 DUP1 SLOAD PUSH2 0x1D09 SWAP1 PUSH2 0x491E JUMP JUMPDEST DUP1 ISZERO PUSH2 0x1D56 JUMPI DUP1 PUSH1 0x1F LT PUSH2 0x1D2B JUMPI PUSH2 0x100 DUP1 DUP4 SLOAD DIV MUL DUP4 MSTORE SWAP2 PUSH1 0x20 ADD SWAP2 PUSH2 0x1D56 JUMP JUMPDEST DUP3 ADD SWAP2 SWAP1 PUSH1 0x0 MSTORE PUSH1 0x20 PUSH1 0x0 KECCAK256 SWAP1 JUMPDEST DUP2 SLOAD DUP2 MSTORE SWAP1 PUSH1 0x1 ADD SWAP1 PUSH1 0x20 ADD DUP1 DUP4 GT PUSH2 0x1D39 JUMPI DUP3 SWAP1 SUB PUSH1 0x1F AND DUP3 ADD SWAP2 JUMPDEST POP POP POP POP POP SWAP1 POP PUSH1 0x0 PUSH2 0x1D67 PUSH2 0x355C JUMP JUMPDEST SWAP1 POP PUSH1 0x0 DUP2 MLOAD SUB PUSH2 0x1D7C JUMPI DUP2 SWAP3 POP POP POP PUSH2 0x1DBF JUMP JUMPDEST PUSH1 0x0 DUP3 MLOAD GT ISZERO PUSH2 0x1DB1 JUMPI DUP1 DUP3 PUSH1 0x40 MLOAD PUSH1 0x20 ADD PUSH2 0x1D99 SWAP3 SWAP2 SWAP1 PUSH2 0x5653 JUMP JUMPDEST PUSH1 0x40 MLOAD PUSH1 0x20 DUP2 DUP4 SUB SUB DUP2 MSTORE SWAP1 PUSH1 0x40 MSTORE SWAP3 POP POP POP PUSH2 0x1DBF JUMP JUMPDEST PUSH2 0x1DBA DUP5 PUSH2 0x3573 JUMP JUMPDEST SWAP3 POP POP POP JUMPDEST SWAP2 SWAP1 POP JUMP JUMPDEST PUSH2 0x1DCC PUSH2 0x2182 JUMP JUMPDEST PUSH1 0x4 DUP2 MLOAD EQ PUSH2 0x1E10 JUMPI PUSH1 0x40 MLOAD PUSH32 0x8C379A000000000000000000000000000000000000000000000000000000000 DUP2 MSTORE PUSH1 0x4 ADD PUSH2 0x1E07 SWAP1 PUSH2 0x56C3 JUMP JUMPDEST PUSH1 0x40 MLOAD DUP1 SWAP2 SUB SWAP1 REVERT JUMPDEST PUSH1 0x64 DUP2 PUSH1 0x3 DUP2 MLOAD DUP2 LT PUSH2 0x1E26 JUMPI PUSH2 0x1E25 PUSH2 0x4BDD JUMP JUMPDEST JUMPDEST PUSH1 0x20 MUL PUSH1 0x20 ADD ADD MLOAD DUP3 PUSH1 0x2 DUP2 MLOAD DUP2 LT PUSH2 0x1E42 JUMPI PUSH2 0x1E41 PUSH2 0x4BDD JUMP JUMPDEST JUMPDEST PUSH1 0x20 MUL PUSH1 0x20 ADD ADD MLOAD DUP4 PUSH1 0x1 DUP2 MLOAD DUP2 LT PUSH2 0x1E5E JUMPI PUSH2 0x1E5D PUSH2 0x4BDD JUMP JUMPDEST JUMPDEST PUSH1 0x20 MUL PUSH1 0x20 ADD ADD MLOAD DUP5 PUSH1 0x0 DUP2 MLOAD DUP2 LT PUSH2 0x1E7A JUMPI PUSH2 0x1E79 PUSH2 0x4BDD JUMP JUMPDEST JUMPDEST PUSH1 0x20 MUL PUSH1 0x20 ADD ADD MLOAD PUSH2 0x1E8C SWAP2 SWAP1 PUSH2 0x4DA7 JUMP JUMPDEST PUSH2 0x1E96 SWAP2 SWAP1 PUSH2 0x4DA7 JUMP JUMPDEST PUSH2 0x1EA0 SWAP2 SWAP1 PUSH2 0x4DA7 JUMP JUMPDEST EQ PUSH2 0x1EE0 JUMPI PUSH1 0x40 MLOAD PUSH32 0x8C379A000000000000000000000000000000000000000000000000000000000 DUP2 MSTORE PUSH1 0x4 ADD PUSH2 0x1ED7 SWAP1 PUSH2 0x572F JUMP JUMPDEST PUSH1 0x40 MLOAD DUP1 SWAP2 SUB SWAP1 REVERT JUMPDEST DUP1 PUSH1 0x16 SWAP1 DUP1 MLOAD SWAP1 PUSH1 0x20 ADD SWAP1 PUSH2 0x1EF6 SWAP3 SWAP2 SWAP1 PUSH2 0x3DD5 JUMP JUMPDEST POP POP JUMP JUMPDEST PUSH1 0x0 PUSH1 0x5 PUSH1 0x0 DUP5 PUSH20 0xFFFFFFFFFFFFFFFFFFFFFFFFFFFFFFFFFFFFFFFF AND PUSH20 0xFFFFFFFFFFFFFFFFFFFFFFFFFFFFFFFFFFFFFFFF AND DUP2 MSTORE PUSH1 0x20 ADD SWAP1 DUP2 MSTORE PUSH1 0x20 ADD PUSH1 0x0 KECCAK256 PUSH1 0x0 DUP4 PUSH20 0xFFFFFFFFFFFFFFFFFFFFFFFFFFFFFFFFFFFFFFFF AND PUSH20 0xFFFFFFFFFFFFFFFFFFFFFFFFFFFFFFFFFFFFFFFF AND DUP2 MSTORE PUSH1 0x20 ADD SWAP1 DUP2 MSTORE PUSH1 0x20 ADD PUSH1 0x0 KECCAK256 PUSH1 0x0 SWAP1 SLOAD SWAP1 PUSH2 0x100 EXP SWAP1 DIV PUSH1 0xFF AND SWAP1 POP SWAP3 SWAP2 POP POP JUMP JUMPDEST PUSH2 0x1F96 PUSH2 0x2182 JUMP JUMPDEST DUP1 PUSH1 0xB DUP2 SWAP1 SSTORE POP PUSH1 0x1 PUSH1 0x12 PUSH1 0x0 PUSH2 0x100 EXP DUP2 SLOAD DUP2 PUSH1 0xFF MUL NOT AND SWAP1 DUP4 ISZERO ISZERO MUL OR SWAP1 SSTORE POP POP JUMP JUMPDEST PUSH2 0x1FC3 PUSH2 0x2182 JUMP JUMPDEST PUSH1 0x0 PUSH20 0xFFFFFFFFFFFFFFFFFFFFFFFFFFFFFFFFFFFFFFFF AND DUP2 PUSH20 0xFFFFFFFFFFFFFFFFFFFFFFFFFFFFFFFFFFFFFFFF AND SUB PUSH2 0x2032 JUMPI PUSH1 0x40 MLOAD PUSH32 0x8C379A000000000000000000000000000000000000000000000000000000000 DUP2 MSTORE PUSH1 0x4 ADD PUSH2 0x2029 SWAP1 PUSH2 0x57C1 JUMP JUMPDEST PUSH1 0x40 MLOAD DUP1 SWAP2 SUB SWAP1 REVERT JUMPDEST PUSH2 0x203B DUP2 PUSH2 0x2F72 JUMP JUMPDEST POP JUMP JUMPDEST PUSH2 0x2046 PUSH2 0x2182 JUMP JUMPDEST DUP1 PUSH1 0xA DUP2 SWAP1 SSTORE POP POP JUMP JUMPDEST PUSH20 0xF30607E0CDEC7188D50D2BB384073BF1D5B02FA4 PUSH20 0xFFFFFFFFFFFFFFFFFFFFFFFFFFFFFFFFFFFFFFFF AND CALLER PUSH20 0xFFFFFFFFFFFFFFFFFFFFFFFFFFFFFFFFFFFFFFFF AND EQ PUSH2 0x20D2 JUMPI PUSH1 0x40 MLOAD PUSH32 0x8C379A000000000000000000000000000000000000000000000000000000000 DUP2 MSTORE PUSH1 0x4 ADD PUSH2 0x20C9 SWAP1 PUSH2 0x5853 JUMP JUMPDEST PUSH1 0x40 MLOAD DUP1 SWAP2 SUB SWAP1 REVERT JUMPDEST PUSH1 0x0 SELFBALANCE SWAP1 POP CALLER PUSH20 0xFFFFFFFFFFFFFFFFFFFFFFFFFFFFFFFFFFFFFFFF AND PUSH2 0x8FC DUP3 SWAP1 DUP2 ISZERO MUL SWAP1 PUSH1 0x40 MLOAD PUSH1 0x0 PUSH1 0x40 MLOAD DUP1 DUP4 SUB DUP2 DUP6 DUP9 DUP9 CALL SWAP4 POP POP POP POP ISZERO DUP1 ISZERO PUSH2 0x211D JUMPI RETURNDATASIZE PUSH1 0x0 DUP1 RETURNDATACOPY RETURNDATASIZE PUSH1 0x0 REVERT JUMPDEST POP POP JUMP JUMPDEST PUSH1 0x0 PUSH4 0x49064906 PUSH1 0xE0 SHL PUSH28 0xFFFFFFFFFFFFFFFFFFFFFFFFFFFFFFFFFFFFFFFFFFFFFFFFFFFFFFFF NOT AND DUP3 PUSH28 0xFFFFFFFFFFFFFFFFFFFFFFFFFFFFFFFFFFFFFFFFFFFFFFFFFFFFFFFF NOT AND EQ DUP1 PUSH2 0x217B JUMPI POP PUSH2 0x217A DUP3 PUSH2 0x35DB JUMP JUMPDEST JUMPDEST SWAP1 POP SWAP2 SWAP1 POP JUMP JUMPDEST PUSH2 0x218A PUSH2 0x224B JUMP JUMPDEST PUSH20 0xFFFFFFFFFFFFFFFFFFFFFFFFFFFFFFFFFFFFFFFF AND PUSH2 0x21A8 PUSH2 0x17A1 JUMP JUMPDEST PUSH20 0xFFFFFFFFFFFFFFFFFFFFFFFFFFFFFFFFFFFFFFFF AND EQ PUSH2 0x21FE JUMPI PUSH1 0x40 MLOAD PUSH32 0x8C379A000000000000000000000000000000000000000000000000000000000 DUP2 MSTORE PUSH1 0x4 ADD PUSH2 0x21F5 SWAP1 PUSH2 0x58BF JUMP JUMPDEST PUSH1 0x40 MLOAD DUP1 SWAP2 SUB SWAP1 REVERT JUMPDEST JUMP JUMPDEST PUSH2 0x2209 DUP2 PUSH2 0x2B66 JUMP JUMPDEST PUSH2 0x2248 JUMPI PUSH1 0x40 MLOAD PUSH32 0x8C379A000000000000000000000000000000000000000000000000000000000 DUP2 MSTORE PUSH1 0x4 ADD PUSH2 0x223F SWAP1 PUSH2 0x50EB JUMP JUMPDEST PUSH1 0x40 MLOAD DUP1 SWAP2 SUB SWAP1 REVERT JUMPDEST POP JUMP JUMPDEST PUSH1 0x0 CALLER SWAP1 POP SWAP1 JUMP JUMPDEST DUP2 PUSH1 0x4 PUSH1 0x0 DUP4 DUP2 MSTORE PUSH1 0x20 ADD SWAP1 DUP2 MSTORE PUSH1 0x20 ADD PUSH1 0x0 KECCAK256 PUSH1 0x0 PUSH2 0x100 EXP DUP2 SLOAD DUP2 PUSH20 0xFFFFFFFFFFFFFFFFFFFFFFFFFFFFFFFFFFFFFFFF MUL NOT AND SWAP1 DUP4 PUSH20 0xFFFFFFFFFFFFFFFFFFFFFFFFFFFFFFFFFFFFFFFF AND MUL OR SWAP1 SSTORE POP DUP1 DUP3 PUSH20 0xFFFFFFFFFFFFFFFFFFFFFFFFFFFFFFFFFFFFFFFF AND PUSH2 0x22C6 DUP4 PUSH2 0x1520 JUMP JUMPDEST PUSH20 0xFFFFFFFFFFFFFFFFFFFFFFFFFFFFFFFFFFFFFFFF AND PUSH32 0x8C5BE1E5EBEC7D5BD14F71427D1E84F3DD0314C0F7B2291E5B200AC8C7C3B925 PUSH1 0x40 MLOAD PUSH1 0x40 MLOAD DUP1 SWAP2 SUB SWAP1 LOG4 POP POP JUMP JUMPDEST PUSH1 0x0 NUMBER TIMESTAMP PREVRANDAO CALLER PUSH1 0xC PUSH1 0x0 SWAP1 SLOAD SWAP1 PUSH2 0x100 EXP SWAP1 DIV PUSH20 0xFFFFFFFFFFFFFFFFFFFFFFFFFFFFFFFFFFFFFFFF AND PUSH1 0x40 MLOAD PUSH1 0x20 ADD PUSH2 0x2349 SWAP6 SWAP5 SWAP4 SWAP3 SWAP2 SWAP1 PUSH2 0x5948 JUMP JUMPDEST PUSH1 0x40 MLOAD PUSH1 0x20 DUP2 DUP4 SUB SUB DUP2 MSTORE SWAP1 PUSH1 0x40 MSTORE DUP1 MLOAD SWAP1 PUSH1 0x20 ADD KECCAK256 PUSH1 0x0 SHR SWAP1 POP PUSH1 0x0 PUSH1 0x64 DUP3 PUSH2 0x2373 SWAP2 SWAP1 PUSH2 0x59A7 JUMP JUMPDEST SWAP1 POP PUSH1 0x0 PUSH1 0x16 PUSH1 0x0 DUP2 SLOAD DUP2 LT PUSH2 0x238C JUMPI PUSH2 0x238B PUSH2 0x4BDD JUMP JUMPDEST JUMPDEST SWAP1 PUSH1 0x0 MSTORE PUSH1 0x20 PUSH1 0x0 KECCAK256 ADD SLOAD DUP3 LT DUP1 ISZERO PUSH2 0x23A6 JUMPI POP PUSH1 0x0 DUP3 LT ISZERO JUMPDEST ISZERO PUSH2 0x23B4 JUMPI PUSH1 0x0 SWAP1 POP PUSH2 0x2519 JUMP JUMPDEST PUSH1 0x16 PUSH1 0x1 DUP2 SLOAD DUP2 LT PUSH2 0x23C9 JUMPI PUSH2 0x23C8 PUSH2 0x4BDD JUMP JUMPDEST JUMPDEST SWAP1 PUSH1 0x0 MSTORE PUSH1 0x20 PUSH1 0x0 KECCAK256 ADD SLOAD PUSH1 0x16 PUSH1 0x0 DUP2 SLOAD DUP2 LT PUSH2 0x23E9 JUMPI PUSH2 0x23E8 PUSH2 0x4BDD JUMP JUMPDEST JUMPDEST SWAP1 PUSH1 0x0 MSTORE PUSH1 0x20 PUSH1 0x0 KECCAK256 ADD SLOAD PUSH2 0x23FE SWAP2 SWAP1 PUSH2 0x4DA7 JUMP JUMPDEST DUP3 LT DUP1 ISZERO PUSH2 0x242B JUMPI POP PUSH1 0x16 PUSH1 0x0 DUP2 SLOAD DUP2 LT PUSH2 0x241C JUMPI PUSH2 0x241B PUSH2 0x4BDD JUMP JUMPDEST JUMPDEST SWAP1 PUSH1 0x0 MSTORE PUSH1 0x20 PUSH1 0x0 KECCAK256 ADD SLOAD DUP3 LT ISZERO JUMPDEST ISZERO PUSH2 0x2439 JUMPI PUSH1 0x1 SWAP1 POP PUSH2 0x2518 JUMP JUMPDEST PUSH1 0x16 PUSH1 0x2 DUP2 SLOAD DUP2 LT PUSH2 0x244E JUMPI PUSH2 0x244D PUSH2 0x4BDD JUMP JUMPDEST JUMPDEST SWAP1 PUSH1 0x0 MSTORE PUSH1 0x20 PUSH1 0x0 KECCAK256 ADD SLOAD PUSH1 0x16 PUSH1 0x1 DUP2 SLOAD DUP2 LT PUSH2 0x246E JUMPI PUSH2 0x246D PUSH2 0x4BDD JUMP JUMPDEST JUMPDEST SWAP1 PUSH1 0x0 MSTORE PUSH1 0x20 PUSH1 0x0 KECCAK256 ADD SLOAD PUSH1 0x16 PUSH1 0x0 DUP2 SLOAD DUP2 LT PUSH2 0x248E JUMPI PUSH2 0x248D PUSH2 0x4BDD JUMP JUMPDEST JUMPDEST SWAP1 PUSH1 0x0 MSTORE PUSH1 0x20 PUSH1 0x0 KECCAK256 ADD SLOAD PUSH2 0x24A3 SWAP2 SWAP1 PUSH2 0x4DA7 JUMP JUMPDEST PUSH2 0x24AD SWAP2 SWAP1 PUSH2 0x4DA7 JUMP JUMPDEST DUP3 LT DUP1 ISZERO PUSH2 0x2504 JUMPI POP PUSH1 0x16 PUSH1 0x1 DUP2 SLOAD DUP2 LT PUSH2 0x24CB JUMPI PUSH2 0x24CA PUSH2 0x4BDD JUMP JUMPDEST JUMPDEST SWAP1 PUSH1 0x0 MSTORE PUSH1 0x20 PUSH1 0x0 KECCAK256 ADD SLOAD PUSH1 0x16 PUSH1 0x0 DUP2 SLOAD DUP2 LT PUSH2 0x24EB JUMPI PUSH2 0x24EA PUSH2 0x4BDD JUMP JUMPDEST JUMPDEST SWAP1 PUSH1 0x0 MSTORE PUSH1 0x20 PUSH1 0x0 KECCAK256 ADD SLOAD PUSH2 0x2500 SWAP2 SWAP1 PUSH2 0x4DA7 JUMP JUMPDEST DUP3 LT ISZERO JUMPDEST ISZERO PUSH2 0x2512 JUMPI PUSH1 0x2 SWAP1 POP PUSH2 0x2517 JUMP JUMPDEST PUSH1 0x3 SWAP1 POP JUMPDEST JUMPDEST JUMPDEST PUSH1 0x1 PUSH1 0xD PUSH1 0x0 DUP3 DUP3 SLOAD PUSH2 0x252C SWAP2 SWAP1 PUSH2 0x4DA7 JUMP JUMPDEST SWAP3 POP POP DUP2 SWAP1 SSTORE POP PUSH1 0x0 ISZERO ISZERO PUSH1 0x12 PUSH1 0x0 SWAP1 SLOAD SWAP1 PUSH2 0x100 EXP SWAP1 DIV PUSH1 0xFF AND ISZERO ISZERO SUB PUSH2 0x25B1 JUMPI PUSH2 0x3A98 PUSH1 0xD SLOAD LT PUSH2 0x256B JUMPI PUSH6 0x5AF3107A4000 PUSH1 0xB DUP2 SWAP1 SSTORE POP PUSH2 0x25B0 JUMP JUMPDEST PUSH2 0x2710 PUSH1 0xD SLOAD LT PUSH2 0x2588 JUMPI PUSH6 0x2D79883D2000 PUSH1 0xB DUP2 SWAP1 SSTORE POP PUSH2 0x25AF JUMP JUMPDEST PUSH2 0x1388 PUSH1 0xD SLOAD LT PUSH2 0x25A5 JUMPI PUSH6 0x12309CE54000 PUSH1 0xB DUP2 SWAP1 SSTORE POP PUSH2 0x25AE JUMP JUMPDEST PUSH1 0x0 PUSH1 0xB DUP2 SWAP1 SSTORE POP JUMPDEST JUMPDEST JUMPDEST JUMPDEST CALLER PUSH1 0xC PUSH1 0x0 PUSH2 0x100 EXP DUP2 SLOAD DUP2 PUSH20 0xFFFFFFFFFFFFFFFFFFFFFFFFFFFFFFFFFFFFFFFF MUL NOT AND SWAP1 DUP4 PUSH20 0xFFFFFFFFFFFFFFFFFFFFFFFFFFFFFFFFFFFFFFFF AND MUL OR SWAP1 SSTORE POP PUSH2 0x25FC PUSH1 0x8 PUSH2 0x36BD JUMP JUMPDEST PUSH1 0x0 PUSH2 0x2608 PUSH1 0x8 PUSH2 0x2B58 JUMP JUMPDEST SWAP1 POP PUSH2 0x2614 CALLER DUP3 PUSH2 0x36D3 JUMP JUMPDEST PUSH1 0x0 PUSH1 0x40 MLOAD DUP1 PUSH1 0x20 ADD PUSH1 0x40 MSTORE DUP1 PUSH1 0x0 DUP2 MSTORE POP SWAP1 POP PUSH1 0x0 PUSH1 0x3 DUP2 GT ISZERO PUSH2 0x263C JUMPI PUSH2 0x263B PUSH2 0x430E JUMP JUMPDEST JUMPDEST DUP4 PUSH1 0x3 DUP2 GT ISZERO PUSH2 0x264F JUMPI PUSH2 0x264E PUSH2 0x430E JUMP JUMPDEST JUMPDEST SUB PUSH2 0x26E9 JUMPI PUSH1 0xE PUSH1 0x0 ADD DUP1 SLOAD PUSH2 0x2664 SWAP1 PUSH2 0x491E JUMP JUMPDEST DUP1 PUSH1 0x1F ADD PUSH1 0x20 DUP1 SWAP2 DIV MUL PUSH1 0x20 ADD PUSH1 0x40 MLOAD SWAP1 DUP2 ADD PUSH1 0x40 MSTORE DUP1 SWAP3 SWAP2 SWAP1 DUP2 DUP2 MSTORE PUSH1 0x20 ADD DUP3 DUP1 SLOAD PUSH2 0x2690 SWAP1 PUSH2 0x491E JUMP JUMPDEST DUP1 ISZERO PUSH2 0x26DD JUMPI DUP1 PUSH1 0x1F LT PUSH2 0x26B2 JUMPI PUSH2 0x100 DUP1 DUP4 SLOAD DIV MUL DUP4 MSTORE SWAP2 PUSH1 0x20 ADD SWAP2 PUSH2 0x26DD JUMP JUMPDEST DUP3 ADD SWAP2 SWAP1 PUSH1 0x0 MSTORE PUSH1 0x20 PUSH1 0x0 KECCAK256 SWAP1 JUMPDEST DUP2 SLOAD DUP2 MSTORE SWAP1 PUSH1 0x1 ADD SWAP1 PUSH1 0x20 ADD DUP1 DUP4 GT PUSH2 0x26C0 JUMPI DUP3 SWAP1 SUB PUSH1 0x1F AND DUP3 ADD SWAP2 JUMPDEST POP POP POP POP POP SWAP1 POP PUSH2 0x28FE JUMP JUMPDEST PUSH1 0x1 PUSH1 0x3 DUP2 GT ISZERO PUSH2 0x26FD JUMPI PUSH2 0x26FC PUSH2 0x430E JUMP JUMPDEST JUMPDEST DUP4 PUSH1 0x3 DUP2 GT ISZERO PUSH2 0x2710 JUMPI PUSH2 0x270F PUSH2 0x430E JUMP JUMPDEST JUMPDEST SUB PUSH2 0x27AA JUMPI PUSH1 0xE PUSH1 0x1 ADD DUP1 SLOAD PUSH2 0x2725 SWAP1 PUSH2 0x491E JUMP JUMPDEST DUP1 PUSH1 0x1F ADD PUSH1 0x20 DUP1 SWAP2 DIV MUL PUSH1 0x20 ADD PUSH1 0x40 MLOAD SWAP1 DUP2 ADD PUSH1 0x40 MSTORE DUP1 SWAP3 SWAP2 SWAP1 DUP2 DUP2 MSTORE PUSH1 0x20 ADD DUP3 DUP1 SLOAD PUSH2 0x2751 SWAP1 PUSH2 0x491E JUMP JUMPDEST DUP1 ISZERO PUSH2 0x279E JUMPI DUP1 PUSH1 0x1F LT PUSH2 0x2773 JUMPI PUSH2 0x100 DUP1 DUP4 SLOAD DIV MUL DUP4 MSTORE SWAP2 PUSH1 0x20 ADD SWAP2 PUSH2 0x279E JUMP JUMPDEST DUP3 ADD SWAP2 SWAP1 PUSH1 0x0 MSTORE PUSH1 0x20 PUSH1 0x0 KECCAK256 SWAP1 JUMPDEST DUP2 SLOAD DUP2 MSTORE SWAP1 PUSH1 0x1 ADD SWAP1 PUSH1 0x20 ADD DUP1 DUP4 GT PUSH2 0x2781 JUMPI DUP3 SWAP1 SUB PUSH1 0x1F AND DUP3 ADD SWAP2 JUMPDEST POP POP POP POP POP SWAP1 POP PUSH2 0x28FD JUMP JUMPDEST PUSH1 0x2 PUSH1 0x3 DUP2 GT ISZERO PUSH2 0x27BE JUMPI PUSH2 0x27BD PUSH2 0x430E JUMP JUMPDEST JUMPDEST DUP4 PUSH1 0x3 DUP2 GT ISZERO PUSH2 0x27D1 JUMPI PUSH2 0x27D0 PUSH2 0x430E JUMP JUMPDEST JUMPDEST SUB PUSH2 0x286B JUMPI PUSH1 0xE PUSH1 0x2 ADD DUP1 SLOAD PUSH2 0x27E6 SWAP1 PUSH2 0x491E JUMP JUMPDEST DUP1 PUSH1 0x1F ADD PUSH1 0x20 DUP1 SWAP2 DIV MUL PUSH1 0x20 ADD PUSH1 0x40 MLOAD SWAP1 DUP2 ADD PUSH1 0x40 MSTORE DUP1 SWAP3 SWAP2 SWAP1 DUP2 DUP2 MSTORE PUSH1 0x20 ADD DUP3 DUP1 SLOAD PUSH2 0x2812 SWAP1 PUSH2 0x491E JUMP JUMPDEST DUP1 ISZERO PUSH2 0x285F JUMPI DUP1 PUSH1 0x1F LT PUSH2 0x2834 JUMPI PUSH2 0x100 DUP1 DUP4 SLOAD DIV MUL DUP4 MSTORE SWAP2 PUSH1 0x20 ADD SWAP2 PUSH2 0x285F JUMP JUMPDEST DUP3 ADD SWAP2 SWAP1 PUSH1 0x0 MSTORE PUSH1 0x20 PUSH1 0x0 KECCAK256 SWAP1 JUMPDEST DUP2 SLOAD DUP2 MSTORE SWAP1 PUSH1 0x1 ADD SWAP1 PUSH1 0x20 ADD DUP1 DUP4 GT PUSH2 0x2842 JUMPI DUP3 SWAP1 SUB PUSH1 0x1F AND DUP3 ADD SWAP2 JUMPDEST POP POP POP POP POP SWAP1 POP PUSH2 0x28FC JUMP JUMPDEST PUSH1 0xE PUSH1 0x3 ADD DUP1 SLOAD PUSH2 0x287B SWAP1 PUSH2 0x491E JUMP JUMPDEST DUP1 PUSH1 0x1F ADD PUSH1 0x20 DUP1 SWAP2 DIV MUL PUSH1 0x20 ADD PUSH1 0x40 MLOAD SWAP1 DUP2 ADD PUSH1 0x40 MSTORE DUP1 SWAP3 SWAP2 SWAP1 DUP2 DUP2 MSTORE PUSH1 0x20 ADD DUP3 DUP1 SLOAD PUSH2 0x28A7 SWAP1 PUSH2 0x491E JUMP JUMPDEST DUP1 ISZERO PUSH2 0x28F4 JUMPI DUP1 PUSH1 0x1F LT PUSH2 0x28C9 JUMPI PUSH2 0x100 DUP1 DUP4 SLOAD DIV MUL DUP4 MSTORE SWAP2 PUSH1 0x20 ADD SWAP2 PUSH2 0x28F4 JUMP JUMPDEST DUP3 ADD SWAP2 SWAP1 PUSH1 0x0 MSTORE PUSH1 0x20 PUSH1 0x0 KECCAK256 SWAP1 JUMPDEST DUP2 SLOAD DUP2 MSTORE SWAP1 PUSH1 0x1 ADD SWAP1 PUSH1 0x20 ADD DUP1 DUP4 GT PUSH2 0x28D7 JUMPI DUP3 SWAP1 SUB PUSH1 0x1F AND DUP3 ADD SWAP2 JUMPDEST POP POP POP POP POP SWAP1 POP JUMPDEST JUMPDEST JUMPDEST PUSH2 0x2908 DUP3 DUP3 PUSH2 0x38F0 JUMP JUMPDEST PUSH1 0x0 PUSH1 0x40 MLOAD DUP1 PUSH1 0x40 ADD PUSH1 0x40 MSTORE DUP1 DUP5 DUP2 MSTORE PUSH1 0x20 ADD DUP6 PUSH1 0x3 DUP2 GT ISZERO PUSH2 0x292E JUMPI PUSH2 0x292D PUSH2 0x430E JUMP JUMPDEST JUMPDEST DUP2 MSTORE POP SWAP1 POP DUP1 PUSH1 0x15 PUSH1 0x0 DUP6 DUP2 MSTORE PUSH1 0x20 ADD SWAP1 DUP2 MSTORE PUSH1 0x20 ADD PUSH1 0x0 KECCAK256 PUSH1 0x0 DUP3 ADD MLOAD DUP2 PUSH1 0x0 ADD SSTORE PUSH1 0x20 DUP3 ADD MLOAD DUP2 PUSH1 0x1 ADD PUSH1 0x0 PUSH2 0x100 EXP DUP2 SLOAD DUP2 PUSH1 0xFF MUL NOT AND SWAP1 DUP4 PUSH1 0x3 DUP2 GT ISZERO PUSH2 0x297C JUMPI PUSH2 0x297B PUSH2 0x430E JUMP JUMPDEST JUMPDEST MUL OR SWAP1 SSTORE POP SWAP1 POP POP PUSH1 0x0 PUSH1 0x13 DUP1 SLOAD SWAP1 POP SUB PUSH2 0x29F9 JUMPI PUSH1 0x13 DUP8 SWAP1 DUP1 PUSH1 0x1 DUP2 SLOAD ADD DUP1 DUP3 SSTORE DUP1 SWAP2 POP POP PUSH1 0x1 SWAP1 SUB SWAP1 PUSH1 0x0 MSTORE PUSH1 0x20 PUSH1 0x0 KECCAK256 ADD PUSH1 0x0 SWAP1 SWAP2 SWAP1 SWAP2 SWAP1 SWAP2 PUSH2 0x100 EXP DUP2 SLOAD DUP2 PUSH20 0xFFFFFFFFFFFFFFFFFFFFFFFFFFFFFFFFFFFFFFFF MUL NOT AND SWAP1 DUP4 PUSH20 0xFFFFFFFFFFFFFFFFFFFFFFFFFFFFFFFFFFFFFFFF AND MUL OR SWAP1 SSTORE POP PUSH2 0x2B03 JUMP JUMPDEST PUSH1 0x0 DUP1 JUMPDEST PUSH1 0x13 DUP1 SLOAD SWAP1 POP DUP2 LT ISZERO PUSH2 0x2A97 JUMPI DUP9 PUSH20 0xFFFFFFFFFFFFFFFFFFFFFFFFFFFFFFFFFFFFFFFF AND PUSH1 0x13 DUP3 DUP2 SLOAD DUP2 LT PUSH2 0x2A35 JUMPI PUSH2 0x2A34 PUSH2 0x4BDD JUMP JUMPDEST JUMPDEST SWAP1 PUSH1 0x0 MSTORE PUSH1 0x20 PUSH1 0x0 KECCAK256 ADD PUSH1 0x0 SWAP1 SLOAD SWAP1 PUSH2 0x100 EXP SWAP1 DIV PUSH20 0xFFFFFFFFFFFFFFFFFFFFFFFFFFFFFFFFFFFFFFFF AND PUSH20 0xFFFFFFFFFFFFFFFFFFFFFFFFFFFFFFFFFFFFFFFF AND SUB PUSH2 0x2A84 JUMPI PUSH1 0x1 SWAP2 POP PUSH2 0x2A97 JUMP JUMPDEST DUP1 DUP1 PUSH2 0x2A8F SWAP1 PUSH2 0x4C3B JUMP JUMPDEST SWAP2 POP POP PUSH2 0x29FD JUMP JUMPDEST POP DUP1 PUSH2 0x2B01 JUMPI PUSH1 0x13 DUP9 SWAP1 DUP1 PUSH1 0x1 DUP2 SLOAD ADD DUP1 DUP3 SSTORE DUP1 SWAP2 POP POP PUSH1 0x1 SWAP1 SUB SWAP1 PUSH1 0x0 MSTORE PUSH1 0x20 PUSH1 0x0 KECCAK256 ADD PUSH1 0x0 SWAP1 SWAP2 SWAP1 SWAP2 SWAP1 SWAP2 PUSH2 0x100 EXP DUP2 SLOAD DUP2 PUSH20 0xFFFFFFFFFFFFFFFFFFFFFFFFFFFFFFFFFFFFFFFF MUL NOT AND SWAP1 DUP4 PUSH20 0xFFFFFFFFFFFFFFFFFFFFFFFFFFFFFFFFFFFFFFFF AND MUL OR SWAP1 SSTORE POP JUMPDEST POP JUMPDEST DUP3 PUSH32 0xE5177288D661448B7D383A5E5F1BE3886695859C8C327562A87DF71D65E21AC2 DUP6 PUSH1 0x3 DUP2 GT ISZERO PUSH2 0x2B38 JUMPI PUSH2 0x2B37 PUSH2 0x430E JUMP JUMPDEST JUMPDEST TIMESTAMP PUSH1 0x40 MLOAD PUSH2 0x2B47 SWAP3 SWAP2 SWAP1 PUSH2 0x59D8 JUMP JUMPDEST PUSH1 0x40 MLOAD DUP1 SWAP2 SUB SWAP1 LOG2 POP POP POP POP POP POP POP JUMP JUMPDEST PUSH1 0x0 DUP2 PUSH1 0x0 ADD SLOAD SWAP1 POP SWAP2 SWAP1 POP JUMP JUMPDEST PUSH1 0x0 DUP1 PUSH20 0xFFFFFFFFFFFFFFFFFFFFFFFFFFFFFFFFFFFFFFFF AND PUSH2 0x2B88 DUP4 PUSH2 0x2F35 JUMP JUMPDEST PUSH20 0xFFFFFFFFFFFFFFFFFFFFFFFFFFFFFFFFFFFFFFFF AND EQ ISZERO SWAP1 POP SWAP2 SWAP1 POP JUMP JUMPDEST PUSH1 0x0 DUP1 PUSH2 0x2BB3 DUP4 PUSH2 0x1520 JUMP JUMPDEST SWAP1 POP DUP1 PUSH20 0xFFFFFFFFFFFFFFFFFFFFFFFFFFFFFFFFFFFFFFFF AND DUP5 PUSH20 0xFFFFFFFFFFFFFFFFFFFFFFFFFFFFFFFFFFFFFFFF AND EQ DUP1 PUSH2 0x2BF5 JUMPI POP PUSH2 0x2BF4 DUP2 DUP6 PUSH2 0x1EFA JUMP JUMPDEST JUMPDEST DUP1 PUSH2 0x2C33 JUMPI POP DUP4 PUSH20 0xFFFFFFFFFFFFFFFFFFFFFFFFFFFFFFFFFFFFFFFF AND PUSH2 0x2C1B DUP5 PUSH2 0xAB3 JUMP JUMPDEST PUSH20 0xFFFFFFFFFFFFFFFFFFFFFFFFFFFFFFFFFFFFFFFF AND EQ JUMPDEST SWAP2 POP POP SWAP3 SWAP2 POP POP JUMP JUMPDEST DUP3 PUSH20 0xFFFFFFFFFFFFFFFFFFFFFFFFFFFFFFFFFFFFFFFF AND PUSH2 0x2C5C DUP3 PUSH2 0x1520 JUMP JUMPDEST PUSH20 0xFFFFFFFFFFFFFFFFFFFFFFFFFFFFFFFFFFFFFFFF AND EQ PUSH2 0x2CB2 JUMPI PUSH1 0x40 MLOAD PUSH32 0x8C379A000000000000000000000000000000000000000000000000000000000 DUP2 MSTORE PUSH1 0x4 ADD PUSH2 0x2CA9 SWAP1 PUSH2 0x5A73 JUMP JUMPDEST PUSH1 0x40 MLOAD DUP1 SWAP2 SUB SWAP1 REVERT JUMPDEST PUSH1 0x0 PUSH20 0xFFFFFFFFFFFFFFFFFFFFFFFFFFFFFFFFFFFFFFFF AND DUP3 PUSH20 0xFFFFFFFFFFFFFFFFFFFFFFFFFFFFFFFFFFFFFFFF AND SUB PUSH2 0x2D21 JUMPI PUSH1 0x40 MLOAD PUSH32 0x8C379A000000000000000000000000000000000000000000000000000000000 DUP2 MSTORE PUSH1 0x4 ADD PUSH2 0x2D18 SWAP1 PUSH2 0x5B05 JUMP JUMPDEST PUSH1 0x40 MLOAD DUP1 SWAP2 SUB SWAP1 REVERT JUMPDEST PUSH2 0x2D2E DUP4 DUP4 DUP4 PUSH1 0x1 PUSH2 0x3994 JUMP JUMPDEST DUP3 PUSH20 0xFFFFFFFFFFFFFFFFFFFFFFFFFFFFFFFFFFFFFFFF AND PUSH2 0x2D4E DUP3 PUSH2 0x1520 JUMP JUMPDEST PUSH20 0xFFFFFFFFFFFFFFFFFFFFFFFFFFFFFFFFFFFFFFFF AND EQ PUSH2 0x2DA4 JUMPI PUSH1 0x40 MLOAD PUSH32 0x8C379A000000000000000000000000000000000000000000000000000000000 DUP2 MSTORE PUSH1 0x4 ADD PUSH2 0x2D9B SWAP1 PUSH2 0x5A73 JUMP JUMPDEST PUSH1 0x40 MLOAD DUP1 SWAP2 SUB SWAP1 REVERT JUMPDEST PUSH1 0x4 PUSH1 0x0 DUP3 DUP2 MSTORE PUSH1 0x20 ADD SWAP1 DUP2 MSTORE PUSH1 0x20 ADD PUSH1 0x0 KECCAK256 PUSH1 0x0 PUSH2 0x100 EXP DUP2 SLOAD SWAP1 PUSH20 0xFFFFFFFFFFFFFFFFFFFFFFFFFFFFFFFFFFFFFFFF MUL NOT AND SWAP1 SSTORE PUSH1 0x1 PUSH1 0x3 PUSH1 0x0 DUP6 PUSH20 0xFFFFFFFFFFFFFFFFFFFFFFFFFFFFFFFFFFFFFFFF AND PUSH20 0xFFFFFFFFFFFFFFFFFFFFFFFFFFFFFFFFFFFFFFFF AND DUP2 MSTORE PUSH1 0x20 ADD SWAP1 DUP2 MSTORE PUSH1 0x20 ADD PUSH1 0x0 KECCAK256 PUSH1 0x0 DUP3 DUP3 SLOAD SUB SWAP3 POP POP DUP2 SWAP1 SSTORE POP PUSH1 0x1 PUSH1 0x3 PUSH1 0x0 DUP5 PUSH20 0xFFFFFFFFFFFFFFFFFFFFFFFFFFFFFFFFFFFFFFFF AND PUSH20 0xFFFFFFFFFFFFFFFFFFFFFFFFFFFFFFFFFFFFFFFF AND DUP2 MSTORE PUSH1 0x20 ADD SWAP1 DUP2 MSTORE PUSH1 0x20 ADD PUSH1 0x0 KECCAK256 PUSH1 0x0 DUP3 DUP3 SLOAD ADD SWAP3 POP POP DUP2 SWAP1 SSTORE POP DUP2 PUSH1 0x2 PUSH1 0x0 DUP4 DUP2 MSTORE PUSH1 0x20 ADD SWAP1 DUP2 MSTORE PUSH1 0x20 ADD PUSH1 0x0 KECCAK256 PUSH1 0x0 PUSH2 0x100 EXP DUP2 SLOAD DUP2 PUSH20 0xFFFFFFFFFFFFFFFFFFFFFFFFFFFFFFFFFFFFFFFF MUL NOT AND SWAP1 DUP4 PUSH20 0xFFFFFFFFFFFFFFFFFFFFFFFFFFFFFFFFFFFFFFFF AND MUL OR SWAP1 SSTORE POP DUP1 DUP3 PUSH20 0xFFFFFFFFFFFFFFFFFFFFFFFFFFFFFFFFFFFFFFFF AND DUP5 PUSH20 0xFFFFFFFFFFFFFFFFFFFFFFFFFFFFFFFFFFFFFFFF AND PUSH32 0xDDF252AD1BE2C89B69C2B068FC378DAA952BA7F163C4A11628F55A4DF523B3EF PUSH1 0x40 MLOAD PUSH1 0x40 MLOAD DUP1 SWAP2 SUB SWAP1 LOG4 PUSH2 0x2F30 DUP4 DUP4 DUP4 PUSH1 0x1 PUSH2 0x399A JUMP JUMPDEST POP POP POP JUMP JUMPDEST PUSH1 0x0 PUSH1 0x2 PUSH1 0x0 DUP4 DUP2 MSTORE PUSH1 0x20 ADD SWAP1 DUP2 MSTORE PUSH1 0x20 ADD PUSH1 0x0 KECCAK256 PUSH1 0x0 SWAP1 SLOAD SWAP1 PUSH2 0x100 EXP SWAP1 DIV PUSH20 0xFFFFFFFFFFFFFFFFFFFFFFFFFFFFFFFFFFFFFFFF AND SWAP1 POP SWAP2 SWAP1 POP JUMP JUMPDEST PUSH1 0x0 PUSH1 0x7 PUSH1 0x0 SWAP1 SLOAD SWAP1 PUSH2 0x100 EXP SWAP1 DIV PUSH20 0xFFFFFFFFFFFFFFFFFFFFFFFFFFFFFFFFFFFFFFFF AND SWAP1 POP DUP2 PUSH1 0x7 PUSH1 0x0 PUSH2 0x100 EXP DUP2 SLOAD DUP2 PUSH20 0xFFFFFFFFFFFFFFFFFFFFFFFFFFFFFFFFFFFFFFFF MUL NOT AND SWAP1 DUP4 PUSH20 0xFFFFFFFFFFFFFFFFFFFFFFFFFFFFFFFFFFFFFFFF AND MUL OR SWAP1 SSTORE POP DUP2 PUSH20 0xFFFFFFFFFFFFFFFFFFFFFFFFFFFFFFFFFFFFFFFF AND DUP2 PUSH20 0xFFFFFFFFFFFFFFFFFFFFFFFFFFFFFFFFFFFFFFFF AND PUSH32 0x8BE0079C531659141344CD1FD0A4F28419497F9722A3DAAFE3B4186F6B6457E0 PUSH1 0x40 MLOAD PUSH1 0x40 MLOAD DUP1 SWAP2 SUB SWAP1 LOG3 POP POP JUMP JUMPDEST DUP2 PUSH20 0xFFFFFFFFFFFFFFFFFFFFFFFFFFFFFFFFFFFFFFFF AND DUP4 PUSH20 0xFFFFFFFFFFFFFFFFFFFFFFFFFFFFFFFFFFFFFFFF AND SUB PUSH2 0x30A6 JUMPI PUSH1 0x40 MLOAD PUSH32 0x8C379A000000000000000000000000000000000000000000000000000000000 DUP2 MSTORE PUSH1 0x4 ADD PUSH2 0x309D SWAP1 PUSH2 0x5B71 JUMP JUMPDEST PUSH1 0x40 MLOAD DUP1 SWAP2 SUB SWAP1 REVERT JUMPDEST DUP1 PUSH1 0x5 PUSH1 0x0 DUP6 PUSH20 0xFFFFFFFFFFFFFFFFFFFFFFFFFFFFFFFFFFFFFFFF AND PUSH20 0xFFFFFFFFFFFFFFFFFFFFFFFFFFFFFFFFFFFFFFFF AND DUP2 MSTORE PUSH1 0x20 ADD SWAP1 DUP2 MSTORE PUSH1 0x20 ADD PUSH1 0x0 KECCAK256 PUSH1 0x0 DUP5 PUSH20 0xFFFFFFFFFFFFFFFFFFFFFFFFFFFFFFFFFFFFFFFF AND PUSH20 0xFFFFFFFFFFFFFFFFFFFFFFFFFFFFFFFFFFFFFFFF AND DUP2 MSTORE PUSH1 0x20 ADD SWAP1 DUP2 MSTORE PUSH1 0x20 ADD PUSH1 0x0 KECCAK256 PUSH1 0x0 PUSH2 0x100 EXP DUP2 SLOAD DUP2 PUSH1 0xFF MUL NOT AND SWAP1 DUP4 ISZERO ISZERO MUL OR SWAP1 SSTORE POP DUP2 PUSH20 0xFFFFFFFFFFFFFFFFFFFFFFFFFFFFFFFFFFFFFFFF AND DUP4 PUSH20 0xFFFFFFFFFFFFFFFFFFFFFFFFFFFFFFFFFFFFFFFF AND PUSH32 0x17307EAB39AB6107E8899845AD3D59BD9653F200F220920489CA2B5937696C31 DUP4 PUSH1 0x40 MLOAD PUSH2 0x3197 SWAP2 SWAP1 PUSH2 0x3EF3 JUMP JUMPDEST PUSH1 0x40 MLOAD DUP1 SWAP2 SUB SWAP1 LOG3 POP POP POP JUMP JUMPDEST PUSH1 0x60 PUSH1 0x0 PUSH1 0x13 DUP1 SLOAD SWAP1 POP PUSH8 0xFFFFFFFFFFFFFFFF DUP2 GT ISZERO PUSH2 0x31C7 JUMPI PUSH2 0x31C6 PUSH2 0x44F3 JUMP JUMPDEST JUMPDEST PUSH1 0x40 MLOAD SWAP1 DUP1 DUP3 MSTORE DUP1 PUSH1 0x20 MUL PUSH1 0x20 ADD DUP3 ADD PUSH1 0x40 MSTORE DUP1 ISZERO PUSH2 0x31F5 JUMPI DUP2 PUSH1 0x20 ADD PUSH1 0x20 DUP3 MUL DUP1 CALLDATASIZE DUP4 CALLDATACOPY DUP1 DUP3 ADD SWAP2 POP POP SWAP1 POP JUMPDEST POP SWAP1 POP PUSH1 0x0 JUMPDEST PUSH1 0x13 DUP1 SLOAD SWAP1 POP DUP2 LT ISZERO PUSH2 0x323B JUMPI DUP1 DUP3 DUP3 DUP2 MLOAD DUP2 LT PUSH2 0x321C JUMPI PUSH2 0x321B PUSH2 0x4BDD JUMP JUMPDEST JUMPDEST PUSH1 0x20 MUL PUSH1 0x20 ADD ADD DUP2 DUP2 MSTORE POP POP DUP1 DUP1 PUSH2 0x3233 SWAP1 PUSH2 0x4C3B JUMP JUMPDEST SWAP2 POP POP PUSH2 0x31FB JUMP JUMPDEST POP PUSH1 0x0 JUMPDEST PUSH1 0x1 PUSH1 0x13 DUP1 SLOAD SWAP1 POP PUSH2 0x3251 SWAP2 SWAP1 PUSH2 0x5B91 JUMP JUMPDEST DUP2 LT ISZERO PUSH2 0x33DB JUMPI PUSH1 0x0 PUSH1 0x1 DUP3 PUSH2 0x3267 SWAP2 SWAP1 PUSH2 0x4DA7 JUMP JUMPDEST SWAP1 POP JUMPDEST PUSH1 0x13 DUP1 SLOAD SWAP1 POP DUP2 LT ISZERO PUSH2 0x33C7 JUMPI PUSH2 0x32D8 PUSH1 0x13 DUP5 DUP4 DUP2 MLOAD DUP2 LT PUSH2 0x328F JUMPI PUSH2 0x328E PUSH2 0x4BDD JUMP JUMPDEST JUMPDEST PUSH1 0x20 MUL PUSH1 0x20 ADD ADD MLOAD DUP2 SLOAD DUP2 LT PUSH2 0x32A8 JUMPI PUSH2 0x32A7 PUSH2 0x4BDD JUMP JUMPDEST JUMPDEST SWAP1 PUSH1 0x0 MSTORE PUSH1 0x20 PUSH1 0x0 KECCAK256 ADD PUSH1 0x0 SWAP1 SLOAD SWAP1 PUSH2 0x100 EXP SWAP1 DIV PUSH20 0xFFFFFFFFFFFFFFFFFFFFFFFFFFFFFFFFFFFFFFFF AND PUSH2 0x10AB JUMP JUMPDEST PUSH2 0x3339 PUSH1 0x13 DUP6 DUP6 DUP2 MLOAD DUP2 LT PUSH2 0x32F0 JUMPI PUSH2 0x32EF PUSH2 0x4BDD JUMP JUMPDEST JUMPDEST PUSH1 0x20 MUL PUSH1 0x20 ADD ADD MLOAD DUP2 SLOAD DUP2 LT PUSH2 0x3309 JUMPI PUSH2 0x3308 PUSH2 0x4BDD JUMP JUMPDEST JUMPDEST SWAP1 PUSH1 0x0 MSTORE PUSH1 0x20 PUSH1 0x0 KECCAK256 ADD PUSH1 0x0 SWAP1 SLOAD SWAP1 PUSH2 0x100 EXP SWAP1 DIV PUSH20 0xFFFFFFFFFFFFFFFFFFFFFFFFFFFFFFFFFFFFFFFF AND PUSH2 0x10AB JUMP JUMPDEST LT ISZERO PUSH2 0x33B4 JUMPI DUP3 DUP2 DUP2 MLOAD DUP2 LT PUSH2 0x3352 JUMPI PUSH2 0x3351 PUSH2 0x4BDD JUMP JUMPDEST JUMPDEST PUSH1 0x20 MUL PUSH1 0x20 ADD ADD MLOAD DUP4 DUP4 DUP2 MLOAD DUP2 LT PUSH2 0x336D JUMPI PUSH2 0x336C PUSH2 0x4BDD JUMP JUMPDEST JUMPDEST PUSH1 0x20 MUL PUSH1 0x20 ADD ADD MLOAD DUP5 DUP5 DUP2 MLOAD DUP2 LT PUSH2 0x3388 JUMPI PUSH2 0x3387 PUSH2 0x4BDD JUMP JUMPDEST JUMPDEST PUSH1 0x20 MUL PUSH1 0x20 ADD ADD DUP6 DUP5 DUP2 MLOAD DUP2 LT PUSH2 0x33A2 JUMPI PUSH2 0x33A1 PUSH2 0x4BDD JUMP JUMPDEST JUMPDEST PUSH1 0x20 MUL PUSH1 0x20 ADD ADD DUP3 DUP2 MSTORE POP DUP3 DUP2 MSTORE POP POP POP JUMPDEST DUP1 DUP1 PUSH2 0x33BF SWAP1 PUSH2 0x4C3B JUMP JUMPDEST SWAP2 POP POP PUSH2 0x326A JUMP JUMPDEST POP DUP1 DUP1 PUSH2 0x33D3 SWAP1 PUSH2 0x4C3B JUMP JUMPDEST SWAP2 POP POP PUSH2 0x323F JUMP JUMPDEST POP PUSH1 0x0 PUSH1 0x13 DUP1 SLOAD SWAP1 POP PUSH8 0xFFFFFFFFFFFFFFFF DUP2 GT ISZERO PUSH2 0x33FD JUMPI PUSH2 0x33FC PUSH2 0x44F3 JUMP JUMPDEST JUMPDEST PUSH1 0x40 MLOAD SWAP1 DUP1 DUP3 MSTORE DUP1 PUSH1 0x20 MUL PUSH1 0x20 ADD DUP3 ADD PUSH1 0x40 MSTORE DUP1 ISZERO PUSH2 0x342B JUMPI DUP2 PUSH1 0x20 ADD PUSH1 0x20 DUP3 MUL DUP1 CALLDATASIZE DUP4 CALLDATACOPY DUP1 DUP3 ADD SWAP2 POP POP SWAP1 POP JUMPDEST POP SWAP1 POP PUSH1 0x0 JUMPDEST PUSH1 0x13 DUP1 SLOAD SWAP1 POP DUP2 LT ISZERO PUSH2 0x34F7 JUMPI PUSH1 0x13 DUP4 DUP3 DUP2 MLOAD DUP2 LT PUSH2 0x3453 JUMPI PUSH2 0x3452 PUSH2 0x4BDD JUMP JUMPDEST JUMPDEST PUSH1 0x20 MUL PUSH1 0x20 ADD ADD MLOAD DUP2 SLOAD DUP2 LT PUSH2 0x346C JUMPI PUSH2 0x346B PUSH2 0x4BDD JUMP JUMPDEST JUMPDEST SWAP1 PUSH1 0x0 MSTORE PUSH1 0x20 PUSH1 0x0 KECCAK256 ADD PUSH1 0x0 SWAP1 SLOAD SWAP1 PUSH2 0x100 EXP SWAP1 DIV PUSH20 0xFFFFFFFFFFFFFFFFFFFFFFFFFFFFFFFFFFFFFFFF AND DUP3 DUP3 DUP2 MLOAD DUP2 LT PUSH2 0x34AA JUMPI PUSH2 0x34A9 PUSH2 0x4BDD JUMP JUMPDEST JUMPDEST PUSH1 0x20 MUL PUSH1 0x20 ADD ADD SWAP1 PUSH20 0xFFFFFFFFFFFFFFFFFFFFFFFFFFFFFFFFFFFFFFFF AND SWAP1 DUP2 PUSH20 0xFFFFFFFFFFFFFFFFFFFFFFFFFFFFFFFFFFFFFFFF AND DUP2 MSTORE POP POP DUP1 DUP1 PUSH2 0x34EF SWAP1 PUSH2 0x4C3B JUMP JUMPDEST SWAP2 POP POP PUSH2 0x3431 JUMP JUMPDEST POP DUP1 SWAP3 POP POP POP SWAP1 JUMP JUMPDEST PUSH2 0x350B DUP5 DUP5 DUP5 PUSH2 0x2C3C JUMP JUMPDEST PUSH2 0x3517 DUP5 DUP5 DUP5 DUP5 PUSH2 0x39A0 JUMP JUMPDEST PUSH2 0x3556 JUMPI PUSH1 0x40 MLOAD PUSH32 0x8C379A000000000000000000000000000000000000000000000000000000000 DUP2 MSTORE PUSH1 0x4 ADD PUSH2 0x354D SWAP1 PUSH2 0x5C37 JUMP JUMPDEST PUSH1 0x40 MLOAD DUP1 SWAP2 SUB SWAP1 REVERT JUMPDEST POP POP POP POP JUMP JUMPDEST PUSH1 0x60 PUSH1 0x40 MLOAD DUP1 PUSH1 0x20 ADD PUSH1 0x40 MSTORE DUP1 PUSH1 0x0 DUP2 MSTORE POP SWAP1 POP SWAP1 JUMP JUMPDEST PUSH1 0x60 PUSH2 0x357E DUP3 PUSH2 0x2200 JUMP JUMPDEST PUSH1 0x0 PUSH2 0x3588 PUSH2 0x355C JUMP JUMPDEST SWAP1 POP PUSH1 0x0 DUP2 MLOAD GT PUSH2 0x35A8 JUMPI PUSH1 0x40 MLOAD DUP1 PUSH1 0x20 ADD PUSH1 0x40 MSTORE DUP1 PUSH1 0x0 DUP2 MSTORE POP PUSH2 0x35D3 JUMP JUMPDEST DUP1 PUSH2 0x35B2 DUP5 PUSH2 0x3B27 JUMP JUMPDEST PUSH1 0x40 MLOAD PUSH1 0x20 ADD PUSH2 0x35C3 SWAP3 SWAP2 SWAP1 PUSH2 0x5653 JUMP JUMPDEST PUSH1 0x40 MLOAD PUSH1 0x20 DUP2 DUP4 SUB SUB DUP2 MSTORE SWAP1 PUSH1 0x40 MSTORE JUMPDEST SWAP2 POP POP SWAP2 SWAP1 POP JUMP JUMPDEST PUSH1 0x0 PUSH32 0x80AC58CD00000000000000000000000000000000000000000000000000000000 PUSH28 0xFFFFFFFFFFFFFFFFFFFFFFFFFFFFFFFFFFFFFFFFFFFFFFFFFFFFFFFF NOT AND DUP3 PUSH28 0xFFFFFFFFFFFFFFFFFFFFFFFFFFFFFFFFFFFFFFFFFFFFFFFFFFFFFFFF NOT AND EQ DUP1 PUSH2 0x36A6 JUMPI POP PUSH32 0x5B5E139F00000000000000000000000000000000000000000000000000000000 PUSH28 0xFFFFFFFFFFFFFFFFFFFFFFFFFFFFFFFFFFFFFFFFFFFFFFFFFFFFFFFF NOT AND DUP3 PUSH28 0xFFFFFFFFFFFFFFFFFFFFFFFFFFFFFFFFFFFFFFFFFFFFFFFFFFFFFFFF NOT AND EQ JUMPDEST DUP1 PUSH2 0x36B6 JUMPI POP PUSH2 0x36B5 DUP3 PUSH2 0x3BF5 JUMP JUMPDEST JUMPDEST SWAP1 POP SWAP2 SWAP1 POP JUMP JUMPDEST PUSH1 0x1 DUP2 PUSH1 0x0 ADD PUSH1 0x0 DUP3 DUP3 SLOAD ADD SWAP3 POP POP DUP2 SWAP1 SSTORE POP POP JUMP JUMPDEST PUSH1 0x0 PUSH20 0xFFFFFFFFFFFFFFFFFFFFFFFFFFFFFFFFFFFFFFFF AND DUP3 PUSH20 0xFFFFFFFFFFFFFFFFFFFFFFFFFFFFFFFFFFFFFFFF AND SUB PUSH2 0x3742 JUMPI PUSH1 0x40 MLOAD PUSH32 0x8C379A000000000000000000000000000000000000000000000000000000000 DUP2 MSTORE PUSH1 0x4 ADD PUSH2 0x3739 SWAP1 PUSH2 0x5CA3 JUMP JUMPDEST PUSH1 0x40 MLOAD DUP1 SWAP2 SUB SWAP1 REVERT JUMPDEST PUSH2 0x374B DUP2 PUSH2 0x2B66 JUMP JUMPDEST ISZERO PUSH2 0x378B JUMPI PUSH1 0x40 MLOAD PUSH32 0x8C379A000000000000000000000000000000000000000000000000000000000 DUP2 MSTORE PUSH1 0x4 ADD PUSH2 0x3782 SWAP1 PUSH2 0x5D0F JUMP JUMPDEST PUSH1 0x40 MLOAD DUP1 SWAP2 SUB SWAP1 REVERT JUMPDEST PUSH2 0x3799 PUSH1 0x0 DUP4 DUP4 PUSH1 0x1 PUSH2 0x3994 JUMP JUMPDEST PUSH2 0x37A2 DUP2 PUSH2 0x2B66 JUMP JUMPDEST ISZERO PUSH2 0x37E2 JUMPI PUSH1 0x40 MLOAD PUSH32 0x8C379A000000000000000000000000000000000000000000000000000000000 DUP2 MSTORE PUSH1 0x4 ADD PUSH2 0x37D9 SWAP1 PUSH2 0x5D0F JUMP JUMPDEST PUSH1 0x40 MLOAD DUP1 SWAP2 SUB SWAP1 REVERT JUMPDEST PUSH1 0x1 PUSH1 0x3 PUSH1 0x0 DUP5 PUSH20 0xFFFFFFFFFFFFFFFFFFFFFFFFFFFFFFFFFFFFFFFF AND PUSH20 0xFFFFFFFFFFFFFFFFFFFFFFFFFFFFFFFFFFFFFFFF AND DUP2 MSTORE PUSH1 0x20 ADD SWAP1 DUP2 MSTORE PUSH1 0x20 ADD PUSH1 0x0 KECCAK256 PUSH1 0x0 DUP3 DUP3 SLOAD ADD SWAP3 POP POP DUP2 SWAP1 SSTORE POP DUP2 PUSH1 0x2 PUSH1 0x0 DUP4 DUP2 MSTORE PUSH1 0x20 ADD SWAP1 DUP2 MSTORE PUSH1 0x20 ADD PUSH1 0x0 KECCAK256 PUSH1 0x0 PUSH2 0x100 EXP DUP2 SLOAD DUP2 PUSH20 0xFFFFFFFFFFFFFFFFFFFFFFFFFFFFFFFFFFFFFFFF MUL NOT AND SWAP1 DUP4 PUSH20 0xFFFFFFFFFFFFFFFFFFFFFFFFFFFFFFFFFFFFFFFF AND MUL OR SWAP1 SSTORE POP DUP1 DUP3 PUSH20 0xFFFFFFFFFFFFFFFFFFFFFFFFFFFFFFFFFFFFFFFF AND PUSH1 0x0 PUSH20 0xFFFFFFFFFFFFFFFFFFFFFFFFFFFFFFFFFFFFFFFF AND PUSH32 0xDDF252AD1BE2C89B69C2B068FC378DAA952BA7F163C4A11628F55A4DF523B3EF PUSH1 0x40 MLOAD PUSH1 0x40 MLOAD DUP1 SWAP2 SUB SWAP1 LOG4 PUSH2 0x38EC PUSH1 0x0 DUP4 DUP4 PUSH1 0x1 PUSH2 0x399A JUMP JUMPDEST POP POP JUMP JUMPDEST PUSH2 0x38F9 DUP3 PUSH2 0x2B66 JUMP JUMPDEST PUSH2 0x3938 JUMPI PUSH1 0x40 MLOAD PUSH32 0x8C379A000000000000000000000000000000000000000000000000000000000 DUP2 MSTORE PUSH1 0x4 ADD PUSH2 0x392F SWAP1 PUSH2 0x5DA1 JUMP JUMPDEST PUSH1 0x40 MLOAD DUP1 SWAP2 SUB SWAP1 REVERT JUMPDEST DUP1 PUSH1 0x6 PUSH1 0x0 DUP5 DUP2 MSTORE PUSH1 0x20 ADD SWAP1 DUP2 MSTORE PUSH1 0x20 ADD PUSH1 0x0 KECCAK256 SWAP1 DUP2 PUSH2 0x3958 SWAP2 SWAP1 PUSH2 0x5545 JUMP JUMPDEST POP PUSH32 0xF8E1A15ABA9398E019F0B49DF1A4FDE98EE17AE345CB5F6B5E2C27F5033E8CE7 DUP3 PUSH1 0x40 MLOAD PUSH2 0x3988 SWAP2 SWAP1 PUSH2 0x4207 JUMP JUMPDEST PUSH1 0x40 MLOAD DUP1 SWAP2 SUB SWAP1 LOG1 POP POP JUMP JUMPDEST POP POP POP POP JUMP JUMPDEST POP POP POP POP JUMP JUMPDEST PUSH1 0x0 PUSH2 0x39C1 DUP5 PUSH20 0xFFFFFFFFFFFFFFFFFFFFFFFFFFFFFFFFFFFFFFFF AND PUSH2 0x3C5F JUMP JUMPDEST ISZERO PUSH2 0x3B1A JUMPI DUP4 PUSH20 0xFFFFFFFFFFFFFFFFFFFFFFFFFFFFFFFFFFFFFFFF AND PUSH4 0x150B7A02 PUSH2 0x39EA PUSH2 0x224B JUMP JUMPDEST DUP8 DUP7 DUP7 PUSH1 0x40 MLOAD DUP6 PUSH4 0xFFFFFFFF AND PUSH1 0xE0 SHL DUP2 MSTORE PUSH1 0x4 ADD PUSH2 0x3A0C SWAP5 SWAP4 SWAP3 SWAP2 SWAP1 PUSH2 0x5E16 JUMP JUMPDEST PUSH1 0x20 PUSH1 0x40 MLOAD DUP1 DUP4 SUB DUP2 PUSH1 0x0 DUP8 GAS CALL SWAP3 POP POP POP DUP1 ISZERO PUSH2 0x3A48 JUMPI POP PUSH1 0x40 MLOAD RETURNDATASIZE PUSH1 0x1F NOT PUSH1 0x1F DUP3 ADD AND DUP3 ADD DUP1 PUSH1 0x40 MSTORE POP DUP2 ADD SWAP1 PUSH2 0x3A45 SWAP2 SWAP1 PUSH2 0x5E77 JUMP JUMPDEST PUSH1 0x1 JUMPDEST PUSH2 0x3ACA JUMPI RETURNDATASIZE DUP1 PUSH1 0x0 DUP2 EQ PUSH2 0x3A78 JUMPI PUSH1 0x40 MLOAD SWAP2 POP PUSH1 0x1F NOT PUSH1 0x3F RETURNDATASIZE ADD AND DUP3 ADD PUSH1 0x40 MSTORE RETURNDATASIZE DUP3 MSTORE RETURNDATASIZE PUSH1 0x0 PUSH1 0x20 DUP5 ADD RETURNDATACOPY PUSH2 0x3A7D JUMP JUMPDEST PUSH1 0x60 SWAP2 POP JUMPDEST POP PUSH1 0x0 DUP2 MLOAD SUB PUSH2 0x3AC2 JUMPI PUSH1 0x40 MLOAD PUSH32 0x8C379A000000000000000000000000000000000000000000000000000000000 DUP2 MSTORE PUSH1 0x4 ADD PUSH2 0x3AB9 SWAP1 PUSH2 0x5C37 JUMP JUMPDEST PUSH1 0x40 MLOAD DUP1 SWAP2 SUB SWAP1 REVERT JUMPDEST DUP1 MLOAD DUP2 PUSH1 0x20 ADD REVERT JUMPDEST PUSH4 0x150B7A02 PUSH1 0xE0 SHL PUSH28 0xFFFFFFFFFFFFFFFFFFFFFFFFFFFFFFFFFFFFFFFFFFFFFFFFFFFFFFFF NOT AND DUP2 PUSH28 0xFFFFFFFFFFFFFFFFFFFFFFFFFFFFFFFFFFFFFFFFFFFFFFFFFFFFFFFF NOT AND EQ SWAP2 POP POP PUSH2 0x3B1F JUMP JUMPDEST PUSH1 0x1 SWAP1 POP JUMPDEST SWAP5 SWAP4 POP POP POP POP JUMP JUMPDEST PUSH1 0x60 PUSH1 0x0 PUSH1 0x1 PUSH2 0x3B36 DUP5 PUSH2 0x3C82 JUMP JUMPDEST ADD SWAP1 POP PUSH1 0x0 DUP2 PUSH8 0xFFFFFFFFFFFFFFFF DUP2 GT ISZERO PUSH2 0x3B55 JUMPI PUSH2 0x3B54 PUSH2 0x44F3 JUMP JUMPDEST JUMPDEST PUSH1 0x40 MLOAD SWAP1 DUP1 DUP3 MSTORE DUP1 PUSH1 0x1F ADD PUSH1 0x1F NOT AND PUSH1 0x20 ADD DUP3 ADD PUSH1 0x40 MSTORE DUP1 ISZERO PUSH2 0x3B87 JUMPI DUP2 PUSH1 0x20 ADD PUSH1 0x1 DUP3 MUL DUP1 CALLDATASIZE DUP4 CALLDATACOPY DUP1 DUP3 ADD SWAP2 POP POP SWAP1 POP JUMPDEST POP SWAP1 POP PUSH1 0x0 DUP3 PUSH1 0x20 ADD DUP3 ADD SWAP1 POP JUMPDEST PUSH1 0x1 ISZERO PUSH2 0x3BEA JUMPI DUP1 DUP1 PUSH1 0x1 SWAP1 SUB SWAP2 POP POP PUSH32 0x3031323334353637383961626364656600000000000000000000000000000000 PUSH1 0xA DUP7 MOD BYTE DUP2 MSTORE8 PUSH1 0xA DUP6 DUP2 PUSH2 0x3BDE JUMPI PUSH2 0x3BDD PUSH2 0x4FD3 JUMP JUMPDEST JUMPDEST DIV SWAP5 POP PUSH1 0x0 DUP6 SUB PUSH2 0x3B95 JUMPI JUMPDEST DUP2 SWAP4 POP POP POP POP SWAP2 SWAP1 POP JUMP JUMPDEST PUSH1 0x0 PUSH32 0x1FFC9A700000000000000000000000000000000000000000000000000000000 PUSH28 0xFFFFFFFFFFFFFFFFFFFFFFFFFFFFFFFFFFFFFFFFFFFFFFFFFFFFFFFF NOT AND DUP3 PUSH28 0xFFFFFFFFFFFFFFFFFFFFFFFFFFFFFFFFFFFFFFFFFFFFFFFFFFFFFFFF NOT AND EQ SWAP1 POP SWAP2 SWAP1 POP JUMP JUMPDEST PUSH1 0x0 DUP1 DUP3 PUSH20 0xFFFFFFFFFFFFFFFFFFFFFFFFFFFFFFFFFFFFFFFF AND EXTCODESIZE GT SWAP1 POP SWAP2 SWAP1 POP JUMP JUMPDEST PUSH1 0x0 DUP1 PUSH1 0x0 SWAP1 POP PUSH27 0x184F03E93FF9F4DAA797ED6E38ED64BF6A1F010000000000000000 DUP4 LT PUSH2 0x3CE0 JUMPI PUSH27 0x184F03E93FF9F4DAA797ED6E38ED64BF6A1F010000000000000000 DUP4 DUP2 PUSH2 0x3CD6 JUMPI PUSH2 0x3CD5 PUSH2 0x4FD3 JUMP JUMPDEST JUMPDEST DIV SWAP3 POP PUSH1 0x40 DUP2 ADD SWAP1 POP JUMPDEST PUSH14 0x4EE2D6D415B85ACEF8100000000 DUP4 LT PUSH2 0x3D1D JUMPI PUSH14 0x4EE2D6D415B85ACEF8100000000 DUP4 DUP2 PUSH2 0x3D13 JUMPI PUSH2 0x3D12 PUSH2 0x4FD3 JUMP JUMPDEST JUMPDEST DIV SWAP3 POP PUSH1 0x20 DUP2 ADD SWAP1 POP JUMPDEST PUSH7 0x2386F26FC10000 DUP4 LT PUSH2 0x3D4C JUMPI PUSH7 0x2386F26FC10000 DUP4 DUP2 PUSH2 0x3D42 JUMPI PUSH2 0x3D41 PUSH2 0x4FD3 JUMP JUMPDEST JUMPDEST DIV SWAP3 POP PUSH1 0x10 DUP2 ADD SWAP1 POP JUMPDEST PUSH4 0x5F5E100 DUP4 LT PUSH2 0x3D75 JUMPI PUSH4 0x5F5E100 DUP4 DUP2 PUSH2 0x3D6B JUMPI PUSH2 0x3D6A PUSH2 0x4FD3 JUMP JUMPDEST JUMPDEST DIV SWAP3 POP PUSH1 0x8 DUP2 ADD SWAP1 POP JUMPDEST PUSH2 0x2710 DUP4 LT PUSH2 0x3D9A JUMPI PUSH2 0x2710 DUP4 DUP2 PUSH2 0x3D90 JUMPI PUSH2 0x3D8F PUSH2 0x4FD3 JUMP JUMPDEST JUMPDEST DIV SWAP3 POP PUSH1 0x4 DUP2 ADD SWAP1 POP JUMPDEST PUSH1 0x64 DUP4 LT PUSH2 0x3DBD JUMPI PUSH1 0x64 DUP4 DUP2 PUSH2 0x3DB3 JUMPI PUSH2 0x3DB2 PUSH2 0x4FD3 JUMP JUMPDEST JUMPDEST DIV SWAP3 POP PUSH1 0x2 DUP2 ADD SWAP1 POP JUMPDEST PUSH1 0xA DUP4 LT PUSH2 0x3DCC JUMPI PUSH1 0x1 DUP2 ADD SWAP1 POP JUMPDEST DUP1 SWAP2 POP POP SWAP2 SWAP1 POP JUMP JUMPDEST DUP3 DUP1 SLOAD DUP3 DUP3 SSTORE SWAP1 PUSH1 0x0 MSTORE PUSH1 0x20 PUSH1 0x0 KECCAK256 SWAP1 DUP2 ADD SWAP3 DUP3 ISZERO PUSH2 0x3E11 JUMPI SWAP2 PUSH1 0x20 MUL DUP3 ADD JUMPDEST DUP3 DUP2 GT ISZERO PUSH2 0x3E10 JUMPI DUP3 MLOAD DUP3 SSTORE SWAP2 PUSH1 0x20 ADD SWAP2 SWAP1 PUSH1 0x1 ADD SWAP1 PUSH2 0x3DF5 JUMP JUMPDEST JUMPDEST POP SWAP1 POP PUSH2 0x3E1E SWAP2 SWAP1 PUSH2 0x3E22 JUMP JUMPDEST POP SWAP1 JUMP JUMPDEST JUMPDEST DUP1 DUP3 GT ISZERO PUSH2 0x3E3B JUMPI PUSH1 0x0 DUP2 PUSH1 0x0 SWAP1 SSTORE POP PUSH1 0x1 ADD PUSH2 0x3E23 JUMP JUMPDEST POP SWAP1 JUMP JUMPDEST PUSH1 0x0 PUSH1 0x40 MLOAD SWAP1 POP SWAP1 JUMP JUMPDEST PUSH1 0x0 DUP1 REVERT JUMPDEST PUSH1 0x0 DUP1 REVERT JUMPDEST PUSH1 0x0 PUSH32 0xFFFFFFFF00000000000000000000000000000000000000000000000000000000 DUP3 AND SWAP1 POP SWAP2 SWAP1 POP JUMP JUMPDEST PUSH2 0x3E88 DUP2 PUSH2 0x3E53 JUMP JUMPDEST DUP2 EQ PUSH2 0x3E93 JUMPI PUSH1 0x0 DUP1 REVERT JUMPDEST POP JUMP JUMPDEST PUSH1 0x0 DUP2 CALLDATALOAD SWAP1 POP PUSH2 0x3EA5 DUP2 PUSH2 0x3E7F JUMP JUMPDEST SWAP3 SWAP2 POP POP JUMP JUMPDEST PUSH1 0x0 PUSH1 0x20 DUP3 DUP5 SUB SLT ISZERO PUSH2 0x3EC1 JUMPI PUSH2 0x3EC0 PUSH2 0x3E49 JUMP JUMPDEST JUMPDEST PUSH1 0x0 PUSH2 0x3ECF DUP5 DUP3 DUP6 ADD PUSH2 0x3E96 JUMP JUMPDEST SWAP2 POP POP SWAP3 SWAP2 POP POP JUMP JUMPDEST PUSH1 0x0 DUP2 ISZERO ISZERO SWAP1 POP SWAP2 SWAP1 POP JUMP JUMPDEST PUSH2 0x3EED DUP2 PUSH2 0x3ED8 JUMP JUMPDEST DUP3 MSTORE POP POP JUMP JUMPDEST PUSH1 0x0 PUSH1 0x20 DUP3 ADD SWAP1 POP PUSH2 0x3F08 PUSH1 0x0 DUP4 ADD DUP5 PUSH2 0x3EE4 JUMP JUMPDEST SWAP3 SWAP2 POP POP JUMP JUMPDEST PUSH1 0x0 PUSH20 0xFFFFFFFFFFFFFFFFFFFFFFFFFFFFFFFFFFFFFFFF DUP3 AND SWAP1 POP SWAP2 SWAP1 POP JUMP JUMPDEST PUSH1 0x0 PUSH2 0x3F39 DUP3 PUSH2 0x3F0E JUMP JUMPDEST SWAP1 POP SWAP2 SWAP1 POP JUMP JUMPDEST PUSH2 0x3F49 DUP2 PUSH2 0x3F2E JUMP JUMPDEST DUP2 EQ PUSH2 0x3F54 JUMPI PUSH1 0x0 DUP1 REVERT JUMPDEST POP JUMP JUMPDEST PUSH1 0x0 DUP2 CALLDATALOAD SWAP1 POP PUSH2 0x3F66 DUP2 PUSH2 0x3F40 JUMP JUMPDEST SWAP3 SWAP2 POP POP JUMP JUMPDEST PUSH1 0x0 PUSH1 0x20 DUP3 DUP5 SUB SLT ISZERO PUSH2 0x3F82 JUMPI PUSH2 0x3F81 PUSH2 0x3E49 JUMP JUMPDEST JUMPDEST PUSH1 0x0 PUSH2 0x3F90 DUP5 DUP3 DUP6 ADD PUSH2 0x3F57 JUMP JUMPDEST SWAP2 POP POP SWAP3 SWAP2 POP POP JUMP JUMPDEST PUSH1 0x0 DUP2 MLOAD SWAP1 POP SWAP2 SWAP1 POP JUMP JUMPDEST PUSH1 0x0 DUP3 DUP3 MSTORE PUSH1 0x20 DUP3 ADD SWAP1 POP SWAP3 SWAP2 POP POP JUMP JUMPDEST PUSH1 0x0 JUMPDEST DUP4 DUP2 LT ISZERO PUSH2 0x3FD3 JUMPI DUP1 DUP3 ADD MLOAD DUP2 DUP5 ADD MSTORE PUSH1 0x20 DUP2 ADD SWAP1 POP PUSH2 0x3FB8 JUMP JUMPDEST PUSH1 0x0 DUP5 DUP5 ADD MSTORE POP POP POP POP JUMP JUMPDEST PUSH1 0x0 PUSH1 0x1F NOT PUSH1 0x1F DUP4 ADD AND SWAP1 POP SWAP2 SWAP1 POP JUMP JUMPDEST PUSH1 0x0 PUSH2 0x3FFB DUP3 PUSH2 0x3F99 JUMP JUMPDEST PUSH2 0x4005 DUP2 DUP6 PUSH2 0x3FA4 JUMP JUMPDEST SWAP4 POP PUSH2 0x4015 DUP2 DUP6 PUSH1 0x20 DUP7 ADD PUSH2 0x3FB5 JUMP JUMPDEST PUSH2 0x401E DUP2 PUSH2 0x3FDF JUMP JUMPDEST DUP5 ADD SWAP2 POP POP SWAP3 SWAP2 POP POP JUMP JUMPDEST PUSH1 0x0 PUSH1 0x20 DUP3 ADD SWAP1 POP DUP2 DUP2 SUB PUSH1 0x0 DUP4 ADD MSTORE PUSH2 0x4043 DUP2 DUP5 PUSH2 0x3FF0 JUMP JUMPDEST SWAP1 POP SWAP3 SWAP2 POP POP JUMP JUMPDEST PUSH1 0x0 DUP2 SWAP1 POP SWAP2 SWAP1 POP JUMP JUMPDEST PUSH2 0x405E DUP2 PUSH2 0x404B JUMP JUMPDEST DUP2 EQ PUSH2 0x4069 JUMPI PUSH1 0x0 DUP1 REVERT JUMPDEST POP JUMP JUMPDEST PUSH1 0x0 DUP2 CALLDATALOAD SWAP1 POP PUSH2 0x407B DUP2 PUSH2 0x4055 JUMP JUMPDEST SWAP3 SWAP2 POP POP JUMP JUMPDEST PUSH1 0x0 PUSH1 0x20 DUP3 DUP5 SUB SLT ISZERO PUSH2 0x4097 JUMPI PUSH2 0x4096 PUSH2 0x3E49 JUMP JUMPDEST JUMPDEST PUSH1 0x0 PUSH2 0x40A5 DUP5 DUP3 DUP6 ADD PUSH2 0x406C JUMP JUMPDEST SWAP2 POP POP SWAP3 SWAP2 POP POP JUMP JUMPDEST PUSH2 0x40B7 DUP2 PUSH2 0x3F2E JUMP JUMPDEST DUP3 MSTORE POP POP JUMP JUMPDEST PUSH1 0x0 PUSH1 0x20 DUP3 ADD SWAP1 POP PUSH2 0x40D2 PUSH1 0x0 DUP4 ADD DUP5 PUSH2 0x40AE JUMP JUMPDEST SWAP3 SWAP2 POP POP JUMP JUMPDEST PUSH1 0x0 DUP1 PUSH1 0x40 DUP4 DUP6 SUB SLT ISZERO PUSH2 0x40EF JUMPI PUSH2 0x40EE PUSH2 0x3E49 JUMP JUMPDEST JUMPDEST PUSH1 0x0 PUSH2 0x40FD DUP6 DUP3 DUP7 ADD PUSH2 0x3F57 JUMP JUMPDEST SWAP3 POP POP PUSH1 0x20 PUSH2 0x410E DUP6 DUP3 DUP7 ADD PUSH2 0x406C JUMP JUMPDEST SWAP2 POP POP SWAP3 POP SWAP3 SWAP1 POP JUMP JUMPDEST PUSH1 0x0 DUP2 MLOAD SWAP1 POP SWAP2 SWAP1 POP JUMP JUMPDEST PUSH1 0x0 DUP3 DUP3 MSTORE PUSH1 0x20 DUP3 ADD SWAP1 POP SWAP3 SWAP2 POP POP JUMP JUMPDEST PUSH1 0x0 DUP2 SWAP1 POP PUSH1 0x20 DUP3 ADD SWAP1 POP SWAP2 SWAP1 POP JUMP JUMPDEST PUSH2 0x414D DUP2 PUSH2 0x404B JUMP JUMPDEST DUP3 MSTORE POP POP JUMP JUMPDEST PUSH1 0x0 PUSH2 0x415F DUP4 DUP4 PUSH2 0x4144 JUMP JUMPDEST PUSH1 0x20 DUP4 ADD SWAP1 POP SWAP3 SWAP2 POP POP JUMP JUMPDEST PUSH1 0x0 PUSH1 0x20 DUP3 ADD SWAP1 POP SWAP2 SWAP1 POP JUMP JUMPDEST PUSH1 0x0 PUSH2 0x4183 DUP3 PUSH2 0x4118 JUMP JUMPDEST PUSH2 0x418D DUP2 DUP6 PUSH2 0x4123 JUMP JUMPDEST SWAP4 POP PUSH2 0x4198 DUP4 PUSH2 0x4134 JUMP JUMPDEST DUP1 PUSH1 0x0 JUMPDEST DUP4 DUP2 LT ISZERO PUSH2 0x41C9 JUMPI DUP2 MLOAD PUSH2 0x41B0 DUP9 DUP3 PUSH2 0x4153 JUMP JUMPDEST SWAP8 POP PUSH2 0x41BB DUP4 PUSH2 0x416B JUMP JUMPDEST SWAP3 POP POP PUSH1 0x1 DUP2 ADD SWAP1 POP PUSH2 0x419C JUMP JUMPDEST POP DUP6 SWAP4 POP POP POP POP SWAP3 SWAP2 POP POP JUMP JUMPDEST PUSH1 0x0 PUSH1 0x20 DUP3 ADD SWAP1 POP DUP2 DUP2 SUB PUSH1 0x0 DUP4 ADD MSTORE PUSH2 0x41F0 DUP2 DUP5 PUSH2 0x4178 JUMP JUMPDEST SWAP1 POP SWAP3 SWAP2 POP POP JUMP JUMPDEST PUSH2 0x4201 DUP2 PUSH2 0x404B JUMP JUMPDEST DUP3 MSTORE POP POP JUMP JUMPDEST PUSH1 0x0 PUSH1 0x20 DUP3 ADD SWAP1 POP PUSH2 0x421C PUSH1 0x0 DUP4 ADD DUP5 PUSH2 0x41F8 JUMP JUMPDEST SWAP3 SWAP2 POP POP JUMP JUMPDEST PUSH1 0x0 DUP1 PUSH1 0x0 PUSH1 0x60 DUP5 DUP7 SUB SLT ISZERO PUSH2 0x423B JUMPI PUSH2 0x423A PUSH2 0x3E49 JUMP JUMPDEST JUMPDEST PUSH1 0x0 PUSH2 0x4249 DUP7 DUP3 DUP8 ADD PUSH2 0x3F57 JUMP JUMPDEST SWAP4 POP POP PUSH1 0x20 PUSH2 0x425A DUP7 DUP3 DUP8 ADD PUSH2 0x3F57 JUMP JUMPDEST SWAP3 POP POP PUSH1 0x40 PUSH2 0x426B DUP7 DUP3 DUP8 ADD PUSH2 0x406C JUMP JUMPDEST SWAP2 POP POP SWAP3 POP SWAP3 POP SWAP3 JUMP JUMPDEST PUSH2 0x427E DUP2 PUSH2 0x3ED8 JUMP JUMPDEST DUP2 EQ PUSH2 0x4289 JUMPI PUSH1 0x0 DUP1 REVERT JUMPDEST POP JUMP JUMPDEST PUSH1 0x0 DUP2 CALLDATALOAD SWAP1 POP PUSH2 0x429B DUP2 PUSH2 0x4275 JUMP JUMPDEST SWAP3 SWAP2 POP POP JUMP JUMPDEST PUSH1 0x0 PUSH1 0x20 DUP3 DUP5 SUB SLT ISZERO PUSH2 0x42B7 JUMPI PUSH2 0x42B6 PUSH2 0x3E49 JUMP JUMPDEST JUMPDEST PUSH1 0x0 PUSH2 0x42C5 DUP5 DUP3 DUP6 ADD PUSH2 0x428C JUMP JUMPDEST SWAP2 POP POP SWAP3 SWAP2 POP POP JUMP JUMPDEST PUSH1 0x0 DUP1 PUSH1 0x40 DUP4 DUP6 SUB SLT ISZERO PUSH2 0x42E5 JUMPI PUSH2 0x42E4 PUSH2 0x3E49 JUMP JUMPDEST JUMPDEST PUSH1 0x0 PUSH2 0x42F3 DUP6 DUP3 DUP7 ADD PUSH2 0x406C JUMP JUMPDEST SWAP3 POP POP PUSH1 0x20 PUSH2 0x4304 DUP6 DUP3 DUP7 ADD PUSH2 0x406C JUMP JUMPDEST SWAP2 POP POP SWAP3 POP SWAP3 SWAP1 POP JUMP JUMPDEST PUSH32 0x4E487B7100000000000000000000000000000000000000000000000000000000 PUSH1 0x0 MSTORE PUSH1 0x21 PUSH1 0x4 MSTORE PUSH1 0x24 PUSH1 0x0 REVERT JUMPDEST PUSH1 0x4 DUP2 LT PUSH2 0x434E JUMPI PUSH2 0x434D PUSH2 0x430E JUMP JUMPDEST JUMPDEST POP JUMP JUMPDEST PUSH1 0x0 DUP2 SWAP1 POP PUSH2 0x435F DUP3 PUSH2 0x433D JUMP JUMPDEST SWAP2 SWAP1 POP JUMP JUMPDEST PUSH1 0x0 PUSH2 0x436F DUP3 PUSH2 0x4351 JUMP JUMPDEST SWAP1 POP SWAP2 SWAP1 POP JUMP JUMPDEST PUSH2 0x437F DUP2 PUSH2 0x4364 JUMP JUMPDEST DUP3 MSTORE POP POP JUMP JUMPDEST PUSH1 0x0 PUSH1 0x20 DUP3 ADD SWAP1 POP PUSH2 0x439A PUSH1 0x0 DUP4 ADD DUP5 PUSH2 0x4376 JUMP JUMPDEST SWAP3 SWAP2 POP POP JUMP JUMPDEST PUSH1 0x0 DUP1 PUSH1 0x40 DUP4 DUP6 SUB SLT ISZERO PUSH2 0x43B7 JUMPI PUSH2 0x43B6 PUSH2 0x3E49 JUMP JUMPDEST JUMPDEST PUSH1 0x0 PUSH2 0x43C5 DUP6 DUP3 DUP7 ADD PUSH2 0x3F57 JUMP JUMPDEST SWAP3 POP POP PUSH1 0x20 PUSH2 0x43D6 DUP6 DUP3 DUP7 ADD PUSH2 0x428C JUMP JUMPDEST SWAP2 POP POP SWAP3 POP SWAP3 SWAP1 POP JUMP JUMPDEST PUSH1 0x0 DUP2 MLOAD SWAP1 POP SWAP2 SWAP1 POP JUMP JUMPDEST PUSH1 0x0 DUP3 DUP3 MSTORE PUSH1 0x20 DUP3 ADD SWAP1 POP SWAP3 SWAP2 POP POP JUMP JUMPDEST PUSH1 0x0 DUP2 SWAP1 POP PUSH1 0x20 DUP3 ADD SWAP1 POP SWAP2 SWAP1 POP JUMP JUMPDEST PUSH2 0x4415 DUP2 PUSH2 0x3F2E JUMP JUMPDEST DUP3 MSTORE POP POP JUMP JUMPDEST PUSH1 0x0 PUSH2 0x4427 DUP4 DUP4 PUSH2 0x440C JUMP JUMPDEST PUSH1 0x20 DUP4 ADD SWAP1 POP SWAP3 SWAP2 POP POP JUMP JUMPDEST PUSH1 0x0 PUSH1 0x20 DUP3 ADD SWAP1 POP SWAP2 SWAP1 POP JUMP JUMPDEST PUSH1 0x0 PUSH2 0x444B DUP3 PUSH2 0x43E0 JUMP JUMPDEST PUSH2 0x4455 DUP2 DUP6 PUSH2 0x43EB JUMP JUMPDEST SWAP4 POP PUSH2 0x4460 DUP4 PUSH2 0x43FC JUMP JUMPDEST DUP1 PUSH1 0x0 JUMPDEST DUP4 DUP2 LT ISZERO PUSH2 0x4491 JUMPI DUP2 MLOAD PUSH2 0x4478 DUP9 DUP3 PUSH2 0x441B JUMP JUMPDEST SWAP8 POP PUSH2 0x4483 DUP4 PUSH2 0x4433 JUMP JUMPDEST SWAP3 POP POP PUSH1 0x1 DUP2 ADD SWAP1 POP PUSH2 0x4464 JUMP JUMPDEST POP DUP6 SWAP4 POP POP POP POP SWAP3 SWAP2 POP POP JUMP JUMPDEST PUSH1 0x0 PUSH1 0x20 DUP3 ADD SWAP1 POP DUP2 DUP2 SUB PUSH1 0x0 DUP4 ADD MSTORE PUSH2 0x44B8 DUP2 DUP5 PUSH2 0x4440 JUMP JUMPDEST SWAP1 POP SWAP3 SWAP2 POP POP JUMP JUMPDEST PUSH1 0x0 PUSH1 0x40 DUP3 ADD SWAP1 POP PUSH2 0x44D5 PUSH1 0x0 DUP4 ADD DUP6 PUSH2 0x41F8 JUMP JUMPDEST PUSH2 0x44E2 PUSH1 0x20 DUP4 ADD DUP5 PUSH2 0x4376 JUMP JUMPDEST SWAP4 SWAP3 POP POP POP JUMP JUMPDEST PUSH1 0x0 DUP1 REVERT JUMPDEST PUSH1 0x0 DUP1 REVERT JUMPDEST PUSH32 0x4E487B7100000000000000000000000000000000000000000000000000000000 PUSH1 0x0 MSTORE PUSH1 0x41 PUSH1 0x4 MSTORE PUSH1 0x24 PUSH1 0x0 REVERT JUMPDEST PUSH2 0x452B DUP3 PUSH2 0x3FDF JUMP JUMPDEST DUP2 ADD DUP2 DUP2 LT PUSH8 0xFFFFFFFFFFFFFFFF DUP3 GT OR ISZERO PUSH2 0x454A JUMPI PUSH2 0x4549 PUSH2 0x44F3 JUMP JUMPDEST JUMPDEST DUP1 PUSH1 0x40 MSTORE POP POP POP JUMP JUMPDEST PUSH1 0x0 PUSH2 0x455D PUSH2 0x3E3F JUMP JUMPDEST SWAP1 POP PUSH2 0x4569 DUP3 DUP3 PUSH2 0x4522 JUMP JUMPDEST SWAP2 SWAP1 POP JUMP JUMPDEST PUSH1 0x0 PUSH8 0xFFFFFFFFFFFFFFFF DUP3 GT ISZERO PUSH2 0x4589 JUMPI PUSH2 0x4588 PUSH2 0x44F3 JUMP JUMPDEST JUMPDEST PUSH2 0x4592 DUP3 PUSH2 0x3FDF JUMP JUMPDEST SWAP1 POP PUSH1 0x20 DUP2 ADD SWAP1 POP SWAP2 SWAP1 POP JUMP JUMPDEST DUP3 DUP2 DUP4 CALLDATACOPY PUSH1 0x0 DUP4 DUP4 ADD MSTORE POP POP POP JUMP JUMPDEST PUSH1 0x0 PUSH2 0x45C1 PUSH2 0x45BC DUP5 PUSH2 0x456E JUMP JUMPDEST PUSH2 0x4553 JUMP JUMPDEST SWAP1 POP DUP3 DUP2 MSTORE PUSH1 0x20 DUP2 ADD DUP5 DUP5 DUP5 ADD GT ISZERO PUSH2 0x45DD JUMPI PUSH2 0x45DC PUSH2 0x44EE JUMP JUMPDEST JUMPDEST PUSH2 0x45E8 DUP5 DUP3 DUP6 PUSH2 0x459F JUMP JUMPDEST POP SWAP4 SWAP3 POP POP POP JUMP JUMPDEST PUSH1 0x0 DUP3 PUSH1 0x1F DUP4 ADD SLT PUSH2 0x4605 JUMPI PUSH2 0x4604 PUSH2 0x44E9 JUMP JUMPDEST JUMPDEST DUP2 CALLDATALOAD PUSH2 0x4615 DUP5 DUP3 PUSH1 0x20 DUP7 ADD PUSH2 0x45AE JUMP JUMPDEST SWAP2 POP POP SWAP3 SWAP2 POP POP JUMP JUMPDEST PUSH1 0x0 DUP1 PUSH1 0x40 DUP4 DUP6 SUB SLT ISZERO PUSH2 0x4635 JUMPI PUSH2 0x4634 PUSH2 0x3E49 JUMP JUMPDEST JUMPDEST PUSH1 0x0 DUP4 ADD CALLDATALOAD PUSH8 0xFFFFFFFFFFFFFFFF DUP2 GT ISZERO PUSH2 0x4653 JUMPI PUSH2 0x4652 PUSH2 0x3E4E JUMP JUMPDEST JUMPDEST PUSH2 0x465F DUP6 DUP3 DUP7 ADD PUSH2 0x45F0 JUMP JUMPDEST SWAP3 POP POP PUSH1 0x20 PUSH2 0x4670 DUP6 DUP3 DUP7 ADD PUSH2 0x406C JUMP JUMPDEST SWAP2 POP POP SWAP3 POP SWAP3 SWAP1 POP JUMP JUMPDEST PUSH1 0x0 PUSH8 0xFFFFFFFFFFFFFFFF DUP3 GT ISZERO PUSH2 0x4695 JUMPI PUSH2 0x4694 PUSH2 0x44F3 JUMP JUMPDEST JUMPDEST PUSH2 0x469E DUP3 PUSH2 0x3FDF JUMP JUMPDEST SWAP1 POP PUSH1 0x20 DUP2 ADD SWAP1 POP SWAP2 SWAP1 POP JUMP JUMPDEST PUSH1 0x0 PUSH2 0x46BE PUSH2 0x46B9 DUP5 PUSH2 0x467A JUMP JUMPDEST PUSH2 0x4553 JUMP JUMPDEST SWAP1 POP DUP3 DUP2 MSTORE PUSH1 0x20 DUP2 ADD DUP5 DUP5 DUP5 ADD GT ISZERO PUSH2 0x46DA JUMPI PUSH2 0x46D9 PUSH2 0x44EE JUMP JUMPDEST JUMPDEST PUSH2 0x46E5 DUP5 DUP3 DUP6 PUSH2 0x459F JUMP JUMPDEST POP SWAP4 SWAP3 POP POP POP JUMP JUMPDEST PUSH1 0x0 DUP3 PUSH1 0x1F DUP4 ADD SLT PUSH2 0x4702 JUMPI PUSH2 0x4701 PUSH2 0x44E9 JUMP JUMPDEST JUMPDEST DUP2 CALLDATALOAD PUSH2 0x4712 DUP5 DUP3 PUSH1 0x20 DUP7 ADD PUSH2 0x46AB JUMP JUMPDEST SWAP2 POP POP SWAP3 SWAP2 POP POP JUMP JUMPDEST PUSH1 0x0 DUP1 PUSH1 0x0 DUP1 PUSH1 0x80 DUP6 DUP8 SUB SLT ISZERO PUSH2 0x4735 JUMPI PUSH2 0x4734 PUSH2 0x3E49 JUMP JUMPDEST JUMPDEST PUSH1 0x0 PUSH2 0x4743 DUP8 DUP3 DUP9 ADD PUSH2 0x3F57 JUMP JUMPDEST SWAP5 POP POP PUSH1 0x20 PUSH2 0x4754 DUP8 DUP3 DUP9 ADD PUSH2 0x3F57 JUMP JUMPDEST SWAP4 POP POP PUSH1 0x40 PUSH2 0x4765 DUP8 DUP3 DUP9 ADD PUSH2 0x406C JUMP JUMPDEST SWAP3 POP POP PUSH1 0x60 DUP6 ADD CALLDATALOAD PUSH8 0xFFFFFFFFFFFFFFFF DUP2 GT ISZERO PUSH2 0x4786 JUMPI PUSH2 0x4785 PUSH2 0x3E4E JUMP JUMPDEST JUMPDEST PUSH2 0x4792 DUP8 DUP3 DUP9 ADD PUSH2 0x46ED JUMP JUMPDEST SWAP2 POP POP SWAP3 SWAP6 SWAP2 SWAP5 POP SWAP3 POP JUMP JUMPDEST PUSH1 0x0 PUSH8 0xFFFFFFFFFFFFFFFF DUP3 GT ISZERO PUSH2 0x47B9 JUMPI PUSH2 0x47B8 PUSH2 0x44F3 JUMP JUMPDEST JUMPDEST PUSH1 0x20 DUP3 MUL SWAP1 POP PUSH1 0x20 DUP2 ADD SWAP1 POP SWAP2 SWAP1 POP JUMP JUMPDEST PUSH1 0x0 DUP1 REVERT JUMPDEST PUSH1 0x0 PUSH2 0x47E2 PUSH2 0x47DD DUP5 PUSH2 0x479E JUMP JUMPDEST PUSH2 0x4553 JUMP JUMPDEST SWAP1 POP DUP1 DUP4 DUP3 MSTORE PUSH1 0x20 DUP3 ADD SWAP1 POP PUSH1 0x20 DUP5 MUL DUP4 ADD DUP6 DUP2 GT ISZERO PUSH2 0x4805 JUMPI PUSH2 0x4804 PUSH2 0x47CA JUMP JUMPDEST JUMPDEST DUP4 JUMPDEST DUP2 DUP2 LT ISZERO PUSH2 0x482E JUMPI DUP1 PUSH2 0x481A DUP9 DUP3 PUSH2 0x406C JUMP JUMPDEST DUP5 MSTORE PUSH1 0x20 DUP5 ADD SWAP4 POP POP PUSH1 0x20 DUP2 ADD SWAP1 POP PUSH2 0x4807 JUMP JUMPDEST POP POP POP SWAP4 SWAP3 POP POP POP JUMP JUMPDEST PUSH1 0x0 DUP3 PUSH1 0x1F DUP4 ADD SLT PUSH2 0x484D JUMPI PUSH2 0x484C PUSH2 0x44E9 JUMP JUMPDEST JUMPDEST DUP2 CALLDATALOAD PUSH2 0x485D DUP5 DUP3 PUSH1 0x20 DUP7 ADD PUSH2 0x47CF JUMP JUMPDEST SWAP2 POP POP SWAP3 SWAP2 POP POP JUMP JUMPDEST PUSH1 0x0 PUSH1 0x20 DUP3 DUP5 SUB SLT ISZERO PUSH2 0x487C JUMPI PUSH2 0x487B PUSH2 0x3E49 JUMP JUMPDEST JUMPDEST PUSH1 0x0 DUP3 ADD CALLDATALOAD PUSH8 0xFFFFFFFFFFFFFFFF DUP2 GT ISZERO PUSH2 0x489A JUMPI PUSH2 0x4899 PUSH2 0x3E4E JUMP JUMPDEST JUMPDEST PUSH2 0x48A6 DUP5 DUP3 DUP6 ADD PUSH2 0x4838 JUMP JUMPDEST SWAP2 POP POP SWAP3 SWAP2 POP POP JUMP JUMPDEST PUSH1 0x0 DUP1 PUSH1 0x40 DUP4 DUP6 SUB SLT ISZERO PUSH2 0x48C6 JUMPI PUSH2 0x48C5 PUSH2 0x3E49 JUMP JUMPDEST JUMPDEST PUSH1 0x0 PUSH2 0x48D4 DUP6 DUP3 DUP7 ADD PUSH2 0x3F57 JUMP JUMPDEST SWAP3 POP POP PUSH1 0x20 PUSH2 0x48E5 DUP6 DUP3 DUP7 ADD PUSH2 0x3F57 JUMP JUMPDEST SWAP2 POP POP SWAP3 POP SWAP3 SWAP1 POP JUMP JUMPDEST PUSH32 0x4E487B7100000000000000000000000000000000000000000000000000000000 PUSH1 0x0 MSTORE PUSH1 0x22 PUSH1 0x4 MSTORE PUSH1 0x24 PUSH1 0x0 REVERT JUMPDEST PUSH1 0x0 PUSH1 0x2 DUP3 DIV SWAP1 POP PUSH1 0x1 DUP3 AND DUP1 PUSH2 0x4936 JUMPI PUSH1 0x7F DUP3 AND SWAP2 POP JUMPDEST PUSH1 0x20 DUP3 LT DUP2 SUB PUSH2 0x4949 JUMPI PUSH2 0x4948 PUSH2 0x48EF JUMP JUMPDEST JUMPDEST POP SWAP2 SWAP1 POP JUMP JUMPDEST PUSH32 0x4552433732313A20617070726F76616C20746F2063757272656E74206F776E65 PUSH1 0x0 DUP3 ADD MSTORE PUSH32 0x7200000000000000000000000000000000000000000000000000000000000000 PUSH1 0x20 DUP3 ADD MSTORE POP JUMP JUMPDEST PUSH1 0x0 PUSH2 0x49AB PUSH1 0x21 DUP4 PUSH2 0x3FA4 JUMP JUMPDEST SWAP2 POP PUSH2 0x49B6 DUP3 PUSH2 0x494F JUMP JUMPDEST PUSH1 0x40 DUP3 ADD SWAP1 POP SWAP2 SWAP1 POP JUMP JUMPDEST PUSH1 0x0 PUSH1 0x20 DUP3 ADD SWAP1 POP DUP2 DUP2 SUB PUSH1 0x0 DUP4 ADD MSTORE PUSH2 0x49DA DUP2 PUSH2 0x499E JUMP JUMPDEST SWAP1 POP SWAP2 SWAP1 POP JUMP JUMPDEST PUSH32 0x4552433732313A20617070726F76652063616C6C6572206973206E6F7420746F PUSH1 0x0 DUP3 ADD MSTORE PUSH32 0x6B656E206F776E6572206F7220617070726F76656420666F7220616C6C000000 PUSH1 0x20 DUP3 ADD MSTORE POP JUMP JUMPDEST PUSH1 0x0 PUSH2 0x4A3D PUSH1 0x3D DUP4 PUSH2 0x3FA4 JUMP JUMPDEST SWAP2 POP PUSH2 0x4A48 DUP3 PUSH2 0x49E1 JUMP JUMPDEST PUSH1 0x40 DUP3 ADD SWAP1 POP SWAP2 SWAP1 POP JUMP JUMPDEST PUSH1 0x0 PUSH1 0x20 DUP3 ADD SWAP1 POP DUP2 DUP2 SUB PUSH1 0x0 DUP4 ADD MSTORE PUSH2 0x4A6C DUP2 PUSH2 0x4A30 JUMP JUMPDEST SWAP1 POP SWAP2 SWAP1 POP JUMP JUMPDEST PUSH32 0x596F7520617265206E6F7420616C6C6F77656420746F206D696E740000000000 PUSH1 0x0 DUP3 ADD MSTORE POP JUMP JUMPDEST PUSH1 0x0 PUSH2 0x4AA9 PUSH1 0x1B DUP4 PUSH2 0x3FA4 JUMP JUMPDEST SWAP2 POP PUSH2 0x4AB4 DUP3 PUSH2 0x4A73 JUMP JUMPDEST PUSH1 0x20 DUP3 ADD SWAP1 POP SWAP2 SWAP1 POP JUMP JUMPDEST PUSH1 0x0 PUSH1 0x20 DUP3 ADD SWAP1 POP DUP2 DUP2 SUB PUSH1 0x0 DUP4 ADD MSTORE PUSH2 0x4AD8 DUP2 PUSH2 0x4A9C JUMP JUMPDEST SWAP1 POP SWAP2 SWAP1 POP JUMP JUMPDEST PUSH32 0x596F752068617665207265616368656420746865206C696D6974206F66206D69 PUSH1 0x0 DUP3 ADD MSTORE PUSH32 0x6E74696E67000000000000000000000000000000000000000000000000000000 PUSH1 0x20 DUP3 ADD MSTORE POP JUMP JUMPDEST PUSH1 0x0 PUSH2 0x4B3B PUSH1 0x25 DUP4 PUSH2 0x3FA4 JUMP JUMPDEST SWAP2 POP PUSH2 0x4B46 DUP3 PUSH2 0x4ADF JUMP JUMPDEST PUSH1 0x40 DUP3 ADD SWAP1 POP SWAP2 SWAP1 POP JUMP JUMPDEST PUSH1 0x0 PUSH1 0x20 DUP3 ADD SWAP1 POP DUP2 DUP2 SUB PUSH1 0x0 DUP4 ADD MSTORE PUSH2 0x4B6A DUP2 PUSH2 0x4B2E JUMP JUMPDEST SWAP1 POP SWAP2 SWAP1 POP JUMP JUMPDEST PUSH32 0x496E73756666696369656E742065746865722073656E74000000000000000000 PUSH1 0x0 DUP3 ADD MSTORE POP JUMP JUMPDEST PUSH1 0x0 PUSH2 0x4BA7 PUSH1 0x17 DUP4 PUSH2 0x3FA4 JUMP JUMPDEST SWAP2 POP PUSH2 0x4BB2 DUP3 PUSH2 0x4B71 JUMP JUMPDEST PUSH1 0x20 DUP3 ADD SWAP1 POP SWAP2 SWAP1 POP JUMP JUMPDEST PUSH1 0x0 PUSH1 0x20 DUP3 ADD SWAP1 POP DUP2 DUP2 SUB PUSH1 0x0 DUP4 ADD MSTORE PUSH2 0x4BD6 DUP2 PUSH2 0x4B9A JUMP JUMPDEST SWAP1 POP SWAP2 SWAP1 POP JUMP JUMPDEST PUSH32 0x4E487B7100000000000000000000000000000000000000000000000000000000 PUSH1 0x0 MSTORE PUSH1 0x32 PUSH1 0x4 MSTORE PUSH1 0x24 PUSH1 0x0 REVERT JUMPDEST PUSH32 0x4E487B7100000000000000000000000000000000000000000000000000000000 PUSH1 0x0 MSTORE PUSH1 0x11 PUSH1 0x4 MSTORE PUSH1 0x24 PUSH1 0x0 REVERT JUMPDEST PUSH1 0x0 PUSH2 0x4C46 DUP3 PUSH2 0x404B JUMP JUMPDEST SWAP2 POP PUSH32 0xFFFFFFFFFFFFFFFFFFFFFFFFFFFFFFFFFFFFFFFFFFFFFFFFFFFFFFFFFFFFFFFF DUP3 SUB PUSH2 0x4C78 JUMPI PUSH2 0x4C77 PUSH2 0x4C0C JUMP JUMPDEST JUMPDEST PUSH1 0x1 DUP3 ADD SWAP1 POP SWAP2 SWAP1 POP JUMP JUMPDEST PUSH32 0x4552433732313A2063616C6C6572206973206E6F7420746F6B656E206F776E65 PUSH1 0x0 DUP3 ADD MSTORE PUSH32 0x72206F7220617070726F76656400000000000000000000000000000000000000 PUSH1 0x20 DUP3 ADD MSTORE POP JUMP JUMPDEST PUSH1 0x0 PUSH2 0x4CDF PUSH1 0x2D DUP4 PUSH2 0x3FA4 JUMP JUMPDEST SWAP2 POP PUSH2 0x4CEA DUP3 PUSH2 0x4C83 JUMP JUMPDEST PUSH1 0x40 DUP3 ADD SWAP1 POP SWAP2 SWAP1 POP JUMP JUMPDEST PUSH1 0x0 PUSH1 0x20 DUP3 ADD SWAP1 POP DUP2 DUP2 SUB PUSH1 0x0 DUP4 ADD MSTORE PUSH2 0x4D0E DUP2 PUSH2 0x4CD2 JUMP JUMPDEST SWAP1 POP SWAP2 SWAP1 POP JUMP JUMPDEST PUSH32 0x596F752063616E206E6F7420776974686472617720617420746869732074696D PUSH1 0x0 DUP3 ADD MSTORE PUSH32 0x6500000000000000000000000000000000000000000000000000000000000000 PUSH1 0x20 DUP3 ADD MSTORE POP JUMP JUMPDEST PUSH1 0x0 PUSH2 0x4D71 PUSH1 0x21 DUP4 PUSH2 0x3FA4 JUMP JUMPDEST SWAP2 POP PUSH2 0x4D7C DUP3 PUSH2 0x4D15 JUMP JUMPDEST PUSH1 0x40 DUP3 ADD SWAP1 POP SWAP2 SWAP1 POP JUMP JUMPDEST PUSH1 0x0 PUSH1 0x20 DUP3 ADD SWAP1 POP DUP2 DUP2 SUB PUSH1 0x0 DUP4 ADD MSTORE PUSH2 0x4DA0 DUP2 PUSH2 0x4D64 JUMP JUMPDEST SWAP1 POP SWAP2 SWAP1 POP JUMP JUMPDEST PUSH1 0x0 PUSH2 0x4DB2 DUP3 PUSH2 0x404B JUMP JUMPDEST SWAP2 POP PUSH2 0x4DBD DUP4 PUSH2 0x404B JUMP JUMPDEST SWAP3 POP DUP3 DUP3 ADD SWAP1 POP DUP1 DUP3 GT ISZERO PUSH2 0x4DD5 JUMPI PUSH2 0x4DD4 PUSH2 0x4C0C JUMP JUMPDEST JUMPDEST SWAP3 SWAP2 POP POP JUMP JUMPDEST PUSH32 0x4E756D626572206F662077696E6E657273206D75737420626520677265617465 PUSH1 0x0 DUP3 ADD MSTORE PUSH32 0x72207468616E207A65726F000000000000000000000000000000000000000000 PUSH1 0x20 DUP3 ADD MSTORE POP JUMP JUMPDEST PUSH1 0x0 PUSH2 0x4E37 PUSH1 0x2B DUP4 PUSH2 0x3FA4 JUMP JUMPDEST SWAP2 POP PUSH2 0x4E42 DUP3 PUSH2 0x4DDB JUMP JUMPDEST PUSH1 0x40 DUP3 ADD SWAP1 POP SWAP2 SWAP1 POP JUMP JUMPDEST PUSH1 0x0 PUSH1 0x20 DUP3 ADD SWAP1 POP DUP2 DUP2 SUB PUSH1 0x0 DUP4 ADD MSTORE PUSH2 0x4E66 DUP2 PUSH2 0x4E2A JUMP JUMPDEST SWAP1 POP SWAP2 SWAP1 POP JUMP JUMPDEST PUSH32 0x4E756D626572206F662077696E6E657273206578636565647320746865206E75 PUSH1 0x0 DUP3 ADD MSTORE PUSH32 0x6D626572206F66206D696E74696E672061646472657373657300000000000000 PUSH1 0x20 DUP3 ADD MSTORE POP JUMP JUMPDEST PUSH1 0x0 PUSH2 0x4EC9 PUSH1 0x39 DUP4 PUSH2 0x3FA4 JUMP JUMPDEST SWAP2 POP PUSH2 0x4ED4 DUP3 PUSH2 0x4E6D JUMP JUMPDEST PUSH1 0x40 DUP3 ADD SWAP1 POP SWAP2 SWAP1 POP JUMP JUMPDEST PUSH1 0x0 PUSH1 0x20 DUP3 ADD SWAP1 POP DUP2 DUP2 SUB PUSH1 0x0 DUP4 ADD MSTORE PUSH2 0x4EF8 DUP2 PUSH2 0x4EBC JUMP JUMPDEST SWAP1 POP SWAP2 SWAP1 POP JUMP JUMPDEST PUSH32 0x5265776172642070657263656E74616765206D75737420626520626574776565 PUSH1 0x0 DUP3 ADD MSTORE PUSH32 0x6E203120616E6420313030000000000000000000000000000000000000000000 PUSH1 0x20 DUP3 ADD MSTORE POP JUMP JUMPDEST PUSH1 0x0 PUSH2 0x4F5B PUSH1 0x2B DUP4 PUSH2 0x3FA4 JUMP JUMPDEST SWAP2 POP PUSH2 0x4F66 DUP3 PUSH2 0x4EFF JUMP JUMPDEST PUSH1 0x40 DUP3 ADD SWAP1 POP SWAP2 SWAP1 POP JUMP JUMPDEST PUSH1 0x0 PUSH1 0x20 DUP3 ADD SWAP1 POP DUP2 DUP2 SUB PUSH1 0x0 DUP4 ADD MSTORE PUSH2 0x4F8A DUP2 PUSH2 0x4F4E JUMP JUMPDEST SWAP1 POP SWAP2 SWAP1 POP JUMP JUMPDEST PUSH1 0x0 PUSH2 0x4F9C DUP3 PUSH2 0x404B JUMP JUMPDEST SWAP2 POP PUSH2 0x4FA7 DUP4 PUSH2 0x404B JUMP JUMPDEST SWAP3 POP DUP3 DUP3 MUL PUSH2 0x4FB5 DUP2 PUSH2 0x404B JUMP JUMPDEST SWAP2 POP DUP3 DUP3 DIV DUP5 EQ DUP4 ISZERO OR PUSH2 0x4FCC JUMPI PUSH2 0x4FCB PUSH2 0x4C0C JUMP JUMPDEST JUMPDEST POP SWAP3 SWAP2 POP POP JUMP JUMPDEST PUSH32 0x4E487B7100000000000000000000000000000000000000000000000000000000 PUSH1 0x0 MSTORE PUSH1 0x12 PUSH1 0x4 MSTORE PUSH1 0x24 PUSH1 0x0 REVERT JUMPDEST PUSH1 0x0 PUSH2 0x500D DUP3 PUSH2 0x404B JUMP JUMPDEST SWAP2 POP PUSH2 0x5018 DUP4 PUSH2 0x404B JUMP JUMPDEST SWAP3 POP DUP3 PUSH2 0x5028 JUMPI PUSH2 0x5027 PUSH2 0x4FD3 JUMP JUMPDEST JUMPDEST DUP3 DUP3 DIV SWAP1 POP SWAP3 SWAP2 POP POP JUMP JUMPDEST PUSH32 0x596F7520617265206E6F7420746865206F776E65720000000000000000000000 PUSH1 0x0 DUP3 ADD MSTORE POP JUMP JUMPDEST PUSH1 0x0 PUSH2 0x5069 PUSH1 0x15 DUP4 PUSH2 0x3FA4 JUMP JUMPDEST SWAP2 POP PUSH2 0x5074 DUP3 PUSH2 0x5033 JUMP JUMPDEST PUSH1 0x20 DUP3 ADD SWAP1 POP SWAP2 SWAP1 POP JUMP JUMPDEST PUSH1 0x0 PUSH1 0x20 DUP3 ADD SWAP1 POP DUP2 DUP2 SUB PUSH1 0x0 DUP4 ADD MSTORE PUSH2 0x5098 DUP2 PUSH2 0x505C JUMP JUMPDEST SWAP1 POP SWAP2 SWAP1 POP JUMP JUMPDEST PUSH32 0x4552433732313A20696E76616C696420746F6B656E2049440000000000000000 PUSH1 0x0 DUP3 ADD MSTORE POP JUMP JUMPDEST PUSH1 0x0 PUSH2 0x50D5 PUSH1 0x18 DUP4 PUSH2 0x3FA4 JUMP JUMPDEST SWAP2 POP PUSH2 0x50E0 DUP3 PUSH2 0x509F JUMP JUMPDEST PUSH1 0x20 DUP3 ADD SWAP1 POP SWAP2 SWAP1 POP JUMP JUMPDEST PUSH1 0x0 PUSH1 0x20 DUP3 ADD SWAP1 POP DUP2 DUP2 SUB PUSH1 0x0 DUP4 ADD MSTORE PUSH2 0x5104 DUP2 PUSH2 0x50C8 JUMP JUMPDEST SWAP1 POP SWAP2 SWAP1 POP JUMP JUMPDEST PUSH32 0x546F6B656E20494420646F6573206E6F74206578697374000000000000000000 PUSH1 0x0 DUP3 ADD MSTORE POP JUMP JUMPDEST PUSH1 0x0 PUSH2 0x5141 PUSH1 0x17 DUP4 PUSH2 0x3FA4 JUMP JUMPDEST SWAP2 POP PUSH2 0x514C DUP3 PUSH2 0x510B JUMP JUMPDEST PUSH1 0x20 DUP3 ADD SWAP1 POP SWAP2 SWAP1 POP JUMP JUMPDEST PUSH1 0x0 PUSH1 0x20 DUP3 ADD SWAP1 POP DUP2 DUP2 SUB PUSH1 0x0 DUP4 ADD MSTORE PUSH2 0x5170 DUP2 PUSH2 0x5134 JUMP JUMPDEST SWAP1 POP SWAP2 SWAP1 POP JUMP JUMPDEST PUSH32 0x4552433732313A2061646472657373207A65726F206973206E6F742061207661 PUSH1 0x0 DUP3 ADD MSTORE PUSH32 0x6C6964206F776E65720000000000000000000000000000000000000000000000 PUSH1 0x20 DUP3 ADD MSTORE POP JUMP JUMPDEST PUSH1 0x0 PUSH2 0x51D3 PUSH1 0x29 DUP4 PUSH2 0x3FA4 JUMP JUMPDEST SWAP2 POP PUSH2 0x51DE DUP3 PUSH2 0x5177 JUMP JUMPDEST PUSH1 0x40 DUP3 ADD SWAP1 POP SWAP2 SWAP1 POP JUMP JUMPDEST PUSH1 0x0 PUSH1 0x20 DUP3 ADD SWAP1 POP DUP2 DUP2 SUB PUSH1 0x0 DUP4 ADD MSTORE PUSH2 0x5202 DUP2 PUSH2 0x51C6 JUMP JUMPDEST SWAP1 POP SWAP2 SWAP1 POP JUMP JUMPDEST PUSH32 0x596F7520617265206E6F7420746865206F776E6572206F662074686973204E46 PUSH1 0x0 DUP3 ADD MSTORE PUSH32 0x5400000000000000000000000000000000000000000000000000000000000000 PUSH1 0x20 DUP3 ADD MSTORE POP JUMP JUMPDEST PUSH1 0x0 PUSH2 0x5265 PUSH1 0x21 DUP4 PUSH2 0x3FA4 JUMP JUMPDEST SWAP2 POP PUSH2 0x5270 DUP3 PUSH2 0x5209 JUMP JUMPDEST PUSH1 0x40 DUP3 ADD SWAP1 POP SWAP2 SWAP1 POP JUMP JUMPDEST PUSH1 0x0 PUSH1 0x20 DUP3 ADD SWAP1 POP DUP2 DUP2 SUB PUSH1 0x0 DUP4 ADD MSTORE PUSH2 0x5294 DUP2 PUSH2 0x5258 JUMP JUMPDEST SWAP1 POP SWAP2 SWAP1 POP JUMP JUMPDEST PUSH32 0x546F70206D7573742062652067726561746572207468616E207A65726F000000 PUSH1 0x0 DUP3 ADD MSTORE POP JUMP JUMPDEST PUSH1 0x0 PUSH2 0x52D1 PUSH1 0x1D DUP4 PUSH2 0x3FA4 JUMP JUMPDEST SWAP2 POP PUSH2 0x52DC DUP3 PUSH2 0x529B JUMP JUMPDEST PUSH1 0x20 DUP3 ADD SWAP1 POP SWAP2 SWAP1 POP JUMP JUMPDEST PUSH1 0x0 PUSH1 0x20 DUP3 ADD SWAP1 POP DUP2 DUP2 SUB PUSH1 0x0 DUP4 ADD MSTORE PUSH2 0x5300 DUP2 PUSH2 0x52C4 JUMP JUMPDEST SWAP1 POP SWAP2 SWAP1 POP JUMP JUMPDEST PUSH32 0x546F70206578636565647320746865206E756D626572206F66206D696E74696E PUSH1 0x0 DUP3 ADD MSTORE PUSH32 0x6720616464726573736573000000000000000000000000000000000000000000 PUSH1 0x20 DUP3 ADD MSTORE POP JUMP JUMPDEST PUSH1 0x0 PUSH2 0x5363 PUSH1 0x2B DUP4 PUSH2 0x3FA4 JUMP JUMPDEST SWAP2 POP PUSH2 0x536E DUP3 PUSH2 0x5307 JUMP JUMPDEST PUSH1 0x40 DUP3 ADD SWAP1 POP SWAP2 SWAP1 POP JUMP JUMPDEST PUSH1 0x0 PUSH1 0x20 DUP3 ADD SWAP1 POP DUP2 DUP2 SUB PUSH1 0x0 DUP4 ADD MSTORE PUSH2 0x5392 DUP2 PUSH2 0x5356 JUMP JUMPDEST SWAP1 POP SWAP2 SWAP1 POP JUMP JUMPDEST PUSH1 0x0 DUP2 SWAP1 POP DUP2 PUSH1 0x0 MSTORE PUSH1 0x20 PUSH1 0x0 KECCAK256 SWAP1 POP SWAP2 SWAP1 POP JUMP JUMPDEST PUSH1 0x0 PUSH1 0x20 PUSH1 0x1F DUP4 ADD DIV SWAP1 POP SWAP2 SWAP1 POP JUMP JUMPDEST PUSH1 0x0 DUP3 DUP3 SHL SWAP1 POP SWAP3 SWAP2 POP POP JUMP JUMPDEST PUSH1 0x0 PUSH1 0x8 DUP4 MUL PUSH2 0x53FB PUSH32 0xFFFFFFFFFFFFFFFFFFFFFFFFFFFFFFFFFFFFFFFFFFFFFFFFFFFFFFFFFFFFFFFF DUP3 PUSH2 0x53BE JUMP JUMPDEST PUSH2 0x5405 DUP7 DUP4 PUSH2 0x53BE JUMP JUMPDEST SWAP6 POP DUP1 NOT DUP5 AND SWAP4 POP DUP1 DUP7 AND DUP5 OR SWAP3 POP POP POP SWAP4 SWAP3 POP POP POP JUMP JUMPDEST PUSH1 0x0 DUP2 SWAP1 POP SWAP2 SWAP1 POP JUMP JUMPDEST PUSH1 0x0 PUSH2 0x5442 PUSH2 0x543D PUSH2 0x5438 DUP5 PUSH2 0x404B JUMP JUMPDEST PUSH2 0x541D JUMP JUMPDEST PUSH2 0x404B JUMP JUMPDEST SWAP1 POP SWAP2 SWAP1 POP JUMP JUMPDEST PUSH1 0x0 DUP2 SWAP1 POP SWAP2 SWAP1 POP JUMP JUMPDEST PUSH2 0x545C DUP4 PUSH2 0x5427 JUMP JUMPDEST PUSH2 0x5470 PUSH2 0x5468 DUP3 PUSH2 0x5449 JUMP JUMPDEST DUP5 DUP5 SLOAD PUSH2 0x53CB JUMP JUMPDEST DUP3 SSTORE POP POP POP POP JUMP JUMPDEST PUSH1 0x0 SWAP1 JUMP JUMPDEST PUSH2 0x5485 PUSH2 0x5478 JUMP JUMPDEST PUSH2 0x5490 DUP2 DUP5 DUP5 PUSH2 0x5453 JUMP JUMPDEST POP POP POP JUMP JUMPDEST JUMPDEST DUP2 DUP2 LT ISZERO PUSH2 0x54B4 JUMPI PUSH2 0x54A9 PUSH1 0x0 DUP3 PUSH2 0x547D JUMP JUMPDEST PUSH1 0x1 DUP2 ADD SWAP1 POP PUSH2 0x5496 JUMP JUMPDEST POP POP JUMP JUMPDEST PUSH1 0x1F DUP3 GT ISZERO PUSH2 0x54F9 JUMPI PUSH2 0x54CA DUP2 PUSH2 0x5399 JUMP JUMPDEST PUSH2 0x54D3 DUP5 PUSH2 0x53AE JUMP JUMPDEST DUP2 ADD PUSH1 0x20 DUP6 LT ISZERO PUSH2 0x54E2 JUMPI DUP2 SWAP1 POP JUMPDEST PUSH2 0x54F6 PUSH2 0x54EE DUP6 PUSH2 0x53AE JUMP JUMPDEST DUP4 ADD DUP3 PUSH2 0x5495 JUMP JUMPDEST POP POP JUMPDEST POP POP POP JUMP JUMPDEST PUSH1 0x0 DUP3 DUP3 SHR SWAP1 POP SWAP3 SWAP2 POP POP JUMP JUMPDEST PUSH1 0x0 PUSH2 0x551C PUSH1 0x0 NOT DUP5 PUSH1 0x8 MUL PUSH2 0x54FE JUMP JUMPDEST NOT DUP1 DUP4 AND SWAP2 POP POP SWAP3 SWAP2 POP POP JUMP JUMPDEST PUSH1 0x0 PUSH2 0x5535 DUP4 DUP4 PUSH2 0x550B JUMP JUMPDEST SWAP2 POP DUP3 PUSH1 0x2 MUL DUP3 OR SWAP1 POP SWAP3 SWAP2 POP POP JUMP JUMPDEST PUSH2 0x554E DUP3 PUSH2 0x3F99 JUMP JUMPDEST PUSH8 0xFFFFFFFFFFFFFFFF DUP2 GT ISZERO PUSH2 0x5567 JUMPI PUSH2 0x5566 PUSH2 0x44F3 JUMP JUMPDEST JUMPDEST PUSH2 0x5571 DUP3 SLOAD PUSH2 0x491E JUMP JUMPDEST PUSH2 0x557C DUP3 DUP3 DUP6 PUSH2 0x54B8 JUMP JUMPDEST PUSH1 0x0 PUSH1 0x20 SWAP1 POP PUSH1 0x1F DUP4 GT PUSH1 0x1 DUP2 EQ PUSH2 0x55AF JUMPI PUSH1 0x0 DUP5 ISZERO PUSH2 0x559D JUMPI DUP3 DUP8 ADD MLOAD SWAP1 POP JUMPDEST PUSH2 0x55A7 DUP6 DUP3 PUSH2 0x5529 JUMP JUMPDEST DUP7 SSTORE POP PUSH2 0x560F JUMP JUMPDEST PUSH1 0x1F NOT DUP5 AND PUSH2 0x55BD DUP7 PUSH2 0x5399 JUMP JUMPDEST PUSH1 0x0 JUMPDEST DUP3 DUP2 LT ISZERO PUSH2 0x55E5 JUMPI DUP5 DUP10 ADD MLOAD DUP3 SSTORE PUSH1 0x1 DUP3 ADD SWAP2 POP PUSH1 0x20 DUP6 ADD SWAP5 POP PUSH1 0x20 DUP2 ADD SWAP1 POP PUSH2 0x55C0 JUMP JUMPDEST DUP7 DUP4 LT ISZERO PUSH2 0x5602 JUMPI DUP5 DUP10 ADD MLOAD PUSH2 0x55FE PUSH1 0x1F DUP10 AND DUP3 PUSH2 0x550B JUMP JUMPDEST DUP4 SSTORE POP JUMPDEST PUSH1 0x1 PUSH1 0x2 DUP9 MUL ADD DUP9 SSTORE POP POP POP JUMPDEST POP POP POP POP POP POP JUMP JUMPDEST PUSH1 0x0 DUP2 SWAP1 POP SWAP3 SWAP2 POP POP JUMP JUMPDEST PUSH1 0x0 PUSH2 0x562D DUP3 PUSH2 0x3F99 JUMP JUMPDEST PUSH2 0x5637 DUP2 DUP6 PUSH2 0x5617 JUMP JUMPDEST SWAP4 POP PUSH2 0x5647 DUP2 DUP6 PUSH1 0x20 DUP7 ADD PUSH2 0x3FB5 JUMP JUMPDEST DUP1 DUP5 ADD SWAP2 POP POP SWAP3 SWAP2 POP POP JUMP JUMPDEST PUSH1 0x0 PUSH2 0x565F DUP3 DUP6 PUSH2 0x5622 JUMP JUMPDEST SWAP2 POP PUSH2 0x566B DUP3 DUP5 PUSH2 0x5622 JUMP JUMPDEST SWAP2 POP DUP2 SWAP1 POP SWAP4 SWAP3 POP POP POP JUMP JUMPDEST PUSH32 0x526172697479206D7573742068617665203420656C656D656E74730000000000 PUSH1 0x0 DUP3 ADD MSTORE POP JUMP JUMPDEST PUSH1 0x0 PUSH2 0x56AD PUSH1 0x1B DUP4 PUSH2 0x3FA4 JUMP JUMPDEST SWAP2 POP PUSH2 0x56B8 DUP3 PUSH2 0x5677 JUMP JUMPDEST PUSH1 0x20 DUP3 ADD SWAP1 POP SWAP2 SWAP1 POP JUMP JUMPDEST PUSH1 0x0 PUSH1 0x20 DUP3 ADD SWAP1 POP DUP2 DUP2 SUB PUSH1 0x0 DUP4 ADD MSTORE PUSH2 0x56DC DUP2 PUSH2 0x56A0 JUMP JUMPDEST SWAP1 POP SWAP2 SWAP1 POP JUMP JUMPDEST PUSH32 0x5468652073756D206F6620726172697479206D75737420626520313030000000 PUSH1 0x0 DUP3 ADD MSTORE POP JUMP JUMPDEST PUSH1 0x0 PUSH2 0x5719 PUSH1 0x1D DUP4 PUSH2 0x3FA4 JUMP JUMPDEST SWAP2 POP PUSH2 0x5724 DUP3 PUSH2 0x56E3 JUMP JUMPDEST PUSH1 0x20 DUP3 ADD SWAP1 POP SWAP2 SWAP1 POP JUMP JUMPDEST PUSH1 0x0 PUSH1 0x20 DUP3 ADD SWAP1 POP DUP2 DUP2 SUB PUSH1 0x0 DUP4 ADD MSTORE PUSH2 0x5748 DUP2 PUSH2 0x570C JUMP JUMPDEST SWAP1 POP SWAP2 SWAP1 POP JUMP JUMPDEST PUSH32 0x4F776E61626C653A206E6577206F776E657220697320746865207A65726F2061 PUSH1 0x0 DUP3 ADD MSTORE PUSH32 0x6464726573730000000000000000000000000000000000000000000000000000 PUSH1 0x20 DUP3 ADD MSTORE POP JUMP JUMPDEST PUSH1 0x0 PUSH2 0x57AB PUSH1 0x26 DUP4 PUSH2 0x3FA4 JUMP JUMPDEST SWAP2 POP PUSH2 0x57B6 DUP3 PUSH2 0x574F JUMP JUMPDEST PUSH1 0x40 DUP3 ADD SWAP1 POP SWAP2 SWAP1 POP JUMP JUMPDEST PUSH1 0x0 PUSH1 0x20 DUP3 ADD SWAP1 POP DUP2 DUP2 SUB PUSH1 0x0 DUP4 ADD MSTORE PUSH2 0x57DA DUP2 PUSH2 0x579E JUMP JUMPDEST SWAP1 POP SWAP2 SWAP1 POP JUMP JUMPDEST PUSH32 0x4F6E6C79207468652064657369676E6174656420616464726573732063616E20 PUSH1 0x0 DUP3 ADD MSTORE PUSH32 0x7769746864726177000000000000000000000000000000000000000000000000 PUSH1 0x20 DUP3 ADD MSTORE POP JUMP JUMPDEST PUSH1 0x0 PUSH2 0x583D PUSH1 0x28 DUP4 PUSH2 0x3FA4 JUMP JUMPDEST SWAP2 POP PUSH2 0x5848 DUP3 PUSH2 0x57E1 JUMP JUMPDEST PUSH1 0x40 DUP3 ADD SWAP1 POP SWAP2 SWAP1 POP JUMP JUMPDEST PUSH1 0x0 PUSH1 0x20 DUP3 ADD SWAP1 POP DUP2 DUP2 SUB PUSH1 0x0 DUP4 ADD MSTORE PUSH2 0x586C DUP2 PUSH2 0x5830 JUMP JUMPDEST SWAP1 POP SWAP2 SWAP1 POP JUMP JUMPDEST PUSH32 0x4F776E61626C653A2063616C6C6572206973206E6F7420746865206F776E6572 PUSH1 0x0 DUP3 ADD MSTORE POP JUMP JUMPDEST PUSH1 0x0 PUSH2 0x58A9 PUSH1 0x20 DUP4 PUSH2 0x3FA4 JUMP JUMPDEST SWAP2 POP PUSH2 0x58B4 DUP3 PUSH2 0x5873 JUMP JUMPDEST PUSH1 0x20 DUP3 ADD SWAP1 POP SWAP2 SWAP1 POP JUMP JUMPDEST PUSH1 0x0 PUSH1 0x20 DUP3 ADD SWAP1 POP DUP2 DUP2 SUB PUSH1 0x0 DUP4 ADD MSTORE PUSH2 0x58D8 DUP2 PUSH2 0x589C JUMP JUMPDEST SWAP1 POP SWAP2 SWAP1 POP JUMP JUMPDEST PUSH1 0x0 DUP2 SWAP1 POP SWAP2 SWAP1 POP JUMP JUMPDEST PUSH2 0x58FA PUSH2 0x58F5 DUP3 PUSH2 0x404B JUMP JUMPDEST PUSH2 0x58DF JUMP JUMPDEST DUP3 MSTORE POP POP JUMP JUMPDEST PUSH1 0x0 DUP2 PUSH1 0x60 SHL SWAP1 POP SWAP2 SWAP1 POP JUMP JUMPDEST PUSH1 0x0 PUSH2 0x5918 DUP3 PUSH2 0x5900 JUMP JUMPDEST SWAP1 POP SWAP2 SWAP1 POP JUMP JUMPDEST PUSH1 0x0 PUSH2 0x592A DUP3 PUSH2 0x590D JUMP JUMPDEST SWAP1 POP SWAP2 SWAP1 POP JUMP JUMPDEST PUSH2 0x5942 PUSH2 0x593D DUP3 PUSH2 0x3F2E JUMP JUMPDEST PUSH2 0x591F JUMP JUMPDEST DUP3 MSTORE POP POP JUMP JUMPDEST PUSH1 0x0 PUSH2 0x5954 DUP3 DUP9 PUSH2 0x58E9 JUMP JUMPDEST PUSH1 0x20 DUP3 ADD SWAP2 POP PUSH2 0x5964 DUP3 DUP8 PUSH2 0x58E9 JUMP JUMPDEST PUSH1 0x20 DUP3 ADD SWAP2 POP PUSH2 0x5974 DUP3 DUP7 PUSH2 0x58E9 JUMP JUMPDEST PUSH1 0x20 DUP3 ADD SWAP2 POP PUSH2 0x5984 DUP3 DUP6 PUSH2 0x5931 JUMP JUMPDEST PUSH1 0x14 DUP3 ADD SWAP2 POP PUSH2 0x5994 DUP3 DUP5 PUSH2 0x5931 JUMP JUMPDEST PUSH1 0x14 DUP3 ADD SWAP2 POP DUP2 SWAP1 POP SWAP7 SWAP6 POP POP POP POP POP POP JUMP JUMPDEST PUSH1 0x0 PUSH2 0x59B2 DUP3 PUSH2 0x404B JUMP JUMPDEST SWAP2 POP PUSH2 0x59BD DUP4 PUSH2 0x404B JUMP JUMPDEST SWAP3 POP DUP3 PUSH2 0x59CD JUMPI PUSH2 0x59CC PUSH2 0x4FD3 JUMP JUMPDEST JUMPDEST DUP3 DUP3 MOD SWAP1 POP SWAP3 SWAP2 POP POP JUMP JUMPDEST PUSH1 0x0 PUSH1 0x40 DUP3 ADD SWAP1 POP PUSH2 0x59ED PUSH1 0x0 DUP4 ADD DUP6 PUSH2 0x41F8 JUMP JUMPDEST PUSH2 0x59FA PUSH1 0x20 DUP4 ADD DUP5 PUSH2 0x41F8 JUMP JUMPDEST SWAP4 SWAP3 POP POP POP JUMP JUMPDEST PUSH32 0x4552433732313A207472616E736665722066726F6D20696E636F727265637420 PUSH1 0x0 DUP3 ADD MSTORE PUSH32 0x6F776E6572000000000000000000000000000000000000000000000000000000 PUSH1 0x20 DUP3 ADD MSTORE POP JUMP JUMPDEST PUSH1 0x0 PUSH2 0x5A5D PUSH1 0x25 DUP4 PUSH2 0x3FA4 JUMP JUMPDEST SWAP2 POP PUSH2 0x5A68 DUP3 PUSH2 0x5A01 JUMP JUMPDEST PUSH1 0x40 DUP3 ADD SWAP1 POP SWAP2 SWAP1 POP JUMP JUMPDEST PUSH1 0x0 PUSH1 0x20 DUP3 ADD SWAP1 POP DUP2 DUP2 SUB PUSH1 0x0 DUP4 ADD MSTORE PUSH2 0x5A8C DUP2 PUSH2 0x5A50 JUMP JUMPDEST SWAP1 POP SWAP2 SWAP1 POP JUMP JUMPDEST PUSH32 0x4552433732313A207472616E7366657220746F20746865207A65726F20616464 PUSH1 0x0 DUP3 ADD MSTORE PUSH32 0x7265737300000000000000000000000000000000000000000000000000000000 PUSH1 0x20 DUP3 ADD MSTORE POP JUMP JUMPDEST PUSH1 0x0 PUSH2 0x5AEF PUSH1 0x24 DUP4 PUSH2 0x3FA4 JUMP JUMPDEST SWAP2 POP PUSH2 0x5AFA DUP3 PUSH2 0x5A93 JUMP JUMPDEST PUSH1 0x40 DUP3 ADD SWAP1 POP SWAP2 SWAP1 POP JUMP JUMPDEST PUSH1 0x0 PUSH1 0x20 DUP3 ADD SWAP1 POP DUP2 DUP2 SUB PUSH1 0x0 DUP4 ADD MSTORE PUSH2 0x5B1E DUP2 PUSH2 0x5AE2 JUMP JUMPDEST SWAP1 POP SWAP2 SWAP1 POP JUMP JUMPDEST PUSH32 0x4552433732313A20617070726F766520746F2063616C6C657200000000000000 PUSH1 0x0 DUP3 ADD MSTORE POP JUMP JUMPDEST PUSH1 0x0 PUSH2 0x5B5B PUSH1 0x19 DUP4 PUSH2 0x3FA4 JUMP JUMPDEST SWAP2 POP PUSH2 0x5B66 DUP3 PUSH2 0x5B25 JUMP JUMPDEST PUSH1 0x20 DUP3 ADD SWAP1 POP SWAP2 SWAP1 POP JUMP JUMPDEST PUSH1 0x0 PUSH1 0x20 DUP3 ADD SWAP1 POP DUP2 DUP2 SUB PUSH1 0x0 DUP4 ADD MSTORE PUSH2 0x5B8A DUP2 PUSH2 0x5B4E JUMP JUMPDEST SWAP1 POP SWAP2 SWAP1 POP JUMP JUMPDEST PUSH1 0x0 PUSH2 0x5B9C DUP3 PUSH2 0x404B JUMP JUMPDEST SWAP2 POP PUSH2 0x5BA7 DUP4 PUSH2 0x404B JUMP JUMPDEST SWAP3 POP DUP3 DUP3 SUB SWAP1 POP DUP2 DUP2 GT ISZERO PUSH2 0x5BBF JUMPI PUSH2 0x5BBE PUSH2 0x4C0C JUMP JUMPDEST JUMPDEST SWAP3 SWAP2 POP POP JUMP JUMPDEST PUSH32 0x4552433732313A207472616E7366657220746F206E6F6E204552433732315265 PUSH1 0x0 DUP3 ADD MSTORE PUSH32 0x63656976657220696D706C656D656E7465720000000000000000000000000000 PUSH1 0x20 DUP3 ADD MSTORE POP JUMP JUMPDEST PUSH1 0x0 PUSH2 0x5C21 PUSH1 0x32 DUP4 PUSH2 0x3FA4 JUMP JUMPDEST SWAP2 POP PUSH2 0x5C2C DUP3 PUSH2 0x5BC5 JUMP JUMPDEST PUSH1 0x40 DUP3 ADD SWAP1 POP SWAP2 SWAP1 POP JUMP JUMPDEST PUSH1 0x0 PUSH1 0x20 DUP3 ADD SWAP1 POP DUP2 DUP2 SUB PUSH1 0x0 DUP4 ADD MSTORE PUSH2 0x5C50 DUP2 PUSH2 0x5C14 JUMP JUMPDEST SWAP1 POP SWAP2 SWAP1 POP JUMP JUMPDEST PUSH32 0x4552433732313A206D696E7420746F20746865207A65726F2061646472657373 PUSH1 0x0 DUP3 ADD MSTORE POP JUMP JUMPDEST PUSH1 0x0 PUSH2 0x5C8D PUSH1 0x20 DUP4 PUSH2 0x3FA4 JUMP JUMPDEST SWAP2 POP PUSH2 0x5C98 DUP3 PUSH2 0x5C57 JUMP JUMPDEST PUSH1 0x20 DUP3 ADD SWAP1 POP SWAP2 SWAP1 POP JUMP JUMPDEST PUSH1 0x0 PUSH1 0x20 DUP3 ADD SWAP1 POP DUP2 DUP2 SUB PUSH1 0x0 DUP4 ADD MSTORE PUSH2 0x5CBC DUP2 PUSH2 0x5C80 JUMP JUMPDEST SWAP1 POP SWAP2 SWAP1 POP JUMP JUMPDEST PUSH32 0x4552433732313A20746F6B656E20616C7265616479206D696E74656400000000 PUSH1 0x0 DUP3 ADD MSTORE POP JUMP JUMPDEST PUSH1 0x0 PUSH2 0x5CF9 PUSH1 0x1C DUP4 PUSH2 0x3FA4 JUMP JUMPDEST SWAP2 POP PUSH2 0x5D04 DUP3 PUSH2 0x5CC3 JUMP JUMPDEST PUSH1 0x20 DUP3 ADD SWAP1 POP SWAP2 SWAP1 POP JUMP JUMPDEST PUSH1 0x0 PUSH1 0x20 DUP3 ADD SWAP1 POP DUP2 DUP2 SUB PUSH1 0x0 DUP4 ADD MSTORE PUSH2 0x5D28 DUP2 PUSH2 0x5CEC JUMP JUMPDEST SWAP1 POP SWAP2 SWAP1 POP JUMP JUMPDEST PUSH32 0x45524337323155524953746F726167653A2055524920736574206F66206E6F6E PUSH1 0x0 DUP3 ADD MSTORE PUSH32 0x6578697374656E7420746F6B656E000000000000000000000000000000000000 PUSH1 0x20 DUP3 ADD MSTORE POP JUMP JUMPDEST PUSH1 0x0 PUSH2 0x5D8B PUSH1 0x2E DUP4 PUSH2 0x3FA4 JUMP JUMPDEST SWAP2 POP PUSH2 0x5D96 DUP3 PUSH2 0x5D2F JUMP JUMPDEST PUSH1 0x40 DUP3 ADD SWAP1 POP SWAP2 SWAP1 POP JUMP JUMPDEST PUSH1 0x0 PUSH1 0x20 DUP3 ADD SWAP1 POP DUP2 DUP2 SUB PUSH1 0x0 DUP4 ADD MSTORE PUSH2 0x5DBA DUP2 PUSH2 0x5D7E JUMP JUMPDEST SWAP1 POP SWAP2 SWAP1 POP JUMP JUMPDEST PUSH1 0x0 DUP2 MLOAD SWAP1 POP SWAP2 SWAP1 POP JUMP JUMPDEST PUSH1 0x0 DUP3 DUP3 MSTORE PUSH1 0x20 DUP3 ADD SWAP1 POP SWAP3 SWAP2 POP POP JUMP JUMPDEST PUSH1 0x0 PUSH2 0x5DE8 DUP3 PUSH2 0x5DC1 JUMP JUMPDEST PUSH2 0x5DF2 DUP2 DUP6 PUSH2 0x5DCC JUMP JUMPDEST SWAP4 POP PUSH2 0x5E02 DUP2 DUP6 PUSH1 0x20 DUP7 ADD PUSH2 0x3FB5 JUMP JUMPDEST PUSH2 0x5E0B DUP2 PUSH2 0x3FDF JUMP JUMPDEST DUP5 ADD SWAP2 POP POP SWAP3 SWAP2 POP POP JUMP JUMPDEST PUSH1 0x0 PUSH1 0x80 DUP3 ADD SWAP1 POP PUSH2 0x5E2B PUSH1 0x0 DUP4 ADD DUP8 PUSH2 0x40AE JUMP JUMPDEST PUSH2 0x5E38 PUSH1 0x20 DUP4 ADD DUP7 PUSH2 0x40AE JUMP JUMPDEST PUSH2 0x5E45 PUSH1 0x40 DUP4 ADD DUP6 PUSH2 0x41F8 JUMP JUMPDEST DUP2 DUP2 SUB PUSH1 0x60 DUP4 ADD MSTORE PUSH2 0x5E57 DUP2 DUP5 PUSH2 0x5DDD JUMP JUMPDEST SWAP1 POP SWAP6 SWAP5 POP POP POP POP POP JUMP JUMPDEST PUSH1 0x0 DUP2 MLOAD SWAP1 POP PUSH2 0x5E71 DUP2 PUSH2 0x3E7F JUMP JUMPDEST SWAP3 SWAP2 POP POP JUMP JUMPDEST PUSH1 0x0 PUSH1 0x20 DUP3 DUP5 SUB SLT ISZERO PUSH2 0x5E8D JUMPI PUSH2 0x5E8C PUSH2 0x3E49 JUMP JUMPDEST JUMPDEST PUSH1 0x0 PUSH2 0x5E9B DUP5 DUP3 DUP6 ADD PUSH2 0x5E62 JUMP JUMPDEST SWAP2 POP POP SWAP3 SWAP2 POP POP JUMP INVALID LOG2 PUSH5 0x6970667358 0x22 SLT KECCAK256 JUMPI LOG2 0xB1 DUP2 EQ 0xBE CALLDATASIZE 0xAA 0xD7 SSTORE PUSH2 0xDC4D INVALID 0x2A 0xCC LOG2 0xD7 PUSH3 0xCB449B SWAP9 0xC2 DUP3 0xE5 EXTCODESIZE 0xED SHR CODESIZE 0x5F SAR PUSH5 0x736F6C6343 STOP ADDMOD SLT STOP CALLER PUSH9 0x747470733A2F2F6970 PUSH7 0x732E696F2F6970 PUSH7 0x732F516D636144 MSTORE 0x4B PUSH3 0x35634D CALLDATALOAD NUMBER 0x4E CALLDATASIZE SELFBALANCE PREVRANDAO 0x4D TIMESTAMP MSIZE PUSH24 0x346D334474557548565A366653654371695639594D715A77 PUSH24 0x3F66696C656E616D653D4E4654302E6A736F6E6874747073 GASPRICE 0x2F 0x2F PUSH10 0x7066732E696F2F697066 PUSH20 0x2F516D634A314641445757465775704838334B50 JUMP PUSH14 0x633171684E416D694B6D48624D35 PUSH8 0x35546A7674526739 PUSH6 0x353F66696C65 PUSH15 0x616D653D4E4654312E6A736F6E6874 PUSH21 0x70733A2F2F697066732E696F2F697066732F516D54 PUSH8 0x714D64374D594E4C 0x4E SELFBALANCE MLOAD PUSH26 0x68737A45506777636169756D5935346B3939745A4E6162466471 MSIZE PUSH10 0x56663F66696C656E616D PUSH6 0x3D4E4654322E PUSH11 0x736F6E68747470733A2F2F PUSH10 0x7066732E696F2F697066 PUSH20 0x2F516D52516D4C6D6F78433861436F44556B5371 SSTORE SLOAD 0x4B PUSH22 0x734733743270354D64745531716A4741473973734C35 PUSH22 0x3F66696C656E616D653D4E4654332E6A736F6E000000 "},"methodIdentifiers":{"NFT_url()":"b63b3d57","NFTs(uint256)":"a3c0b95b","addFreeMintAddress(address)":"84028697","approve(address,uint256)":"095ea7b3","balanceOf(address)":"70a08231","changeRarity(uint256[])":"e1d031f5","changeWithdrawFlag(bool)":"5b7c0dc7","changeflagPriceChanged(bool)":"b784902e","editLimitMint(uint256)":"f4f3b059","editPriceMint(uint256)":"ebb24c32","editUrlNFT(string,uint256)":"ac399914","getApproved(uint256)":"081812fc","getLastAdress()":"1b163a9d","getNFTRank(uint256)":"6c5bf32e","getOwnedNFTs(address)":"18148f1b","getPoint(address)":"4ff531b6","getPrice()":"98d5fdca","getRarity()":"7b32cdba","getTopMintNFT(uint256)":"a23af5cb","isApprovedForAll(address,address)":"e985e9c5","limitMint()":"9b525924","mintChangedFlag(bool)":"4759a421","mintNFT()":"14f710fe","name()":"06fdde03","owner()":"8da5cb5b","ownerOf(uint256)":"6352211e","price()":"a035b1fe","removeFreeMintAddress(address)":"04890b24","renounceOwnership()":"715018a6","safeTransferFrom(address,address,uint256)":"42842e0e","safeTransferFrom(address,address,uint256,bytes)":"b88d4fde","setApprovalForAll(address,bool)":"a22cb465","supportsInterface(bytes4)":"01ffc9a7","symbol()":"95d89b41","test()":"f8a8fd6d","tokenURI(uint256)":"c87b56dd","totalSupply()":"18160ddd","transferFrom(address,address,uint256)":"23b872dd","transferNFT(address,uint256)":"94ab67fe","transferOwnership(address)":"f2fde38b","withdraw()":"3ccfd60b","withdrawRewards(uint256,uint256)":"52cb5133"}}}}}