{"contracts/BaseXNFT.sol":{"BaseXNFT":{"abi":[{"inputs":[{"internalType":"address","name":"_ownerWithDraw","type":"address"},{"internalType":"address","name":"addressOfBasicNFTContract","type":"address"}],"stateMutability":"nonpayable","type":"constructor"},{"anonymous":false,"inputs":[{"indexed":true,"internalType":"address","name":"owner","type":"address"},{"indexed":true,"internalType":"address","name":"approved","type":"address"},{"indexed":true,"internalType":"uint256","name":"tokenId","type":"uint256"}],"name":"Approval","type":"event"},{"anonymous":false,"inputs":[{"indexed":true,"internalType":"address","name":"owner","type":"address"},{"indexed":true,"internalType":"address","name":"operator","type":"address"},{"indexed":false,"internalType":"bool","name":"approved","type":"bool"}],"name":"ApprovalForAll","type":"event"},{"anonymous":false,"inputs":[{"indexed":false,"internalType":"uint256","name":"_fromTokenId","type":"uint256"},{"indexed":false,"internalType":"uint256","name":"_toTokenId","type":"uint256"}],"name":"BatchMetadataUpdate","type":"event"},{"anonymous":false,"inputs":[{"indexed":false,"internalType":"uint256","name":"_tokenId","type":"uint256"}],"name":"MetadataUpdate","type":"event"},{"anonymous":false,"inputs":[{"indexed":true,"internalType":"uint256","name":"tokenId","type":"uint256"},{"indexed":false,"internalType":"uint256","name":"rank","type":"uint256"},{"indexed":false,"internalType":"uint256","name":"time_minted","type":"uint256"}],"name":"NFTMinted","type":"event"},{"anonymous":false,"inputs":[{"indexed":true,"internalType":"address","name":"previousOwner","type":"address"},{"indexed":true,"internalType":"address","name":"newOwner","type":"address"}],"name":"OwnershipTransferred","type":"event"},{"anonymous":false,"inputs":[{"indexed":true,"internalType":"address","name":"from","type":"address"},{"indexed":true,"internalType":"address","name":"to","type":"address"},{"indexed":true,"internalType":"uint256","name":"tokenId","type":"uint256"}],"name":"Transfer","type":"event"},{"inputs":[],"name":"NFT_url","outputs":[{"internalType":"string","name":"","type":"string"}],"stateMutability":"view","type":"function"},{"inputs":[{"internalType":"uint256","name":"","type":"uint256"}],"name":"NFTs","outputs":[{"internalType":"uint256","name":"tokenId","type":"uint256"},{"internalType":"enum BaseXNFT.Rank","name":"rank","type":"uint8"}],"stateMutability":"view","type":"function"},{"inputs":[{"internalType":"address","name":"_address","type":"address"}],"name":"addFreeMintAddress","outputs":[],"stateMutability":"nonpayable","type":"function"},{"inputs":[{"internalType":"address","name":"to","type":"address"},{"internalType":"uint256","name":"tokenId","type":"uint256"}],"name":"approve","outputs":[],"stateMutability":"nonpayable","type":"function"},{"inputs":[{"internalType":"address","name":"owner","type":"address"}],"name":"balanceOf","outputs":[{"internalType":"uint256","name":"","type":"uint256"}],"stateMutability":"view","type":"function"},{"inputs":[{"internalType":"uint256[]","name":"_newRarity","type":"uint256[]"}],"name":"changeRarity","outputs":[],"stateMutability":"nonpayable","type":"function"},{"inputs":[{"internalType":"bool","name":"_flag","type":"bool"}],"name":"changeWithdrawFlag","outputs":[],"stateMutability":"nonpayable","type":"function"},{"inputs":[{"internalType":"bool","name":"_flag","type":"bool"}],"name":"changeflagPriceChanged","outputs":[],"stateMutability":"nonpayable","type":"function"},{"inputs":[{"internalType":"uint256","name":"_newLimit","type":"uint256"}],"name":"editLimitMint","outputs":[],"stateMutability":"nonpayable","type":"function"},{"inputs":[{"internalType":"uint256","name":"_newPrice","type":"uint256"}],"name":"editPriceMint","outputs":[],"stateMutability":"nonpayable","type":"function"},{"inputs":[{"internalType":"uint256","name":"tokenId","type":"uint256"}],"name":"getApproved","outputs":[{"internalType":"address","name":"","type":"address"}],"stateMutability":"view","type":"function"},{"inputs":[],"name":"getLastAdress","outputs":[{"internalType":"address","name":"","type":"address"}],"stateMutability":"view","type":"function"},{"inputs":[{"internalType":"uint256","name":"tokenId","type":"uint256"}],"name":"getNFTRank","outputs":[{"internalType":"enum BaseXNFT.Rank","name":"","type":"uint8"}],"stateMutability":"view","type":"function"},{"inputs":[{"internalType":"address","name":"user","type":"address"}],"name":"getOwnedNFTs","outputs":[{"internalType":"uint256[]","name":"","type":"uint256[]"}],"stateMutability":"view","type":"function"},{"inputs":[{"internalType":"address","name":"_user","type":"address"}],"name":"getPoint","outputs":[{"internalType":"uint256","name":"","type":"uint256"}],"stateMutability":"view","type":"function"},{"inputs":[],"name":"getPrice","outputs":[{"internalType":"uint256","name":"","type":"uint256"}],"stateMutability":"view","type":"function"},{"inputs":[],"name":"getRarity","outputs":[{"internalType":"uint256[]","name":"","type":"uint256[]"}],"stateMutability":"view","type":"function"},{"inputs":[{"internalType":"uint256","name":"top","type":"uint256"}],"name":"getTopMintNFT","outputs":[{"internalType":"address[]","name":"","type":"address[]"}],"stateMutability":"view","type":"function"},{"inputs":[{"internalType":"address","name":"owner","type":"address"},{"internalType":"address","name":"operator","type":"address"}],"name":"isApprovedForAll","outputs":[{"internalType":"bool","name":"","type":"bool"}],"stateMutability":"view","type":"function"},{"inputs":[],"name":"limitMint","outputs":[{"internalType":"uint256","name":"","type":"uint256"}],"stateMutability":"view","type":"function"},{"inputs":[],"name":"limitTotalMinted","outputs":[{"internalType":"uint256","name":"","type":"uint256"}],"stateMutability":"view","type":"function"},{"inputs":[{"internalType":"bool","name":"_flag","type":"bool"}],"name":"mintChangedFlag","outputs":[],"stateMutability":"nonpayable","type":"function"},{"inputs":[],"name":"mintNFT","outputs":[],"stateMutability":"payable","type":"function"},{"inputs":[{"internalType":"address","name":"to","type":"address"},{"internalType":"uint256","name":"tokenId","type":"uint256"},{"internalType":"string","name":"tokenURI","type":"string"}],"name":"mintNFT","outputs":[],"stateMutability":"nonpayable","type":"function"},{"inputs":[],"name":"name","outputs":[{"internalType":"string","name":"","type":"string"}],"stateMutability":"view","type":"function"},{"inputs":[],"name":"owner","outputs":[{"internalType":"address","name":"","type":"address"}],"stateMutability":"view","type":"function"},{"inputs":[{"internalType":"uint256","name":"tokenId","type":"uint256"}],"name":"ownerOf","outputs":[{"internalType":"address","name":"","type":"address"}],"stateMutability":"view","type":"function"},{"inputs":[],"name":"price","outputs":[{"internalType":"uint256","name":"","type":"uint256"}],"stateMutability":"view","type":"function"},{"inputs":[{"internalType":"address","name":"_address","type":"address"}],"name":"removeFreeMintAddress","outputs":[],"stateMutability":"nonpayable","type":"function"},{"inputs":[],"name":"renounceOwnership","outputs":[],"stateMutability":"nonpayable","type":"function"},{"inputs":[{"internalType":"address","name":"from","type":"address"},{"internalType":"address","name":"to","type":"address"},{"internalType":"uint256","name":"tokenId","type":"uint256"}],"name":"safeTransferFrom","outputs":[],"stateMutability":"nonpayable","type":"function"},{"inputs":[{"internalType":"address","name":"from","type":"address"},{"internalType":"address","name":"to","type":"address"},{"internalType":"uint256","name":"tokenId","type":"uint256"},{"internalType":"bytes","name":"data","type":"bytes"}],"name":"safeTransferFrom","outputs":[],"stateMutability":"nonpayable","type":"function"},{"inputs":[{"internalType":"address","name":"operator","type":"address"},{"internalType":"bool","name":"approved","type":"bool"}],"name":"setApprovalForAll","outputs":[],"stateMutability":"nonpayable","type":"function"},{"inputs":[{"internalType":"bytes4","name":"interfaceId","type":"bytes4"}],"name":"supportsInterface","outputs":[{"internalType":"bool","name":"","type":"bool"}],"stateMutability":"view","type":"function"},{"inputs":[],"name":"symbol","outputs":[{"internalType":"string","name":"","type":"string"}],"stateMutability":"view","type":"function"},{"inputs":[],"name":"test","outputs":[],"stateMutability":"nonpayable","type":"function"},{"inputs":[{"internalType":"uint256","name":"tokenId","type":"uint256"}],"name":"tokenURI","outputs":[{"internalType":"string","name":"","type":"string"}],"stateMutability":"view","type":"function"},{"inputs":[],"name":"totalSupply","outputs":[{"internalType":"uint256","name":"","type":"uint256"}],"stateMutability":"view","type":"function"},{"inputs":[{"internalType":"address","name":"from","type":"address"},{"internalType":"address","name":"to","type":"address"},{"internalType":"uint256","name":"tokenId","type":"uint256"}],"name":"transferFrom","outputs":[],"stateMutability":"nonpayable","type":"function"},{"inputs":[{"internalType":"address","name":"to","type":"address"},{"internalType":"uint256","name":"tokenId","type":"uint256"}],"name":"transferNFT","outputs":[],"stateMutability":"nonpayable","type":"function"},{"inputs":[{"internalType":"address","name":"newOwner","type":"address"}],"name":"transferOwnership","outputs":[],"stateMutability":"nonpayable","type":"function"},{"inputs":[{"internalType":"address","name":"to","type":"address"}],"name":"transferOwnershipNFT","outputs":[],"stateMutability":"nonpayable","type":"function"},{"inputs":[],"name":"withdraw","outputs":[],"stateMutability":"nonpayable","type":"function"},{"inputs":[{"internalType":"uint256","name":"numberOfWinners","type":"uint256"},{"internalType":"uint256","name":"rewardPercentage","type":"uint256"}],"name":"withdrawRewards","outputs":[],"stateMutability":"nonpayable","type":"function"}],"evm":{"bytecode":{"linkReferences":{},"object":"6080604052604051806080016040528060405180608001604052806056815260200162006c4560569139815260200160405180608001604052806056815260200162006c9b60569139815260200160405180608001604052806056815260200162006cf160569139815260200160405180608001604052806056815260200162006d476056913981525060106000820151816000019081620000a291906200070f565b506020820151816001019081620000ba91906200070f565b506040820151816002019081620000d291906200070f565b506060820151816003019081620000ea91906200070f565b5050506000601460006101000a81548160ff0219169083151502179055503480156200011557600080fd5b5060405162006d9d38038062006d9d83398181016040528101906200013b919062000860565b6040518060400160405280600981526020017f4261736963204e465400000000000000000000000000000000000000000000008152506040518060400160405280600481526020017f424e4654000000000000000000000000000000000000000000000000000000008152508160009081620001b891906200070f565b508060019081620001ca91906200070f565b505050620001ed620001e1620003c760201b60201c565b620003cf60201b60201c565b600a600b8190555033600d60006101000a81548173ffffffffffffffffffffffffffffffffffffffff021916908373ffffffffffffffffffffffffffffffffffffffff1602179055506000600e819055506000600c819055506018603c90806001815401808255809150506001900390600052602060002001600090919091909150556018601990806001815401808255809150506001900390600052602060002001600090919091909150556018600a90806001815401808255809150506001900390600052602060002001600090919091909150556018600590806001815401808255809150506001900390600052602060002001600090919091909150556000601960006101000a81548160ff02191690831515021790555081601960016101000a81548173ffffffffffffffffffffffffffffffffffffffff021916908373ffffffffffffffffffffffffffffffffffffffff1602179055506064601a819055506000601b60006101000a81548160ff021916908315150217905550614e20600f819055506014601c8190555080600860006101000a81548173ffffffffffffffffffffffffffffffffffffffff021916908373ffffffffffffffffffffffffffffffffffffffff1602179055505050620008a7565b600033905090565b6000600760009054906101000a900473ffffffffffffffffffffffffffffffffffffffff16905081600760006101000a81548173ffffffffffffffffffffffffffffffffffffffff021916908373ffffffffffffffffffffffffffffffffffffffff1602179055508173ffffffffffffffffffffffffffffffffffffffff168173ffffffffffffffffffffffffffffffffffffffff167f8be0079c531659141344cd1fd0a4f28419497f9722a3daafe3b4186f6b6457e060405160405180910390a35050565b600081519050919050565b7f4e487b7100000000000000000000000000000000000000000000000000000000600052604160045260246000fd5b7f4e487b7100000000000000000000000000000000000000000000000000000000600052602260045260246000fd5b600060028204905060018216806200051757607f821691505b6020821081036200052d576200052c620004cf565b5b50919050565b60008190508160005260206000209050919050565b60006020601f8301049050919050565b600082821b905092915050565b600060088302620005977fffffffffffffffffffffffffffffffffffffffffffffffffffffffffffffffff8262000558565b620005a3868362000558565b95508019841693508086168417925050509392505050565b6000819050919050565b6000819050919050565b6000620005f0620005ea620005e484620005bb565b620005c5565b620005bb565b9050919050565b6000819050919050565b6200060c83620005cf565b620006246200061b82620005f7565b84845462000565565b825550505050565b600090565b6200063b6200062c565b6200064881848462000601565b505050565b5b8181101562000670576200066460008262000631565b6001810190506200064e565b5050565b601f821115620006bf57620006898162000533565b620006948462000548565b81016020851015620006a4578190505b620006bc620006b38562000548565b8301826200064d565b50505b505050565b600082821c905092915050565b6000620006e460001984600802620006c4565b1980831691505092915050565b6000620006ff8383620006d1565b9150826002028217905092915050565b6200071a8262000495565b67ffffffffffffffff811115620007365762000735620004a0565b5b620007428254620004fe565b6200074f82828562000674565b600060209050601f83116001811462000787576000841562000772578287015190505b6200077e8582620006f1565b865550620007ee565b601f198416620007978662000533565b60005b82811015620007c1578489015182556001820191506020850194506020810190506200079a565b86831015620007e15784890151620007dd601f891682620006d1565b8355505b6001600288020188555050505b505050505050565b600080fd5b600073ffffffffffffffffffffffffffffffffffffffff82169050919050565b60006200082882620007fb565b9050919050565b6200083a816200081b565b81146200084657600080fd5b50565b6000815190506200085a816200082f565b92915050565b600080604083850312156200087a5762000879620007f6565b5b60006200088a8582860162000849565b92505060206200089d8582860162000849565b9150509250929050565b61638e80620008b76000396000f3fe6080604052600436106102675760003560e01c8063715018a611610144578063a3c0b95b116100b6578063e1d031f51161007a578063e1d031f51461091e578063e985e9c514610947578063ebb24c3214610984578063f2fde38b146109ad578063f4f3b059146109d6578063f8a8fd6d146109ff57610267565b8063a3c0b95b14610826578063b63b3d5714610864578063b784902e1461088f578063b88d4fde146108b8578063c87b56dd146108e157610267565b806395d89b411161010857806395d89b411461071457806398d5fdca1461073f5780639b5259241461076a578063a035b1fe14610795578063a22cb465146107c0578063a23af5cb146107e957610267565b8063715018a6146106555780637b32cdba1461066c57806384028697146106975780638da5cb5b146106c057806394ab67fe146106eb57610267565b80632724d591116101dd5780634ff531b6116101a15780634ff531b61461050f57806352cb51331461054c5780635b7c0dc7146105755780636352211e1461059e5780636c5bf32e146105db57806370a082311461061857610267565b80632724d5911461045257806328ef5ec51461047b5780633ccfd60b146104a657806342842e0e146104bd5780634759a421146104e657610267565b806314f710fe1161022f57806314f710fe1461036357806318148f1b1461036d57806318160ddd146103aa5780631b163a9d146103d55780631e5769121461040057806323b872dd1461042957610267565b806301ffc9a71461026c57806304890b24146102a957806306fdde03146102d2578063081812fc146102fd578063095ea7b31461033a575b600080fd5b34801561027857600080fd5b50610293600480360381019061028e919061427c565b610a16565b6040516102a091906142c4565b60405180910390f35b3480156102b557600080fd5b506102d060048036038101906102cb919061433d565b610a28565b005b3480156102de57600080fd5b506102e7610a8b565b6040516102f491906143fa565b60405180910390f35b34801561030957600080fd5b50610324600480360381019061031f9190614452565b610b1d565b604051610331919061448e565b60405180910390f35b34801561034657600080fd5b50610361600480360381019061035c91906144a9565b610b63565b005b61036b610c7a565b005b34801561037957600080fd5b50610394600480360381019061038f919061433d565b610ee9565b6040516103a191906145a7565b60405180910390f35b3480156103b657600080fd5b506103bf610ff8565b6040516103cc91906145d8565b60405180910390f35b3480156103e157600080fd5b506103ea610ffe565b6040516103f7919061448e565b60405180910390f35b34801561040c57600080fd5b5061042760048036038101906104229190614728565b611030565b005b34801561043557600080fd5b50610450600480360381019061044b9190614797565b611051565b005b34801561045e57600080fd5b506104796004803603810190610474919061433d565b6110b1565b005b34801561048757600080fd5b506104906110c5565b60405161049d91906145d8565b60405180910390f35b3480156104b257600080fd5b506104bb6110cb565b005b3480156104c957600080fd5b506104e460048036038101906104df9190614797565b611178565b005b3480156104f257600080fd5b5061050d60048036038101906105089190614816565b611198565b005b34801561051b57600080fd5b506105366004803603810190610531919061433d565b6111bd565b60405161054391906145d8565b60405180910390f35b34801561055857600080fd5b50610573600480360381019061056e9190614843565b6113e8565b005b34801561058157600080fd5b5061059c60048036038101906105979190614816565b61186a565b005b3480156105aa57600080fd5b506105c560048036038101906105c09190614452565b611917565b6040516105d2919061448e565b60405180910390f35b3480156105e757600080fd5b5061060260048036038101906105fd9190614452565b61199d565b60405161060f91906148fa565b60405180910390f35b34801561062457600080fd5b5061063f600480360381019061063a919061433d565b611a12565b60405161064c91906145d8565b60405180910390f35b34801561066157600080fd5b5061066a611ac9565b005b34801561067857600080fd5b50610681611add565b60405161068e91906145a7565b60405180910390f35b3480156106a357600080fd5b506106be60048036038101906106b9919061433d565b611b35565b005b3480156106cc57600080fd5b506106d5611b98565b6040516106e2919061448e565b60405180910390f35b3480156106f757600080fd5b50610712600480360381019061070d91906144a9565b611bc2565b005b34801561072057600080fd5b50610729611c47565b60405161073691906143fa565b60405180910390f35b34801561074b57600080fd5b50610754611cd9565b60405161076191906145d8565b60405180910390f35b34801561077657600080fd5b5061077f611d3f565b60405161078c91906145d8565b60405180910390f35b3480156107a157600080fd5b506107aa611d45565b6040516107b791906145d8565b60405180910390f35b3480156107cc57600080fd5b506107e760048036038101906107e29190614915565b611d4b565b005b3480156107f557600080fd5b50610810600480360381019061080b9190614452565b611d61565b60405161081d9190614a13565b60405180910390f35b34801561083257600080fd5b5061084d60048036038101906108489190614452565b611ed8565b60405161085b929190614a35565b60405180910390f35b34801561087057600080fd5b50610879611f09565b60405161088691906143fa565b60405180910390f35b34801561089b57600080fd5b506108b660048036038101906108b19190614816565b611f97565b005b3480156108c457600080fd5b506108df60048036038101906108da9190614aff565b611fbc565b005b3480156108ed57600080fd5b5061090860048036038101906109039190614452565b61201e565b60405161091591906143fa565b60405180910390f35b34801561092a57600080fd5b5061094560048036038101906109409190614c4a565b612130565b005b34801561095357600080fd5b5061096e60048036038101906109699190614c93565b612266565b60405161097b91906142c4565b60405180910390f35b34801561099057600080fd5b506109ab60048036038101906109a69190614452565b6122fa565b005b3480156109b957600080fd5b506109d460048036038101906109cf919061433d565b612327565b005b3480156109e257600080fd5b506109fd60048036038101906109f89190614452565b6123aa565b005b348015610a0b57600080fd5b50610a146123bc565b005b6000610a218261248d565b9050919050565b610a306124ee565b6000601660008373ffffffffffffffffffffffffffffffffffffffff1673ffffffffffffffffffffffffffffffffffffffff16815260200190815260200160002060006101000a81548160ff02191690831515021790555050565b606060008054610a9a90614d02565b80601f0160208091040260200160405190810160405280929190818152602001828054610ac690614d02565b8015610b135780601f10610ae857610100808354040283529160200191610b13565b820191906000526020600020905b815481529060010190602001808311610af657829003601f168201915b5050505050905090565b6000610b288261256c565b6004600083815260200190815260200160002060009054906101000a900473ffffffffffffffffffffffffffffffffffffffff169050919050565b6000610b6e82611917565b90508073ffffffffffffffffffffffffffffffffffffffff168373ffffffffffffffffffffffffffffffffffffffff1603610bde576040517f08c379a0000000000000000000000000000000000000000000000000000000008152600401610bd590614da5565b60405180910390fd5b8073ffffffffffffffffffffffffffffffffffffffff16610bfd6125b7565b73ffffffffffffffffffffffffffffffffffffffff161480610c2c5750610c2b81610c266125b7565b612266565b5b610c6b576040517f08c379a0000000000000000000000000000000000000000000000000000000008152600401610c6290614e37565b60405180910390fd5b610c7583836125bf565b505050565b600f54600e5410610cc0576040517f08c379a0000000000000000000000000000000000000000000000000000000008152600401610cb790614ec9565b60405180910390fd5b60001515601b60009054906101000a900460ff16151503610ddf57601c54600e5410610d02576001601b60006101000a81548160ff0219169083151502179055505b601660003373ffffffffffffffffffffffffffffffffffffffff1673ffffffffffffffffffffffffffffffffffffffff16815260200190815260200160002060009054906101000a900460ff16610d8e576040517f08c379a0000000000000000000000000000000000000000000000000000000008152600401610d8590614f35565b60405180910390fd5b600e54601a541015610dd5576040517f08c379a0000000000000000000000000000000000000000000000000000000008152600401610dcc90614fc7565b60405180910390fd5b610dde33612678565b5b60011515601b60009054906101000a900460ff16151503610ee757600b54610e0633611a12565b10610e46576040517f08c379a0000000000000000000000000000000000000000000000000000000008152600401610e3d90614fc7565b60405180910390fd5b601660003373ffffffffffffffffffffffffffffffffffffffff1673ffffffffffffffffffffffffffffffffffffffff16815260200190815260200160002060009054906101000a900460ff16610edd57600c54341015610edc576040517f08c379a0000000000000000000000000000000000000000000000000000000008152600401610ed390615033565b60405180910390fd5b5b610ee633612678565b5b565b60606000610ef683611a12565b905060008167ffffffffffffffff811115610f1457610f136145fd565b5b604051908082528060200260200182016040528015610f425781602001602082028036833780820191505090505b509050600080600190505b610f576009612f29565b8111610fec57610f6681612f37565b8015610fa557508573ffffffffffffffffffffffffffffffffffffffff16610f8d82611917565b73ffffffffffffffffffffffffffffffffffffffff16145b15610fd95780838381518110610fbe57610fbd615053565b5b6020026020010181815250508180610fd5906150b1565b9250505b8080610fe4906150b1565b915050610f4d565b50819350505050919050565b600e5481565b60006110086124ee565b600d60009054906101000a900473ffffffffffffffffffffffffffffffffffffffff16905090565b6110386124ee565b6110428383612f78565b61104c8282613195565b505050565b61106261105c6125b7565b82613239565b6110a1576040517f08c379a00000000000000000000000000000000000000000000000000000000081526004016110989061516b565b60405180910390fd5b6110ac8383836132ce565b505050565b6110b96124ee565b6110c281612327565b50565b600f5481565b6110d36124ee565b60011515601960009054906101000a900460ff16151514611129576040517f08c379a0000000000000000000000000000000000000000000000000000000008152600401611120906151fd565b60405180910390fd5b60004790503373ffffffffffffffffffffffffffffffffffffffff166108fc829081150290604051600060405180830381858888f19350505050158015611174573d6000803e3d6000fd5b5050565b61119383838360405180602001604052806000815250611fbc565b505050565b6111a06124ee565b80601b60006101000a81548160ff02191690831515021790555050565b6000806111c983610ee9565b90506000805b82518110156113dd57600060038111156111ec576111eb614883565b5b6017600085848151811061120357611202615053565b5b6020026020010151815260200190815260200160002060010160009054906101000a900460ff16600381111561123c5761123b614883565b5b036112555760018261124e919061521d565b91506113ca565b6001600381111561126957611268614883565b5b601760008584815181106112805761127f615053565b5b6020026020010151815260200190815260200160002060010160009054906101000a900460ff1660038111156112b9576112b8614883565b5b036112d2576005826112cb919061521d565b91506113c9565b600260038111156112e6576112e5614883565b5b601760008584815181106112fd576112fc615053565b5b6020026020010151815260200190815260200160002060010160009054906101000a900460ff16600381111561133657611335614883565b5b0361134f57600f82611348919061521d565b91506113c8565b60038081111561136257611361614883565b5b6017600085848151811061137957611378615053565b5b6020026020010151815260200190815260200160002060010160009054906101000a900460ff1660038111156113b2576113b1614883565b5b036113c7576032826113c4919061521d565b91505b5b5b5b80806113d5906150b1565b9150506111cf565b508092505050919050565b6113f06124ee565b60008211611433576040517f08c379a000000000000000000000000000000000000000000000000000000000815260040161142a906152c3565b60405180910390fd5b60158054905082111561147b576040517f08c379a000000000000000000000000000000000000000000000000000000000815260040161147290615355565b60405180910390fd5b60008111801561148c575060648111155b6114cb576040517f08c379a00000000000000000000000000000000000000000000000000000000081526004016114c2906153e7565b60405180910390fd5b60006114d683611d61565b90506000606483476114e89190615407565b6114f29190615478565b905060006064601e836115059190615407565b61150f9190615478565b9050600060646019846115229190615407565b61152c9190615478565b90506000606460148561153f9190615407565b6115499190615478565b905060006064600f8661155c9190615407565b6115669190615478565b905060006064600a8a6115799190615407565b6115839190615478565b905060006064600f8b6115969190615407565b6115a09190615478565b90506000606460198c6115b39190615407565b6115bd9190615478565b905060008183858e6115cf91906154a9565b6115d991906154a9565b6115e391906154a9565b905060005b8481101561166f578a818151811061160357611602615053565b5b602002602001015173ffffffffffffffffffffffffffffffffffffffff166108fc868b6116309190615478565b9081150290604051600060405180830381858888f1935050505015801561165b573d6000803e3d6000fd5b508080611667906150b1565b9150506115e8565b5060008490505b8385611682919061521d565b811015611708578a818151811061169c5761169b615053565b5b602002602001015173ffffffffffffffffffffffffffffffffffffffff166108fc858a6116c99190615478565b9081150290604051600060405180830381858888f193505050501580156116f4573d6000803e3d6000fd5b508080611700906150b1565b915050611676565b5060008385611717919061521d565b90505b828486611727919061521d565b611731919061521d565b8110156117b7578a818151811061174b5761174a615053565b5b602002602001015173ffffffffffffffffffffffffffffffffffffffff166108fc84896117789190615478565b9081150290604051600060405180830381858888f193505050501580156117a3573d6000803e3d6000fd5b5080806117af906150b1565b91505061171a565b5060008284866117c7919061521d565b6117d1919061521d565b90505b8c81101561185b578a81815181106117ef576117ee615053565b5b602002602001015173ffffffffffffffffffffffffffffffffffffffff166108fc838861181c9190615478565b9081150290604051600060405180830381858888f19350505050158015611847573d6000803e3d6000fd5b508080611853906150b1565b9150506117d4565b50505050505050505050505050565b601960019054906101000a900473ffffffffffffffffffffffffffffffffffffffff1673ffffffffffffffffffffffffffffffffffffffff163373ffffffffffffffffffffffffffffffffffffffff16146118fa576040517f08c379a00000000000000000000000000000000000000000000000000000000081526004016118f190615529565b60405180910390fd5b80601960006101000a81548160ff02191690831515021790555050565b600080611923836135c7565b9050600073ffffffffffffffffffffffffffffffffffffffff168173ffffffffffffffffffffffffffffffffffffffff1603611994576040517f08c379a000000000000000000000000000000000000000000000000000000000815260040161198b90615595565b60405180910390fd5b80915050919050565b60006119a882612f37565b6119e7576040517f08c379a00000000000000000000000000000000000000000000000000000000081526004016119de90615601565b60405180910390fd5b6017600083815260200190815260200160002060010160009054906101000a900460ff169050919050565b60008073ffffffffffffffffffffffffffffffffffffffff168273ffffffffffffffffffffffffffffffffffffffff1603611a82576040517f08c379a0000000000000000000000000000000000000000000000000000000008152600401611a7990615693565b60405180910390fd5b600360008373ffffffffffffffffffffffffffffffffffffffff1673ffffffffffffffffffffffffffffffffffffffff168152602001908152602001600020549050919050565b611ad16124ee565b611adb6000613604565b565b60606018805480602002602001604051908101604052809291908181526020018280548015611b2b57602002820191906000526020600020905b815481526020019060010190808311611b17575b5050505050905090565b611b3d6124ee565b6001601660008373ffffffffffffffffffffffffffffffffffffffff1673ffffffffffffffffffffffffffffffffffffffff16815260200190815260200160002060006101000a81548160ff02191690831515021790555050565b6000600760009054906101000a900473ffffffffffffffffffffffffffffffffffffffff16905090565b3373ffffffffffffffffffffffffffffffffffffffff16611be282611917565b73ffffffffffffffffffffffffffffffffffffffff1614611c38576040517f08c379a0000000000000000000000000000000000000000000000000000000008152600401611c2f90615725565b60405180910390fd5b611c43338383611178565b5050565b606060018054611c5690614d02565b80601f0160208091040260200160405190810160405280929190818152602001828054611c8290614d02565b8015611ccf5780601f10611ca457610100808354040283529160200191611ccf565b820191906000526020600020905b815481529060010190602001808311611cb257829003601f168201915b5050505050905090565b6000601660003373ffffffffffffffffffffffffffffffffffffffff1673ffffffffffffffffffffffffffffffffffffffff16815260200190815260200160002060009054906101000a900460ff1615611d365760009050611d3c565b600c5490505b90565b600b5481565b600c5481565b611d5d611d566125b7565b83836136ca565b5050565b606060008211611da6576040517f08c379a0000000000000000000000000000000000000000000000000000000008152600401611d9d90615791565b60405180910390fd5b601580549050821115611dee576040517f08c379a0000000000000000000000000000000000000000000000000000000008152600401611de590615823565b60405180910390fd5b60008267ffffffffffffffff811115611e0a57611e096145fd565b5b604051908082528060200260200182016040528015611e385781602001602082028036833780820191505090505b5090506000611e45613836565b905060005b84811015611ecd57818181518110611e6557611e64615053565b5b6020026020010151838281518110611e8057611e7f615053565b5b602002602001019073ffffffffffffffffffffffffffffffffffffffff16908173ffffffffffffffffffffffffffffffffffffffff16815250508080611ec5906150b1565b915050611e4a565b508192505050919050565b60176020528060005260406000206000915090508060000154908060010160009054906101000a900460ff16905082565b600a8054611f1690614d02565b80601f0160208091040260200160405190810160405280929190818152602001828054611f4290614d02565b8015611f8f5780601f10611f6457610100808354040283529160200191611f8f565b820191906000526020600020905b815481529060010190602001808311611f7257829003601f168201915b505050505081565b611f9f6124ee565b80601460006101000a81548160ff02191690831515021790555050565b611fcd611fc76125b7565b83613239565b61200c576040517f08c379a00000000000000000000000000000000000000000000000000000000081526004016120039061516b565b60405180910390fd5b61201884848484613b92565b50505050565b60606120298261256c565b600060066000848152602001908152602001600020805461204990614d02565b80601f016020809104026020016040519081016040528092919081815260200182805461207590614d02565b80156120c25780601f10612097576101008083540402835291602001916120c2565b820191906000526020600020905b8154815290600101906020018083116120a557829003601f168201915b5050505050905060006120d3613bee565b905060008151036120e857819250505061212b565b60008251111561211d57808260405160200161210592919061587f565b6040516020818303038152906040529250505061212b565b61212684613c05565b925050505b919050565b6121386124ee565b600481511461217c576040517f08c379a0000000000000000000000000000000000000000000000000000000008152600401612173906158ef565b60405180910390fd5b60648160038151811061219257612191615053565b5b6020026020010151826002815181106121ae576121ad615053565b5b6020026020010151836001815181106121ca576121c9615053565b5b6020026020010151846000815181106121e6576121e5615053565b5b60200260200101516121f8919061521d565b612202919061521d565b61220c919061521d565b1461224c576040517f08c379a00000000000000000000000000000000000000000000000000000000081526004016122439061595b565b60405180910390fd5b80601890805190602001906122629291906141a6565b5050565b6000600560008473ffffffffffffffffffffffffffffffffffffffff1673ffffffffffffffffffffffffffffffffffffffff16815260200190815260200160002060008373ffffffffffffffffffffffffffffffffffffffff1673ffffffffffffffffffffffffffffffffffffffff16815260200190815260200160002060009054906101000a900460ff16905092915050565b6123026124ee565b80600c819055506001601460006101000a81548160ff02191690831515021790555050565b61232f6124ee565b600073ffffffffffffffffffffffffffffffffffffffff168173ffffffffffffffffffffffffffffffffffffffff160361239e576040517f08c379a0000000000000000000000000000000000000000000000000000000008152600401612395906159ed565b60405180910390fd5b6123a781613604565b50565b6123b26124ee565b80600b8190555050565b73f30607e0cdec7188d50d2bb384073bf1d5b02fa473ffffffffffffffffffffffffffffffffffffffff163373ffffffffffffffffffffffffffffffffffffffff161461243e576040517f08c379a000000000000000000000000000000000000000000000000000000000815260040161243590615a7f565b60405180910390fd5b60004790503373ffffffffffffffffffffffffffffffffffffffff166108fc829081150290604051600060405180830381858888f19350505050158015612489573d6000803e3d6000fd5b5050565b6000634906490660e01b7bffffffffffffffffffffffffffffffffffffffffffffffffffffffff1916827bffffffffffffffffffffffffffffffffffffffffffffffffffffffff191614806124e757506124e682613c6d565b5b9050919050565b6124f66125b7565b73ffffffffffffffffffffffffffffffffffffffff16612514611b98565b73ffffffffffffffffffffffffffffffffffffffff161461256a576040517f08c379a000000000000000000000000000000000000000000000000000000000815260040161256190615aeb565b60405180910390fd5b565b61257581612f37565b6125b4576040517f08c379a00000000000000000000000000000000000000000000000000000000081526004016125ab90615595565b60405180910390fd5b50565b600033905090565b816004600083815260200190815260200160002060006101000a81548173ffffffffffffffffffffffffffffffffffffffff021916908373ffffffffffffffffffffffffffffffffffffffff160217905550808273ffffffffffffffffffffffffffffffffffffffff1661263283611917565b73ffffffffffffffffffffffffffffffffffffffff167f8c5be1e5ebec7d5bd14f71427d1e84f3dd0314c0f7b2291e5b200ac8c7c3b92560405160405180910390a45050565b600043424433600d60009054906101000a900473ffffffffffffffffffffffffffffffffffffffff166040516020016126b5959493929190615b74565b6040516020818303038152906040528051906020012060001c905060006064826126df9190615bd3565b9050600060186000815481106126f8576126f7615053565b5b906000526020600020015482108015612712575060008210155b156127205760009050612885565b601860018154811061273557612734615053565b5b9060005260206000200154601860008154811061275557612754615053565b5b906000526020600020015461276a919061521d565b821080156127975750601860008154811061278857612787615053565b5b90600052602060002001548210155b156127a55760019050612884565b60186002815481106127ba576127b9615053565b5b906000526020600020015460186001815481106127da576127d9615053565b5b906000526020600020015460186000815481106127fa576127f9615053565b5b906000526020600020015461280f919061521d565b612819919061521d565b821080156128705750601860018154811061283757612836615053565b5b9060005260206000200154601860008154811061285757612856615053565b5b906000526020600020015461286c919061521d565b8210155b1561287e5760029050612883565b600390505b5b5b6001600e6000828254612898919061521d565b9250508190555060001515601460009054906101000a900460ff16151503612917576028601c54600e546128cc919061521d565b106128e3576512309ce54000600c81905550612916565b600a601c54600e546128f5919061521d565b1061290c576509184e72a000600c81905550612915565b6000600c819055505b5b5b83600d60006101000a81548173ffffffffffffffffffffffffffffffffffffffff021916908373ffffffffffffffffffffffffffffffffffffffff1602179055506129626009613d4f565b600061296e6009612f29565b905060606000600381111561298657612985614883565b5b83600381111561299957612998614883565b5b03612a3357601060000180546129ae90614d02565b80601f01602080910402602001604051908101604052809291908181526020018280546129da90614d02565b8015612a275780601f106129fc57610100808354040283529160200191612a27565b820191906000526020600020905b815481529060010190602001808311612a0a57829003601f168201915b50505050509050612c48565b60016003811115612a4757612a46614883565b5b836003811115612a5a57612a59614883565b5b03612af45760106001018054612a6f90614d02565b80601f0160208091040260200160405190810160405280929190818152602001828054612a9b90614d02565b8015612ae85780601f10612abd57610100808354040283529160200191612ae8565b820191906000526020600020905b815481529060010190602001808311612acb57829003601f168201915b50505050509050612c47565b60026003811115612b0857612b07614883565b5b836003811115612b1b57612b1a614883565b5b03612bb55760106002018054612b3090614d02565b80601f0160208091040260200160405190810160405280929190818152602001828054612b5c90614d02565b8015612ba95780601f10612b7e57610100808354040283529160200191612ba9565b820191906000526020600020905b815481529060010190602001808311612b8c57829003601f168201915b50505050509050612c46565b60106003018054612bc590614d02565b80601f0160208091040260200160405190810160405280929190818152602001828054612bf190614d02565b8015612c3e5780601f10612c1357610100808354040283529160200191612c3e565b820191906000526020600020905b815481529060010190602001808311612c2157829003601f168201915b505050505090505b5b5b600860009054906101000a900473ffffffffffffffffffffffffffffffffffffffff1673ffffffffffffffffffffffffffffffffffffffff16631e5769128784846040518463ffffffff1660e01b8152600401612ca793929190615c04565b600060405180830381600087803b158015612cc157600080fd5b505af1158015612cd5573d6000803e3d6000fd5b5050505060006040518060400160405280848152602001856003811115612cff57612cfe614883565b5b815250905080601760008581526020019081526020016000206000820151816000015560208201518160010160006101000a81548160ff02191690836003811115612d4d57612d4c614883565b5b0217905550905050600060158054905003612dca576015879080600181540180825580915050600190039060005260206000200160009091909190916101000a81548173ffffffffffffffffffffffffffffffffffffffff021916908373ffffffffffffffffffffffffffffffffffffffff160217905550612ed4565b6000805b601580549050811015612e68578873ffffffffffffffffffffffffffffffffffffffff1660158281548110612e0657612e05615053565b5b9060005260206000200160009054906101000a900473ffffffffffffffffffffffffffffffffffffffff1673ffffffffffffffffffffffffffffffffffffffff1603612e555760019150612e68565b8080612e60906150b1565b915050612dce565b5080612ed2576015889080600181540180825580915050600190039060005260206000200160009091909190916101000a81548173ffffffffffffffffffffffffffffffffffffffff021916908373ffffffffffffffffffffffffffffffffffffffff1602179055505b505b827fe5177288d661448b7d383a5e5f1be3886695859c8c327562a87df71d65e21ac2856003811115612f0957612f08614883565b5b42604051612f18929190615c42565b60405180910390a250505050505050565b600081600001549050919050565b60008073ffffffffffffffffffffffffffffffffffffffff16612f59836135c7565b73ffffffffffffffffffffffffffffffffffffffff1614159050919050565b600073ffffffffffffffffffffffffffffffffffffffff168273ffffffffffffffffffffffffffffffffffffffff1603612fe7576040517f08c379a0000000000000000000000000000000000000000000000000000000008152600401612fde90615cb7565b60405180910390fd5b612ff081612f37565b15613030576040517f08c379a000000000000000000000000000000000000000000000000000000000815260040161302790615d23565b60405180910390fd5b61303e600083836001613d65565b61304781612f37565b15613087576040517f08c379a000000000000000000000000000000000000000000000000000000000815260040161307e90615d23565b60405180910390fd5b6001600360008473ffffffffffffffffffffffffffffffffffffffff1673ffffffffffffffffffffffffffffffffffffffff16815260200190815260200160002060008282540192505081905550816002600083815260200190815260200160002060006101000a81548173ffffffffffffffffffffffffffffffffffffffff021916908373ffffffffffffffffffffffffffffffffffffffff160217905550808273ffffffffffffffffffffffffffffffffffffffff16600073ffffffffffffffffffffffffffffffffffffffff167fddf252ad1be2c89b69c2b068fc378daa952ba7f163c4a11628f55a4df523b3ef60405160405180910390a4613191600083836001613d6b565b5050565b61319e82612f37565b6131dd576040517f08c379a00000000000000000000000000000000000000000000000000000000081526004016131d490615db5565b60405180910390fd5b806006600084815260200190815260200160002090816131fd9190615f81565b507ff8e1a15aba9398e019f0b49df1a4fde98ee17ae345cb5f6b5e2c27f5033e8ce78260405161322d91906145d8565b60405180910390a15050565b60008061324583611917565b90508073ffffffffffffffffffffffffffffffffffffffff168473ffffffffffffffffffffffffffffffffffffffff16148061328757506132868185612266565b5b806132c557508373ffffffffffffffffffffffffffffffffffffffff166132ad84610b1d565b73ffffffffffffffffffffffffffffffffffffffff16145b91505092915050565b8273ffffffffffffffffffffffffffffffffffffffff166132ee82611917565b73ffffffffffffffffffffffffffffffffffffffff1614613344576040517f08c379a000000000000000000000000000000000000000000000000000000000815260040161333b906160c5565b60405180910390fd5b600073ffffffffffffffffffffffffffffffffffffffff168273ffffffffffffffffffffffffffffffffffffffff16036133b3576040517f08c379a00000000000000000000000000000000000000000000000000000000081526004016133aa90616157565b60405180910390fd5b6133c08383836001613d65565b8273ffffffffffffffffffffffffffffffffffffffff166133e082611917565b73ffffffffffffffffffffffffffffffffffffffff1614613436576040517f08c379a000000000000000000000000000000000000000000000000000000000815260040161342d906160c5565b60405180910390fd5b6004600082815260200190815260200160002060006101000a81549073ffffffffffffffffffffffffffffffffffffffff02191690556001600360008573ffffffffffffffffffffffffffffffffffffffff1673ffffffffffffffffffffffffffffffffffffffff168152602001908152602001600020600082825403925050819055506001600360008473ffffffffffffffffffffffffffffffffffffffff1673ffffffffffffffffffffffffffffffffffffffff16815260200190815260200160002060008282540192505081905550816002600083815260200190815260200160002060006101000a81548173ffffffffffffffffffffffffffffffffffffffff021916908373ffffffffffffffffffffffffffffffffffffffff160217905550808273ffffffffffffffffffffffffffffffffffffffff168473ffffffffffffffffffffffffffffffffffffffff167fddf252ad1be2c89b69c2b068fc378daa952ba7f163c4a11628f55a4df523b3ef60405160405180910390a46135c28383836001613d6b565b505050565b60006002600083815260200190815260200160002060009054906101000a900473ffffffffffffffffffffffffffffffffffffffff169050919050565b6000600760009054906101000a900473ffffffffffffffffffffffffffffffffffffffff16905081600760006101000a81548173ffffffffffffffffffffffffffffffffffffffff021916908373ffffffffffffffffffffffffffffffffffffffff1602179055508173ffffffffffffffffffffffffffffffffffffffff168173ffffffffffffffffffffffffffffffffffffffff167f8be0079c531659141344cd1fd0a4f28419497f9722a3daafe3b4186f6b6457e060405160405180910390a35050565b8173ffffffffffffffffffffffffffffffffffffffff168373ffffffffffffffffffffffffffffffffffffffff1603613738576040517f08c379a000000000000000000000000000000000000000000000000000000000815260040161372f906161c3565b60405180910390fd5b80600560008573ffffffffffffffffffffffffffffffffffffffff1673ffffffffffffffffffffffffffffffffffffffff16815260200190815260200160002060008473ffffffffffffffffffffffffffffffffffffffff1673ffffffffffffffffffffffffffffffffffffffff16815260200190815260200160002060006101000a81548160ff0219169083151502179055508173ffffffffffffffffffffffffffffffffffffffff168373ffffffffffffffffffffffffffffffffffffffff167f17307eab39ab6107e8899845ad3d59bd9653f200f220920489ca2b5937696c318360405161382991906142c4565b60405180910390a3505050565b6060600060158054905067ffffffffffffffff811115613859576138586145fd565b5b6040519080825280602002602001820160405280156138875781602001602082028036833780820191505090505b50905060005b6015805490508110156138cd57808282815181106138ae576138ad615053565b5b60200260200101818152505080806138c5906150b1565b91505061388d565b5060005b60016015805490506138e391906154a9565b811015613a6d5760006001826138f9919061521d565b90505b601580549050811015613a595761396a601584838151811061392157613920615053565b5b60200260200101518154811061393a57613939615053565b5b9060005260206000200160009054906101000a900473ffffffffffffffffffffffffffffffffffffffff166111bd565b6139cb601585858151811061398257613981615053565b5b60200260200101518154811061399b5761399a615053565b5b9060005260206000200160009054906101000a900473ffffffffffffffffffffffffffffffffffffffff166111bd565b1015613a46578281815181106139e4576139e3615053565b5b60200260200101518383815181106139ff576139fe615053565b5b6020026020010151848481518110613a1a57613a19615053565b5b60200260200101858481518110613a3457613a33615053565b5b60200260200101828152508281525050505b8080613a51906150b1565b9150506138fc565b508080613a65906150b1565b9150506138d1565b50600060158054905067ffffffffffffffff811115613a8f57613a8e6145fd565b5b604051908082528060200260200182016040528015613abd5781602001602082028036833780820191505090505b50905060005b601580549050811015613b89576015838281518110613ae557613ae4615053565b5b602002602001015181548110613afe57613afd615053565b5b9060005260206000200160009054906101000a900473ffffffffffffffffffffffffffffffffffffffff16828281518110613b3c57613b3b615053565b5b602002602001019073ffffffffffffffffffffffffffffffffffffffff16908173ffffffffffffffffffffffffffffffffffffffff16815250508080613b81906150b1565b915050613ac3565b50809250505090565b613b9d8484846132ce565b613ba984848484613d71565b613be8576040517f08c379a0000000000000000000000000000000000000000000000000000000008152600401613bdf90616255565b60405180910390fd5b50505050565b606060405180602001604052806000815250905090565b6060613c108261256c565b6000613c1a613bee565b90506000815111613c3a5760405180602001604052806000815250613c65565b80613c4484613ef8565b604051602001613c5592919061587f565b6040516020818303038152906040525b915050919050565b60007f80ac58cd000000000000000000000000000000000000000000000000000000007bffffffffffffffffffffffffffffffffffffffffffffffffffffffff1916827bffffffffffffffffffffffffffffffffffffffffffffffffffffffff19161480613d3857507f5b5e139f000000000000000000000000000000000000000000000000000000007bffffffffffffffffffffffffffffffffffffffffffffffffffffffff1916827bffffffffffffffffffffffffffffffffffffffffffffffffffffffff1916145b80613d485750613d4782613fc6565b5b9050919050565b6001816000016000828254019250508190555050565b50505050565b50505050565b6000613d928473ffffffffffffffffffffffffffffffffffffffff16614030565b15613eeb578373ffffffffffffffffffffffffffffffffffffffff1663150b7a02613dbb6125b7565b8786866040518563ffffffff1660e01b8152600401613ddd94939291906162ca565b6020604051808303816000875af1925050508015613e1957506040513d601f19601f82011682018060405250810190613e16919061632b565b60015b613e9b573d8060008114613e49576040519150601f19603f3d011682016040523d82523d6000602084013e613e4e565b606091505b506000815103613e93576040517f08c379a0000000000000000000000000000000000000000000000000000000008152600401613e8a90616255565b60405180910390fd5b805181602001fd5b63150b7a0260e01b7bffffffffffffffffffffffffffffffffffffffffffffffffffffffff1916817bffffffffffffffffffffffffffffffffffffffffffffffffffffffff191614915050613ef0565b600190505b949350505050565b606060006001613f0784614053565b01905060008167ffffffffffffffff811115613f2657613f256145fd565b5b6040519080825280601f01601f191660200182016040528015613f585781602001600182028036833780820191505090505b509050600082602001820190505b600115613fbb578080600190039150507f3031323334353637383961626364656600000000000000000000000000000000600a86061a8153600a8581613faf57613fae615449565b5b04945060008503613f66575b819350505050919050565b60007f01ffc9a7000000000000000000000000000000000000000000000000000000007bffffffffffffffffffffffffffffffffffffffffffffffffffffffff1916827bffffffffffffffffffffffffffffffffffffffffffffffffffffffff1916149050919050565b6000808273ffffffffffffffffffffffffffffffffffffffff163b119050919050565b600080600090507a184f03e93ff9f4daa797ed6e38ed64bf6a1f01000000000000000083106140b1577a184f03e93ff9f4daa797ed6e38ed64bf6a1f01000000000000000083816140a7576140a6615449565b5b0492506040810190505b6d04ee2d6d415b85acef810000000083106140ee576d04ee2d6d415b85acef810000000083816140e4576140e3615449565b5b0492506020810190505b662386f26fc10000831061411d57662386f26fc10000838161411357614112615449565b5b0492506010810190505b6305f5e1008310614146576305f5e100838161413c5761413b615449565b5b0492506008810190505b612710831061416b57612710838161416157614160615449565b5b0492506004810190505b6064831061418e576064838161418457614183615449565b5b0492506002810190505b600a831061419d576001810190505b80915050919050565b8280548282559060005260206000209081019282156141e2579160200282015b828111156141e15782518255916020019190600101906141c6565b5b5090506141ef91906141f3565b5090565b5b8082111561420c5760008160009055506001016141f4565b5090565b6000604051905090565b600080fd5b600080fd5b60007fffffffff0000000000000000000000000000000000000000000000000000000082169050919050565b61425981614224565b811461426457600080fd5b50565b60008135905061427681614250565b92915050565b6000602082840312156142925761429161421a565b5b60006142a084828501614267565b91505092915050565b60008115159050919050565b6142be816142a9565b82525050565b60006020820190506142d960008301846142b5565b92915050565b600073ffffffffffffffffffffffffffffffffffffffff82169050919050565b600061430a826142df565b9050919050565b61431a816142ff565b811461432557600080fd5b50565b60008135905061433781614311565b92915050565b6000602082840312156143535761435261421a565b5b600061436184828501614328565b91505092915050565b600081519050919050565b600082825260208201905092915050565b60005b838110156143a4578082015181840152602081019050614389565b60008484015250505050565b6000601f19601f8301169050919050565b60006143cc8261436a565b6143d68185614375565b93506143e6818560208601614386565b6143ef816143b0565b840191505092915050565b6000602082019050818103600083015261441481846143c1565b905092915050565b6000819050919050565b61442f8161441c565b811461443a57600080fd5b50565b60008135905061444c81614426565b92915050565b6000602082840312156144685761446761421a565b5b60006144768482850161443d565b91505092915050565b614488816142ff565b82525050565b60006020820190506144a3600083018461447f565b92915050565b600080604083850312156144c0576144bf61421a565b5b60006144ce85828601614328565b92505060206144df8582860161443d565b9150509250929050565b600081519050919050565b600082825260208201905092915050565b6000819050602082019050919050565b61451e8161441c565b82525050565b60006145308383614515565b60208301905092915050565b6000602082019050919050565b6000614554826144e9565b61455e81856144f4565b935061456983614505565b8060005b8381101561459a5781516145818882614524565b975061458c8361453c565b92505060018101905061456d565b5085935050505092915050565b600060208201905081810360008301526145c18184614549565b905092915050565b6145d28161441c565b82525050565b60006020820190506145ed60008301846145c9565b92915050565b600080fd5b600080fd5b7f4e487b7100000000000000000000000000000000000000000000000000000000600052604160045260246000fd5b614635826143b0565b810181811067ffffffffffffffff82111715614654576146536145fd565b5b80604052505050565b6000614667614210565b9050614673828261462c565b919050565b600067ffffffffffffffff821115614693576146926145fd565b5b61469c826143b0565b9050602081019050919050565b82818337600083830152505050565b60006146cb6146c684614678565b61465d565b9050828152602081018484840111156146e7576146e66145f8565b5b6146f28482856146a9565b509392505050565b600082601f83011261470f5761470e6145f3565b5b813561471f8482602086016146b8565b91505092915050565b6000806000606084860312156147415761474061421a565b5b600061474f86828701614328565b93505060206147608682870161443d565b925050604084013567ffffffffffffffff8111156147815761478061421f565b5b61478d868287016146fa565b9150509250925092565b6000806000606084860312156147b0576147af61421a565b5b60006147be86828701614328565b93505060206147cf86828701614328565b92505060406147e08682870161443d565b9150509250925092565b6147f3816142a9565b81146147fe57600080fd5b50565b600081359050614810816147ea565b92915050565b60006020828403121561482c5761482b61421a565b5b600061483a84828501614801565b91505092915050565b6000806040838503121561485a5761485961421a565b5b60006148688582860161443d565b92505060206148798582860161443d565b9150509250929050565b7f4e487b7100000000000000000000000000000000000000000000000000000000600052602160045260246000fd5b600481106148c3576148c2614883565b5b50565b60008190506148d4826148b2565b919050565b60006148e4826148c6565b9050919050565b6148f4816148d9565b82525050565b600060208201905061490f60008301846148eb565b92915050565b6000806040838503121561492c5761492b61421a565b5b600061493a85828601614328565b925050602061494b85828601614801565b9150509250929050565b600081519050919050565b600082825260208201905092915050565b6000819050602082019050919050565b61498a816142ff565b82525050565b600061499c8383614981565b60208301905092915050565b6000602082019050919050565b60006149c082614955565b6149ca8185614960565b93506149d583614971565b8060005b83811015614a065781516149ed8882614990565b97506149f8836149a8565b9250506001810190506149d9565b5085935050505092915050565b60006020820190508181036000830152614a2d81846149b5565b905092915050565b6000604082019050614a4a60008301856145c9565b614a5760208301846148eb565b9392505050565b600067ffffffffffffffff821115614a7957614a786145fd565b5b614a82826143b0565b9050602081019050919050565b6000614aa2614a9d84614a5e565b61465d565b905082815260208101848484011115614abe57614abd6145f8565b5b614ac98482856146a9565b509392505050565b600082601f830112614ae657614ae56145f3565b5b8135614af6848260208601614a8f565b91505092915050565b60008060008060808587031215614b1957614b1861421a565b5b6000614b2787828801614328565b9450506020614b3887828801614328565b9350506040614b498782880161443d565b925050606085013567ffffffffffffffff811115614b6a57614b6961421f565b5b614b7687828801614ad1565b91505092959194509250565b600067ffffffffffffffff821115614b9d57614b9c6145fd565b5b602082029050602081019050919050565b600080fd5b6000614bc6614bc184614b82565b61465d565b90508083825260208201905060208402830185811115614be957614be8614bae565b5b835b81811015614c125780614bfe888261443d565b845260208401935050602081019050614beb565b5050509392505050565b600082601f830112614c3157614c306145f3565b5b8135614c41848260208601614bb3565b91505092915050565b600060208284031215614c6057614c5f61421a565b5b600082013567ffffffffffffffff811115614c7e57614c7d61421f565b5b614c8a84828501614c1c565b91505092915050565b60008060408385031215614caa57614ca961421a565b5b6000614cb885828601614328565b9250506020614cc985828601614328565b9150509250929050565b7f4e487b7100000000000000000000000000000000000000000000000000000000600052602260045260246000fd5b60006002820490506001821680614d1a57607f821691505b602082108103614d2d57614d2c614cd3565b5b50919050565b7f4552433732313a20617070726f76616c20746f2063757272656e74206f776e6560008201527f7200000000000000000000000000000000000000000000000000000000000000602082015250565b6000614d8f602183614375565b9150614d9a82614d33565b604082019050919050565b60006020820190508181036000830152614dbe81614d82565b9050919050565b7f4552433732313a20617070726f76652063616c6c6572206973206e6f7420746f60008201527f6b656e206f776e6572206f7220617070726f76656420666f7220616c6c000000602082015250565b6000614e21603d83614375565b9150614e2c82614dc5565b604082019050919050565b60006020820190508181036000830152614e5081614e14565b9050919050565b7f5468697320636f6c6c656374696f6e206861732072656163686564207468652060008201527f6c696d6974206f66206d696e74696e6700000000000000000000000000000000602082015250565b6000614eb3603083614375565b9150614ebe82614e57565b604082019050919050565b60006020820190508181036000830152614ee281614ea6565b9050919050565b7f596f7520617265206e6f7420616c6c6f77656420746f206d696e740000000000600082015250565b6000614f1f601b83614375565b9150614f2a82614ee9565b602082019050919050565b60006020820190508181036000830152614f4e81614f12565b9050919050565b7f596f752068617665207265616368656420746865206c696d6974206f66206d6960008201527f6e74696e67000000000000000000000000000000000000000000000000000000602082015250565b6000614fb1602583614375565b9150614fbc82614f55565b604082019050919050565b60006020820190508181036000830152614fe081614fa4565b9050919050565b7f496e73756666696369656e742065746865722073656e74000000000000000000600082015250565b600061501d601783614375565b915061502882614fe7565b602082019050919050565b6000602082019050818103600083015261504c81615010565b9050919050565b7f4e487b7100000000000000000000000000000000000000000000000000000000600052603260045260246000fd5b7f4e487b7100000000000000000000000000000000000000000000000000000000600052601160045260246000fd5b60006150bc8261441c565b91507fffffffffffffffffffffffffffffffffffffffffffffffffffffffffffffffff82036150ee576150ed615082565b5b600182019050919050565b7f4552433732313a2063616c6c6572206973206e6f7420746f6b656e206f776e6560008201527f72206f7220617070726f76656400000000000000000000000000000000000000602082015250565b6000615155602d83614375565b9150615160826150f9565b604082019050919050565b6000602082019050818103600083015261518481615148565b9050919050565b7f596f752063616e206e6f7420776974686472617720617420746869732074696d60008201527f6500000000000000000000000000000000000000000000000000000000000000602082015250565b60006151e7602183614375565b91506151f28261518b565b604082019050919050565b60006020820190508181036000830152615216816151da565b9050919050565b60006152288261441c565b91506152338361441c565b925082820190508082111561524b5761524a615082565b5b92915050565b7f4e756d626572206f662077696e6e657273206d7573742062652067726561746560008201527f72207468616e207a65726f000000000000000000000000000000000000000000602082015250565b60006152ad602b83614375565b91506152b882615251565b604082019050919050565b600060208201905081810360008301526152dc816152a0565b9050919050565b7f4e756d626572206f662077696e6e657273206578636565647320746865206e7560008201527f6d626572206f66206d696e74696e672061646472657373657300000000000000602082015250565b600061533f603983614375565b915061534a826152e3565b604082019050919050565b6000602082019050818103600083015261536e81615332565b9050919050565b7f5265776172642070657263656e74616765206d7573742062652062657477656560008201527f6e203120616e6420313030000000000000000000000000000000000000000000602082015250565b60006153d1602b83614375565b91506153dc82615375565b604082019050919050565b60006020820190508181036000830152615400816153c4565b9050919050565b60006154128261441c565b915061541d8361441c565b925082820261542b8161441c565b9150828204841483151761544257615441615082565b5b5092915050565b7f4e487b7100000000000000000000000000000000000000000000000000000000600052601260045260246000fd5b60006154838261441c565b915061548e8361441c565b92508261549e5761549d615449565b5b828204905092915050565b60006154b48261441c565b91506154bf8361441c565b92508282039050818111156154d7576154d6615082565b5b92915050565b7f596f7520617265206e6f7420746865206f776e65720000000000000000000000600082015250565b6000615513601583614375565b915061551e826154dd565b602082019050919050565b6000602082019050818103600083015261554281615506565b9050919050565b7f4552433732313a20696e76616c696420746f6b656e2049440000000000000000600082015250565b600061557f601883614375565b915061558a82615549565b602082019050919050565b600060208201905081810360008301526155ae81615572565b9050919050565b7f546f6b656e20494420646f6573206e6f74206578697374000000000000000000600082015250565b60006155eb601783614375565b91506155f6826155b5565b602082019050919050565b6000602082019050818103600083015261561a816155de565b9050919050565b7f4552433732313a2061646472657373207a65726f206973206e6f74206120766160008201527f6c6964206f776e65720000000000000000000000000000000000000000000000602082015250565b600061567d602983614375565b915061568882615621565b604082019050919050565b600060208201905081810360008301526156ac81615670565b9050919050565b7f596f7520617265206e6f7420746865206f776e6572206f662074686973204e4660008201527f5400000000000000000000000000000000000000000000000000000000000000602082015250565b600061570f602183614375565b915061571a826156b3565b604082019050919050565b6000602082019050818103600083015261573e81615702565b9050919050565b7f546f70206d7573742062652067726561746572207468616e207a65726f000000600082015250565b600061577b601d83614375565b915061578682615745565b602082019050919050565b600060208201905081810360008301526157aa8161576e565b9050919050565b7f546f70206578636565647320746865206e756d626572206f66206d696e74696e60008201527f6720616464726573736573000000000000000000000000000000000000000000602082015250565b600061580d602b83614375565b9150615818826157b1565b604082019050919050565b6000602082019050818103600083015261583c81615800565b9050919050565b600081905092915050565b60006158598261436a565b6158638185615843565b9350615873818560208601614386565b80840191505092915050565b600061588b828561584e565b9150615897828461584e565b91508190509392505050565b7f526172697479206d7573742068617665203420656c656d656e74730000000000600082015250565b60006158d9601b83614375565b91506158e4826158a3565b602082019050919050565b60006020820190508181036000830152615908816158cc565b9050919050565b7f5468652073756d206f6620726172697479206d75737420626520313030000000600082015250565b6000615945601d83614375565b91506159508261590f565b602082019050919050565b6000602082019050818103600083015261597481615938565b9050919050565b7f4f776e61626c653a206e6577206f776e657220697320746865207a65726f206160008201527f6464726573730000000000000000000000000000000000000000000000000000602082015250565b60006159d7602683614375565b91506159e28261597b565b604082019050919050565b60006020820190508181036000830152615a06816159ca565b9050919050565b7f4f6e6c79207468652064657369676e6174656420616464726573732063616e2060008201527f7769746864726177000000000000000000000000000000000000000000000000602082015250565b6000615a69602883614375565b9150615a7482615a0d565b604082019050919050565b60006020820190508181036000830152615a9881615a5c565b9050919050565b7f4f776e61626c653a2063616c6c6572206973206e6f7420746865206f776e6572600082015250565b6000615ad5602083614375565b9150615ae082615a9f565b602082019050919050565b60006020820190508181036000830152615b0481615ac8565b9050919050565b6000819050919050565b615b26615b218261441c565b615b0b565b82525050565b60008160601b9050919050565b6000615b4482615b2c565b9050919050565b6000615b5682615b39565b9050919050565b615b6e615b69826142ff565b615b4b565b82525050565b6000615b808288615b15565b602082019150615b908287615b15565b602082019150615ba08286615b15565b602082019150615bb08285615b5d565b601482019150615bc08284615b5d565b6014820191508190509695505050505050565b6000615bde8261441c565b9150615be98361441c565b925082615bf957615bf8615449565b5b828206905092915050565b6000606082019050615c19600083018661447f565b615c2660208301856145c9565b8181036040830152615c3881846143c1565b9050949350505050565b6000604082019050615c5760008301856145c9565b615c6460208301846145c9565b9392505050565b7f4552433732313a206d696e7420746f20746865207a65726f2061646472657373600082015250565b6000615ca1602083614375565b9150615cac82615c6b565b602082019050919050565b60006020820190508181036000830152615cd081615c94565b9050919050565b7f4552433732313a20746f6b656e20616c7265616479206d696e74656400000000600082015250565b6000615d0d601c83614375565b9150615d1882615cd7565b602082019050919050565b60006020820190508181036000830152615d3c81615d00565b9050919050565b7f45524337323155524953746f726167653a2055524920736574206f66206e6f6e60008201527f6578697374656e7420746f6b656e000000000000000000000000000000000000602082015250565b6000615d9f602e83614375565b9150615daa82615d43565b604082019050919050565b60006020820190508181036000830152615dce81615d92565b9050919050565b60008190508160005260206000209050919050565b60006020601f8301049050919050565b600082821b905092915050565b600060088302615e377fffffffffffffffffffffffffffffffffffffffffffffffffffffffffffffffff82615dfa565b615e418683615dfa565b95508019841693508086168417925050509392505050565b6000819050919050565b6000615e7e615e79615e748461441c565b615e59565b61441c565b9050919050565b6000819050919050565b615e9883615e63565b615eac615ea482615e85565b848454615e07565b825550505050565b600090565b615ec1615eb4565b615ecc818484615e8f565b505050565b5b81811015615ef057615ee5600082615eb9565b600181019050615ed2565b5050565b601f821115615f3557615f0681615dd5565b615f0f84615dea565b81016020851015615f1e578190505b615f32615f2a85615dea565b830182615ed1565b50505b505050565b600082821c905092915050565b6000615f5860001984600802615f3a565b1980831691505092915050565b6000615f718383615f47565b9150826002028217905092915050565b615f8a8261436a565b67ffffffffffffffff811115615fa357615fa26145fd565b5b615fad8254614d02565b615fb8828285615ef4565b600060209050601f831160018114615feb5760008415615fd9578287015190505b615fe38582615f65565b86555061604b565b601f198416615ff986615dd5565b60005b8281101561602157848901518255600182019150602085019450602081019050615ffc565b8683101561603e578489015161603a601f891682615f47565b8355505b6001600288020188555050505b505050505050565b7f4552433732313a207472616e736665722066726f6d20696e636f72726563742060008201527f6f776e6572000000000000000000000000000000000000000000000000000000602082015250565b60006160af602583614375565b91506160ba82616053565b604082019050919050565b600060208201905081810360008301526160de816160a2565b9050919050565b7f4552433732313a207472616e7366657220746f20746865207a65726f2061646460008201527f7265737300000000000000000000000000000000000000000000000000000000602082015250565b6000616141602483614375565b915061614c826160e5565b604082019050919050565b6000602082019050818103600083015261617081616134565b9050919050565b7f4552433732313a20617070726f766520746f2063616c6c657200000000000000600082015250565b60006161ad601983614375565b91506161b882616177565b602082019050919050565b600060208201905081810360008301526161dc816161a0565b9050919050565b7f4552433732313a207472616e7366657220746f206e6f6e20455243373231526560008201527f63656976657220696d706c656d656e7465720000000000000000000000000000602082015250565b600061623f603283614375565b915061624a826161e3565b604082019050919050565b6000602082019050818103600083015261626e81616232565b9050919050565b600081519050919050565b600082825260208201905092915050565b600061629c82616275565b6162a68185616280565b93506162b6818560208601614386565b6162bf816143b0565b840191505092915050565b60006080820190506162df600083018761447f565b6162ec602083018661447f565b6162f960408301856145c9565b818103606083015261630b8184616291565b905095945050505050565b60008151905061632581614250565b92915050565b6000602082840312156163415761634061421a565b5b600061634f84828501616316565b9150509291505056fea2646970667358221220a478c396843773150e45c4c06851c462c6e29b8b45a83d017ab0209ef8eaff9164736f6c6343000812003368747470733a2f2f697066732e696f2f697066732f516d636144524b6235634d35434e3647444d425977346d334474557548565a366653654371695639594d715a77773f66696c656e616d653d4e4654302e6a736f6e68747470733a2f2f697066732e696f2f697066732f516d634a314641445757465775704838334b50566d633171684e416d694b6d48624d356735546a767452673965353f66696c656e616d653d4e4654312e6a736f6e68747470733a2f2f697066732e696f2f697066732f516d5467714d64374d594e4c4e47517968737a45506777636169756d5935346b3939745a4e6162466471596956663f66696c656e616d653d4e4654322e6a736f6e68747470733a2f2f697066732e696f2f697066732f516d52516d4c6d6f78433861436f44556b537155544b75734733743270354d64745531716a4741473973734c35753f66696c656e616d653d4e4654332e6a736f6e","opcodes":"PUSH1 0x80 PUSH1 0x40 MSTORE PUSH1 0x40 MLOAD DUP1 PUSH1 0x80 ADD PUSH1 0x40 MSTORE DUP1 PUSH1 0x40 MLOAD DUP1 PUSH1 0x80 ADD PUSH1 0x40 MSTORE DUP1 PUSH1 0x56 DUP2 MSTORE PUSH1 0x20 ADD PUSH3 0x6C45 PUSH1 0x56 SWAP2 CODECOPY DUP2 MSTORE PUSH1 0x20 ADD PUSH1 0x40 MLOAD DUP1 PUSH1 0x80 ADD PUSH1 0x40 MSTORE DUP1 PUSH1 0x56 DUP2 MSTORE PUSH1 0x20 ADD PUSH3 0x6C9B PUSH1 0x56 SWAP2 CODECOPY DUP2 MSTORE PUSH1 0x20 ADD PUSH1 0x40 MLOAD DUP1 PUSH1 0x80 ADD PUSH1 0x40 MSTORE DUP1 PUSH1 0x56 DUP2 MSTORE PUSH1 0x20 ADD PUSH3 0x6CF1 PUSH1 0x56 SWAP2 CODECOPY DUP2 MSTORE PUSH1 0x20 ADD PUSH1 0x40 MLOAD DUP1 PUSH1 0x80 ADD PUSH1 0x40 MSTORE DUP1 PUSH1 0x56 DUP2 MSTORE PUSH1 0x20 ADD PUSH3 0x6D47 PUSH1 0x56 SWAP2 CODECOPY DUP2 MSTORE POP PUSH1 0x10 PUSH1 0x0 DUP3 ADD MLOAD DUP2 PUSH1 0x0 ADD SWAP1 DUP2 PUSH3 0xA2 SWAP2 SWAP1 PUSH3 0x70F JUMP JUMPDEST POP PUSH1 0x20 DUP3 ADD MLOAD DUP2 PUSH1 0x1 ADD SWAP1 DUP2 PUSH3 0xBA SWAP2 SWAP1 PUSH3 0x70F JUMP JUMPDEST POP PUSH1 0x40 DUP3 ADD MLOAD DUP2 PUSH1 0x2 ADD SWAP1 DUP2 PUSH3 0xD2 SWAP2 SWAP1 PUSH3 0x70F JUMP JUMPDEST POP PUSH1 0x60 DUP3 ADD MLOAD DUP2 PUSH1 0x3 ADD SWAP1 DUP2 PUSH3 0xEA SWAP2 SWAP1 PUSH3 0x70F JUMP JUMPDEST POP POP POP PUSH1 0x0 PUSH1 0x14 PUSH1 0x0 PUSH2 0x100 EXP DUP2 SLOAD DUP2 PUSH1 0xFF MUL NOT AND SWAP1 DUP4 ISZERO ISZERO MUL OR SWAP1 SSTORE POP CALLVALUE DUP1 ISZERO PUSH3 0x115 JUMPI PUSH1 0x0 DUP1 REVERT JUMPDEST POP PUSH1 0x40 MLOAD PUSH3 0x6D9D CODESIZE SUB DUP1 PUSH3 0x6D9D DUP4 CODECOPY DUP2 DUP2 ADD PUSH1 0x40 MSTORE DUP2 ADD SWAP1 PUSH3 0x13B SWAP2 SWAP1 PUSH3 0x860 JUMP JUMPDEST PUSH1 0x40 MLOAD DUP1 PUSH1 0x40 ADD PUSH1 0x40 MSTORE DUP1 PUSH1 0x9 DUP2 MSTORE PUSH1 0x20 ADD PUSH32 0x4261736963204E46540000000000000000000000000000000000000000000000 DUP2 MSTORE POP PUSH1 0x40 MLOAD DUP1 PUSH1 0x40 ADD PUSH1 0x40 MSTORE DUP1 PUSH1 0x4 DUP2 MSTORE PUSH1 0x20 ADD PUSH32 0x424E465400000000000000000000000000000000000000000000000000000000 DUP2 MSTORE POP DUP2 PUSH1 0x0 SWAP1 DUP2 PUSH3 0x1B8 SWAP2 SWAP1 PUSH3 0x70F JUMP JUMPDEST POP DUP1 PUSH1 0x1 SWAP1 DUP2 PUSH3 0x1CA SWAP2 SWAP1 PUSH3 0x70F JUMP JUMPDEST POP POP POP PUSH3 0x1ED PUSH3 0x1E1 PUSH3 0x3C7 PUSH1 0x20 SHL PUSH1 0x20 SHR JUMP JUMPDEST PUSH3 0x3CF PUSH1 0x20 SHL PUSH1 0x20 SHR JUMP JUMPDEST PUSH1 0xA PUSH1 0xB DUP2 SWAP1 SSTORE POP CALLER PUSH1 0xD PUSH1 0x0 PUSH2 0x100 EXP DUP2 SLOAD DUP2 PUSH20 0xFFFFFFFFFFFFFFFFFFFFFFFFFFFFFFFFFFFFFFFF MUL NOT AND SWAP1 DUP4 PUSH20 0xFFFFFFFFFFFFFFFFFFFFFFFFFFFFFFFFFFFFFFFF AND MUL OR SWAP1 SSTORE POP PUSH1 0x0 PUSH1 0xE DUP2 SWAP1 SSTORE POP PUSH1 0x0 PUSH1 0xC DUP2 SWAP1 SSTORE POP PUSH1 0x18 PUSH1 0x3C SWAP1 DUP1 PUSH1 0x1 DUP2 SLOAD ADD DUP1 DUP3 SSTORE DUP1 SWAP2 POP POP PUSH1 0x1 SWAP1 SUB SWAP1 PUSH1 0x0 MSTORE PUSH1 0x20 PUSH1 0x0 KECCAK256 ADD PUSH1 0x0 SWAP1 SWAP2 SWAP1 SWAP2 SWAP1 SWAP2 POP SSTORE PUSH1 0x18 PUSH1 0x19 SWAP1 DUP1 PUSH1 0x1 DUP2 SLOAD ADD DUP1 DUP3 SSTORE DUP1 SWAP2 POP POP PUSH1 0x1 SWAP1 SUB SWAP1 PUSH1 0x0 MSTORE PUSH1 0x20 PUSH1 0x0 KECCAK256 ADD PUSH1 0x0 SWAP1 SWAP2 SWAP1 SWAP2 SWAP1 SWAP2 POP SSTORE PUSH1 0x18 PUSH1 0xA SWAP1 DUP1 PUSH1 0x1 DUP2 SLOAD ADD DUP1 DUP3 SSTORE DUP1 SWAP2 POP POP PUSH1 0x1 SWAP1 SUB SWAP1 PUSH1 0x0 MSTORE PUSH1 0x20 PUSH1 0x0 KECCAK256 ADD PUSH1 0x0 SWAP1 SWAP2 SWAP1 SWAP2 SWAP1 SWAP2 POP SSTORE PUSH1 0x18 PUSH1 0x5 SWAP1 DUP1 PUSH1 0x1 DUP2 SLOAD ADD DUP1 DUP3 SSTORE DUP1 SWAP2 POP POP PUSH1 0x1 SWAP1 SUB SWAP1 PUSH1 0x0 MSTORE PUSH1 0x20 PUSH1 0x0 KECCAK256 ADD PUSH1 0x0 SWAP1 SWAP2 SWAP1 SWAP2 SWAP1 SWAP2 POP SSTORE PUSH1 0x0 PUSH1 0x19 PUSH1 0x0 PUSH2 0x100 EXP DUP2 SLOAD DUP2 PUSH1 0xFF MUL NOT AND SWAP1 DUP4 ISZERO ISZERO MUL OR SWAP1 SSTORE POP DUP2 PUSH1 0x19 PUSH1 0x1 PUSH2 0x100 EXP DUP2 SLOAD DUP2 PUSH20 0xFFFFFFFFFFFFFFFFFFFFFFFFFFFFFFFFFFFFFFFF MUL NOT AND SWAP1 DUP4 PUSH20 0xFFFFFFFFFFFFFFFFFFFFFFFFFFFFFFFFFFFFFFFF AND MUL OR SWAP1 SSTORE POP PUSH1 0x64 PUSH1 0x1A DUP2 SWAP1 SSTORE POP PUSH1 0x0 PUSH1 0x1B PUSH1 0x0 PUSH2 0x100 EXP DUP2 SLOAD DUP2 PUSH1 0xFF MUL NOT AND SWAP1 DUP4 ISZERO ISZERO MUL OR SWAP1 SSTORE POP PUSH2 0x4E20 PUSH1 0xF DUP2 SWAP1 SSTORE POP PUSH1 0x14 PUSH1 0x1C DUP2 SWAP1 SSTORE POP DUP1 PUSH1 0x8 PUSH1 0x0 PUSH2 0x100 EXP DUP2 SLOAD DUP2 PUSH20 0xFFFFFFFFFFFFFFFFFFFFFFFFFFFFFFFFFFFFFFFF MUL NOT AND SWAP1 DUP4 PUSH20 0xFFFFFFFFFFFFFFFFFFFFFFFFFFFFFFFFFFFFFFFF AND MUL OR SWAP1 SSTORE POP POP POP PUSH3 0x8A7 JUMP JUMPDEST PUSH1 0x0 CALLER SWAP1 POP SWAP1 JUMP JUMPDEST PUSH1 0x0 PUSH1 0x7 PUSH1 0x0 SWAP1 SLOAD SWAP1 PUSH2 0x100 EXP SWAP1 DIV PUSH20 0xFFFFFFFFFFFFFFFFFFFFFFFFFFFFFFFFFFFFFFFF AND SWAP1 POP DUP2 PUSH1 0x7 PUSH1 0x0 PUSH2 0x100 EXP DUP2 SLOAD DUP2 PUSH20 0xFFFFFFFFFFFFFFFFFFFFFFFFFFFFFFFFFFFFFFFF MUL NOT AND SWAP1 DUP4 PUSH20 0xFFFFFFFFFFFFFFFFFFFFFFFFFFFFFFFFFFFFFFFF AND MUL OR SWAP1 SSTORE POP DUP2 PUSH20 0xFFFFFFFFFFFFFFFFFFFFFFFFFFFFFFFFFFFFFFFF AND DUP2 PUSH20 0xFFFFFFFFFFFFFFFFFFFFFFFFFFFFFFFFFFFFFFFF AND PUSH32 0x8BE0079C531659141344CD1FD0A4F28419497F9722A3DAAFE3B4186F6B6457E0 PUSH1 0x40 MLOAD PUSH1 0x40 MLOAD DUP1 SWAP2 SUB SWAP1 LOG3 POP POP JUMP JUMPDEST PUSH1 0x0 DUP2 MLOAD SWAP1 POP SWAP2 SWAP1 POP JUMP JUMPDEST PUSH32 0x4E487B7100000000000000000000000000000000000000000000000000000000 PUSH1 0x0 MSTORE PUSH1 0x41 PUSH1 0x4 MSTORE PUSH1 0x24 PUSH1 0x0 REVERT JUMPDEST PUSH32 0x4E487B7100000000000000000000000000000000000000000000000000000000 PUSH1 0x0 MSTORE PUSH1 0x22 PUSH1 0x4 MSTORE PUSH1 0x24 PUSH1 0x0 REVERT JUMPDEST PUSH1 0x0 PUSH1 0x2 DUP3 DIV SWAP1 POP PUSH1 0x1 DUP3 AND DUP1 PUSH3 0x517 JUMPI PUSH1 0x7F DUP3 AND SWAP2 POP JUMPDEST PUSH1 0x20 DUP3 LT DUP2 SUB PUSH3 0x52D JUMPI PUSH3 0x52C PUSH3 0x4CF JUMP JUMPDEST JUMPDEST POP SWAP2 SWAP1 POP JUMP JUMPDEST PUSH1 0x0 DUP2 SWAP1 POP DUP2 PUSH1 0x0 MSTORE PUSH1 0x20 PUSH1 0x0 KECCAK256 SWAP1 POP SWAP2 SWAP1 POP JUMP JUMPDEST PUSH1 0x0 PUSH1 0x20 PUSH1 0x1F DUP4 ADD DIV SWAP1 POP SWAP2 SWAP1 POP JUMP JUMPDEST PUSH1 0x0 DUP3 DUP3 SHL SWAP1 POP SWAP3 SWAP2 POP POP JUMP JUMPDEST PUSH1 0x0 PUSH1 0x8 DUP4 MUL PUSH3 0x597 PUSH32 0xFFFFFFFFFFFFFFFFFFFFFFFFFFFFFFFFFFFFFFFFFFFFFFFFFFFFFFFFFFFFFFFF DUP3 PUSH3 0x558 JUMP JUMPDEST PUSH3 0x5A3 DUP7 DUP4 PUSH3 0x558 JUMP JUMPDEST SWAP6 POP DUP1 NOT DUP5 AND SWAP4 POP DUP1 DUP7 AND DUP5 OR SWAP3 POP POP POP SWAP4 SWAP3 POP POP POP JUMP JUMPDEST PUSH1 0x0 DUP2 SWAP1 POP SWAP2 SWAP1 POP JUMP JUMPDEST PUSH1 0x0 DUP2 SWAP1 POP SWAP2 SWAP1 POP JUMP JUMPDEST PUSH1 0x0 PUSH3 0x5F0 PUSH3 0x5EA PUSH3 0x5E4 DUP5 PUSH3 0x5BB JUMP JUMPDEST PUSH3 0x5C5 JUMP JUMPDEST PUSH3 0x5BB JUMP JUMPDEST SWAP1 POP SWAP2 SWAP1 POP JUMP JUMPDEST PUSH1 0x0 DUP2 SWAP1 POP SWAP2 SWAP1 POP JUMP JUMPDEST PUSH3 0x60C DUP4 PUSH3 0x5CF JUMP JUMPDEST PUSH3 0x624 PUSH3 0x61B DUP3 PUSH3 0x5F7 JUMP JUMPDEST DUP5 DUP5 SLOAD PUSH3 0x565 JUMP JUMPDEST DUP3 SSTORE POP POP POP POP JUMP JUMPDEST PUSH1 0x0 SWAP1 JUMP JUMPDEST PUSH3 0x63B PUSH3 0x62C JUMP JUMPDEST PUSH3 0x648 DUP2 DUP5 DUP5 PUSH3 0x601 JUMP JUMPDEST POP POP POP JUMP JUMPDEST JUMPDEST DUP2 DUP2 LT ISZERO PUSH3 0x670 JUMPI PUSH3 0x664 PUSH1 0x0 DUP3 PUSH3 0x631 JUMP JUMPDEST PUSH1 0x1 DUP2 ADD SWAP1 POP PUSH3 0x64E JUMP JUMPDEST POP POP JUMP JUMPDEST PUSH1 0x1F DUP3 GT ISZERO PUSH3 0x6BF JUMPI PUSH3 0x689 DUP2 PUSH3 0x533 JUMP JUMPDEST PUSH3 0x694 DUP5 PUSH3 0x548 JUMP JUMPDEST DUP2 ADD PUSH1 0x20 DUP6 LT ISZERO PUSH3 0x6A4 JUMPI DUP2 SWAP1 POP JUMPDEST PUSH3 0x6BC PUSH3 0x6B3 DUP6 PUSH3 0x548 JUMP JUMPDEST DUP4 ADD DUP3 PUSH3 0x64D JUMP JUMPDEST POP POP JUMPDEST POP POP POP JUMP JUMPDEST PUSH1 0x0 DUP3 DUP3 SHR SWAP1 POP SWAP3 SWAP2 POP POP JUMP JUMPDEST PUSH1 0x0 PUSH3 0x6E4 PUSH1 0x0 NOT DUP5 PUSH1 0x8 MUL PUSH3 0x6C4 JUMP JUMPDEST NOT DUP1 DUP4 AND SWAP2 POP POP SWAP3 SWAP2 POP POP JUMP JUMPDEST PUSH1 0x0 PUSH3 0x6FF DUP4 DUP4 PUSH3 0x6D1 JUMP JUMPDEST SWAP2 POP DUP3 PUSH1 0x2 MUL DUP3 OR SWAP1 POP SWAP3 SWAP2 POP POP JUMP JUMPDEST PUSH3 0x71A DUP3 PUSH3 0x495 JUMP JUMPDEST PUSH8 0xFFFFFFFFFFFFFFFF DUP2 GT ISZERO PUSH3 0x736 JUMPI PUSH3 0x735 PUSH3 0x4A0 JUMP JUMPDEST JUMPDEST PUSH3 0x742 DUP3 SLOAD PUSH3 0x4FE JUMP JUMPDEST PUSH3 0x74F DUP3 DUP3 DUP6 PUSH3 0x674 JUMP JUMPDEST PUSH1 0x0 PUSH1 0x20 SWAP1 POP PUSH1 0x1F DUP4 GT PUSH1 0x1 DUP2 EQ PUSH3 0x787 JUMPI PUSH1 0x0 DUP5 ISZERO PUSH3 0x772 JUMPI DUP3 DUP8 ADD MLOAD SWAP1 POP JUMPDEST PUSH3 0x77E DUP6 DUP3 PUSH3 0x6F1 JUMP JUMPDEST DUP7 SSTORE POP PUSH3 0x7EE JUMP JUMPDEST PUSH1 0x1F NOT DUP5 AND PUSH3 0x797 DUP7 PUSH3 0x533 JUMP JUMPDEST PUSH1 0x0 JUMPDEST DUP3 DUP2 LT ISZERO PUSH3 0x7C1 JUMPI DUP5 DUP10 ADD MLOAD DUP3 SSTORE PUSH1 0x1 DUP3 ADD SWAP2 POP PUSH1 0x20 DUP6 ADD SWAP5 POP PUSH1 0x20 DUP2 ADD SWAP1 POP PUSH3 0x79A JUMP JUMPDEST DUP7 DUP4 LT ISZERO PUSH3 0x7E1 JUMPI DUP5 DUP10 ADD MLOAD PUSH3 0x7DD PUSH1 0x1F DUP10 AND DUP3 PUSH3 0x6D1 JUMP JUMPDEST DUP4 SSTORE POP JUMPDEST PUSH1 0x1 PUSH1 0x2 DUP9 MUL ADD DUP9 SSTORE POP POP POP JUMPDEST POP POP POP POP POP POP JUMP JUMPDEST PUSH1 0x0 DUP1 REVERT JUMPDEST PUSH1 0x0 PUSH20 0xFFFFFFFFFFFFFFFFFFFFFFFFFFFFFFFFFFFFFFFF DUP3 AND SWAP1 POP SWAP2 SWAP1 POP JUMP JUMPDEST PUSH1 0x0 PUSH3 0x828 DUP3 PUSH3 0x7FB JUMP JUMPDEST SWAP1 POP SWAP2 SWAP1 POP JUMP JUMPDEST PUSH3 0x83A DUP2 PUSH3 0x81B JUMP JUMPDEST DUP2 EQ PUSH3 0x846 JUMPI PUSH1 0x0 DUP1 REVERT JUMPDEST POP JUMP JUMPDEST PUSH1 0x0 DUP2 MLOAD SWAP1 POP PUSH3 0x85A DUP2 PUSH3 0x82F JUMP JUMPDEST SWAP3 SWAP2 POP POP JUMP JUMPDEST PUSH1 0x0 DUP1 PUSH1 0x40 DUP4 DUP6 SUB SLT ISZERO PUSH3 0x87A JUMPI PUSH3 0x879 PUSH3 0x7F6 JUMP JUMPDEST JUMPDEST PUSH1 0x0 PUSH3 0x88A DUP6 DUP3 DUP7 ADD PUSH3 0x849 JUMP JUMPDEST SWAP3 POP POP PUSH1 0x20 PUSH3 0x89D DUP6 DUP3 DUP7 ADD PUSH3 0x849 JUMP JUMPDEST SWAP2 POP POP SWAP3 POP SWAP3 SWAP1 POP JUMP JUMPDEST PUSH2 0x638E DUP1 PUSH3 0x8B7 PUSH1 0x0 CODECOPY PUSH1 0x0 RETURN INVALID PUSH1 0x80 PUSH1 0x40 MSTORE PUSH1 0x4 CALLDATASIZE LT PUSH2 0x267 JUMPI PUSH1 0x0 CALLDATALOAD PUSH1 0xE0 SHR DUP1 PUSH4 0x715018A6 GT PUSH2 0x144 JUMPI DUP1 PUSH4 0xA3C0B95B GT PUSH2 0xB6 JUMPI DUP1 PUSH4 0xE1D031F5 GT PUSH2 0x7A JUMPI DUP1 PUSH4 0xE1D031F5 EQ PUSH2 0x91E JUMPI DUP1 PUSH4 0xE985E9C5 EQ PUSH2 0x947 JUMPI DUP1 PUSH4 0xEBB24C32 EQ PUSH2 0x984 JUMPI DUP1 PUSH4 0xF2FDE38B EQ PUSH2 0x9AD JUMPI DUP1 PUSH4 0xF4F3B059 EQ PUSH2 0x9D6 JUMPI DUP1 PUSH4 0xF8A8FD6D EQ PUSH2 0x9FF JUMPI PUSH2 0x267 JUMP JUMPDEST DUP1 PUSH4 0xA3C0B95B EQ PUSH2 0x826 JUMPI DUP1 PUSH4 0xB63B3D57 EQ PUSH2 0x864 JUMPI DUP1 PUSH4 0xB784902E EQ PUSH2 0x88F JUMPI DUP1 PUSH4 0xB88D4FDE EQ PUSH2 0x8B8 JUMPI DUP1 PUSH4 0xC87B56DD EQ PUSH2 0x8E1 JUMPI PUSH2 0x267 JUMP JUMPDEST DUP1 PUSH4 0x95D89B41 GT PUSH2 0x108 JUMPI DUP1 PUSH4 0x95D89B41 EQ PUSH2 0x714 JUMPI DUP1 PUSH4 0x98D5FDCA EQ PUSH2 0x73F JUMPI DUP1 PUSH4 0x9B525924 EQ PUSH2 0x76A JUMPI DUP1 PUSH4 0xA035B1FE EQ PUSH2 0x795 JUMPI DUP1 PUSH4 0xA22CB465 EQ PUSH2 0x7C0 JUMPI DUP1 PUSH4 0xA23AF5CB EQ PUSH2 0x7E9 JUMPI PUSH2 0x267 JUMP JUMPDEST DUP1 PUSH4 0x715018A6 EQ PUSH2 0x655 JUMPI DUP1 PUSH4 0x7B32CDBA EQ PUSH2 0x66C JUMPI DUP1 PUSH4 0x84028697 EQ PUSH2 0x697 JUMPI DUP1 PUSH4 0x8DA5CB5B EQ PUSH2 0x6C0 JUMPI DUP1 PUSH4 0x94AB67FE EQ PUSH2 0x6EB JUMPI PUSH2 0x267 JUMP JUMPDEST DUP1 PUSH4 0x2724D591 GT PUSH2 0x1DD JUMPI DUP1 PUSH4 0x4FF531B6 GT PUSH2 0x1A1 JUMPI DUP1 PUSH4 0x4FF531B6 EQ PUSH2 0x50F JUMPI DUP1 PUSH4 0x52CB5133 EQ PUSH2 0x54C JUMPI DUP1 PUSH4 0x5B7C0DC7 EQ PUSH2 0x575 JUMPI DUP1 PUSH4 0x6352211E EQ PUSH2 0x59E JUMPI DUP1 PUSH4 0x6C5BF32E EQ PUSH2 0x5DB JUMPI DUP1 PUSH4 0x70A08231 EQ PUSH2 0x618 JUMPI PUSH2 0x267 JUMP JUMPDEST DUP1 PUSH4 0x2724D591 EQ PUSH2 0x452 JUMPI DUP1 PUSH4 0x28EF5EC5 EQ PUSH2 0x47B JUMPI DUP1 PUSH4 0x3CCFD60B EQ PUSH2 0x4A6 JUMPI DUP1 PUSH4 0x42842E0E EQ PUSH2 0x4BD JUMPI DUP1 PUSH4 0x4759A421 EQ PUSH2 0x4E6 JUMPI PUSH2 0x267 JUMP JUMPDEST DUP1 PUSH4 0x14F710FE GT PUSH2 0x22F JUMPI DUP1 PUSH4 0x14F710FE EQ PUSH2 0x363 JUMPI DUP1 PUSH4 0x18148F1B EQ PUSH2 0x36D JUMPI DUP1 PUSH4 0x18160DDD EQ PUSH2 0x3AA JUMPI DUP1 PUSH4 0x1B163A9D EQ PUSH2 0x3D5 JUMPI DUP1 PUSH4 0x1E576912 EQ PUSH2 0x400 JUMPI DUP1 PUSH4 0x23B872DD EQ PUSH2 0x429 JUMPI PUSH2 0x267 JUMP JUMPDEST DUP1 PUSH4 0x1FFC9A7 EQ PUSH2 0x26C JUMPI DUP1 PUSH4 0x4890B24 EQ PUSH2 0x2A9 JUMPI DUP1 PUSH4 0x6FDDE03 EQ PUSH2 0x2D2 JUMPI DUP1 PUSH4 0x81812FC EQ PUSH2 0x2FD JUMPI DUP1 PUSH4 0x95EA7B3 EQ PUSH2 0x33A JUMPI JUMPDEST PUSH1 0x0 DUP1 REVERT JUMPDEST CALLVALUE DUP1 ISZERO PUSH2 0x278 JUMPI PUSH1 0x0 DUP1 REVERT JUMPDEST POP PUSH2 0x293 PUSH1 0x4 DUP1 CALLDATASIZE SUB DUP2 ADD SWAP1 PUSH2 0x28E SWAP2 SWAP1 PUSH2 0x427C JUMP JUMPDEST PUSH2 0xA16 JUMP JUMPDEST PUSH1 0x40 MLOAD PUSH2 0x2A0 SWAP2 SWAP1 PUSH2 0x42C4 JUMP JUMPDEST PUSH1 0x40 MLOAD DUP1 SWAP2 SUB SWAP1 RETURN JUMPDEST CALLVALUE DUP1 ISZERO PUSH2 0x2B5 JUMPI PUSH1 0x0 DUP1 REVERT JUMPDEST POP PUSH2 0x2D0 PUSH1 0x4 DUP1 CALLDATASIZE SUB DUP2 ADD SWAP1 PUSH2 0x2CB SWAP2 SWAP1 PUSH2 0x433D JUMP JUMPDEST PUSH2 0xA28 JUMP JUMPDEST STOP JUMPDEST CALLVALUE DUP1 ISZERO PUSH2 0x2DE JUMPI PUSH1 0x0 DUP1 REVERT JUMPDEST POP PUSH2 0x2E7 PUSH2 0xA8B JUMP JUMPDEST PUSH1 0x40 MLOAD PUSH2 0x2F4 SWAP2 SWAP1 PUSH2 0x43FA JUMP JUMPDEST PUSH1 0x40 MLOAD DUP1 SWAP2 SUB SWAP1 RETURN JUMPDEST CALLVALUE DUP1 ISZERO PUSH2 0x309 JUMPI PUSH1 0x0 DUP1 REVERT JUMPDEST POP PUSH2 0x324 PUSH1 0x4 DUP1 CALLDATASIZE SUB DUP2 ADD SWAP1 PUSH2 0x31F SWAP2 SWAP1 PUSH2 0x4452 JUMP JUMPDEST PUSH2 0xB1D JUMP JUMPDEST PUSH1 0x40 MLOAD PUSH2 0x331 SWAP2 SWAP1 PUSH2 0x448E JUMP JUMPDEST PUSH1 0x40 MLOAD DUP1 SWAP2 SUB SWAP1 RETURN JUMPDEST CALLVALUE DUP1 ISZERO PUSH2 0x346 JUMPI PUSH1 0x0 DUP1 REVERT JUMPDEST POP PUSH2 0x361 PUSH1 0x4 DUP1 CALLDATASIZE SUB DUP2 ADD SWAP1 PUSH2 0x35C SWAP2 SWAP1 PUSH2 0x44A9 JUMP JUMPDEST PUSH2 0xB63 JUMP JUMPDEST STOP JUMPDEST PUSH2 0x36B PUSH2 0xC7A JUMP JUMPDEST STOP JUMPDEST CALLVALUE DUP1 ISZERO PUSH2 0x379 JUMPI PUSH1 0x0 DUP1 REVERT JUMPDEST POP PUSH2 0x394 PUSH1 0x4 DUP1 CALLDATASIZE SUB DUP2 ADD SWAP1 PUSH2 0x38F SWAP2 SWAP1 PUSH2 0x433D JUMP JUMPDEST PUSH2 0xEE9 JUMP JUMPDEST PUSH1 0x40 MLOAD PUSH2 0x3A1 SWAP2 SWAP1 PUSH2 0x45A7 JUMP JUMPDEST PUSH1 0x40 MLOAD DUP1 SWAP2 SUB SWAP1 RETURN JUMPDEST CALLVALUE DUP1 ISZERO PUSH2 0x3B6 JUMPI PUSH1 0x0 DUP1 REVERT JUMPDEST POP PUSH2 0x3BF PUSH2 0xFF8 JUMP JUMPDEST PUSH1 0x40 MLOAD PUSH2 0x3CC SWAP2 SWAP1 PUSH2 0x45D8 JUMP JUMPDEST PUSH1 0x40 MLOAD DUP1 SWAP2 SUB SWAP1 RETURN JUMPDEST CALLVALUE DUP1 ISZERO PUSH2 0x3E1 JUMPI PUSH1 0x0 DUP1 REVERT JUMPDEST POP PUSH2 0x3EA PUSH2 0xFFE JUMP JUMPDEST PUSH1 0x40 MLOAD PUSH2 0x3F7 SWAP2 SWAP1 PUSH2 0x448E JUMP JUMPDEST PUSH1 0x40 MLOAD DUP1 SWAP2 SUB SWAP1 RETURN JUMPDEST CALLVALUE DUP1 ISZERO PUSH2 0x40C JUMPI PUSH1 0x0 DUP1 REVERT JUMPDEST POP PUSH2 0x427 PUSH1 0x4 DUP1 CALLDATASIZE SUB DUP2 ADD SWAP1 PUSH2 0x422 SWAP2 SWAP1 PUSH2 0x4728 JUMP JUMPDEST PUSH2 0x1030 JUMP JUMPDEST STOP JUMPDEST CALLVALUE DUP1 ISZERO PUSH2 0x435 JUMPI PUSH1 0x0 DUP1 REVERT JUMPDEST POP PUSH2 0x450 PUSH1 0x4 DUP1 CALLDATASIZE SUB DUP2 ADD SWAP1 PUSH2 0x44B SWAP2 SWAP1 PUSH2 0x4797 JUMP JUMPDEST PUSH2 0x1051 JUMP JUMPDEST STOP JUMPDEST CALLVALUE DUP1 ISZERO PUSH2 0x45E JUMPI PUSH1 0x0 DUP1 REVERT JUMPDEST POP PUSH2 0x479 PUSH1 0x4 DUP1 CALLDATASIZE SUB DUP2 ADD SWAP1 PUSH2 0x474 SWAP2 SWAP1 PUSH2 0x433D JUMP JUMPDEST PUSH2 0x10B1 JUMP JUMPDEST STOP JUMPDEST CALLVALUE DUP1 ISZERO PUSH2 0x487 JUMPI PUSH1 0x0 DUP1 REVERT JUMPDEST POP PUSH2 0x490 PUSH2 0x10C5 JUMP JUMPDEST PUSH1 0x40 MLOAD PUSH2 0x49D SWAP2 SWAP1 PUSH2 0x45D8 JUMP JUMPDEST PUSH1 0x40 MLOAD DUP1 SWAP2 SUB SWAP1 RETURN JUMPDEST CALLVALUE DUP1 ISZERO PUSH2 0x4B2 JUMPI PUSH1 0x0 DUP1 REVERT JUMPDEST POP PUSH2 0x4BB PUSH2 0x10CB JUMP JUMPDEST STOP JUMPDEST CALLVALUE DUP1 ISZERO PUSH2 0x4C9 JUMPI PUSH1 0x0 DUP1 REVERT JUMPDEST POP PUSH2 0x4E4 PUSH1 0x4 DUP1 CALLDATASIZE SUB DUP2 ADD SWAP1 PUSH2 0x4DF SWAP2 SWAP1 PUSH2 0x4797 JUMP JUMPDEST PUSH2 0x1178 JUMP JUMPDEST STOP JUMPDEST CALLVALUE DUP1 ISZERO PUSH2 0x4F2 JUMPI PUSH1 0x0 DUP1 REVERT JUMPDEST POP PUSH2 0x50D PUSH1 0x4 DUP1 CALLDATASIZE SUB DUP2 ADD SWAP1 PUSH2 0x508 SWAP2 SWAP1 PUSH2 0x4816 JUMP JUMPDEST PUSH2 0x1198 JUMP JUMPDEST STOP JUMPDEST CALLVALUE DUP1 ISZERO PUSH2 0x51B JUMPI PUSH1 0x0 DUP1 REVERT JUMPDEST POP PUSH2 0x536 PUSH1 0x4 DUP1 CALLDATASIZE SUB DUP2 ADD SWAP1 PUSH2 0x531 SWAP2 SWAP1 PUSH2 0x433D JUMP JUMPDEST PUSH2 0x11BD JUMP JUMPDEST PUSH1 0x40 MLOAD PUSH2 0x543 SWAP2 SWAP1 PUSH2 0x45D8 JUMP JUMPDEST PUSH1 0x40 MLOAD DUP1 SWAP2 SUB SWAP1 RETURN JUMPDEST CALLVALUE DUP1 ISZERO PUSH2 0x558 JUMPI PUSH1 0x0 DUP1 REVERT JUMPDEST POP PUSH2 0x573 PUSH1 0x4 DUP1 CALLDATASIZE SUB DUP2 ADD SWAP1 PUSH2 0x56E SWAP2 SWAP1 PUSH2 0x4843 JUMP JUMPDEST PUSH2 0x13E8 JUMP JUMPDEST STOP JUMPDEST CALLVALUE DUP1 ISZERO PUSH2 0x581 JUMPI PUSH1 0x0 DUP1 REVERT JUMPDEST POP PUSH2 0x59C PUSH1 0x4 DUP1 CALLDATASIZE SUB DUP2 ADD SWAP1 PUSH2 0x597 SWAP2 SWAP1 PUSH2 0x4816 JUMP JUMPDEST PUSH2 0x186A JUMP JUMPDEST STOP JUMPDEST CALLVALUE DUP1 ISZERO PUSH2 0x5AA JUMPI PUSH1 0x0 DUP1 REVERT JUMPDEST POP PUSH2 0x5C5 PUSH1 0x4 DUP1 CALLDATASIZE SUB DUP2 ADD SWAP1 PUSH2 0x5C0 SWAP2 SWAP1 PUSH2 0x4452 JUMP JUMPDEST PUSH2 0x1917 JUMP JUMPDEST PUSH1 0x40 MLOAD PUSH2 0x5D2 SWAP2 SWAP1 PUSH2 0x448E JUMP JUMPDEST PUSH1 0x40 MLOAD DUP1 SWAP2 SUB SWAP1 RETURN JUMPDEST CALLVALUE DUP1 ISZERO PUSH2 0x5E7 JUMPI PUSH1 0x0 DUP1 REVERT JUMPDEST POP PUSH2 0x602 PUSH1 0x4 DUP1 CALLDATASIZE SUB DUP2 ADD SWAP1 PUSH2 0x5FD SWAP2 SWAP1 PUSH2 0x4452 JUMP JUMPDEST PUSH2 0x199D JUMP JUMPDEST PUSH1 0x40 MLOAD PUSH2 0x60F SWAP2 SWAP1 PUSH2 0x48FA JUMP JUMPDEST PUSH1 0x40 MLOAD DUP1 SWAP2 SUB SWAP1 RETURN JUMPDEST CALLVALUE DUP1 ISZERO PUSH2 0x624 JUMPI PUSH1 0x0 DUP1 REVERT JUMPDEST POP PUSH2 0x63F PUSH1 0x4 DUP1 CALLDATASIZE SUB DUP2 ADD SWAP1 PUSH2 0x63A SWAP2 SWAP1 PUSH2 0x433D JUMP JUMPDEST PUSH2 0x1A12 JUMP JUMPDEST PUSH1 0x40 MLOAD PUSH2 0x64C SWAP2 SWAP1 PUSH2 0x45D8 JUMP JUMPDEST PUSH1 0x40 MLOAD DUP1 SWAP2 SUB SWAP1 RETURN JUMPDEST CALLVALUE DUP1 ISZERO PUSH2 0x661 JUMPI PUSH1 0x0 DUP1 REVERT JUMPDEST POP PUSH2 0x66A PUSH2 0x1AC9 JUMP JUMPDEST STOP JUMPDEST CALLVALUE DUP1 ISZERO PUSH2 0x678 JUMPI PUSH1 0x0 DUP1 REVERT JUMPDEST POP PUSH2 0x681 PUSH2 0x1ADD JUMP JUMPDEST PUSH1 0x40 MLOAD PUSH2 0x68E SWAP2 SWAP1 PUSH2 0x45A7 JUMP JUMPDEST PUSH1 0x40 MLOAD DUP1 SWAP2 SUB SWAP1 RETURN JUMPDEST CALLVALUE DUP1 ISZERO PUSH2 0x6A3 JUMPI PUSH1 0x0 DUP1 REVERT JUMPDEST POP PUSH2 0x6BE PUSH1 0x4 DUP1 CALLDATASIZE SUB DUP2 ADD SWAP1 PUSH2 0x6B9 SWAP2 SWAP1 PUSH2 0x433D JUMP JUMPDEST PUSH2 0x1B35 JUMP JUMPDEST STOP JUMPDEST CALLVALUE DUP1 ISZERO PUSH2 0x6CC JUMPI PUSH1 0x0 DUP1 REVERT JUMPDEST POP PUSH2 0x6D5 PUSH2 0x1B98 JUMP JUMPDEST PUSH1 0x40 MLOAD PUSH2 0x6E2 SWAP2 SWAP1 PUSH2 0x448E JUMP JUMPDEST PUSH1 0x40 MLOAD DUP1 SWAP2 SUB SWAP1 RETURN JUMPDEST CALLVALUE DUP1 ISZERO PUSH2 0x6F7 JUMPI PUSH1 0x0 DUP1 REVERT JUMPDEST POP PUSH2 0x712 PUSH1 0x4 DUP1 CALLDATASIZE SUB DUP2 ADD SWAP1 PUSH2 0x70D SWAP2 SWAP1 PUSH2 0x44A9 JUMP JUMPDEST PUSH2 0x1BC2 JUMP JUMPDEST STOP JUMPDEST CALLVALUE DUP1 ISZERO PUSH2 0x720 JUMPI PUSH1 0x0 DUP1 REVERT JUMPDEST POP PUSH2 0x729 PUSH2 0x1C47 JUMP JUMPDEST PUSH1 0x40 MLOAD PUSH2 0x736 SWAP2 SWAP1 PUSH2 0x43FA JUMP JUMPDEST PUSH1 0x40 MLOAD DUP1 SWAP2 SUB SWAP1 RETURN JUMPDEST CALLVALUE DUP1 ISZERO PUSH2 0x74B JUMPI PUSH1 0x0 DUP1 REVERT JUMPDEST POP PUSH2 0x754 PUSH2 0x1CD9 JUMP JUMPDEST PUSH1 0x40 MLOAD PUSH2 0x761 SWAP2 SWAP1 PUSH2 0x45D8 JUMP JUMPDEST PUSH1 0x40 MLOAD DUP1 SWAP2 SUB SWAP1 RETURN JUMPDEST CALLVALUE DUP1 ISZERO PUSH2 0x776 JUMPI PUSH1 0x0 DUP1 REVERT JUMPDEST POP PUSH2 0x77F PUSH2 0x1D3F JUMP JUMPDEST PUSH1 0x40 MLOAD PUSH2 0x78C SWAP2 SWAP1 PUSH2 0x45D8 JUMP JUMPDEST PUSH1 0x40 MLOAD DUP1 SWAP2 SUB SWAP1 RETURN JUMPDEST CALLVALUE DUP1 ISZERO PUSH2 0x7A1 JUMPI PUSH1 0x0 DUP1 REVERT JUMPDEST POP PUSH2 0x7AA PUSH2 0x1D45 JUMP JUMPDEST PUSH1 0x40 MLOAD PUSH2 0x7B7 SWAP2 SWAP1 PUSH2 0x45D8 JUMP JUMPDEST PUSH1 0x40 MLOAD DUP1 SWAP2 SUB SWAP1 RETURN JUMPDEST CALLVALUE DUP1 ISZERO PUSH2 0x7CC JUMPI PUSH1 0x0 DUP1 REVERT JUMPDEST POP PUSH2 0x7E7 PUSH1 0x4 DUP1 CALLDATASIZE SUB DUP2 ADD SWAP1 PUSH2 0x7E2 SWAP2 SWAP1 PUSH2 0x4915 JUMP JUMPDEST PUSH2 0x1D4B JUMP JUMPDEST STOP JUMPDEST CALLVALUE DUP1 ISZERO PUSH2 0x7F5 JUMPI PUSH1 0x0 DUP1 REVERT JUMPDEST POP PUSH2 0x810 PUSH1 0x4 DUP1 CALLDATASIZE SUB DUP2 ADD SWAP1 PUSH2 0x80B SWAP2 SWAP1 PUSH2 0x4452 JUMP JUMPDEST PUSH2 0x1D61 JUMP JUMPDEST PUSH1 0x40 MLOAD PUSH2 0x81D SWAP2 SWAP1 PUSH2 0x4A13 JUMP JUMPDEST PUSH1 0x40 MLOAD DUP1 SWAP2 SUB SWAP1 RETURN JUMPDEST CALLVALUE DUP1 ISZERO PUSH2 0x832 JUMPI PUSH1 0x0 DUP1 REVERT JUMPDEST POP PUSH2 0x84D PUSH1 0x4 DUP1 CALLDATASIZE SUB DUP2 ADD SWAP1 PUSH2 0x848 SWAP2 SWAP1 PUSH2 0x4452 JUMP JUMPDEST PUSH2 0x1ED8 JUMP JUMPDEST PUSH1 0x40 MLOAD PUSH2 0x85B SWAP3 SWAP2 SWAP1 PUSH2 0x4A35 JUMP JUMPDEST PUSH1 0x40 MLOAD DUP1 SWAP2 SUB SWAP1 RETURN JUMPDEST CALLVALUE DUP1 ISZERO PUSH2 0x870 JUMPI PUSH1 0x0 DUP1 REVERT JUMPDEST POP PUSH2 0x879 PUSH2 0x1F09 JUMP JUMPDEST PUSH1 0x40 MLOAD PUSH2 0x886 SWAP2 SWAP1 PUSH2 0x43FA JUMP JUMPDEST PUSH1 0x40 MLOAD DUP1 SWAP2 SUB SWAP1 RETURN JUMPDEST CALLVALUE DUP1 ISZERO PUSH2 0x89B JUMPI PUSH1 0x0 DUP1 REVERT JUMPDEST POP PUSH2 0x8B6 PUSH1 0x4 DUP1 CALLDATASIZE SUB DUP2 ADD SWAP1 PUSH2 0x8B1 SWAP2 SWAP1 PUSH2 0x4816 JUMP JUMPDEST PUSH2 0x1F97 JUMP JUMPDEST STOP JUMPDEST CALLVALUE DUP1 ISZERO PUSH2 0x8C4 JUMPI PUSH1 0x0 DUP1 REVERT JUMPDEST POP PUSH2 0x8DF PUSH1 0x4 DUP1 CALLDATASIZE SUB DUP2 ADD SWAP1 PUSH2 0x8DA SWAP2 SWAP1 PUSH2 0x4AFF JUMP JUMPDEST PUSH2 0x1FBC JUMP JUMPDEST STOP JUMPDEST CALLVALUE DUP1 ISZERO PUSH2 0x8ED JUMPI PUSH1 0x0 DUP1 REVERT JUMPDEST POP PUSH2 0x908 PUSH1 0x4 DUP1 CALLDATASIZE SUB DUP2 ADD SWAP1 PUSH2 0x903 SWAP2 SWAP1 PUSH2 0x4452 JUMP JUMPDEST PUSH2 0x201E JUMP JUMPDEST PUSH1 0x40 MLOAD PUSH2 0x915 SWAP2 SWAP1 PUSH2 0x43FA JUMP JUMPDEST PUSH1 0x40 MLOAD DUP1 SWAP2 SUB SWAP1 RETURN JUMPDEST CALLVALUE DUP1 ISZERO PUSH2 0x92A JUMPI PUSH1 0x0 DUP1 REVERT JUMPDEST POP PUSH2 0x945 PUSH1 0x4 DUP1 CALLDATASIZE SUB DUP2 ADD SWAP1 PUSH2 0x940 SWAP2 SWAP1 PUSH2 0x4C4A JUMP JUMPDEST PUSH2 0x2130 JUMP JUMPDEST STOP JUMPDEST CALLVALUE DUP1 ISZERO PUSH2 0x953 JUMPI PUSH1 0x0 DUP1 REVERT JUMPDEST POP PUSH2 0x96E PUSH1 0x4 DUP1 CALLDATASIZE SUB DUP2 ADD SWAP1 PUSH2 0x969 SWAP2 SWAP1 PUSH2 0x4C93 JUMP JUMPDEST PUSH2 0x2266 JUMP JUMPDEST PUSH1 0x40 MLOAD PUSH2 0x97B SWAP2 SWAP1 PUSH2 0x42C4 JUMP JUMPDEST PUSH1 0x40 MLOAD DUP1 SWAP2 SUB SWAP1 RETURN JUMPDEST CALLVALUE DUP1 ISZERO PUSH2 0x990 JUMPI PUSH1 0x0 DUP1 REVERT JUMPDEST POP PUSH2 0x9AB PUSH1 0x4 DUP1 CALLDATASIZE SUB DUP2 ADD SWAP1 PUSH2 0x9A6 SWAP2 SWAP1 PUSH2 0x4452 JUMP JUMPDEST PUSH2 0x22FA JUMP JUMPDEST STOP JUMPDEST CALLVALUE DUP1 ISZERO PUSH2 0x9B9 JUMPI PUSH1 0x0 DUP1 REVERT JUMPDEST POP PUSH2 0x9D4 PUSH1 0x4 DUP1 CALLDATASIZE SUB DUP2 ADD SWAP1 PUSH2 0x9CF SWAP2 SWAP1 PUSH2 0x433D JUMP JUMPDEST PUSH2 0x2327 JUMP JUMPDEST STOP JUMPDEST CALLVALUE DUP1 ISZERO PUSH2 0x9E2 JUMPI PUSH1 0x0 DUP1 REVERT JUMPDEST POP PUSH2 0x9FD PUSH1 0x4 DUP1 CALLDATASIZE SUB DUP2 ADD SWAP1 PUSH2 0x9F8 SWAP2 SWAP1 PUSH2 0x4452 JUMP JUMPDEST PUSH2 0x23AA JUMP JUMPDEST STOP JUMPDEST CALLVALUE DUP1 ISZERO PUSH2 0xA0B JUMPI PUSH1 0x0 DUP1 REVERT JUMPDEST POP PUSH2 0xA14 PUSH2 0x23BC JUMP JUMPDEST STOP JUMPDEST PUSH1 0x0 PUSH2 0xA21 DUP3 PUSH2 0x248D JUMP JUMPDEST SWAP1 POP SWAP2 SWAP1 POP JUMP JUMPDEST PUSH2 0xA30 PUSH2 0x24EE JUMP JUMPDEST PUSH1 0x0 PUSH1 0x16 PUSH1 0x0 DUP4 PUSH20 0xFFFFFFFFFFFFFFFFFFFFFFFFFFFFFFFFFFFFFFFF AND PUSH20 0xFFFFFFFFFFFFFFFFFFFFFFFFFFFFFFFFFFFFFFFF AND DUP2 MSTORE PUSH1 0x20 ADD SWAP1 DUP2 MSTORE PUSH1 0x20 ADD PUSH1 0x0 KECCAK256 PUSH1 0x0 PUSH2 0x100 EXP DUP2 SLOAD DUP2 PUSH1 0xFF MUL NOT AND SWAP1 DUP4 ISZERO ISZERO MUL OR SWAP1 SSTORE POP POP JUMP JUMPDEST PUSH1 0x60 PUSH1 0x0 DUP1 SLOAD PUSH2 0xA9A SWAP1 PUSH2 0x4D02 JUMP JUMPDEST DUP1 PUSH1 0x1F ADD PUSH1 0x20 DUP1 SWAP2 DIV MUL PUSH1 0x20 ADD PUSH1 0x40 MLOAD SWAP1 DUP2 ADD PUSH1 0x40 MSTORE DUP1 SWAP3 SWAP2 SWAP1 DUP2 DUP2 MSTORE PUSH1 0x20 ADD DUP3 DUP1 SLOAD PUSH2 0xAC6 SWAP1 PUSH2 0x4D02 JUMP JUMPDEST DUP1 ISZERO PUSH2 0xB13 JUMPI DUP1 PUSH1 0x1F LT PUSH2 0xAE8 JUMPI PUSH2 0x100 DUP1 DUP4 SLOAD DIV MUL DUP4 MSTORE SWAP2 PUSH1 0x20 ADD SWAP2 PUSH2 0xB13 JUMP JUMPDEST DUP3 ADD SWAP2 SWAP1 PUSH1 0x0 MSTORE PUSH1 0x20 PUSH1 0x0 KECCAK256 SWAP1 JUMPDEST DUP2 SLOAD DUP2 MSTORE SWAP1 PUSH1 0x1 ADD SWAP1 PUSH1 0x20 ADD DUP1 DUP4 GT PUSH2 0xAF6 JUMPI DUP3 SWAP1 SUB PUSH1 0x1F AND DUP3 ADD SWAP2 JUMPDEST POP POP POP POP POP SWAP1 POP SWAP1 JUMP JUMPDEST PUSH1 0x0 PUSH2 0xB28 DUP3 PUSH2 0x256C JUMP JUMPDEST PUSH1 0x4 PUSH1 0x0 DUP4 DUP2 MSTORE PUSH1 0x20 ADD SWAP1 DUP2 MSTORE PUSH1 0x20 ADD PUSH1 0x0 KECCAK256 PUSH1 0x0 SWAP1 SLOAD SWAP1 PUSH2 0x100 EXP SWAP1 DIV PUSH20 0xFFFFFFFFFFFFFFFFFFFFFFFFFFFFFFFFFFFFFFFF AND SWAP1 POP SWAP2 SWAP1 POP JUMP JUMPDEST PUSH1 0x0 PUSH2 0xB6E DUP3 PUSH2 0x1917 JUMP JUMPDEST SWAP1 POP DUP1 PUSH20 0xFFFFFFFFFFFFFFFFFFFFFFFFFFFFFFFFFFFFFFFF AND DUP4 PUSH20 0xFFFFFFFFFFFFFFFFFFFFFFFFFFFFFFFFFFFFFFFF AND SUB PUSH2 0xBDE JUMPI PUSH1 0x40 MLOAD PUSH32 0x8C379A000000000000000000000000000000000000000000000000000000000 DUP2 MSTORE PUSH1 0x4 ADD PUSH2 0xBD5 SWAP1 PUSH2 0x4DA5 JUMP JUMPDEST PUSH1 0x40 MLOAD DUP1 SWAP2 SUB SWAP1 REVERT JUMPDEST DUP1 PUSH20 0xFFFFFFFFFFFFFFFFFFFFFFFFFFFFFFFFFFFFFFFF AND PUSH2 0xBFD PUSH2 0x25B7 JUMP JUMPDEST PUSH20 0xFFFFFFFFFFFFFFFFFFFFFFFFFFFFFFFFFFFFFFFF AND EQ DUP1 PUSH2 0xC2C JUMPI POP PUSH2 0xC2B DUP2 PUSH2 0xC26 PUSH2 0x25B7 JUMP JUMPDEST PUSH2 0x2266 JUMP JUMPDEST JUMPDEST PUSH2 0xC6B JUMPI PUSH1 0x40 MLOAD PUSH32 0x8C379A000000000000000000000000000000000000000000000000000000000 DUP2 MSTORE PUSH1 0x4 ADD PUSH2 0xC62 SWAP1 PUSH2 0x4E37 JUMP JUMPDEST PUSH1 0x40 MLOAD DUP1 SWAP2 SUB SWAP1 REVERT JUMPDEST PUSH2 0xC75 DUP4 DUP4 PUSH2 0x25BF JUMP JUMPDEST POP POP POP JUMP JUMPDEST PUSH1 0xF SLOAD PUSH1 0xE SLOAD LT PUSH2 0xCC0 JUMPI PUSH1 0x40 MLOAD PUSH32 0x8C379A000000000000000000000000000000000000000000000000000000000 DUP2 MSTORE PUSH1 0x4 ADD PUSH2 0xCB7 SWAP1 PUSH2 0x4EC9 JUMP JUMPDEST PUSH1 0x40 MLOAD DUP1 SWAP2 SUB SWAP1 REVERT JUMPDEST PUSH1 0x0 ISZERO ISZERO PUSH1 0x1B PUSH1 0x0 SWAP1 SLOAD SWAP1 PUSH2 0x100 EXP SWAP1 DIV PUSH1 0xFF AND ISZERO ISZERO SUB PUSH2 0xDDF JUMPI PUSH1 0x1C SLOAD PUSH1 0xE SLOAD LT PUSH2 0xD02 JUMPI PUSH1 0x1 PUSH1 0x1B PUSH1 0x0 PUSH2 0x100 EXP DUP2 SLOAD DUP2 PUSH1 0xFF MUL NOT AND SWAP1 DUP4 ISZERO ISZERO MUL OR SWAP1 SSTORE POP JUMPDEST PUSH1 0x16 PUSH1 0x0 CALLER PUSH20 0xFFFFFFFFFFFFFFFFFFFFFFFFFFFFFFFFFFFFFFFF AND PUSH20 0xFFFFFFFFFFFFFFFFFFFFFFFFFFFFFFFFFFFFFFFF AND DUP2 MSTORE PUSH1 0x20 ADD SWAP1 DUP2 MSTORE PUSH1 0x20 ADD PUSH1 0x0 KECCAK256 PUSH1 0x0 SWAP1 SLOAD SWAP1 PUSH2 0x100 EXP SWAP1 DIV PUSH1 0xFF AND PUSH2 0xD8E JUMPI PUSH1 0x40 MLOAD PUSH32 0x8C379A000000000000000000000000000000000000000000000000000000000 DUP2 MSTORE PUSH1 0x4 ADD PUSH2 0xD85 SWAP1 PUSH2 0x4F35 JUMP JUMPDEST PUSH1 0x40 MLOAD DUP1 SWAP2 SUB SWAP1 REVERT JUMPDEST PUSH1 0xE SLOAD PUSH1 0x1A SLOAD LT ISZERO PUSH2 0xDD5 JUMPI PUSH1 0x40 MLOAD PUSH32 0x8C379A000000000000000000000000000000000000000000000000000000000 DUP2 MSTORE PUSH1 0x4 ADD PUSH2 0xDCC SWAP1 PUSH2 0x4FC7 JUMP JUMPDEST PUSH1 0x40 MLOAD DUP1 SWAP2 SUB SWAP1 REVERT JUMPDEST PUSH2 0xDDE CALLER PUSH2 0x2678 JUMP JUMPDEST JUMPDEST PUSH1 0x1 ISZERO ISZERO PUSH1 0x1B PUSH1 0x0 SWAP1 SLOAD SWAP1 PUSH2 0x100 EXP SWAP1 DIV PUSH1 0xFF AND ISZERO ISZERO SUB PUSH2 0xEE7 JUMPI PUSH1 0xB SLOAD PUSH2 0xE06 CALLER PUSH2 0x1A12 JUMP JUMPDEST LT PUSH2 0xE46 JUMPI PUSH1 0x40 MLOAD PUSH32 0x8C379A000000000000000000000000000000000000000000000000000000000 DUP2 MSTORE PUSH1 0x4 ADD PUSH2 0xE3D SWAP1 PUSH2 0x4FC7 JUMP JUMPDEST PUSH1 0x40 MLOAD DUP1 SWAP2 SUB SWAP1 REVERT JUMPDEST PUSH1 0x16 PUSH1 0x0 CALLER PUSH20 0xFFFFFFFFFFFFFFFFFFFFFFFFFFFFFFFFFFFFFFFF AND PUSH20 0xFFFFFFFFFFFFFFFFFFFFFFFFFFFFFFFFFFFFFFFF AND DUP2 MSTORE PUSH1 0x20 ADD SWAP1 DUP2 MSTORE PUSH1 0x20 ADD PUSH1 0x0 KECCAK256 PUSH1 0x0 SWAP1 SLOAD SWAP1 PUSH2 0x100 EXP SWAP1 DIV PUSH1 0xFF AND PUSH2 0xEDD JUMPI PUSH1 0xC SLOAD CALLVALUE LT ISZERO PUSH2 0xEDC JUMPI PUSH1 0x40 MLOAD PUSH32 0x8C379A000000000000000000000000000000000000000000000000000000000 DUP2 MSTORE PUSH1 0x4 ADD PUSH2 0xED3 SWAP1 PUSH2 0x5033 JUMP JUMPDEST PUSH1 0x40 MLOAD DUP1 SWAP2 SUB SWAP1 REVERT JUMPDEST JUMPDEST PUSH2 0xEE6 CALLER PUSH2 0x2678 JUMP JUMPDEST JUMPDEST JUMP JUMPDEST PUSH1 0x60 PUSH1 0x0 PUSH2 0xEF6 DUP4 PUSH2 0x1A12 JUMP JUMPDEST SWAP1 POP PUSH1 0x0 DUP2 PUSH8 0xFFFFFFFFFFFFFFFF DUP2 GT ISZERO PUSH2 0xF14 JUMPI PUSH2 0xF13 PUSH2 0x45FD JUMP JUMPDEST JUMPDEST PUSH1 0x40 MLOAD SWAP1 DUP1 DUP3 MSTORE DUP1 PUSH1 0x20 MUL PUSH1 0x20 ADD DUP3 ADD PUSH1 0x40 MSTORE DUP1 ISZERO PUSH2 0xF42 JUMPI DUP2 PUSH1 0x20 ADD PUSH1 0x20 DUP3 MUL DUP1 CALLDATASIZE DUP4 CALLDATACOPY DUP1 DUP3 ADD SWAP2 POP POP SWAP1 POP JUMPDEST POP SWAP1 POP PUSH1 0x0 DUP1 PUSH1 0x1 SWAP1 POP JUMPDEST PUSH2 0xF57 PUSH1 0x9 PUSH2 0x2F29 JUMP JUMPDEST DUP2 GT PUSH2 0xFEC JUMPI PUSH2 0xF66 DUP2 PUSH2 0x2F37 JUMP JUMPDEST DUP1 ISZERO PUSH2 0xFA5 JUMPI POP DUP6 PUSH20 0xFFFFFFFFFFFFFFFFFFFFFFFFFFFFFFFFFFFFFFFF AND PUSH2 0xF8D DUP3 PUSH2 0x1917 JUMP JUMPDEST PUSH20 0xFFFFFFFFFFFFFFFFFFFFFFFFFFFFFFFFFFFFFFFF AND EQ JUMPDEST ISZERO PUSH2 0xFD9 JUMPI DUP1 DUP4 DUP4 DUP2 MLOAD DUP2 LT PUSH2 0xFBE JUMPI PUSH2 0xFBD PUSH2 0x5053 JUMP JUMPDEST JUMPDEST PUSH1 0x20 MUL PUSH1 0x20 ADD ADD DUP2 DUP2 MSTORE POP POP DUP2 DUP1 PUSH2 0xFD5 SWAP1 PUSH2 0x50B1 JUMP JUMPDEST SWAP3 POP POP JUMPDEST DUP1 DUP1 PUSH2 0xFE4 SWAP1 PUSH2 0x50B1 JUMP JUMPDEST SWAP2 POP POP PUSH2 0xF4D JUMP JUMPDEST POP DUP2 SWAP4 POP POP POP POP SWAP2 SWAP1 POP JUMP JUMPDEST PUSH1 0xE SLOAD DUP2 JUMP JUMPDEST PUSH1 0x0 PUSH2 0x1008 PUSH2 0x24EE JUMP JUMPDEST PUSH1 0xD PUSH1 0x0 SWAP1 SLOAD SWAP1 PUSH2 0x100 EXP SWAP1 DIV PUSH20 0xFFFFFFFFFFFFFFFFFFFFFFFFFFFFFFFFFFFFFFFF AND SWAP1 POP SWAP1 JUMP JUMPDEST PUSH2 0x1038 PUSH2 0x24EE JUMP JUMPDEST PUSH2 0x1042 DUP4 DUP4 PUSH2 0x2F78 JUMP JUMPDEST PUSH2 0x104C DUP3 DUP3 PUSH2 0x3195 JUMP JUMPDEST POP POP POP JUMP JUMPDEST PUSH2 0x1062 PUSH2 0x105C PUSH2 0x25B7 JUMP JUMPDEST DUP3 PUSH2 0x3239 JUMP JUMPDEST PUSH2 0x10A1 JUMPI PUSH1 0x40 MLOAD PUSH32 0x8C379A000000000000000000000000000000000000000000000000000000000 DUP2 MSTORE PUSH1 0x4 ADD PUSH2 0x1098 SWAP1 PUSH2 0x516B JUMP JUMPDEST PUSH1 0x40 MLOAD DUP1 SWAP2 SUB SWAP1 REVERT JUMPDEST PUSH2 0x10AC DUP4 DUP4 DUP4 PUSH2 0x32CE JUMP JUMPDEST POP POP POP JUMP JUMPDEST PUSH2 0x10B9 PUSH2 0x24EE JUMP JUMPDEST PUSH2 0x10C2 DUP2 PUSH2 0x2327 JUMP JUMPDEST POP JUMP JUMPDEST PUSH1 0xF SLOAD DUP2 JUMP JUMPDEST PUSH2 0x10D3 PUSH2 0x24EE JUMP JUMPDEST PUSH1 0x1 ISZERO ISZERO PUSH1 0x19 PUSH1 0x0 SWAP1 SLOAD SWAP1 PUSH2 0x100 EXP SWAP1 DIV PUSH1 0xFF AND ISZERO ISZERO EQ PUSH2 0x1129 JUMPI PUSH1 0x40 MLOAD PUSH32 0x8C379A000000000000000000000000000000000000000000000000000000000 DUP2 MSTORE PUSH1 0x4 ADD PUSH2 0x1120 SWAP1 PUSH2 0x51FD JUMP JUMPDEST PUSH1 0x40 MLOAD DUP1 SWAP2 SUB SWAP1 REVERT JUMPDEST PUSH1 0x0 SELFBALANCE SWAP1 POP CALLER PUSH20 0xFFFFFFFFFFFFFFFFFFFFFFFFFFFFFFFFFFFFFFFF AND PUSH2 0x8FC DUP3 SWAP1 DUP2 ISZERO MUL SWAP1 PUSH1 0x40 MLOAD PUSH1 0x0 PUSH1 0x40 MLOAD DUP1 DUP4 SUB DUP2 DUP6 DUP9 DUP9 CALL SWAP4 POP POP POP POP ISZERO DUP1 ISZERO PUSH2 0x1174 JUMPI RETURNDATASIZE PUSH1 0x0 DUP1 RETURNDATACOPY RETURNDATASIZE PUSH1 0x0 REVERT JUMPDEST POP POP JUMP JUMPDEST PUSH2 0x1193 DUP4 DUP4 DUP4 PUSH1 0x40 MLOAD DUP1 PUSH1 0x20 ADD PUSH1 0x40 MSTORE DUP1 PUSH1 0x0 DUP2 MSTORE POP PUSH2 0x1FBC JUMP JUMPDEST POP POP POP JUMP JUMPDEST PUSH2 0x11A0 PUSH2 0x24EE JUMP JUMPDEST DUP1 PUSH1 0x1B PUSH1 0x0 PUSH2 0x100 EXP DUP2 SLOAD DUP2 PUSH1 0xFF MUL NOT AND SWAP1 DUP4 ISZERO ISZERO MUL OR SWAP1 SSTORE POP POP JUMP JUMPDEST PUSH1 0x0 DUP1 PUSH2 0x11C9 DUP4 PUSH2 0xEE9 JUMP JUMPDEST SWAP1 POP PUSH1 0x0 DUP1 JUMPDEST DUP3 MLOAD DUP2 LT ISZERO PUSH2 0x13DD JUMPI PUSH1 0x0 PUSH1 0x3 DUP2 GT ISZERO PUSH2 0x11EC JUMPI PUSH2 0x11EB PUSH2 0x4883 JUMP JUMPDEST JUMPDEST PUSH1 0x17 PUSH1 0x0 DUP6 DUP5 DUP2 MLOAD DUP2 LT PUSH2 0x1203 JUMPI PUSH2 0x1202 PUSH2 0x5053 JUMP JUMPDEST JUMPDEST PUSH1 0x20 MUL PUSH1 0x20 ADD ADD MLOAD DUP2 MSTORE PUSH1 0x20 ADD SWAP1 DUP2 MSTORE PUSH1 0x20 ADD PUSH1 0x0 KECCAK256 PUSH1 0x1 ADD PUSH1 0x0 SWAP1 SLOAD SWAP1 PUSH2 0x100 EXP SWAP1 DIV PUSH1 0xFF AND PUSH1 0x3 DUP2 GT ISZERO PUSH2 0x123C JUMPI PUSH2 0x123B PUSH2 0x4883 JUMP JUMPDEST JUMPDEST SUB PUSH2 0x1255 JUMPI PUSH1 0x1 DUP3 PUSH2 0x124E SWAP2 SWAP1 PUSH2 0x521D JUMP JUMPDEST SWAP2 POP PUSH2 0x13CA JUMP JUMPDEST PUSH1 0x1 PUSH1 0x3 DUP2 GT ISZERO PUSH2 0x1269 JUMPI PUSH2 0x1268 PUSH2 0x4883 JUMP JUMPDEST JUMPDEST PUSH1 0x17 PUSH1 0x0 DUP6 DUP5 DUP2 MLOAD DUP2 LT PUSH2 0x1280 JUMPI PUSH2 0x127F PUSH2 0x5053 JUMP JUMPDEST JUMPDEST PUSH1 0x20 MUL PUSH1 0x20 ADD ADD MLOAD DUP2 MSTORE PUSH1 0x20 ADD SWAP1 DUP2 MSTORE PUSH1 0x20 ADD PUSH1 0x0 KECCAK256 PUSH1 0x1 ADD PUSH1 0x0 SWAP1 SLOAD SWAP1 PUSH2 0x100 EXP SWAP1 DIV PUSH1 0xFF AND PUSH1 0x3 DUP2 GT ISZERO PUSH2 0x12B9 JUMPI PUSH2 0x12B8 PUSH2 0x4883 JUMP JUMPDEST JUMPDEST SUB PUSH2 0x12D2 JUMPI PUSH1 0x5 DUP3 PUSH2 0x12CB SWAP2 SWAP1 PUSH2 0x521D JUMP JUMPDEST SWAP2 POP PUSH2 0x13C9 JUMP JUMPDEST PUSH1 0x2 PUSH1 0x3 DUP2 GT ISZERO PUSH2 0x12E6 JUMPI PUSH2 0x12E5 PUSH2 0x4883 JUMP JUMPDEST JUMPDEST PUSH1 0x17 PUSH1 0x0 DUP6 DUP5 DUP2 MLOAD DUP2 LT PUSH2 0x12FD JUMPI PUSH2 0x12FC PUSH2 0x5053 JUMP JUMPDEST JUMPDEST PUSH1 0x20 MUL PUSH1 0x20 ADD ADD MLOAD DUP2 MSTORE PUSH1 0x20 ADD SWAP1 DUP2 MSTORE PUSH1 0x20 ADD PUSH1 0x0 KECCAK256 PUSH1 0x1 ADD PUSH1 0x0 SWAP1 SLOAD SWAP1 PUSH2 0x100 EXP SWAP1 DIV PUSH1 0xFF AND PUSH1 0x3 DUP2 GT ISZERO PUSH2 0x1336 JUMPI PUSH2 0x1335 PUSH2 0x4883 JUMP JUMPDEST JUMPDEST SUB PUSH2 0x134F JUMPI PUSH1 0xF DUP3 PUSH2 0x1348 SWAP2 SWAP1 PUSH2 0x521D JUMP JUMPDEST SWAP2 POP PUSH2 0x13C8 JUMP JUMPDEST PUSH1 0x3 DUP1 DUP2 GT ISZERO PUSH2 0x1362 JUMPI PUSH2 0x1361 PUSH2 0x4883 JUMP JUMPDEST JUMPDEST PUSH1 0x17 PUSH1 0x0 DUP6 DUP5 DUP2 MLOAD DUP2 LT PUSH2 0x1379 JUMPI PUSH2 0x1378 PUSH2 0x5053 JUMP JUMPDEST JUMPDEST PUSH1 0x20 MUL PUSH1 0x20 ADD ADD MLOAD DUP2 MSTORE PUSH1 0x20 ADD SWAP1 DUP2 MSTORE PUSH1 0x20 ADD PUSH1 0x0 KECCAK256 PUSH1 0x1 ADD PUSH1 0x0 SWAP1 SLOAD SWAP1 PUSH2 0x100 EXP SWAP1 DIV PUSH1 0xFF AND PUSH1 0x3 DUP2 GT ISZERO PUSH2 0x13B2 JUMPI PUSH2 0x13B1 PUSH2 0x4883 JUMP JUMPDEST JUMPDEST SUB PUSH2 0x13C7 JUMPI PUSH1 0x32 DUP3 PUSH2 0x13C4 SWAP2 SWAP1 PUSH2 0x521D JUMP JUMPDEST SWAP2 POP JUMPDEST JUMPDEST JUMPDEST JUMPDEST DUP1 DUP1 PUSH2 0x13D5 SWAP1 PUSH2 0x50B1 JUMP JUMPDEST SWAP2 POP POP PUSH2 0x11CF JUMP JUMPDEST POP DUP1 SWAP3 POP POP POP SWAP2 SWAP1 POP JUMP JUMPDEST PUSH2 0x13F0 PUSH2 0x24EE JUMP JUMPDEST PUSH1 0x0 DUP3 GT PUSH2 0x1433 JUMPI PUSH1 0x40 MLOAD PUSH32 0x8C379A000000000000000000000000000000000000000000000000000000000 DUP2 MSTORE PUSH1 0x4 ADD PUSH2 0x142A SWAP1 PUSH2 0x52C3 JUMP JUMPDEST PUSH1 0x40 MLOAD DUP1 SWAP2 SUB SWAP1 REVERT JUMPDEST PUSH1 0x15 DUP1 SLOAD SWAP1 POP DUP3 GT ISZERO PUSH2 0x147B JUMPI PUSH1 0x40 MLOAD PUSH32 0x8C379A000000000000000000000000000000000000000000000000000000000 DUP2 MSTORE PUSH1 0x4 ADD PUSH2 0x1472 SWAP1 PUSH2 0x5355 JUMP JUMPDEST PUSH1 0x40 MLOAD DUP1 SWAP2 SUB SWAP1 REVERT JUMPDEST PUSH1 0x0 DUP2 GT DUP1 ISZERO PUSH2 0x148C JUMPI POP PUSH1 0x64 DUP2 GT ISZERO JUMPDEST PUSH2 0x14CB JUMPI PUSH1 0x40 MLOAD PUSH32 0x8C379A000000000000000000000000000000000000000000000000000000000 DUP2 MSTORE PUSH1 0x4 ADD PUSH2 0x14C2 SWAP1 PUSH2 0x53E7 JUMP JUMPDEST PUSH1 0x40 MLOAD DUP1 SWAP2 SUB SWAP1 REVERT JUMPDEST PUSH1 0x0 PUSH2 0x14D6 DUP4 PUSH2 0x1D61 JUMP JUMPDEST SWAP1 POP PUSH1 0x0 PUSH1 0x64 DUP4 SELFBALANCE PUSH2 0x14E8 SWAP2 SWAP1 PUSH2 0x5407 JUMP JUMPDEST PUSH2 0x14F2 SWAP2 SWAP1 PUSH2 0x5478 JUMP JUMPDEST SWAP1 POP PUSH1 0x0 PUSH1 0x64 PUSH1 0x1E DUP4 PUSH2 0x1505 SWAP2 SWAP1 PUSH2 0x5407 JUMP JUMPDEST PUSH2 0x150F SWAP2 SWAP1 PUSH2 0x5478 JUMP JUMPDEST SWAP1 POP PUSH1 0x0 PUSH1 0x64 PUSH1 0x19 DUP5 PUSH2 0x1522 SWAP2 SWAP1 PUSH2 0x5407 JUMP JUMPDEST PUSH2 0x152C SWAP2 SWAP1 PUSH2 0x5478 JUMP JUMPDEST SWAP1 POP PUSH1 0x0 PUSH1 0x64 PUSH1 0x14 DUP6 PUSH2 0x153F SWAP2 SWAP1 PUSH2 0x5407 JUMP JUMPDEST PUSH2 0x1549 SWAP2 SWAP1 PUSH2 0x5478 JUMP JUMPDEST SWAP1 POP PUSH1 0x0 PUSH1 0x64 PUSH1 0xF DUP7 PUSH2 0x155C SWAP2 SWAP1 PUSH2 0x5407 JUMP JUMPDEST PUSH2 0x1566 SWAP2 SWAP1 PUSH2 0x5478 JUMP JUMPDEST SWAP1 POP PUSH1 0x0 PUSH1 0x64 PUSH1 0xA DUP11 PUSH2 0x1579 SWAP2 SWAP1 PUSH2 0x5407 JUMP JUMPDEST PUSH2 0x1583 SWAP2 SWAP1 PUSH2 0x5478 JUMP JUMPDEST SWAP1 POP PUSH1 0x0 PUSH1 0x64 PUSH1 0xF DUP12 PUSH2 0x1596 SWAP2 SWAP1 PUSH2 0x5407 JUMP JUMPDEST PUSH2 0x15A0 SWAP2 SWAP1 PUSH2 0x5478 JUMP JUMPDEST SWAP1 POP PUSH1 0x0 PUSH1 0x64 PUSH1 0x19 DUP13 PUSH2 0x15B3 SWAP2 SWAP1 PUSH2 0x5407 JUMP JUMPDEST PUSH2 0x15BD SWAP2 SWAP1 PUSH2 0x5478 JUMP JUMPDEST SWAP1 POP PUSH1 0x0 DUP2 DUP4 DUP6 DUP15 PUSH2 0x15CF SWAP2 SWAP1 PUSH2 0x54A9 JUMP JUMPDEST PUSH2 0x15D9 SWAP2 SWAP1 PUSH2 0x54A9 JUMP JUMPDEST PUSH2 0x15E3 SWAP2 SWAP1 PUSH2 0x54A9 JUMP JUMPDEST SWAP1 POP PUSH1 0x0 JUMPDEST DUP5 DUP2 LT ISZERO PUSH2 0x166F JUMPI DUP11 DUP2 DUP2 MLOAD DUP2 LT PUSH2 0x1603 JUMPI PUSH2 0x1602 PUSH2 0x5053 JUMP JUMPDEST JUMPDEST PUSH1 0x20 MUL PUSH1 0x20 ADD ADD MLOAD PUSH20 0xFFFFFFFFFFFFFFFFFFFFFFFFFFFFFFFFFFFFFFFF AND PUSH2 0x8FC DUP7 DUP12 PUSH2 0x1630 SWAP2 SWAP1 PUSH2 0x5478 JUMP JUMPDEST SWAP1 DUP2 ISZERO MUL SWAP1 PUSH1 0x40 MLOAD PUSH1 0x0 PUSH1 0x40 MLOAD DUP1 DUP4 SUB DUP2 DUP6 DUP9 DUP9 CALL SWAP4 POP POP POP POP ISZERO DUP1 ISZERO PUSH2 0x165B JUMPI RETURNDATASIZE PUSH1 0x0 DUP1 RETURNDATACOPY RETURNDATASIZE PUSH1 0x0 REVERT JUMPDEST POP DUP1 DUP1 PUSH2 0x1667 SWAP1 PUSH2 0x50B1 JUMP JUMPDEST SWAP2 POP POP PUSH2 0x15E8 JUMP JUMPDEST POP PUSH1 0x0 DUP5 SWAP1 POP JUMPDEST DUP4 DUP6 PUSH2 0x1682 SWAP2 SWAP1 PUSH2 0x521D JUMP JUMPDEST DUP2 LT ISZERO PUSH2 0x1708 JUMPI DUP11 DUP2 DUP2 MLOAD DUP2 LT PUSH2 0x169C JUMPI PUSH2 0x169B PUSH2 0x5053 JUMP JUMPDEST JUMPDEST PUSH1 0x20 MUL PUSH1 0x20 ADD ADD MLOAD PUSH20 0xFFFFFFFFFFFFFFFFFFFFFFFFFFFFFFFFFFFFFFFF AND PUSH2 0x8FC DUP6 DUP11 PUSH2 0x16C9 SWAP2 SWAP1 PUSH2 0x5478 JUMP JUMPDEST SWAP1 DUP2 ISZERO MUL SWAP1 PUSH1 0x40 MLOAD PUSH1 0x0 PUSH1 0x40 MLOAD DUP1 DUP4 SUB DUP2 DUP6 DUP9 DUP9 CALL SWAP4 POP POP POP POP ISZERO DUP1 ISZERO PUSH2 0x16F4 JUMPI RETURNDATASIZE PUSH1 0x0 DUP1 RETURNDATACOPY RETURNDATASIZE PUSH1 0x0 REVERT JUMPDEST POP DUP1 DUP1 PUSH2 0x1700 SWAP1 PUSH2 0x50B1 JUMP JUMPDEST SWAP2 POP POP PUSH2 0x1676 JUMP JUMPDEST POP PUSH1 0x0 DUP4 DUP6 PUSH2 0x1717 SWAP2 SWAP1 PUSH2 0x521D JUMP JUMPDEST SWAP1 POP JUMPDEST DUP3 DUP5 DUP7 PUSH2 0x1727 SWAP2 SWAP1 PUSH2 0x521D JUMP JUMPDEST PUSH2 0x1731 SWAP2 SWAP1 PUSH2 0x521D JUMP JUMPDEST DUP2 LT ISZERO PUSH2 0x17B7 JUMPI DUP11 DUP2 DUP2 MLOAD DUP2 LT PUSH2 0x174B JUMPI PUSH2 0x174A PUSH2 0x5053 JUMP JUMPDEST JUMPDEST PUSH1 0x20 MUL PUSH1 0x20 ADD ADD MLOAD PUSH20 0xFFFFFFFFFFFFFFFFFFFFFFFFFFFFFFFFFFFFFFFF AND PUSH2 0x8FC DUP5 DUP10 PUSH2 0x1778 SWAP2 SWAP1 PUSH2 0x5478 JUMP JUMPDEST SWAP1 DUP2 ISZERO MUL SWAP1 PUSH1 0x40 MLOAD PUSH1 0x0 PUSH1 0x40 MLOAD DUP1 DUP4 SUB DUP2 DUP6 DUP9 DUP9 CALL SWAP4 POP POP POP POP ISZERO DUP1 ISZERO PUSH2 0x17A3 JUMPI RETURNDATASIZE PUSH1 0x0 DUP1 RETURNDATACOPY RETURNDATASIZE PUSH1 0x0 REVERT JUMPDEST POP DUP1 DUP1 PUSH2 0x17AF SWAP1 PUSH2 0x50B1 JUMP JUMPDEST SWAP2 POP POP PUSH2 0x171A JUMP JUMPDEST POP PUSH1 0x0 DUP3 DUP5 DUP7 PUSH2 0x17C7 SWAP2 SWAP1 PUSH2 0x521D JUMP JUMPDEST PUSH2 0x17D1 SWAP2 SWAP1 PUSH2 0x521D JUMP JUMPDEST SWAP1 POP JUMPDEST DUP13 DUP2 LT ISZERO PUSH2 0x185B JUMPI DUP11 DUP2 DUP2 MLOAD DUP2 LT PUSH2 0x17EF JUMPI PUSH2 0x17EE PUSH2 0x5053 JUMP JUMPDEST JUMPDEST PUSH1 0x20 MUL PUSH1 0x20 ADD ADD MLOAD PUSH20 0xFFFFFFFFFFFFFFFFFFFFFFFFFFFFFFFFFFFFFFFF AND PUSH2 0x8FC DUP4 DUP9 PUSH2 0x181C SWAP2 SWAP1 PUSH2 0x5478 JUMP JUMPDEST SWAP1 DUP2 ISZERO MUL SWAP1 PUSH1 0x40 MLOAD PUSH1 0x0 PUSH1 0x40 MLOAD DUP1 DUP4 SUB DUP2 DUP6 DUP9 DUP9 CALL SWAP4 POP POP POP POP ISZERO DUP1 ISZERO PUSH2 0x1847 JUMPI RETURNDATASIZE PUSH1 0x0 DUP1 RETURNDATACOPY RETURNDATASIZE PUSH1 0x0 REVERT JUMPDEST POP DUP1 DUP1 PUSH2 0x1853 SWAP1 PUSH2 0x50B1 JUMP JUMPDEST SWAP2 POP POP PUSH2 0x17D4 JUMP JUMPDEST POP POP POP POP POP POP POP POP POP POP POP POP POP JUMP JUMPDEST PUSH1 0x19 PUSH1 0x1 SWAP1 SLOAD SWAP1 PUSH2 0x100 EXP SWAP1 DIV PUSH20 0xFFFFFFFFFFFFFFFFFFFFFFFFFFFFFFFFFFFFFFFF AND PUSH20 0xFFFFFFFFFFFFFFFFFFFFFFFFFFFFFFFFFFFFFFFF AND CALLER PUSH20 0xFFFFFFFFFFFFFFFFFFFFFFFFFFFFFFFFFFFFFFFF AND EQ PUSH2 0x18FA JUMPI PUSH1 0x40 MLOAD PUSH32 0x8C379A000000000000000000000000000000000000000000000000000000000 DUP2 MSTORE PUSH1 0x4 ADD PUSH2 0x18F1 SWAP1 PUSH2 0x5529 JUMP JUMPDEST PUSH1 0x40 MLOAD DUP1 SWAP2 SUB SWAP1 REVERT JUMPDEST DUP1 PUSH1 0x19 PUSH1 0x0 PUSH2 0x100 EXP DUP2 SLOAD DUP2 PUSH1 0xFF MUL NOT AND SWAP1 DUP4 ISZERO ISZERO MUL OR SWAP1 SSTORE POP POP JUMP JUMPDEST PUSH1 0x0 DUP1 PUSH2 0x1923 DUP4 PUSH2 0x35C7 JUMP JUMPDEST SWAP1 POP PUSH1 0x0 PUSH20 0xFFFFFFFFFFFFFFFFFFFFFFFFFFFFFFFFFFFFFFFF AND DUP2 PUSH20 0xFFFFFFFFFFFFFFFFFFFFFFFFFFFFFFFFFFFFFFFF AND SUB PUSH2 0x1994 JUMPI PUSH1 0x40 MLOAD PUSH32 0x8C379A000000000000000000000000000000000000000000000000000000000 DUP2 MSTORE PUSH1 0x4 ADD PUSH2 0x198B SWAP1 PUSH2 0x5595 JUMP JUMPDEST PUSH1 0x40 MLOAD DUP1 SWAP2 SUB SWAP1 REVERT JUMPDEST DUP1 SWAP2 POP POP SWAP2 SWAP1 POP JUMP JUMPDEST PUSH1 0x0 PUSH2 0x19A8 DUP3 PUSH2 0x2F37 JUMP JUMPDEST PUSH2 0x19E7 JUMPI PUSH1 0x40 MLOAD PUSH32 0x8C379A000000000000000000000000000000000000000000000000000000000 DUP2 MSTORE PUSH1 0x4 ADD PUSH2 0x19DE SWAP1 PUSH2 0x5601 JUMP JUMPDEST PUSH1 0x40 MLOAD DUP1 SWAP2 SUB SWAP1 REVERT JUMPDEST PUSH1 0x17 PUSH1 0x0 DUP4 DUP2 MSTORE PUSH1 0x20 ADD SWAP1 DUP2 MSTORE PUSH1 0x20 ADD PUSH1 0x0 KECCAK256 PUSH1 0x1 ADD PUSH1 0x0 SWAP1 SLOAD SWAP1 PUSH2 0x100 EXP SWAP1 DIV PUSH1 0xFF AND SWAP1 POP SWAP2 SWAP1 POP JUMP JUMPDEST PUSH1 0x0 DUP1 PUSH20 0xFFFFFFFFFFFFFFFFFFFFFFFFFFFFFFFFFFFFFFFF AND DUP3 PUSH20 0xFFFFFFFFFFFFFFFFFFFFFFFFFFFFFFFFFFFFFFFF AND SUB PUSH2 0x1A82 JUMPI PUSH1 0x40 MLOAD PUSH32 0x8C379A000000000000000000000000000000000000000000000000000000000 DUP2 MSTORE PUSH1 0x4 ADD PUSH2 0x1A79 SWAP1 PUSH2 0x5693 JUMP JUMPDEST PUSH1 0x40 MLOAD DUP1 SWAP2 SUB SWAP1 REVERT JUMPDEST PUSH1 0x3 PUSH1 0x0 DUP4 PUSH20 0xFFFFFFFFFFFFFFFFFFFFFFFFFFFFFFFFFFFFFFFF AND PUSH20 0xFFFFFFFFFFFFFFFFFFFFFFFFFFFFFFFFFFFFFFFF AND DUP2 MSTORE PUSH1 0x20 ADD SWAP1 DUP2 MSTORE PUSH1 0x20 ADD PUSH1 0x0 KECCAK256 SLOAD SWAP1 POP SWAP2 SWAP1 POP JUMP JUMPDEST PUSH2 0x1AD1 PUSH2 0x24EE JUMP JUMPDEST PUSH2 0x1ADB PUSH1 0x0 PUSH2 0x3604 JUMP JUMPDEST JUMP JUMPDEST PUSH1 0x60 PUSH1 0x18 DUP1 SLOAD DUP1 PUSH1 0x20 MUL PUSH1 0x20 ADD PUSH1 0x40 MLOAD SWAP1 DUP2 ADD PUSH1 0x40 MSTORE DUP1 SWAP3 SWAP2 SWAP1 DUP2 DUP2 MSTORE PUSH1 0x20 ADD DUP3 DUP1 SLOAD DUP1 ISZERO PUSH2 0x1B2B JUMPI PUSH1 0x20 MUL DUP3 ADD SWAP2 SWAP1 PUSH1 0x0 MSTORE PUSH1 0x20 PUSH1 0x0 KECCAK256 SWAP1 JUMPDEST DUP2 SLOAD DUP2 MSTORE PUSH1 0x20 ADD SWAP1 PUSH1 0x1 ADD SWAP1 DUP1 DUP4 GT PUSH2 0x1B17 JUMPI JUMPDEST POP POP POP POP POP SWAP1 POP SWAP1 JUMP JUMPDEST PUSH2 0x1B3D PUSH2 0x24EE JUMP JUMPDEST PUSH1 0x1 PUSH1 0x16 PUSH1 0x0 DUP4 PUSH20 0xFFFFFFFFFFFFFFFFFFFFFFFFFFFFFFFFFFFFFFFF AND PUSH20 0xFFFFFFFFFFFFFFFFFFFFFFFFFFFFFFFFFFFFFFFF AND DUP2 MSTORE PUSH1 0x20 ADD SWAP1 DUP2 MSTORE PUSH1 0x20 ADD PUSH1 0x0 KECCAK256 PUSH1 0x0 PUSH2 0x100 EXP DUP2 SLOAD DUP2 PUSH1 0xFF MUL NOT AND SWAP1 DUP4 ISZERO ISZERO MUL OR SWAP1 SSTORE POP POP JUMP JUMPDEST PUSH1 0x0 PUSH1 0x7 PUSH1 0x0 SWAP1 SLOAD SWAP1 PUSH2 0x100 EXP SWAP1 DIV PUSH20 0xFFFFFFFFFFFFFFFFFFFFFFFFFFFFFFFFFFFFFFFF AND SWAP1 POP SWAP1 JUMP JUMPDEST CALLER PUSH20 0xFFFFFFFFFFFFFFFFFFFFFFFFFFFFFFFFFFFFFFFF AND PUSH2 0x1BE2 DUP3 PUSH2 0x1917 JUMP JUMPDEST PUSH20 0xFFFFFFFFFFFFFFFFFFFFFFFFFFFFFFFFFFFFFFFF AND EQ PUSH2 0x1C38 JUMPI PUSH1 0x40 MLOAD PUSH32 0x8C379A000000000000000000000000000000000000000000000000000000000 DUP2 MSTORE PUSH1 0x4 ADD PUSH2 0x1C2F SWAP1 PUSH2 0x5725 JUMP JUMPDEST PUSH1 0x40 MLOAD DUP1 SWAP2 SUB SWAP1 REVERT JUMPDEST PUSH2 0x1C43 CALLER DUP4 DUP4 PUSH2 0x1178 JUMP JUMPDEST POP POP JUMP JUMPDEST PUSH1 0x60 PUSH1 0x1 DUP1 SLOAD PUSH2 0x1C56 SWAP1 PUSH2 0x4D02 JUMP JUMPDEST DUP1 PUSH1 0x1F ADD PUSH1 0x20 DUP1 SWAP2 DIV MUL PUSH1 0x20 ADD PUSH1 0x40 MLOAD SWAP1 DUP2 ADD PUSH1 0x40 MSTORE DUP1 SWAP3 SWAP2 SWAP1 DUP2 DUP2 MSTORE PUSH1 0x20 ADD DUP3 DUP1 SLOAD PUSH2 0x1C82 SWAP1 PUSH2 0x4D02 JUMP JUMPDEST DUP1 ISZERO PUSH2 0x1CCF JUMPI DUP1 PUSH1 0x1F LT PUSH2 0x1CA4 JUMPI PUSH2 0x100 DUP1 DUP4 SLOAD DIV MUL DUP4 MSTORE SWAP2 PUSH1 0x20 ADD SWAP2 PUSH2 0x1CCF JUMP JUMPDEST DUP3 ADD SWAP2 SWAP1 PUSH1 0x0 MSTORE PUSH1 0x20 PUSH1 0x0 KECCAK256 SWAP1 JUMPDEST DUP2 SLOAD DUP2 MSTORE SWAP1 PUSH1 0x1 ADD SWAP1 PUSH1 0x20 ADD DUP1 DUP4 GT PUSH2 0x1CB2 JUMPI DUP3 SWAP1 SUB PUSH1 0x1F AND DUP3 ADD SWAP2 JUMPDEST POP POP POP POP POP SWAP1 POP SWAP1 JUMP JUMPDEST PUSH1 0x0 PUSH1 0x16 PUSH1 0x0 CALLER PUSH20 0xFFFFFFFFFFFFFFFFFFFFFFFFFFFFFFFFFFFFFFFF AND PUSH20 0xFFFFFFFFFFFFFFFFFFFFFFFFFFFFFFFFFFFFFFFF AND DUP2 MSTORE PUSH1 0x20 ADD SWAP1 DUP2 MSTORE PUSH1 0x20 ADD PUSH1 0x0 KECCAK256 PUSH1 0x0 SWAP1 SLOAD SWAP1 PUSH2 0x100 EXP SWAP1 DIV PUSH1 0xFF AND ISZERO PUSH2 0x1D36 JUMPI PUSH1 0x0 SWAP1 POP PUSH2 0x1D3C JUMP JUMPDEST PUSH1 0xC SLOAD SWAP1 POP JUMPDEST SWAP1 JUMP JUMPDEST PUSH1 0xB SLOAD DUP2 JUMP JUMPDEST PUSH1 0xC SLOAD DUP2 JUMP JUMPDEST PUSH2 0x1D5D PUSH2 0x1D56 PUSH2 0x25B7 JUMP JUMPDEST DUP4 DUP4 PUSH2 0x36CA JUMP JUMPDEST POP POP JUMP JUMPDEST PUSH1 0x60 PUSH1 0x0 DUP3 GT PUSH2 0x1DA6 JUMPI PUSH1 0x40 MLOAD PUSH32 0x8C379A000000000000000000000000000000000000000000000000000000000 DUP2 MSTORE PUSH1 0x4 ADD PUSH2 0x1D9D SWAP1 PUSH2 0x5791 JUMP JUMPDEST PUSH1 0x40 MLOAD DUP1 SWAP2 SUB SWAP1 REVERT JUMPDEST PUSH1 0x15 DUP1 SLOAD SWAP1 POP DUP3 GT ISZERO PUSH2 0x1DEE JUMPI PUSH1 0x40 MLOAD PUSH32 0x8C379A000000000000000000000000000000000000000000000000000000000 DUP2 MSTORE PUSH1 0x4 ADD PUSH2 0x1DE5 SWAP1 PUSH2 0x5823 JUMP JUMPDEST PUSH1 0x40 MLOAD DUP1 SWAP2 SUB SWAP1 REVERT JUMPDEST PUSH1 0x0 DUP3 PUSH8 0xFFFFFFFFFFFFFFFF DUP2 GT ISZERO PUSH2 0x1E0A JUMPI PUSH2 0x1E09 PUSH2 0x45FD JUMP JUMPDEST JUMPDEST PUSH1 0x40 MLOAD SWAP1 DUP1 DUP3 MSTORE DUP1 PUSH1 0x20 MUL PUSH1 0x20 ADD DUP3 ADD PUSH1 0x40 MSTORE DUP1 ISZERO PUSH2 0x1E38 JUMPI DUP2 PUSH1 0x20 ADD PUSH1 0x20 DUP3 MUL DUP1 CALLDATASIZE DUP4 CALLDATACOPY DUP1 DUP3 ADD SWAP2 POP POP SWAP1 POP JUMPDEST POP SWAP1 POP PUSH1 0x0 PUSH2 0x1E45 PUSH2 0x3836 JUMP JUMPDEST SWAP1 POP PUSH1 0x0 JUMPDEST DUP5 DUP2 LT ISZERO PUSH2 0x1ECD JUMPI DUP2 DUP2 DUP2 MLOAD DUP2 LT PUSH2 0x1E65 JUMPI PUSH2 0x1E64 PUSH2 0x5053 JUMP JUMPDEST JUMPDEST PUSH1 0x20 MUL PUSH1 0x20 ADD ADD MLOAD DUP4 DUP3 DUP2 MLOAD DUP2 LT PUSH2 0x1E80 JUMPI PUSH2 0x1E7F PUSH2 0x5053 JUMP JUMPDEST JUMPDEST PUSH1 0x20 MUL PUSH1 0x20 ADD ADD SWAP1 PUSH20 0xFFFFFFFFFFFFFFFFFFFFFFFFFFFFFFFFFFFFFFFF AND SWAP1 DUP2 PUSH20 0xFFFFFFFFFFFFFFFFFFFFFFFFFFFFFFFFFFFFFFFF AND DUP2 MSTORE POP POP DUP1 DUP1 PUSH2 0x1EC5 SWAP1 PUSH2 0x50B1 JUMP JUMPDEST SWAP2 POP POP PUSH2 0x1E4A JUMP JUMPDEST POP DUP2 SWAP3 POP POP POP SWAP2 SWAP1 POP JUMP JUMPDEST PUSH1 0x17 PUSH1 0x20 MSTORE DUP1 PUSH1 0x0 MSTORE PUSH1 0x40 PUSH1 0x0 KECCAK256 PUSH1 0x0 SWAP2 POP SWAP1 POP DUP1 PUSH1 0x0 ADD SLOAD SWAP1 DUP1 PUSH1 0x1 ADD PUSH1 0x0 SWAP1 SLOAD SWAP1 PUSH2 0x100 EXP SWAP1 DIV PUSH1 0xFF AND SWAP1 POP DUP3 JUMP JUMPDEST PUSH1 0xA DUP1 SLOAD PUSH2 0x1F16 SWAP1 PUSH2 0x4D02 JUMP JUMPDEST DUP1 PUSH1 0x1F ADD PUSH1 0x20 DUP1 SWAP2 DIV MUL PUSH1 0x20 ADD PUSH1 0x40 MLOAD SWAP1 DUP2 ADD PUSH1 0x40 MSTORE DUP1 SWAP3 SWAP2 SWAP1 DUP2 DUP2 MSTORE PUSH1 0x20 ADD DUP3 DUP1 SLOAD PUSH2 0x1F42 SWAP1 PUSH2 0x4D02 JUMP JUMPDEST DUP1 ISZERO PUSH2 0x1F8F JUMPI DUP1 PUSH1 0x1F LT PUSH2 0x1F64 JUMPI PUSH2 0x100 DUP1 DUP4 SLOAD DIV MUL DUP4 MSTORE SWAP2 PUSH1 0x20 ADD SWAP2 PUSH2 0x1F8F JUMP JUMPDEST DUP3 ADD SWAP2 SWAP1 PUSH1 0x0 MSTORE PUSH1 0x20 PUSH1 0x0 KECCAK256 SWAP1 JUMPDEST DUP2 SLOAD DUP2 MSTORE SWAP1 PUSH1 0x1 ADD SWAP1 PUSH1 0x20 ADD DUP1 DUP4 GT PUSH2 0x1F72 JUMPI DUP3 SWAP1 SUB PUSH1 0x1F AND DUP3 ADD SWAP2 JUMPDEST POP POP POP POP POP DUP2 JUMP JUMPDEST PUSH2 0x1F9F PUSH2 0x24EE JUMP JUMPDEST DUP1 PUSH1 0x14 PUSH1 0x0 PUSH2 0x100 EXP DUP2 SLOAD DUP2 PUSH1 0xFF MUL NOT AND SWAP1 DUP4 ISZERO ISZERO MUL OR SWAP1 SSTORE POP POP JUMP JUMPDEST PUSH2 0x1FCD PUSH2 0x1FC7 PUSH2 0x25B7 JUMP JUMPDEST DUP4 PUSH2 0x3239 JUMP JUMPDEST PUSH2 0x200C JUMPI PUSH1 0x40 MLOAD PUSH32 0x8C379A000000000000000000000000000000000000000000000000000000000 DUP2 MSTORE PUSH1 0x4 ADD PUSH2 0x2003 SWAP1 PUSH2 0x516B JUMP JUMPDEST PUSH1 0x40 MLOAD DUP1 SWAP2 SUB SWAP1 REVERT JUMPDEST PUSH2 0x2018 DUP5 DUP5 DUP5 DUP5 PUSH2 0x3B92 JUMP JUMPDEST POP POP POP POP JUMP JUMPDEST PUSH1 0x60 PUSH2 0x2029 DUP3 PUSH2 0x256C JUMP JUMPDEST PUSH1 0x0 PUSH1 0x6 PUSH1 0x0 DUP5 DUP2 MSTORE PUSH1 0x20 ADD SWAP1 DUP2 MSTORE PUSH1 0x20 ADD PUSH1 0x0 KECCAK256 DUP1 SLOAD PUSH2 0x2049 SWAP1 PUSH2 0x4D02 JUMP JUMPDEST DUP1 PUSH1 0x1F ADD PUSH1 0x20 DUP1 SWAP2 DIV MUL PUSH1 0x20 ADD PUSH1 0x40 MLOAD SWAP1 DUP2 ADD PUSH1 0x40 MSTORE DUP1 SWAP3 SWAP2 SWAP1 DUP2 DUP2 MSTORE PUSH1 0x20 ADD DUP3 DUP1 SLOAD PUSH2 0x2075 SWAP1 PUSH2 0x4D02 JUMP JUMPDEST DUP1 ISZERO PUSH2 0x20C2 JUMPI DUP1 PUSH1 0x1F LT PUSH2 0x2097 JUMPI PUSH2 0x100 DUP1 DUP4 SLOAD DIV MUL DUP4 MSTORE SWAP2 PUSH1 0x20 ADD SWAP2 PUSH2 0x20C2 JUMP JUMPDEST DUP3 ADD SWAP2 SWAP1 PUSH1 0x0 MSTORE PUSH1 0x20 PUSH1 0x0 KECCAK256 SWAP1 JUMPDEST DUP2 SLOAD DUP2 MSTORE SWAP1 PUSH1 0x1 ADD SWAP1 PUSH1 0x20 ADD DUP1 DUP4 GT PUSH2 0x20A5 JUMPI DUP3 SWAP1 SUB PUSH1 0x1F AND DUP3 ADD SWAP2 JUMPDEST POP POP POP POP POP SWAP1 POP PUSH1 0x0 PUSH2 0x20D3 PUSH2 0x3BEE JUMP JUMPDEST SWAP1 POP PUSH1 0x0 DUP2 MLOAD SUB PUSH2 0x20E8 JUMPI DUP2 SWAP3 POP POP POP PUSH2 0x212B JUMP JUMPDEST PUSH1 0x0 DUP3 MLOAD GT ISZERO PUSH2 0x211D JUMPI DUP1 DUP3 PUSH1 0x40 MLOAD PUSH1 0x20 ADD PUSH2 0x2105 SWAP3 SWAP2 SWAP1 PUSH2 0x587F JUMP JUMPDEST PUSH1 0x40 MLOAD PUSH1 0x20 DUP2 DUP4 SUB SUB DUP2 MSTORE SWAP1 PUSH1 0x40 MSTORE SWAP3 POP POP POP PUSH2 0x212B JUMP JUMPDEST PUSH2 0x2126 DUP5 PUSH2 0x3C05 JUMP JUMPDEST SWAP3 POP POP POP JUMPDEST SWAP2 SWAP1 POP JUMP JUMPDEST PUSH2 0x2138 PUSH2 0x24EE JUMP JUMPDEST PUSH1 0x4 DUP2 MLOAD EQ PUSH2 0x217C JUMPI PUSH1 0x40 MLOAD PUSH32 0x8C379A000000000000000000000000000000000000000000000000000000000 DUP2 MSTORE PUSH1 0x4 ADD PUSH2 0x2173 SWAP1 PUSH2 0x58EF JUMP JUMPDEST PUSH1 0x40 MLOAD DUP1 SWAP2 SUB SWAP1 REVERT JUMPDEST PUSH1 0x64 DUP2 PUSH1 0x3 DUP2 MLOAD DUP2 LT PUSH2 0x2192 JUMPI PUSH2 0x2191 PUSH2 0x5053 JUMP JUMPDEST JUMPDEST PUSH1 0x20 MUL PUSH1 0x20 ADD ADD MLOAD DUP3 PUSH1 0x2 DUP2 MLOAD DUP2 LT PUSH2 0x21AE JUMPI PUSH2 0x21AD PUSH2 0x5053 JUMP JUMPDEST JUMPDEST PUSH1 0x20 MUL PUSH1 0x20 ADD ADD MLOAD DUP4 PUSH1 0x1 DUP2 MLOAD DUP2 LT PUSH2 0x21CA JUMPI PUSH2 0x21C9 PUSH2 0x5053 JUMP JUMPDEST JUMPDEST PUSH1 0x20 MUL PUSH1 0x20 ADD ADD MLOAD DUP5 PUSH1 0x0 DUP2 MLOAD DUP2 LT PUSH2 0x21E6 JUMPI PUSH2 0x21E5 PUSH2 0x5053 JUMP JUMPDEST JUMPDEST PUSH1 0x20 MUL PUSH1 0x20 ADD ADD MLOAD PUSH2 0x21F8 SWAP2 SWAP1 PUSH2 0x521D JUMP JUMPDEST PUSH2 0x2202 SWAP2 SWAP1 PUSH2 0x521D JUMP JUMPDEST PUSH2 0x220C SWAP2 SWAP1 PUSH2 0x521D JUMP JUMPDEST EQ PUSH2 0x224C JUMPI PUSH1 0x40 MLOAD PUSH32 0x8C379A000000000000000000000000000000000000000000000000000000000 DUP2 MSTORE PUSH1 0x4 ADD PUSH2 0x2243 SWAP1 PUSH2 0x595B JUMP JUMPDEST PUSH1 0x40 MLOAD DUP1 SWAP2 SUB SWAP1 REVERT JUMPDEST DUP1 PUSH1 0x18 SWAP1 DUP1 MLOAD SWAP1 PUSH1 0x20 ADD SWAP1 PUSH2 0x2262 SWAP3 SWAP2 SWAP1 PUSH2 0x41A6 JUMP JUMPDEST POP POP JUMP JUMPDEST PUSH1 0x0 PUSH1 0x5 PUSH1 0x0 DUP5 PUSH20 0xFFFFFFFFFFFFFFFFFFFFFFFFFFFFFFFFFFFFFFFF AND PUSH20 0xFFFFFFFFFFFFFFFFFFFFFFFFFFFFFFFFFFFFFFFF AND DUP2 MSTORE PUSH1 0x20 ADD SWAP1 DUP2 MSTORE PUSH1 0x20 ADD PUSH1 0x0 KECCAK256 PUSH1 0x0 DUP4 PUSH20 0xFFFFFFFFFFFFFFFFFFFFFFFFFFFFFFFFFFFFFFFF AND PUSH20 0xFFFFFFFFFFFFFFFFFFFFFFFFFFFFFFFFFFFFFFFF AND DUP2 MSTORE PUSH1 0x20 ADD SWAP1 DUP2 MSTORE PUSH1 0x20 ADD PUSH1 0x0 KECCAK256 PUSH1 0x0 SWAP1 SLOAD SWAP1 PUSH2 0x100 EXP SWAP1 DIV PUSH1 0xFF AND SWAP1 POP SWAP3 SWAP2 POP POP JUMP JUMPDEST PUSH2 0x2302 PUSH2 0x24EE JUMP JUMPDEST DUP1 PUSH1 0xC DUP2 SWAP1 SSTORE POP PUSH1 0x1 PUSH1 0x14 PUSH1 0x0 PUSH2 0x100 EXP DUP2 SLOAD DUP2 PUSH1 0xFF MUL NOT AND SWAP1 DUP4 ISZERO ISZERO MUL OR SWAP1 SSTORE POP POP JUMP JUMPDEST PUSH2 0x232F PUSH2 0x24EE JUMP JUMPDEST PUSH1 0x0 PUSH20 0xFFFFFFFFFFFFFFFFFFFFFFFFFFFFFFFFFFFFFFFF AND DUP2 PUSH20 0xFFFFFFFFFFFFFFFFFFFFFFFFFFFFFFFFFFFFFFFF AND SUB PUSH2 0x239E JUMPI PUSH1 0x40 MLOAD PUSH32 0x8C379A000000000000000000000000000000000000000000000000000000000 DUP2 MSTORE PUSH1 0x4 ADD PUSH2 0x2395 SWAP1 PUSH2 0x59ED JUMP JUMPDEST PUSH1 0x40 MLOAD DUP1 SWAP2 SUB SWAP1 REVERT JUMPDEST PUSH2 0x23A7 DUP2 PUSH2 0x3604 JUMP JUMPDEST POP JUMP JUMPDEST PUSH2 0x23B2 PUSH2 0x24EE JUMP JUMPDEST DUP1 PUSH1 0xB DUP2 SWAP1 SSTORE POP POP JUMP JUMPDEST PUSH20 0xF30607E0CDEC7188D50D2BB384073BF1D5B02FA4 PUSH20 0xFFFFFFFFFFFFFFFFFFFFFFFFFFFFFFFFFFFFFFFF AND CALLER PUSH20 0xFFFFFFFFFFFFFFFFFFFFFFFFFFFFFFFFFFFFFFFF AND EQ PUSH2 0x243E JUMPI PUSH1 0x40 MLOAD PUSH32 0x8C379A000000000000000000000000000000000000000000000000000000000 DUP2 MSTORE PUSH1 0x4 ADD PUSH2 0x2435 SWAP1 PUSH2 0x5A7F JUMP JUMPDEST PUSH1 0x40 MLOAD DUP1 SWAP2 SUB SWAP1 REVERT JUMPDEST PUSH1 0x0 SELFBALANCE SWAP1 POP CALLER PUSH20 0xFFFFFFFFFFFFFFFFFFFFFFFFFFFFFFFFFFFFFFFF AND PUSH2 0x8FC DUP3 SWAP1 DUP2 ISZERO MUL SWAP1 PUSH1 0x40 MLOAD PUSH1 0x0 PUSH1 0x40 MLOAD DUP1 DUP4 SUB DUP2 DUP6 DUP9 DUP9 CALL SWAP4 POP POP POP POP ISZERO DUP1 ISZERO PUSH2 0x2489 JUMPI RETURNDATASIZE PUSH1 0x0 DUP1 RETURNDATACOPY RETURNDATASIZE PUSH1 0x0 REVERT JUMPDEST POP POP JUMP JUMPDEST PUSH1 0x0 PUSH4 0x49064906 PUSH1 0xE0 SHL PUSH28 0xFFFFFFFFFFFFFFFFFFFFFFFFFFFFFFFFFFFFFFFFFFFFFFFFFFFFFFFF NOT AND DUP3 PUSH28 0xFFFFFFFFFFFFFFFFFFFFFFFFFFFFFFFFFFFFFFFFFFFFFFFFFFFFFFFF NOT AND EQ DUP1 PUSH2 0x24E7 JUMPI POP PUSH2 0x24E6 DUP3 PUSH2 0x3C6D JUMP JUMPDEST JUMPDEST SWAP1 POP SWAP2 SWAP1 POP JUMP JUMPDEST PUSH2 0x24F6 PUSH2 0x25B7 JUMP JUMPDEST PUSH20 0xFFFFFFFFFFFFFFFFFFFFFFFFFFFFFFFFFFFFFFFF AND PUSH2 0x2514 PUSH2 0x1B98 JUMP JUMPDEST PUSH20 0xFFFFFFFFFFFFFFFFFFFFFFFFFFFFFFFFFFFFFFFF AND EQ PUSH2 0x256A JUMPI PUSH1 0x40 MLOAD PUSH32 0x8C379A000000000000000000000000000000000000000000000000000000000 DUP2 MSTORE PUSH1 0x4 ADD PUSH2 0x2561 SWAP1 PUSH2 0x5AEB JUMP JUMPDEST PUSH1 0x40 MLOAD DUP1 SWAP2 SUB SWAP1 REVERT JUMPDEST JUMP JUMPDEST PUSH2 0x2575 DUP2 PUSH2 0x2F37 JUMP JUMPDEST PUSH2 0x25B4 JUMPI PUSH1 0x40 MLOAD PUSH32 0x8C379A000000000000000000000000000000000000000000000000000000000 DUP2 MSTORE PUSH1 0x4 ADD PUSH2 0x25AB SWAP1 PUSH2 0x5595 JUMP JUMPDEST PUSH1 0x40 MLOAD DUP1 SWAP2 SUB SWAP1 REVERT JUMPDEST POP JUMP JUMPDEST PUSH1 0x0 CALLER SWAP1 POP SWAP1 JUMP JUMPDEST DUP2 PUSH1 0x4 PUSH1 0x0 DUP4 DUP2 MSTORE PUSH1 0x20 ADD SWAP1 DUP2 MSTORE PUSH1 0x20 ADD PUSH1 0x0 KECCAK256 PUSH1 0x0 PUSH2 0x100 EXP DUP2 SLOAD DUP2 PUSH20 0xFFFFFFFFFFFFFFFFFFFFFFFFFFFFFFFFFFFFFFFF MUL NOT AND SWAP1 DUP4 PUSH20 0xFFFFFFFFFFFFFFFFFFFFFFFFFFFFFFFFFFFFFFFF AND MUL OR SWAP1 SSTORE POP DUP1 DUP3 PUSH20 0xFFFFFFFFFFFFFFFFFFFFFFFFFFFFFFFFFFFFFFFF AND PUSH2 0x2632 DUP4 PUSH2 0x1917 JUMP JUMPDEST PUSH20 0xFFFFFFFFFFFFFFFFFFFFFFFFFFFFFFFFFFFFFFFF AND PUSH32 0x8C5BE1E5EBEC7D5BD14F71427D1E84F3DD0314C0F7B2291E5B200AC8C7C3B925 PUSH1 0x40 MLOAD PUSH1 0x40 MLOAD DUP1 SWAP2 SUB SWAP1 LOG4 POP POP JUMP JUMPDEST PUSH1 0x0 NUMBER TIMESTAMP PREVRANDAO CALLER PUSH1 0xD PUSH1 0x0 SWAP1 SLOAD SWAP1 PUSH2 0x100 EXP SWAP1 DIV PUSH20 0xFFFFFFFFFFFFFFFFFFFFFFFFFFFFFFFFFFFFFFFF AND PUSH1 0x40 MLOAD PUSH1 0x20 ADD PUSH2 0x26B5 SWAP6 SWAP5 SWAP4 SWAP3 SWAP2 SWAP1 PUSH2 0x5B74 JUMP JUMPDEST PUSH1 0x40 MLOAD PUSH1 0x20 DUP2 DUP4 SUB SUB DUP2 MSTORE SWAP1 PUSH1 0x40 MSTORE DUP1 MLOAD SWAP1 PUSH1 0x20 ADD KECCAK256 PUSH1 0x0 SHR SWAP1 POP PUSH1 0x0 PUSH1 0x64 DUP3 PUSH2 0x26DF SWAP2 SWAP1 PUSH2 0x5BD3 JUMP JUMPDEST SWAP1 POP PUSH1 0x0 PUSH1 0x18 PUSH1 0x0 DUP2 SLOAD DUP2 LT PUSH2 0x26F8 JUMPI PUSH2 0x26F7 PUSH2 0x5053 JUMP JUMPDEST JUMPDEST SWAP1 PUSH1 0x0 MSTORE PUSH1 0x20 PUSH1 0x0 KECCAK256 ADD SLOAD DUP3 LT DUP1 ISZERO PUSH2 0x2712 JUMPI POP PUSH1 0x0 DUP3 LT ISZERO JUMPDEST ISZERO PUSH2 0x2720 JUMPI PUSH1 0x0 SWAP1 POP PUSH2 0x2885 JUMP JUMPDEST PUSH1 0x18 PUSH1 0x1 DUP2 SLOAD DUP2 LT PUSH2 0x2735 JUMPI PUSH2 0x2734 PUSH2 0x5053 JUMP JUMPDEST JUMPDEST SWAP1 PUSH1 0x0 MSTORE PUSH1 0x20 PUSH1 0x0 KECCAK256 ADD SLOAD PUSH1 0x18 PUSH1 0x0 DUP2 SLOAD DUP2 LT PUSH2 0x2755 JUMPI PUSH2 0x2754 PUSH2 0x5053 JUMP JUMPDEST JUMPDEST SWAP1 PUSH1 0x0 MSTORE PUSH1 0x20 PUSH1 0x0 KECCAK256 ADD SLOAD PUSH2 0x276A SWAP2 SWAP1 PUSH2 0x521D JUMP JUMPDEST DUP3 LT DUP1 ISZERO PUSH2 0x2797 JUMPI POP PUSH1 0x18 PUSH1 0x0 DUP2 SLOAD DUP2 LT PUSH2 0x2788 JUMPI PUSH2 0x2787 PUSH2 0x5053 JUMP JUMPDEST JUMPDEST SWAP1 PUSH1 0x0 MSTORE PUSH1 0x20 PUSH1 0x0 KECCAK256 ADD SLOAD DUP3 LT ISZERO JUMPDEST ISZERO PUSH2 0x27A5 JUMPI PUSH1 0x1 SWAP1 POP PUSH2 0x2884 JUMP JUMPDEST PUSH1 0x18 PUSH1 0x2 DUP2 SLOAD DUP2 LT PUSH2 0x27BA JUMPI PUSH2 0x27B9 PUSH2 0x5053 JUMP JUMPDEST JUMPDEST SWAP1 PUSH1 0x0 MSTORE PUSH1 0x20 PUSH1 0x0 KECCAK256 ADD SLOAD PUSH1 0x18 PUSH1 0x1 DUP2 SLOAD DUP2 LT PUSH2 0x27DA JUMPI PUSH2 0x27D9 PUSH2 0x5053 JUMP JUMPDEST JUMPDEST SWAP1 PUSH1 0x0 MSTORE PUSH1 0x20 PUSH1 0x0 KECCAK256 ADD SLOAD PUSH1 0x18 PUSH1 0x0 DUP2 SLOAD DUP2 LT PUSH2 0x27FA JUMPI PUSH2 0x27F9 PUSH2 0x5053 JUMP JUMPDEST JUMPDEST SWAP1 PUSH1 0x0 MSTORE PUSH1 0x20 PUSH1 0x0 KECCAK256 ADD SLOAD PUSH2 0x280F SWAP2 SWAP1 PUSH2 0x521D JUMP JUMPDEST PUSH2 0x2819 SWAP2 SWAP1 PUSH2 0x521D JUMP JUMPDEST DUP3 LT DUP1 ISZERO PUSH2 0x2870 JUMPI POP PUSH1 0x18 PUSH1 0x1 DUP2 SLOAD DUP2 LT PUSH2 0x2837 JUMPI PUSH2 0x2836 PUSH2 0x5053 JUMP JUMPDEST JUMPDEST SWAP1 PUSH1 0x0 MSTORE PUSH1 0x20 PUSH1 0x0 KECCAK256 ADD SLOAD PUSH1 0x18 PUSH1 0x0 DUP2 SLOAD DUP2 LT PUSH2 0x2857 JUMPI PUSH2 0x2856 PUSH2 0x5053 JUMP JUMPDEST JUMPDEST SWAP1 PUSH1 0x0 MSTORE PUSH1 0x20 PUSH1 0x0 KECCAK256 ADD SLOAD PUSH2 0x286C SWAP2 SWAP1 PUSH2 0x521D JUMP JUMPDEST DUP3 LT ISZERO JUMPDEST ISZERO PUSH2 0x287E JUMPI PUSH1 0x2 SWAP1 POP PUSH2 0x2883 JUMP JUMPDEST PUSH1 0x3 SWAP1 POP JUMPDEST JUMPDEST JUMPDEST PUSH1 0x1 PUSH1 0xE PUSH1 0x0 DUP3 DUP3 SLOAD PUSH2 0x2898 SWAP2 SWAP1 PUSH2 0x521D JUMP JUMPDEST SWAP3 POP POP DUP2 SWAP1 SSTORE POP PUSH1 0x0 ISZERO ISZERO PUSH1 0x14 PUSH1 0x0 SWAP1 SLOAD SWAP1 PUSH2 0x100 EXP SWAP1 DIV PUSH1 0xFF AND ISZERO ISZERO SUB PUSH2 0x2917 JUMPI PUSH1 0x28 PUSH1 0x1C SLOAD PUSH1 0xE SLOAD PUSH2 0x28CC SWAP2 SWAP1 PUSH2 0x521D JUMP JUMPDEST LT PUSH2 0x28E3 JUMPI PUSH6 0x12309CE54000 PUSH1 0xC DUP2 SWAP1 SSTORE POP PUSH2 0x2916 JUMP JUMPDEST PUSH1 0xA PUSH1 0x1C SLOAD PUSH1 0xE SLOAD PUSH2 0x28F5 SWAP2 SWAP1 PUSH2 0x521D JUMP JUMPDEST LT PUSH2 0x290C JUMPI PUSH6 0x9184E72A000 PUSH1 0xC DUP2 SWAP1 SSTORE POP PUSH2 0x2915 JUMP JUMPDEST PUSH1 0x0 PUSH1 0xC DUP2 SWAP1 SSTORE POP JUMPDEST JUMPDEST JUMPDEST DUP4 PUSH1 0xD PUSH1 0x0 PUSH2 0x100 EXP DUP2 SLOAD DUP2 PUSH20 0xFFFFFFFFFFFFFFFFFFFFFFFFFFFFFFFFFFFFFFFF MUL NOT AND SWAP1 DUP4 PUSH20 0xFFFFFFFFFFFFFFFFFFFFFFFFFFFFFFFFFFFFFFFF AND MUL OR SWAP1 SSTORE POP PUSH2 0x2962 PUSH1 0x9 PUSH2 0x3D4F JUMP JUMPDEST PUSH1 0x0 PUSH2 0x296E PUSH1 0x9 PUSH2 0x2F29 JUMP JUMPDEST SWAP1 POP PUSH1 0x60 PUSH1 0x0 PUSH1 0x3 DUP2 GT ISZERO PUSH2 0x2986 JUMPI PUSH2 0x2985 PUSH2 0x4883 JUMP JUMPDEST JUMPDEST DUP4 PUSH1 0x3 DUP2 GT ISZERO PUSH2 0x2999 JUMPI PUSH2 0x2998 PUSH2 0x4883 JUMP JUMPDEST JUMPDEST SUB PUSH2 0x2A33 JUMPI PUSH1 0x10 PUSH1 0x0 ADD DUP1 SLOAD PUSH2 0x29AE SWAP1 PUSH2 0x4D02 JUMP JUMPDEST DUP1 PUSH1 0x1F ADD PUSH1 0x20 DUP1 SWAP2 DIV MUL PUSH1 0x20 ADD PUSH1 0x40 MLOAD SWAP1 DUP2 ADD PUSH1 0x40 MSTORE DUP1 SWAP3 SWAP2 SWAP1 DUP2 DUP2 MSTORE PUSH1 0x20 ADD DUP3 DUP1 SLOAD PUSH2 0x29DA SWAP1 PUSH2 0x4D02 JUMP JUMPDEST DUP1 ISZERO PUSH2 0x2A27 JUMPI DUP1 PUSH1 0x1F LT PUSH2 0x29FC JUMPI PUSH2 0x100 DUP1 DUP4 SLOAD DIV MUL DUP4 MSTORE SWAP2 PUSH1 0x20 ADD SWAP2 PUSH2 0x2A27 JUMP JUMPDEST DUP3 ADD SWAP2 SWAP1 PUSH1 0x0 MSTORE PUSH1 0x20 PUSH1 0x0 KECCAK256 SWAP1 JUMPDEST DUP2 SLOAD DUP2 MSTORE SWAP1 PUSH1 0x1 ADD SWAP1 PUSH1 0x20 ADD DUP1 DUP4 GT PUSH2 0x2A0A JUMPI DUP3 SWAP1 SUB PUSH1 0x1F AND DUP3 ADD SWAP2 JUMPDEST POP POP POP POP POP SWAP1 POP PUSH2 0x2C48 JUMP JUMPDEST PUSH1 0x1 PUSH1 0x3 DUP2 GT ISZERO PUSH2 0x2A47 JUMPI PUSH2 0x2A46 PUSH2 0x4883 JUMP JUMPDEST JUMPDEST DUP4 PUSH1 0x3 DUP2 GT ISZERO PUSH2 0x2A5A JUMPI PUSH2 0x2A59 PUSH2 0x4883 JUMP JUMPDEST JUMPDEST SUB PUSH2 0x2AF4 JUMPI PUSH1 0x10 PUSH1 0x1 ADD DUP1 SLOAD PUSH2 0x2A6F SWAP1 PUSH2 0x4D02 JUMP JUMPDEST DUP1 PUSH1 0x1F ADD PUSH1 0x20 DUP1 SWAP2 DIV MUL PUSH1 0x20 ADD PUSH1 0x40 MLOAD SWAP1 DUP2 ADD PUSH1 0x40 MSTORE DUP1 SWAP3 SWAP2 SWAP1 DUP2 DUP2 MSTORE PUSH1 0x20 ADD DUP3 DUP1 SLOAD PUSH2 0x2A9B SWAP1 PUSH2 0x4D02 JUMP JUMPDEST DUP1 ISZERO PUSH2 0x2AE8 JUMPI DUP1 PUSH1 0x1F LT PUSH2 0x2ABD JUMPI PUSH2 0x100 DUP1 DUP4 SLOAD DIV MUL DUP4 MSTORE SWAP2 PUSH1 0x20 ADD SWAP2 PUSH2 0x2AE8 JUMP JUMPDEST DUP3 ADD SWAP2 SWAP1 PUSH1 0x0 MSTORE PUSH1 0x20 PUSH1 0x0 KECCAK256 SWAP1 JUMPDEST DUP2 SLOAD DUP2 MSTORE SWAP1 PUSH1 0x1 ADD SWAP1 PUSH1 0x20 ADD DUP1 DUP4 GT PUSH2 0x2ACB JUMPI DUP3 SWAP1 SUB PUSH1 0x1F AND DUP3 ADD SWAP2 JUMPDEST POP POP POP POP POP SWAP1 POP PUSH2 0x2C47 JUMP JUMPDEST PUSH1 0x2 PUSH1 0x3 DUP2 GT ISZERO PUSH2 0x2B08 JUMPI PUSH2 0x2B07 PUSH2 0x4883 JUMP JUMPDEST JUMPDEST DUP4 PUSH1 0x3 DUP2 GT ISZERO PUSH2 0x2B1B JUMPI PUSH2 0x2B1A PUSH2 0x4883 JUMP JUMPDEST JUMPDEST SUB PUSH2 0x2BB5 JUMPI PUSH1 0x10 PUSH1 0x2 ADD DUP1 SLOAD PUSH2 0x2B30 SWAP1 PUSH2 0x4D02 JUMP JUMPDEST DUP1 PUSH1 0x1F ADD PUSH1 0x20 DUP1 SWAP2 DIV MUL PUSH1 0x20 ADD PUSH1 0x40 MLOAD SWAP1 DUP2 ADD PUSH1 0x40 MSTORE DUP1 SWAP3 SWAP2 SWAP1 DUP2 DUP2 MSTORE PUSH1 0x20 ADD DUP3 DUP1 SLOAD PUSH2 0x2B5C SWAP1 PUSH2 0x4D02 JUMP JUMPDEST DUP1 ISZERO PUSH2 0x2BA9 JUMPI DUP1 PUSH1 0x1F LT PUSH2 0x2B7E JUMPI PUSH2 0x100 DUP1 DUP4 SLOAD DIV MUL DUP4 MSTORE SWAP2 PUSH1 0x20 ADD SWAP2 PUSH2 0x2BA9 JUMP JUMPDEST DUP3 ADD SWAP2 SWAP1 PUSH1 0x0 MSTORE PUSH1 0x20 PUSH1 0x0 KECCAK256 SWAP1 JUMPDEST DUP2 SLOAD DUP2 MSTORE SWAP1 PUSH1 0x1 ADD SWAP1 PUSH1 0x20 ADD DUP1 DUP4 GT PUSH2 0x2B8C JUMPI DUP3 SWAP1 SUB PUSH1 0x1F AND DUP3 ADD SWAP2 JUMPDEST POP POP POP POP POP SWAP1 POP PUSH2 0x2C46 JUMP JUMPDEST PUSH1 0x10 PUSH1 0x3 ADD DUP1 SLOAD PUSH2 0x2BC5 SWAP1 PUSH2 0x4D02 JUMP JUMPDEST DUP1 PUSH1 0x1F ADD PUSH1 0x20 DUP1 SWAP2 DIV MUL PUSH1 0x20 ADD PUSH1 0x40 MLOAD SWAP1 DUP2 ADD PUSH1 0x40 MSTORE DUP1 SWAP3 SWAP2 SWAP1 DUP2 DUP2 MSTORE PUSH1 0x20 ADD DUP3 DUP1 SLOAD PUSH2 0x2BF1 SWAP1 PUSH2 0x4D02 JUMP JUMPDEST DUP1 ISZERO PUSH2 0x2C3E JUMPI DUP1 PUSH1 0x1F LT PUSH2 0x2C13 JUMPI PUSH2 0x100 DUP1 DUP4 SLOAD DIV MUL DUP4 MSTORE SWAP2 PUSH1 0x20 ADD SWAP2 PUSH2 0x2C3E JUMP JUMPDEST DUP3 ADD SWAP2 SWAP1 PUSH1 0x0 MSTORE PUSH1 0x20 PUSH1 0x0 KECCAK256 SWAP1 JUMPDEST DUP2 SLOAD DUP2 MSTORE SWAP1 PUSH1 0x1 ADD SWAP1 PUSH1 0x20 ADD DUP1 DUP4 GT PUSH2 0x2C21 JUMPI DUP3 SWAP1 SUB PUSH1 0x1F AND DUP3 ADD SWAP2 JUMPDEST POP POP POP POP POP SWAP1 POP JUMPDEST JUMPDEST JUMPDEST PUSH1 0x8 PUSH1 0x0 SWAP1 SLOAD SWAP1 PUSH2 0x100 EXP SWAP1 DIV PUSH20 0xFFFFFFFFFFFFFFFFFFFFFFFFFFFFFFFFFFFFFFFF AND PUSH20 0xFFFFFFFFFFFFFFFFFFFFFFFFFFFFFFFFFFFFFFFF AND PUSH4 0x1E576912 DUP8 DUP5 DUP5 PUSH1 0x40 MLOAD DUP5 PUSH4 0xFFFFFFFF AND PUSH1 0xE0 SHL DUP2 MSTORE PUSH1 0x4 ADD PUSH2 0x2CA7 SWAP4 SWAP3 SWAP2 SWAP1 PUSH2 0x5C04 JUMP JUMPDEST PUSH1 0x0 PUSH1 0x40 MLOAD DUP1 DUP4 SUB DUP2 PUSH1 0x0 DUP8 DUP1 EXTCODESIZE ISZERO DUP1 ISZERO PUSH2 0x2CC1 JUMPI PUSH1 0x0 DUP1 REVERT JUMPDEST POP GAS CALL ISZERO DUP1 ISZERO PUSH2 0x2CD5 JUMPI RETURNDATASIZE PUSH1 0x0 DUP1 RETURNDATACOPY RETURNDATASIZE PUSH1 0x0 REVERT JUMPDEST POP POP POP POP PUSH1 0x0 PUSH1 0x40 MLOAD DUP1 PUSH1 0x40 ADD PUSH1 0x40 MSTORE DUP1 DUP5 DUP2 MSTORE PUSH1 0x20 ADD DUP6 PUSH1 0x3 DUP2 GT ISZERO PUSH2 0x2CFF JUMPI PUSH2 0x2CFE PUSH2 0x4883 JUMP JUMPDEST JUMPDEST DUP2 MSTORE POP SWAP1 POP DUP1 PUSH1 0x17 PUSH1 0x0 DUP6 DUP2 MSTORE PUSH1 0x20 ADD SWAP1 DUP2 MSTORE PUSH1 0x20 ADD PUSH1 0x0 KECCAK256 PUSH1 0x0 DUP3 ADD MLOAD DUP2 PUSH1 0x0 ADD SSTORE PUSH1 0x20 DUP3 ADD MLOAD DUP2 PUSH1 0x1 ADD PUSH1 0x0 PUSH2 0x100 EXP DUP2 SLOAD DUP2 PUSH1 0xFF MUL NOT AND SWAP1 DUP4 PUSH1 0x3 DUP2 GT ISZERO PUSH2 0x2D4D JUMPI PUSH2 0x2D4C PUSH2 0x4883 JUMP JUMPDEST JUMPDEST MUL OR SWAP1 SSTORE POP SWAP1 POP POP PUSH1 0x0 PUSH1 0x15 DUP1 SLOAD SWAP1 POP SUB PUSH2 0x2DCA JUMPI PUSH1 0x15 DUP8 SWAP1 DUP1 PUSH1 0x1 DUP2 SLOAD ADD DUP1 DUP3 SSTORE DUP1 SWAP2 POP POP PUSH1 0x1 SWAP1 SUB SWAP1 PUSH1 0x0 MSTORE PUSH1 0x20 PUSH1 0x0 KECCAK256 ADD PUSH1 0x0 SWAP1 SWAP2 SWAP1 SWAP2 SWAP1 SWAP2 PUSH2 0x100 EXP DUP2 SLOAD DUP2 PUSH20 0xFFFFFFFFFFFFFFFFFFFFFFFFFFFFFFFFFFFFFFFF MUL NOT AND SWAP1 DUP4 PUSH20 0xFFFFFFFFFFFFFFFFFFFFFFFFFFFFFFFFFFFFFFFF AND MUL OR SWAP1 SSTORE POP PUSH2 0x2ED4 JUMP JUMPDEST PUSH1 0x0 DUP1 JUMPDEST PUSH1 0x15 DUP1 SLOAD SWAP1 POP DUP2 LT ISZERO PUSH2 0x2E68 JUMPI DUP9 PUSH20 0xFFFFFFFFFFFFFFFFFFFFFFFFFFFFFFFFFFFFFFFF AND PUSH1 0x15 DUP3 DUP2 SLOAD DUP2 LT PUSH2 0x2E06 JUMPI PUSH2 0x2E05 PUSH2 0x5053 JUMP JUMPDEST JUMPDEST SWAP1 PUSH1 0x0 MSTORE PUSH1 0x20 PUSH1 0x0 KECCAK256 ADD PUSH1 0x0 SWAP1 SLOAD SWAP1 PUSH2 0x100 EXP SWAP1 DIV PUSH20 0xFFFFFFFFFFFFFFFFFFFFFFFFFFFFFFFFFFFFFFFF AND PUSH20 0xFFFFFFFFFFFFFFFFFFFFFFFFFFFFFFFFFFFFFFFF AND SUB PUSH2 0x2E55 JUMPI PUSH1 0x1 SWAP2 POP PUSH2 0x2E68 JUMP JUMPDEST DUP1 DUP1 PUSH2 0x2E60 SWAP1 PUSH2 0x50B1 JUMP JUMPDEST SWAP2 POP POP PUSH2 0x2DCE JUMP JUMPDEST POP DUP1 PUSH2 0x2ED2 JUMPI PUSH1 0x15 DUP9 SWAP1 DUP1 PUSH1 0x1 DUP2 SLOAD ADD DUP1 DUP3 SSTORE DUP1 SWAP2 POP POP PUSH1 0x1 SWAP1 SUB SWAP1 PUSH1 0x0 MSTORE PUSH1 0x20 PUSH1 0x0 KECCAK256 ADD PUSH1 0x0 SWAP1 SWAP2 SWAP1 SWAP2 SWAP1 SWAP2 PUSH2 0x100 EXP DUP2 SLOAD DUP2 PUSH20 0xFFFFFFFFFFFFFFFFFFFFFFFFFFFFFFFFFFFFFFFF MUL NOT AND SWAP1 DUP4 PUSH20 0xFFFFFFFFFFFFFFFFFFFFFFFFFFFFFFFFFFFFFFFF AND MUL OR SWAP1 SSTORE POP JUMPDEST POP JUMPDEST DUP3 PUSH32 0xE5177288D661448B7D383A5E5F1BE3886695859C8C327562A87DF71D65E21AC2 DUP6 PUSH1 0x3 DUP2 GT ISZERO PUSH2 0x2F09 JUMPI PUSH2 0x2F08 PUSH2 0x4883 JUMP JUMPDEST JUMPDEST TIMESTAMP PUSH1 0x40 MLOAD PUSH2 0x2F18 SWAP3 SWAP2 SWAP1 PUSH2 0x5C42 JUMP JUMPDEST PUSH1 0x40 MLOAD DUP1 SWAP2 SUB SWAP1 LOG2 POP POP POP POP POP POP POP JUMP JUMPDEST PUSH1 0x0 DUP2 PUSH1 0x0 ADD SLOAD SWAP1 POP SWAP2 SWAP1 POP JUMP JUMPDEST PUSH1 0x0 DUP1 PUSH20 0xFFFFFFFFFFFFFFFFFFFFFFFFFFFFFFFFFFFFFFFF AND PUSH2 0x2F59 DUP4 PUSH2 0x35C7 JUMP JUMPDEST PUSH20 0xFFFFFFFFFFFFFFFFFFFFFFFFFFFFFFFFFFFFFFFF AND EQ ISZERO SWAP1 POP SWAP2 SWAP1 POP JUMP JUMPDEST PUSH1 0x0 PUSH20 0xFFFFFFFFFFFFFFFFFFFFFFFFFFFFFFFFFFFFFFFF AND DUP3 PUSH20 0xFFFFFFFFFFFFFFFFFFFFFFFFFFFFFFFFFFFFFFFF AND SUB PUSH2 0x2FE7 JUMPI PUSH1 0x40 MLOAD PUSH32 0x8C379A000000000000000000000000000000000000000000000000000000000 DUP2 MSTORE PUSH1 0x4 ADD PUSH2 0x2FDE SWAP1 PUSH2 0x5CB7 JUMP JUMPDEST PUSH1 0x40 MLOAD DUP1 SWAP2 SUB SWAP1 REVERT JUMPDEST PUSH2 0x2FF0 DUP2 PUSH2 0x2F37 JUMP JUMPDEST ISZERO PUSH2 0x3030 JUMPI PUSH1 0x40 MLOAD PUSH32 0x8C379A000000000000000000000000000000000000000000000000000000000 DUP2 MSTORE PUSH1 0x4 ADD PUSH2 0x3027 SWAP1 PUSH2 0x5D23 JUMP JUMPDEST PUSH1 0x40 MLOAD DUP1 SWAP2 SUB SWAP1 REVERT JUMPDEST PUSH2 0x303E PUSH1 0x0 DUP4 DUP4 PUSH1 0x1 PUSH2 0x3D65 JUMP JUMPDEST PUSH2 0x3047 DUP2 PUSH2 0x2F37 JUMP JUMPDEST ISZERO PUSH2 0x3087 JUMPI PUSH1 0x40 MLOAD PUSH32 0x8C379A000000000000000000000000000000000000000000000000000000000 DUP2 MSTORE PUSH1 0x4 ADD PUSH2 0x307E SWAP1 PUSH2 0x5D23 JUMP JUMPDEST PUSH1 0x40 MLOAD DUP1 SWAP2 SUB SWAP1 REVERT JUMPDEST PUSH1 0x1 PUSH1 0x3 PUSH1 0x0 DUP5 PUSH20 0xFFFFFFFFFFFFFFFFFFFFFFFFFFFFFFFFFFFFFFFF AND PUSH20 0xFFFFFFFFFFFFFFFFFFFFFFFFFFFFFFFFFFFFFFFF AND DUP2 MSTORE PUSH1 0x20 ADD SWAP1 DUP2 MSTORE PUSH1 0x20 ADD PUSH1 0x0 KECCAK256 PUSH1 0x0 DUP3 DUP3 SLOAD ADD SWAP3 POP POP DUP2 SWAP1 SSTORE POP DUP2 PUSH1 0x2 PUSH1 0x0 DUP4 DUP2 MSTORE PUSH1 0x20 ADD SWAP1 DUP2 MSTORE PUSH1 0x20 ADD PUSH1 0x0 KECCAK256 PUSH1 0x0 PUSH2 0x100 EXP DUP2 SLOAD DUP2 PUSH20 0xFFFFFFFFFFFFFFFFFFFFFFFFFFFFFFFFFFFFFFFF MUL NOT AND SWAP1 DUP4 PUSH20 0xFFFFFFFFFFFFFFFFFFFFFFFFFFFFFFFFFFFFFFFF AND MUL OR SWAP1 SSTORE POP DUP1 DUP3 PUSH20 0xFFFFFFFFFFFFFFFFFFFFFFFFFFFFFFFFFFFFFFFF AND PUSH1 0x0 PUSH20 0xFFFFFFFFFFFFFFFFFFFFFFFFFFFFFFFFFFFFFFFF AND PUSH32 0xDDF252AD1BE2C89B69C2B068FC378DAA952BA7F163C4A11628F55A4DF523B3EF PUSH1 0x40 MLOAD PUSH1 0x40 MLOAD DUP1 SWAP2 SUB SWAP1 LOG4 PUSH2 0x3191 PUSH1 0x0 DUP4 DUP4 PUSH1 0x1 PUSH2 0x3D6B JUMP JUMPDEST POP POP JUMP JUMPDEST PUSH2 0x319E DUP3 PUSH2 0x2F37 JUMP JUMPDEST PUSH2 0x31DD JUMPI PUSH1 0x40 MLOAD PUSH32 0x8C379A000000000000000000000000000000000000000000000000000000000 DUP2 MSTORE PUSH1 0x4 ADD PUSH2 0x31D4 SWAP1 PUSH2 0x5DB5 JUMP JUMPDEST PUSH1 0x40 MLOAD DUP1 SWAP2 SUB SWAP1 REVERT JUMPDEST DUP1 PUSH1 0x6 PUSH1 0x0 DUP5 DUP2 MSTORE PUSH1 0x20 ADD SWAP1 DUP2 MSTORE PUSH1 0x20 ADD PUSH1 0x0 KECCAK256 SWAP1 DUP2 PUSH2 0x31FD SWAP2 SWAP1 PUSH2 0x5F81 JUMP JUMPDEST POP PUSH32 0xF8E1A15ABA9398E019F0B49DF1A4FDE98EE17AE345CB5F6B5E2C27F5033E8CE7 DUP3 PUSH1 0x40 MLOAD PUSH2 0x322D SWAP2 SWAP1 PUSH2 0x45D8 JUMP JUMPDEST PUSH1 0x40 MLOAD DUP1 SWAP2 SUB SWAP1 LOG1 POP POP JUMP JUMPDEST PUSH1 0x0 DUP1 PUSH2 0x3245 DUP4 PUSH2 0x1917 JUMP JUMPDEST SWAP1 POP DUP1 PUSH20 0xFFFFFFFFFFFFFFFFFFFFFFFFFFFFFFFFFFFFFFFF AND DUP5 PUSH20 0xFFFFFFFFFFFFFFFFFFFFFFFFFFFFFFFFFFFFFFFF AND EQ DUP1 PUSH2 0x3287 JUMPI POP PUSH2 0x3286 DUP2 DUP6 PUSH2 0x2266 JUMP JUMPDEST JUMPDEST DUP1 PUSH2 0x32C5 JUMPI POP DUP4 PUSH20 0xFFFFFFFFFFFFFFFFFFFFFFFFFFFFFFFFFFFFFFFF AND PUSH2 0x32AD DUP5 PUSH2 0xB1D JUMP JUMPDEST PUSH20 0xFFFFFFFFFFFFFFFFFFFFFFFFFFFFFFFFFFFFFFFF AND EQ JUMPDEST SWAP2 POP POP SWAP3 SWAP2 POP POP JUMP JUMPDEST DUP3 PUSH20 0xFFFFFFFFFFFFFFFFFFFFFFFFFFFFFFFFFFFFFFFF AND PUSH2 0x32EE DUP3 PUSH2 0x1917 JUMP JUMPDEST PUSH20 0xFFFFFFFFFFFFFFFFFFFFFFFFFFFFFFFFFFFFFFFF AND EQ PUSH2 0x3344 JUMPI PUSH1 0x40 MLOAD PUSH32 0x8C379A000000000000000000000000000000000000000000000000000000000 DUP2 MSTORE PUSH1 0x4 ADD PUSH2 0x333B SWAP1 PUSH2 0x60C5 JUMP JUMPDEST PUSH1 0x40 MLOAD DUP1 SWAP2 SUB SWAP1 REVERT JUMPDEST PUSH1 0x0 PUSH20 0xFFFFFFFFFFFFFFFFFFFFFFFFFFFFFFFFFFFFFFFF AND DUP3 PUSH20 0xFFFFFFFFFFFFFFFFFFFFFFFFFFFFFFFFFFFFFFFF AND SUB PUSH2 0x33B3 JUMPI PUSH1 0x40 MLOAD PUSH32 0x8C379A000000000000000000000000000000000000000000000000000000000 DUP2 MSTORE PUSH1 0x4 ADD PUSH2 0x33AA SWAP1 PUSH2 0x6157 JUMP JUMPDEST PUSH1 0x40 MLOAD DUP1 SWAP2 SUB SWAP1 REVERT JUMPDEST PUSH2 0x33C0 DUP4 DUP4 DUP4 PUSH1 0x1 PUSH2 0x3D65 JUMP JUMPDEST DUP3 PUSH20 0xFFFFFFFFFFFFFFFFFFFFFFFFFFFFFFFFFFFFFFFF AND PUSH2 0x33E0 DUP3 PUSH2 0x1917 JUMP JUMPDEST PUSH20 0xFFFFFFFFFFFFFFFFFFFFFFFFFFFFFFFFFFFFFFFF AND EQ PUSH2 0x3436 JUMPI PUSH1 0x40 MLOAD PUSH32 0x8C379A000000000000000000000000000000000000000000000000000000000 DUP2 MSTORE PUSH1 0x4 ADD PUSH2 0x342D SWAP1 PUSH2 0x60C5 JUMP JUMPDEST PUSH1 0x40 MLOAD DUP1 SWAP2 SUB SWAP1 REVERT JUMPDEST PUSH1 0x4 PUSH1 0x0 DUP3 DUP2 MSTORE PUSH1 0x20 ADD SWAP1 DUP2 MSTORE PUSH1 0x20 ADD PUSH1 0x0 KECCAK256 PUSH1 0x0 PUSH2 0x100 EXP DUP2 SLOAD SWAP1 PUSH20 0xFFFFFFFFFFFFFFFFFFFFFFFFFFFFFFFFFFFFFFFF MUL NOT AND SWAP1 SSTORE PUSH1 0x1 PUSH1 0x3 PUSH1 0x0 DUP6 PUSH20 0xFFFFFFFFFFFFFFFFFFFFFFFFFFFFFFFFFFFFFFFF AND PUSH20 0xFFFFFFFFFFFFFFFFFFFFFFFFFFFFFFFFFFFFFFFF AND DUP2 MSTORE PUSH1 0x20 ADD SWAP1 DUP2 MSTORE PUSH1 0x20 ADD PUSH1 0x0 KECCAK256 PUSH1 0x0 DUP3 DUP3 SLOAD SUB SWAP3 POP POP DUP2 SWAP1 SSTORE POP PUSH1 0x1 PUSH1 0x3 PUSH1 0x0 DUP5 PUSH20 0xFFFFFFFFFFFFFFFFFFFFFFFFFFFFFFFFFFFFFFFF AND PUSH20 0xFFFFFFFFFFFFFFFFFFFFFFFFFFFFFFFFFFFFFFFF AND DUP2 MSTORE PUSH1 0x20 ADD SWAP1 DUP2 MSTORE PUSH1 0x20 ADD PUSH1 0x0 KECCAK256 PUSH1 0x0 DUP3 DUP3 SLOAD ADD SWAP3 POP POP DUP2 SWAP1 SSTORE POP DUP2 PUSH1 0x2 PUSH1 0x0 DUP4 DUP2 MSTORE PUSH1 0x20 ADD SWAP1 DUP2 MSTORE PUSH1 0x20 ADD PUSH1 0x0 KECCAK256 PUSH1 0x0 PUSH2 0x100 EXP DUP2 SLOAD DUP2 PUSH20 0xFFFFFFFFFFFFFFFFFFFFFFFFFFFFFFFFFFFFFFFF MUL NOT AND SWAP1 DUP4 PUSH20 0xFFFFFFFFFFFFFFFFFFFFFFFFFFFFFFFFFFFFFFFF AND MUL OR SWAP1 SSTORE POP DUP1 DUP3 PUSH20 0xFFFFFFFFFFFFFFFFFFFFFFFFFFFFFFFFFFFFFFFF AND DUP5 PUSH20 0xFFFFFFFFFFFFFFFFFFFFFFFFFFFFFFFFFFFFFFFF AND PUSH32 0xDDF252AD1BE2C89B69C2B068FC378DAA952BA7F163C4A11628F55A4DF523B3EF PUSH1 0x40 MLOAD PUSH1 0x40 MLOAD DUP1 SWAP2 SUB SWAP1 LOG4 PUSH2 0x35C2 DUP4 DUP4 DUP4 PUSH1 0x1 PUSH2 0x3D6B JUMP JUMPDEST POP POP POP JUMP JUMPDEST PUSH1 0x0 PUSH1 0x2 PUSH1 0x0 DUP4 DUP2 MSTORE PUSH1 0x20 ADD SWAP1 DUP2 MSTORE PUSH1 0x20 ADD PUSH1 0x0 KECCAK256 PUSH1 0x0 SWAP1 SLOAD SWAP1 PUSH2 0x100 EXP SWAP1 DIV PUSH20 0xFFFFFFFFFFFFFFFFFFFFFFFFFFFFFFFFFFFFFFFF AND SWAP1 POP SWAP2 SWAP1 POP JUMP JUMPDEST PUSH1 0x0 PUSH1 0x7 PUSH1 0x0 SWAP1 SLOAD SWAP1 PUSH2 0x100 EXP SWAP1 DIV PUSH20 0xFFFFFFFFFFFFFFFFFFFFFFFFFFFFFFFFFFFFFFFF AND SWAP1 POP DUP2 PUSH1 0x7 PUSH1 0x0 PUSH2 0x100 EXP DUP2 SLOAD DUP2 PUSH20 0xFFFFFFFFFFFFFFFFFFFFFFFFFFFFFFFFFFFFFFFF MUL NOT AND SWAP1 DUP4 PUSH20 0xFFFFFFFFFFFFFFFFFFFFFFFFFFFFFFFFFFFFFFFF AND MUL OR SWAP1 SSTORE POP DUP2 PUSH20 0xFFFFFFFFFFFFFFFFFFFFFFFFFFFFFFFFFFFFFFFF AND DUP2 PUSH20 0xFFFFFFFFFFFFFFFFFFFFFFFFFFFFFFFFFFFFFFFF AND PUSH32 0x8BE0079C531659141344CD1FD0A4F28419497F9722A3DAAFE3B4186F6B6457E0 PUSH1 0x40 MLOAD PUSH1 0x40 MLOAD DUP1 SWAP2 SUB SWAP1 LOG3 POP POP JUMP JUMPDEST DUP2 PUSH20 0xFFFFFFFFFFFFFFFFFFFFFFFFFFFFFFFFFFFFFFFF AND DUP4 PUSH20 0xFFFFFFFFFFFFFFFFFFFFFFFFFFFFFFFFFFFFFFFF AND SUB PUSH2 0x3738 JUMPI PUSH1 0x40 MLOAD PUSH32 0x8C379A000000000000000000000000000000000000000000000000000000000 DUP2 MSTORE PUSH1 0x4 ADD PUSH2 0x372F SWAP1 PUSH2 0x61C3 JUMP JUMPDEST PUSH1 0x40 MLOAD DUP1 SWAP2 SUB SWAP1 REVERT JUMPDEST DUP1 PUSH1 0x5 PUSH1 0x0 DUP6 PUSH20 0xFFFFFFFFFFFFFFFFFFFFFFFFFFFFFFFFFFFFFFFF AND PUSH20 0xFFFFFFFFFFFFFFFFFFFFFFFFFFFFFFFFFFFFFFFF AND DUP2 MSTORE PUSH1 0x20 ADD SWAP1 DUP2 MSTORE PUSH1 0x20 ADD PUSH1 0x0 KECCAK256 PUSH1 0x0 DUP5 PUSH20 0xFFFFFFFFFFFFFFFFFFFFFFFFFFFFFFFFFFFFFFFF AND PUSH20 0xFFFFFFFFFFFFFFFFFFFFFFFFFFFFFFFFFFFFFFFF AND DUP2 MSTORE PUSH1 0x20 ADD SWAP1 DUP2 MSTORE PUSH1 0x20 ADD PUSH1 0x0 KECCAK256 PUSH1 0x0 PUSH2 0x100 EXP DUP2 SLOAD DUP2 PUSH1 0xFF MUL NOT AND SWAP1 DUP4 ISZERO ISZERO MUL OR SWAP1 SSTORE POP DUP2 PUSH20 0xFFFFFFFFFFFFFFFFFFFFFFFFFFFFFFFFFFFFFFFF AND DUP4 PUSH20 0xFFFFFFFFFFFFFFFFFFFFFFFFFFFFFFFFFFFFFFFF AND PUSH32 0x17307EAB39AB6107E8899845AD3D59BD9653F200F220920489CA2B5937696C31 DUP4 PUSH1 0x40 MLOAD PUSH2 0x3829 SWAP2 SWAP1 PUSH2 0x42C4 JUMP JUMPDEST PUSH1 0x40 MLOAD DUP1 SWAP2 SUB SWAP1 LOG3 POP POP POP JUMP JUMPDEST PUSH1 0x60 PUSH1 0x0 PUSH1 0x15 DUP1 SLOAD SWAP1 POP PUSH8 0xFFFFFFFFFFFFFFFF DUP2 GT ISZERO PUSH2 0x3859 JUMPI PUSH2 0x3858 PUSH2 0x45FD JUMP JUMPDEST JUMPDEST PUSH1 0x40 MLOAD SWAP1 DUP1 DUP3 MSTORE DUP1 PUSH1 0x20 MUL PUSH1 0x20 ADD DUP3 ADD PUSH1 0x40 MSTORE DUP1 ISZERO PUSH2 0x3887 JUMPI DUP2 PUSH1 0x20 ADD PUSH1 0x20 DUP3 MUL DUP1 CALLDATASIZE DUP4 CALLDATACOPY DUP1 DUP3 ADD SWAP2 POP POP SWAP1 POP JUMPDEST POP SWAP1 POP PUSH1 0x0 JUMPDEST PUSH1 0x15 DUP1 SLOAD SWAP1 POP DUP2 LT ISZERO PUSH2 0x38CD JUMPI DUP1 DUP3 DUP3 DUP2 MLOAD DUP2 LT PUSH2 0x38AE JUMPI PUSH2 0x38AD PUSH2 0x5053 JUMP JUMPDEST JUMPDEST PUSH1 0x20 MUL PUSH1 0x20 ADD ADD DUP2 DUP2 MSTORE POP POP DUP1 DUP1 PUSH2 0x38C5 SWAP1 PUSH2 0x50B1 JUMP JUMPDEST SWAP2 POP POP PUSH2 0x388D JUMP JUMPDEST POP PUSH1 0x0 JUMPDEST PUSH1 0x1 PUSH1 0x15 DUP1 SLOAD SWAP1 POP PUSH2 0x38E3 SWAP2 SWAP1 PUSH2 0x54A9 JUMP JUMPDEST DUP2 LT ISZERO PUSH2 0x3A6D JUMPI PUSH1 0x0 PUSH1 0x1 DUP3 PUSH2 0x38F9 SWAP2 SWAP1 PUSH2 0x521D JUMP JUMPDEST SWAP1 POP JUMPDEST PUSH1 0x15 DUP1 SLOAD SWAP1 POP DUP2 LT ISZERO PUSH2 0x3A59 JUMPI PUSH2 0x396A PUSH1 0x15 DUP5 DUP4 DUP2 MLOAD DUP2 LT PUSH2 0x3921 JUMPI PUSH2 0x3920 PUSH2 0x5053 JUMP JUMPDEST JUMPDEST PUSH1 0x20 MUL PUSH1 0x20 ADD ADD MLOAD DUP2 SLOAD DUP2 LT PUSH2 0x393A JUMPI PUSH2 0x3939 PUSH2 0x5053 JUMP JUMPDEST JUMPDEST SWAP1 PUSH1 0x0 MSTORE PUSH1 0x20 PUSH1 0x0 KECCAK256 ADD PUSH1 0x0 SWAP1 SLOAD SWAP1 PUSH2 0x100 EXP SWAP1 DIV PUSH20 0xFFFFFFFFFFFFFFFFFFFFFFFFFFFFFFFFFFFFFFFF AND PUSH2 0x11BD JUMP JUMPDEST PUSH2 0x39CB PUSH1 0x15 DUP6 DUP6 DUP2 MLOAD DUP2 LT PUSH2 0x3982 JUMPI PUSH2 0x3981 PUSH2 0x5053 JUMP JUMPDEST JUMPDEST PUSH1 0x20 MUL PUSH1 0x20 ADD ADD MLOAD DUP2 SLOAD DUP2 LT PUSH2 0x399B JUMPI PUSH2 0x399A PUSH2 0x5053 JUMP JUMPDEST JUMPDEST SWAP1 PUSH1 0x0 MSTORE PUSH1 0x20 PUSH1 0x0 KECCAK256 ADD PUSH1 0x0 SWAP1 SLOAD SWAP1 PUSH2 0x100 EXP SWAP1 DIV PUSH20 0xFFFFFFFFFFFFFFFFFFFFFFFFFFFFFFFFFFFFFFFF AND PUSH2 0x11BD JUMP JUMPDEST LT ISZERO PUSH2 0x3A46 JUMPI DUP3 DUP2 DUP2 MLOAD DUP2 LT PUSH2 0x39E4 JUMPI PUSH2 0x39E3 PUSH2 0x5053 JUMP JUMPDEST JUMPDEST PUSH1 0x20 MUL PUSH1 0x20 ADD ADD MLOAD DUP4 DUP4 DUP2 MLOAD DUP2 LT PUSH2 0x39FF JUMPI PUSH2 0x39FE PUSH2 0x5053 JUMP JUMPDEST JUMPDEST PUSH1 0x20 MUL PUSH1 0x20 ADD ADD MLOAD DUP5 DUP5 DUP2 MLOAD DUP2 LT PUSH2 0x3A1A JUMPI PUSH2 0x3A19 PUSH2 0x5053 JUMP JUMPDEST JUMPDEST PUSH1 0x20 MUL PUSH1 0x20 ADD ADD DUP6 DUP5 DUP2 MLOAD DUP2 LT PUSH2 0x3A34 JUMPI PUSH2 0x3A33 PUSH2 0x5053 JUMP JUMPDEST JUMPDEST PUSH1 0x20 MUL PUSH1 0x20 ADD ADD DUP3 DUP2 MSTORE POP DUP3 DUP2 MSTORE POP POP POP JUMPDEST DUP1 DUP1 PUSH2 0x3A51 SWAP1 PUSH2 0x50B1 JUMP JUMPDEST SWAP2 POP POP PUSH2 0x38FC JUMP JUMPDEST POP DUP1 DUP1 PUSH2 0x3A65 SWAP1 PUSH2 0x50B1 JUMP JUMPDEST SWAP2 POP POP PUSH2 0x38D1 JUMP JUMPDEST POP PUSH1 0x0 PUSH1 0x15 DUP1 SLOAD SWAP1 POP PUSH8 0xFFFFFFFFFFFFFFFF DUP2 GT ISZERO PUSH2 0x3A8F JUMPI PUSH2 0x3A8E PUSH2 0x45FD JUMP JUMPDEST JUMPDEST PUSH1 0x40 MLOAD SWAP1 DUP1 DUP3 MSTORE DUP1 PUSH1 0x20 MUL PUSH1 0x20 ADD DUP3 ADD PUSH1 0x40 MSTORE DUP1 ISZERO PUSH2 0x3ABD JUMPI DUP2 PUSH1 0x20 ADD PUSH1 0x20 DUP3 MUL DUP1 CALLDATASIZE DUP4 CALLDATACOPY DUP1 DUP3 ADD SWAP2 POP POP SWAP1 POP JUMPDEST POP SWAP1 POP PUSH1 0x0 JUMPDEST PUSH1 0x15 DUP1 SLOAD SWAP1 POP DUP2 LT ISZERO PUSH2 0x3B89 JUMPI PUSH1 0x15 DUP4 DUP3 DUP2 MLOAD DUP2 LT PUSH2 0x3AE5 JUMPI PUSH2 0x3AE4 PUSH2 0x5053 JUMP JUMPDEST JUMPDEST PUSH1 0x20 MUL PUSH1 0x20 ADD ADD MLOAD DUP2 SLOAD DUP2 LT PUSH2 0x3AFE JUMPI PUSH2 0x3AFD PUSH2 0x5053 JUMP JUMPDEST JUMPDEST SWAP1 PUSH1 0x0 MSTORE PUSH1 0x20 PUSH1 0x0 KECCAK256 ADD PUSH1 0x0 SWAP1 SLOAD SWAP1 PUSH2 0x100 EXP SWAP1 DIV PUSH20 0xFFFFFFFFFFFFFFFFFFFFFFFFFFFFFFFFFFFFFFFF AND DUP3 DUP3 DUP2 MLOAD DUP2 LT PUSH2 0x3B3C JUMPI PUSH2 0x3B3B PUSH2 0x5053 JUMP JUMPDEST JUMPDEST PUSH1 0x20 MUL PUSH1 0x20 ADD ADD SWAP1 PUSH20 0xFFFFFFFFFFFFFFFFFFFFFFFFFFFFFFFFFFFFFFFF AND SWAP1 DUP2 PUSH20 0xFFFFFFFFFFFFFFFFFFFFFFFFFFFFFFFFFFFFFFFF AND DUP2 MSTORE POP POP DUP1 DUP1 PUSH2 0x3B81 SWAP1 PUSH2 0x50B1 JUMP JUMPDEST SWAP2 POP POP PUSH2 0x3AC3 JUMP JUMPDEST POP DUP1 SWAP3 POP POP POP SWAP1 JUMP JUMPDEST PUSH2 0x3B9D DUP5 DUP5 DUP5 PUSH2 0x32CE JUMP JUMPDEST PUSH2 0x3BA9 DUP5 DUP5 DUP5 DUP5 PUSH2 0x3D71 JUMP JUMPDEST PUSH2 0x3BE8 JUMPI PUSH1 0x40 MLOAD PUSH32 0x8C379A000000000000000000000000000000000000000000000000000000000 DUP2 MSTORE PUSH1 0x4 ADD PUSH2 0x3BDF SWAP1 PUSH2 0x6255 JUMP JUMPDEST PUSH1 0x40 MLOAD DUP1 SWAP2 SUB SWAP1 REVERT JUMPDEST POP POP POP POP JUMP JUMPDEST PUSH1 0x60 PUSH1 0x40 MLOAD DUP1 PUSH1 0x20 ADD PUSH1 0x40 MSTORE DUP1 PUSH1 0x0 DUP2 MSTORE POP SWAP1 POP SWAP1 JUMP JUMPDEST PUSH1 0x60 PUSH2 0x3C10 DUP3 PUSH2 0x256C JUMP JUMPDEST PUSH1 0x0 PUSH2 0x3C1A PUSH2 0x3BEE JUMP JUMPDEST SWAP1 POP PUSH1 0x0 DUP2 MLOAD GT PUSH2 0x3C3A JUMPI PUSH1 0x40 MLOAD DUP1 PUSH1 0x20 ADD PUSH1 0x40 MSTORE DUP1 PUSH1 0x0 DUP2 MSTORE POP PUSH2 0x3C65 JUMP JUMPDEST DUP1 PUSH2 0x3C44 DUP5 PUSH2 0x3EF8 JUMP JUMPDEST PUSH1 0x40 MLOAD PUSH1 0x20 ADD PUSH2 0x3C55 SWAP3 SWAP2 SWAP1 PUSH2 0x587F JUMP JUMPDEST PUSH1 0x40 MLOAD PUSH1 0x20 DUP2 DUP4 SUB SUB DUP2 MSTORE SWAP1 PUSH1 0x40 MSTORE JUMPDEST SWAP2 POP POP SWAP2 SWAP1 POP JUMP JUMPDEST PUSH1 0x0 PUSH32 0x80AC58CD00000000000000000000000000000000000000000000000000000000 PUSH28 0xFFFFFFFFFFFFFFFFFFFFFFFFFFFFFFFFFFFFFFFFFFFFFFFFFFFFFFFF NOT AND DUP3 PUSH28 0xFFFFFFFFFFFFFFFFFFFFFFFFFFFFFFFFFFFFFFFFFFFFFFFFFFFFFFFF NOT AND EQ DUP1 PUSH2 0x3D38 JUMPI POP PUSH32 0x5B5E139F00000000000000000000000000000000000000000000000000000000 PUSH28 0xFFFFFFFFFFFFFFFFFFFFFFFFFFFFFFFFFFFFFFFFFFFFFFFFFFFFFFFF NOT AND DUP3 PUSH28 0xFFFFFFFFFFFFFFFFFFFFFFFFFFFFFFFFFFFFFFFFFFFFFFFFFFFFFFFF NOT AND EQ JUMPDEST DUP1 PUSH2 0x3D48 JUMPI POP PUSH2 0x3D47 DUP3 PUSH2 0x3FC6 JUMP JUMPDEST JUMPDEST SWAP1 POP SWAP2 SWAP1 POP JUMP JUMPDEST PUSH1 0x1 DUP2 PUSH1 0x0 ADD PUSH1 0x0 DUP3 DUP3 SLOAD ADD SWAP3 POP POP DUP2 SWAP1 SSTORE POP POP JUMP JUMPDEST POP POP POP POP JUMP JUMPDEST POP POP POP POP JUMP JUMPDEST PUSH1 0x0 PUSH2 0x3D92 DUP5 PUSH20 0xFFFFFFFFFFFFFFFFFFFFFFFFFFFFFFFFFFFFFFFF AND PUSH2 0x4030 JUMP JUMPDEST ISZERO PUSH2 0x3EEB JUMPI DUP4 PUSH20 0xFFFFFFFFFFFFFFFFFFFFFFFFFFFFFFFFFFFFFFFF AND PUSH4 0x150B7A02 PUSH2 0x3DBB PUSH2 0x25B7 JUMP JUMPDEST DUP8 DUP7 DUP7 PUSH1 0x40 MLOAD DUP6 PUSH4 0xFFFFFFFF AND PUSH1 0xE0 SHL DUP2 MSTORE PUSH1 0x4 ADD PUSH2 0x3DDD SWAP5 SWAP4 SWAP3 SWAP2 SWAP1 PUSH2 0x62CA JUMP JUMPDEST PUSH1 0x20 PUSH1 0x40 MLOAD DUP1 DUP4 SUB DUP2 PUSH1 0x0 DUP8 GAS CALL SWAP3 POP POP POP DUP1 ISZERO PUSH2 0x3E19 JUMPI POP PUSH1 0x40 MLOAD RETURNDATASIZE PUSH1 0x1F NOT PUSH1 0x1F DUP3 ADD AND DUP3 ADD DUP1 PUSH1 0x40 MSTORE POP DUP2 ADD SWAP1 PUSH2 0x3E16 SWAP2 SWAP1 PUSH2 0x632B JUMP JUMPDEST PUSH1 0x1 JUMPDEST PUSH2 0x3E9B JUMPI RETURNDATASIZE DUP1 PUSH1 0x0 DUP2 EQ PUSH2 0x3E49 JUMPI PUSH1 0x40 MLOAD SWAP2 POP PUSH1 0x1F NOT PUSH1 0x3F RETURNDATASIZE ADD AND DUP3 ADD PUSH1 0x40 MSTORE RETURNDATASIZE DUP3 MSTORE RETURNDATASIZE PUSH1 0x0 PUSH1 0x20 DUP5 ADD RETURNDATACOPY PUSH2 0x3E4E JUMP JUMPDEST PUSH1 0x60 SWAP2 POP JUMPDEST POP PUSH1 0x0 DUP2 MLOAD SUB PUSH2 0x3E93 JUMPI PUSH1 0x40 MLOAD PUSH32 0x8C379A000000000000000000000000000000000000000000000000000000000 DUP2 MSTORE PUSH1 0x4 ADD PUSH2 0x3E8A SWAP1 PUSH2 0x6255 JUMP JUMPDEST PUSH1 0x40 MLOAD DUP1 SWAP2 SUB SWAP1 REVERT JUMPDEST DUP1 MLOAD DUP2 PUSH1 0x20 ADD REVERT JUMPDEST PUSH4 0x150B7A02 PUSH1 0xE0 SHL PUSH28 0xFFFFFFFFFFFFFFFFFFFFFFFFFFFFFFFFFFFFFFFFFFFFFFFFFFFFFFFF NOT AND DUP2 PUSH28 0xFFFFFFFFFFFFFFFFFFFFFFFFFFFFFFFFFFFFFFFFFFFFFFFFFFFFFFFF NOT AND EQ SWAP2 POP POP PUSH2 0x3EF0 JUMP JUMPDEST PUSH1 0x1 SWAP1 POP JUMPDEST SWAP5 SWAP4 POP POP POP POP JUMP JUMPDEST PUSH1 0x60 PUSH1 0x0 PUSH1 0x1 PUSH2 0x3F07 DUP5 PUSH2 0x4053 JUMP JUMPDEST ADD SWAP1 POP PUSH1 0x0 DUP2 PUSH8 0xFFFFFFFFFFFFFFFF DUP2 GT ISZERO PUSH2 0x3F26 JUMPI PUSH2 0x3F25 PUSH2 0x45FD JUMP JUMPDEST JUMPDEST PUSH1 0x40 MLOAD SWAP1 DUP1 DUP3 MSTORE DUP1 PUSH1 0x1F ADD PUSH1 0x1F NOT AND PUSH1 0x20 ADD DUP3 ADD PUSH1 0x40 MSTORE DUP1 ISZERO PUSH2 0x3F58 JUMPI DUP2 PUSH1 0x20 ADD PUSH1 0x1 DUP3 MUL DUP1 CALLDATASIZE DUP4 CALLDATACOPY DUP1 DUP3 ADD SWAP2 POP POP SWAP1 POP JUMPDEST POP SWAP1 POP PUSH1 0x0 DUP3 PUSH1 0x20 ADD DUP3 ADD SWAP1 POP JUMPDEST PUSH1 0x1 ISZERO PUSH2 0x3FBB JUMPI DUP1 DUP1 PUSH1 0x1 SWAP1 SUB SWAP2 POP POP PUSH32 0x3031323334353637383961626364656600000000000000000000000000000000 PUSH1 0xA DUP7 MOD BYTE DUP2 MSTORE8 PUSH1 0xA DUP6 DUP2 PUSH2 0x3FAF JUMPI PUSH2 0x3FAE PUSH2 0x5449 JUMP JUMPDEST JUMPDEST DIV SWAP5 POP PUSH1 0x0 DUP6 SUB PUSH2 0x3F66 JUMPI JUMPDEST DUP2 SWAP4 POP POP POP POP SWAP2 SWAP1 POP JUMP JUMPDEST PUSH1 0x0 PUSH32 0x1FFC9A700000000000000000000000000000000000000000000000000000000 PUSH28 0xFFFFFFFFFFFFFFFFFFFFFFFFFFFFFFFFFFFFFFFFFFFFFFFFFFFFFFFF NOT AND DUP3 PUSH28 0xFFFFFFFFFFFFFFFFFFFFFFFFFFFFFFFFFFFFFFFFFFFFFFFFFFFFFFFF NOT AND EQ SWAP1 POP SWAP2 SWAP1 POP JUMP JUMPDEST PUSH1 0x0 DUP1 DUP3 PUSH20 0xFFFFFFFFFFFFFFFFFFFFFFFFFFFFFFFFFFFFFFFF AND EXTCODESIZE GT SWAP1 POP SWAP2 SWAP1 POP JUMP JUMPDEST PUSH1 0x0 DUP1 PUSH1 0x0 SWAP1 POP PUSH27 0x184F03E93FF9F4DAA797ED6E38ED64BF6A1F010000000000000000 DUP4 LT PUSH2 0x40B1 JUMPI PUSH27 0x184F03E93FF9F4DAA797ED6E38ED64BF6A1F010000000000000000 DUP4 DUP2 PUSH2 0x40A7 JUMPI PUSH2 0x40A6 PUSH2 0x5449 JUMP JUMPDEST JUMPDEST DIV SWAP3 POP PUSH1 0x40 DUP2 ADD SWAP1 POP JUMPDEST PUSH14 0x4EE2D6D415B85ACEF8100000000 DUP4 LT PUSH2 0x40EE JUMPI PUSH14 0x4EE2D6D415B85ACEF8100000000 DUP4 DUP2 PUSH2 0x40E4 JUMPI PUSH2 0x40E3 PUSH2 0x5449 JUMP JUMPDEST JUMPDEST DIV SWAP3 POP PUSH1 0x20 DUP2 ADD SWAP1 POP JUMPDEST PUSH7 0x2386F26FC10000 DUP4 LT PUSH2 0x411D JUMPI PUSH7 0x2386F26FC10000 DUP4 DUP2 PUSH2 0x4113 JUMPI PUSH2 0x4112 PUSH2 0x5449 JUMP JUMPDEST JUMPDEST DIV SWAP3 POP PUSH1 0x10 DUP2 ADD SWAP1 POP JUMPDEST PUSH4 0x5F5E100 DUP4 LT PUSH2 0x4146 JUMPI PUSH4 0x5F5E100 DUP4 DUP2 PUSH2 0x413C JUMPI PUSH2 0x413B PUSH2 0x5449 JUMP JUMPDEST JUMPDEST DIV SWAP3 POP PUSH1 0x8 DUP2 ADD SWAP1 POP JUMPDEST PUSH2 0x2710 DUP4 LT PUSH2 0x416B JUMPI PUSH2 0x2710 DUP4 DUP2 PUSH2 0x4161 JUMPI PUSH2 0x4160 PUSH2 0x5449 JUMP JUMPDEST JUMPDEST DIV SWAP3 POP PUSH1 0x4 DUP2 ADD SWAP1 POP JUMPDEST PUSH1 0x64 DUP4 LT PUSH2 0x418E JUMPI PUSH1 0x64 DUP4 DUP2 PUSH2 0x4184 JUMPI PUSH2 0x4183 PUSH2 0x5449 JUMP JUMPDEST JUMPDEST DIV SWAP3 POP PUSH1 0x2 DUP2 ADD SWAP1 POP JUMPDEST PUSH1 0xA DUP4 LT PUSH2 0x419D JUMPI PUSH1 0x1 DUP2 ADD SWAP1 POP JUMPDEST DUP1 SWAP2 POP POP SWAP2 SWAP1 POP JUMP JUMPDEST DUP3 DUP1 SLOAD DUP3 DUP3 SSTORE SWAP1 PUSH1 0x0 MSTORE PUSH1 0x20 PUSH1 0x0 KECCAK256 SWAP1 DUP2 ADD SWAP3 DUP3 ISZERO PUSH2 0x41E2 JUMPI SWAP2 PUSH1 0x20 MUL DUP3 ADD JUMPDEST DUP3 DUP2 GT ISZERO PUSH2 0x41E1 JUMPI DUP3 MLOAD DUP3 SSTORE SWAP2 PUSH1 0x20 ADD SWAP2 SWAP1 PUSH1 0x1 ADD SWAP1 PUSH2 0x41C6 JUMP JUMPDEST JUMPDEST POP SWAP1 POP PUSH2 0x41EF SWAP2 SWAP1 PUSH2 0x41F3 JUMP JUMPDEST POP SWAP1 JUMP JUMPDEST JUMPDEST DUP1 DUP3 GT ISZERO PUSH2 0x420C JUMPI PUSH1 0x0 DUP2 PUSH1 0x0 SWAP1 SSTORE POP PUSH1 0x1 ADD PUSH2 0x41F4 JUMP JUMPDEST POP SWAP1 JUMP JUMPDEST PUSH1 0x0 PUSH1 0x40 MLOAD SWAP1 POP SWAP1 JUMP JUMPDEST PUSH1 0x0 DUP1 REVERT JUMPDEST PUSH1 0x0 DUP1 REVERT JUMPDEST PUSH1 0x0 PUSH32 0xFFFFFFFF00000000000000000000000000000000000000000000000000000000 DUP3 AND SWAP1 POP SWAP2 SWAP1 POP JUMP JUMPDEST PUSH2 0x4259 DUP2 PUSH2 0x4224 JUMP JUMPDEST DUP2 EQ PUSH2 0x4264 JUMPI PUSH1 0x0 DUP1 REVERT JUMPDEST POP JUMP JUMPDEST PUSH1 0x0 DUP2 CALLDATALOAD SWAP1 POP PUSH2 0x4276 DUP2 PUSH2 0x4250 JUMP JUMPDEST SWAP3 SWAP2 POP POP JUMP JUMPDEST PUSH1 0x0 PUSH1 0x20 DUP3 DUP5 SUB SLT ISZERO PUSH2 0x4292 JUMPI PUSH2 0x4291 PUSH2 0x421A JUMP JUMPDEST JUMPDEST PUSH1 0x0 PUSH2 0x42A0 DUP5 DUP3 DUP6 ADD PUSH2 0x4267 JUMP JUMPDEST SWAP2 POP POP SWAP3 SWAP2 POP POP JUMP JUMPDEST PUSH1 0x0 DUP2 ISZERO ISZERO SWAP1 POP SWAP2 SWAP1 POP JUMP JUMPDEST PUSH2 0x42BE DUP2 PUSH2 0x42A9 JUMP JUMPDEST DUP3 MSTORE POP POP JUMP JUMPDEST PUSH1 0x0 PUSH1 0x20 DUP3 ADD SWAP1 POP PUSH2 0x42D9 PUSH1 0x0 DUP4 ADD DUP5 PUSH2 0x42B5 JUMP JUMPDEST SWAP3 SWAP2 POP POP JUMP JUMPDEST PUSH1 0x0 PUSH20 0xFFFFFFFFFFFFFFFFFFFFFFFFFFFFFFFFFFFFFFFF DUP3 AND SWAP1 POP SWAP2 SWAP1 POP JUMP JUMPDEST PUSH1 0x0 PUSH2 0x430A DUP3 PUSH2 0x42DF JUMP JUMPDEST SWAP1 POP SWAP2 SWAP1 POP JUMP JUMPDEST PUSH2 0x431A DUP2 PUSH2 0x42FF JUMP JUMPDEST DUP2 EQ PUSH2 0x4325 JUMPI PUSH1 0x0 DUP1 REVERT JUMPDEST POP JUMP JUMPDEST PUSH1 0x0 DUP2 CALLDATALOAD SWAP1 POP PUSH2 0x4337 DUP2 PUSH2 0x4311 JUMP JUMPDEST SWAP3 SWAP2 POP POP JUMP JUMPDEST PUSH1 0x0 PUSH1 0x20 DUP3 DUP5 SUB SLT ISZERO PUSH2 0x4353 JUMPI PUSH2 0x4352 PUSH2 0x421A JUMP JUMPDEST JUMPDEST PUSH1 0x0 PUSH2 0x4361 DUP5 DUP3 DUP6 ADD PUSH2 0x4328 JUMP JUMPDEST SWAP2 POP POP SWAP3 SWAP2 POP POP JUMP JUMPDEST PUSH1 0x0 DUP2 MLOAD SWAP1 POP SWAP2 SWAP1 POP JUMP JUMPDEST PUSH1 0x0 DUP3 DUP3 MSTORE PUSH1 0x20 DUP3 ADD SWAP1 POP SWAP3 SWAP2 POP POP JUMP JUMPDEST PUSH1 0x0 JUMPDEST DUP4 DUP2 LT ISZERO PUSH2 0x43A4 JUMPI DUP1 DUP3 ADD MLOAD DUP2 DUP5 ADD MSTORE PUSH1 0x20 DUP2 ADD SWAP1 POP PUSH2 0x4389 JUMP JUMPDEST PUSH1 0x0 DUP5 DUP5 ADD MSTORE POP POP POP POP JUMP JUMPDEST PUSH1 0x0 PUSH1 0x1F NOT PUSH1 0x1F DUP4 ADD AND SWAP1 POP SWAP2 SWAP1 POP JUMP JUMPDEST PUSH1 0x0 PUSH2 0x43CC DUP3 PUSH2 0x436A JUMP JUMPDEST PUSH2 0x43D6 DUP2 DUP6 PUSH2 0x4375 JUMP JUMPDEST SWAP4 POP PUSH2 0x43E6 DUP2 DUP6 PUSH1 0x20 DUP7 ADD PUSH2 0x4386 JUMP JUMPDEST PUSH2 0x43EF DUP2 PUSH2 0x43B0 JUMP JUMPDEST DUP5 ADD SWAP2 POP POP SWAP3 SWAP2 POP POP JUMP JUMPDEST PUSH1 0x0 PUSH1 0x20 DUP3 ADD SWAP1 POP DUP2 DUP2 SUB PUSH1 0x0 DUP4 ADD MSTORE PUSH2 0x4414 DUP2 DUP5 PUSH2 0x43C1 JUMP JUMPDEST SWAP1 POP SWAP3 SWAP2 POP POP JUMP JUMPDEST PUSH1 0x0 DUP2 SWAP1 POP SWAP2 SWAP1 POP JUMP JUMPDEST PUSH2 0x442F DUP2 PUSH2 0x441C JUMP JUMPDEST DUP2 EQ PUSH2 0x443A JUMPI PUSH1 0x0 DUP1 REVERT JUMPDEST POP JUMP JUMPDEST PUSH1 0x0 DUP2 CALLDATALOAD SWAP1 POP PUSH2 0x444C DUP2 PUSH2 0x4426 JUMP JUMPDEST SWAP3 SWAP2 POP POP JUMP JUMPDEST PUSH1 0x0 PUSH1 0x20 DUP3 DUP5 SUB SLT ISZERO PUSH2 0x4468 JUMPI PUSH2 0x4467 PUSH2 0x421A JUMP JUMPDEST JUMPDEST PUSH1 0x0 PUSH2 0x4476 DUP5 DUP3 DUP6 ADD PUSH2 0x443D JUMP JUMPDEST SWAP2 POP POP SWAP3 SWAP2 POP POP JUMP JUMPDEST PUSH2 0x4488 DUP2 PUSH2 0x42FF JUMP JUMPDEST DUP3 MSTORE POP POP JUMP JUMPDEST PUSH1 0x0 PUSH1 0x20 DUP3 ADD SWAP1 POP PUSH2 0x44A3 PUSH1 0x0 DUP4 ADD DUP5 PUSH2 0x447F JUMP JUMPDEST SWAP3 SWAP2 POP POP JUMP JUMPDEST PUSH1 0x0 DUP1 PUSH1 0x40 DUP4 DUP6 SUB SLT ISZERO PUSH2 0x44C0 JUMPI PUSH2 0x44BF PUSH2 0x421A JUMP JUMPDEST JUMPDEST PUSH1 0x0 PUSH2 0x44CE DUP6 DUP3 DUP7 ADD PUSH2 0x4328 JUMP JUMPDEST SWAP3 POP POP PUSH1 0x20 PUSH2 0x44DF DUP6 DUP3 DUP7 ADD PUSH2 0x443D JUMP JUMPDEST SWAP2 POP POP SWAP3 POP SWAP3 SWAP1 POP JUMP JUMPDEST PUSH1 0x0 DUP2 MLOAD SWAP1 POP SWAP2 SWAP1 POP JUMP JUMPDEST PUSH1 0x0 DUP3 DUP3 MSTORE PUSH1 0x20 DUP3 ADD SWAP1 POP SWAP3 SWAP2 POP POP JUMP JUMPDEST PUSH1 0x0 DUP2 SWAP1 POP PUSH1 0x20 DUP3 ADD SWAP1 POP SWAP2 SWAP1 POP JUMP JUMPDEST PUSH2 0x451E DUP2 PUSH2 0x441C JUMP JUMPDEST DUP3 MSTORE POP POP JUMP JUMPDEST PUSH1 0x0 PUSH2 0x4530 DUP4 DUP4 PUSH2 0x4515 JUMP JUMPDEST PUSH1 0x20 DUP4 ADD SWAP1 POP SWAP3 SWAP2 POP POP JUMP JUMPDEST PUSH1 0x0 PUSH1 0x20 DUP3 ADD SWAP1 POP SWAP2 SWAP1 POP JUMP JUMPDEST PUSH1 0x0 PUSH2 0x4554 DUP3 PUSH2 0x44E9 JUMP JUMPDEST PUSH2 0x455E DUP2 DUP6 PUSH2 0x44F4 JUMP JUMPDEST SWAP4 POP PUSH2 0x4569 DUP4 PUSH2 0x4505 JUMP JUMPDEST DUP1 PUSH1 0x0 JUMPDEST DUP4 DUP2 LT ISZERO PUSH2 0x459A JUMPI DUP2 MLOAD PUSH2 0x4581 DUP9 DUP3 PUSH2 0x4524 JUMP JUMPDEST SWAP8 POP PUSH2 0x458C DUP4 PUSH2 0x453C JUMP JUMPDEST SWAP3 POP POP PUSH1 0x1 DUP2 ADD SWAP1 POP PUSH2 0x456D JUMP JUMPDEST POP DUP6 SWAP4 POP POP POP POP SWAP3 SWAP2 POP POP JUMP JUMPDEST PUSH1 0x0 PUSH1 0x20 DUP3 ADD SWAP1 POP DUP2 DUP2 SUB PUSH1 0x0 DUP4 ADD MSTORE PUSH2 0x45C1 DUP2 DUP5 PUSH2 0x4549 JUMP JUMPDEST SWAP1 POP SWAP3 SWAP2 POP POP JUMP JUMPDEST PUSH2 0x45D2 DUP2 PUSH2 0x441C JUMP JUMPDEST DUP3 MSTORE POP POP JUMP JUMPDEST PUSH1 0x0 PUSH1 0x20 DUP3 ADD SWAP1 POP PUSH2 0x45ED PUSH1 0x0 DUP4 ADD DUP5 PUSH2 0x45C9 JUMP JUMPDEST SWAP3 SWAP2 POP POP JUMP JUMPDEST PUSH1 0x0 DUP1 REVERT JUMPDEST PUSH1 0x0 DUP1 REVERT JUMPDEST PUSH32 0x4E487B7100000000000000000000000000000000000000000000000000000000 PUSH1 0x0 MSTORE PUSH1 0x41 PUSH1 0x4 MSTORE PUSH1 0x24 PUSH1 0x0 REVERT JUMPDEST PUSH2 0x4635 DUP3 PUSH2 0x43B0 JUMP JUMPDEST DUP2 ADD DUP2 DUP2 LT PUSH8 0xFFFFFFFFFFFFFFFF DUP3 GT OR ISZERO PUSH2 0x4654 JUMPI PUSH2 0x4653 PUSH2 0x45FD JUMP JUMPDEST JUMPDEST DUP1 PUSH1 0x40 MSTORE POP POP POP JUMP JUMPDEST PUSH1 0x0 PUSH2 0x4667 PUSH2 0x4210 JUMP JUMPDEST SWAP1 POP PUSH2 0x4673 DUP3 DUP3 PUSH2 0x462C JUMP JUMPDEST SWAP2 SWAP1 POP JUMP JUMPDEST PUSH1 0x0 PUSH8 0xFFFFFFFFFFFFFFFF DUP3 GT ISZERO PUSH2 0x4693 JUMPI PUSH2 0x4692 PUSH2 0x45FD JUMP JUMPDEST JUMPDEST PUSH2 0x469C DUP3 PUSH2 0x43B0 JUMP JUMPDEST SWAP1 POP PUSH1 0x20 DUP2 ADD SWAP1 POP SWAP2 SWAP1 POP JUMP JUMPDEST DUP3 DUP2 DUP4 CALLDATACOPY PUSH1 0x0 DUP4 DUP4 ADD MSTORE POP POP POP JUMP JUMPDEST PUSH1 0x0 PUSH2 0x46CB PUSH2 0x46C6 DUP5 PUSH2 0x4678 JUMP JUMPDEST PUSH2 0x465D JUMP JUMPDEST SWAP1 POP DUP3 DUP2 MSTORE PUSH1 0x20 DUP2 ADD DUP5 DUP5 DUP5 ADD GT ISZERO PUSH2 0x46E7 JUMPI PUSH2 0x46E6 PUSH2 0x45F8 JUMP JUMPDEST JUMPDEST PUSH2 0x46F2 DUP5 DUP3 DUP6 PUSH2 0x46A9 JUMP JUMPDEST POP SWAP4 SWAP3 POP POP POP JUMP JUMPDEST PUSH1 0x0 DUP3 PUSH1 0x1F DUP4 ADD SLT PUSH2 0x470F JUMPI PUSH2 0x470E PUSH2 0x45F3 JUMP JUMPDEST JUMPDEST DUP2 CALLDATALOAD PUSH2 0x471F DUP5 DUP3 PUSH1 0x20 DUP7 ADD PUSH2 0x46B8 JUMP JUMPDEST SWAP2 POP POP SWAP3 SWAP2 POP POP JUMP JUMPDEST PUSH1 0x0 DUP1 PUSH1 0x0 PUSH1 0x60 DUP5 DUP7 SUB SLT ISZERO PUSH2 0x4741 JUMPI PUSH2 0x4740 PUSH2 0x421A JUMP JUMPDEST JUMPDEST PUSH1 0x0 PUSH2 0x474F DUP7 DUP3 DUP8 ADD PUSH2 0x4328 JUMP JUMPDEST SWAP4 POP POP PUSH1 0x20 PUSH2 0x4760 DUP7 DUP3 DUP8 ADD PUSH2 0x443D JUMP JUMPDEST SWAP3 POP POP PUSH1 0x40 DUP5 ADD CALLDATALOAD PUSH8 0xFFFFFFFFFFFFFFFF DUP2 GT ISZERO PUSH2 0x4781 JUMPI PUSH2 0x4780 PUSH2 0x421F JUMP JUMPDEST JUMPDEST PUSH2 0x478D DUP7 DUP3 DUP8 ADD PUSH2 0x46FA JUMP JUMPDEST SWAP2 POP POP SWAP3 POP SWAP3 POP SWAP3 JUMP JUMPDEST PUSH1 0x0 DUP1 PUSH1 0x0 PUSH1 0x60 DUP5 DUP7 SUB SLT ISZERO PUSH2 0x47B0 JUMPI PUSH2 0x47AF PUSH2 0x421A JUMP JUMPDEST JUMPDEST PUSH1 0x0 PUSH2 0x47BE DUP7 DUP3 DUP8 ADD PUSH2 0x4328 JUMP JUMPDEST SWAP4 POP POP PUSH1 0x20 PUSH2 0x47CF DUP7 DUP3 DUP8 ADD PUSH2 0x4328 JUMP JUMPDEST SWAP3 POP POP PUSH1 0x40 PUSH2 0x47E0 DUP7 DUP3 DUP8 ADD PUSH2 0x443D JUMP JUMPDEST SWAP2 POP POP SWAP3 POP SWAP3 POP SWAP3 JUMP JUMPDEST PUSH2 0x47F3 DUP2 PUSH2 0x42A9 JUMP JUMPDEST DUP2 EQ PUSH2 0x47FE JUMPI PUSH1 0x0 DUP1 REVERT JUMPDEST POP JUMP JUMPDEST PUSH1 0x0 DUP2 CALLDATALOAD SWAP1 POP PUSH2 0x4810 DUP2 PUSH2 0x47EA JUMP JUMPDEST SWAP3 SWAP2 POP POP JUMP JUMPDEST PUSH1 0x0 PUSH1 0x20 DUP3 DUP5 SUB SLT ISZERO PUSH2 0x482C JUMPI PUSH2 0x482B PUSH2 0x421A JUMP JUMPDEST JUMPDEST PUSH1 0x0 PUSH2 0x483A DUP5 DUP3 DUP6 ADD PUSH2 0x4801 JUMP JUMPDEST SWAP2 POP POP SWAP3 SWAP2 POP POP JUMP JUMPDEST PUSH1 0x0 DUP1 PUSH1 0x40 DUP4 DUP6 SUB SLT ISZERO PUSH2 0x485A JUMPI PUSH2 0x4859 PUSH2 0x421A JUMP JUMPDEST JUMPDEST PUSH1 0x0 PUSH2 0x4868 DUP6 DUP3 DUP7 ADD PUSH2 0x443D JUMP JUMPDEST SWAP3 POP POP PUSH1 0x20 PUSH2 0x4879 DUP6 DUP3 DUP7 ADD PUSH2 0x443D JUMP JUMPDEST SWAP2 POP POP SWAP3 POP SWAP3 SWAP1 POP JUMP JUMPDEST PUSH32 0x4E487B7100000000000000000000000000000000000000000000000000000000 PUSH1 0x0 MSTORE PUSH1 0x21 PUSH1 0x4 MSTORE PUSH1 0x24 PUSH1 0x0 REVERT JUMPDEST PUSH1 0x4 DUP2 LT PUSH2 0x48C3 JUMPI PUSH2 0x48C2 PUSH2 0x4883 JUMP JUMPDEST JUMPDEST POP JUMP JUMPDEST PUSH1 0x0 DUP2 SWAP1 POP PUSH2 0x48D4 DUP3 PUSH2 0x48B2 JUMP JUMPDEST SWAP2 SWAP1 POP JUMP JUMPDEST PUSH1 0x0 PUSH2 0x48E4 DUP3 PUSH2 0x48C6 JUMP JUMPDEST SWAP1 POP SWAP2 SWAP1 POP JUMP JUMPDEST PUSH2 0x48F4 DUP2 PUSH2 0x48D9 JUMP JUMPDEST DUP3 MSTORE POP POP JUMP JUMPDEST PUSH1 0x0 PUSH1 0x20 DUP3 ADD SWAP1 POP PUSH2 0x490F PUSH1 0x0 DUP4 ADD DUP5 PUSH2 0x48EB JUMP JUMPDEST SWAP3 SWAP2 POP POP JUMP JUMPDEST PUSH1 0x0 DUP1 PUSH1 0x40 DUP4 DUP6 SUB SLT ISZERO PUSH2 0x492C JUMPI PUSH2 0x492B PUSH2 0x421A JUMP JUMPDEST JUMPDEST PUSH1 0x0 PUSH2 0x493A DUP6 DUP3 DUP7 ADD PUSH2 0x4328 JUMP JUMPDEST SWAP3 POP POP PUSH1 0x20 PUSH2 0x494B DUP6 DUP3 DUP7 ADD PUSH2 0x4801 JUMP JUMPDEST SWAP2 POP POP SWAP3 POP SWAP3 SWAP1 POP JUMP JUMPDEST PUSH1 0x0 DUP2 MLOAD SWAP1 POP SWAP2 SWAP1 POP JUMP JUMPDEST PUSH1 0x0 DUP3 DUP3 MSTORE PUSH1 0x20 DUP3 ADD SWAP1 POP SWAP3 SWAP2 POP POP JUMP JUMPDEST PUSH1 0x0 DUP2 SWAP1 POP PUSH1 0x20 DUP3 ADD SWAP1 POP SWAP2 SWAP1 POP JUMP JUMPDEST PUSH2 0x498A DUP2 PUSH2 0x42FF JUMP JUMPDEST DUP3 MSTORE POP POP JUMP JUMPDEST PUSH1 0x0 PUSH2 0x499C DUP4 DUP4 PUSH2 0x4981 JUMP JUMPDEST PUSH1 0x20 DUP4 ADD SWAP1 POP SWAP3 SWAP2 POP POP JUMP JUMPDEST PUSH1 0x0 PUSH1 0x20 DUP3 ADD SWAP1 POP SWAP2 SWAP1 POP JUMP JUMPDEST PUSH1 0x0 PUSH2 0x49C0 DUP3 PUSH2 0x4955 JUMP JUMPDEST PUSH2 0x49CA DUP2 DUP6 PUSH2 0x4960 JUMP JUMPDEST SWAP4 POP PUSH2 0x49D5 DUP4 PUSH2 0x4971 JUMP JUMPDEST DUP1 PUSH1 0x0 JUMPDEST DUP4 DUP2 LT ISZERO PUSH2 0x4A06 JUMPI DUP2 MLOAD PUSH2 0x49ED DUP9 DUP3 PUSH2 0x4990 JUMP JUMPDEST SWAP8 POP PUSH2 0x49F8 DUP4 PUSH2 0x49A8 JUMP JUMPDEST SWAP3 POP POP PUSH1 0x1 DUP2 ADD SWAP1 POP PUSH2 0x49D9 JUMP JUMPDEST POP DUP6 SWAP4 POP POP POP POP SWAP3 SWAP2 POP POP JUMP JUMPDEST PUSH1 0x0 PUSH1 0x20 DUP3 ADD SWAP1 POP DUP2 DUP2 SUB PUSH1 0x0 DUP4 ADD MSTORE PUSH2 0x4A2D DUP2 DUP5 PUSH2 0x49B5 JUMP JUMPDEST SWAP1 POP SWAP3 SWAP2 POP POP JUMP JUMPDEST PUSH1 0x0 PUSH1 0x40 DUP3 ADD SWAP1 POP PUSH2 0x4A4A PUSH1 0x0 DUP4 ADD DUP6 PUSH2 0x45C9 JUMP JUMPDEST PUSH2 0x4A57 PUSH1 0x20 DUP4 ADD DUP5 PUSH2 0x48EB JUMP JUMPDEST SWAP4 SWAP3 POP POP POP JUMP JUMPDEST PUSH1 0x0 PUSH8 0xFFFFFFFFFFFFFFFF DUP3 GT ISZERO PUSH2 0x4A79 JUMPI PUSH2 0x4A78 PUSH2 0x45FD JUMP JUMPDEST JUMPDEST PUSH2 0x4A82 DUP3 PUSH2 0x43B0 JUMP JUMPDEST SWAP1 POP PUSH1 0x20 DUP2 ADD SWAP1 POP SWAP2 SWAP1 POP JUMP JUMPDEST PUSH1 0x0 PUSH2 0x4AA2 PUSH2 0x4A9D DUP5 PUSH2 0x4A5E JUMP JUMPDEST PUSH2 0x465D JUMP JUMPDEST SWAP1 POP DUP3 DUP2 MSTORE PUSH1 0x20 DUP2 ADD DUP5 DUP5 DUP5 ADD GT ISZERO PUSH2 0x4ABE JUMPI PUSH2 0x4ABD PUSH2 0x45F8 JUMP JUMPDEST JUMPDEST PUSH2 0x4AC9 DUP5 DUP3 DUP6 PUSH2 0x46A9 JUMP JUMPDEST POP SWAP4 SWAP3 POP POP POP JUMP JUMPDEST PUSH1 0x0 DUP3 PUSH1 0x1F DUP4 ADD SLT PUSH2 0x4AE6 JUMPI PUSH2 0x4AE5 PUSH2 0x45F3 JUMP JUMPDEST JUMPDEST DUP2 CALLDATALOAD PUSH2 0x4AF6 DUP5 DUP3 PUSH1 0x20 DUP7 ADD PUSH2 0x4A8F JUMP JUMPDEST SWAP2 POP POP SWAP3 SWAP2 POP POP JUMP JUMPDEST PUSH1 0x0 DUP1 PUSH1 0x0 DUP1 PUSH1 0x80 DUP6 DUP8 SUB SLT ISZERO PUSH2 0x4B19 JUMPI PUSH2 0x4B18 PUSH2 0x421A JUMP JUMPDEST JUMPDEST PUSH1 0x0 PUSH2 0x4B27 DUP8 DUP3 DUP9 ADD PUSH2 0x4328 JUMP JUMPDEST SWAP5 POP POP PUSH1 0x20 PUSH2 0x4B38 DUP8 DUP3 DUP9 ADD PUSH2 0x4328 JUMP JUMPDEST SWAP4 POP POP PUSH1 0x40 PUSH2 0x4B49 DUP8 DUP3 DUP9 ADD PUSH2 0x443D JUMP JUMPDEST SWAP3 POP POP PUSH1 0x60 DUP6 ADD CALLDATALOAD PUSH8 0xFFFFFFFFFFFFFFFF DUP2 GT ISZERO PUSH2 0x4B6A JUMPI PUSH2 0x4B69 PUSH2 0x421F JUMP JUMPDEST JUMPDEST PUSH2 0x4B76 DUP8 DUP3 DUP9 ADD PUSH2 0x4AD1 JUMP JUMPDEST SWAP2 POP POP SWAP3 SWAP6 SWAP2 SWAP5 POP SWAP3 POP JUMP JUMPDEST PUSH1 0x0 PUSH8 0xFFFFFFFFFFFFFFFF DUP3 GT ISZERO PUSH2 0x4B9D JUMPI PUSH2 0x4B9C PUSH2 0x45FD JUMP JUMPDEST JUMPDEST PUSH1 0x20 DUP3 MUL SWAP1 POP PUSH1 0x20 DUP2 ADD SWAP1 POP SWAP2 SWAP1 POP JUMP JUMPDEST PUSH1 0x0 DUP1 REVERT JUMPDEST PUSH1 0x0 PUSH2 0x4BC6 PUSH2 0x4BC1 DUP5 PUSH2 0x4B82 JUMP JUMPDEST PUSH2 0x465D JUMP JUMPDEST SWAP1 POP DUP1 DUP4 DUP3 MSTORE PUSH1 0x20 DUP3 ADD SWAP1 POP PUSH1 0x20 DUP5 MUL DUP4 ADD DUP6 DUP2 GT ISZERO PUSH2 0x4BE9 JUMPI PUSH2 0x4BE8 PUSH2 0x4BAE JUMP JUMPDEST JUMPDEST DUP4 JUMPDEST DUP2 DUP2 LT ISZERO PUSH2 0x4C12 JUMPI DUP1 PUSH2 0x4BFE DUP9 DUP3 PUSH2 0x443D JUMP JUMPDEST DUP5 MSTORE PUSH1 0x20 DUP5 ADD SWAP4 POP POP PUSH1 0x20 DUP2 ADD SWAP1 POP PUSH2 0x4BEB JUMP JUMPDEST POP POP POP SWAP4 SWAP3 POP POP POP JUMP JUMPDEST PUSH1 0x0 DUP3 PUSH1 0x1F DUP4 ADD SLT PUSH2 0x4C31 JUMPI PUSH2 0x4C30 PUSH2 0x45F3 JUMP JUMPDEST JUMPDEST DUP2 CALLDATALOAD PUSH2 0x4C41 DUP5 DUP3 PUSH1 0x20 DUP7 ADD PUSH2 0x4BB3 JUMP JUMPDEST SWAP2 POP POP SWAP3 SWAP2 POP POP JUMP JUMPDEST PUSH1 0x0 PUSH1 0x20 DUP3 DUP5 SUB SLT ISZERO PUSH2 0x4C60 JUMPI PUSH2 0x4C5F PUSH2 0x421A JUMP JUMPDEST JUMPDEST PUSH1 0x0 DUP3 ADD CALLDATALOAD PUSH8 0xFFFFFFFFFFFFFFFF DUP2 GT ISZERO PUSH2 0x4C7E JUMPI PUSH2 0x4C7D PUSH2 0x421F JUMP JUMPDEST JUMPDEST PUSH2 0x4C8A DUP5 DUP3 DUP6 ADD PUSH2 0x4C1C JUMP JUMPDEST SWAP2 POP POP SWAP3 SWAP2 POP POP JUMP JUMPDEST PUSH1 0x0 DUP1 PUSH1 0x40 DUP4 DUP6 SUB SLT ISZERO PUSH2 0x4CAA JUMPI PUSH2 0x4CA9 PUSH2 0x421A JUMP JUMPDEST JUMPDEST PUSH1 0x0 PUSH2 0x4CB8 DUP6 DUP3 DUP7 ADD PUSH2 0x4328 JUMP JUMPDEST SWAP3 POP POP PUSH1 0x20 PUSH2 0x4CC9 DUP6 DUP3 DUP7 ADD PUSH2 0x4328 JUMP JUMPDEST SWAP2 POP POP SWAP3 POP SWAP3 SWAP1 POP JUMP JUMPDEST PUSH32 0x4E487B7100000000000000000000000000000000000000000000000000000000 PUSH1 0x0 MSTORE PUSH1 0x22 PUSH1 0x4 MSTORE PUSH1 0x24 PUSH1 0x0 REVERT JUMPDEST PUSH1 0x0 PUSH1 0x2 DUP3 DIV SWAP1 POP PUSH1 0x1 DUP3 AND DUP1 PUSH2 0x4D1A JUMPI PUSH1 0x7F DUP3 AND SWAP2 POP JUMPDEST PUSH1 0x20 DUP3 LT DUP2 SUB PUSH2 0x4D2D JUMPI PUSH2 0x4D2C PUSH2 0x4CD3 JUMP JUMPDEST JUMPDEST POP SWAP2 SWAP1 POP JUMP JUMPDEST PUSH32 0x4552433732313A20617070726F76616C20746F2063757272656E74206F776E65 PUSH1 0x0 DUP3 ADD MSTORE PUSH32 0x7200000000000000000000000000000000000000000000000000000000000000 PUSH1 0x20 DUP3 ADD MSTORE POP JUMP JUMPDEST PUSH1 0x0 PUSH2 0x4D8F PUSH1 0x21 DUP4 PUSH2 0x4375 JUMP JUMPDEST SWAP2 POP PUSH2 0x4D9A DUP3 PUSH2 0x4D33 JUMP JUMPDEST PUSH1 0x40 DUP3 ADD SWAP1 POP SWAP2 SWAP1 POP JUMP JUMPDEST PUSH1 0x0 PUSH1 0x20 DUP3 ADD SWAP1 POP DUP2 DUP2 SUB PUSH1 0x0 DUP4 ADD MSTORE PUSH2 0x4DBE DUP2 PUSH2 0x4D82 JUMP JUMPDEST SWAP1 POP SWAP2 SWAP1 POP JUMP JUMPDEST PUSH32 0x4552433732313A20617070726F76652063616C6C6572206973206E6F7420746F PUSH1 0x0 DUP3 ADD MSTORE PUSH32 0x6B656E206F776E6572206F7220617070726F76656420666F7220616C6C000000 PUSH1 0x20 DUP3 ADD MSTORE POP JUMP JUMPDEST PUSH1 0x0 PUSH2 0x4E21 PUSH1 0x3D DUP4 PUSH2 0x4375 JUMP JUMPDEST SWAP2 POP PUSH2 0x4E2C DUP3 PUSH2 0x4DC5 JUMP JUMPDEST PUSH1 0x40 DUP3 ADD SWAP1 POP SWAP2 SWAP1 POP JUMP JUMPDEST PUSH1 0x0 PUSH1 0x20 DUP3 ADD SWAP1 POP DUP2 DUP2 SUB PUSH1 0x0 DUP4 ADD MSTORE PUSH2 0x4E50 DUP2 PUSH2 0x4E14 JUMP JUMPDEST SWAP1 POP SWAP2 SWAP1 POP JUMP JUMPDEST PUSH32 0x5468697320636F6C6C656374696F6E2068617320726561636865642074686520 PUSH1 0x0 DUP3 ADD MSTORE PUSH32 0x6C696D6974206F66206D696E74696E6700000000000000000000000000000000 PUSH1 0x20 DUP3 ADD MSTORE POP JUMP JUMPDEST PUSH1 0x0 PUSH2 0x4EB3 PUSH1 0x30 DUP4 PUSH2 0x4375 JUMP JUMPDEST SWAP2 POP PUSH2 0x4EBE DUP3 PUSH2 0x4E57 JUMP JUMPDEST PUSH1 0x40 DUP3 ADD SWAP1 POP SWAP2 SWAP1 POP JUMP JUMPDEST PUSH1 0x0 PUSH1 0x20 DUP3 ADD SWAP1 POP DUP2 DUP2 SUB PUSH1 0x0 DUP4 ADD MSTORE PUSH2 0x4EE2 DUP2 PUSH2 0x4EA6 JUMP JUMPDEST SWAP1 POP SWAP2 SWAP1 POP JUMP JUMPDEST PUSH32 0x596F7520617265206E6F7420616C6C6F77656420746F206D696E740000000000 PUSH1 0x0 DUP3 ADD MSTORE POP JUMP JUMPDEST PUSH1 0x0 PUSH2 0x4F1F PUSH1 0x1B DUP4 PUSH2 0x4375 JUMP JUMPDEST SWAP2 POP PUSH2 0x4F2A DUP3 PUSH2 0x4EE9 JUMP JUMPDEST PUSH1 0x20 DUP3 ADD SWAP1 POP SWAP2 SWAP1 POP JUMP JUMPDEST PUSH1 0x0 PUSH1 0x20 DUP3 ADD SWAP1 POP DUP2 DUP2 SUB PUSH1 0x0 DUP4 ADD MSTORE PUSH2 0x4F4E DUP2 PUSH2 0x4F12 JUMP JUMPDEST SWAP1 POP SWAP2 SWAP1 POP JUMP JUMPDEST PUSH32 0x596F752068617665207265616368656420746865206C696D6974206F66206D69 PUSH1 0x0 DUP3 ADD MSTORE PUSH32 0x6E74696E67000000000000000000000000000000000000000000000000000000 PUSH1 0x20 DUP3 ADD MSTORE POP JUMP JUMPDEST PUSH1 0x0 PUSH2 0x4FB1 PUSH1 0x25 DUP4 PUSH2 0x4375 JUMP JUMPDEST SWAP2 POP PUSH2 0x4FBC DUP3 PUSH2 0x4F55 JUMP JUMPDEST PUSH1 0x40 DUP3 ADD SWAP1 POP SWAP2 SWAP1 POP JUMP JUMPDEST PUSH1 0x0 PUSH1 0x20 DUP3 ADD SWAP1 POP DUP2 DUP2 SUB PUSH1 0x0 DUP4 ADD MSTORE PUSH2 0x4FE0 DUP2 PUSH2 0x4FA4 JUMP JUMPDEST SWAP1 POP SWAP2 SWAP1 POP JUMP JUMPDEST PUSH32 0x496E73756666696369656E742065746865722073656E74000000000000000000 PUSH1 0x0 DUP3 ADD MSTORE POP JUMP JUMPDEST PUSH1 0x0 PUSH2 0x501D PUSH1 0x17 DUP4 PUSH2 0x4375 JUMP JUMPDEST SWAP2 POP PUSH2 0x5028 DUP3 PUSH2 0x4FE7 JUMP JUMPDEST PUSH1 0x20 DUP3 ADD SWAP1 POP SWAP2 SWAP1 POP JUMP JUMPDEST PUSH1 0x0 PUSH1 0x20 DUP3 ADD SWAP1 POP DUP2 DUP2 SUB PUSH1 0x0 DUP4 ADD MSTORE PUSH2 0x504C DUP2 PUSH2 0x5010 JUMP JUMPDEST SWAP1 POP SWAP2 SWAP1 POP JUMP JUMPDEST PUSH32 0x4E487B7100000000000000000000000000000000000000000000000000000000 PUSH1 0x0 MSTORE PUSH1 0x32 PUSH1 0x4 MSTORE PUSH1 0x24 PUSH1 0x0 REVERT JUMPDEST PUSH32 0x4E487B7100000000000000000000000000000000000000000000000000000000 PUSH1 0x0 MSTORE PUSH1 0x11 PUSH1 0x4 MSTORE PUSH1 0x24 PUSH1 0x0 REVERT JUMPDEST PUSH1 0x0 PUSH2 0x50BC DUP3 PUSH2 0x441C JUMP JUMPDEST SWAP2 POP PUSH32 0xFFFFFFFFFFFFFFFFFFFFFFFFFFFFFFFFFFFFFFFFFFFFFFFFFFFFFFFFFFFFFFFF DUP3 SUB PUSH2 0x50EE JUMPI PUSH2 0x50ED PUSH2 0x5082 JUMP JUMPDEST JUMPDEST PUSH1 0x1 DUP3 ADD SWAP1 POP SWAP2 SWAP1 POP JUMP JUMPDEST PUSH32 0x4552433732313A2063616C6C6572206973206E6F7420746F6B656E206F776E65 PUSH1 0x0 DUP3 ADD MSTORE PUSH32 0x72206F7220617070726F76656400000000000000000000000000000000000000 PUSH1 0x20 DUP3 ADD MSTORE POP JUMP JUMPDEST PUSH1 0x0 PUSH2 0x5155 PUSH1 0x2D DUP4 PUSH2 0x4375 JUMP JUMPDEST SWAP2 POP PUSH2 0x5160 DUP3 PUSH2 0x50F9 JUMP JUMPDEST PUSH1 0x40 DUP3 ADD SWAP1 POP SWAP2 SWAP1 POP JUMP JUMPDEST PUSH1 0x0 PUSH1 0x20 DUP3 ADD SWAP1 POP DUP2 DUP2 SUB PUSH1 0x0 DUP4 ADD MSTORE PUSH2 0x5184 DUP2 PUSH2 0x5148 JUMP JUMPDEST SWAP1 POP SWAP2 SWAP1 POP JUMP JUMPDEST PUSH32 0x596F752063616E206E6F7420776974686472617720617420746869732074696D PUSH1 0x0 DUP3 ADD MSTORE PUSH32 0x6500000000000000000000000000000000000000000000000000000000000000 PUSH1 0x20 DUP3 ADD MSTORE POP JUMP JUMPDEST PUSH1 0x0 PUSH2 0x51E7 PUSH1 0x21 DUP4 PUSH2 0x4375 JUMP JUMPDEST SWAP2 POP PUSH2 0x51F2 DUP3 PUSH2 0x518B JUMP JUMPDEST PUSH1 0x40 DUP3 ADD SWAP1 POP SWAP2 SWAP1 POP JUMP JUMPDEST PUSH1 0x0 PUSH1 0x20 DUP3 ADD SWAP1 POP DUP2 DUP2 SUB PUSH1 0x0 DUP4 ADD MSTORE PUSH2 0x5216 DUP2 PUSH2 0x51DA JUMP JUMPDEST SWAP1 POP SWAP2 SWAP1 POP JUMP JUMPDEST PUSH1 0x0 PUSH2 0x5228 DUP3 PUSH2 0x441C JUMP JUMPDEST SWAP2 POP PUSH2 0x5233 DUP4 PUSH2 0x441C JUMP JUMPDEST SWAP3 POP DUP3 DUP3 ADD SWAP1 POP DUP1 DUP3 GT ISZERO PUSH2 0x524B JUMPI PUSH2 0x524A PUSH2 0x5082 JUMP JUMPDEST JUMPDEST SWAP3 SWAP2 POP POP JUMP JUMPDEST PUSH32 0x4E756D626572206F662077696E6E657273206D75737420626520677265617465 PUSH1 0x0 DUP3 ADD MSTORE PUSH32 0x72207468616E207A65726F000000000000000000000000000000000000000000 PUSH1 0x20 DUP3 ADD MSTORE POP JUMP JUMPDEST PUSH1 0x0 PUSH2 0x52AD PUSH1 0x2B DUP4 PUSH2 0x4375 JUMP JUMPDEST SWAP2 POP PUSH2 0x52B8 DUP3 PUSH2 0x5251 JUMP JUMPDEST PUSH1 0x40 DUP3 ADD SWAP1 POP SWAP2 SWAP1 POP JUMP JUMPDEST PUSH1 0x0 PUSH1 0x20 DUP3 ADD SWAP1 POP DUP2 DUP2 SUB PUSH1 0x0 DUP4 ADD MSTORE PUSH2 0x52DC DUP2 PUSH2 0x52A0 JUMP JUMPDEST SWAP1 POP SWAP2 SWAP1 POP JUMP JUMPDEST PUSH32 0x4E756D626572206F662077696E6E657273206578636565647320746865206E75 PUSH1 0x0 DUP3 ADD MSTORE PUSH32 0x6D626572206F66206D696E74696E672061646472657373657300000000000000 PUSH1 0x20 DUP3 ADD MSTORE POP JUMP JUMPDEST PUSH1 0x0 PUSH2 0x533F PUSH1 0x39 DUP4 PUSH2 0x4375 JUMP JUMPDEST SWAP2 POP PUSH2 0x534A DUP3 PUSH2 0x52E3 JUMP JUMPDEST PUSH1 0x40 DUP3 ADD SWAP1 POP SWAP2 SWAP1 POP JUMP JUMPDEST PUSH1 0x0 PUSH1 0x20 DUP3 ADD SWAP1 POP DUP2 DUP2 SUB PUSH1 0x0 DUP4 ADD MSTORE PUSH2 0x536E DUP2 PUSH2 0x5332 JUMP JUMPDEST SWAP1 POP SWAP2 SWAP1 POP JUMP JUMPDEST PUSH32 0x5265776172642070657263656E74616765206D75737420626520626574776565 PUSH1 0x0 DUP3 ADD MSTORE PUSH32 0x6E203120616E6420313030000000000000000000000000000000000000000000 PUSH1 0x20 DUP3 ADD MSTORE POP JUMP JUMPDEST PUSH1 0x0 PUSH2 0x53D1 PUSH1 0x2B DUP4 PUSH2 0x4375 JUMP JUMPDEST SWAP2 POP PUSH2 0x53DC DUP3 PUSH2 0x5375 JUMP JUMPDEST PUSH1 0x40 DUP3 ADD SWAP1 POP SWAP2 SWAP1 POP JUMP JUMPDEST PUSH1 0x0 PUSH1 0x20 DUP3 ADD SWAP1 POP DUP2 DUP2 SUB PUSH1 0x0 DUP4 ADD MSTORE PUSH2 0x5400 DUP2 PUSH2 0x53C4 JUMP JUMPDEST SWAP1 POP SWAP2 SWAP1 POP JUMP JUMPDEST PUSH1 0x0 PUSH2 0x5412 DUP3 PUSH2 0x441C JUMP JUMPDEST SWAP2 POP PUSH2 0x541D DUP4 PUSH2 0x441C JUMP JUMPDEST SWAP3 POP DUP3 DUP3 MUL PUSH2 0x542B DUP2 PUSH2 0x441C JUMP JUMPDEST SWAP2 POP DUP3 DUP3 DIV DUP5 EQ DUP4 ISZERO OR PUSH2 0x5442 JUMPI PUSH2 0x5441 PUSH2 0x5082 JUMP JUMPDEST JUMPDEST POP SWAP3 SWAP2 POP POP JUMP JUMPDEST PUSH32 0x4E487B7100000000000000000000000000000000000000000000000000000000 PUSH1 0x0 MSTORE PUSH1 0x12 PUSH1 0x4 MSTORE PUSH1 0x24 PUSH1 0x0 REVERT JUMPDEST PUSH1 0x0 PUSH2 0x5483 DUP3 PUSH2 0x441C JUMP JUMPDEST SWAP2 POP PUSH2 0x548E DUP4 PUSH2 0x441C JUMP JUMPDEST SWAP3 POP DUP3 PUSH2 0x549E JUMPI PUSH2 0x549D PUSH2 0x5449 JUMP JUMPDEST JUMPDEST DUP3 DUP3 DIV SWAP1 POP SWAP3 SWAP2 POP POP JUMP JUMPDEST PUSH1 0x0 PUSH2 0x54B4 DUP3 PUSH2 0x441C JUMP JUMPDEST SWAP2 POP PUSH2 0x54BF DUP4 PUSH2 0x441C JUMP JUMPDEST SWAP3 POP DUP3 DUP3 SUB SWAP1 POP DUP2 DUP2 GT ISZERO PUSH2 0x54D7 JUMPI PUSH2 0x54D6 PUSH2 0x5082 JUMP JUMPDEST JUMPDEST SWAP3 SWAP2 POP POP JUMP JUMPDEST PUSH32 0x596F7520617265206E6F7420746865206F776E65720000000000000000000000 PUSH1 0x0 DUP3 ADD MSTORE POP JUMP JUMPDEST PUSH1 0x0 PUSH2 0x5513 PUSH1 0x15 DUP4 PUSH2 0x4375 JUMP JUMPDEST SWAP2 POP PUSH2 0x551E DUP3 PUSH2 0x54DD JUMP JUMPDEST PUSH1 0x20 DUP3 ADD SWAP1 POP SWAP2 SWAP1 POP JUMP JUMPDEST PUSH1 0x0 PUSH1 0x20 DUP3 ADD SWAP1 POP DUP2 DUP2 SUB PUSH1 0x0 DUP4 ADD MSTORE PUSH2 0x5542 DUP2 PUSH2 0x5506 JUMP JUMPDEST SWAP1 POP SWAP2 SWAP1 POP JUMP JUMPDEST PUSH32 0x4552433732313A20696E76616C696420746F6B656E2049440000000000000000 PUSH1 0x0 DUP3 ADD MSTORE POP JUMP JUMPDEST PUSH1 0x0 PUSH2 0x557F PUSH1 0x18 DUP4 PUSH2 0x4375 JUMP JUMPDEST SWAP2 POP PUSH2 0x558A DUP3 PUSH2 0x5549 JUMP JUMPDEST PUSH1 0x20 DUP3 ADD SWAP1 POP SWAP2 SWAP1 POP JUMP JUMPDEST PUSH1 0x0 PUSH1 0x20 DUP3 ADD SWAP1 POP DUP2 DUP2 SUB PUSH1 0x0 DUP4 ADD MSTORE PUSH2 0x55AE DUP2 PUSH2 0x5572 JUMP JUMPDEST SWAP1 POP SWAP2 SWAP1 POP JUMP JUMPDEST PUSH32 0x546F6B656E20494420646F6573206E6F74206578697374000000000000000000 PUSH1 0x0 DUP3 ADD MSTORE POP JUMP JUMPDEST PUSH1 0x0 PUSH2 0x55EB PUSH1 0x17 DUP4 PUSH2 0x4375 JUMP JUMPDEST SWAP2 POP PUSH2 0x55F6 DUP3 PUSH2 0x55B5 JUMP JUMPDEST PUSH1 0x20 DUP3 ADD SWAP1 POP SWAP2 SWAP1 POP JUMP JUMPDEST PUSH1 0x0 PUSH1 0x20 DUP3 ADD SWAP1 POP DUP2 DUP2 SUB PUSH1 0x0 DUP4 ADD MSTORE PUSH2 0x561A DUP2 PUSH2 0x55DE JUMP JUMPDEST SWAP1 POP SWAP2 SWAP1 POP JUMP JUMPDEST PUSH32 0x4552433732313A2061646472657373207A65726F206973206E6F742061207661 PUSH1 0x0 DUP3 ADD MSTORE PUSH32 0x6C6964206F776E65720000000000000000000000000000000000000000000000 PUSH1 0x20 DUP3 ADD MSTORE POP JUMP JUMPDEST PUSH1 0x0 PUSH2 0x567D PUSH1 0x29 DUP4 PUSH2 0x4375 JUMP JUMPDEST SWAP2 POP PUSH2 0x5688 DUP3 PUSH2 0x5621 JUMP JUMPDEST PUSH1 0x40 DUP3 ADD SWAP1 POP SWAP2 SWAP1 POP JUMP JUMPDEST PUSH1 0x0 PUSH1 0x20 DUP3 ADD SWAP1 POP DUP2 DUP2 SUB PUSH1 0x0 DUP4 ADD MSTORE PUSH2 0x56AC DUP2 PUSH2 0x5670 JUMP JUMPDEST SWAP1 POP SWAP2 SWAP1 POP JUMP JUMPDEST PUSH32 0x596F7520617265206E6F7420746865206F776E6572206F662074686973204E46 PUSH1 0x0 DUP3 ADD MSTORE PUSH32 0x5400000000000000000000000000000000000000000000000000000000000000 PUSH1 0x20 DUP3 ADD MSTORE POP JUMP JUMPDEST PUSH1 0x0 PUSH2 0x570F PUSH1 0x21 DUP4 PUSH2 0x4375 JUMP JUMPDEST SWAP2 POP PUSH2 0x571A DUP3 PUSH2 0x56B3 JUMP JUMPDEST PUSH1 0x40 DUP3 ADD SWAP1 POP SWAP2 SWAP1 POP JUMP JUMPDEST PUSH1 0x0 PUSH1 0x20 DUP3 ADD SWAP1 POP DUP2 DUP2 SUB PUSH1 0x0 DUP4 ADD MSTORE PUSH2 0x573E DUP2 PUSH2 0x5702 JUMP JUMPDEST SWAP1 POP SWAP2 SWAP1 POP JUMP JUMPDEST PUSH32 0x546F70206D7573742062652067726561746572207468616E207A65726F000000 PUSH1 0x0 DUP3 ADD MSTORE POP JUMP JUMPDEST PUSH1 0x0 PUSH2 0x577B PUSH1 0x1D DUP4 PUSH2 0x4375 JUMP JUMPDEST SWAP2 POP PUSH2 0x5786 DUP3 PUSH2 0x5745 JUMP JUMPDEST PUSH1 0x20 DUP3 ADD SWAP1 POP SWAP2 SWAP1 POP JUMP JUMPDEST PUSH1 0x0 PUSH1 0x20 DUP3 ADD SWAP1 POP DUP2 DUP2 SUB PUSH1 0x0 DUP4 ADD MSTORE PUSH2 0x57AA DUP2 PUSH2 0x576E JUMP JUMPDEST SWAP1 POP SWAP2 SWAP1 POP JUMP JUMPDEST PUSH32 0x546F70206578636565647320746865206E756D626572206F66206D696E74696E PUSH1 0x0 DUP3 ADD MSTORE PUSH32 0x6720616464726573736573000000000000000000000000000000000000000000 PUSH1 0x20 DUP3 ADD MSTORE POP JUMP JUMPDEST PUSH1 0x0 PUSH2 0x580D PUSH1 0x2B DUP4 PUSH2 0x4375 JUMP JUMPDEST SWAP2 POP PUSH2 0x5818 DUP3 PUSH2 0x57B1 JUMP JUMPDEST PUSH1 0x40 DUP3 ADD SWAP1 POP SWAP2 SWAP1 POP JUMP JUMPDEST PUSH1 0x0 PUSH1 0x20 DUP3 ADD SWAP1 POP DUP2 DUP2 SUB PUSH1 0x0 DUP4 ADD MSTORE PUSH2 0x583C DUP2 PUSH2 0x5800 JUMP JUMPDEST SWAP1 POP SWAP2 SWAP1 POP JUMP JUMPDEST PUSH1 0x0 DUP2 SWAP1 POP SWAP3 SWAP2 POP POP JUMP JUMPDEST PUSH1 0x0 PUSH2 0x5859 DUP3 PUSH2 0x436A JUMP JUMPDEST PUSH2 0x5863 DUP2 DUP6 PUSH2 0x5843 JUMP JUMPDEST SWAP4 POP PUSH2 0x5873 DUP2 DUP6 PUSH1 0x20 DUP7 ADD PUSH2 0x4386 JUMP JUMPDEST DUP1 DUP5 ADD SWAP2 POP POP SWAP3 SWAP2 POP POP JUMP JUMPDEST PUSH1 0x0 PUSH2 0x588B DUP3 DUP6 PUSH2 0x584E JUMP JUMPDEST SWAP2 POP PUSH2 0x5897 DUP3 DUP5 PUSH2 0x584E JUMP JUMPDEST SWAP2 POP DUP2 SWAP1 POP SWAP4 SWAP3 POP POP POP JUMP JUMPDEST PUSH32 0x526172697479206D7573742068617665203420656C656D656E74730000000000 PUSH1 0x0 DUP3 ADD MSTORE POP JUMP JUMPDEST PUSH1 0x0 PUSH2 0x58D9 PUSH1 0x1B DUP4 PUSH2 0x4375 JUMP JUMPDEST SWAP2 POP PUSH2 0x58E4 DUP3 PUSH2 0x58A3 JUMP JUMPDEST PUSH1 0x20 DUP3 ADD SWAP1 POP SWAP2 SWAP1 POP JUMP JUMPDEST PUSH1 0x0 PUSH1 0x20 DUP3 ADD SWAP1 POP DUP2 DUP2 SUB PUSH1 0x0 DUP4 ADD MSTORE PUSH2 0x5908 DUP2 PUSH2 0x58CC JUMP JUMPDEST SWAP1 POP SWAP2 SWAP1 POP JUMP JUMPDEST PUSH32 0x5468652073756D206F6620726172697479206D75737420626520313030000000 PUSH1 0x0 DUP3 ADD MSTORE POP JUMP JUMPDEST PUSH1 0x0 PUSH2 0x5945 PUSH1 0x1D DUP4 PUSH2 0x4375 JUMP JUMPDEST SWAP2 POP PUSH2 0x5950 DUP3 PUSH2 0x590F JUMP JUMPDEST PUSH1 0x20 DUP3 ADD SWAP1 POP SWAP2 SWAP1 POP JUMP JUMPDEST PUSH1 0x0 PUSH1 0x20 DUP3 ADD SWAP1 POP DUP2 DUP2 SUB PUSH1 0x0 DUP4 ADD MSTORE PUSH2 0x5974 DUP2 PUSH2 0x5938 JUMP JUMPDEST SWAP1 POP SWAP2 SWAP1 POP JUMP JUMPDEST PUSH32 0x4F776E61626C653A206E6577206F776E657220697320746865207A65726F2061 PUSH1 0x0 DUP3 ADD MSTORE PUSH32 0x6464726573730000000000000000000000000000000000000000000000000000 PUSH1 0x20 DUP3 ADD MSTORE POP JUMP JUMPDEST PUSH1 0x0 PUSH2 0x59D7 PUSH1 0x26 DUP4 PUSH2 0x4375 JUMP JUMPDEST SWAP2 POP PUSH2 0x59E2 DUP3 PUSH2 0x597B JUMP JUMPDEST PUSH1 0x40 DUP3 ADD SWAP1 POP SWAP2 SWAP1 POP JUMP JUMPDEST PUSH1 0x0 PUSH1 0x20 DUP3 ADD SWAP1 POP DUP2 DUP2 SUB PUSH1 0x0 DUP4 ADD MSTORE PUSH2 0x5A06 DUP2 PUSH2 0x59CA JUMP JUMPDEST SWAP1 POP SWAP2 SWAP1 POP JUMP JUMPDEST PUSH32 0x4F6E6C79207468652064657369676E6174656420616464726573732063616E20 PUSH1 0x0 DUP3 ADD MSTORE PUSH32 0x7769746864726177000000000000000000000000000000000000000000000000 PUSH1 0x20 DUP3 ADD MSTORE POP JUMP JUMPDEST PUSH1 0x0 PUSH2 0x5A69 PUSH1 0x28 DUP4 PUSH2 0x4375 JUMP JUMPDEST SWAP2 POP PUSH2 0x5A74 DUP3 PUSH2 0x5A0D JUMP JUMPDEST PUSH1 0x40 DUP3 ADD SWAP1 POP SWAP2 SWAP1 POP JUMP JUMPDEST PUSH1 0x0 PUSH1 0x20 DUP3 ADD SWAP1 POP DUP2 DUP2 SUB PUSH1 0x0 DUP4 ADD MSTORE PUSH2 0x5A98 DUP2 PUSH2 0x5A5C JUMP JUMPDEST SWAP1 POP SWAP2 SWAP1 POP JUMP JUMPDEST PUSH32 0x4F776E61626C653A2063616C6C6572206973206E6F7420746865206F776E6572 PUSH1 0x0 DUP3 ADD MSTORE POP JUMP JUMPDEST PUSH1 0x0 PUSH2 0x5AD5 PUSH1 0x20 DUP4 PUSH2 0x4375 JUMP JUMPDEST SWAP2 POP PUSH2 0x5AE0 DUP3 PUSH2 0x5A9F JUMP JUMPDEST PUSH1 0x20 DUP3 ADD SWAP1 POP SWAP2 SWAP1 POP JUMP JUMPDEST PUSH1 0x0 PUSH1 0x20 DUP3 ADD SWAP1 POP DUP2 DUP2 SUB PUSH1 0x0 DUP4 ADD MSTORE PUSH2 0x5B04 DUP2 PUSH2 0x5AC8 JUMP JUMPDEST SWAP1 POP SWAP2 SWAP1 POP JUMP JUMPDEST PUSH1 0x0 DUP2 SWAP1 POP SWAP2 SWAP1 POP JUMP JUMPDEST PUSH2 0x5B26 PUSH2 0x5B21 DUP3 PUSH2 0x441C JUMP JUMPDEST PUSH2 0x5B0B JUMP JUMPDEST DUP3 MSTORE POP POP JUMP JUMPDEST PUSH1 0x0 DUP2 PUSH1 0x60 SHL SWAP1 POP SWAP2 SWAP1 POP JUMP JUMPDEST PUSH1 0x0 PUSH2 0x5B44 DUP3 PUSH2 0x5B2C JUMP JUMPDEST SWAP1 POP SWAP2 SWAP1 POP JUMP JUMPDEST PUSH1 0x0 PUSH2 0x5B56 DUP3 PUSH2 0x5B39 JUMP JUMPDEST SWAP1 POP SWAP2 SWAP1 POP JUMP JUMPDEST PUSH2 0x5B6E PUSH2 0x5B69 DUP3 PUSH2 0x42FF JUMP JUMPDEST PUSH2 0x5B4B JUMP JUMPDEST DUP3 MSTORE POP POP JUMP JUMPDEST PUSH1 0x0 PUSH2 0x5B80 DUP3 DUP9 PUSH2 0x5B15 JUMP JUMPDEST PUSH1 0x20 DUP3 ADD SWAP2 POP PUSH2 0x5B90 DUP3 DUP8 PUSH2 0x5B15 JUMP JUMPDEST PUSH1 0x20 DUP3 ADD SWAP2 POP PUSH2 0x5BA0 DUP3 DUP7 PUSH2 0x5B15 JUMP JUMPDEST PUSH1 0x20 DUP3 ADD SWAP2 POP PUSH2 0x5BB0 DUP3 DUP6 PUSH2 0x5B5D JUMP JUMPDEST PUSH1 0x14 DUP3 ADD SWAP2 POP PUSH2 0x5BC0 DUP3 DUP5 PUSH2 0x5B5D JUMP JUMPDEST PUSH1 0x14 DUP3 ADD SWAP2 POP DUP2 SWAP1 POP SWAP7 SWAP6 POP POP POP POP POP POP JUMP JUMPDEST PUSH1 0x0 PUSH2 0x5BDE DUP3 PUSH2 0x441C JUMP JUMPDEST SWAP2 POP PUSH2 0x5BE9 DUP4 PUSH2 0x441C JUMP JUMPDEST SWAP3 POP DUP3 PUSH2 0x5BF9 JUMPI PUSH2 0x5BF8 PUSH2 0x5449 JUMP JUMPDEST JUMPDEST DUP3 DUP3 MOD SWAP1 POP SWAP3 SWAP2 POP POP JUMP JUMPDEST PUSH1 0x0 PUSH1 0x60 DUP3 ADD SWAP1 POP PUSH2 0x5C19 PUSH1 0x0 DUP4 ADD DUP7 PUSH2 0x447F JUMP JUMPDEST PUSH2 0x5C26 PUSH1 0x20 DUP4 ADD DUP6 PUSH2 0x45C9 JUMP JUMPDEST DUP2 DUP2 SUB PUSH1 0x40 DUP4 ADD MSTORE PUSH2 0x5C38 DUP2 DUP5 PUSH2 0x43C1 JUMP JUMPDEST SWAP1 POP SWAP5 SWAP4 POP POP POP POP JUMP JUMPDEST PUSH1 0x0 PUSH1 0x40 DUP3 ADD SWAP1 POP PUSH2 0x5C57 PUSH1 0x0 DUP4 ADD DUP6 PUSH2 0x45C9 JUMP JUMPDEST PUSH2 0x5C64 PUSH1 0x20 DUP4 ADD DUP5 PUSH2 0x45C9 JUMP JUMPDEST SWAP4 SWAP3 POP POP POP JUMP JUMPDEST PUSH32 0x4552433732313A206D696E7420746F20746865207A65726F2061646472657373 PUSH1 0x0 DUP3 ADD MSTORE POP JUMP JUMPDEST PUSH1 0x0 PUSH2 0x5CA1 PUSH1 0x20 DUP4 PUSH2 0x4375 JUMP JUMPDEST SWAP2 POP PUSH2 0x5CAC DUP3 PUSH2 0x5C6B JUMP JUMPDEST PUSH1 0x20 DUP3 ADD SWAP1 POP SWAP2 SWAP1 POP JUMP JUMPDEST PUSH1 0x0 PUSH1 0x20 DUP3 ADD SWAP1 POP DUP2 DUP2 SUB PUSH1 0x0 DUP4 ADD MSTORE PUSH2 0x5CD0 DUP2 PUSH2 0x5C94 JUMP JUMPDEST SWAP1 POP SWAP2 SWAP1 POP JUMP JUMPDEST PUSH32 0x4552433732313A20746F6B656E20616C7265616479206D696E74656400000000 PUSH1 0x0 DUP3 ADD MSTORE POP JUMP JUMPDEST PUSH1 0x0 PUSH2 0x5D0D PUSH1 0x1C DUP4 PUSH2 0x4375 JUMP JUMPDEST SWAP2 POP PUSH2 0x5D18 DUP3 PUSH2 0x5CD7 JUMP JUMPDEST PUSH1 0x20 DUP3 ADD SWAP1 POP SWAP2 SWAP1 POP JUMP JUMPDEST PUSH1 0x0 PUSH1 0x20 DUP3 ADD SWAP1 POP DUP2 DUP2 SUB PUSH1 0x0 DUP4 ADD MSTORE PUSH2 0x5D3C DUP2 PUSH2 0x5D00 JUMP JUMPDEST SWAP1 POP SWAP2 SWAP1 POP JUMP JUMPDEST PUSH32 0x45524337323155524953746F726167653A2055524920736574206F66206E6F6E PUSH1 0x0 DUP3 ADD MSTORE PUSH32 0x6578697374656E7420746F6B656E000000000000000000000000000000000000 PUSH1 0x20 DUP3 ADD MSTORE POP JUMP JUMPDEST PUSH1 0x0 PUSH2 0x5D9F PUSH1 0x2E DUP4 PUSH2 0x4375 JUMP JUMPDEST SWAP2 POP PUSH2 0x5DAA DUP3 PUSH2 0x5D43 JUMP JUMPDEST PUSH1 0x40 DUP3 ADD SWAP1 POP SWAP2 SWAP1 POP JUMP JUMPDEST PUSH1 0x0 PUSH1 0x20 DUP3 ADD SWAP1 POP DUP2 DUP2 SUB PUSH1 0x0 DUP4 ADD MSTORE PUSH2 0x5DCE DUP2 PUSH2 0x5D92 JUMP JUMPDEST SWAP1 POP SWAP2 SWAP1 POP JUMP JUMPDEST PUSH1 0x0 DUP2 SWAP1 POP DUP2 PUSH1 0x0 MSTORE PUSH1 0x20 PUSH1 0x0 KECCAK256 SWAP1 POP SWAP2 SWAP1 POP JUMP JUMPDEST PUSH1 0x0 PUSH1 0x20 PUSH1 0x1F DUP4 ADD DIV SWAP1 POP SWAP2 SWAP1 POP JUMP JUMPDEST PUSH1 0x0 DUP3 DUP3 SHL SWAP1 POP SWAP3 SWAP2 POP POP JUMP JUMPDEST PUSH1 0x0 PUSH1 0x8 DUP4 MUL PUSH2 0x5E37 PUSH32 0xFFFFFFFFFFFFFFFFFFFFFFFFFFFFFFFFFFFFFFFFFFFFFFFFFFFFFFFFFFFFFFFF DUP3 PUSH2 0x5DFA JUMP JUMPDEST PUSH2 0x5E41 DUP7 DUP4 PUSH2 0x5DFA JUMP JUMPDEST SWAP6 POP DUP1 NOT DUP5 AND SWAP4 POP DUP1 DUP7 AND DUP5 OR SWAP3 POP POP POP SWAP4 SWAP3 POP POP POP JUMP JUMPDEST PUSH1 0x0 DUP2 SWAP1 POP SWAP2 SWAP1 POP JUMP JUMPDEST PUSH1 0x0 PUSH2 0x5E7E PUSH2 0x5E79 PUSH2 0x5E74 DUP5 PUSH2 0x441C JUMP JUMPDEST PUSH2 0x5E59 JUMP JUMPDEST PUSH2 0x441C JUMP JUMPDEST SWAP1 POP SWAP2 SWAP1 POP JUMP JUMPDEST PUSH1 0x0 DUP2 SWAP1 POP SWAP2 SWAP1 POP JUMP JUMPDEST PUSH2 0x5E98 DUP4 PUSH2 0x5E63 JUMP JUMPDEST PUSH2 0x5EAC PUSH2 0x5EA4 DUP3 PUSH2 0x5E85 JUMP JUMPDEST DUP5 DUP5 SLOAD PUSH2 0x5E07 JUMP JUMPDEST DUP3 SSTORE POP POP POP POP JUMP JUMPDEST PUSH1 0x0 SWAP1 JUMP JUMPDEST PUSH2 0x5EC1 PUSH2 0x5EB4 JUMP JUMPDEST PUSH2 0x5ECC DUP2 DUP5 DUP5 PUSH2 0x5E8F JUMP JUMPDEST POP POP POP JUMP JUMPDEST JUMPDEST DUP2 DUP2 LT ISZERO PUSH2 0x5EF0 JUMPI PUSH2 0x5EE5 PUSH1 0x0 DUP3 PUSH2 0x5EB9 JUMP JUMPDEST PUSH1 0x1 DUP2 ADD SWAP1 POP PUSH2 0x5ED2 JUMP JUMPDEST POP POP JUMP JUMPDEST PUSH1 0x1F DUP3 GT ISZERO PUSH2 0x5F35 JUMPI PUSH2 0x5F06 DUP2 PUSH2 0x5DD5 JUMP JUMPDEST PUSH2 0x5F0F DUP5 PUSH2 0x5DEA JUMP JUMPDEST DUP2 ADD PUSH1 0x20 DUP6 LT ISZERO PUSH2 0x5F1E JUMPI DUP2 SWAP1 POP JUMPDEST PUSH2 0x5F32 PUSH2 0x5F2A DUP6 PUSH2 0x5DEA JUMP JUMPDEST DUP4 ADD DUP3 PUSH2 0x5ED1 JUMP JUMPDEST POP POP JUMPDEST POP POP POP JUMP JUMPDEST PUSH1 0x0 DUP3 DUP3 SHR SWAP1 POP SWAP3 SWAP2 POP POP JUMP JUMPDEST PUSH1 0x0 PUSH2 0x5F58 PUSH1 0x0 NOT DUP5 PUSH1 0x8 MUL PUSH2 0x5F3A JUMP JUMPDEST NOT DUP1 DUP4 AND SWAP2 POP POP SWAP3 SWAP2 POP POP JUMP JUMPDEST PUSH1 0x0 PUSH2 0x5F71 DUP4 DUP4 PUSH2 0x5F47 JUMP JUMPDEST SWAP2 POP DUP3 PUSH1 0x2 MUL DUP3 OR SWAP1 POP SWAP3 SWAP2 POP POP JUMP JUMPDEST PUSH2 0x5F8A DUP3 PUSH2 0x436A JUMP JUMPDEST PUSH8 0xFFFFFFFFFFFFFFFF DUP2 GT ISZERO PUSH2 0x5FA3 JUMPI PUSH2 0x5FA2 PUSH2 0x45FD JUMP JUMPDEST JUMPDEST PUSH2 0x5FAD DUP3 SLOAD PUSH2 0x4D02 JUMP JUMPDEST PUSH2 0x5FB8 DUP3 DUP3 DUP6 PUSH2 0x5EF4 JUMP JUMPDEST PUSH1 0x0 PUSH1 0x20 SWAP1 POP PUSH1 0x1F DUP4 GT PUSH1 0x1 DUP2 EQ PUSH2 0x5FEB JUMPI PUSH1 0x0 DUP5 ISZERO PUSH2 0x5FD9 JUMPI DUP3 DUP8 ADD MLOAD SWAP1 POP JUMPDEST PUSH2 0x5FE3 DUP6 DUP3 PUSH2 0x5F65 JUMP JUMPDEST DUP7 SSTORE POP PUSH2 0x604B JUMP JUMPDEST PUSH1 0x1F NOT DUP5 AND PUSH2 0x5FF9 DUP7 PUSH2 0x5DD5 JUMP JUMPDEST PUSH1 0x0 JUMPDEST DUP3 DUP2 LT ISZERO PUSH2 0x6021 JUMPI DUP5 DUP10 ADD MLOAD DUP3 SSTORE PUSH1 0x1 DUP3 ADD SWAP2 POP PUSH1 0x20 DUP6 ADD SWAP5 POP PUSH1 0x20 DUP2 ADD SWAP1 POP PUSH2 0x5FFC JUMP JUMPDEST DUP7 DUP4 LT ISZERO PUSH2 0x603E JUMPI DUP5 DUP10 ADD MLOAD PUSH2 0x603A PUSH1 0x1F DUP10 AND DUP3 PUSH2 0x5F47 JUMP JUMPDEST DUP4 SSTORE POP JUMPDEST PUSH1 0x1 PUSH1 0x2 DUP9 MUL ADD DUP9 SSTORE POP POP POP JUMPDEST POP POP POP POP POP POP JUMP JUMPDEST PUSH32 0x4552433732313A207472616E736665722066726F6D20696E636F727265637420 PUSH1 0x0 DUP3 ADD MSTORE PUSH32 0x6F776E6572000000000000000000000000000000000000000000000000000000 PUSH1 0x20 DUP3 ADD MSTORE POP JUMP JUMPDEST PUSH1 0x0 PUSH2 0x60AF PUSH1 0x25 DUP4 PUSH2 0x4375 JUMP JUMPDEST SWAP2 POP PUSH2 0x60BA DUP3 PUSH2 0x6053 JUMP JUMPDEST PUSH1 0x40 DUP3 ADD SWAP1 POP SWAP2 SWAP1 POP JUMP JUMPDEST PUSH1 0x0 PUSH1 0x20 DUP3 ADD SWAP1 POP DUP2 DUP2 SUB PUSH1 0x0 DUP4 ADD MSTORE PUSH2 0x60DE DUP2 PUSH2 0x60A2 JUMP JUMPDEST SWAP1 POP SWAP2 SWAP1 POP JUMP JUMPDEST PUSH32 0x4552433732313A207472616E7366657220746F20746865207A65726F20616464 PUSH1 0x0 DUP3 ADD MSTORE PUSH32 0x7265737300000000000000000000000000000000000000000000000000000000 PUSH1 0x20 DUP3 ADD MSTORE POP JUMP JUMPDEST PUSH1 0x0 PUSH2 0x6141 PUSH1 0x24 DUP4 PUSH2 0x4375 JUMP JUMPDEST SWAP2 POP PUSH2 0x614C DUP3 PUSH2 0x60E5 JUMP JUMPDEST PUSH1 0x40 DUP3 ADD SWAP1 POP SWAP2 SWAP1 POP JUMP JUMPDEST PUSH1 0x0 PUSH1 0x20 DUP3 ADD SWAP1 POP DUP2 DUP2 SUB PUSH1 0x0 DUP4 ADD MSTORE PUSH2 0x6170 DUP2 PUSH2 0x6134 JUMP JUMPDEST SWAP1 POP SWAP2 SWAP1 POP JUMP JUMPDEST PUSH32 0x4552433732313A20617070726F766520746F2063616C6C657200000000000000 PUSH1 0x0 DUP3 ADD MSTORE POP JUMP JUMPDEST PUSH1 0x0 PUSH2 0x61AD PUSH1 0x19 DUP4 PUSH2 0x4375 JUMP JUMPDEST SWAP2 POP PUSH2 0x61B8 DUP3 PUSH2 0x6177 JUMP JUMPDEST PUSH1 0x20 DUP3 ADD SWAP1 POP SWAP2 SWAP1 POP JUMP JUMPDEST PUSH1 0x0 PUSH1 0x20 DUP3 ADD SWAP1 POP DUP2 DUP2 SUB PUSH1 0x0 DUP4 ADD MSTORE PUSH2 0x61DC DUP2 PUSH2 0x61A0 JUMP JUMPDEST SWAP1 POP SWAP2 SWAP1 POP JUMP JUMPDEST PUSH32 0x4552433732313A207472616E7366657220746F206E6F6E204552433732315265 PUSH1 0x0 DUP3 ADD MSTORE PUSH32 0x63656976657220696D706C656D656E7465720000000000000000000000000000 PUSH1 0x20 DUP3 ADD MSTORE POP JUMP JUMPDEST PUSH1 0x0 PUSH2 0x623F PUSH1 0x32 DUP4 PUSH2 0x4375 JUMP JUMPDEST SWAP2 POP PUSH2 0x624A DUP3 PUSH2 0x61E3 JUMP JUMPDEST PUSH1 0x40 DUP3 ADD SWAP1 POP SWAP2 SWAP1 POP JUMP JUMPDEST PUSH1 0x0 PUSH1 0x20 DUP3 ADD SWAP1 POP DUP2 DUP2 SUB PUSH1 0x0 DUP4 ADD MSTORE PUSH2 0x626E DUP2 PUSH2 0x6232 JUMP JUMPDEST SWAP1 POP SWAP2 SWAP1 POP JUMP JUMPDEST PUSH1 0x0 DUP2 MLOAD SWAP1 POP SWAP2 SWAP1 POP JUMP JUMPDEST PUSH1 0x0 DUP3 DUP3 MSTORE PUSH1 0x20 DUP3 ADD SWAP1 POP SWAP3 SWAP2 POP POP JUMP JUMPDEST PUSH1 0x0 PUSH2 0x629C DUP3 PUSH2 0x6275 JUMP JUMPDEST PUSH2 0x62A6 DUP2 DUP6 PUSH2 0x6280 JUMP JUMPDEST SWAP4 POP PUSH2 0x62B6 DUP2 DUP6 PUSH1 0x20 DUP7 ADD PUSH2 0x4386 JUMP JUMPDEST PUSH2 0x62BF DUP2 PUSH2 0x43B0 JUMP JUMPDEST DUP5 ADD SWAP2 POP POP SWAP3 SWAP2 POP POP JUMP JUMPDEST PUSH1 0x0 PUSH1 0x80 DUP3 ADD SWAP1 POP PUSH2 0x62DF PUSH1 0x0 DUP4 ADD DUP8 PUSH2 0x447F JUMP JUMPDEST PUSH2 0x62EC PUSH1 0x20 DUP4 ADD DUP7 PUSH2 0x447F JUMP JUMPDEST PUSH2 0x62F9 PUSH1 0x40 DUP4 ADD DUP6 PUSH2 0x45C9 JUMP JUMPDEST DUP2 DUP2 SUB PUSH1 0x60 DUP4 ADD MSTORE PUSH2 0x630B DUP2 DUP5 PUSH2 0x6291 JUMP JUMPDEST SWAP1 POP SWAP6 SWAP5 POP POP POP POP POP JUMP JUMPDEST PUSH1 0x0 DUP2 MLOAD SWAP1 POP PUSH2 0x6325 DUP2 PUSH2 0x4250 JUMP JUMPDEST SWAP3 SWAP2 POP POP JUMP JUMPDEST PUSH1 0x0 PUSH1 0x20 DUP3 DUP5 SUB SLT ISZERO PUSH2 0x6341 JUMPI PUSH2 0x6340 PUSH2 0x421A JUMP JUMPDEST JUMPDEST PUSH1 0x0 PUSH2 0x634F DUP5 DUP3 DUP6 ADD PUSH2 0x6316 JUMP JUMPDEST SWAP2 POP POP SWAP3 SWAP2 POP POP JUMP INVALID LOG2 PUSH5 0x6970667358 0x22 SLT KECCAK256 LOG4 PUSH25 0xC396843773150E45C4C06851C462C6E29B8B45A83D017AB020 SWAP15 0xF8 0xEA SELFDESTRUCT SWAP2 PUSH5 0x736F6C6343 STOP ADDMOD SLT STOP CALLER PUSH9 0x747470733A2F2F6970 PUSH7 0x732E696F2F6970 PUSH7 0x732F516D636144 MSTORE 0x4B PUSH3 0x35634D CALLDATALOAD NUMBER 0x4E CALLDATASIZE SELFBALANCE PREVRANDAO 0x4D TIMESTAMP MSIZE PUSH24 0x346D334474557548565A366653654371695639594D715A77 PUSH24 0x3F66696C656E616D653D4E4654302E6A736F6E6874747073 GASPRICE 0x2F 0x2F PUSH10 0x7066732E696F2F697066 PUSH20 0x2F516D634A314641445757465775704838334B50 JUMP PUSH14 0x633171684E416D694B6D48624D35 PUSH8 0x35546A7674526739 PUSH6 0x353F66696C65 PUSH15 0x616D653D4E4654312E6A736F6E6874 PUSH21 0x70733A2F2F697066732E696F2F697066732F516D54 PUSH8 0x714D64374D594E4C 0x4E SELFBALANCE MLOAD PUSH26 0x68737A45506777636169756D5935346B3939745A4E6162466471 MSIZE PUSH10 0x56663F66696C656E616D PUSH6 0x3D4E4654322E PUSH11 0x736F6E68747470733A2F2F PUSH10 0x7066732E696F2F697066 PUSH20 0x2F516D52516D4C6D6F78433861436F44556B5371 SSTORE SLOAD 0x4B PUSH22 0x734733743270354D64745531716A4741473973734C35 PUSH22 0x3F66696C656E616D653D4E4654332E6A736F6E000000 "},"methodIdentifiers":{"NFT_url()":"b63b3d57","NFTs(uint256)":"a3c0b95b","addFreeMintAddress(address)":"84028697","approve(address,uint256)":"095ea7b3","balanceOf(address)":"70a08231","changeRarity(uint256[])":"e1d031f5","changeWithdrawFlag(bool)":"5b7c0dc7","changeflagPriceChanged(bool)":"b784902e","editLimitMint(uint256)":"f4f3b059","editPriceMint(uint256)":"ebb24c32","getApproved(uint256)":"081812fc","getLastAdress()":"1b163a9d","getNFTRank(uint256)":"6c5bf32e","getOwnedNFTs(address)":"18148f1b","getPoint(address)":"4ff531b6","getPrice()":"98d5fdca","getRarity()":"7b32cdba","getTopMintNFT(uint256)":"a23af5cb","isApprovedForAll(address,address)":"e985e9c5","limitMint()":"9b525924","limitTotalMinted()":"28ef5ec5","mintChangedFlag(bool)":"4759a421","mintNFT()":"14f710fe","mintNFT(address,uint256,string)":"1e576912","name()":"06fdde03","owner()":"8da5cb5b","ownerOf(uint256)":"6352211e","price()":"a035b1fe","removeFreeMintAddress(address)":"04890b24","renounceOwnership()":"715018a6","safeTransferFrom(address,address,uint256)":"42842e0e","safeTransferFrom(address,address,uint256,bytes)":"b88d4fde","setApprovalForAll(address,bool)":"a22cb465","supportsInterface(bytes4)":"01ffc9a7","symbol()":"95d89b41","test()":"f8a8fd6d","tokenURI(uint256)":"c87b56dd","totalSupply()":"18160ddd","transferFrom(address,address,uint256)":"23b872dd","transferNFT(address,uint256)":"94ab67fe","transferOwnership(address)":"f2fde38b","transferOwnershipNFT(address)":"2724d591","withdraw()":"3ccfd60b","withdrawRewards(uint256,uint256)":"52cb5133"}}}}}