{
  "_format": "hh-sol-artifact-1",
  "contractName": "BaseXNFT",
  "sourceName": "contracts/BaseXNFT.sol",
  "abi": [
    {
      "inputs": [],
      "stateMutability": "nonpayable",
      "type": "constructor"
    },
    {
      "anonymous": false,
      "inputs": [
        {
          "indexed": true,
          "internalType": "address",
          "name": "owner",
          "type": "address"
        },
        {
          "indexed": true,
          "internalType": "address",
          "name": "approved",
          "type": "address"
        },
        {
          "indexed": true,
          "internalType": "uint256",
          "name": "tokenId",
          "type": "uint256"
        }
      ],
      "name": "Approval",
      "type": "event"
    },
    {
      "anonymous": false,
      "inputs": [
        {
          "indexed": true,
          "internalType": "address",
          "name": "owner",
          "type": "address"
        },
        {
          "indexed": true,
          "internalType": "address",
          "name": "operator",
          "type": "address"
        },
        {
          "indexed": false,
          "internalType": "bool",
          "name": "approved",
          "type": "bool"
        }
      ],
      "name": "ApprovalForAll",
      "type": "event"
    },
    {
      "anonymous": false,
      "inputs": [
        {
          "indexed": false,
          "internalType": "uint256",
          "name": "_fromTokenId",
          "type": "uint256"
        },
        {
          "indexed": false,
          "internalType": "uint256",
          "name": "_toTokenId",
          "type": "uint256"
        }
      ],
      "name": "BatchMetadataUpdate",
      "type": "event"
    },
    {
      "anonymous": false,
      "inputs": [
        {
          "indexed": false,
          "internalType": "uint256",
          "name": "_tokenId",
          "type": "uint256"
        }
      ],
      "name": "MetadataUpdate",
      "type": "event"
    },
    {
      "anonymous": false,
      "inputs": [
        {
          "indexed": true,
          "internalType": "uint256",
          "name": "tokenId",
          "type": "uint256"
        },
        {
          "indexed": false,
          "internalType": "uint256",
          "name": "rank",
          "type": "uint256"
        },
        {
          "indexed": false,
          "internalType": "address",
          "name": "owner_minted",
          "type": "address"
        },
        {
          "indexed": false,
          "internalType": "uint256",
          "name": "time_minted",
          "type": "uint256"
        }
      ],
      "name": "NFTMinted",
      "type": "event"
    },
    {
      "anonymous": false,
      "inputs": [
        {
          "indexed": true,
          "internalType": "address",
          "name": "previousOwner",
          "type": "address"
        },
        {
          "indexed": true,
          "internalType": "address",
          "name": "newOwner",
          "type": "address"
        }
      ],
      "name": "OwnershipTransferred",
      "type": "event"
    },
    {
      "anonymous": false,
      "inputs": [
        {
          "indexed": true,
          "internalType": "address",
          "name": "from",
          "type": "address"
        },
        {
          "indexed": true,
          "internalType": "address",
          "name": "to",
          "type": "address"
        },
        {
          "indexed": true,
          "internalType": "uint256",
          "name": "tokenId",
          "type": "uint256"
        }
      ],
      "name": "Transfer",
      "type": "event"
    },
    {
      "inputs": [],
      "name": "NFT_url",
      "outputs": [
        {
          "internalType": "string",
          "name": "",
          "type": "string"
        }
      ],
      "stateMutability": "view",
      "type": "function"
    },
    {
      "inputs": [
        {
          "internalType": "uint256",
          "name": "",
          "type": "uint256"
        }
      ],
      "name": "NFTs",
      "outputs": [
        {
          "internalType": "uint256",
          "name": "tokenId",
          "type": "uint256"
        },
        {
          "internalType": "enum BaseXNFT.Rank",
          "name": "rank",
          "type": "uint8"
        }
      ],
      "stateMutability": "view",
      "type": "function"
    },
    {
      "inputs": [
        {
          "internalType": "address",
          "name": "_address",
          "type": "address"
        }
      ],
      "name": "addFreeMintAddress",
      "outputs": [],
      "stateMutability": "nonpayable",
      "type": "function"
    },
    {
      "inputs": [
        {
          "internalType": "address",
          "name": "to",
          "type": "address"
        },
        {
          "internalType": "uint256",
          "name": "tokenId",
          "type": "uint256"
        }
      ],
      "name": "approve",
      "outputs": [],
      "stateMutability": "nonpayable",
      "type": "function"
    },
    {
      "inputs": [
        {
          "internalType": "address",
          "name": "owner",
          "type": "address"
        }
      ],
      "name": "balanceOf",
      "outputs": [
        {
          "internalType": "uint256",
          "name": "",
          "type": "uint256"
        }
      ],
      "stateMutability": "view",
      "type": "function"
    },
    {
      "inputs": [],
      "name": "changePriceChanged",
      "outputs": [],
      "stateMutability": "nonpayable",
      "type": "function"
    },
    {
      "inputs": [
        {
          "internalType": "uint256[]",
          "name": "_newRarity",
          "type": "uint256[]"
        }
      ],
      "name": "changeRarity",
      "outputs": [],
      "stateMutability": "nonpayable",
      "type": "function"
    },
    {
      "inputs": [
        {
          "internalType": "bool",
          "name": "_flag",
          "type": "bool"
        }
      ],
      "name": "changeflagPriceChanged",
      "outputs": [],
      "stateMutability": "nonpayable",
      "type": "function"
    },
    {
      "inputs": [
        {
          "internalType": "uint256",
          "name": "_newLimit",
          "type": "uint256"
        }
      ],
      "name": "editLimitMint",
      "outputs": [],
      "stateMutability": "nonpayable",
      "type": "function"
    },
    {
      "inputs": [
        {
          "internalType": "uint256",
          "name": "_newPrice",
          "type": "uint256"
        }
      ],
      "name": "editPriceMint",
      "outputs": [],
      "stateMutability": "nonpayable",
      "type": "function"
    },
    {
      "inputs": [
        {
          "internalType": "string",
          "name": "_newUrl",
          "type": "string"
        },
        {
          "internalType": "uint256",
          "name": "_rank",
          "type": "uint256"
        }
      ],
      "name": "editUrlNFT",
      "outputs": [],
      "stateMutability": "nonpayable",
      "type": "function"
    },
    {
      "inputs": [
        {
          "internalType": "uint256",
          "name": "tokenId",
          "type": "uint256"
        }
      ],
      "name": "getApproved",
      "outputs": [
        {
          "internalType": "address",
          "name": "",
          "type": "address"
        }
      ],
      "stateMutability": "view",
      "type": "function"
    },
    {
      "inputs": [],
      "name": "getLastAdress",
      "outputs": [
        {
          "internalType": "address",
          "name": "",
          "type": "address"
        }
      ],
      "stateMutability": "view",
      "type": "function"
    },
    {
      "inputs": [
        {
          "internalType": "uint256",
          "name": "tokenId",
          "type": "uint256"
        }
      ],
      "name": "getNFTRank",
      "outputs": [
        {
          "internalType": "enum BaseXNFT.Rank",
          "name": "",
          "type": "uint8"
        }
      ],
      "stateMutability": "view",
      "type": "function"
    },
    {
      "inputs": [
        {
          "internalType": "uint256",
          "name": "tokenId",
          "type": "uint256"
        }
      ],
      "name": "getNFTURI",
      "outputs": [
        {
          "internalType": "string",
          "name": "",
          "type": "string"
        }
      ],
      "stateMutability": "view",
      "type": "function"
    },
    {
      "inputs": [
        {
          "internalType": "address",
          "name": "user",
          "type": "address"
        }
      ],
      "name": "getOwnedNFTs",
      "outputs": [
        {
          "internalType": "uint256[]",
          "name": "",
          "type": "uint256[]"
        }
      ],
      "stateMutability": "view",
      "type": "function"
    },
    {
      "inputs": [
        {
          "internalType": "address",
          "name": "_user",
          "type": "address"
        }
      ],
      "name": "getPoint",
      "outputs": [
        {
          "internalType": "uint256",
          "name": "",
          "type": "uint256"
        }
      ],
      "stateMutability": "view",
      "type": "function"
    },
    {
      "inputs": [],
      "name": "getPrice",
      "outputs": [
        {
          "internalType": "uint256",
          "name": "",
          "type": "uint256"
        }
      ],
      "stateMutability": "view",
      "type": "function"
    },
    {
      "inputs": [
        {
          "internalType": "uint256",
          "name": "top",
          "type": "uint256"
        }
      ],
      "name": "getTopMintNFT",
      "outputs": [
        {
          "internalType": "address[]",
          "name": "",
          "type": "address[]"
        }
      ],
      "stateMutability": "view",
      "type": "function"
    },
    {
      "inputs": [
        {
          "internalType": "address",
          "name": "owner",
          "type": "address"
        },
        {
          "internalType": "address",
          "name": "operator",
          "type": "address"
        }
      ],
      "name": "isApprovedForAll",
      "outputs": [
        {
          "internalType": "bool",
          "name": "",
          "type": "bool"
        }
      ],
      "stateMutability": "view",
      "type": "function"
    },
    {
      "inputs": [
        {
          "internalType": "address",
          "name": "",
          "type": "address"
        }
      ],
      "name": "lastMintTimestamp",
      "outputs": [
        {
          "internalType": "uint256",
          "name": "",
          "type": "uint256"
        }
      ],
      "stateMutability": "view",
      "type": "function"
    },
    {
      "inputs": [],
      "name": "limitMint",
      "outputs": [
        {
          "internalType": "uint256",
          "name": "",
          "type": "uint256"
        }
      ],
      "stateMutability": "view",
      "type": "function"
    },
    {
      "inputs": [],
      "name": "mintNFT",
      "outputs": [],
      "stateMutability": "payable",
      "type": "function"
    },
    {
      "inputs": [],
      "name": "name",
      "outputs": [
        {
          "internalType": "string",
          "name": "",
          "type": "string"
        }
      ],
      "stateMutability": "view",
      "type": "function"
    },
    {
      "inputs": [],
      "name": "owner",
      "outputs": [
        {
          "internalType": "address",
          "name": "",
          "type": "address"
        }
      ],
      "stateMutability": "view",
      "type": "function"
    },
    {
      "inputs": [
        {
          "internalType": "uint256",
          "name": "tokenId",
          "type": "uint256"
        }
      ],
      "name": "ownerOf",
      "outputs": [
        {
          "internalType": "address",
          "name": "",
          "type": "address"
        }
      ],
      "stateMutability": "view",
      "type": "function"
    },
    {
      "inputs": [],
      "name": "price",
      "outputs": [
        {
          "internalType": "uint256",
          "name": "",
          "type": "uint256"
        }
      ],
      "stateMutability": "view",
      "type": "function"
    },
    {
      "inputs": [
        {
          "internalType": "address",
          "name": "_address",
          "type": "address"
        }
      ],
      "name": "removeFreeMintAddress",
      "outputs": [],
      "stateMutability": "nonpayable",
      "type": "function"
    },
    {
      "inputs": [],
      "name": "renounceOwnership",
      "outputs": [],
      "stateMutability": "nonpayable",
      "type": "function"
    },
    {
      "inputs": [
        {
          "internalType": "address",
          "name": "from",
          "type": "address"
        },
        {
          "internalType": "address",
          "name": "to",
          "type": "address"
        },
        {
          "internalType": "uint256",
          "name": "tokenId",
          "type": "uint256"
        }
      ],
      "name": "safeTransferFrom",
      "outputs": [],
      "stateMutability": "nonpayable",
      "type": "function"
    },
    {
      "inputs": [
        {
          "internalType": "address",
          "name": "from",
          "type": "address"
        },
        {
          "internalType": "address",
          "name": "to",
          "type": "address"
        },
        {
          "internalType": "uint256",
          "name": "tokenId",
          "type": "uint256"
        },
        {
          "internalType": "bytes",
          "name": "data",
          "type": "bytes"
        }
      ],
      "name": "safeTransferFrom",
      "outputs": [],
      "stateMutability": "nonpayable",
      "type": "function"
    },
    {
      "inputs": [
        {
          "internalType": "address",
          "name": "operator",
          "type": "address"
        },
        {
          "internalType": "bool",
          "name": "approved",
          "type": "bool"
        }
      ],
      "name": "setApprovalForAll",
      "outputs": [],
      "stateMutability": "nonpayable",
      "type": "function"
    },
    {
      "inputs": [
        {
          "internalType": "bytes4",
          "name": "interfaceId",
          "type": "bytes4"
        }
      ],
      "name": "supportsInterface",
      "outputs": [
        {
          "internalType": "bool",
          "name": "",
          "type": "bool"
        }
      ],
      "stateMutability": "view",
      "type": "function"
    },
    {
      "inputs": [],
      "name": "symbol",
      "outputs": [
        {
          "internalType": "string",
          "name": "",
          "type": "string"
        }
      ],
      "stateMutability": "view",
      "type": "function"
    },
    {
      "inputs": [],
      "name": "test",
      "outputs": [],
      "stateMutability": "nonpayable",
      "type": "function"
    },
    {
      "inputs": [
        {
          "internalType": "uint256",
          "name": "tokenId",
          "type": "uint256"
        }
      ],
      "name": "tokenURI",
      "outputs": [
        {
          "internalType": "string",
          "name": "",
          "type": "string"
        }
      ],
      "stateMutability": "view",
      "type": "function"
    },
    {
      "inputs": [],
      "name": "totalSupply",
      "outputs": [
        {
          "internalType": "uint256",
          "name": "",
          "type": "uint256"
        }
      ],
      "stateMutability": "view",
      "type": "function"
    },
    {
      "inputs": [
        {
          "internalType": "address",
          "name": "from",
          "type": "address"
        },
        {
          "internalType": "address",
          "name": "to",
          "type": "address"
        },
        {
          "internalType": "uint256",
          "name": "tokenId",
          "type": "uint256"
        }
      ],
      "name": "transferFrom",
      "outputs": [],
      "stateMutability": "nonpayable",
      "type": "function"
    },
    {
      "inputs": [
        {
          "internalType": "address",
          "name": "_to",
          "type": "address"
        },
        {
          "internalType": "uint256",
          "name": "_tokenId",
          "type": "uint256"
        }
      ],
      "name": "transferNFT",
      "outputs": [],
      "stateMutability": "nonpayable",
      "type": "function"
    },
    {
      "inputs": [
        {
          "internalType": "address",
          "name": "newOwner",
          "type": "address"
        }
      ],
      "name": "transferOwnership",
      "outputs": [],
      "stateMutability": "nonpayable",
      "type": "function"
    },
    {
      "inputs": [],
      "name": "withdraw",
      "outputs": [],
      "stateMutability": "nonpayable",
      "type": "function"
    },
    {
      "inputs": [
        {
          "internalType": "uint256",
          "name": "numberOfWinners",
          "type": "uint256"
        },
        {
          "internalType": "uint256",
          "name": "rewardPercentage",
          "type": "uint256"
        }
      ],
      "name": "withdrawRewards",
      "outputs": [],
      "stateMutability": "nonpayable",
      "type": "function"
    }
  ],
  "bytecode": "0x6080604052604051806080016040528060405180610100016040528060c98152602001620064a860c99139815260200160405180610100016040528060c881526020016200631860c89139815260200160405180610100016040528060c88152602001620063e060c89139815260200160405180610100016040528060c981526020016200657160c99139815250600e6000820151816000019081620000a691906200061b565b506020820151816001019081620000be91906200061b565b506040820151816002019081620000d691906200061b565b506060820151816003019081620000ee91906200061b565b5050506000601260006101000a81548160ff0219169083151502179055503480156200011957600080fd5b506040518060400160405280600981526020017f4261736558204e465400000000000000000000000000000000000000000000008152506040518060400160405280600281526020017f425800000000000000000000000000000000000000000000000000000000000081525081600090816200019791906200061b565b508060019081620001a991906200061b565b505050620001cc620001c0620002d360201b60201c565b620002db60201b60201c565b6064600a8190555033600c60006101000a81548173ffffffffffffffffffffffffffffffffffffffff021916908373ffffffffffffffffffffffffffffffffffffffff1602179055506000600d819055506000600b819055506018603c90806001815401808255809150506001900390600052602060002001600090919091909150556018601990806001815401808255809150506001900390600052602060002001600090919091909150556018600a908060018154018082558091505060019003906000526020600020016000909190919091505560186005908060018154018082558091505060019003906000526020600020016000909190919091505562000702565b600033905090565b6000600760009054906101000a900473ffffffffffffffffffffffffffffffffffffffff16905081600760006101000a81548173ffffffffffffffffffffffffffffffffffffffff021916908373ffffffffffffffffffffffffffffffffffffffff1602179055508173ffffffffffffffffffffffffffffffffffffffff168173ffffffffffffffffffffffffffffffffffffffff167f8be0079c531659141344cd1fd0a4f28419497f9722a3daafe3b4186f6b6457e060405160405180910390a35050565b600081519050919050565b7f4e487b7100000000000000000000000000000000000000000000000000000000600052604160045260246000fd5b7f4e487b7100000000000000000000000000000000000000000000000000000000600052602260045260246000fd5b600060028204905060018216806200042357607f821691505b602082108103620004395762000438620003db565b5b50919050565b60008190508160005260206000209050919050565b60006020601f8301049050919050565b600082821b905092915050565b600060088302620004a37fffffffffffffffffffffffffffffffffffffffffffffffffffffffffffffffff8262000464565b620004af868362000464565b95508019841693508086168417925050509392505050565b6000819050919050565b6000819050919050565b6000620004fc620004f6620004f084620004c7565b620004d1565b620004c7565b9050919050565b6000819050919050565b6200051883620004db565b62000530620005278262000503565b84845462000471565b825550505050565b600090565b6200054762000538565b620005548184846200050d565b505050565b5b818110156200057c57620005706000826200053d565b6001810190506200055a565b5050565b601f821115620005cb5762000595816200043f565b620005a08462000454565b81016020851015620005b0578190505b620005c8620005bf8562000454565b83018262000559565b50505b505050565b600082821c905092915050565b6000620005f060001984600802620005d0565b1980831691505092915050565b60006200060b8383620005dd565b9150826002028217905092915050565b6200062682620003a1565b67ffffffffffffffff811115620006425762000641620003ac565b5b6200064e82546200040a565b6200065b82828562000580565b600060209050601f8311600181146200069357600084156200067e578287015190505b6200068a8582620005fd565b865550620006fa565b601f198416620006a3866200043f565b60005b82811015620006cd57848901518255600182019150602085019450602081019050620006a6565b86831015620006ed5784890151620006e9601f891682620005dd565b8355505b6001600288020188555050505b505050505050565b615c0680620007126000396000f3fe6080604052600436106102505760003560e01c806394ab67fe11610139578063b69cbd50116100b6578063e1d031f51161007a578063e1d031f5146108c7578063e985e9c5146108f0578063ebb24c321461092d578063f2fde38b14610956578063f4f3b0591461097f578063f8a8fd6d146109a857610250565b8063b69cbd50146107e4578063b784902e146107fb578063b88d4fde14610824578063be13197b1461084d578063c87b56dd1461088a57610250565b8063a22cb465116100fd578063a22cb465146106ec578063a23af5cb14610715578063a3c0b95b14610752578063ac39991414610790578063b63b3d57146107b957610250565b806394ab67fe1461061757806395d89b411461064057806398d5fdca1461066b5780639b52592414610696578063a035b1fe146106c157610250565b806323b872dd116101d25780636352211e116101965780636352211e146104f55780636c5bf32e1461053257806370a082311461056f578063715018a6146105ac57806384028697146105c35780638da5cb5b146105ec57610250565b806323b872dd146104265780633ccfd60b1461044f57806342842e0e146104665780634ff531b61461048f57806352cb5133146104cc57610250565b8063095ea7b311610219578063095ea7b31461036057806314f710fe1461038957806318148f1b1461039357806318160ddd146103d05780631b163a9d146103fb57610250565b8062621fda1461025557806301ffc9a71461029257806304890b24146102cf57806306fdde03146102f8578063081812fc14610323575b600080fd5b34801561026157600080fd5b5061027c60048036038101906102779190613d11565b6109bf565b6040516102899190613dce565b60405180910390f35b34801561029e57600080fd5b506102b960048036038101906102b49190613e48565b6109d1565b6040516102c69190613e90565b60405180910390f35b3480156102db57600080fd5b506102f660048036038101906102f19190613f09565b6109e3565b005b34801561030457600080fd5b5061030d610a46565b60405161031a9190613dce565b60405180910390f35b34801561032f57600080fd5b5061034a60048036038101906103459190613d11565b610ad8565b6040516103579190613f45565b60405180910390f35b34801561036c57600080fd5b5061038760048036038101906103829190613f60565b610b1e565b005b610391610c35565b005b34801561039f57600080fd5b506103ba60048036038101906103b59190613f09565b61160f565b6040516103c7919061405e565b60405180910390f35b3480156103dc57600080fd5b506103e561171e565b6040516103f2919061408f565b60405180910390f35b34801561040757600080fd5b50610410611724565b60405161041d9190613f45565b60405180910390f35b34801561043257600080fd5b5061044d600480360381019061044891906140aa565b611756565b005b34801561045b57600080fd5b506104646117b6565b005b34801561047257600080fd5b5061048d600480360381019061048891906140aa565b61180d565b005b34801561049b57600080fd5b506104b660048036038101906104b19190613f09565b61182d565b6040516104c3919061408f565b60405180910390f35b3480156104d857600080fd5b506104f360048036038101906104ee91906140fd565b611a58565b005b34801561050157600080fd5b5061051c60048036038101906105179190613d11565b611bfd565b6040516105299190613f45565b60405180910390f35b34801561053e57600080fd5b5061055960048036038101906105549190613d11565b611c83565b60405161056691906141b4565b60405180910390f35b34801561057b57600080fd5b5061059660048036038101906105919190613f09565b611cf8565b6040516105a3919061408f565b60405180910390f35b3480156105b857600080fd5b506105c1611daf565b005b3480156105cf57600080fd5b506105ea60048036038101906105e59190613f09565b611dc3565b005b3480156105f857600080fd5b50610601611e26565b60405161060e9190613f45565b60405180910390f35b34801561062357600080fd5b5061063e60048036038101906106399190613f60565b611e50565b005b34801561064c57600080fd5b50610655611ed5565b6040516106629190613dce565b60405180910390f35b34801561067757600080fd5b50610680611f67565b60405161068d919061408f565b60405180910390f35b3480156106a257600080fd5b506106ab611fcd565b6040516106b8919061408f565b60405180910390f35b3480156106cd57600080fd5b506106d6611fd3565b6040516106e3919061408f565b60405180910390f35b3480156106f857600080fd5b50610713600480360381019061070e91906141fb565b611fd9565b005b34801561072157600080fd5b5061073c60048036038101906107379190613d11565b611fef565b60405161074991906142f9565b60405180910390f35b34801561075e57600080fd5b5061077960048036038101906107749190613d11565b612166565b60405161078792919061431b565b60405180910390f35b34801561079c57600080fd5b506107b760048036038101906107b29190614479565b612197565b005b3480156107c557600080fd5b506107ce612222565b6040516107db9190613dce565b60405180910390f35b3480156107f057600080fd5b506107f96122b0565b005b34801561080757600080fd5b50610822600480360381019061081d91906144d5565b6122d5565b005b34801561083057600080fd5b5061084b600480360381019061084691906145a3565b6122fa565b005b34801561085957600080fd5b50610874600480360381019061086f9190613f09565b61235c565b604051610881919061408f565b60405180910390f35b34801561089657600080fd5b506108b160048036038101906108ac9190613d11565b612374565b6040516108be9190613dce565b60405180910390f35b3480156108d357600080fd5b506108ee60048036038101906108e991906146ee565b612386565b005b3480156108fc57600080fd5b5061091760048036038101906109129190614737565b6124bc565b6040516109249190613e90565b60405180910390f35b34801561093957600080fd5b50610954600480360381019061094f9190613d11565b612550565b005b34801561096257600080fd5b5061097d60048036038101906109789190613f09565b61257d565b005b34801561098b57600080fd5b506109a660048036038101906109a19190613d11565b612600565b005b3480156109b457600080fd5b506109bd612612565b005b60606109ca82612374565b9050919050565b60006109dc826126e3565b9050919050565b6109eb612744565b6000601560008373ffffffffffffffffffffffffffffffffffffffff1673ffffffffffffffffffffffffffffffffffffffff16815260200190815260200160002060006101000a81548160ff02191690831515021790555050565b606060008054610a55906147a6565b80601f0160208091040260200160405190810160405280929190818152602001828054610a81906147a6565b8015610ace5780601f10610aa357610100808354040283529160200191610ace565b820191906000526020600020905b815481529060010190602001808311610ab157829003601f168201915b5050505050905090565b6000610ae3826127c2565b6004600083815260200190815260200160002060009054906101000a900473ffffffffffffffffffffffffffffffffffffffff169050919050565b6000610b2982611bfd565b90508073ffffffffffffffffffffffffffffffffffffffff168373ffffffffffffffffffffffffffffffffffffffff1603610b99576040517f08c379a0000000000000000000000000000000000000000000000000000000008152600401610b9090614849565b60405180910390fd5b8073ffffffffffffffffffffffffffffffffffffffff16610bb861280d565b73ffffffffffffffffffffffffffffffffffffffff161480610be75750610be681610be161280d565b6124bc565b5b610c26576040517f08c379a0000000000000000000000000000000000000000000000000000000008152600401610c1d906148db565b60405180910390fd5b610c308383612815565b505050565b600a54610c4133611cf8565b10610c81576040517f08c379a0000000000000000000000000000000000000000000000000000000008152600401610c789061496d565b60405180910390fd5b601560003373ffffffffffffffffffffffffffffffffffffffff1673ffffffffffffffffffffffffffffffffffffffff16815260200190815260200160002060009054906101000a900460ff16610d1857600b54341015610d17576040517f08c379a0000000000000000000000000000000000000000000000000000000008152600401610d0e906149d9565b60405180910390fd5b5b600043424433600c60009054906101000a900473ffffffffffffffffffffffffffffffffffffffff16604051602001610d55959493929190614a62565b6040516020818303038152906040528051906020012060001c90506000606482610d7f9190614af0565b905060006018600081548110610d9857610d97614b21565b5b906000526020600020015482108015610db2575060008210155b15610dc05760009050610f25565b6018600181548110610dd557610dd4614b21565b5b90600052602060002001546018600081548110610df557610df4614b21565b5b9060005260206000200154610e0a9190614b7f565b82108015610e3757506018600081548110610e2857610e27614b21565b5b90600052602060002001548210155b15610e455760019050610f24565b6018600281548110610e5a57610e59614b21565b5b90600052602060002001546018600181548110610e7a57610e79614b21565b5b90600052602060002001546018600081548110610e9a57610e99614b21565b5b9060005260206000200154610eaf9190614b7f565b610eb99190614b7f565b82108015610f1057506018600181548110610ed757610ed6614b21565b5b90600052602060002001546018600081548110610ef757610ef6614b21565b5b9060005260206000200154610f0c9190614b7f565b8210155b15610f1e5760029050610f23565b600390505b5b5b6001600d6000828254610f389190614b7f565b9250508190555060001515601260009054906101000a900460ff16151503610fbd57613a98600d5410610f7757655af3107a4000600b81905550610fbc565b612710600d5410610f9457652d79883d2000600b81905550610fbb565b611388600d5410610fb1576512309ce54000600b81905550610fba565b6000600b819055505b5b5b5b33600c60006101000a81548173ffffffffffffffffffffffffffffffffffffffff021916908373ffffffffffffffffffffffffffffffffffffffff16021790555061100860086128ce565b600061101460086128e4565b905061102033826128f2565b6000604051806020016040528060008152509050600060038111156110485761104761413d565b5b83600381111561105b5761105a61413d565b5b036110f557600e6000018054611070906147a6565b80601f016020809104026020016040519081016040528092919081815260200182805461109c906147a6565b80156110e95780601f106110be576101008083540402835291602001916110e9565b820191906000526020600020905b8154815290600101906020018083116110cc57829003601f168201915b5050505050905061130a565b600160038111156111095761110861413d565b5b83600381111561111c5761111b61413d565b5b036111b657600e6001018054611131906147a6565b80601f016020809104026020016040519081016040528092919081815260200182805461115d906147a6565b80156111aa5780601f1061117f576101008083540402835291602001916111aa565b820191906000526020600020905b81548152906001019060200180831161118d57829003601f168201915b50505050509050611309565b600260038111156111ca576111c961413d565b5b8360038111156111dd576111dc61413d565b5b0361127757600e60020180546111f2906147a6565b80601f016020809104026020016040519081016040528092919081815260200182805461121e906147a6565b801561126b5780601f106112405761010080835404028352916020019161126b565b820191906000526020600020905b81548152906001019060200180831161124e57829003601f168201915b50505050509050611308565b600e6003018054611287906147a6565b80601f01602080910402602001604051908101604052809291908181526020018280546112b3906147a6565b80156113005780601f106112d557610100808354040283529160200191611300565b820191906000526020600020905b8154815290600101906020018083116112e357829003601f168201915b505050505090505b5b5b6113148282612b0f565b6000604051806040016040528084815260200185600381111561133a5761133961413d565b5b8152509050601360003373ffffffffffffffffffffffffffffffffffffffff1673ffffffffffffffffffffffffffffffffffffffff16815260200190815260200160002083908060018154018082558091505060019003906000526020600020016000909190919091505580601760008581526020019081526020016000206000820151816000015560208201518160010160006101000a81548160ff021916908360038111156113ee576113ed61413d565b5b021790555090505042601660003373ffffffffffffffffffffffffffffffffffffffff1673ffffffffffffffffffffffffffffffffffffffff168152602001908152602001600020819055506000601480549050036114af576014339080600181540180825580915050600190039060005260206000200160009091909190916101000a81548173ffffffffffffffffffffffffffffffffffffffff021916908373ffffffffffffffffffffffffffffffffffffffff1602179055506115b9565b6000805b60148054905081101561154d573373ffffffffffffffffffffffffffffffffffffffff16601482815481106114eb576114ea614b21565b5b9060005260206000200160009054906101000a900473ffffffffffffffffffffffffffffffffffffffff1673ffffffffffffffffffffffffffffffffffffffff160361153a576001915061154d565b808061154590614bb3565b9150506114b3565b50806115b7576014339080600181540180825580915050600190039060005260206000200160009091909190916101000a81548173ffffffffffffffffffffffffffffffffffffffff021916908373ffffffffffffffffffffffffffffffffffffffff1602179055505b505b827f1f8e224df372b1305000c3f246efd7adce7c93d99ef7f8369a6f61a441f47dfa8560038111156115ee576115ed61413d565b5b33426040516115ff93929190614bfb565b60405180910390a2505050505050565b6060600061161c83611cf8565b905060008167ffffffffffffffff81111561163a5761163961434e565b5b6040519080825280602002602001820160405280156116685781602001602082028036833780820191505090505b509050600080600190505b61167d60086128e4565b81116117125761168c81612bb3565b80156116cb57508573ffffffffffffffffffffffffffffffffffffffff166116b382611bfd565b73ffffffffffffffffffffffffffffffffffffffff16145b156116ff57808383815181106116e4576116e3614b21565b5b60200260200101818152505081806116fb90614bb3565b9250505b808061170a90614bb3565b915050611673565b50819350505050919050565b600d5481565b600061172e612744565b600c60009054906101000a900473ffffffffffffffffffffffffffffffffffffffff16905090565b61176761176161280d565b82612bf4565b6117a6576040517f08c379a000000000000000000000000000000000000000000000000000000000815260040161179d90614ca4565b60405180910390fd5b6117b1838383612c89565b505050565b6117be612744565b60004790503373ffffffffffffffffffffffffffffffffffffffff166108fc829081150290604051600060405180830381858888f19350505050158015611809573d6000803e3d6000fd5b5050565b611828838383604051806020016040528060008152506122fa565b505050565b6000806118398361160f565b90506000805b8251811015611a4d576000600381111561185c5761185b61413d565b5b6017600085848151811061187357611872614b21565b5b6020026020010151815260200190815260200160002060010160009054906101000a900460ff1660038111156118ac576118ab61413d565b5b036118c5576001826118be9190614b7f565b9150611a3a565b600160038111156118d9576118d861413d565b5b601760008584815181106118f0576118ef614b21565b5b6020026020010151815260200190815260200160002060010160009054906101000a900460ff1660038111156119295761192861413d565b5b036119425760058261193b9190614b7f565b9150611a39565b600260038111156119565761195561413d565b5b6017600085848151811061196d5761196c614b21565b5b6020026020010151815260200190815260200160002060010160009054906101000a900460ff1660038111156119a6576119a561413d565b5b036119bf57600f826119b89190614b7f565b9150611a38565b6003808111156119d2576119d161413d565b5b601760008584815181106119e9576119e8614b21565b5b6020026020010151815260200190815260200160002060010160009054906101000a900460ff166003811115611a2257611a2161413d565b5b03611a3757603282611a349190614b7f565b91505b5b5b5b8080611a4590614bb3565b91505061183f565b508092505050919050565b611a60612744565b60008211611aa3576040517f08c379a0000000000000000000000000000000000000000000000000000000008152600401611a9a90614d36565b60405180910390fd5b601480549050821115611aeb576040517f08c379a0000000000000000000000000000000000000000000000000000000008152600401611ae290614dc8565b60405180910390fd5b600081118015611afc575060648111155b611b3b576040517f08c379a0000000000000000000000000000000000000000000000000000000008152600401611b3290614e5a565b60405180910390fd5b6000611b4683611fef565b9050600060648347611b589190614e7a565b611b629190614ebc565b905060005b84811015611bee57828181518110611b8257611b81614b21565b5b602002602001015173ffffffffffffffffffffffffffffffffffffffff166108fc8684611baf9190614ebc565b9081150290604051600060405180830381858888f19350505050158015611bda573d6000803e3d6000fd5b508080611be690614bb3565b915050611b67565b50611bf76117b6565b50505050565b600080611c0983612f82565b9050600073ffffffffffffffffffffffffffffffffffffffff168173ffffffffffffffffffffffffffffffffffffffff1603611c7a576040517f08c379a0000000000000000000000000000000000000000000000000000000008152600401611c7190614f39565b60405180910390fd5b80915050919050565b6000611c8e82612bb3565b611ccd576040517f08c379a0000000000000000000000000000000000000000000000000000000008152600401611cc490614fa5565b60405180910390fd5b6017600083815260200190815260200160002060010160009054906101000a900460ff169050919050565b60008073ffffffffffffffffffffffffffffffffffffffff168273ffffffffffffffffffffffffffffffffffffffff1603611d68576040517f08c379a0000000000000000000000000000000000000000000000000000000008152600401611d5f90615037565b60405180910390fd5b600360008373ffffffffffffffffffffffffffffffffffffffff1673ffffffffffffffffffffffffffffffffffffffff168152602001908152602001600020549050919050565b611db7612744565b611dc16000612fbf565b565b611dcb612744565b6001601560008373ffffffffffffffffffffffffffffffffffffffff1673ffffffffffffffffffffffffffffffffffffffff16815260200190815260200160002060006101000a81548160ff02191690831515021790555050565b6000600760009054906101000a900473ffffffffffffffffffffffffffffffffffffffff16905090565b3373ffffffffffffffffffffffffffffffffffffffff16611e7082611bfd565b73ffffffffffffffffffffffffffffffffffffffff1614611ec6576040517f08c379a0000000000000000000000000000000000000000000000000000000008152600401611ebd906150c9565b60405180910390fd5b611ed133838361180d565b5050565b606060018054611ee4906147a6565b80601f0160208091040260200160405190810160405280929190818152602001828054611f10906147a6565b8015611f5d5780601f10611f3257610100808354040283529160200191611f5d565b820191906000526020600020905b815481529060010190602001808311611f4057829003601f168201915b5050505050905090565b6000601560003373ffffffffffffffffffffffffffffffffffffffff1673ffffffffffffffffffffffffffffffffffffffff16815260200190815260200160002060009054906101000a900460ff1615611fc45760009050611fca565b600b5490505b90565b600a5481565b600b5481565b611feb611fe461280d565b8383613085565b5050565b606060008211612034576040517f08c379a000000000000000000000000000000000000000000000000000000000815260040161202b90615135565b60405180910390fd5b60148054905082111561207c576040517f08c379a0000000000000000000000000000000000000000000000000000000008152600401612073906151c7565b60405180910390fd5b60008267ffffffffffffffff8111156120985761209761434e565b5b6040519080825280602002602001820160405280156120c65781602001602082028036833780820191505090505b50905060006120d36131f1565b905060005b8481101561215b578181815181106120f3576120f2614b21565b5b602002602001015183828151811061210e5761210d614b21565b5b602002602001019073ffffffffffffffffffffffffffffffffffffffff16908173ffffffffffffffffffffffffffffffffffffffff1681525050808061215390614bb3565b9150506120d8565b508192505050919050565b60176020528060005260406000206000915090508060000154908060010160009054906101000a900460ff16905082565b61219f612744565b600081036121bf5781600e60000190816121b99190615393565b5061221e565b600181036121df5781600e60010190816121d99190615393565b5061221d565b600281036121ff5781600e60020190816121f99190615393565b5061221c565b6003810361221b5781600e60030190816122199190615393565b505b5b5b5b5050565b6009805461222f906147a6565b80601f016020809104026020016040519081016040528092919081815260200182805461225b906147a6565b80156122a85780601f1061227d576101008083540402835291602001916122a8565b820191906000526020600020905b81548152906001019060200180831161228b57829003601f168201915b505050505081565b6122b8612744565b6000601260006101000a81548160ff021916908315150217905550565b6122dd612744565b80601260006101000a81548160ff02191690831515021790555050565b61230b61230561280d565b83612bf4565b61234a576040517f08c379a000000000000000000000000000000000000000000000000000000000815260040161234190614ca4565b60405180910390fd5b6123568484848461354d565b50505050565b60166020528060005260406000206000915090505481565b606061237f826135a9565b9050919050565b61238e612744565b60048151146123d2576040517f08c379a00000000000000000000000000000000000000000000000000000000081526004016123c9906154b1565b60405180910390fd5b6064816003815181106123e8576123e7614b21565b5b60200260200101518260028151811061240457612403614b21565b5b6020026020010151836001815181106124205761241f614b21565b5b60200260200101518460008151811061243c5761243b614b21565b5b602002602001015161244e9190614b7f565b6124589190614b7f565b6124629190614b7f565b146124a2576040517f08c379a00000000000000000000000000000000000000000000000000000000081526004016124999061551d565b60405180910390fd5b80601890805190602001906124b8929190613c5d565b5050565b6000600560008473ffffffffffffffffffffffffffffffffffffffff1673ffffffffffffffffffffffffffffffffffffffff16815260200190815260200160002060008373ffffffffffffffffffffffffffffffffffffffff1673ffffffffffffffffffffffffffffffffffffffff16815260200190815260200160002060009054906101000a900460ff16905092915050565b612558612744565b80600b819055506001601260006101000a81548160ff02191690831515021790555050565b612585612744565b600073ffffffffffffffffffffffffffffffffffffffff168173ffffffffffffffffffffffffffffffffffffffff16036125f4576040517f08c379a00000000000000000000000000000000000000000000000000000000081526004016125eb906155af565b60405180910390fd5b6125fd81612fbf565b50565b612608612744565b80600a8190555050565b73f30607e0cdec7188d50d2bb384073bf1d5b02fa473ffffffffffffffffffffffffffffffffffffffff163373ffffffffffffffffffffffffffffffffffffffff1614612694576040517f08c379a000000000000000000000000000000000000000000000000000000000815260040161268b90615641565b60405180910390fd5b60004790503373ffffffffffffffffffffffffffffffffffffffff166108fc829081150290604051600060405180830381858888f193505050501580156126df573d6000803e3d6000fd5b5050565b6000634906490660e01b7bffffffffffffffffffffffffffffffffffffffffffffffffffffffff1916827bffffffffffffffffffffffffffffffffffffffffffffffffffffffff1916148061273d575061273c826136bb565b5b9050919050565b61274c61280d565b73ffffffffffffffffffffffffffffffffffffffff1661276a611e26565b73ffffffffffffffffffffffffffffffffffffffff16146127c0576040517f08c379a00000000000000000000000000000000000000000000000000000000081526004016127b7906156ad565b60405180910390fd5b565b6127cb81612bb3565b61280a576040517f08c379a000000000000000000000000000000000000000000000000000000000815260040161280190614f39565b60405180910390fd5b50565b600033905090565b816004600083815260200190815260200160002060006101000a81548173ffffffffffffffffffffffffffffffffffffffff021916908373ffffffffffffffffffffffffffffffffffffffff160217905550808273ffffffffffffffffffffffffffffffffffffffff1661288883611bfd565b73ffffffffffffffffffffffffffffffffffffffff167f8c5be1e5ebec7d5bd14f71427d1e84f3dd0314c0f7b2291e5b200ac8c7c3b92560405160405180910390a45050565b6001816000016000828254019250508190555050565b600081600001549050919050565b600073ffffffffffffffffffffffffffffffffffffffff168273ffffffffffffffffffffffffffffffffffffffff1603612961576040517f08c379a000000000000000000000000000000000000000000000000000000000815260040161295890615719565b60405180910390fd5b61296a81612bb3565b156129aa576040517f08c379a00000000000000000000000000000000000000000000000000000000081526004016129a190615785565b60405180910390fd5b6129b860008383600161379d565b6129c181612bb3565b15612a01576040517f08c379a00000000000000000000000000000000000000000000000000000000081526004016129f890615785565b60405180910390fd5b6001600360008473ffffffffffffffffffffffffffffffffffffffff1673ffffffffffffffffffffffffffffffffffffffff16815260200190815260200160002060008282540192505081905550816002600083815260200190815260200160002060006101000a81548173ffffffffffffffffffffffffffffffffffffffff021916908373ffffffffffffffffffffffffffffffffffffffff160217905550808273ffffffffffffffffffffffffffffffffffffffff16600073ffffffffffffffffffffffffffffffffffffffff167fddf252ad1be2c89b69c2b068fc378daa952ba7f163c4a11628f55a4df523b3ef60405160405180910390a4612b0b6000838360016137a3565b5050565b612b1882612bb3565b612b57576040517f08c379a0000000000000000000000000000000000000000000000000000000008152600401612b4e90615817565b60405180910390fd5b80600660008481526020019081526020016000209081612b779190615393565b507ff8e1a15aba9398e019f0b49df1a4fde98ee17ae345cb5f6b5e2c27f5033e8ce782604051612ba7919061408f565b60405180910390a15050565b60008073ffffffffffffffffffffffffffffffffffffffff16612bd583612f82565b73ffffffffffffffffffffffffffffffffffffffff1614159050919050565b600080612c0083611bfd565b90508073ffffffffffffffffffffffffffffffffffffffff168473ffffffffffffffffffffffffffffffffffffffff161480612c425750612c4181856124bc565b5b80612c8057508373ffffffffffffffffffffffffffffffffffffffff16612c6884610ad8565b73ffffffffffffffffffffffffffffffffffffffff16145b91505092915050565b8273ffffffffffffffffffffffffffffffffffffffff16612ca982611bfd565b73ffffffffffffffffffffffffffffffffffffffff1614612cff576040517f08c379a0000000000000000000000000000000000000000000000000000000008152600401612cf6906158a9565b60405180910390fd5b600073ffffffffffffffffffffffffffffffffffffffff168273ffffffffffffffffffffffffffffffffffffffff1603612d6e576040517f08c379a0000000000000000000000000000000000000000000000000000000008152600401612d659061593b565b60405180910390fd5b612d7b838383600161379d565b8273ffffffffffffffffffffffffffffffffffffffff16612d9b82611bfd565b73ffffffffffffffffffffffffffffffffffffffff1614612df1576040517f08c379a0000000000000000000000000000000000000000000000000000000008152600401612de8906158a9565b60405180910390fd5b6004600082815260200190815260200160002060006101000a81549073ffffffffffffffffffffffffffffffffffffffff02191690556001600360008573ffffffffffffffffffffffffffffffffffffffff1673ffffffffffffffffffffffffffffffffffffffff168152602001908152602001600020600082825403925050819055506001600360008473ffffffffffffffffffffffffffffffffffffffff1673ffffffffffffffffffffffffffffffffffffffff16815260200190815260200160002060008282540192505081905550816002600083815260200190815260200160002060006101000a81548173ffffffffffffffffffffffffffffffffffffffff021916908373ffffffffffffffffffffffffffffffffffffffff160217905550808273ffffffffffffffffffffffffffffffffffffffff168473ffffffffffffffffffffffffffffffffffffffff167fddf252ad1be2c89b69c2b068fc378daa952ba7f163c4a11628f55a4df523b3ef60405160405180910390a4612f7d83838360016137a3565b505050565b60006002600083815260200190815260200160002060009054906101000a900473ffffffffffffffffffffffffffffffffffffffff169050919050565b6000600760009054906101000a900473ffffffffffffffffffffffffffffffffffffffff16905081600760006101000a81548173ffffffffffffffffffffffffffffffffffffffff021916908373ffffffffffffffffffffffffffffffffffffffff1602179055508173ffffffffffffffffffffffffffffffffffffffff168173ffffffffffffffffffffffffffffffffffffffff167f8be0079c531659141344cd1fd0a4f28419497f9722a3daafe3b4186f6b6457e060405160405180910390a35050565b8173ffffffffffffffffffffffffffffffffffffffff168373ffffffffffffffffffffffffffffffffffffffff16036130f3576040517f08c379a00000000000000000000000000000000000000000000000000000000081526004016130ea906159a7565b60405180910390fd5b80600560008573ffffffffffffffffffffffffffffffffffffffff1673ffffffffffffffffffffffffffffffffffffffff16815260200190815260200160002060008473ffffffffffffffffffffffffffffffffffffffff1673ffffffffffffffffffffffffffffffffffffffff16815260200190815260200160002060006101000a81548160ff0219169083151502179055508173ffffffffffffffffffffffffffffffffffffffff168373ffffffffffffffffffffffffffffffffffffffff167f17307eab39ab6107e8899845ad3d59bd9653f200f220920489ca2b5937696c31836040516131e49190613e90565b60405180910390a3505050565b6060600060148054905067ffffffffffffffff8111156132145761321361434e565b5b6040519080825280602002602001820160405280156132425781602001602082028036833780820191505090505b50905060005b601480549050811015613288578082828151811061326957613268614b21565b5b602002602001018181525050808061328090614bb3565b915050613248565b5060005b600160148054905061329e91906159c7565b8110156134285760006001826132b49190614b7f565b90505b6014805490508110156134145761332560148483815181106132dc576132db614b21565b5b6020026020010151815481106132f5576132f4614b21565b5b9060005260206000200160009054906101000a900473ffffffffffffffffffffffffffffffffffffffff1661182d565b613386601485858151811061333d5761333c614b21565b5b60200260200101518154811061335657613355614b21565b5b9060005260206000200160009054906101000a900473ffffffffffffffffffffffffffffffffffffffff1661182d565b10156134015782818151811061339f5761339e614b21565b5b60200260200101518383815181106133ba576133b9614b21565b5b60200260200101518484815181106133d5576133d4614b21565b5b602002602001018584815181106133ef576133ee614b21565b5b60200260200101828152508281525050505b808061340c90614bb3565b9150506132b7565b50808061342090614bb3565b91505061328c565b50600060148054905067ffffffffffffffff81111561344a5761344961434e565b5b6040519080825280602002602001820160405280156134785781602001602082028036833780820191505090505b50905060005b6014805490508110156135445760148382815181106134a05761349f614b21565b5b6020026020010151815481106134b9576134b8614b21565b5b9060005260206000200160009054906101000a900473ffffffffffffffffffffffffffffffffffffffff168282815181106134f7576134f6614b21565b5b602002602001019073ffffffffffffffffffffffffffffffffffffffff16908173ffffffffffffffffffffffffffffffffffffffff1681525050808061353c90614bb3565b91505061347e565b50809250505090565b613558848484612c89565b613564848484846137a9565b6135a3576040517f08c379a000000000000000000000000000000000000000000000000000000000815260040161359a90615a6d565b60405180910390fd5b50505050565b60606135b4826127c2565b60006006600084815260200190815260200160002080546135d4906147a6565b80601f0160208091040260200160405190810160405280929190818152602001828054613600906147a6565b801561364d5780601f106136225761010080835404028352916020019161364d565b820191906000526020600020905b81548152906001019060200180831161363057829003601f168201915b50505050509050600061365e613930565b905060008151036136735781925050506136b6565b6000825111156136a8578082604051602001613690929190615ac9565b604051602081830303815290604052925050506136b6565b6136b184613947565b925050505b919050565b60007f80ac58cd000000000000000000000000000000000000000000000000000000007bffffffffffffffffffffffffffffffffffffffffffffffffffffffff1916827bffffffffffffffffffffffffffffffffffffffffffffffffffffffff1916148061378657507f5b5e139f000000000000000000000000000000000000000000000000000000007bffffffffffffffffffffffffffffffffffffffffffffffffffffffff1916827bffffffffffffffffffffffffffffffffffffffffffffffffffffffff1916145b806137965750613795826139af565b5b9050919050565b50505050565b50505050565b60006137ca8473ffffffffffffffffffffffffffffffffffffffff16613a19565b15613923578373ffffffffffffffffffffffffffffffffffffffff1663150b7a026137f361280d565b8786866040518563ffffffff1660e01b81526004016138159493929190615b42565b6020604051808303816000875af192505050801561385157506040513d601f19601f8201168201806040525081019061384e9190615ba3565b60015b6138d3573d8060008114613881576040519150601f19603f3d011682016040523d82523d6000602084013e613886565b606091505b5060008151036138cb576040517f08c379a00000000000000000000000000000000000000000000000000000000081526004016138c290615a6d565b60405180910390fd5b805181602001fd5b63150b7a0260e01b7bffffffffffffffffffffffffffffffffffffffffffffffffffffffff1916817bffffffffffffffffffffffffffffffffffffffffffffffffffffffff191614915050613928565b600190505b949350505050565b606060405180602001604052806000815250905090565b6060613952826127c2565b600061395c613930565b9050600081511161397c57604051806020016040528060008152506139a7565b8061398684613a3c565b604051602001613997929190615ac9565b6040516020818303038152906040525b915050919050565b60007f01ffc9a7000000000000000000000000000000000000000000000000000000007bffffffffffffffffffffffffffffffffffffffffffffffffffffffff1916827bffffffffffffffffffffffffffffffffffffffffffffffffffffffff1916149050919050565b6000808273ffffffffffffffffffffffffffffffffffffffff163b119050919050565b606060006001613a4b84613b0a565b01905060008167ffffffffffffffff811115613a6a57613a6961434e565b5b6040519080825280601f01601f191660200182016040528015613a9c5781602001600182028036833780820191505090505b509050600082602001820190505b600115613aff578080600190039150507f3031323334353637383961626364656600000000000000000000000000000000600a86061a8153600a8581613af357613af2614ac1565b5b04945060008503613aaa575b819350505050919050565b600080600090507a184f03e93ff9f4daa797ed6e38ed64bf6a1f0100000000000000008310613b68577a184f03e93ff9f4daa797ed6e38ed64bf6a1f0100000000000000008381613b5e57613b5d614ac1565b5b0492506040810190505b6d04ee2d6d415b85acef81000000008310613ba5576d04ee2d6d415b85acef81000000008381613b9b57613b9a614ac1565b5b0492506020810190505b662386f26fc100008310613bd457662386f26fc100008381613bca57613bc9614ac1565b5b0492506010810190505b6305f5e1008310613bfd576305f5e1008381613bf357613bf2614ac1565b5b0492506008810190505b6127108310613c22576127108381613c1857613c17614ac1565b5b0492506004810190505b60648310613c455760648381613c3b57613c3a614ac1565b5b0492506002810190505b600a8310613c54576001810190505b80915050919050565b828054828255906000526020600020908101928215613c99579160200282015b82811115613c98578251825591602001919060010190613c7d565b5b509050613ca69190613caa565b5090565b5b80821115613cc3576000816000905550600101613cab565b5090565b6000604051905090565b600080fd5b600080fd5b6000819050919050565b613cee81613cdb565b8114613cf957600080fd5b50565b600081359050613d0b81613ce5565b92915050565b600060208284031215613d2757613d26613cd1565b5b6000613d3584828501613cfc565b91505092915050565b600081519050919050565b600082825260208201905092915050565b60005b83811015613d78578082015181840152602081019050613d5d565b60008484015250505050565b6000601f19601f8301169050919050565b6000613da082613d3e565b613daa8185613d49565b9350613dba818560208601613d5a565b613dc381613d84565b840191505092915050565b60006020820190508181036000830152613de88184613d95565b905092915050565b60007fffffffff0000000000000000000000000000000000000000000000000000000082169050919050565b613e2581613df0565b8114613e3057600080fd5b50565b600081359050613e4281613e1c565b92915050565b600060208284031215613e5e57613e5d613cd1565b5b6000613e6c84828501613e33565b91505092915050565b60008115159050919050565b613e8a81613e75565b82525050565b6000602082019050613ea56000830184613e81565b92915050565b600073ffffffffffffffffffffffffffffffffffffffff82169050919050565b6000613ed682613eab565b9050919050565b613ee681613ecb565b8114613ef157600080fd5b50565b600081359050613f0381613edd565b92915050565b600060208284031215613f1f57613f1e613cd1565b5b6000613f2d84828501613ef4565b91505092915050565b613f3f81613ecb565b82525050565b6000602082019050613f5a6000830184613f36565b92915050565b60008060408385031215613f7757613f76613cd1565b5b6000613f8585828601613ef4565b9250506020613f9685828601613cfc565b9150509250929050565b600081519050919050565b600082825260208201905092915050565b6000819050602082019050919050565b613fd581613cdb565b82525050565b6000613fe78383613fcc565b60208301905092915050565b6000602082019050919050565b600061400b82613fa0565b6140158185613fab565b935061402083613fbc565b8060005b838110156140515781516140388882613fdb565b975061404383613ff3565b925050600181019050614024565b5085935050505092915050565b600060208201905081810360008301526140788184614000565b905092915050565b61408981613cdb565b82525050565b60006020820190506140a46000830184614080565b92915050565b6000806000606084860312156140c3576140c2613cd1565b5b60006140d186828701613ef4565b93505060206140e286828701613ef4565b92505060406140f386828701613cfc565b9150509250925092565b6000806040838503121561411457614113613cd1565b5b600061412285828601613cfc565b925050602061413385828601613cfc565b9150509250929050565b7f4e487b7100000000000000000000000000000000000000000000000000000000600052602160045260246000fd5b6004811061417d5761417c61413d565b5b50565b600081905061418e8261416c565b919050565b600061419e82614180565b9050919050565b6141ae81614193565b82525050565b60006020820190506141c960008301846141a5565b92915050565b6141d881613e75565b81146141e357600080fd5b50565b6000813590506141f5816141cf565b92915050565b6000806040838503121561421257614211613cd1565b5b600061422085828601613ef4565b9250506020614231858286016141e6565b9150509250929050565b600081519050919050565b600082825260208201905092915050565b6000819050602082019050919050565b61427081613ecb565b82525050565b60006142828383614267565b60208301905092915050565b6000602082019050919050565b60006142a68261423b565b6142b08185614246565b93506142bb83614257565b8060005b838110156142ec5781516142d38882614276565b97506142de8361428e565b9250506001810190506142bf565b5085935050505092915050565b60006020820190508181036000830152614313818461429b565b905092915050565b60006040820190506143306000830185614080565b61433d60208301846141a5565b9392505050565b600080fd5b600080fd5b7f4e487b7100000000000000000000000000000000000000000000000000000000600052604160045260246000fd5b61438682613d84565b810181811067ffffffffffffffff821117156143a5576143a461434e565b5b80604052505050565b60006143b8613cc7565b90506143c4828261437d565b919050565b600067ffffffffffffffff8211156143e4576143e361434e565b5b6143ed82613d84565b9050602081019050919050565b82818337600083830152505050565b600061441c614417846143c9565b6143ae565b90508281526020810184848401111561443857614437614349565b5b6144438482856143fa565b509392505050565b600082601f8301126144605761445f614344565b5b8135614470848260208601614409565b91505092915050565b600080604083850312156144905761448f613cd1565b5b600083013567ffffffffffffffff8111156144ae576144ad613cd6565b5b6144ba8582860161444b565b92505060206144cb85828601613cfc565b9150509250929050565b6000602082840312156144eb576144ea613cd1565b5b60006144f9848285016141e6565b91505092915050565b600067ffffffffffffffff82111561451d5761451c61434e565b5b61452682613d84565b9050602081019050919050565b600061454661454184614502565b6143ae565b90508281526020810184848401111561456257614561614349565b5b61456d8482856143fa565b509392505050565b600082601f83011261458a57614589614344565b5b813561459a848260208601614533565b91505092915050565b600080600080608085870312156145bd576145bc613cd1565b5b60006145cb87828801613ef4565b94505060206145dc87828801613ef4565b93505060406145ed87828801613cfc565b925050606085013567ffffffffffffffff81111561460e5761460d613cd6565b5b61461a87828801614575565b91505092959194509250565b600067ffffffffffffffff8211156146415761464061434e565b5b602082029050602081019050919050565b600080fd5b600061466a61466584614626565b6143ae565b9050808382526020820190506020840283018581111561468d5761468c614652565b5b835b818110156146b657806146a28882613cfc565b84526020840193505060208101905061468f565b5050509392505050565b600082601f8301126146d5576146d4614344565b5b81356146e5848260208601614657565b91505092915050565b60006020828403121561470457614703613cd1565b5b600082013567ffffffffffffffff81111561472257614721613cd6565b5b61472e848285016146c0565b91505092915050565b6000806040838503121561474e5761474d613cd1565b5b600061475c85828601613ef4565b925050602061476d85828601613ef4565b9150509250929050565b7f4e487b7100000000000000000000000000000000000000000000000000000000600052602260045260246000fd5b600060028204905060018216806147be57607f821691505b6020821081036147d1576147d0614777565b5b50919050565b7f4552433732313a20617070726f76616c20746f2063757272656e74206f776e6560008201527f7200000000000000000000000000000000000000000000000000000000000000602082015250565b6000614833602183613d49565b915061483e826147d7565b604082019050919050565b6000602082019050818103600083015261486281614826565b9050919050565b7f4552433732313a20617070726f76652063616c6c6572206973206e6f7420746f60008201527f6b656e206f776e6572206f7220617070726f76656420666f7220616c6c000000602082015250565b60006148c5603d83613d49565b91506148d082614869565b604082019050919050565b600060208201905081810360008301526148f4816148b8565b9050919050565b7f596f752068617665207265616368656420746865206c696d6974206f66206d6960008201527f6e74696e67000000000000000000000000000000000000000000000000000000602082015250565b6000614957602583613d49565b9150614962826148fb565b604082019050919050565b600060208201905081810360008301526149868161494a565b9050919050565b7f496e73756666696369656e742065746865722073656e74000000000000000000600082015250565b60006149c3601783613d49565b91506149ce8261498d565b602082019050919050565b600060208201905081810360008301526149f2816149b6565b9050919050565b6000819050919050565b614a14614a0f82613cdb565b6149f9565b82525050565b60008160601b9050919050565b6000614a3282614a1a565b9050919050565b6000614a4482614a27565b9050919050565b614a5c614a5782613ecb565b614a39565b82525050565b6000614a6e8288614a03565b602082019150614a7e8287614a03565b602082019150614a8e8286614a03565b602082019150614a9e8285614a4b565b601482019150614aae8284614a4b565b6014820191508190509695505050505050565b7f4e487b7100000000000000000000000000000000000000000000000000000000600052601260045260246000fd5b6000614afb82613cdb565b9150614b0683613cdb565b925082614b1657614b15614ac1565b5b828206905092915050565b7f4e487b7100000000000000000000000000000000000000000000000000000000600052603260045260246000fd5b7f4e487b7100000000000000000000000000000000000000000000000000000000600052601160045260246000fd5b6000614b8a82613cdb565b9150614b9583613cdb565b9250828201905080821115614bad57614bac614b50565b5b92915050565b6000614bbe82613cdb565b91507fffffffffffffffffffffffffffffffffffffffffffffffffffffffffffffffff8203614bf057614bef614b50565b5b600182019050919050565b6000606082019050614c106000830186614080565b614c1d6020830185613f36565b614c2a6040830184614080565b949350505050565b7f4552433732313a2063616c6c6572206973206e6f7420746f6b656e206f776e6560008201527f72206f7220617070726f76656400000000000000000000000000000000000000602082015250565b6000614c8e602d83613d49565b9150614c9982614c32565b604082019050919050565b60006020820190508181036000830152614cbd81614c81565b9050919050565b7f4e756d626572206f662077696e6e657273206d7573742062652067726561746560008201527f72207468616e207a65726f000000000000000000000000000000000000000000602082015250565b6000614d20602b83613d49565b9150614d2b82614cc4565b604082019050919050565b60006020820190508181036000830152614d4f81614d13565b9050919050565b7f4e756d626572206f662077696e6e657273206578636565647320746865206e7560008201527f6d626572206f66206d696e74696e672061646472657373657300000000000000602082015250565b6000614db2603983613d49565b9150614dbd82614d56565b604082019050919050565b60006020820190508181036000830152614de181614da5565b9050919050565b7f5265776172642070657263656e74616765206d7573742062652062657477656560008201527f6e203120616e6420313030000000000000000000000000000000000000000000602082015250565b6000614e44602b83613d49565b9150614e4f82614de8565b604082019050919050565b60006020820190508181036000830152614e7381614e37565b9050919050565b6000614e8582613cdb565b9150614e9083613cdb565b9250828202614e9e81613cdb565b91508282048414831517614eb557614eb4614b50565b5b5092915050565b6000614ec782613cdb565b9150614ed283613cdb565b925082614ee257614ee1614ac1565b5b828204905092915050565b7f4552433732313a20696e76616c696420746f6b656e2049440000000000000000600082015250565b6000614f23601883613d49565b9150614f2e82614eed565b602082019050919050565b60006020820190508181036000830152614f5281614f16565b9050919050565b7f546f6b656e20494420646f6573206e6f74206578697374000000000000000000600082015250565b6000614f8f601783613d49565b9150614f9a82614f59565b602082019050919050565b60006020820190508181036000830152614fbe81614f82565b9050919050565b7f4552433732313a2061646472657373207a65726f206973206e6f74206120766160008201527f6c6964206f776e65720000000000000000000000000000000000000000000000602082015250565b6000615021602983613d49565b915061502c82614fc5565b604082019050919050565b6000602082019050818103600083015261505081615014565b9050919050565b7f596f7520617265206e6f7420746865206f776e6572206f662074686973204e4660008201527f5400000000000000000000000000000000000000000000000000000000000000602082015250565b60006150b3602183613d49565b91506150be82615057565b604082019050919050565b600060208201905081810360008301526150e2816150a6565b9050919050565b7f546f70206d7573742062652067726561746572207468616e207a65726f000000600082015250565b600061511f601d83613d49565b915061512a826150e9565b602082019050919050565b6000602082019050818103600083015261514e81615112565b9050919050565b7f546f70206578636565647320746865206e756d626572206f66206d696e74696e60008201527f6720616464726573736573000000000000000000000000000000000000000000602082015250565b60006151b1602b83613d49565b91506151bc82615155565b604082019050919050565b600060208201905081810360008301526151e0816151a4565b9050919050565b60008190508160005260206000209050919050565b60006020601f8301049050919050565b600082821b905092915050565b6000600883026152497fffffffffffffffffffffffffffffffffffffffffffffffffffffffffffffffff8261520c565b615253868361520c565b95508019841693508086168417925050509392505050565b6000819050919050565b600061529061528b61528684613cdb565b61526b565b613cdb565b9050919050565b6000819050919050565b6152aa83615275565b6152be6152b682615297565b848454615219565b825550505050565b600090565b6152d36152c6565b6152de8184846152a1565b505050565b5b81811015615302576152f76000826152cb565b6001810190506152e4565b5050565b601f82111561534757615318816151e7565b615321846151fc565b81016020851015615330578190505b61534461533c856151fc565b8301826152e3565b50505b505050565b600082821c905092915050565b600061536a6000198460080261534c565b1980831691505092915050565b60006153838383615359565b9150826002028217905092915050565b61539c82613d3e565b67ffffffffffffffff8111156153b5576153b461434e565b5b6153bf82546147a6565b6153ca828285615306565b600060209050601f8311600181146153fd57600084156153eb578287015190505b6153f58582615377565b86555061545d565b601f19841661540b866151e7565b60005b828110156154335784890151825560018201915060208501945060208101905061540e565b86831015615450578489015161544c601f891682615359565b8355505b6001600288020188555050505b505050505050565b7f526172697479206d7573742068617665203420656c656d656e74730000000000600082015250565b600061549b601b83613d49565b91506154a682615465565b602082019050919050565b600060208201905081810360008301526154ca8161548e565b9050919050565b7f5468652073756d206f6620726172697479206d75737420626520313030000000600082015250565b6000615507601d83613d49565b9150615512826154d1565b602082019050919050565b60006020820190508181036000830152615536816154fa565b9050919050565b7f4f776e61626c653a206e6577206f776e657220697320746865207a65726f206160008201527f6464726573730000000000000000000000000000000000000000000000000000602082015250565b6000615599602683613d49565b91506155a48261553d565b604082019050919050565b600060208201905081810360008301526155c88161558c565b9050919050565b7f4f6e6c79207468652064657369676e6174656420616464726573732063616e2060008201527f7769746864726177000000000000000000000000000000000000000000000000602082015250565b600061562b602883613d49565b9150615636826155cf565b604082019050919050565b6000602082019050818103600083015261565a8161561e565b9050919050565b7f4f776e61626c653a2063616c6c6572206973206e6f7420746865206f776e6572600082015250565b6000615697602083613d49565b91506156a282615661565b602082019050919050565b600060208201905081810360008301526156c68161568a565b9050919050565b7f4552433732313a206d696e7420746f20746865207a65726f2061646472657373600082015250565b6000615703602083613d49565b915061570e826156cd565b602082019050919050565b60006020820190508181036000830152615732816156f6565b9050919050565b7f4552433732313a20746f6b656e20616c7265616479206d696e74656400000000600082015250565b600061576f601c83613d49565b915061577a82615739565b602082019050919050565b6000602082019050818103600083015261579e81615762565b9050919050565b7f45524337323155524953746f726167653a2055524920736574206f66206e6f6e60008201527f6578697374656e7420746f6b656e000000000000000000000000000000000000602082015250565b6000615801602e83613d49565b915061580c826157a5565b604082019050919050565b60006020820190508181036000830152615830816157f4565b9050919050565b7f4552433732313a207472616e736665722066726f6d20696e636f72726563742060008201527f6f776e6572000000000000000000000000000000000000000000000000000000602082015250565b6000615893602583613d49565b915061589e82615837565b604082019050919050565b600060208201905081810360008301526158c281615886565b9050919050565b7f4552433732313a207472616e7366657220746f20746865207a65726f2061646460008201527f7265737300000000000000000000000000000000000000000000000000000000602082015250565b6000615925602483613d49565b9150615930826158c9565b604082019050919050565b6000602082019050818103600083015261595481615918565b9050919050565b7f4552433732313a20617070726f766520746f2063616c6c657200000000000000600082015250565b6000615991601983613d49565b915061599c8261595b565b602082019050919050565b600060208201905081810360008301526159c081615984565b9050919050565b60006159d282613cdb565b91506159dd83613cdb565b92508282039050818111156159f5576159f4614b50565b5b92915050565b7f4552433732313a207472616e7366657220746f206e6f6e20455243373231526560008201527f63656976657220696d706c656d656e7465720000000000000000000000000000602082015250565b6000615a57603283613d49565b9150615a62826159fb565b604082019050919050565b60006020820190508181036000830152615a8681615a4a565b9050919050565b600081905092915050565b6000615aa382613d3e565b615aad8185615a8d565b9350615abd818560208601613d5a565b80840191505092915050565b6000615ad58285615a98565b9150615ae18284615a98565b91508190509392505050565b600081519050919050565b600082825260208201905092915050565b6000615b1482615aed565b615b1e8185615af8565b9350615b2e818560208601613d5a565b615b3781613d84565b840191505092915050565b6000608082019050615b576000830187613f36565b615b646020830186613f36565b615b716040830185614080565b8181036060830152615b838184615b09565b905095945050505050565b600081519050615b9d81613e1c565b92915050565b600060208284031215615bb957615bb8613cd1565b5b6000615bc784828501615b8e565b9150509291505056fea264697066735822122033a58aebac7bc16cce17a88664f1faefedfcd6302ba0c17b3b8abe7a837cd9b764736f6c6343000812003368747470733a2f2f7265642d666c79696e672d6c796e782d3537382e6d7970696e6174612e636c6f75642f697066732f516d66446952525547505444596141564b557975424d4d315734646750545377466644686b46766a3768654c4d773f5f676c3d312a7162723932782a5f67612a4d5463794e4455344d5441354c6a45324f5441784f544d334d7a592e2a5f67615f35524d505847313454452a4d5459354d6a49334e7a45304d4334334c6a45754d5459354d6a49334f546b774e7934794d4334774c6a412e68747470733a2f2f7265642d666c79696e672d6c796e782d3537382e6d7970696e6174612e636c6f75642f697066732f516d5a7436667a35657269516833346b4241623442746d436774734342773534473172346a42776d3955697236463f5f676c3d312a6f316a6f33692a5f67612a4d5463794e4455344d5441354c6a45324f5441784f544d334d7a592e2a5f67615f35524d505847313454452a4d5459354d6a49334e7a45304d4334334c6a45754d5459354d6a49334f546b7a4d5334324d4334774c6a412e68747470733a2f2f7265642d666c79696e672d6c796e782d3537382e6d7970696e6174612e636c6f75642f697066732f516d617a5a424555335746686938326b6f50676864414b65346266514132614e73514b54337056703665683247413f5f676c3d312a31746b616877732a5f67612a4d5463794e4455344d5441354c6a45324f5441784f544d334d7a592e2a5f67615f35524d505847313454452a4d5459354d6a49334e7a45304d4334334c6a45754d5459354d6a49334f5467324e7934324d4334774c6a412e68747470733a2f2f7265642d666c79696e672d6c796e782d3537382e6d7970696e6174612e636c6f75642f697066732f516d536a366252566f7639546e6f4373346d75535757637165754b3535337867745566616a7068366b6d4b314d323f5f676c3d312a31396d737577682a5f67612a4d5463794e4455344d5441354c6a45324f5441784f544d334d7a592e2a5f67615f35524d505847313454452a4d5459354d6a49334e7a45304d4334334c6a45754d5459354d6a49334f546b304e4334304e7934774c6a412e",
  "linkReferences": {},
  "deployedLinkReferences": {}
}