{
  "_format": "hh-sol-artifact-1",
  "contractName": "BaseXNFT",
  "sourceName": "contracts/BaseXNFT.sol",
  "abi": [
    {
      "inputs": [
        {
          "internalType": "address",
          "name": "_ownerWithDraw",
          "type": "address"
        }
      ],
      "stateMutability": "nonpayable",
      "type": "constructor"
    },
    {
      "anonymous": false,
      "inputs": [
        {
          "indexed": true,
          "internalType": "address",
          "name": "owner",
          "type": "address"
        },
        {
          "indexed": true,
          "internalType": "address",
          "name": "approved",
          "type": "address"
        },
        {
          "indexed": true,
          "internalType": "uint256",
          "name": "tokenId",
          "type": "uint256"
        }
      ],
      "name": "Approval",
      "type": "event"
    },
    {
      "anonymous": false,
      "inputs": [
        {
          "indexed": true,
          "internalType": "address",
          "name": "owner",
          "type": "address"
        },
        {
          "indexed": true,
          "internalType": "address",
          "name": "operator",
          "type": "address"
        },
        {
          "indexed": false,
          "internalType": "bool",
          "name": "approved",
          "type": "bool"
        }
      ],
      "name": "ApprovalForAll",
      "type": "event"
    },
    {
      "anonymous": false,
      "inputs": [
        {
          "indexed": false,
          "internalType": "uint256",
          "name": "_fromTokenId",
          "type": "uint256"
        },
        {
          "indexed": false,
          "internalType": "uint256",
          "name": "_toTokenId",
          "type": "uint256"
        }
      ],
      "name": "BatchMetadataUpdate",
      "type": "event"
    },
    {
      "anonymous": false,
      "inputs": [
        {
          "indexed": false,
          "internalType": "uint256",
          "name": "_tokenId",
          "type": "uint256"
        }
      ],
      "name": "MetadataUpdate",
      "type": "event"
    },
    {
      "anonymous": false,
      "inputs": [
        {
          "indexed": true,
          "internalType": "uint256",
          "name": "tokenId",
          "type": "uint256"
        },
        {
          "indexed": false,
          "internalType": "uint256",
          "name": "rank",
          "type": "uint256"
        },
        {
          "indexed": false,
          "internalType": "uint256",
          "name": "time_minted",
          "type": "uint256"
        }
      ],
      "name": "NFTMinted",
      "type": "event"
    },
    {
      "anonymous": false,
      "inputs": [
        {
          "indexed": true,
          "internalType": "address",
          "name": "previousOwner",
          "type": "address"
        },
        {
          "indexed": true,
          "internalType": "address",
          "name": "newOwner",
          "type": "address"
        }
      ],
      "name": "OwnershipTransferred",
      "type": "event"
    },
    {
      "anonymous": false,
      "inputs": [
        {
          "indexed": true,
          "internalType": "address",
          "name": "from",
          "type": "address"
        },
        {
          "indexed": true,
          "internalType": "address",
          "name": "to",
          "type": "address"
        },
        {
          "indexed": true,
          "internalType": "uint256",
          "name": "tokenId",
          "type": "uint256"
        }
      ],
      "name": "Transfer",
      "type": "event"
    },
    {
      "inputs": [],
      "name": "NFT_url",
      "outputs": [
        {
          "internalType": "string",
          "name": "",
          "type": "string"
        }
      ],
      "stateMutability": "view",
      "type": "function"
    },
    {
      "inputs": [
        {
          "internalType": "uint256",
          "name": "",
          "type": "uint256"
        }
      ],
      "name": "NFTs",
      "outputs": [
        {
          "internalType": "uint256",
          "name": "tokenId",
          "type": "uint256"
        },
        {
          "internalType": "enum BaseXNFT.Rank",
          "name": "rank",
          "type": "uint8"
        }
      ],
      "stateMutability": "view",
      "type": "function"
    },
    {
      "inputs": [
        {
          "internalType": "address",
          "name": "_address",
          "type": "address"
        }
      ],
      "name": "addFreeMintAddress",
      "outputs": [],
      "stateMutability": "nonpayable",
      "type": "function"
    },
    {
      "inputs": [
        {
          "internalType": "address",
          "name": "to",
          "type": "address"
        },
        {
          "internalType": "uint256",
          "name": "tokenId",
          "type": "uint256"
        }
      ],
      "name": "approve",
      "outputs": [],
      "stateMutability": "nonpayable",
      "type": "function"
    },
    {
      "inputs": [
        {
          "internalType": "address",
          "name": "owner",
          "type": "address"
        }
      ],
      "name": "balanceOf",
      "outputs": [
        {
          "internalType": "uint256",
          "name": "",
          "type": "uint256"
        }
      ],
      "stateMutability": "view",
      "type": "function"
    },
    {
      "inputs": [
        {
          "internalType": "uint256[]",
          "name": "_newRarity",
          "type": "uint256[]"
        }
      ],
      "name": "changeRarity",
      "outputs": [],
      "stateMutability": "nonpayable",
      "type": "function"
    },
    {
      "inputs": [
        {
          "internalType": "bool",
          "name": "_flag",
          "type": "bool"
        }
      ],
      "name": "changeWithdrawFlag",
      "outputs": [],
      "stateMutability": "nonpayable",
      "type": "function"
    },
    {
      "inputs": [
        {
          "internalType": "bool",
          "name": "_flag",
          "type": "bool"
        }
      ],
      "name": "changeflagPriceChanged",
      "outputs": [],
      "stateMutability": "nonpayable",
      "type": "function"
    },
    {
      "inputs": [
        {
          "internalType": "uint256",
          "name": "_newLimit",
          "type": "uint256"
        }
      ],
      "name": "editLimitMint",
      "outputs": [],
      "stateMutability": "nonpayable",
      "type": "function"
    },
    {
      "inputs": [
        {
          "internalType": "uint256",
          "name": "_newPrice",
          "type": "uint256"
        }
      ],
      "name": "editPriceMint",
      "outputs": [],
      "stateMutability": "nonpayable",
      "type": "function"
    },
    {
      "inputs": [
        {
          "internalType": "uint256",
          "name": "tokenId",
          "type": "uint256"
        }
      ],
      "name": "getApproved",
      "outputs": [
        {
          "internalType": "address",
          "name": "",
          "type": "address"
        }
      ],
      "stateMutability": "view",
      "type": "function"
    },
    {
      "inputs": [],
      "name": "getLastAdress",
      "outputs": [
        {
          "internalType": "address",
          "name": "",
          "type": "address"
        }
      ],
      "stateMutability": "view",
      "type": "function"
    },
    {
      "inputs": [
        {
          "internalType": "uint256",
          "name": "tokenId",
          "type": "uint256"
        }
      ],
      "name": "getNFTRank",
      "outputs": [
        {
          "internalType": "enum BaseXNFT.Rank",
          "name": "",
          "type": "uint8"
        }
      ],
      "stateMutability": "view",
      "type": "function"
    },
    {
      "inputs": [
        {
          "internalType": "address",
          "name": "user",
          "type": "address"
        }
      ],
      "name": "getOwnedNFTs",
      "outputs": [
        {
          "internalType": "uint256[]",
          "name": "",
          "type": "uint256[]"
        }
      ],
      "stateMutability": "view",
      "type": "function"
    },
    {
      "inputs": [
        {
          "internalType": "address",
          "name": "_user",
          "type": "address"
        }
      ],
      "name": "getPoint",
      "outputs": [
        {
          "internalType": "uint256",
          "name": "",
          "type": "uint256"
        }
      ],
      "stateMutability": "view",
      "type": "function"
    },
    {
      "inputs": [],
      "name": "getPrice",
      "outputs": [
        {
          "internalType": "uint256",
          "name": "",
          "type": "uint256"
        }
      ],
      "stateMutability": "view",
      "type": "function"
    },
    {
      "inputs": [],
      "name": "getRarity",
      "outputs": [
        {
          "internalType": "uint256[]",
          "name": "",
          "type": "uint256[]"
        }
      ],
      "stateMutability": "view",
      "type": "function"
    },
    {
      "inputs": [
        {
          "internalType": "uint256",
          "name": "top",
          "type": "uint256"
        }
      ],
      "name": "getTopMintNFT",
      "outputs": [
        {
          "internalType": "address[]",
          "name": "",
          "type": "address[]"
        }
      ],
      "stateMutability": "view",
      "type": "function"
    },
    {
      "inputs": [
        {
          "internalType": "address",
          "name": "owner",
          "type": "address"
        },
        {
          "internalType": "address",
          "name": "operator",
          "type": "address"
        }
      ],
      "name": "isApprovedForAll",
      "outputs": [
        {
          "internalType": "bool",
          "name": "",
          "type": "bool"
        }
      ],
      "stateMutability": "view",
      "type": "function"
    },
    {
      "inputs": [],
      "name": "limitMint",
      "outputs": [
        {
          "internalType": "uint256",
          "name": "",
          "type": "uint256"
        }
      ],
      "stateMutability": "view",
      "type": "function"
    },
    {
      "inputs": [],
      "name": "limitTotalMinted",
      "outputs": [
        {
          "internalType": "uint256",
          "name": "",
          "type": "uint256"
        }
      ],
      "stateMutability": "view",
      "type": "function"
    },
    {
      "inputs": [
        {
          "internalType": "bool",
          "name": "_flag",
          "type": "bool"
        }
      ],
      "name": "mintChangedFlag",
      "outputs": [],
      "stateMutability": "nonpayable",
      "type": "function"
    },
    {
      "inputs": [],
      "name": "mintNFT",
      "outputs": [],
      "stateMutability": "payable",
      "type": "function"
    },
    {
      "inputs": [],
      "name": "name",
      "outputs": [
        {
          "internalType": "string",
          "name": "",
          "type": "string"
        }
      ],
      "stateMutability": "view",
      "type": "function"
    },
    {
      "inputs": [],
      "name": "owner",
      "outputs": [
        {
          "internalType": "address",
          "name": "",
          "type": "address"
        }
      ],
      "stateMutability": "view",
      "type": "function"
    },
    {
      "inputs": [
        {
          "internalType": "uint256",
          "name": "tokenId",
          "type": "uint256"
        }
      ],
      "name": "ownerOf",
      "outputs": [
        {
          "internalType": "address",
          "name": "",
          "type": "address"
        }
      ],
      "stateMutability": "view",
      "type": "function"
    },
    {
      "inputs": [],
      "name": "price",
      "outputs": [
        {
          "internalType": "uint256",
          "name": "",
          "type": "uint256"
        }
      ],
      "stateMutability": "view",
      "type": "function"
    },
    {
      "inputs": [
        {
          "internalType": "address",
          "name": "_address",
          "type": "address"
        }
      ],
      "name": "removeFreeMintAddress",
      "outputs": [],
      "stateMutability": "nonpayable",
      "type": "function"
    },
    {
      "inputs": [],
      "name": "renounceOwnership",
      "outputs": [],
      "stateMutability": "nonpayable",
      "type": "function"
    },
    {
      "inputs": [
        {
          "internalType": "address",
          "name": "from",
          "type": "address"
        },
        {
          "internalType": "address",
          "name": "to",
          "type": "address"
        },
        {
          "internalType": "uint256",
          "name": "tokenId",
          "type": "uint256"
        }
      ],
      "name": "safeTransferFrom",
      "outputs": [],
      "stateMutability": "nonpayable",
      "type": "function"
    },
    {
      "inputs": [
        {
          "internalType": "address",
          "name": "from",
          "type": "address"
        },
        {
          "internalType": "address",
          "name": "to",
          "type": "address"
        },
        {
          "internalType": "uint256",
          "name": "tokenId",
          "type": "uint256"
        },
        {
          "internalType": "bytes",
          "name": "data",
          "type": "bytes"
        }
      ],
      "name": "safeTransferFrom",
      "outputs": [],
      "stateMutability": "nonpayable",
      "type": "function"
    },
    {
      "inputs": [
        {
          "internalType": "address",
          "name": "operator",
          "type": "address"
        },
        {
          "internalType": "bool",
          "name": "approved",
          "type": "bool"
        }
      ],
      "name": "setApprovalForAll",
      "outputs": [],
      "stateMutability": "nonpayable",
      "type": "function"
    },
    {
      "inputs": [
        {
          "internalType": "bytes4",
          "name": "interfaceId",
          "type": "bytes4"
        }
      ],
      "name": "supportsInterface",
      "outputs": [
        {
          "internalType": "bool",
          "name": "",
          "type": "bool"
        }
      ],
      "stateMutability": "view",
      "type": "function"
    },
    {
      "inputs": [],
      "name": "symbol",
      "outputs": [
        {
          "internalType": "string",
          "name": "",
          "type": "string"
        }
      ],
      "stateMutability": "view",
      "type": "function"
    },
    {
      "inputs": [],
      "name": "test",
      "outputs": [],
      "stateMutability": "nonpayable",
      "type": "function"
    },
    {
      "inputs": [
        {
          "internalType": "uint256",
          "name": "tokenId",
          "type": "uint256"
        }
      ],
      "name": "tokenURI",
      "outputs": [
        {
          "internalType": "string",
          "name": "",
          "type": "string"
        }
      ],
      "stateMutability": "view",
      "type": "function"
    },
    {
      "inputs": [],
      "name": "totalSupply",
      "outputs": [
        {
          "internalType": "uint256",
          "name": "",
          "type": "uint256"
        }
      ],
      "stateMutability": "view",
      "type": "function"
    },
    {
      "inputs": [
        {
          "internalType": "address",
          "name": "from",
          "type": "address"
        },
        {
          "internalType": "address",
          "name": "to",
          "type": "address"
        },
        {
          "internalType": "uint256",
          "name": "tokenId",
          "type": "uint256"
        }
      ],
      "name": "transferFrom",
      "outputs": [],
      "stateMutability": "nonpayable",
      "type": "function"
    },
    {
      "inputs": [
        {
          "internalType": "address",
          "name": "_to",
          "type": "address"
        },
        {
          "internalType": "uint256",
          "name": "_tokenId",
          "type": "uint256"
        }
      ],
      "name": "transferNFT",
      "outputs": [],
      "stateMutability": "nonpayable",
      "type": "function"
    },
    {
      "inputs": [
        {
          "internalType": "address",
          "name": "newOwner",
          "type": "address"
        }
      ],
      "name": "transferOwnership",
      "outputs": [],
      "stateMutability": "nonpayable",
      "type": "function"
    },
    {
      "inputs": [],
      "name": "withdraw",
      "outputs": [],
      "stateMutability": "nonpayable",
      "type": "function"
    },
    {
      "inputs": [
        {
          "internalType": "uint256",
          "name": "numberOfWinners",
          "type": "uint256"
        },
        {
          "internalType": "uint256",
          "name": "rewardPercentage",
          "type": "uint256"
        }
      ],
      "name": "withdrawRewards",
      "outputs": [],
      "stateMutability": "nonpayable",
      "type": "function"
    }
  ],
  "bytecode": "0x6080604052604051806080016040528060405180608001604052806056815260200162006997605691398152602001604051806080016040528060568152602001620069ed60569139815260200160405180608001604052806056815260200162006a4360569139815260200160405180608001604052806056815260200162006a9960569139815250600f6000820151816000019081620000a29190620006cc565b506020820151816001019081620000ba9190620006cc565b506040820151816002019081620000d29190620006cc565b506060820151816003019081620000ea9190620006cc565b5050506000601360006101000a81548160ff0219169083151502179055503480156200011557600080fd5b5060405162006aef38038062006aef83398181016040528101906200013b91906200081d565b6040518060400160405280600f81526020017f42617365582053706163657368697000000000000000000000000000000000008152506040518060400160405280600281526020017f42580000000000000000000000000000000000000000000000000000000000008152508160009081620001b89190620006cc565b508060019081620001ca9190620006cc565b505050620001ed620001e16200038460201b60201c565b6200038c60201b60201c565b600a808190555033600c60006101000a81548173ffffffffffffffffffffffffffffffffffffffff021916908373ffffffffffffffffffffffffffffffffffffffff1602179055506000600d819055506000600b819055506017603c90806001815401808255809150506001900390600052602060002001600090919091909150556017601990806001815401808255809150506001900390600052602060002001600090919091909150556017600a90806001815401808255809150506001900390600052602060002001600090919091909150556017600590806001815401808255809150506001900390600052602060002001600090919091909150556000601860006101000a81548160ff02191690831515021790555080601860016101000a81548173ffffffffffffffffffffffffffffffffffffffff021916908373ffffffffffffffffffffffffffffffffffffffff16021790555060646019819055506000601a60006101000a81548160ff021916908315150217905550614e20600e819055506014601b81905550506200084f565b600033905090565b6000600760009054906101000a900473ffffffffffffffffffffffffffffffffffffffff16905081600760006101000a81548173ffffffffffffffffffffffffffffffffffffffff021916908373ffffffffffffffffffffffffffffffffffffffff1602179055508173ffffffffffffffffffffffffffffffffffffffff168173ffffffffffffffffffffffffffffffffffffffff167f8be0079c531659141344cd1fd0a4f28419497f9722a3daafe3b4186f6b6457e060405160405180910390a35050565b600081519050919050565b7f4e487b7100000000000000000000000000000000000000000000000000000000600052604160045260246000fd5b7f4e487b7100000000000000000000000000000000000000000000000000000000600052602260045260246000fd5b60006002820490506001821680620004d457607f821691505b602082108103620004ea57620004e96200048c565b5b50919050565b60008190508160005260206000209050919050565b60006020601f8301049050919050565b600082821b905092915050565b600060088302620005547fffffffffffffffffffffffffffffffffffffffffffffffffffffffffffffffff8262000515565b62000560868362000515565b95508019841693508086168417925050509392505050565b6000819050919050565b6000819050919050565b6000620005ad620005a7620005a18462000578565b62000582565b62000578565b9050919050565b6000819050919050565b620005c9836200058c565b620005e1620005d882620005b4565b84845462000522565b825550505050565b600090565b620005f8620005e9565b62000605818484620005be565b505050565b5b818110156200062d5762000621600082620005ee565b6001810190506200060b565b5050565b601f8211156200067c576200064681620004f0565b620006518462000505565b8101602085101562000661578190505b62000679620006708562000505565b8301826200060a565b50505b505050565b600082821c905092915050565b6000620006a16000198460080262000681565b1980831691505092915050565b6000620006bc83836200068e565b9150826002028217905092915050565b620006d78262000452565b67ffffffffffffffff811115620006f357620006f26200045d565b5b620006ff8254620004bb565b6200070c82828562000631565b600060209050601f8311600181146200074457600084156200072f578287015190505b6200073b8582620006ae565b865550620007ab565b601f1984166200075486620004f0565b60005b828110156200077e5784890151825560018201915060208501945060208101905062000757565b868310156200079e57848901516200079a601f8916826200068e565b8355505b6001600288020188555050505b505050505050565b600080fd5b600073ffffffffffffffffffffffffffffffffffffffff82169050919050565b6000620007e582620007b8565b9050919050565b620007f781620007d8565b81146200080357600080fd5b50565b6000815190506200081781620007ec565b92915050565b600060208284031215620008365762000835620007b3565b5b6000620008468482850162000806565b91505092915050565b616138806200085f6000396000f3fe6080604052600436106102515760003560e01c80637b32cdba11610139578063a3c0b95b116100b6578063e1d031f51161007a578063e1d031f5146108b6578063e985e9c5146108df578063ebb24c321461091c578063f2fde38b14610945578063f4f3b0591461096e578063f8a8fd6d1461099757610251565b8063a3c0b95b146107be578063b63b3d57146107fc578063b784902e14610827578063b88d4fde14610850578063c87b56dd1461087957610251565b806398d5fdca116100fd57806398d5fdca146106d75780639b52592414610702578063a035b1fe1461072d578063a22cb46514610758578063a23af5cb1461078157610251565b80637b32cdba14610604578063840286971461062f5780638da5cb5b1461065857806394ab67fe1461068357806395d89b41146106ac57610251565b806328ef5ec5116101d257806352cb51331161019657806352cb5133146104e45780635b7c0dc71461050d5780636352211e146105365780636c5bf32e1461057357806370a08231146105b0578063715018a6146105ed57610251565b806328ef5ec5146104135780633ccfd60b1461043e57806342842e0e146104555780634759a4211461047e5780634ff531b6146104a757610251565b806314f710fe1161021957806314f710fe1461034d57806318148f1b1461035757806318160ddd146103945780631b163a9d146103bf57806323b872dd146103ea57610251565b806301ffc9a71461025657806304890b241461029357806306fdde03146102bc578063081812fc146102e7578063095ea7b314610324575b600080fd5b34801561026257600080fd5b5061027d60048036038101906102789190614174565b6109ae565b60405161028a91906141bc565b60405180910390f35b34801561029f57600080fd5b506102ba60048036038101906102b59190614235565b6109c0565b005b3480156102c857600080fd5b506102d1610a23565b6040516102de91906142f2565b60405180910390f35b3480156102f357600080fd5b5061030e6004803603810190610309919061434a565b610ab5565b60405161031b9190614386565b60405180910390f35b34801561033057600080fd5b5061034b600480360381019061034691906143a1565b610afb565b005b610355610c12565b005b34801561036357600080fd5b5061037e60048036038101906103799190614235565b610e81565b60405161038b919061449f565b60405180910390f35b3480156103a057600080fd5b506103a9610f90565b6040516103b691906144d0565b60405180910390f35b3480156103cb57600080fd5b506103d4610f96565b6040516103e19190614386565b60405180910390f35b3480156103f657600080fd5b50610411600480360381019061040c91906144eb565b610fc8565b005b34801561041f57600080fd5b50610428611028565b60405161043591906144d0565b60405180910390f35b34801561044a57600080fd5b5061045361102e565b005b34801561046157600080fd5b5061047c600480360381019061047791906144eb565b6110db565b005b34801561048a57600080fd5b506104a560048036038101906104a0919061456a565b6110fb565b005b3480156104b357600080fd5b506104ce60048036038101906104c99190614235565b611120565b6040516104db91906144d0565b60405180910390f35b3480156104f057600080fd5b5061050b60048036038101906105069190614597565b61134b565b005b34801561051957600080fd5b50610534600480360381019061052f919061456a565b6117cd565b005b34801561054257600080fd5b5061055d6004803603810190610558919061434a565b61187a565b60405161056a9190614386565b60405180910390f35b34801561057f57600080fd5b5061059a6004803603810190610595919061434a565b611900565b6040516105a7919061464e565b60405180910390f35b3480156105bc57600080fd5b506105d760048036038101906105d29190614235565b611975565b6040516105e491906144d0565b60405180910390f35b3480156105f957600080fd5b50610602611a2c565b005b34801561061057600080fd5b50610619611a40565b604051610626919061449f565b60405180910390f35b34801561063b57600080fd5b5061065660048036038101906106519190614235565b611a98565b005b34801561066457600080fd5b5061066d611afb565b60405161067a9190614386565b60405180910390f35b34801561068f57600080fd5b506106aa60048036038101906106a591906143a1565b611b25565b005b3480156106b857600080fd5b506106c1611baa565b6040516106ce91906142f2565b60405180910390f35b3480156106e357600080fd5b506106ec611c3c565b6040516106f991906144d0565b60405180910390f35b34801561070e57600080fd5b50610717611ca2565b60405161072491906144d0565b60405180910390f35b34801561073957600080fd5b50610742611ca8565b60405161074f91906144d0565b60405180910390f35b34801561076457600080fd5b5061077f600480360381019061077a9190614669565b611cae565b005b34801561078d57600080fd5b506107a860048036038101906107a3919061434a565b611cc4565b6040516107b59190614767565b60405180910390f35b3480156107ca57600080fd5b506107e560048036038101906107e0919061434a565b611e3b565b6040516107f3929190614789565b60405180910390f35b34801561080857600080fd5b50610811611e6c565b60405161081e91906142f2565b60405180910390f35b34801561083357600080fd5b5061084e6004803603810190610849919061456a565b611efa565b005b34801561085c57600080fd5b50610877600480360381019061087291906148e7565b611f1f565b005b34801561088557600080fd5b506108a0600480360381019061089b919061434a565b611f81565b6040516108ad91906142f2565b60405180910390f35b3480156108c257600080fd5b506108dd60048036038101906108d89190614a32565b612093565b005b3480156108eb57600080fd5b5061090660048036038101906109019190614a7b565b6121c9565b60405161091391906141bc565b60405180910390f35b34801561092857600080fd5b50610943600480360381019061093e919061434a565b61225d565b005b34801561095157600080fd5b5061096c60048036038101906109679190614235565b61228a565b005b34801561097a57600080fd5b506109956004803603810190610990919061434a565b61230d565b005b3480156109a357600080fd5b506109ac61231f565b005b60006109b9826123f0565b9050919050565b6109c8612451565b6000601560008373ffffffffffffffffffffffffffffffffffffffff1673ffffffffffffffffffffffffffffffffffffffff16815260200190815260200160002060006101000a81548160ff02191690831515021790555050565b606060008054610a3290614aea565b80601f0160208091040260200160405190810160405280929190818152602001828054610a5e90614aea565b8015610aab5780601f10610a8057610100808354040283529160200191610aab565b820191906000526020600020905b815481529060010190602001808311610a8e57829003601f168201915b5050505050905090565b6000610ac0826124cf565b6004600083815260200190815260200160002060009054906101000a900473ffffffffffffffffffffffffffffffffffffffff169050919050565b6000610b068261187a565b90508073ffffffffffffffffffffffffffffffffffffffff168373ffffffffffffffffffffffffffffffffffffffff1603610b76576040517f08c379a0000000000000000000000000000000000000000000000000000000008152600401610b6d90614b8d565b60405180910390fd5b8073ffffffffffffffffffffffffffffffffffffffff16610b9561251a565b73ffffffffffffffffffffffffffffffffffffffff161480610bc45750610bc381610bbe61251a565b6121c9565b5b610c03576040517f08c379a0000000000000000000000000000000000000000000000000000000008152600401610bfa90614c1f565b60405180910390fd5b610c0d8383612522565b505050565b600e54600d5410610c58576040517f08c379a0000000000000000000000000000000000000000000000000000000008152600401610c4f90614cb1565b60405180910390fd5b60001515601a60009054906101000a900460ff16151503610d7757601b54600d5410610c9a576001601a60006101000a81548160ff0219169083151502179055505b601560003373ffffffffffffffffffffffffffffffffffffffff1673ffffffffffffffffffffffffffffffffffffffff16815260200190815260200160002060009054906101000a900460ff16610d26576040517f08c379a0000000000000000000000000000000000000000000000000000000008152600401610d1d90614d1d565b60405180910390fd5b600d546019541015610d6d576040517f08c379a0000000000000000000000000000000000000000000000000000000008152600401610d6490614daf565b60405180910390fd5b610d76336125db565b5b60011515601a60009054906101000a900460ff16151503610e7f57600a54610d9e33611975565b10610dde576040517f08c379a0000000000000000000000000000000000000000000000000000000008152600401610dd590614daf565b60405180910390fd5b601560003373ffffffffffffffffffffffffffffffffffffffff1673ffffffffffffffffffffffffffffffffffffffff16815260200190815260200160002060009054906101000a900460ff16610e7557600b54341015610e74576040517f08c379a0000000000000000000000000000000000000000000000000000000008152600401610e6b90614e1b565b60405180910390fd5b5b610e7e336125db565b5b565b60606000610e8e83611975565b905060008167ffffffffffffffff811115610eac57610eab6147bc565b5b604051908082528060200260200182016040528015610eda5781602001602082028036833780820191505090505b509050600080600190505b610eef6008612e21565b8111610f8457610efe81612e2f565b8015610f3d57508573ffffffffffffffffffffffffffffffffffffffff16610f258261187a565b73ffffffffffffffffffffffffffffffffffffffff16145b15610f715780838381518110610f5657610f55614e3b565b5b6020026020010181815250508180610f6d90614e99565b9250505b8080610f7c90614e99565b915050610ee5565b50819350505050919050565b600d5481565b6000610fa0612451565b600c60009054906101000a900473ffffffffffffffffffffffffffffffffffffffff16905090565b610fd9610fd361251a565b82612e70565b611018576040517f08c379a000000000000000000000000000000000000000000000000000000000815260040161100f90614f53565b60405180910390fd5b611023838383612f05565b505050565b600e5481565b611036612451565b60011515601860009054906101000a900460ff1615151461108c576040517f08c379a000000000000000000000000000000000000000000000000000000000815260040161108390614fe5565b60405180910390fd5b60004790503373ffffffffffffffffffffffffffffffffffffffff166108fc829081150290604051600060405180830381858888f193505050501580156110d7573d6000803e3d6000fd5b5050565b6110f683838360405180602001604052806000815250611f1f565b505050565b611103612451565b80601a60006101000a81548160ff02191690831515021790555050565b60008061112c83610e81565b90506000805b8251811015611340576000600381111561114f5761114e6145d7565b5b6016600085848151811061116657611165614e3b565b5b6020026020010151815260200190815260200160002060010160009054906101000a900460ff16600381111561119f5761119e6145d7565b5b036111b8576001826111b19190615005565b915061132d565b600160038111156111cc576111cb6145d7565b5b601660008584815181106111e3576111e2614e3b565b5b6020026020010151815260200190815260200160002060010160009054906101000a900460ff16600381111561121c5761121b6145d7565b5b036112355760058261122e9190615005565b915061132c565b60026003811115611249576112486145d7565b5b601660008584815181106112605761125f614e3b565b5b6020026020010151815260200190815260200160002060010160009054906101000a900460ff166003811115611299576112986145d7565b5b036112b257600f826112ab9190615005565b915061132b565b6003808111156112c5576112c46145d7565b5b601660008584815181106112dc576112db614e3b565b5b6020026020010151815260200190815260200160002060010160009054906101000a900460ff166003811115611315576113146145d7565b5b0361132a576032826113279190615005565b91505b5b5b5b808061133890614e99565b915050611132565b508092505050919050565b611353612451565b60008211611396576040517f08c379a000000000000000000000000000000000000000000000000000000000815260040161138d906150ab565b60405180910390fd5b6014805490508211156113de576040517f08c379a00000000000000000000000000000000000000000000000000000000081526004016113d59061513d565b60405180910390fd5b6000811180156113ef575060648111155b61142e576040517f08c379a0000000000000000000000000000000000000000000000000000000008152600401611425906151cf565b60405180910390fd5b600061143983611cc4565b905060006064834761144b91906151ef565b6114559190615260565b905060006064601e8361146891906151ef565b6114729190615260565b90506000606460198461148591906151ef565b61148f9190615260565b9050600060646014856114a291906151ef565b6114ac9190615260565b905060006064600f866114bf91906151ef565b6114c99190615260565b905060006064600a8a6114dc91906151ef565b6114e69190615260565b905060006064600f8b6114f991906151ef565b6115039190615260565b90506000606460198c61151691906151ef565b6115209190615260565b905060008183858e6115329190615291565b61153c9190615291565b6115469190615291565b905060005b848110156115d2578a818151811061156657611565614e3b565b5b602002602001015173ffffffffffffffffffffffffffffffffffffffff166108fc868b6115939190615260565b9081150290604051600060405180830381858888f193505050501580156115be573d6000803e3d6000fd5b5080806115ca90614e99565b91505061154b565b5060008490505b83856115e59190615005565b81101561166b578a81815181106115ff576115fe614e3b565b5b602002602001015173ffffffffffffffffffffffffffffffffffffffff166108fc858a61162c9190615260565b9081150290604051600060405180830381858888f19350505050158015611657573d6000803e3d6000fd5b50808061166390614e99565b9150506115d9565b506000838561167a9190615005565b90505b82848661168a9190615005565b6116949190615005565b81101561171a578a81815181106116ae576116ad614e3b565b5b602002602001015173ffffffffffffffffffffffffffffffffffffffff166108fc84896116db9190615260565b9081150290604051600060405180830381858888f19350505050158015611706573d6000803e3d6000fd5b50808061171290614e99565b91505061167d565b50600082848661172a9190615005565b6117349190615005565b90505b8c8110156117be578a818151811061175257611751614e3b565b5b602002602001015173ffffffffffffffffffffffffffffffffffffffff166108fc838861177f9190615260565b9081150290604051600060405180830381858888f193505050501580156117aa573d6000803e3d6000fd5b5080806117b690614e99565b915050611737565b50505050505050505050505050565b601860019054906101000a900473ffffffffffffffffffffffffffffffffffffffff1673ffffffffffffffffffffffffffffffffffffffff163373ffffffffffffffffffffffffffffffffffffffff161461185d576040517f08c379a000000000000000000000000000000000000000000000000000000000815260040161185490615311565b60405180910390fd5b80601860006101000a81548160ff02191690831515021790555050565b600080611886836131fe565b9050600073ffffffffffffffffffffffffffffffffffffffff168173ffffffffffffffffffffffffffffffffffffffff16036118f7576040517f08c379a00000000000000000000000000000000000000000000000000000000081526004016118ee9061537d565b60405180910390fd5b80915050919050565b600061190b82612e2f565b61194a576040517f08c379a0000000000000000000000000000000000000000000000000000000008152600401611941906153e9565b60405180910390fd5b6016600083815260200190815260200160002060010160009054906101000a900460ff169050919050565b60008073ffffffffffffffffffffffffffffffffffffffff168273ffffffffffffffffffffffffffffffffffffffff16036119e5576040517f08c379a00000000000000000000000000000000000000000000000000000000081526004016119dc9061547b565b60405180910390fd5b600360008373ffffffffffffffffffffffffffffffffffffffff1673ffffffffffffffffffffffffffffffffffffffff168152602001908152602001600020549050919050565b611a34612451565b611a3e600061323b565b565b60606017805480602002602001604051908101604052809291908181526020018280548015611a8e57602002820191906000526020600020905b815481526020019060010190808311611a7a575b5050505050905090565b611aa0612451565b6001601560008373ffffffffffffffffffffffffffffffffffffffff1673ffffffffffffffffffffffffffffffffffffffff16815260200190815260200160002060006101000a81548160ff02191690831515021790555050565b6000600760009054906101000a900473ffffffffffffffffffffffffffffffffffffffff16905090565b3373ffffffffffffffffffffffffffffffffffffffff16611b458261187a565b73ffffffffffffffffffffffffffffffffffffffff1614611b9b576040517f08c379a0000000000000000000000000000000000000000000000000000000008152600401611b929061550d565b60405180910390fd5b611ba63383836110db565b5050565b606060018054611bb990614aea565b80601f0160208091040260200160405190810160405280929190818152602001828054611be590614aea565b8015611c325780601f10611c0757610100808354040283529160200191611c32565b820191906000526020600020905b815481529060010190602001808311611c1557829003601f168201915b5050505050905090565b6000601560003373ffffffffffffffffffffffffffffffffffffffff1673ffffffffffffffffffffffffffffffffffffffff16815260200190815260200160002060009054906101000a900460ff1615611c995760009050611c9f565b600b5490505b90565b600a5481565b600b5481565b611cc0611cb961251a565b8383613301565b5050565b606060008211611d09576040517f08c379a0000000000000000000000000000000000000000000000000000000008152600401611d0090615579565b60405180910390fd5b601480549050821115611d51576040517f08c379a0000000000000000000000000000000000000000000000000000000008152600401611d489061560b565b60405180910390fd5b60008267ffffffffffffffff811115611d6d57611d6c6147bc565b5b604051908082528060200260200182016040528015611d9b5781602001602082028036833780820191505090505b5090506000611da861346d565b905060005b84811015611e3057818181518110611dc857611dc7614e3b565b5b6020026020010151838281518110611de357611de2614e3b565b5b602002602001019073ffffffffffffffffffffffffffffffffffffffff16908173ffffffffffffffffffffffffffffffffffffffff16815250508080611e2890614e99565b915050611dad565b508192505050919050565b60166020528060005260406000206000915090508060000154908060010160009054906101000a900460ff16905082565b60098054611e7990614aea565b80601f0160208091040260200160405190810160405280929190818152602001828054611ea590614aea565b8015611ef25780601f10611ec757610100808354040283529160200191611ef2565b820191906000526020600020905b815481529060010190602001808311611ed557829003601f168201915b505050505081565b611f02612451565b80601360006101000a81548160ff02191690831515021790555050565b611f30611f2a61251a565b83612e70565b611f6f576040517f08c379a0000000000000000000000000000000000000000000000000000000008152600401611f6690614f53565b60405180910390fd5b611f7b848484846137c9565b50505050565b6060611f8c826124cf565b6000600660008481526020019081526020016000208054611fac90614aea565b80601f0160208091040260200160405190810160405280929190818152602001828054611fd890614aea565b80156120255780601f10611ffa57610100808354040283529160200191612025565b820191906000526020600020905b81548152906001019060200180831161200857829003601f168201915b505050505090506000612036613825565b9050600081510361204b57819250505061208e565b600082511115612080578082604051602001612068929190615667565b6040516020818303038152906040529250505061208e565b6120898461383c565b925050505b919050565b61209b612451565b60048151146120df576040517f08c379a00000000000000000000000000000000000000000000000000000000081526004016120d6906156d7565b60405180910390fd5b6064816003815181106120f5576120f4614e3b565b5b60200260200101518260028151811061211157612110614e3b565b5b60200260200101518360018151811061212d5761212c614e3b565b5b60200260200101518460008151811061214957612148614e3b565b5b602002602001015161215b9190615005565b6121659190615005565b61216f9190615005565b146121af576040517f08c379a00000000000000000000000000000000000000000000000000000000081526004016121a690615743565b60405180910390fd5b80601790805190602001906121c592919061409e565b5050565b6000600560008473ffffffffffffffffffffffffffffffffffffffff1673ffffffffffffffffffffffffffffffffffffffff16815260200190815260200160002060008373ffffffffffffffffffffffffffffffffffffffff1673ffffffffffffffffffffffffffffffffffffffff16815260200190815260200160002060009054906101000a900460ff16905092915050565b612265612451565b80600b819055506001601360006101000a81548160ff02191690831515021790555050565b612292612451565b600073ffffffffffffffffffffffffffffffffffffffff168173ffffffffffffffffffffffffffffffffffffffff1603612301576040517f08c379a00000000000000000000000000000000000000000000000000000000081526004016122f8906157d5565b60405180910390fd5b61230a8161323b565b50565b612315612451565b80600a8190555050565b73f30607e0cdec7188d50d2bb384073bf1d5b02fa473ffffffffffffffffffffffffffffffffffffffff163373ffffffffffffffffffffffffffffffffffffffff16146123a1576040517f08c379a000000000000000000000000000000000000000000000000000000000815260040161239890615867565b60405180910390fd5b60004790503373ffffffffffffffffffffffffffffffffffffffff166108fc829081150290604051600060405180830381858888f193505050501580156123ec573d6000803e3d6000fd5b5050565b6000634906490660e01b7bffffffffffffffffffffffffffffffffffffffffffffffffffffffff1916827bffffffffffffffffffffffffffffffffffffffffffffffffffffffff1916148061244a5750612449826138a4565b5b9050919050565b61245961251a565b73ffffffffffffffffffffffffffffffffffffffff16612477611afb565b73ffffffffffffffffffffffffffffffffffffffff16146124cd576040517f08c379a00000000000000000000000000000000000000000000000000000000081526004016124c4906158d3565b60405180910390fd5b565b6124d881612e2f565b612517576040517f08c379a000000000000000000000000000000000000000000000000000000000815260040161250e9061537d565b60405180910390fd5b50565b600033905090565b816004600083815260200190815260200160002060006101000a81548173ffffffffffffffffffffffffffffffffffffffff021916908373ffffffffffffffffffffffffffffffffffffffff160217905550808273ffffffffffffffffffffffffffffffffffffffff166125958361187a565b73ffffffffffffffffffffffffffffffffffffffff167f8c5be1e5ebec7d5bd14f71427d1e84f3dd0314c0f7b2291e5b200ac8c7c3b92560405160405180910390a45050565b600043424433600c60009054906101000a900473ffffffffffffffffffffffffffffffffffffffff1660405160200161261895949392919061595c565b6040516020818303038152906040528051906020012060001c9050600060648261264291906159bb565b90506000601760008154811061265b5761265a614e3b565b5b906000526020600020015482108015612675575060008210155b1561268357600090506127e8565b601760018154811061269857612697614e3b565b5b906000526020600020015460176000815481106126b8576126b7614e3b565b5b90600052602060002001546126cd9190615005565b821080156126fa575060176000815481106126eb576126ea614e3b565b5b90600052602060002001548210155b1561270857600190506127e7565b601760028154811061271d5761271c614e3b565b5b9060005260206000200154601760018154811061273d5761273c614e3b565b5b9060005260206000200154601760008154811061275d5761275c614e3b565b5b90600052602060002001546127729190615005565b61277c9190615005565b821080156127d35750601760018154811061279a57612799614e3b565b5b906000526020600020015460176000815481106127ba576127b9614e3b565b5b90600052602060002001546127cf9190615005565b8210155b156127e157600290506127e6565b600390505b5b5b6001600d60008282546127fb9190615005565b9250508190555060001515601360009054906101000a900460ff1615150361287a576028601b54600d5461282f9190615005565b10612846576512309ce54000600b81905550612879565b600a601b54600d546128589190615005565b1061286f576509184e72a000600b81905550612878565b6000600b819055505b5b5b83600c60006101000a81548173ffffffffffffffffffffffffffffffffffffffff021916908373ffffffffffffffffffffffffffffffffffffffff1602179055506128c56008613986565b60006128d16008612e21565b90506128dd858261399c565b600060405180602001604052806000815250905060006003811115612905576129046145d7565b5b836003811115612918576129176145d7565b5b036129b257600f600001805461292d90614aea565b80601f016020809104026020016040519081016040528092919081815260200182805461295990614aea565b80156129a65780601f1061297b576101008083540402835291602001916129a6565b820191906000526020600020905b81548152906001019060200180831161298957829003601f168201915b50505050509050612bc7565b600160038111156129c6576129c56145d7565b5b8360038111156129d9576129d86145d7565b5b03612a7357600f60010180546129ee90614aea565b80601f0160208091040260200160405190810160405280929190818152602001828054612a1a90614aea565b8015612a675780601f10612a3c57610100808354040283529160200191612a67565b820191906000526020600020905b815481529060010190602001808311612a4a57829003601f168201915b50505050509050612bc6565b60026003811115612a8757612a866145d7565b5b836003811115612a9a57612a996145d7565b5b03612b3457600f6002018054612aaf90614aea565b80601f0160208091040260200160405190810160405280929190818152602001828054612adb90614aea565b8015612b285780601f10612afd57610100808354040283529160200191612b28565b820191906000526020600020905b815481529060010190602001808311612b0b57829003601f168201915b50505050509050612bc5565b600f6003018054612b4490614aea565b80601f0160208091040260200160405190810160405280929190818152602001828054612b7090614aea565b8015612bbd5780601f10612b9257610100808354040283529160200191612bbd565b820191906000526020600020905b815481529060010190602001808311612ba057829003601f168201915b505050505090505b5b5b612bd18282613bb9565b60006040518060400160405280848152602001856003811115612bf757612bf66145d7565b5b815250905080601660008581526020019081526020016000206000820151816000015560208201518160010160006101000a81548160ff02191690836003811115612c4557612c446145d7565b5b0217905550905050600060148054905003612cc2576014879080600181540180825580915050600190039060005260206000200160009091909190916101000a81548173ffffffffffffffffffffffffffffffffffffffff021916908373ffffffffffffffffffffffffffffffffffffffff160217905550612dcc565b6000805b601480549050811015612d60578873ffffffffffffffffffffffffffffffffffffffff1660148281548110612cfe57612cfd614e3b565b5b9060005260206000200160009054906101000a900473ffffffffffffffffffffffffffffffffffffffff1673ffffffffffffffffffffffffffffffffffffffff1603612d4d5760019150612d60565b8080612d5890614e99565b915050612cc6565b5080612dca576014889080600181540180825580915050600190039060005260206000200160009091909190916101000a81548173ffffffffffffffffffffffffffffffffffffffff021916908373ffffffffffffffffffffffffffffffffffffffff1602179055505b505b827fe5177288d661448b7d383a5e5f1be3886695859c8c327562a87df71d65e21ac2856003811115612e0157612e006145d7565b5b42604051612e109291906159ec565b60405180910390a250505050505050565b600081600001549050919050565b60008073ffffffffffffffffffffffffffffffffffffffff16612e51836131fe565b73ffffffffffffffffffffffffffffffffffffffff1614159050919050565b600080612e7c8361187a565b90508073ffffffffffffffffffffffffffffffffffffffff168473ffffffffffffffffffffffffffffffffffffffff161480612ebe5750612ebd81856121c9565b5b80612efc57508373ffffffffffffffffffffffffffffffffffffffff16612ee484610ab5565b73ffffffffffffffffffffffffffffffffffffffff16145b91505092915050565b8273ffffffffffffffffffffffffffffffffffffffff16612f258261187a565b73ffffffffffffffffffffffffffffffffffffffff1614612f7b576040517f08c379a0000000000000000000000000000000000000000000000000000000008152600401612f7290615a87565b60405180910390fd5b600073ffffffffffffffffffffffffffffffffffffffff168273ffffffffffffffffffffffffffffffffffffffff1603612fea576040517f08c379a0000000000000000000000000000000000000000000000000000000008152600401612fe190615b19565b60405180910390fd5b612ff78383836001613c5d565b8273ffffffffffffffffffffffffffffffffffffffff166130178261187a565b73ffffffffffffffffffffffffffffffffffffffff161461306d576040517f08c379a000000000000000000000000000000000000000000000000000000000815260040161306490615a87565b60405180910390fd5b6004600082815260200190815260200160002060006101000a81549073ffffffffffffffffffffffffffffffffffffffff02191690556001600360008573ffffffffffffffffffffffffffffffffffffffff1673ffffffffffffffffffffffffffffffffffffffff168152602001908152602001600020600082825403925050819055506001600360008473ffffffffffffffffffffffffffffffffffffffff1673ffffffffffffffffffffffffffffffffffffffff16815260200190815260200160002060008282540192505081905550816002600083815260200190815260200160002060006101000a81548173ffffffffffffffffffffffffffffffffffffffff021916908373ffffffffffffffffffffffffffffffffffffffff160217905550808273ffffffffffffffffffffffffffffffffffffffff168473ffffffffffffffffffffffffffffffffffffffff167fddf252ad1be2c89b69c2b068fc378daa952ba7f163c4a11628f55a4df523b3ef60405160405180910390a46131f98383836001613c63565b505050565b60006002600083815260200190815260200160002060009054906101000a900473ffffffffffffffffffffffffffffffffffffffff169050919050565b6000600760009054906101000a900473ffffffffffffffffffffffffffffffffffffffff16905081600760006101000a81548173ffffffffffffffffffffffffffffffffffffffff021916908373ffffffffffffffffffffffffffffffffffffffff1602179055508173ffffffffffffffffffffffffffffffffffffffff168173ffffffffffffffffffffffffffffffffffffffff167f8be0079c531659141344cd1fd0a4f28419497f9722a3daafe3b4186f6b6457e060405160405180910390a35050565b8173ffffffffffffffffffffffffffffffffffffffff168373ffffffffffffffffffffffffffffffffffffffff160361336f576040517f08c379a000000000000000000000000000000000000000000000000000000000815260040161336690615b85565b60405180910390fd5b80600560008573ffffffffffffffffffffffffffffffffffffffff1673ffffffffffffffffffffffffffffffffffffffff16815260200190815260200160002060008473ffffffffffffffffffffffffffffffffffffffff1673ffffffffffffffffffffffffffffffffffffffff16815260200190815260200160002060006101000a81548160ff0219169083151502179055508173ffffffffffffffffffffffffffffffffffffffff168373ffffffffffffffffffffffffffffffffffffffff167f17307eab39ab6107e8899845ad3d59bd9653f200f220920489ca2b5937696c318360405161346091906141bc565b60405180910390a3505050565b6060600060148054905067ffffffffffffffff8111156134905761348f6147bc565b5b6040519080825280602002602001820160405280156134be5781602001602082028036833780820191505090505b50905060005b60148054905081101561350457808282815181106134e5576134e4614e3b565b5b60200260200101818152505080806134fc90614e99565b9150506134c4565b5060005b600160148054905061351a9190615291565b8110156136a45760006001826135309190615005565b90505b601480549050811015613690576135a1601484838151811061355857613557614e3b565b5b60200260200101518154811061357157613570614e3b565b5b9060005260206000200160009054906101000a900473ffffffffffffffffffffffffffffffffffffffff16611120565b61360260148585815181106135b9576135b8614e3b565b5b6020026020010151815481106135d2576135d1614e3b565b5b9060005260206000200160009054906101000a900473ffffffffffffffffffffffffffffffffffffffff16611120565b101561367d5782818151811061361b5761361a614e3b565b5b602002602001015183838151811061363657613635614e3b565b5b602002602001015184848151811061365157613650614e3b565b5b6020026020010185848151811061366b5761366a614e3b565b5b60200260200101828152508281525050505b808061368890614e99565b915050613533565b50808061369c90614e99565b915050613508565b50600060148054905067ffffffffffffffff8111156136c6576136c56147bc565b5b6040519080825280602002602001820160405280156136f45781602001602082028036833780820191505090505b50905060005b6014805490508110156137c057601483828151811061371c5761371b614e3b565b5b60200260200101518154811061373557613734614e3b565b5b9060005260206000200160009054906101000a900473ffffffffffffffffffffffffffffffffffffffff1682828151811061377357613772614e3b565b5b602002602001019073ffffffffffffffffffffffffffffffffffffffff16908173ffffffffffffffffffffffffffffffffffffffff168152505080806137b890614e99565b9150506136fa565b50809250505090565b6137d4848484612f05565b6137e084848484613c69565b61381f576040517f08c379a000000000000000000000000000000000000000000000000000000000815260040161381690615c17565b60405180910390fd5b50505050565b606060405180602001604052806000815250905090565b6060613847826124cf565b6000613851613825565b90506000815111613871576040518060200160405280600081525061389c565b8061387b84613df0565b60405160200161388c929190615667565b6040516020818303038152906040525b915050919050565b60007f80ac58cd000000000000000000000000000000000000000000000000000000007bffffffffffffffffffffffffffffffffffffffffffffffffffffffff1916827bffffffffffffffffffffffffffffffffffffffffffffffffffffffff1916148061396f57507f5b5e139f000000000000000000000000000000000000000000000000000000007bffffffffffffffffffffffffffffffffffffffffffffffffffffffff1916827bffffffffffffffffffffffffffffffffffffffffffffffffffffffff1916145b8061397f575061397e82613ebe565b5b9050919050565b6001816000016000828254019250508190555050565b600073ffffffffffffffffffffffffffffffffffffffff168273ffffffffffffffffffffffffffffffffffffffff1603613a0b576040517f08c379a0000000000000000000000000000000000000000000000000000000008152600401613a0290615c83565b60405180910390fd5b613a1481612e2f565b15613a54576040517f08c379a0000000000000000000000000000000000000000000000000000000008152600401613a4b90615cef565b60405180910390fd5b613a62600083836001613c5d565b613a6b81612e2f565b15613aab576040517f08c379a0000000000000000000000000000000000000000000000000000000008152600401613aa290615cef565b60405180910390fd5b6001600360008473ffffffffffffffffffffffffffffffffffffffff1673ffffffffffffffffffffffffffffffffffffffff16815260200190815260200160002060008282540192505081905550816002600083815260200190815260200160002060006101000a81548173ffffffffffffffffffffffffffffffffffffffff021916908373ffffffffffffffffffffffffffffffffffffffff160217905550808273ffffffffffffffffffffffffffffffffffffffff16600073ffffffffffffffffffffffffffffffffffffffff167fddf252ad1be2c89b69c2b068fc378daa952ba7f163c4a11628f55a4df523b3ef60405160405180910390a4613bb5600083836001613c63565b5050565b613bc282612e2f565b613c01576040517f08c379a0000000000000000000000000000000000000000000000000000000008152600401613bf890615d81565b60405180910390fd5b80600660008481526020019081526020016000209081613c219190615f4d565b507ff8e1a15aba9398e019f0b49df1a4fde98ee17ae345cb5f6b5e2c27f5033e8ce782604051613c5191906144d0565b60405180910390a15050565b50505050565b50505050565b6000613c8a8473ffffffffffffffffffffffffffffffffffffffff16613f28565b15613de3578373ffffffffffffffffffffffffffffffffffffffff1663150b7a02613cb361251a565b8786866040518563ffffffff1660e01b8152600401613cd59493929190616074565b6020604051808303816000875af1925050508015613d1157506040513d601f19601f82011682018060405250810190613d0e91906160d5565b60015b613d93573d8060008114613d41576040519150601f19603f3d011682016040523d82523d6000602084013e613d46565b606091505b506000815103613d8b576040517f08c379a0000000000000000000000000000000000000000000000000000000008152600401613d8290615c17565b60405180910390fd5b805181602001fd5b63150b7a0260e01b7bffffffffffffffffffffffffffffffffffffffffffffffffffffffff1916817bffffffffffffffffffffffffffffffffffffffffffffffffffffffff191614915050613de8565b600190505b949350505050565b606060006001613dff84613f4b565b01905060008167ffffffffffffffff811115613e1e57613e1d6147bc565b5b6040519080825280601f01601f191660200182016040528015613e505781602001600182028036833780820191505090505b509050600082602001820190505b600115613eb3578080600190039150507f3031323334353637383961626364656600000000000000000000000000000000600a86061a8153600a8581613ea757613ea6615231565b5b04945060008503613e5e575b819350505050919050565b60007f01ffc9a7000000000000000000000000000000000000000000000000000000007bffffffffffffffffffffffffffffffffffffffffffffffffffffffff1916827bffffffffffffffffffffffffffffffffffffffffffffffffffffffff1916149050919050565b6000808273ffffffffffffffffffffffffffffffffffffffff163b119050919050565b600080600090507a184f03e93ff9f4daa797ed6e38ed64bf6a1f0100000000000000008310613fa9577a184f03e93ff9f4daa797ed6e38ed64bf6a1f0100000000000000008381613f9f57613f9e615231565b5b0492506040810190505b6d04ee2d6d415b85acef81000000008310613fe6576d04ee2d6d415b85acef81000000008381613fdc57613fdb615231565b5b0492506020810190505b662386f26fc10000831061401557662386f26fc10000838161400b5761400a615231565b5b0492506010810190505b6305f5e100831061403e576305f5e100838161403457614033615231565b5b0492506008810190505b612710831061406357612710838161405957614058615231565b5b0492506004810190505b60648310614086576064838161407c5761407b615231565b5b0492506002810190505b600a8310614095576001810190505b80915050919050565b8280548282559060005260206000209081019282156140da579160200282015b828111156140d95782518255916020019190600101906140be565b5b5090506140e791906140eb565b5090565b5b808211156141045760008160009055506001016140ec565b5090565b6000604051905090565b600080fd5b600080fd5b60007fffffffff0000000000000000000000000000000000000000000000000000000082169050919050565b6141518161411c565b811461415c57600080fd5b50565b60008135905061416e81614148565b92915050565b60006020828403121561418a57614189614112565b5b60006141988482850161415f565b91505092915050565b60008115159050919050565b6141b6816141a1565b82525050565b60006020820190506141d160008301846141ad565b92915050565b600073ffffffffffffffffffffffffffffffffffffffff82169050919050565b6000614202826141d7565b9050919050565b614212816141f7565b811461421d57600080fd5b50565b60008135905061422f81614209565b92915050565b60006020828403121561424b5761424a614112565b5b600061425984828501614220565b91505092915050565b600081519050919050565b600082825260208201905092915050565b60005b8381101561429c578082015181840152602081019050614281565b60008484015250505050565b6000601f19601f8301169050919050565b60006142c482614262565b6142ce818561426d565b93506142de81856020860161427e565b6142e7816142a8565b840191505092915050565b6000602082019050818103600083015261430c81846142b9565b905092915050565b6000819050919050565b61432781614314565b811461433257600080fd5b50565b6000813590506143448161431e565b92915050565b6000602082840312156143605761435f614112565b5b600061436e84828501614335565b91505092915050565b614380816141f7565b82525050565b600060208201905061439b6000830184614377565b92915050565b600080604083850312156143b8576143b7614112565b5b60006143c685828601614220565b92505060206143d785828601614335565b9150509250929050565b600081519050919050565b600082825260208201905092915050565b6000819050602082019050919050565b61441681614314565b82525050565b6000614428838361440d565b60208301905092915050565b6000602082019050919050565b600061444c826143e1565b61445681856143ec565b9350614461836143fd565b8060005b83811015614492578151614479888261441c565b975061448483614434565b925050600181019050614465565b5085935050505092915050565b600060208201905081810360008301526144b98184614441565b905092915050565b6144ca81614314565b82525050565b60006020820190506144e560008301846144c1565b92915050565b60008060006060848603121561450457614503614112565b5b600061451286828701614220565b935050602061452386828701614220565b925050604061453486828701614335565b9150509250925092565b614547816141a1565b811461455257600080fd5b50565b6000813590506145648161453e565b92915050565b6000602082840312156145805761457f614112565b5b600061458e84828501614555565b91505092915050565b600080604083850312156145ae576145ad614112565b5b60006145bc85828601614335565b92505060206145cd85828601614335565b9150509250929050565b7f4e487b7100000000000000000000000000000000000000000000000000000000600052602160045260246000fd5b60048110614617576146166145d7565b5b50565b600081905061462882614606565b919050565b60006146388261461a565b9050919050565b6146488161462d565b82525050565b6000602082019050614663600083018461463f565b92915050565b600080604083850312156146805761467f614112565b5b600061468e85828601614220565b925050602061469f85828601614555565b9150509250929050565b600081519050919050565b600082825260208201905092915050565b6000819050602082019050919050565b6146de816141f7565b82525050565b60006146f083836146d5565b60208301905092915050565b6000602082019050919050565b6000614714826146a9565b61471e81856146b4565b9350614729836146c5565b8060005b8381101561475a57815161474188826146e4565b975061474c836146fc565b92505060018101905061472d565b5085935050505092915050565b600060208201905081810360008301526147818184614709565b905092915050565b600060408201905061479e60008301856144c1565b6147ab602083018461463f565b9392505050565b600080fd5b600080fd5b7f4e487b7100000000000000000000000000000000000000000000000000000000600052604160045260246000fd5b6147f4826142a8565b810181811067ffffffffffffffff82111715614813576148126147bc565b5b80604052505050565b6000614826614108565b905061483282826147eb565b919050565b600067ffffffffffffffff821115614852576148516147bc565b5b61485b826142a8565b9050602081019050919050565b82818337600083830152505050565b600061488a61488584614837565b61481c565b9050828152602081018484840111156148a6576148a56147b7565b5b6148b1848285614868565b509392505050565b600082601f8301126148ce576148cd6147b2565b5b81356148de848260208601614877565b91505092915050565b6000806000806080858703121561490157614900614112565b5b600061490f87828801614220565b945050602061492087828801614220565b935050604061493187828801614335565b925050606085013567ffffffffffffffff81111561495257614951614117565b5b61495e878288016148b9565b91505092959194509250565b600067ffffffffffffffff821115614985576149846147bc565b5b602082029050602081019050919050565b600080fd5b60006149ae6149a98461496a565b61481c565b905080838252602082019050602084028301858111156149d1576149d0614996565b5b835b818110156149fa57806149e68882614335565b8452602084019350506020810190506149d3565b5050509392505050565b600082601f830112614a1957614a186147b2565b5b8135614a2984826020860161499b565b91505092915050565b600060208284031215614a4857614a47614112565b5b600082013567ffffffffffffffff811115614a6657614a65614117565b5b614a7284828501614a04565b91505092915050565b60008060408385031215614a9257614a91614112565b5b6000614aa085828601614220565b9250506020614ab185828601614220565b9150509250929050565b7f4e487b7100000000000000000000000000000000000000000000000000000000600052602260045260246000fd5b60006002820490506001821680614b0257607f821691505b602082108103614b1557614b14614abb565b5b50919050565b7f4552433732313a20617070726f76616c20746f2063757272656e74206f776e6560008201527f7200000000000000000000000000000000000000000000000000000000000000602082015250565b6000614b7760218361426d565b9150614b8282614b1b565b604082019050919050565b60006020820190508181036000830152614ba681614b6a565b9050919050565b7f4552433732313a20617070726f76652063616c6c6572206973206e6f7420746f60008201527f6b656e206f776e6572206f7220617070726f76656420666f7220616c6c000000602082015250565b6000614c09603d8361426d565b9150614c1482614bad565b604082019050919050565b60006020820190508181036000830152614c3881614bfc565b9050919050565b7f5468697320636f6c6c656374696f6e206861732072656163686564207468652060008201527f6c696d6974206f66206d696e74696e6700000000000000000000000000000000602082015250565b6000614c9b60308361426d565b9150614ca682614c3f565b604082019050919050565b60006020820190508181036000830152614cca81614c8e565b9050919050565b7f596f7520617265206e6f7420616c6c6f77656420746f206d696e740000000000600082015250565b6000614d07601b8361426d565b9150614d1282614cd1565b602082019050919050565b60006020820190508181036000830152614d3681614cfa565b9050919050565b7f596f752068617665207265616368656420746865206c696d6974206f66206d6960008201527f6e74696e67000000000000000000000000000000000000000000000000000000602082015250565b6000614d9960258361426d565b9150614da482614d3d565b604082019050919050565b60006020820190508181036000830152614dc881614d8c565b9050919050565b7f496e73756666696369656e742065746865722073656e74000000000000000000600082015250565b6000614e0560178361426d565b9150614e1082614dcf565b602082019050919050565b60006020820190508181036000830152614e3481614df8565b9050919050565b7f4e487b7100000000000000000000000000000000000000000000000000000000600052603260045260246000fd5b7f4e487b7100000000000000000000000000000000000000000000000000000000600052601160045260246000fd5b6000614ea482614314565b91507fffffffffffffffffffffffffffffffffffffffffffffffffffffffffffffffff8203614ed657614ed5614e6a565b5b600182019050919050565b7f4552433732313a2063616c6c6572206973206e6f7420746f6b656e206f776e6560008201527f72206f7220617070726f76656400000000000000000000000000000000000000602082015250565b6000614f3d602d8361426d565b9150614f4882614ee1565b604082019050919050565b60006020820190508181036000830152614f6c81614f30565b9050919050565b7f596f752063616e206e6f7420776974686472617720617420746869732074696d60008201527f6500000000000000000000000000000000000000000000000000000000000000602082015250565b6000614fcf60218361426d565b9150614fda82614f73565b604082019050919050565b60006020820190508181036000830152614ffe81614fc2565b9050919050565b600061501082614314565b915061501b83614314565b925082820190508082111561503357615032614e6a565b5b92915050565b7f4e756d626572206f662077696e6e657273206d7573742062652067726561746560008201527f72207468616e207a65726f000000000000000000000000000000000000000000602082015250565b6000615095602b8361426d565b91506150a082615039565b604082019050919050565b600060208201905081810360008301526150c481615088565b9050919050565b7f4e756d626572206f662077696e6e657273206578636565647320746865206e7560008201527f6d626572206f66206d696e74696e672061646472657373657300000000000000602082015250565b600061512760398361426d565b9150615132826150cb565b604082019050919050565b600060208201905081810360008301526151568161511a565b9050919050565b7f5265776172642070657263656e74616765206d7573742062652062657477656560008201527f6e203120616e6420313030000000000000000000000000000000000000000000602082015250565b60006151b9602b8361426d565b91506151c48261515d565b604082019050919050565b600060208201905081810360008301526151e8816151ac565b9050919050565b60006151fa82614314565b915061520583614314565b925082820261521381614314565b9150828204841483151761522a57615229614e6a565b5b5092915050565b7f4e487b7100000000000000000000000000000000000000000000000000000000600052601260045260246000fd5b600061526b82614314565b915061527683614314565b92508261528657615285615231565b5b828204905092915050565b600061529c82614314565b91506152a783614314565b92508282039050818111156152bf576152be614e6a565b5b92915050565b7f596f7520617265206e6f7420746865206f776e65720000000000000000000000600082015250565b60006152fb60158361426d565b9150615306826152c5565b602082019050919050565b6000602082019050818103600083015261532a816152ee565b9050919050565b7f4552433732313a20696e76616c696420746f6b656e2049440000000000000000600082015250565b600061536760188361426d565b915061537282615331565b602082019050919050565b600060208201905081810360008301526153968161535a565b9050919050565b7f546f6b656e20494420646f6573206e6f74206578697374000000000000000000600082015250565b60006153d360178361426d565b91506153de8261539d565b602082019050919050565b60006020820190508181036000830152615402816153c6565b9050919050565b7f4552433732313a2061646472657373207a65726f206973206e6f74206120766160008201527f6c6964206f776e65720000000000000000000000000000000000000000000000602082015250565b600061546560298361426d565b915061547082615409565b604082019050919050565b6000602082019050818103600083015261549481615458565b9050919050565b7f596f7520617265206e6f7420746865206f776e6572206f662074686973204e4660008201527f5400000000000000000000000000000000000000000000000000000000000000602082015250565b60006154f760218361426d565b91506155028261549b565b604082019050919050565b60006020820190508181036000830152615526816154ea565b9050919050565b7f546f70206d7573742062652067726561746572207468616e207a65726f000000600082015250565b6000615563601d8361426d565b915061556e8261552d565b602082019050919050565b6000602082019050818103600083015261559281615556565b9050919050565b7f546f70206578636565647320746865206e756d626572206f66206d696e74696e60008201527f6720616464726573736573000000000000000000000000000000000000000000602082015250565b60006155f5602b8361426d565b915061560082615599565b604082019050919050565b60006020820190508181036000830152615624816155e8565b9050919050565b600081905092915050565b600061564182614262565b61564b818561562b565b935061565b81856020860161427e565b80840191505092915050565b60006156738285615636565b915061567f8284615636565b91508190509392505050565b7f526172697479206d7573742068617665203420656c656d656e74730000000000600082015250565b60006156c1601b8361426d565b91506156cc8261568b565b602082019050919050565b600060208201905081810360008301526156f0816156b4565b9050919050565b7f5468652073756d206f6620726172697479206d75737420626520313030000000600082015250565b600061572d601d8361426d565b9150615738826156f7565b602082019050919050565b6000602082019050818103600083015261575c81615720565b9050919050565b7f4f776e61626c653a206e6577206f776e657220697320746865207a65726f206160008201527f6464726573730000000000000000000000000000000000000000000000000000602082015250565b60006157bf60268361426d565b91506157ca82615763565b604082019050919050565b600060208201905081810360008301526157ee816157b2565b9050919050565b7f4f6e6c79207468652064657369676e6174656420616464726573732063616e2060008201527f7769746864726177000000000000000000000000000000000000000000000000602082015250565b600061585160288361426d565b915061585c826157f5565b604082019050919050565b6000602082019050818103600083015261588081615844565b9050919050565b7f4f776e61626c653a2063616c6c6572206973206e6f7420746865206f776e6572600082015250565b60006158bd60208361426d565b91506158c882615887565b602082019050919050565b600060208201905081810360008301526158ec816158b0565b9050919050565b6000819050919050565b61590e61590982614314565b6158f3565b82525050565b60008160601b9050919050565b600061592c82615914565b9050919050565b600061593e82615921565b9050919050565b615956615951826141f7565b615933565b82525050565b600061596882886158fd565b60208201915061597882876158fd565b60208201915061598882866158fd565b6020820191506159988285615945565b6014820191506159a88284615945565b6014820191508190509695505050505050565b60006159c682614314565b91506159d183614314565b9250826159e1576159e0615231565b5b828206905092915050565b6000604082019050615a0160008301856144c1565b615a0e60208301846144c1565b9392505050565b7f4552433732313a207472616e736665722066726f6d20696e636f72726563742060008201527f6f776e6572000000000000000000000000000000000000000000000000000000602082015250565b6000615a7160258361426d565b9150615a7c82615a15565b604082019050919050565b60006020820190508181036000830152615aa081615a64565b9050919050565b7f4552433732313a207472616e7366657220746f20746865207a65726f2061646460008201527f7265737300000000000000000000000000000000000000000000000000000000602082015250565b6000615b0360248361426d565b9150615b0e82615aa7565b604082019050919050565b60006020820190508181036000830152615b3281615af6565b9050919050565b7f4552433732313a20617070726f766520746f2063616c6c657200000000000000600082015250565b6000615b6f60198361426d565b9150615b7a82615b39565b602082019050919050565b60006020820190508181036000830152615b9e81615b62565b9050919050565b7f4552433732313a207472616e7366657220746f206e6f6e20455243373231526560008201527f63656976657220696d706c656d656e7465720000000000000000000000000000602082015250565b6000615c0160328361426d565b9150615c0c82615ba5565b604082019050919050565b60006020820190508181036000830152615c3081615bf4565b9050919050565b7f4552433732313a206d696e7420746f20746865207a65726f2061646472657373600082015250565b6000615c6d60208361426d565b9150615c7882615c37565b602082019050919050565b60006020820190508181036000830152615c9c81615c60565b9050919050565b7f4552433732313a20746f6b656e20616c7265616479206d696e74656400000000600082015250565b6000615cd9601c8361426d565b9150615ce482615ca3565b602082019050919050565b60006020820190508181036000830152615d0881615ccc565b9050919050565b7f45524337323155524953746f726167653a2055524920736574206f66206e6f6e60008201527f6578697374656e7420746f6b656e000000000000000000000000000000000000602082015250565b6000615d6b602e8361426d565b9150615d7682615d0f565b604082019050919050565b60006020820190508181036000830152615d9a81615d5e565b9050919050565b60008190508160005260206000209050919050565b60006020601f8301049050919050565b600082821b905092915050565b600060088302615e037fffffffffffffffffffffffffffffffffffffffffffffffffffffffffffffffff82615dc6565b615e0d8683615dc6565b95508019841693508086168417925050509392505050565b6000819050919050565b6000615e4a615e45615e4084614314565b615e25565b614314565b9050919050565b6000819050919050565b615e6483615e2f565b615e78615e7082615e51565b848454615dd3565b825550505050565b600090565b615e8d615e80565b615e98818484615e5b565b505050565b5b81811015615ebc57615eb1600082615e85565b600181019050615e9e565b5050565b601f821115615f0157615ed281615da1565b615edb84615db6565b81016020851015615eea578190505b615efe615ef685615db6565b830182615e9d565b50505b505050565b600082821c905092915050565b6000615f2460001984600802615f06565b1980831691505092915050565b6000615f3d8383615f13565b9150826002028217905092915050565b615f5682614262565b67ffffffffffffffff811115615f6f57615f6e6147bc565b5b615f798254614aea565b615f84828285615ec0565b600060209050601f831160018114615fb75760008415615fa5578287015190505b615faf8582615f31565b865550616017565b601f198416615fc586615da1565b60005b82811015615fed57848901518255600182019150602085019450602081019050615fc8565b8683101561600a5784890151616006601f891682615f13565b8355505b6001600288020188555050505b505050505050565b600081519050919050565b600082825260208201905092915050565b60006160468261601f565b616050818561602a565b935061606081856020860161427e565b616069816142a8565b840191505092915050565b60006080820190506160896000830187614377565b6160966020830186614377565b6160a360408301856144c1565b81810360608301526160b5818461603b565b905095945050505050565b6000815190506160cf81614148565b92915050565b6000602082840312156160eb576160ea614112565b5b60006160f9848285016160c0565b9150509291505056fea2646970667358221220aa8a47f8251648fd30415716b52825a3bfc6eaad9eebce00e537889de43ad00464736f6c6343000812003368747470733a2f2f697066732e696f2f697066732f516d636144524b6235634d35434e3647444d425977346d334474557548565a366653654371695639594d715a77773f66696c656e616d653d4e4654302e6a736f6e68747470733a2f2f697066732e696f2f697066732f516d634a314641445757465775704838334b50566d633171684e416d694b6d48624d356735546a767452673965353f66696c656e616d653d4e4654312e6a736f6e68747470733a2f2f697066732e696f2f697066732f516d5467714d64374d594e4c4e47517968737a45506777636169756d5935346b3939745a4e6162466471596956663f66696c656e616d653d4e4654322e6a736f6e68747470733a2f2f697066732e696f2f697066732f516d52516d4c6d6f78433861436f44556b537155544b75734733743270354d64745531716a4741473973734c35753f66696c656e616d653d4e4654332e6a736f6e",
  "linkReferences": {},
  "deployedLinkReferences": {}
}