{
  "_format": "hh-sol-artifact-1",
  "contractName": "BaseXNFT",
  "sourceName": "contracts/BaseXNFT.sol",
  "abi": [
    {
      "inputs": [
        {
          "internalType": "address",
          "name": "_ownerWithDraw",
          "type": "address"
        }
      ],
      "stateMutability": "nonpayable",
      "type": "constructor"
    },
    {
      "anonymous": false,
      "inputs": [
        {
          "indexed": true,
          "internalType": "address",
          "name": "owner",
          "type": "address"
        },
        {
          "indexed": true,
          "internalType": "address",
          "name": "approved",
          "type": "address"
        },
        {
          "indexed": true,
          "internalType": "uint256",
          "name": "tokenId",
          "type": "uint256"
        }
      ],
      "name": "Approval",
      "type": "event"
    },
    {
      "anonymous": false,
      "inputs": [
        {
          "indexed": true,
          "internalType": "address",
          "name": "owner",
          "type": "address"
        },
        {
          "indexed": true,
          "internalType": "address",
          "name": "operator",
          "type": "address"
        },
        {
          "indexed": false,
          "internalType": "bool",
          "name": "approved",
          "type": "bool"
        }
      ],
      "name": "ApprovalForAll",
      "type": "event"
    },
    {
      "anonymous": false,
      "inputs": [
        {
          "indexed": false,
          "internalType": "uint256",
          "name": "_fromTokenId",
          "type": "uint256"
        },
        {
          "indexed": false,
          "internalType": "uint256",
          "name": "_toTokenId",
          "type": "uint256"
        }
      ],
      "name": "BatchMetadataUpdate",
      "type": "event"
    },
    {
      "anonymous": false,
      "inputs": [
        {
          "indexed": false,
          "internalType": "uint256",
          "name": "_tokenId",
          "type": "uint256"
        }
      ],
      "name": "MetadataUpdate",
      "type": "event"
    },
    {
      "anonymous": false,
      "inputs": [
        {
          "indexed": true,
          "internalType": "uint256",
          "name": "tokenId",
          "type": "uint256"
        },
        {
          "indexed": false,
          "internalType": "uint256",
          "name": "rank",
          "type": "uint256"
        },
        {
          "indexed": false,
          "internalType": "uint256",
          "name": "time_minted",
          "type": "uint256"
        }
      ],
      "name": "NFTMinted",
      "type": "event"
    },
    {
      "anonymous": false,
      "inputs": [
        {
          "indexed": true,
          "internalType": "address",
          "name": "previousOwner",
          "type": "address"
        },
        {
          "indexed": true,
          "internalType": "address",
          "name": "newOwner",
          "type": "address"
        }
      ],
      "name": "OwnershipTransferred",
      "type": "event"
    },
    {
      "anonymous": false,
      "inputs": [
        {
          "indexed": true,
          "internalType": "address",
          "name": "from",
          "type": "address"
        },
        {
          "indexed": true,
          "internalType": "address",
          "name": "to",
          "type": "address"
        },
        {
          "indexed": true,
          "internalType": "uint256",
          "name": "tokenId",
          "type": "uint256"
        }
      ],
      "name": "Transfer",
      "type": "event"
    },
    {
      "inputs": [],
      "name": "NFT_url",
      "outputs": [
        {
          "internalType": "string",
          "name": "",
          "type": "string"
        }
      ],
      "stateMutability": "view",
      "type": "function"
    },
    {
      "inputs": [
        {
          "internalType": "uint256",
          "name": "",
          "type": "uint256"
        }
      ],
      "name": "NFTs",
      "outputs": [
        {
          "internalType": "uint256",
          "name": "tokenId",
          "type": "uint256"
        },
        {
          "internalType": "enum BaseXNFT.Rank",
          "name": "rank",
          "type": "uint8"
        }
      ],
      "stateMutability": "view",
      "type": "function"
    },
    {
      "inputs": [
        {
          "internalType": "address",
          "name": "_address",
          "type": "address"
        }
      ],
      "name": "addFreeMintAddress",
      "outputs": [],
      "stateMutability": "nonpayable",
      "type": "function"
    },
    {
      "inputs": [
        {
          "internalType": "address",
          "name": "to",
          "type": "address"
        },
        {
          "internalType": "uint256",
          "name": "tokenId",
          "type": "uint256"
        }
      ],
      "name": "approve",
      "outputs": [],
      "stateMutability": "nonpayable",
      "type": "function"
    },
    {
      "inputs": [
        {
          "internalType": "address",
          "name": "owner",
          "type": "address"
        }
      ],
      "name": "balanceOf",
      "outputs": [
        {
          "internalType": "uint256",
          "name": "",
          "type": "uint256"
        }
      ],
      "stateMutability": "view",
      "type": "function"
    },
    {
      "inputs": [
        {
          "internalType": "uint256[]",
          "name": "_newRarity",
          "type": "uint256[]"
        }
      ],
      "name": "changeRarity",
      "outputs": [],
      "stateMutability": "nonpayable",
      "type": "function"
    },
    {
      "inputs": [
        {
          "internalType": "bool",
          "name": "_flag",
          "type": "bool"
        }
      ],
      "name": "changeWithdrawFlag",
      "outputs": [],
      "stateMutability": "nonpayable",
      "type": "function"
    },
    {
      "inputs": [
        {
          "internalType": "bool",
          "name": "_flag",
          "type": "bool"
        }
      ],
      "name": "changeflagPriceChanged",
      "outputs": [],
      "stateMutability": "nonpayable",
      "type": "function"
    },
    {
      "inputs": [
        {
          "internalType": "uint256",
          "name": "_newLimit",
          "type": "uint256"
        }
      ],
      "name": "editLimitMint",
      "outputs": [],
      "stateMutability": "nonpayable",
      "type": "function"
    },
    {
      "inputs": [
        {
          "internalType": "uint256",
          "name": "_newPrice",
          "type": "uint256"
        }
      ],
      "name": "editPriceMint",
      "outputs": [],
      "stateMutability": "nonpayable",
      "type": "function"
    },
    {
      "inputs": [
        {
          "internalType": "string",
          "name": "_newUrl",
          "type": "string"
        },
        {
          "internalType": "uint256",
          "name": "_rank",
          "type": "uint256"
        }
      ],
      "name": "editUrlNFT",
      "outputs": [],
      "stateMutability": "nonpayable",
      "type": "function"
    },
    {
      "inputs": [
        {
          "internalType": "uint256",
          "name": "tokenId",
          "type": "uint256"
        }
      ],
      "name": "getApproved",
      "outputs": [
        {
          "internalType": "address",
          "name": "",
          "type": "address"
        }
      ],
      "stateMutability": "view",
      "type": "function"
    },
    {
      "inputs": [],
      "name": "getLastAdress",
      "outputs": [
        {
          "internalType": "address",
          "name": "",
          "type": "address"
        }
      ],
      "stateMutability": "view",
      "type": "function"
    },
    {
      "inputs": [
        {
          "internalType": "uint256",
          "name": "tokenId",
          "type": "uint256"
        }
      ],
      "name": "getNFTRank",
      "outputs": [
        {
          "internalType": "enum BaseXNFT.Rank",
          "name": "",
          "type": "uint8"
        }
      ],
      "stateMutability": "view",
      "type": "function"
    },
    {
      "inputs": [
        {
          "internalType": "address",
          "name": "user",
          "type": "address"
        }
      ],
      "name": "getOwnedNFTs",
      "outputs": [
        {
          "internalType": "uint256[]",
          "name": "",
          "type": "uint256[]"
        }
      ],
      "stateMutability": "view",
      "type": "function"
    },
    {
      "inputs": [
        {
          "internalType": "address",
          "name": "_user",
          "type": "address"
        }
      ],
      "name": "getPoint",
      "outputs": [
        {
          "internalType": "uint256",
          "name": "",
          "type": "uint256"
        }
      ],
      "stateMutability": "view",
      "type": "function"
    },
    {
      "inputs": [],
      "name": "getPrice",
      "outputs": [
        {
          "internalType": "uint256",
          "name": "",
          "type": "uint256"
        }
      ],
      "stateMutability": "view",
      "type": "function"
    },
    {
      "inputs": [],
      "name": "getRarity",
      "outputs": [
        {
          "internalType": "uint256[]",
          "name": "",
          "type": "uint256[]"
        }
      ],
      "stateMutability": "view",
      "type": "function"
    },
    {
      "inputs": [
        {
          "internalType": "uint256",
          "name": "top",
          "type": "uint256"
        }
      ],
      "name": "getTopMintNFT",
      "outputs": [
        {
          "internalType": "address[]",
          "name": "",
          "type": "address[]"
        }
      ],
      "stateMutability": "view",
      "type": "function"
    },
    {
      "inputs": [
        {
          "internalType": "address",
          "name": "owner",
          "type": "address"
        },
        {
          "internalType": "address",
          "name": "operator",
          "type": "address"
        }
      ],
      "name": "isApprovedForAll",
      "outputs": [
        {
          "internalType": "bool",
          "name": "",
          "type": "bool"
        }
      ],
      "stateMutability": "view",
      "type": "function"
    },
    {
      "inputs": [],
      "name": "limitMint",
      "outputs": [
        {
          "internalType": "uint256",
          "name": "",
          "type": "uint256"
        }
      ],
      "stateMutability": "view",
      "type": "function"
    },
    {
      "inputs": [
        {
          "internalType": "bool",
          "name": "_flag",
          "type": "bool"
        }
      ],
      "name": "mintChangedFlag",
      "outputs": [],
      "stateMutability": "nonpayable",
      "type": "function"
    },
    {
      "inputs": [],
      "name": "mintNFT",
      "outputs": [],
      "stateMutability": "payable",
      "type": "function"
    },
    {
      "inputs": [],
      "name": "name",
      "outputs": [
        {
          "internalType": "string",
          "name": "",
          "type": "string"
        }
      ],
      "stateMutability": "view",
      "type": "function"
    },
    {
      "inputs": [],
      "name": "owner",
      "outputs": [
        {
          "internalType": "address",
          "name": "",
          "type": "address"
        }
      ],
      "stateMutability": "view",
      "type": "function"
    },
    {
      "inputs": [
        {
          "internalType": "uint256",
          "name": "tokenId",
          "type": "uint256"
        }
      ],
      "name": "ownerOf",
      "outputs": [
        {
          "internalType": "address",
          "name": "",
          "type": "address"
        }
      ],
      "stateMutability": "view",
      "type": "function"
    },
    {
      "inputs": [],
      "name": "price",
      "outputs": [
        {
          "internalType": "uint256",
          "name": "",
          "type": "uint256"
        }
      ],
      "stateMutability": "view",
      "type": "function"
    },
    {
      "inputs": [
        {
          "internalType": "address",
          "name": "_address",
          "type": "address"
        }
      ],
      "name": "removeFreeMintAddress",
      "outputs": [],
      "stateMutability": "nonpayable",
      "type": "function"
    },
    {
      "inputs": [],
      "name": "renounceOwnership",
      "outputs": [],
      "stateMutability": "nonpayable",
      "type": "function"
    },
    {
      "inputs": [
        {
          "internalType": "address",
          "name": "from",
          "type": "address"
        },
        {
          "internalType": "address",
          "name": "to",
          "type": "address"
        },
        {
          "internalType": "uint256",
          "name": "tokenId",
          "type": "uint256"
        }
      ],
      "name": "safeTransferFrom",
      "outputs": [],
      "stateMutability": "nonpayable",
      "type": "function"
    },
    {
      "inputs": [
        {
          "internalType": "address",
          "name": "from",
          "type": "address"
        },
        {
          "internalType": "address",
          "name": "to",
          "type": "address"
        },
        {
          "internalType": "uint256",
          "name": "tokenId",
          "type": "uint256"
        },
        {
          "internalType": "bytes",
          "name": "data",
          "type": "bytes"
        }
      ],
      "name": "safeTransferFrom",
      "outputs": [],
      "stateMutability": "nonpayable",
      "type": "function"
    },
    {
      "inputs": [
        {
          "internalType": "address",
          "name": "operator",
          "type": "address"
        },
        {
          "internalType": "bool",
          "name": "approved",
          "type": "bool"
        }
      ],
      "name": "setApprovalForAll",
      "outputs": [],
      "stateMutability": "nonpayable",
      "type": "function"
    },
    {
      "inputs": [
        {
          "internalType": "bytes4",
          "name": "interfaceId",
          "type": "bytes4"
        }
      ],
      "name": "supportsInterface",
      "outputs": [
        {
          "internalType": "bool",
          "name": "",
          "type": "bool"
        }
      ],
      "stateMutability": "view",
      "type": "function"
    },
    {
      "inputs": [],
      "name": "symbol",
      "outputs": [
        {
          "internalType": "string",
          "name": "",
          "type": "string"
        }
      ],
      "stateMutability": "view",
      "type": "function"
    },
    {
      "inputs": [],
      "name": "test",
      "outputs": [],
      "stateMutability": "nonpayable",
      "type": "function"
    },
    {
      "inputs": [
        {
          "internalType": "uint256",
          "name": "tokenId",
          "type": "uint256"
        }
      ],
      "name": "tokenURI",
      "outputs": [
        {
          "internalType": "string",
          "name": "",
          "type": "string"
        }
      ],
      "stateMutability": "view",
      "type": "function"
    },
    {
      "inputs": [],
      "name": "totalSupply",
      "outputs": [
        {
          "internalType": "uint256",
          "name": "",
          "type": "uint256"
        }
      ],
      "stateMutability": "view",
      "type": "function"
    },
    {
      "inputs": [
        {
          "internalType": "address",
          "name": "from",
          "type": "address"
        },
        {
          "internalType": "address",
          "name": "to",
          "type": "address"
        },
        {
          "internalType": "uint256",
          "name": "tokenId",
          "type": "uint256"
        }
      ],
      "name": "transferFrom",
      "outputs": [],
      "stateMutability": "nonpayable",
      "type": "function"
    },
    {
      "inputs": [
        {
          "internalType": "address",
          "name": "_to",
          "type": "address"
        },
        {
          "internalType": "uint256",
          "name": "_tokenId",
          "type": "uint256"
        }
      ],
      "name": "transferNFT",
      "outputs": [],
      "stateMutability": "nonpayable",
      "type": "function"
    },
    {
      "inputs": [
        {
          "internalType": "address",
          "name": "newOwner",
          "type": "address"
        }
      ],
      "name": "transferOwnership",
      "outputs": [],
      "stateMutability": "nonpayable",
      "type": "function"
    },
    {
      "inputs": [],
      "name": "withdraw",
      "outputs": [],
      "stateMutability": "nonpayable",
      "type": "function"
    },
    {
      "inputs": [
        {
          "internalType": "uint256",
          "name": "numberOfWinners",
          "type": "uint256"
        },
        {
          "internalType": "uint256",
          "name": "rewardPercentage",
          "type": "uint256"
        }
      ],
      "name": "withdrawRewards",
      "outputs": [],
      "stateMutability": "nonpayable",
      "type": "function"
    }
  ],
  "bytecode": "0x6080604052604051806080016040528060405180610100016040528060c98152602001620068bd60c99139815260200160405180610100016040528060c881526020016200672d60c89139815260200160405180610100016040528060c88152602001620067f560c89139815260200160405180610100016040528060c981526020016200698660c99139815250600e6000820151816000019081620000a69190620006c0565b506020820151816001019081620000be9190620006c0565b506040820151816002019081620000d69190620006c0565b506060820151816003019081620000ee9190620006c0565b5050506000601260006101000a81548160ff0219169083151502179055503480156200011957600080fd5b5060405162006a4f38038062006a4f83398181016040528101906200013f919062000811565b6040518060400160405280600f81526020017f42617365582053706163657368697000000000000000000000000000000000008152506040518060400160405280600281526020017f42580000000000000000000000000000000000000000000000000000000000008152508160009081620001bc9190620006c0565b508060019081620001ce9190620006c0565b505050620001f1620001e56200037860201b60201c565b6200038060201b60201c565b6064600a8190555033600c60006101000a81548173ffffffffffffffffffffffffffffffffffffffff021916908373ffffffffffffffffffffffffffffffffffffffff1602179055506000600d819055506000600b819055506016603c90806001815401808255809150506001900390600052602060002001600090919091909150556016601990806001815401808255809150506001900390600052602060002001600090919091909150556016600a90806001815401808255809150506001900390600052602060002001600090919091909150556016600590806001815401808255809150506001900390600052602060002001600090919091909150556000601760006101000a81548160ff02191690831515021790555080601760016101000a81548173ffffffffffffffffffffffffffffffffffffffff021916908373ffffffffffffffffffffffffffffffffffffffff16021790555060646018819055506000601960006101000a81548160ff0219169083151502179055505062000843565b600033905090565b6000600760009054906101000a900473ffffffffffffffffffffffffffffffffffffffff16905081600760006101000a81548173ffffffffffffffffffffffffffffffffffffffff021916908373ffffffffffffffffffffffffffffffffffffffff1602179055508173ffffffffffffffffffffffffffffffffffffffff168173ffffffffffffffffffffffffffffffffffffffff167f8be0079c531659141344cd1fd0a4f28419497f9722a3daafe3b4186f6b6457e060405160405180910390a35050565b600081519050919050565b7f4e487b7100000000000000000000000000000000000000000000000000000000600052604160045260246000fd5b7f4e487b7100000000000000000000000000000000000000000000000000000000600052602260045260246000fd5b60006002820490506001821680620004c857607f821691505b602082108103620004de57620004dd62000480565b5b50919050565b60008190508160005260206000209050919050565b60006020601f8301049050919050565b600082821b905092915050565b600060088302620005487fffffffffffffffffffffffffffffffffffffffffffffffffffffffffffffffff8262000509565b62000554868362000509565b95508019841693508086168417925050509392505050565b6000819050919050565b6000819050919050565b6000620005a16200059b62000595846200056c565b62000576565b6200056c565b9050919050565b6000819050919050565b620005bd8362000580565b620005d5620005cc82620005a8565b84845462000516565b825550505050565b600090565b620005ec620005dd565b620005f9818484620005b2565b505050565b5b81811015620006215762000615600082620005e2565b600181019050620005ff565b5050565b601f82111562000670576200063a81620004e4565b6200064584620004f9565b8101602085101562000655578190505b6200066d6200066485620004f9565b830182620005fe565b50505b505050565b600082821c905092915050565b6000620006956000198460080262000675565b1980831691505092915050565b6000620006b0838362000682565b9150826002028217905092915050565b620006cb8262000446565b67ffffffffffffffff811115620006e757620006e662000451565b5b620006f38254620004af565b6200070082828562000625565b600060209050601f83116001811462000738576000841562000723578287015190505b6200072f8582620006a2565b8655506200079f565b601f1984166200074886620004e4565b60005b8281101562000772578489015182556001820191506020850194506020810190506200074b565b868310156200079257848901516200078e601f89168262000682565b8355505b6001600288020188555050505b505050505050565b600080fd5b600073ffffffffffffffffffffffffffffffffffffffff82169050919050565b6000620007d982620007ac565b9050919050565b620007eb81620007cc565b8114620007f757600080fd5b50565b6000815190506200080b81620007e0565b92915050565b6000602082840312156200082a5762000829620007a7565b5b60006200083a84828501620007fa565b91505092915050565b615eda80620008536000396000f3fe6080604052600436106102515760003560e01c80638402869711610139578063ac399914116100b6578063e1d031f51161007a578063e1d031f5146108b4578063e985e9c5146108dd578063ebb24c321461091a578063f2fde38b14610943578063f4f3b0591461096c578063f8a8fd6d1461099557610251565b8063ac399914146107d1578063b63b3d57146107fa578063b784902e14610825578063b88d4fde1461084e578063c87b56dd1461087757610251565b80639b525924116100fd5780639b525924146106d7578063a035b1fe14610702578063a22cb4651461072d578063a23af5cb14610756578063a3c0b95b1461079357610251565b806384028697146106045780638da5cb5b1461062d57806394ab67fe1461065857806395d89b411461068157806398d5fdca146106ac57610251565b80633ccfd60b116101d25780635b7c0dc7116101965780635b7c0dc7146104e25780636352211e1461050b5780636c5bf32e1461054857806370a0823114610585578063715018a6146105c25780637b32cdba146105d957610251565b80633ccfd60b1461041357806342842e0e1461042a5780634759a421146104535780634ff531b61461047c57806352cb5133146104b957610251565b806314f710fe1161021957806314f710fe1461034d57806318148f1b1461035757806318160ddd146103945780631b163a9d146103bf57806323b872dd146103ea57610251565b806301ffc9a71461025657806304890b241461029357806306fdde03146102bc578063081812fc146102e7578063095ea7b314610324575b600080fd5b34801561026257600080fd5b5061027d60048036038101906102789190613eab565b6109ac565b60405161028a9190613ef3565b60405180910390f35b34801561029f57600080fd5b506102ba60048036038101906102b59190613f6c565b6109be565b005b3480156102c857600080fd5b506102d1610a21565b6040516102de9190614029565b60405180910390f35b3480156102f357600080fd5b5061030e60048036038101906103099190614081565b610ab3565b60405161031b91906140bd565b60405180910390f35b34801561033057600080fd5b5061034b600480360381019061034691906140d8565b610af9565b005b610355610c10565b005b34801561036357600080fd5b5061037e60048036038101906103799190613f6c565b610e12565b60405161038b91906141d6565b60405180910390f35b3480156103a057600080fd5b506103a9610f21565b6040516103b69190614207565b60405180910390f35b3480156103cb57600080fd5b506103d4610f27565b6040516103e191906140bd565b60405180910390f35b3480156103f657600080fd5b50610411600480360381019061040c9190614222565b610f59565b005b34801561041f57600080fd5b50610428610fb9565b005b34801561043657600080fd5b50610451600480360381019061044c9190614222565b611066565b005b34801561045f57600080fd5b5061047a600480360381019061047591906142a1565b611086565b005b34801561048857600080fd5b506104a3600480360381019061049e9190613f6c565b6110ab565b6040516104b09190614207565b60405180910390f35b3480156104c557600080fd5b506104e060048036038101906104db91906142ce565b6112d6565b005b3480156104ee57600080fd5b50610509600480360381019061050491906142a1565b611473565b005b34801561051757600080fd5b50610532600480360381019061052d9190614081565b611520565b60405161053f91906140bd565b60405180910390f35b34801561055457600080fd5b5061056f600480360381019061056a9190614081565b6115a6565b60405161057c9190614385565b60405180910390f35b34801561059157600080fd5b506105ac60048036038101906105a79190613f6c565b61161b565b6040516105b99190614207565b60405180910390f35b3480156105ce57600080fd5b506105d76116d2565b005b3480156105e557600080fd5b506105ee6116e6565b6040516105fb91906141d6565b60405180910390f35b34801561061057600080fd5b5061062b60048036038101906106269190613f6c565b61173e565b005b34801561063957600080fd5b506106426117a1565b60405161064f91906140bd565b60405180910390f35b34801561066457600080fd5b5061067f600480360381019061067a91906140d8565b6117cb565b005b34801561068d57600080fd5b50610696611850565b6040516106a39190614029565b60405180910390f35b3480156106b857600080fd5b506106c16118e2565b6040516106ce9190614207565b60405180910390f35b3480156106e357600080fd5b506106ec611948565b6040516106f99190614207565b60405180910390f35b34801561070e57600080fd5b5061071761194e565b6040516107249190614207565b60405180910390f35b34801561073957600080fd5b50610754600480360381019061074f91906143a0565b611954565b005b34801561076257600080fd5b5061077d60048036038101906107789190614081565b61196a565b60405161078a919061449e565b60405180910390f35b34801561079f57600080fd5b506107ba60048036038101906107b59190614081565b611ae1565b6040516107c89291906144c0565b60405180910390f35b3480156107dd57600080fd5b506107f860048036038101906107f3919061461e565b611b12565b005b34801561080657600080fd5b5061080f611b9d565b60405161081c9190614029565b60405180910390f35b34801561083157600080fd5b5061084c600480360381019061084791906142a1565b611c2b565b005b34801561085a57600080fd5b506108756004803603810190610870919061471b565b611c50565b005b34801561088357600080fd5b5061089e60048036038101906108999190614081565b611cb2565b6040516108ab9190614029565b60405180910390f35b3480156108c057600080fd5b506108db60048036038101906108d69190614866565b611dc4565b005b3480156108e957600080fd5b5061090460048036038101906108ff91906148af565b611efa565b6040516109119190613ef3565b60405180910390f35b34801561092657600080fd5b50610941600480360381019061093c9190614081565b611f8e565b005b34801561094f57600080fd5b5061096a60048036038101906109659190613f6c565b611fbb565b005b34801561097857600080fd5b50610993600480360381019061098e9190614081565b61203e565b005b3480156109a157600080fd5b506109aa612050565b005b60006109b782612121565b9050919050565b6109c6612182565b6000601460008373ffffffffffffffffffffffffffffffffffffffff1673ffffffffffffffffffffffffffffffffffffffff16815260200190815260200160002060006101000a81548160ff02191690831515021790555050565b606060008054610a309061491e565b80601f0160208091040260200160405190810160405280929190818152602001828054610a5c9061491e565b8015610aa95780601f10610a7e57610100808354040283529160200191610aa9565b820191906000526020600020905b815481529060010190602001808311610a8c57829003601f168201915b5050505050905090565b6000610abe82612200565b6004600083815260200190815260200160002060009054906101000a900473ffffffffffffffffffffffffffffffffffffffff169050919050565b6000610b0482611520565b90508073ffffffffffffffffffffffffffffffffffffffff168373ffffffffffffffffffffffffffffffffffffffff1603610b74576040517f08c379a0000000000000000000000000000000000000000000000000000000008152600401610b6b906149c1565b60405180910390fd5b8073ffffffffffffffffffffffffffffffffffffffff16610b9361224b565b73ffffffffffffffffffffffffffffffffffffffff161480610bc25750610bc181610bbc61224b565b611efa565b5b610c01576040517f08c379a0000000000000000000000000000000000000000000000000000000008152600401610bf890614a53565b60405180910390fd5b610c0b8383612253565b505050565b60001515601960009054906101000a900460ff16151503610d0857601460003373ffffffffffffffffffffffffffffffffffffffff1673ffffffffffffffffffffffffffffffffffffffff16815260200190815260200160002060009054906101000a900460ff16610cb7576040517f08c379a0000000000000000000000000000000000000000000000000000000008152600401610cae90614abf565b60405180910390fd5b600d546018541015610cfe576040517f08c379a0000000000000000000000000000000000000000000000000000000008152600401610cf590614b51565b60405180910390fd5b610d073361230c565b5b60011515601960009054906101000a900460ff16151503610e1057600a54610d2f3361161b565b10610d6f576040517f08c379a0000000000000000000000000000000000000000000000000000000008152600401610d6690614b51565b60405180910390fd5b601460003373ffffffffffffffffffffffffffffffffffffffff1673ffffffffffffffffffffffffffffffffffffffff16815260200190815260200160002060009054906101000a900460ff16610e0657600b54341015610e05576040517f08c379a0000000000000000000000000000000000000000000000000000000008152600401610dfc90614bbd565b60405180910390fd5b5b610e0f3361230c565b5b565b60606000610e1f8361161b565b905060008167ffffffffffffffff811115610e3d57610e3c6144f3565b5b604051908082528060200260200182016040528015610e6b5781602001602082028036833780820191505090505b509050600080600190505b610e806008612b58565b8111610f1557610e8f81612b66565b8015610ece57508573ffffffffffffffffffffffffffffffffffffffff16610eb682611520565b73ffffffffffffffffffffffffffffffffffffffff16145b15610f025780838381518110610ee757610ee6614bdd565b5b6020026020010181815250508180610efe90614c3b565b9250505b8080610f0d90614c3b565b915050610e76565b50819350505050919050565b600d5481565b6000610f31612182565b600c60009054906101000a900473ffffffffffffffffffffffffffffffffffffffff16905090565b610f6a610f6461224b565b82612ba7565b610fa9576040517f08c379a0000000000000000000000000000000000000000000000000000000008152600401610fa090614cf5565b60405180910390fd5b610fb4838383612c3c565b505050565b610fc1612182565b60011515601760009054906101000a900460ff16151514611017576040517f08c379a000000000000000000000000000000000000000000000000000000000815260040161100e90614d87565b60405180910390fd5b60004790503373ffffffffffffffffffffffffffffffffffffffff166108fc829081150290604051600060405180830381858888f19350505050158015611062573d6000803e3d6000fd5b5050565b61108183838360405180602001604052806000815250611c50565b505050565b61108e612182565b80601960006101000a81548160ff02191690831515021790555050565b6000806110b783610e12565b90506000805b82518110156112cb57600060038111156110da576110d961430e565b5b601560008584815181106110f1576110f0614bdd565b5b6020026020010151815260200190815260200160002060010160009054906101000a900460ff16600381111561112a5761112961430e565b5b036111435760018261113c9190614da7565b91506112b8565b600160038111156111575761115661430e565b5b6015600085848151811061116e5761116d614bdd565b5b6020026020010151815260200190815260200160002060010160009054906101000a900460ff1660038111156111a7576111a661430e565b5b036111c0576005826111b99190614da7565b91506112b7565b600260038111156111d4576111d361430e565b5b601560008584815181106111eb576111ea614bdd565b5b6020026020010151815260200190815260200160002060010160009054906101000a900460ff1660038111156112245761122361430e565b5b0361123d57600f826112369190614da7565b91506112b6565b6003808111156112505761124f61430e565b5b6015600085848151811061126757611266614bdd565b5b6020026020010151815260200190815260200160002060010160009054906101000a900460ff1660038111156112a05761129f61430e565b5b036112b5576032826112b29190614da7565b91505b5b5b5b80806112c390614c3b565b9150506110bd565b508092505050919050565b6112de612182565b60008211611321576040517f08c379a000000000000000000000000000000000000000000000000000000000815260040161131890614e4d565b60405180910390fd5b601380549050821115611369576040517f08c379a000000000000000000000000000000000000000000000000000000000815260040161136090614edf565b60405180910390fd5b60008111801561137a575060648111155b6113b9576040517f08c379a00000000000000000000000000000000000000000000000000000000081526004016113b090614f71565b60405180910390fd5b60006113c48361196a565b90506000606483476113d69190614f91565b6113e09190615002565b905060005b8481101561146c57828181518110611400576113ff614bdd565b5b602002602001015173ffffffffffffffffffffffffffffffffffffffff166108fc868461142d9190615002565b9081150290604051600060405180830381858888f19350505050158015611458573d6000803e3d6000fd5b50808061146490614c3b565b9150506113e5565b5050505050565b601760019054906101000a900473ffffffffffffffffffffffffffffffffffffffff1673ffffffffffffffffffffffffffffffffffffffff163373ffffffffffffffffffffffffffffffffffffffff1614611503576040517f08c379a00000000000000000000000000000000000000000000000000000000081526004016114fa9061507f565b60405180910390fd5b80601760006101000a81548160ff02191690831515021790555050565b60008061152c83612f35565b9050600073ffffffffffffffffffffffffffffffffffffffff168173ffffffffffffffffffffffffffffffffffffffff160361159d576040517f08c379a0000000000000000000000000000000000000000000000000000000008152600401611594906150eb565b60405180910390fd5b80915050919050565b60006115b182612b66565b6115f0576040517f08c379a00000000000000000000000000000000000000000000000000000000081526004016115e790615157565b60405180910390fd5b6015600083815260200190815260200160002060010160009054906101000a900460ff169050919050565b60008073ffffffffffffffffffffffffffffffffffffffff168273ffffffffffffffffffffffffffffffffffffffff160361168b576040517f08c379a0000000000000000000000000000000000000000000000000000000008152600401611682906151e9565b60405180910390fd5b600360008373ffffffffffffffffffffffffffffffffffffffff1673ffffffffffffffffffffffffffffffffffffffff168152602001908152602001600020549050919050565b6116da612182565b6116e46000612f72565b565b6060601680548060200260200160405190810160405280929190818152602001828054801561173457602002820191906000526020600020905b815481526020019060010190808311611720575b5050505050905090565b611746612182565b6001601460008373ffffffffffffffffffffffffffffffffffffffff1673ffffffffffffffffffffffffffffffffffffffff16815260200190815260200160002060006101000a81548160ff02191690831515021790555050565b6000600760009054906101000a900473ffffffffffffffffffffffffffffffffffffffff16905090565b3373ffffffffffffffffffffffffffffffffffffffff166117eb82611520565b73ffffffffffffffffffffffffffffffffffffffff1614611841576040517f08c379a00000000000000000000000000000000000000000000000000000000081526004016118389061527b565b60405180910390fd5b61184c338383611066565b5050565b60606001805461185f9061491e565b80601f016020809104026020016040519081016040528092919081815260200182805461188b9061491e565b80156118d85780601f106118ad576101008083540402835291602001916118d8565b820191906000526020600020905b8154815290600101906020018083116118bb57829003601f168201915b5050505050905090565b6000601460003373ffffffffffffffffffffffffffffffffffffffff1673ffffffffffffffffffffffffffffffffffffffff16815260200190815260200160002060009054906101000a900460ff161561193f5760009050611945565b600b5490505b90565b600a5481565b600b5481565b61196661195f61224b565b8383613038565b5050565b6060600082116119af576040517f08c379a00000000000000000000000000000000000000000000000000000000081526004016119a6906152e7565b60405180910390fd5b6013805490508211156119f7576040517f08c379a00000000000000000000000000000000000000000000000000000000081526004016119ee90615379565b60405180910390fd5b60008267ffffffffffffffff811115611a1357611a126144f3565b5b604051908082528060200260200182016040528015611a415781602001602082028036833780820191505090505b5090506000611a4e6131a4565b905060005b84811015611ad657818181518110611a6e57611a6d614bdd565b5b6020026020010151838281518110611a8957611a88614bdd565b5b602002602001019073ffffffffffffffffffffffffffffffffffffffff16908173ffffffffffffffffffffffffffffffffffffffff16815250508080611ace90614c3b565b915050611a53565b508192505050919050565b60156020528060005260406000206000915090508060000154908060010160009054906101000a900460ff16905082565b611b1a612182565b60008103611b3a5781600e6000019081611b349190615545565b50611b99565b60018103611b5a5781600e6001019081611b549190615545565b50611b98565b60028103611b7a5781600e6002019081611b749190615545565b50611b97565b60038103611b965781600e6003019081611b949190615545565b505b5b5b5b5050565b60098054611baa9061491e565b80601f0160208091040260200160405190810160405280929190818152602001828054611bd69061491e565b8015611c235780601f10611bf857610100808354040283529160200191611c23565b820191906000526020600020905b815481529060010190602001808311611c0657829003601f168201915b505050505081565b611c33612182565b80601260006101000a81548160ff02191690831515021790555050565b611c61611c5b61224b565b83612ba7565b611ca0576040517f08c379a0000000000000000000000000000000000000000000000000000000008152600401611c9790614cf5565b60405180910390fd5b611cac84848484613500565b50505050565b6060611cbd82612200565b6000600660008481526020019081526020016000208054611cdd9061491e565b80601f0160208091040260200160405190810160405280929190818152602001828054611d099061491e565b8015611d565780601f10611d2b57610100808354040283529160200191611d56565b820191906000526020600020905b815481529060010190602001808311611d3957829003601f168201915b505050505090506000611d6761355c565b90506000815103611d7c578192505050611dbf565b600082511115611db1578082604051602001611d99929190615653565b60405160208183030381529060405292505050611dbf565b611dba84613573565b925050505b919050565b611dcc612182565b6004815114611e10576040517f08c379a0000000000000000000000000000000000000000000000000000000008152600401611e07906156c3565b60405180910390fd5b606481600381518110611e2657611e25614bdd565b5b602002602001015182600281518110611e4257611e41614bdd565b5b602002602001015183600181518110611e5e57611e5d614bdd565b5b602002602001015184600081518110611e7a57611e79614bdd565b5b6020026020010151611e8c9190614da7565b611e969190614da7565b611ea09190614da7565b14611ee0576040517f08c379a0000000000000000000000000000000000000000000000000000000008152600401611ed79061572f565b60405180910390fd5b8060169080519060200190611ef6929190613dd5565b5050565b6000600560008473ffffffffffffffffffffffffffffffffffffffff1673ffffffffffffffffffffffffffffffffffffffff16815260200190815260200160002060008373ffffffffffffffffffffffffffffffffffffffff1673ffffffffffffffffffffffffffffffffffffffff16815260200190815260200160002060009054906101000a900460ff16905092915050565b611f96612182565b80600b819055506001601260006101000a81548160ff02191690831515021790555050565b611fc3612182565b600073ffffffffffffffffffffffffffffffffffffffff168173ffffffffffffffffffffffffffffffffffffffff1603612032576040517f08c379a0000000000000000000000000000000000000000000000000000000008152600401612029906157c1565b60405180910390fd5b61203b81612f72565b50565b612046612182565b80600a8190555050565b73f30607e0cdec7188d50d2bb384073bf1d5b02fa473ffffffffffffffffffffffffffffffffffffffff163373ffffffffffffffffffffffffffffffffffffffff16146120d2576040517f08c379a00000000000000000000000000000000000000000000000000000000081526004016120c990615853565b60405180910390fd5b60004790503373ffffffffffffffffffffffffffffffffffffffff166108fc829081150290604051600060405180830381858888f1935050505015801561211d573d6000803e3d6000fd5b5050565b6000634906490660e01b7bffffffffffffffffffffffffffffffffffffffffffffffffffffffff1916827bffffffffffffffffffffffffffffffffffffffffffffffffffffffff1916148061217b575061217a826135db565b5b9050919050565b61218a61224b565b73ffffffffffffffffffffffffffffffffffffffff166121a86117a1565b73ffffffffffffffffffffffffffffffffffffffff16146121fe576040517f08c379a00000000000000000000000000000000000000000000000000000000081526004016121f5906158bf565b60405180910390fd5b565b61220981612b66565b612248576040517f08c379a000000000000000000000000000000000000000000000000000000000815260040161223f906150eb565b60405180910390fd5b50565b600033905090565b816004600083815260200190815260200160002060006101000a81548173ffffffffffffffffffffffffffffffffffffffff021916908373ffffffffffffffffffffffffffffffffffffffff160217905550808273ffffffffffffffffffffffffffffffffffffffff166122c683611520565b73ffffffffffffffffffffffffffffffffffffffff167f8c5be1e5ebec7d5bd14f71427d1e84f3dd0314c0f7b2291e5b200ac8c7c3b92560405160405180910390a45050565b600043424433600c60009054906101000a900473ffffffffffffffffffffffffffffffffffffffff16604051602001612349959493929190615948565b6040516020818303038152906040528051906020012060001c9050600060648261237391906159a7565b90506000601660008154811061238c5761238b614bdd565b5b9060005260206000200154821080156123a6575060008210155b156123b45760009050612519565b60166001815481106123c9576123c8614bdd565b5b906000526020600020015460166000815481106123e9576123e8614bdd565b5b90600052602060002001546123fe9190614da7565b8210801561242b5750601660008154811061241c5761241b614bdd565b5b90600052602060002001548210155b156124395760019050612518565b601660028154811061244e5761244d614bdd565b5b9060005260206000200154601660018154811061246e5761246d614bdd565b5b9060005260206000200154601660008154811061248e5761248d614bdd565b5b90600052602060002001546124a39190614da7565b6124ad9190614da7565b82108015612504575060166001815481106124cb576124ca614bdd565b5b906000526020600020015460166000815481106124eb576124ea614bdd565b5b90600052602060002001546125009190614da7565b8210155b156125125760029050612517565b600390505b5b5b6001600d600082825461252c9190614da7565b9250508190555060001515601260009054906101000a900460ff161515036125b157613a98600d541061256b57655af3107a4000600b819055506125b0565b612710600d541061258857652d79883d2000600b819055506125af565b611388600d54106125a5576512309ce54000600b819055506125ae565b6000600b819055505b5b5b5b33600c60006101000a81548173ffffffffffffffffffffffffffffffffffffffff021916908373ffffffffffffffffffffffffffffffffffffffff1602179055506125fc60086136bd565b60006126086008612b58565b905061261433826136d3565b60006040518060200160405280600081525090506000600381111561263c5761263b61430e565b5b83600381111561264f5761264e61430e565b5b036126e957600e60000180546126649061491e565b80601f01602080910402602001604051908101604052809291908181526020018280546126909061491e565b80156126dd5780601f106126b2576101008083540402835291602001916126dd565b820191906000526020600020905b8154815290600101906020018083116126c057829003601f168201915b505050505090506128fe565b600160038111156126fd576126fc61430e565b5b8360038111156127105761270f61430e565b5b036127aa57600e60010180546127259061491e565b80601f01602080910402602001604051908101604052809291908181526020018280546127519061491e565b801561279e5780601f106127735761010080835404028352916020019161279e565b820191906000526020600020905b81548152906001019060200180831161278157829003601f168201915b505050505090506128fd565b600260038111156127be576127bd61430e565b5b8360038111156127d1576127d061430e565b5b0361286b57600e60020180546127e69061491e565b80601f01602080910402602001604051908101604052809291908181526020018280546128129061491e565b801561285f5780601f106128345761010080835404028352916020019161285f565b820191906000526020600020905b81548152906001019060200180831161284257829003601f168201915b505050505090506128fc565b600e600301805461287b9061491e565b80601f01602080910402602001604051908101604052809291908181526020018280546128a79061491e565b80156128f45780601f106128c9576101008083540402835291602001916128f4565b820191906000526020600020905b8154815290600101906020018083116128d757829003601f168201915b505050505090505b5b5b61290882826138f0565b6000604051806040016040528084815260200185600381111561292e5761292d61430e565b5b815250905080601560008581526020019081526020016000206000820151816000015560208201518160010160006101000a81548160ff0219169083600381111561297c5761297b61430e565b5b02179055509050506000601380549050036129f9576013879080600181540180825580915050600190039060005260206000200160009091909190916101000a81548173ffffffffffffffffffffffffffffffffffffffff021916908373ffffffffffffffffffffffffffffffffffffffff160217905550612b03565b6000805b601380549050811015612a97578873ffffffffffffffffffffffffffffffffffffffff1660138281548110612a3557612a34614bdd565b5b9060005260206000200160009054906101000a900473ffffffffffffffffffffffffffffffffffffffff1673ffffffffffffffffffffffffffffffffffffffff1603612a845760019150612a97565b8080612a8f90614c3b565b9150506129fd565b5080612b01576013889080600181540180825580915050600190039060005260206000200160009091909190916101000a81548173ffffffffffffffffffffffffffffffffffffffff021916908373ffffffffffffffffffffffffffffffffffffffff1602179055505b505b827fe5177288d661448b7d383a5e5f1be3886695859c8c327562a87df71d65e21ac2856003811115612b3857612b3761430e565b5b42604051612b479291906159d8565b60405180910390a250505050505050565b600081600001549050919050565b60008073ffffffffffffffffffffffffffffffffffffffff16612b8883612f35565b73ffffffffffffffffffffffffffffffffffffffff1614159050919050565b600080612bb383611520565b90508073ffffffffffffffffffffffffffffffffffffffff168473ffffffffffffffffffffffffffffffffffffffff161480612bf55750612bf48185611efa565b5b80612c3357508373ffffffffffffffffffffffffffffffffffffffff16612c1b84610ab3565b73ffffffffffffffffffffffffffffffffffffffff16145b91505092915050565b8273ffffffffffffffffffffffffffffffffffffffff16612c5c82611520565b73ffffffffffffffffffffffffffffffffffffffff1614612cb2576040517f08c379a0000000000000000000000000000000000000000000000000000000008152600401612ca990615a73565b60405180910390fd5b600073ffffffffffffffffffffffffffffffffffffffff168273ffffffffffffffffffffffffffffffffffffffff1603612d21576040517f08c379a0000000000000000000000000000000000000000000000000000000008152600401612d1890615b05565b60405180910390fd5b612d2e8383836001613994565b8273ffffffffffffffffffffffffffffffffffffffff16612d4e82611520565b73ffffffffffffffffffffffffffffffffffffffff1614612da4576040517f08c379a0000000000000000000000000000000000000000000000000000000008152600401612d9b90615a73565b60405180910390fd5b6004600082815260200190815260200160002060006101000a81549073ffffffffffffffffffffffffffffffffffffffff02191690556001600360008573ffffffffffffffffffffffffffffffffffffffff1673ffffffffffffffffffffffffffffffffffffffff168152602001908152602001600020600082825403925050819055506001600360008473ffffffffffffffffffffffffffffffffffffffff1673ffffffffffffffffffffffffffffffffffffffff16815260200190815260200160002060008282540192505081905550816002600083815260200190815260200160002060006101000a81548173ffffffffffffffffffffffffffffffffffffffff021916908373ffffffffffffffffffffffffffffffffffffffff160217905550808273ffffffffffffffffffffffffffffffffffffffff168473ffffffffffffffffffffffffffffffffffffffff167fddf252ad1be2c89b69c2b068fc378daa952ba7f163c4a11628f55a4df523b3ef60405160405180910390a4612f30838383600161399a565b505050565b60006002600083815260200190815260200160002060009054906101000a900473ffffffffffffffffffffffffffffffffffffffff169050919050565b6000600760009054906101000a900473ffffffffffffffffffffffffffffffffffffffff16905081600760006101000a81548173ffffffffffffffffffffffffffffffffffffffff021916908373ffffffffffffffffffffffffffffffffffffffff1602179055508173ffffffffffffffffffffffffffffffffffffffff168173ffffffffffffffffffffffffffffffffffffffff167f8be0079c531659141344cd1fd0a4f28419497f9722a3daafe3b4186f6b6457e060405160405180910390a35050565b8173ffffffffffffffffffffffffffffffffffffffff168373ffffffffffffffffffffffffffffffffffffffff16036130a6576040517f08c379a000000000000000000000000000000000000000000000000000000000815260040161309d90615b71565b60405180910390fd5b80600560008573ffffffffffffffffffffffffffffffffffffffff1673ffffffffffffffffffffffffffffffffffffffff16815260200190815260200160002060008473ffffffffffffffffffffffffffffffffffffffff1673ffffffffffffffffffffffffffffffffffffffff16815260200190815260200160002060006101000a81548160ff0219169083151502179055508173ffffffffffffffffffffffffffffffffffffffff168373ffffffffffffffffffffffffffffffffffffffff167f17307eab39ab6107e8899845ad3d59bd9653f200f220920489ca2b5937696c31836040516131979190613ef3565b60405180910390a3505050565b6060600060138054905067ffffffffffffffff8111156131c7576131c66144f3565b5b6040519080825280602002602001820160405280156131f55781602001602082028036833780820191505090505b50905060005b60138054905081101561323b578082828151811061321c5761321b614bdd565b5b602002602001018181525050808061323390614c3b565b9150506131fb565b5060005b60016013805490506132519190615b91565b8110156133db5760006001826132679190614da7565b90505b6013805490508110156133c7576132d8601384838151811061328f5761328e614bdd565b5b6020026020010151815481106132a8576132a7614bdd565b5b9060005260206000200160009054906101000a900473ffffffffffffffffffffffffffffffffffffffff166110ab565b61333960138585815181106132f0576132ef614bdd565b5b60200260200101518154811061330957613308614bdd565b5b9060005260206000200160009054906101000a900473ffffffffffffffffffffffffffffffffffffffff166110ab565b10156133b45782818151811061335257613351614bdd565b5b602002602001015183838151811061336d5761336c614bdd565b5b602002602001015184848151811061338857613387614bdd565b5b602002602001018584815181106133a2576133a1614bdd565b5b60200260200101828152508281525050505b80806133bf90614c3b565b91505061326a565b5080806133d390614c3b565b91505061323f565b50600060138054905067ffffffffffffffff8111156133fd576133fc6144f3565b5b60405190808252806020026020018201604052801561342b5781602001602082028036833780820191505090505b50905060005b6013805490508110156134f757601383828151811061345357613452614bdd565b5b60200260200101518154811061346c5761346b614bdd565b5b9060005260206000200160009054906101000a900473ffffffffffffffffffffffffffffffffffffffff168282815181106134aa576134a9614bdd565b5b602002602001019073ffffffffffffffffffffffffffffffffffffffff16908173ffffffffffffffffffffffffffffffffffffffff168152505080806134ef90614c3b565b915050613431565b50809250505090565b61350b848484612c3c565b613517848484846139a0565b613556576040517f08c379a000000000000000000000000000000000000000000000000000000000815260040161354d90615c37565b60405180910390fd5b50505050565b606060405180602001604052806000815250905090565b606061357e82612200565b600061358861355c565b905060008151116135a857604051806020016040528060008152506135d3565b806135b284613b27565b6040516020016135c3929190615653565b6040516020818303038152906040525b915050919050565b60007f80ac58cd000000000000000000000000000000000000000000000000000000007bffffffffffffffffffffffffffffffffffffffffffffffffffffffff1916827bffffffffffffffffffffffffffffffffffffffffffffffffffffffff191614806136a657507f5b5e139f000000000000000000000000000000000000000000000000000000007bffffffffffffffffffffffffffffffffffffffffffffffffffffffff1916827bffffffffffffffffffffffffffffffffffffffffffffffffffffffff1916145b806136b657506136b582613bf5565b5b9050919050565b6001816000016000828254019250508190555050565b600073ffffffffffffffffffffffffffffffffffffffff168273ffffffffffffffffffffffffffffffffffffffff1603613742576040517f08c379a000000000000000000000000000000000000000000000000000000000815260040161373990615ca3565b60405180910390fd5b61374b81612b66565b1561378b576040517f08c379a000000000000000000000000000000000000000000000000000000000815260040161378290615d0f565b60405180910390fd5b613799600083836001613994565b6137a281612b66565b156137e2576040517f08c379a00000000000000000000000000000000000000000000000000000000081526004016137d990615d0f565b60405180910390fd5b6001600360008473ffffffffffffffffffffffffffffffffffffffff1673ffffffffffffffffffffffffffffffffffffffff16815260200190815260200160002060008282540192505081905550816002600083815260200190815260200160002060006101000a81548173ffffffffffffffffffffffffffffffffffffffff021916908373ffffffffffffffffffffffffffffffffffffffff160217905550808273ffffffffffffffffffffffffffffffffffffffff16600073ffffffffffffffffffffffffffffffffffffffff167fddf252ad1be2c89b69c2b068fc378daa952ba7f163c4a11628f55a4df523b3ef60405160405180910390a46138ec60008383600161399a565b5050565b6138f982612b66565b613938576040517f08c379a000000000000000000000000000000000000000000000000000000000815260040161392f90615da1565b60405180910390fd5b806006600084815260200190815260200160002090816139589190615545565b507ff8e1a15aba9398e019f0b49df1a4fde98ee17ae345cb5f6b5e2c27f5033e8ce7826040516139889190614207565b60405180910390a15050565b50505050565b50505050565b60006139c18473ffffffffffffffffffffffffffffffffffffffff16613c5f565b15613b1a578373ffffffffffffffffffffffffffffffffffffffff1663150b7a026139ea61224b565b8786866040518563ffffffff1660e01b8152600401613a0c9493929190615e16565b6020604051808303816000875af1925050508015613a4857506040513d601f19601f82011682018060405250810190613a459190615e77565b60015b613aca573d8060008114613a78576040519150601f19603f3d011682016040523d82523d6000602084013e613a7d565b606091505b506000815103613ac2576040517f08c379a0000000000000000000000000000000000000000000000000000000008152600401613ab990615c37565b60405180910390fd5b805181602001fd5b63150b7a0260e01b7bffffffffffffffffffffffffffffffffffffffffffffffffffffffff1916817bffffffffffffffffffffffffffffffffffffffffffffffffffffffff191614915050613b1f565b600190505b949350505050565b606060006001613b3684613c82565b01905060008167ffffffffffffffff811115613b5557613b546144f3565b5b6040519080825280601f01601f191660200182016040528015613b875781602001600182028036833780820191505090505b509050600082602001820190505b600115613bea578080600190039150507f3031323334353637383961626364656600000000000000000000000000000000600a86061a8153600a8581613bde57613bdd614fd3565b5b04945060008503613b95575b819350505050919050565b60007f01ffc9a7000000000000000000000000000000000000000000000000000000007bffffffffffffffffffffffffffffffffffffffffffffffffffffffff1916827bffffffffffffffffffffffffffffffffffffffffffffffffffffffff1916149050919050565b6000808273ffffffffffffffffffffffffffffffffffffffff163b119050919050565b600080600090507a184f03e93ff9f4daa797ed6e38ed64bf6a1f0100000000000000008310613ce0577a184f03e93ff9f4daa797ed6e38ed64bf6a1f0100000000000000008381613cd657613cd5614fd3565b5b0492506040810190505b6d04ee2d6d415b85acef81000000008310613d1d576d04ee2d6d415b85acef81000000008381613d1357613d12614fd3565b5b0492506020810190505b662386f26fc100008310613d4c57662386f26fc100008381613d4257613d41614fd3565b5b0492506010810190505b6305f5e1008310613d75576305f5e1008381613d6b57613d6a614fd3565b5b0492506008810190505b6127108310613d9a576127108381613d9057613d8f614fd3565b5b0492506004810190505b60648310613dbd5760648381613db357613db2614fd3565b5b0492506002810190505b600a8310613dcc576001810190505b80915050919050565b828054828255906000526020600020908101928215613e11579160200282015b82811115613e10578251825591602001919060010190613df5565b5b509050613e1e9190613e22565b5090565b5b80821115613e3b576000816000905550600101613e23565b5090565b6000604051905090565b600080fd5b600080fd5b60007fffffffff0000000000000000000000000000000000000000000000000000000082169050919050565b613e8881613e53565b8114613e9357600080fd5b50565b600081359050613ea581613e7f565b92915050565b600060208284031215613ec157613ec0613e49565b5b6000613ecf84828501613e96565b91505092915050565b60008115159050919050565b613eed81613ed8565b82525050565b6000602082019050613f086000830184613ee4565b92915050565b600073ffffffffffffffffffffffffffffffffffffffff82169050919050565b6000613f3982613f0e565b9050919050565b613f4981613f2e565b8114613f5457600080fd5b50565b600081359050613f6681613f40565b92915050565b600060208284031215613f8257613f81613e49565b5b6000613f9084828501613f57565b91505092915050565b600081519050919050565b600082825260208201905092915050565b60005b83811015613fd3578082015181840152602081019050613fb8565b60008484015250505050565b6000601f19601f8301169050919050565b6000613ffb82613f99565b6140058185613fa4565b9350614015818560208601613fb5565b61401e81613fdf565b840191505092915050565b600060208201905081810360008301526140438184613ff0565b905092915050565b6000819050919050565b61405e8161404b565b811461406957600080fd5b50565b60008135905061407b81614055565b92915050565b60006020828403121561409757614096613e49565b5b60006140a58482850161406c565b91505092915050565b6140b781613f2e565b82525050565b60006020820190506140d260008301846140ae565b92915050565b600080604083850312156140ef576140ee613e49565b5b60006140fd85828601613f57565b925050602061410e8582860161406c565b9150509250929050565b600081519050919050565b600082825260208201905092915050565b6000819050602082019050919050565b61414d8161404b565b82525050565b600061415f8383614144565b60208301905092915050565b6000602082019050919050565b600061418382614118565b61418d8185614123565b935061419883614134565b8060005b838110156141c95781516141b08882614153565b97506141bb8361416b565b92505060018101905061419c565b5085935050505092915050565b600060208201905081810360008301526141f08184614178565b905092915050565b6142018161404b565b82525050565b600060208201905061421c60008301846141f8565b92915050565b60008060006060848603121561423b5761423a613e49565b5b600061424986828701613f57565b935050602061425a86828701613f57565b925050604061426b8682870161406c565b9150509250925092565b61427e81613ed8565b811461428957600080fd5b50565b60008135905061429b81614275565b92915050565b6000602082840312156142b7576142b6613e49565b5b60006142c58482850161428c565b91505092915050565b600080604083850312156142e5576142e4613e49565b5b60006142f38582860161406c565b92505060206143048582860161406c565b9150509250929050565b7f4e487b7100000000000000000000000000000000000000000000000000000000600052602160045260246000fd5b6004811061434e5761434d61430e565b5b50565b600081905061435f8261433d565b919050565b600061436f82614351565b9050919050565b61437f81614364565b82525050565b600060208201905061439a6000830184614376565b92915050565b600080604083850312156143b7576143b6613e49565b5b60006143c585828601613f57565b92505060206143d68582860161428c565b9150509250929050565b600081519050919050565b600082825260208201905092915050565b6000819050602082019050919050565b61441581613f2e565b82525050565b6000614427838361440c565b60208301905092915050565b6000602082019050919050565b600061444b826143e0565b61445581856143eb565b9350614460836143fc565b8060005b83811015614491578151614478888261441b565b975061448383614433565b925050600181019050614464565b5085935050505092915050565b600060208201905081810360008301526144b88184614440565b905092915050565b60006040820190506144d560008301856141f8565b6144e26020830184614376565b9392505050565b600080fd5b600080fd5b7f4e487b7100000000000000000000000000000000000000000000000000000000600052604160045260246000fd5b61452b82613fdf565b810181811067ffffffffffffffff8211171561454a576145496144f3565b5b80604052505050565b600061455d613e3f565b90506145698282614522565b919050565b600067ffffffffffffffff821115614589576145886144f3565b5b61459282613fdf565b9050602081019050919050565b82818337600083830152505050565b60006145c16145bc8461456e565b614553565b9050828152602081018484840111156145dd576145dc6144ee565b5b6145e884828561459f565b509392505050565b600082601f830112614605576146046144e9565b5b81356146158482602086016145ae565b91505092915050565b6000806040838503121561463557614634613e49565b5b600083013567ffffffffffffffff81111561465357614652613e4e565b5b61465f858286016145f0565b92505060206146708582860161406c565b9150509250929050565b600067ffffffffffffffff821115614695576146946144f3565b5b61469e82613fdf565b9050602081019050919050565b60006146be6146b98461467a565b614553565b9050828152602081018484840111156146da576146d96144ee565b5b6146e584828561459f565b509392505050565b600082601f830112614702576147016144e9565b5b81356147128482602086016146ab565b91505092915050565b6000806000806080858703121561473557614734613e49565b5b600061474387828801613f57565b945050602061475487828801613f57565b93505060406147658782880161406c565b925050606085013567ffffffffffffffff81111561478657614785613e4e565b5b614792878288016146ed565b91505092959194509250565b600067ffffffffffffffff8211156147b9576147b86144f3565b5b602082029050602081019050919050565b600080fd5b60006147e26147dd8461479e565b614553565b90508083825260208201905060208402830185811115614805576148046147ca565b5b835b8181101561482e578061481a888261406c565b845260208401935050602081019050614807565b5050509392505050565b600082601f83011261484d5761484c6144e9565b5b813561485d8482602086016147cf565b91505092915050565b60006020828403121561487c5761487b613e49565b5b600082013567ffffffffffffffff81111561489a57614899613e4e565b5b6148a684828501614838565b91505092915050565b600080604083850312156148c6576148c5613e49565b5b60006148d485828601613f57565b92505060206148e585828601613f57565b9150509250929050565b7f4e487b7100000000000000000000000000000000000000000000000000000000600052602260045260246000fd5b6000600282049050600182168061493657607f821691505b602082108103614949576149486148ef565b5b50919050565b7f4552433732313a20617070726f76616c20746f2063757272656e74206f776e6560008201527f7200000000000000000000000000000000000000000000000000000000000000602082015250565b60006149ab602183613fa4565b91506149b68261494f565b604082019050919050565b600060208201905081810360008301526149da8161499e565b9050919050565b7f4552433732313a20617070726f76652063616c6c6572206973206e6f7420746f60008201527f6b656e206f776e6572206f7220617070726f76656420666f7220616c6c000000602082015250565b6000614a3d603d83613fa4565b9150614a48826149e1565b604082019050919050565b60006020820190508181036000830152614a6c81614a30565b9050919050565b7f596f7520617265206e6f7420616c6c6f77656420746f206d696e740000000000600082015250565b6000614aa9601b83613fa4565b9150614ab482614a73565b602082019050919050565b60006020820190508181036000830152614ad881614a9c565b9050919050565b7f596f752068617665207265616368656420746865206c696d6974206f66206d6960008201527f6e74696e67000000000000000000000000000000000000000000000000000000602082015250565b6000614b3b602583613fa4565b9150614b4682614adf565b604082019050919050565b60006020820190508181036000830152614b6a81614b2e565b9050919050565b7f496e73756666696369656e742065746865722073656e74000000000000000000600082015250565b6000614ba7601783613fa4565b9150614bb282614b71565b602082019050919050565b60006020820190508181036000830152614bd681614b9a565b9050919050565b7f4e487b7100000000000000000000000000000000000000000000000000000000600052603260045260246000fd5b7f4e487b7100000000000000000000000000000000000000000000000000000000600052601160045260246000fd5b6000614c468261404b565b91507fffffffffffffffffffffffffffffffffffffffffffffffffffffffffffffffff8203614c7857614c77614c0c565b5b600182019050919050565b7f4552433732313a2063616c6c6572206973206e6f7420746f6b656e206f776e6560008201527f72206f7220617070726f76656400000000000000000000000000000000000000602082015250565b6000614cdf602d83613fa4565b9150614cea82614c83565b604082019050919050565b60006020820190508181036000830152614d0e81614cd2565b9050919050565b7f596f752063616e206e6f7420776974686472617720617420746869732074696d60008201527f6500000000000000000000000000000000000000000000000000000000000000602082015250565b6000614d71602183613fa4565b9150614d7c82614d15565b604082019050919050565b60006020820190508181036000830152614da081614d64565b9050919050565b6000614db28261404b565b9150614dbd8361404b565b9250828201905080821115614dd557614dd4614c0c565b5b92915050565b7f4e756d626572206f662077696e6e657273206d7573742062652067726561746560008201527f72207468616e207a65726f000000000000000000000000000000000000000000602082015250565b6000614e37602b83613fa4565b9150614e4282614ddb565b604082019050919050565b60006020820190508181036000830152614e6681614e2a565b9050919050565b7f4e756d626572206f662077696e6e657273206578636565647320746865206e7560008201527f6d626572206f66206d696e74696e672061646472657373657300000000000000602082015250565b6000614ec9603983613fa4565b9150614ed482614e6d565b604082019050919050565b60006020820190508181036000830152614ef881614ebc565b9050919050565b7f5265776172642070657263656e74616765206d7573742062652062657477656560008201527f6e203120616e6420313030000000000000000000000000000000000000000000602082015250565b6000614f5b602b83613fa4565b9150614f6682614eff565b604082019050919050565b60006020820190508181036000830152614f8a81614f4e565b9050919050565b6000614f9c8261404b565b9150614fa78361404b565b9250828202614fb58161404b565b91508282048414831517614fcc57614fcb614c0c565b5b5092915050565b7f4e487b7100000000000000000000000000000000000000000000000000000000600052601260045260246000fd5b600061500d8261404b565b91506150188361404b565b92508261502857615027614fd3565b5b828204905092915050565b7f596f7520617265206e6f7420746865206f776e65720000000000000000000000600082015250565b6000615069601583613fa4565b915061507482615033565b602082019050919050565b600060208201905081810360008301526150988161505c565b9050919050565b7f4552433732313a20696e76616c696420746f6b656e2049440000000000000000600082015250565b60006150d5601883613fa4565b91506150e08261509f565b602082019050919050565b60006020820190508181036000830152615104816150c8565b9050919050565b7f546f6b656e20494420646f6573206e6f74206578697374000000000000000000600082015250565b6000615141601783613fa4565b915061514c8261510b565b602082019050919050565b6000602082019050818103600083015261517081615134565b9050919050565b7f4552433732313a2061646472657373207a65726f206973206e6f74206120766160008201527f6c6964206f776e65720000000000000000000000000000000000000000000000602082015250565b60006151d3602983613fa4565b91506151de82615177565b604082019050919050565b60006020820190508181036000830152615202816151c6565b9050919050565b7f596f7520617265206e6f7420746865206f776e6572206f662074686973204e4660008201527f5400000000000000000000000000000000000000000000000000000000000000602082015250565b6000615265602183613fa4565b915061527082615209565b604082019050919050565b6000602082019050818103600083015261529481615258565b9050919050565b7f546f70206d7573742062652067726561746572207468616e207a65726f000000600082015250565b60006152d1601d83613fa4565b91506152dc8261529b565b602082019050919050565b60006020820190508181036000830152615300816152c4565b9050919050565b7f546f70206578636565647320746865206e756d626572206f66206d696e74696e60008201527f6720616464726573736573000000000000000000000000000000000000000000602082015250565b6000615363602b83613fa4565b915061536e82615307565b604082019050919050565b6000602082019050818103600083015261539281615356565b9050919050565b60008190508160005260206000209050919050565b60006020601f8301049050919050565b600082821b905092915050565b6000600883026153fb7fffffffffffffffffffffffffffffffffffffffffffffffffffffffffffffffff826153be565b61540586836153be565b95508019841693508086168417925050509392505050565b6000819050919050565b600061544261543d6154388461404b565b61541d565b61404b565b9050919050565b6000819050919050565b61545c83615427565b61547061546882615449565b8484546153cb565b825550505050565b600090565b615485615478565b615490818484615453565b505050565b5b818110156154b4576154a960008261547d565b600181019050615496565b5050565b601f8211156154f9576154ca81615399565b6154d3846153ae565b810160208510156154e2578190505b6154f66154ee856153ae565b830182615495565b50505b505050565b600082821c905092915050565b600061551c600019846008026154fe565b1980831691505092915050565b6000615535838361550b565b9150826002028217905092915050565b61554e82613f99565b67ffffffffffffffff811115615567576155666144f3565b5b615571825461491e565b61557c8282856154b8565b600060209050601f8311600181146155af576000841561559d578287015190505b6155a78582615529565b86555061560f565b601f1984166155bd86615399565b60005b828110156155e5578489015182556001820191506020850194506020810190506155c0565b8683101561560257848901516155fe601f89168261550b565b8355505b6001600288020188555050505b505050505050565b600081905092915050565b600061562d82613f99565b6156378185615617565b9350615647818560208601613fb5565b80840191505092915050565b600061565f8285615622565b915061566b8284615622565b91508190509392505050565b7f526172697479206d7573742068617665203420656c656d656e74730000000000600082015250565b60006156ad601b83613fa4565b91506156b882615677565b602082019050919050565b600060208201905081810360008301526156dc816156a0565b9050919050565b7f5468652073756d206f6620726172697479206d75737420626520313030000000600082015250565b6000615719601d83613fa4565b9150615724826156e3565b602082019050919050565b600060208201905081810360008301526157488161570c565b9050919050565b7f4f776e61626c653a206e6577206f776e657220697320746865207a65726f206160008201527f6464726573730000000000000000000000000000000000000000000000000000602082015250565b60006157ab602683613fa4565b91506157b68261574f565b604082019050919050565b600060208201905081810360008301526157da8161579e565b9050919050565b7f4f6e6c79207468652064657369676e6174656420616464726573732063616e2060008201527f7769746864726177000000000000000000000000000000000000000000000000602082015250565b600061583d602883613fa4565b9150615848826157e1565b604082019050919050565b6000602082019050818103600083015261586c81615830565b9050919050565b7f4f776e61626c653a2063616c6c6572206973206e6f7420746865206f776e6572600082015250565b60006158a9602083613fa4565b91506158b482615873565b602082019050919050565b600060208201905081810360008301526158d88161589c565b9050919050565b6000819050919050565b6158fa6158f58261404b565b6158df565b82525050565b60008160601b9050919050565b600061591882615900565b9050919050565b600061592a8261590d565b9050919050565b61594261593d82613f2e565b61591f565b82525050565b600061595482886158e9565b60208201915061596482876158e9565b60208201915061597482866158e9565b6020820191506159848285615931565b6014820191506159948284615931565b6014820191508190509695505050505050565b60006159b28261404b565b91506159bd8361404b565b9250826159cd576159cc614fd3565b5b828206905092915050565b60006040820190506159ed60008301856141f8565b6159fa60208301846141f8565b9392505050565b7f4552433732313a207472616e736665722066726f6d20696e636f72726563742060008201527f6f776e6572000000000000000000000000000000000000000000000000000000602082015250565b6000615a5d602583613fa4565b9150615a6882615a01565b604082019050919050565b60006020820190508181036000830152615a8c81615a50565b9050919050565b7f4552433732313a207472616e7366657220746f20746865207a65726f2061646460008201527f7265737300000000000000000000000000000000000000000000000000000000602082015250565b6000615aef602483613fa4565b9150615afa82615a93565b604082019050919050565b60006020820190508181036000830152615b1e81615ae2565b9050919050565b7f4552433732313a20617070726f766520746f2063616c6c657200000000000000600082015250565b6000615b5b601983613fa4565b9150615b6682615b25565b602082019050919050565b60006020820190508181036000830152615b8a81615b4e565b9050919050565b6000615b9c8261404b565b9150615ba78361404b565b9250828203905081811115615bbf57615bbe614c0c565b5b92915050565b7f4552433732313a207472616e7366657220746f206e6f6e20455243373231526560008201527f63656976657220696d706c656d656e7465720000000000000000000000000000602082015250565b6000615c21603283613fa4565b9150615c2c82615bc5565b604082019050919050565b60006020820190508181036000830152615c5081615c14565b9050919050565b7f4552433732313a206d696e7420746f20746865207a65726f2061646472657373600082015250565b6000615c8d602083613fa4565b9150615c9882615c57565b602082019050919050565b60006020820190508181036000830152615cbc81615c80565b9050919050565b7f4552433732313a20746f6b656e20616c7265616479206d696e74656400000000600082015250565b6000615cf9601c83613fa4565b9150615d0482615cc3565b602082019050919050565b60006020820190508181036000830152615d2881615cec565b9050919050565b7f45524337323155524953746f726167653a2055524920736574206f66206e6f6e60008201527f6578697374656e7420746f6b656e000000000000000000000000000000000000602082015250565b6000615d8b602e83613fa4565b9150615d9682615d2f565b604082019050919050565b60006020820190508181036000830152615dba81615d7e565b9050919050565b600081519050919050565b600082825260208201905092915050565b6000615de882615dc1565b615df28185615dcc565b9350615e02818560208601613fb5565b615e0b81613fdf565b840191505092915050565b6000608082019050615e2b60008301876140ae565b615e3860208301866140ae565b615e4560408301856141f8565b8181036060830152615e578184615ddd565b905095945050505050565b600081519050615e7181613e7f565b92915050565b600060208284031215615e8d57615e8c613e49565b5b6000615e9b84828501615e62565b9150509291505056fea2646970667358221220cefa7e421fff880e2513b5b924fcb90aaedc551f9c9f3b3ee313ae85cd55269364736f6c6343000812003368747470733a2f2f7265642d666c79696e672d6c796e782d3537382e6d7970696e6174612e636c6f75642f697066732f516d66446952525547505444596141564b557975424d4d315734646750545377466644686b46766a3768654c4d773f5f676c3d312a7162723932782a5f67612a4d5463794e4455344d5441354c6a45324f5441784f544d334d7a592e2a5f67615f35524d505847313454452a4d5459354d6a49334e7a45304d4334334c6a45754d5459354d6a49334f546b774e7934794d4334774c6a412e68747470733a2f2f7265642d666c79696e672d6c796e782d3537382e6d7970696e6174612e636c6f75642f697066732f516d5a7436667a35657269516833346b4241623442746d436774734342773534473172346a42776d3955697236463f5f676c3d312a6f316a6f33692a5f67612a4d5463794e4455344d5441354c6a45324f5441784f544d334d7a592e2a5f67615f35524d505847313454452a4d5459354d6a49334e7a45304d4334334c6a45754d5459354d6a49334f546b7a4d5334324d4334774c6a412e68747470733a2f2f7265642d666c79696e672d6c796e782d3537382e6d7970696e6174612e636c6f75642f697066732f516d617a5a424555335746686938326b6f50676864414b65346266514132614e73514b54337056703665683247413f5f676c3d312a31746b616877732a5f67612a4d5463794e4455344d5441354c6a45324f5441784f544d334d7a592e2a5f67615f35524d505847313454452a4d5459354d6a49334e7a45304d4334334c6a45754d5459354d6a49334f5467324e7934324d4334774c6a412e68747470733a2f2f7265642d666c79696e672d6c796e782d3537382e6d7970696e6174612e636c6f75642f697066732f516d536a366252566f7639546e6f4373346d75535757637165754b3535337867745566616a7068366b6d4b314d323f5f676c3d312a31396d737577682a5f67612a4d5463794e4455344d5441354c6a45324f5441784f544d334d7a592e2a5f67615f35524d505847313454452a4d5459354d6a49334e7a45304d4334334c6a45754d5459354d6a49334f546b304e4334304e7934774c6a412e",
  "linkReferences": {},
  "deployedLinkReferences": {}
}