{
  "_format": "hh-sol-artifact-1",
  "contractName": "BaseXNFT",
  "sourceName": "contracts/BaseXNFT.sol",
  "abi": [
    {
      "inputs": [
        {
          "internalType": "address",
          "name": "_ownerWithDraw",
          "type": "address"
        },
        {
          "internalType": "address",
          "name": "addressOfBasicNFTContract",
          "type": "address"
        }
      ],
      "stateMutability": "nonpayable",
      "type": "constructor"
    },
    {
      "anonymous": false,
      "inputs": [
        {
          "indexed": true,
          "internalType": "address",
          "name": "owner",
          "type": "address"
        },
        {
          "indexed": true,
          "internalType": "address",
          "name": "approved",
          "type": "address"
        },
        {
          "indexed": true,
          "internalType": "uint256",
          "name": "tokenId",
          "type": "uint256"
        }
      ],
      "name": "Approval",
      "type": "event"
    },
    {
      "anonymous": false,
      "inputs": [
        {
          "indexed": true,
          "internalType": "address",
          "name": "owner",
          "type": "address"
        },
        {
          "indexed": true,
          "internalType": "address",
          "name": "operator",
          "type": "address"
        },
        {
          "indexed": false,
          "internalType": "bool",
          "name": "approved",
          "type": "bool"
        }
      ],
      "name": "ApprovalForAll",
      "type": "event"
    },
    {
      "anonymous": false,
      "inputs": [
        {
          "indexed": false,
          "internalType": "uint256",
          "name": "_fromTokenId",
          "type": "uint256"
        },
        {
          "indexed": false,
          "internalType": "uint256",
          "name": "_toTokenId",
          "type": "uint256"
        }
      ],
      "name": "BatchMetadataUpdate",
      "type": "event"
    },
    {
      "anonymous": false,
      "inputs": [
        {
          "indexed": false,
          "internalType": "uint256",
          "name": "_tokenId",
          "type": "uint256"
        }
      ],
      "name": "MetadataUpdate",
      "type": "event"
    },
    {
      "anonymous": false,
      "inputs": [
        {
          "indexed": true,
          "internalType": "uint256",
          "name": "tokenId",
          "type": "uint256"
        },
        {
          "indexed": false,
          "internalType": "uint256",
          "name": "rank",
          "type": "uint256"
        },
        {
          "indexed": false,
          "internalType": "uint256",
          "name": "time_minted",
          "type": "uint256"
        }
      ],
      "name": "NFTMinted",
      "type": "event"
    },
    {
      "anonymous": false,
      "inputs": [
        {
          "indexed": true,
          "internalType": "address",
          "name": "previousOwner",
          "type": "address"
        },
        {
          "indexed": true,
          "internalType": "address",
          "name": "newOwner",
          "type": "address"
        }
      ],
      "name": "OwnershipTransferred",
      "type": "event"
    },
    {
      "anonymous": false,
      "inputs": [
        {
          "indexed": true,
          "internalType": "address",
          "name": "from",
          "type": "address"
        },
        {
          "indexed": true,
          "internalType": "address",
          "name": "to",
          "type": "address"
        },
        {
          "indexed": true,
          "internalType": "uint256",
          "name": "tokenId",
          "type": "uint256"
        }
      ],
      "name": "Transfer",
      "type": "event"
    },
    {
      "inputs": [],
      "name": "NFT_url",
      "outputs": [
        {
          "internalType": "string",
          "name": "",
          "type": "string"
        }
      ],
      "stateMutability": "view",
      "type": "function"
    },
    {
      "inputs": [
        {
          "internalType": "uint256",
          "name": "",
          "type": "uint256"
        }
      ],
      "name": "NFTs",
      "outputs": [
        {
          "internalType": "uint256",
          "name": "tokenId",
          "type": "uint256"
        },
        {
          "internalType": "enum BaseXNFTLibrary.Rank",
          "name": "rank",
          "type": "uint8"
        }
      ],
      "stateMutability": "view",
      "type": "function"
    },
    {
      "inputs": [
        {
          "internalType": "address",
          "name": "_address",
          "type": "address"
        }
      ],
      "name": "addFreeMintAddress",
      "outputs": [],
      "stateMutability": "nonpayable",
      "type": "function"
    },
    {
      "inputs": [
        {
          "internalType": "address",
          "name": "to",
          "type": "address"
        },
        {
          "internalType": "uint256",
          "name": "tokenId",
          "type": "uint256"
        }
      ],
      "name": "approve",
      "outputs": [],
      "stateMutability": "nonpayable",
      "type": "function"
    },
    {
      "inputs": [
        {
          "internalType": "address",
          "name": "owner",
          "type": "address"
        }
      ],
      "name": "balanceOf",
      "outputs": [
        {
          "internalType": "uint256",
          "name": "",
          "type": "uint256"
        }
      ],
      "stateMutability": "view",
      "type": "function"
    },
    {
      "inputs": [
        {
          "internalType": "uint256[]",
          "name": "_newRarity",
          "type": "uint256[]"
        }
      ],
      "name": "changeRarity",
      "outputs": [],
      "stateMutability": "nonpayable",
      "type": "function"
    },
    {
      "inputs": [
        {
          "internalType": "bool",
          "name": "_flag",
          "type": "bool"
        }
      ],
      "name": "changeWithdrawFlag",
      "outputs": [],
      "stateMutability": "nonpayable",
      "type": "function"
    },
    {
      "inputs": [
        {
          "internalType": "bool",
          "name": "_flag",
          "type": "bool"
        }
      ],
      "name": "changeflagPriceChanged",
      "outputs": [],
      "stateMutability": "nonpayable",
      "type": "function"
    },
    {
      "inputs": [
        {
          "internalType": "uint256",
          "name": "_newLimit",
          "type": "uint256"
        }
      ],
      "name": "editLimitMint",
      "outputs": [],
      "stateMutability": "nonpayable",
      "type": "function"
    },
    {
      "inputs": [
        {
          "internalType": "uint256",
          "name": "_newPrice",
          "type": "uint256"
        }
      ],
      "name": "editPriceMint",
      "outputs": [],
      "stateMutability": "nonpayable",
      "type": "function"
    },
    {
      "inputs": [],
      "name": "getAllUsers",
      "outputs": [
        {
          "internalType": "address[]",
          "name": "",
          "type": "address[]"
        }
      ],
      "stateMutability": "view",
      "type": "function"
    },
    {
      "inputs": [
        {
          "internalType": "uint256",
          "name": "tokenId",
          "type": "uint256"
        }
      ],
      "name": "getApproved",
      "outputs": [
        {
          "internalType": "address",
          "name": "",
          "type": "address"
        }
      ],
      "stateMutability": "view",
      "type": "function"
    },
    {
      "inputs": [],
      "name": "getLastAdress",
      "outputs": [
        {
          "internalType": "address",
          "name": "",
          "type": "address"
        }
      ],
      "stateMutability": "view",
      "type": "function"
    },
    {
      "inputs": [
        {
          "internalType": "uint256",
          "name": "tokenId",
          "type": "uint256"
        }
      ],
      "name": "getNFTRank",
      "outputs": [
        {
          "internalType": "enum BaseXNFTLibrary.Rank",
          "name": "",
          "type": "uint8"
        }
      ],
      "stateMutability": "view",
      "type": "function"
    },
    {
      "inputs": [
        {
          "internalType": "address",
          "name": "user",
          "type": "address"
        }
      ],
      "name": "getOwnedNFTs",
      "outputs": [
        {
          "internalType": "uint256[]",
          "name": "",
          "type": "uint256[]"
        }
      ],
      "stateMutability": "view",
      "type": "function"
    },
    {
      "inputs": [
        {
          "internalType": "address",
          "name": "_user",
          "type": "address"
        }
      ],
      "name": "getPoint",
      "outputs": [
        {
          "internalType": "uint256",
          "name": "",
          "type": "uint256"
        }
      ],
      "stateMutability": "view",
      "type": "function"
    },
    {
      "inputs": [],
      "name": "getPrice",
      "outputs": [
        {
          "internalType": "uint256",
          "name": "",
          "type": "uint256"
        }
      ],
      "stateMutability": "view",
      "type": "function"
    },
    {
      "inputs": [],
      "name": "getRarity",
      "outputs": [
        {
          "internalType": "uint256[]",
          "name": "",
          "type": "uint256[]"
        }
      ],
      "stateMutability": "view",
      "type": "function"
    },
    {
      "inputs": [
        {
          "internalType": "address",
          "name": "owner",
          "type": "address"
        },
        {
          "internalType": "address",
          "name": "operator",
          "type": "address"
        }
      ],
      "name": "isApprovedForAll",
      "outputs": [
        {
          "internalType": "bool",
          "name": "",
          "type": "bool"
        }
      ],
      "stateMutability": "view",
      "type": "function"
    },
    {
      "inputs": [],
      "name": "limitMint",
      "outputs": [
        {
          "internalType": "uint256",
          "name": "",
          "type": "uint256"
        }
      ],
      "stateMutability": "view",
      "type": "function"
    },
    {
      "inputs": [],
      "name": "limitTotalMinted",
      "outputs": [
        {
          "internalType": "uint256",
          "name": "",
          "type": "uint256"
        }
      ],
      "stateMutability": "view",
      "type": "function"
    },
    {
      "inputs": [
        {
          "internalType": "bool",
          "name": "_flag",
          "type": "bool"
        }
      ],
      "name": "mintChangedFlag",
      "outputs": [],
      "stateMutability": "nonpayable",
      "type": "function"
    },
    {
      "inputs": [],
      "name": "mintNFT",
      "outputs": [],
      "stateMutability": "payable",
      "type": "function"
    },
    {
      "inputs": [
        {
          "internalType": "address",
          "name": "to",
          "type": "address"
        },
        {
          "internalType": "uint256",
          "name": "tokenId",
          "type": "uint256"
        },
        {
          "internalType": "string",
          "name": "tokenURI",
          "type": "string"
        }
      ],
      "name": "mintNFT",
      "outputs": [],
      "stateMutability": "nonpayable",
      "type": "function"
    },
    {
      "inputs": [],
      "name": "name",
      "outputs": [
        {
          "internalType": "string",
          "name": "",
          "type": "string"
        }
      ],
      "stateMutability": "view",
      "type": "function"
    },
    {
      "inputs": [],
      "name": "owner",
      "outputs": [
        {
          "internalType": "address",
          "name": "",
          "type": "address"
        }
      ],
      "stateMutability": "view",
      "type": "function"
    },
    {
      "inputs": [
        {
          "internalType": "uint256",
          "name": "tokenId",
          "type": "uint256"
        }
      ],
      "name": "ownerOf",
      "outputs": [
        {
          "internalType": "address",
          "name": "",
          "type": "address"
        }
      ],
      "stateMutability": "view",
      "type": "function"
    },
    {
      "inputs": [],
      "name": "price",
      "outputs": [
        {
          "internalType": "uint256",
          "name": "",
          "type": "uint256"
        }
      ],
      "stateMutability": "view",
      "type": "function"
    },
    {
      "inputs": [
        {
          "internalType": "address",
          "name": "_address",
          "type": "address"
        }
      ],
      "name": "removeFreeMintAddress",
      "outputs": [],
      "stateMutability": "nonpayable",
      "type": "function"
    },
    {
      "inputs": [],
      "name": "renounceOwnership",
      "outputs": [],
      "stateMutability": "nonpayable",
      "type": "function"
    },
    {
      "inputs": [
        {
          "internalType": "address",
          "name": "from",
          "type": "address"
        },
        {
          "internalType": "address",
          "name": "to",
          "type": "address"
        },
        {
          "internalType": "uint256",
          "name": "tokenId",
          "type": "uint256"
        }
      ],
      "name": "safeTransferFrom",
      "outputs": [],
      "stateMutability": "nonpayable",
      "type": "function"
    },
    {
      "inputs": [
        {
          "internalType": "address",
          "name": "from",
          "type": "address"
        },
        {
          "internalType": "address",
          "name": "to",
          "type": "address"
        },
        {
          "internalType": "uint256",
          "name": "tokenId",
          "type": "uint256"
        },
        {
          "internalType": "bytes",
          "name": "data",
          "type": "bytes"
        }
      ],
      "name": "safeTransferFrom",
      "outputs": [],
      "stateMutability": "nonpayable",
      "type": "function"
    },
    {
      "inputs": [
        {
          "internalType": "address",
          "name": "operator",
          "type": "address"
        },
        {
          "internalType": "bool",
          "name": "approved",
          "type": "bool"
        }
      ],
      "name": "setApprovalForAll",
      "outputs": [],
      "stateMutability": "nonpayable",
      "type": "function"
    },
    {
      "inputs": [
        {
          "internalType": "bytes4",
          "name": "interfaceId",
          "type": "bytes4"
        }
      ],
      "name": "supportsInterface",
      "outputs": [
        {
          "internalType": "bool",
          "name": "",
          "type": "bool"
        }
      ],
      "stateMutability": "view",
      "type": "function"
    },
    {
      "inputs": [],
      "name": "symbol",
      "outputs": [
        {
          "internalType": "string",
          "name": "",
          "type": "string"
        }
      ],
      "stateMutability": "view",
      "type": "function"
    },
    {
      "inputs": [],
      "name": "test",
      "outputs": [],
      "stateMutability": "nonpayable",
      "type": "function"
    },
    {
      "inputs": [
        {
          "internalType": "uint256",
          "name": "tokenId",
          "type": "uint256"
        }
      ],
      "name": "tokenURI",
      "outputs": [
        {
          "internalType": "string",
          "name": "",
          "type": "string"
        }
      ],
      "stateMutability": "view",
      "type": "function"
    },
    {
      "inputs": [],
      "name": "totalSupply",
      "outputs": [
        {
          "internalType": "uint256",
          "name": "",
          "type": "uint256"
        }
      ],
      "stateMutability": "view",
      "type": "function"
    },
    {
      "inputs": [
        {
          "internalType": "address",
          "name": "from",
          "type": "address"
        },
        {
          "internalType": "address",
          "name": "to",
          "type": "address"
        },
        {
          "internalType": "uint256",
          "name": "tokenId",
          "type": "uint256"
        }
      ],
      "name": "transferFrom",
      "outputs": [],
      "stateMutability": "nonpayable",
      "type": "function"
    },
    {
      "inputs": [
        {
          "internalType": "address",
          "name": "to",
          "type": "address"
        },
        {
          "internalType": "uint256",
          "name": "tokenId",
          "type": "uint256"
        }
      ],
      "name": "transferNFT",
      "outputs": [],
      "stateMutability": "nonpayable",
      "type": "function"
    },
    {
      "inputs": [
        {
          "internalType": "address",
          "name": "newOwner",
          "type": "address"
        }
      ],
      "name": "transferOwnership",
      "outputs": [],
      "stateMutability": "nonpayable",
      "type": "function"
    },
    {
      "inputs": [
        {
          "internalType": "address",
          "name": "to",
          "type": "address"
        }
      ],
      "name": "transferOwnershipNFT",
      "outputs": [],
      "stateMutability": "nonpayable",
      "type": "function"
    },
    {
      "inputs": [],
      "name": "withdraw",
      "outputs": [],
      "stateMutability": "nonpayable",
      "type": "function"
    },
    {
      "inputs": [
        {
          "internalType": "uint256",
          "name": "numberOfWinners",
          "type": "uint256"
        },
        {
          "internalType": "uint256",
          "name": "rewardPercentage",
          "type": "uint256"
        },
        {
          "internalType": "address[]",
          "name": "topAddresses",
          "type": "address[]"
        }
      ],
      "name": "withdrawRewards",
      "outputs": [],
      "stateMutability": "nonpayable",
      "type": "function"
    }
  ],
  "bytecode": "0x60806040526040518060800160405280604051806080016040528060568152602001620066ed6056913981526020016040518060800160405280605681526020016200674360569139815260200160405180608001604052806056815260200162006799605691398152602001604051806080016040528060568152602001620067ef60569139815250600b6000820151816000019081620000a291906200070f565b506020820151816001019081620000ba91906200070f565b506040820151816002019081620000d291906200070f565b506060820151816003019081620000ea91906200070f565b5050506000601460006101000a81548160ff0219169083151502179055503480156200011557600080fd5b50604051620068453803806200684583398181016040528101906200013b919062000860565b6040518060400160405280600981526020017f4261736963204e465400000000000000000000000000000000000000000000008152506040518060400160405280600481526020017f424e4654000000000000000000000000000000000000000000000000000000008152508160009081620001b891906200070f565b508060019081620001ca91906200070f565b505050620001ed620001e1620003c760201b60201c565b620003cf60201b60201c565b600a600f8190555033601160006101000a81548173ffffffffffffffffffffffffffffffffffffffff021916908373ffffffffffffffffffffffffffffffffffffffff160217905550600060128190555060006010819055506018603c90806001815401808255809150506001900390600052602060002001600090919091909150556018601990806001815401808255809150506001900390600052602060002001600090919091909150556018600a90806001815401808255809150506001900390600052602060002001600090919091909150556018600590806001815401808255809150506001900390600052602060002001600090919091909150556000601960006101000a81548160ff02191690831515021790555081601960016101000a81548173ffffffffffffffffffffffffffffffffffffffff021916908373ffffffffffffffffffffffffffffffffffffffff1602179055506064601a819055506000601b60006101000a81548160ff021916908315150217905550614e206013819055506014601c8190555080600860006101000a81548173ffffffffffffffffffffffffffffffffffffffff021916908373ffffffffffffffffffffffffffffffffffffffff1602179055505050620008a7565b600033905090565b6000600760009054906101000a900473ffffffffffffffffffffffffffffffffffffffff16905081600760006101000a81548173ffffffffffffffffffffffffffffffffffffffff021916908373ffffffffffffffffffffffffffffffffffffffff1602179055508173ffffffffffffffffffffffffffffffffffffffff168173ffffffffffffffffffffffffffffffffffffffff167f8be0079c531659141344cd1fd0a4f28419497f9722a3daafe3b4186f6b6457e060405160405180910390a35050565b600081519050919050565b7f4e487b7100000000000000000000000000000000000000000000000000000000600052604160045260246000fd5b7f4e487b7100000000000000000000000000000000000000000000000000000000600052602260045260246000fd5b600060028204905060018216806200051757607f821691505b6020821081036200052d576200052c620004cf565b5b50919050565b60008190508160005260206000209050919050565b60006020601f8301049050919050565b600082821b905092915050565b600060088302620005977fffffffffffffffffffffffffffffffffffffffffffffffffffffffffffffffff8262000558565b620005a3868362000558565b95508019841693508086168417925050509392505050565b6000819050919050565b6000819050919050565b6000620005f0620005ea620005e484620005bb565b620005c5565b620005bb565b9050919050565b6000819050919050565b6200060c83620005cf565b620006246200061b82620005f7565b84845462000565565b825550505050565b600090565b6200063b6200062c565b6200064881848462000601565b505050565b5b8181101562000670576200066460008262000631565b6001810190506200064e565b5050565b601f821115620006bf57620006898162000533565b620006948462000548565b81016020851015620006a4578190505b620006bc620006b38562000548565b8301826200064d565b50505b505050565b600082821c905092915050565b6000620006e460001984600802620006c4565b1980831691505092915050565b6000620006ff8383620006d1565b9150826002028217905092915050565b6200071a8262000495565b67ffffffffffffffff811115620007365762000735620004a0565b5b620007428254620004fe565b6200074f82828562000674565b600060209050601f83116001811462000787576000841562000772578287015190505b6200077e8582620006f1565b865550620007ee565b601f198416620007978662000533565b60005b82811015620007c1578489015182556001820191506020850194506020810190506200079a565b86831015620007e15784890151620007dd601f891682620006d1565b8355505b6001600288020188555050505b505050505050565b600080fd5b600073ffffffffffffffffffffffffffffffffffffffff82169050919050565b60006200082882620007fb565b9050919050565b6200083a816200081b565b81146200084657600080fd5b50565b6000815190506200085a816200082f565b92915050565b600080604083850312156200087a5762000879620007f6565b5b60006200088a8582860162000849565b92505060206200089d8582860162000849565b9150509250929050565b615e3680620008b76000396000f3fe6080604052600436106102675760003560e01c80637b32cdba11610144578063b784902e116100b6578063e2842d791161007a578063e2842d791461090a578063e985e9c514610935578063ebb24c3214610972578063f2fde38b1461099b578063f4f3b059146109c4578063f8a8fd6d146109ed57610267565b8063b784902e14610829578063b88d4fde14610852578063c4f8d6061461087b578063c87b56dd146108a4578063e1d031f5146108e157610267565b806398d5fdca1161010857806398d5fdca146107165780639b52592414610741578063a035b1fe1461076c578063a22cb46514610797578063a3c0b95b146107c0578063b63b3d57146107fe57610267565b80637b32cdba14610643578063840286971461066e5780638da5cb5b1461069757806394ab67fe146106c257806395d89b41146106eb57610267565b80632724d591116101dd5780634ff531b6116101a15780634ff531b61461050f5780635b7c0dc71461054c5780636352211e146105755780636c5bf32e146105b257806370a08231146105ef578063715018a61461062c57610267565b80632724d5911461045257806328ef5ec51461047b5780633ccfd60b146104a657806342842e0e146104bd5780634759a421146104e657610267565b806314f710fe1161022f57806314f710fe1461036357806318148f1b1461036d57806318160ddd146103aa5780631b163a9d146103d55780631e5769121461040057806323b872dd1461042957610267565b806301ffc9a71461026c57806304890b24146102a957806306fdde03146102d2578063081812fc146102fd578063095ea7b31461033a575b600080fd5b34801561027857600080fd5b50610293600480360381019061028e9190613ca6565b610a04565b6040516102a09190613cee565b60405180910390f35b3480156102b557600080fd5b506102d060048036038101906102cb9190613d67565b610a16565b005b3480156102de57600080fd5b506102e7610a79565b6040516102f49190613e24565b60405180910390f35b34801561030957600080fd5b50610324600480360381019061031f9190613e7c565b610b0b565b6040516103319190613eb8565b60405180910390f35b34801561034657600080fd5b50610361600480360381019061035c9190613ed3565b610b51565b005b61036b610c68565b005b34801561037957600080fd5b50610394600480360381019061038f9190613d67565b610ed7565b6040516103a19190613fd1565b60405180910390f35b3480156103b657600080fd5b506103bf610fe6565b6040516103cc9190614002565b60405180910390f35b3480156103e157600080fd5b506103ea610fec565b6040516103f79190613eb8565b60405180910390f35b34801561040c57600080fd5b5061042760048036038101906104229190614152565b61101e565b005b34801561043557600080fd5b50610450600480360381019061044b91906141c1565b61103f565b005b34801561045e57600080fd5b5061047960048036038101906104749190613d67565b61109f565b005b34801561048757600080fd5b506104906110b3565b60405161049d9190614002565b60405180910390f35b3480156104b257600080fd5b506104bb6110b9565b005b3480156104c957600080fd5b506104e460048036038101906104df91906141c1565b611166565b005b3480156104f257600080fd5b5061050d60048036038101906105089190614240565b611186565b005b34801561051b57600080fd5b5061053660048036038101906105319190613d67565b6111ab565b6040516105439190614002565b60405180910390f35b34801561055857600080fd5b50610573600480360381019061056e9190614240565b6113d6565b005b34801561058157600080fd5b5061059c60048036038101906105979190613e7c565b611483565b6040516105a99190613eb8565b60405180910390f35b3480156105be57600080fd5b506105d960048036038101906105d49190613e7c565b611509565b6040516105e691906142e4565b60405180910390f35b3480156105fb57600080fd5b5061061660048036038101906106119190613d67565b61157e565b6040516106239190614002565b60405180910390f35b34801561063857600080fd5b50610641611635565b005b34801561064f57600080fd5b50610658611649565b6040516106659190613fd1565b60405180910390f35b34801561067a57600080fd5b5061069560048036038101906106909190613d67565b6116a1565b005b3480156106a357600080fd5b506106ac611704565b6040516106b99190613eb8565b60405180910390f35b3480156106ce57600080fd5b506106e960048036038101906106e49190613ed3565b61172e565b005b3480156106f757600080fd5b506107006117b3565b60405161070d9190613e24565b60405180910390f35b34801561072257600080fd5b5061072b611845565b6040516107389190614002565b60405180910390f35b34801561074d57600080fd5b506107566118ab565b6040516107639190614002565b60405180910390f35b34801561077857600080fd5b506107816118b1565b60405161078e9190614002565b60405180910390f35b3480156107a357600080fd5b506107be60048036038101906107b991906142ff565b6118b7565b005b3480156107cc57600080fd5b506107e760048036038101906107e29190613e7c565b6118cd565b6040516107f592919061433f565b60405180910390f35b34801561080a57600080fd5b506108136118fe565b6040516108209190613e24565b60405180910390f35b34801561083557600080fd5b50610850600480360381019061084b9190614240565b61198c565b005b34801561085e57600080fd5b5061087960048036038101906108749190614409565b6119b1565b005b34801561088757600080fd5b506108a2600480360381019061089d9190614554565b611a13565b005b3480156108b057600080fd5b506108cb60048036038101906108c69190613e7c565b611e88565b6040516108d89190613e24565b60405180910390f35b3480156108ed57600080fd5b5061090860048036038101906109039190614686565b611f9a565b005b34801561091657600080fd5b5061091f6120d0565b60405161092c919061478d565b60405180910390f35b34801561094157600080fd5b5061095c600480360381019061095791906147af565b61215e565b6040516109699190613cee565b60405180910390f35b34801561097e57600080fd5b5061099960048036038101906109949190613e7c565b6121f2565b005b3480156109a757600080fd5b506109c260048036038101906109bd9190613d67565b61221f565b005b3480156109d057600080fd5b506109eb60048036038101906109e69190613e7c565b6122a2565b005b3480156109f957600080fd5b50610a026122b4565b005b6000610a0f82612385565b9050919050565b610a1e6123e6565b6000601660008373ffffffffffffffffffffffffffffffffffffffff1673ffffffffffffffffffffffffffffffffffffffff16815260200190815260200160002060006101000a81548160ff02191690831515021790555050565b606060008054610a889061481e565b80601f0160208091040260200160405190810160405280929190818152602001828054610ab49061481e565b8015610b015780601f10610ad657610100808354040283529160200191610b01565b820191906000526020600020905b815481529060010190602001808311610ae457829003601f168201915b5050505050905090565b6000610b1682612464565b6004600083815260200190815260200160002060009054906101000a900473ffffffffffffffffffffffffffffffffffffffff169050919050565b6000610b5c82611483565b90508073ffffffffffffffffffffffffffffffffffffffff168373ffffffffffffffffffffffffffffffffffffffff1603610bcc576040517f08c379a0000000000000000000000000000000000000000000000000000000008152600401610bc3906148c1565b60405180910390fd5b8073ffffffffffffffffffffffffffffffffffffffff16610beb6124af565b73ffffffffffffffffffffffffffffffffffffffff161480610c1a5750610c1981610c146124af565b61215e565b5b610c59576040517f08c379a0000000000000000000000000000000000000000000000000000000008152600401610c5090614953565b60405180910390fd5b610c6383836124b7565b505050565b60135460125410610cae576040517f08c379a0000000000000000000000000000000000000000000000000000000008152600401610ca5906149e5565b60405180910390fd5b60001515601b60009054906101000a900460ff16151503610dcd57601c5460125410610cf0576001601b60006101000a81548160ff0219169083151502179055505b601660003373ffffffffffffffffffffffffffffffffffffffff1673ffffffffffffffffffffffffffffffffffffffff16815260200190815260200160002060009054906101000a900460ff16610d7c576040517f08c379a0000000000000000000000000000000000000000000000000000000008152600401610d7390614a51565b60405180910390fd5b601254601a541015610dc3576040517f08c379a0000000000000000000000000000000000000000000000000000000008152600401610dba90614ae3565b60405180910390fd5b610dcc33612570565b5b60011515601b60009054906101000a900460ff16151503610ed557600f54610df43361157e565b10610e34576040517f08c379a0000000000000000000000000000000000000000000000000000000008152600401610e2b90614ae3565b60405180910390fd5b601660003373ffffffffffffffffffffffffffffffffffffffff1673ffffffffffffffffffffffffffffffffffffffff16815260200190815260200160002060009054906101000a900460ff16610ecb57601054341015610eca576040517f08c379a0000000000000000000000000000000000000000000000000000000008152600401610ec190614b4f565b60405180910390fd5b5b610ed433612570565b5b565b60606000610ee48361157e565b905060008167ffffffffffffffff811115610f0257610f01614027565b5b604051908082528060200260200182016040528015610f305781602001602082028036833780820191505090505b509050600080600190505b610f456009612caf565b8111610fda57610f5481612cbd565b8015610f9357508573ffffffffffffffffffffffffffffffffffffffff16610f7b82611483565b73ffffffffffffffffffffffffffffffffffffffff16145b15610fc75780838381518110610fac57610fab614b6f565b5b6020026020010181815250508180610fc390614bcd565b9250505b8080610fd290614bcd565b915050610f3b565b50819350505050919050565b60125481565b6000610ff66123e6565b601160009054906101000a900473ffffffffffffffffffffffffffffffffffffffff16905090565b6110266123e6565b6110308383612cfe565b61103a8282612f1b565b505050565b61105061104a6124af565b82612fbf565b61108f576040517f08c379a000000000000000000000000000000000000000000000000000000000815260040161108690614c87565b60405180910390fd5b61109a838383613054565b505050565b6110a76123e6565b6110b08161221f565b50565b60135481565b6110c16123e6565b60011515601960009054906101000a900460ff16151514611117576040517f08c379a000000000000000000000000000000000000000000000000000000000815260040161110e90614d19565b60405180910390fd5b60004790503373ffffffffffffffffffffffffffffffffffffffff166108fc829081150290604051600060405180830381858888f19350505050158015611162573d6000803e3d6000fd5b5050565b611181838383604051806020016040528060008152506119b1565b505050565b61118e6123e6565b80601b60006101000a81548160ff02191690831515021790555050565b6000806111b783610ed7565b90506000805b82518110156113cb57600060038111156111da576111d961426d565b5b601760008584815181106111f1576111f0614b6f565b5b6020026020010151815260200190815260200160002060010160009054906101000a900460ff16600381111561122a5761122961426d565b5b036112435760018261123c9190614d39565b91506113b8565b600160038111156112575761125661426d565b5b6017600085848151811061126e5761126d614b6f565b5b6020026020010151815260200190815260200160002060010160009054906101000a900460ff1660038111156112a7576112a661426d565b5b036112c0576005826112b99190614d39565b91506113b7565b600260038111156112d4576112d361426d565b5b601760008584815181106112eb576112ea614b6f565b5b6020026020010151815260200190815260200160002060010160009054906101000a900460ff1660038111156113245761132361426d565b5b0361133d57600f826113369190614d39565b91506113b6565b6003808111156113505761134f61426d565b5b6017600085848151811061136757611366614b6f565b5b6020026020010151815260200190815260200160002060010160009054906101000a900460ff1660038111156113a05761139f61426d565b5b036113b5576032826113b29190614d39565b91505b5b5b5b80806113c390614bcd565b9150506111bd565b508092505050919050565b601960019054906101000a900473ffffffffffffffffffffffffffffffffffffffff1673ffffffffffffffffffffffffffffffffffffffff163373ffffffffffffffffffffffffffffffffffffffff1614611466576040517f08c379a000000000000000000000000000000000000000000000000000000000815260040161145d90614db9565b60405180910390fd5b80601960006101000a81548160ff02191690831515021790555050565b60008061148f8361334d565b9050600073ffffffffffffffffffffffffffffffffffffffff168173ffffffffffffffffffffffffffffffffffffffff1603611500576040517f08c379a00000000000000000000000000000000000000000000000000000000081526004016114f790614e25565b60405180910390fd5b80915050919050565b600061151482612cbd565b611553576040517f08c379a000000000000000000000000000000000000000000000000000000000815260040161154a90614e91565b60405180910390fd5b6017600083815260200190815260200160002060010160009054906101000a900460ff169050919050565b60008073ffffffffffffffffffffffffffffffffffffffff168273ffffffffffffffffffffffffffffffffffffffff16036115ee576040517f08c379a00000000000000000000000000000000000000000000000000000000081526004016115e590614f23565b60405180910390fd5b600360008373ffffffffffffffffffffffffffffffffffffffff1673ffffffffffffffffffffffffffffffffffffffff168152602001908152602001600020549050919050565b61163d6123e6565b611647600061338a565b565b6060601880548060200260200160405190810160405280929190818152602001828054801561169757602002820191906000526020600020905b815481526020019060010190808311611683575b5050505050905090565b6116a96123e6565b6001601660008373ffffffffffffffffffffffffffffffffffffffff1673ffffffffffffffffffffffffffffffffffffffff16815260200190815260200160002060006101000a81548160ff02191690831515021790555050565b6000600760009054906101000a900473ffffffffffffffffffffffffffffffffffffffff16905090565b3373ffffffffffffffffffffffffffffffffffffffff1661174e82611483565b73ffffffffffffffffffffffffffffffffffffffff16146117a4576040517f08c379a000000000000000000000000000000000000000000000000000000000815260040161179b90614fb5565b60405180910390fd5b6117af338383611166565b5050565b6060600180546117c29061481e565b80601f01602080910402602001604051908101604052809291908181526020018280546117ee9061481e565b801561183b5780601f106118105761010080835404028352916020019161183b565b820191906000526020600020905b81548152906001019060200180831161181e57829003601f168201915b5050505050905090565b6000601660003373ffffffffffffffffffffffffffffffffffffffff1673ffffffffffffffffffffffffffffffffffffffff16815260200190815260200160002060009054906101000a900460ff16156118a257600090506118a8565b60105490505b90565b600f5481565b60105481565b6118c96118c26124af565b8383613450565b5050565b60176020528060005260406000206000915090508060000154908060010160009054906101000a900460ff16905082565b600a805461190b9061481e565b80601f01602080910402602001604051908101604052809291908181526020018280546119379061481e565b80156119845780601f1061195957610100808354040283529160200191611984565b820191906000526020600020905b81548152906001019060200180831161196757829003601f168201915b505050505081565b6119946123e6565b80601460006101000a81548160ff02191690831515021790555050565b6119c26119bc6124af565b83612fbf565b611a01576040517f08c379a00000000000000000000000000000000000000000000000000000000081526004016119f890614c87565b60405180910390fd5b611a0d848484846135bc565b50505050565b611a1b6123e6565b60008311611a5e576040517f08c379a0000000000000000000000000000000000000000000000000000000008152600401611a5590615047565b60405180910390fd5b601580549050831115611aa6576040517f08c379a0000000000000000000000000000000000000000000000000000000008152600401611a9d906150d9565b60405180910390fd5b600082118015611ab7575060648211155b611af6576040517f08c379a0000000000000000000000000000000000000000000000000000000008152600401611aed9061516b565b60405180910390fd5b600060648347611b06919061518b565b611b1091906151fc565b905060006064601e83611b23919061518b565b611b2d91906151fc565b905060006064601984611b40919061518b565b611b4a91906151fc565b905060006064601485611b5d919061518b565b611b6791906151fc565b905060006064600f86611b7a919061518b565b611b8491906151fc565b905060006064600a8a611b97919061518b565b611ba191906151fc565b905060006064600f8b611bb4919061518b565b611bbe91906151fc565b90506000606460198c611bd1919061518b565b611bdb91906151fc565b905060008183858e611bed919061522d565b611bf7919061522d565b611c01919061522d565b905060005b84811015611c8d578a8181518110611c2157611c20614b6f565b5b602002602001015173ffffffffffffffffffffffffffffffffffffffff166108fc868b611c4e91906151fc565b9081150290604051600060405180830381858888f19350505050158015611c79573d6000803e3d6000fd5b508080611c8590614bcd565b915050611c06565b5060008490505b8385611ca09190614d39565b811015611d26578a8181518110611cba57611cb9614b6f565b5b602002602001015173ffffffffffffffffffffffffffffffffffffffff166108fc858a611ce791906151fc565b9081150290604051600060405180830381858888f19350505050158015611d12573d6000803e3d6000fd5b508080611d1e90614bcd565b915050611c94565b5060008385611d359190614d39565b90505b828486611d459190614d39565b611d4f9190614d39565b811015611dd5578a8181518110611d6957611d68614b6f565b5b602002602001015173ffffffffffffffffffffffffffffffffffffffff166108fc8489611d9691906151fc565b9081150290604051600060405180830381858888f19350505050158015611dc1573d6000803e3d6000fd5b508080611dcd90614bcd565b915050611d38565b506000828486611de59190614d39565b611def9190614d39565b90505b8c811015611e79578a8181518110611e0d57611e0c614b6f565b5b602002602001015173ffffffffffffffffffffffffffffffffffffffff166108fc8388611e3a91906151fc565b9081150290604051600060405180830381858888f19350505050158015611e65573d6000803e3d6000fd5b508080611e7190614bcd565b915050611df2565b50505050505050505050505050565b6060611e9382612464565b6000600660008481526020019081526020016000208054611eb39061481e565b80601f0160208091040260200160405190810160405280929190818152602001828054611edf9061481e565b8015611f2c5780601f10611f0157610100808354040283529160200191611f2c565b820191906000526020600020905b815481529060010190602001808311611f0f57829003601f168201915b505050505090506000611f3d613618565b90506000815103611f52578192505050611f95565b600082511115611f87578082604051602001611f6f92919061529d565b60405160208183030381529060405292505050611f95565b611f908461362f565b925050505b919050565b611fa26123e6565b6004815114611fe6576040517f08c379a0000000000000000000000000000000000000000000000000000000008152600401611fdd9061530d565b60405180910390fd5b606481600381518110611ffc57611ffb614b6f565b5b60200260200101518260028151811061201857612017614b6f565b5b60200260200101518360018151811061203457612033614b6f565b5b6020026020010151846000815181106120505761204f614b6f565b5b60200260200101516120629190614d39565b61206c9190614d39565b6120769190614d39565b146120b6576040517f08c379a00000000000000000000000000000000000000000000000000000000081526004016120ad90615379565b60405180910390fd5b80601890805190602001906120cc929190613bd0565b5050565b6060601580548060200260200160405190810160405280929190818152602001828054801561215457602002820191906000526020600020905b8160009054906101000a900473ffffffffffffffffffffffffffffffffffffffff1673ffffffffffffffffffffffffffffffffffffffff168152602001906001019080831161210a575b5050505050905090565b6000600560008473ffffffffffffffffffffffffffffffffffffffff1673ffffffffffffffffffffffffffffffffffffffff16815260200190815260200160002060008373ffffffffffffffffffffffffffffffffffffffff1673ffffffffffffffffffffffffffffffffffffffff16815260200190815260200160002060009054906101000a900460ff16905092915050565b6121fa6123e6565b806010819055506001601460006101000a81548160ff02191690831515021790555050565b6122276123e6565b600073ffffffffffffffffffffffffffffffffffffffff168173ffffffffffffffffffffffffffffffffffffffff1603612296576040517f08c379a000000000000000000000000000000000000000000000000000000000815260040161228d9061540b565b60405180910390fd5b61229f8161338a565b50565b6122aa6123e6565b80600f8190555050565b73f30607e0cdec7188d50d2bb384073bf1d5b02fa473ffffffffffffffffffffffffffffffffffffffff163373ffffffffffffffffffffffffffffffffffffffff1614612336576040517f08c379a000000000000000000000000000000000000000000000000000000000815260040161232d9061549d565b60405180910390fd5b60004790503373ffffffffffffffffffffffffffffffffffffffff166108fc829081150290604051600060405180830381858888f19350505050158015612381573d6000803e3d6000fd5b5050565b6000634906490660e01b7bffffffffffffffffffffffffffffffffffffffffffffffffffffffff1916827bffffffffffffffffffffffffffffffffffffffffffffffffffffffff191614806123df57506123de82613697565b5b9050919050565b6123ee6124af565b73ffffffffffffffffffffffffffffffffffffffff1661240c611704565b73ffffffffffffffffffffffffffffffffffffffff1614612462576040517f08c379a000000000000000000000000000000000000000000000000000000000815260040161245990615509565b60405180910390fd5b565b61246d81612cbd565b6124ac576040517f08c379a00000000000000000000000000000000000000000000000000000000081526004016124a390614e25565b60405180910390fd5b50565b600033905090565b816004600083815260200190815260200160002060006101000a81548173ffffffffffffffffffffffffffffffffffffffff021916908373ffffffffffffffffffffffffffffffffffffffff160217905550808273ffffffffffffffffffffffffffffffffffffffff1661252a83611483565b73ffffffffffffffffffffffffffffffffffffffff167f8c5be1e5ebec7d5bd14f71427d1e84f3dd0314c0f7b2291e5b200ac8c7c3b92560405160405180910390a45050565b600073__$7ca6ab702d49da3d9808f7f20ff9f6771e$__638b5c98fa43424433601160009054906101000a900473ffffffffffffffffffffffffffffffffffffffff166040518663ffffffff1660e01b81526004016125d3959493929190615547565b6040805180830381865af41580156125ef573d6000803e3d6000fd5b505050506040513d601f19601f820116820180604052508101906126139190615629565b90506001601260008282546126289190614d39565b9250508190555060001515601460009054906101000a900460ff161515036126cf5773__$7ca6ab702d49da3d9808f7f20ff9f6771e$__63a6413a27601254601c546040518363ffffffff1660e01b8152600401612687929190615656565b602060405180830381865af41580156126a4573d6000803e3d6000fd5b505050506040513d601f19601f820116820180604052508101906126c8919061567f565b6010819055505b81601160006101000a81548173ffffffffffffffffffffffffffffffffffffffff021916908373ffffffffffffffffffffffffffffffffffffffff16021790555061271a6009613779565b60006127266009612caf565b90506060600080600381111561273f5761273e61426d565b5b846020015160038111156127565761275561426d565b5b036127f057600b600001805461276b9061481e565b80601f01602080910402602001604051908101604052809291908181526020018280546127979061481e565b80156127e45780601f106127b9576101008083540402835291602001916127e4565b820191906000526020600020905b8154815290600101906020018083116127c757829003601f168201915b50505050509150612a0d565b600160038111156128045761280361426d565b5b8460200151600381111561281b5761281a61426d565b5b036128b557600b60010180546128309061481e565b80601f016020809104026020016040519081016040528092919081815260200182805461285c9061481e565b80156128a95780601f1061287e576101008083540402835291602001916128a9565b820191906000526020600020905b81548152906001019060200180831161288c57829003601f168201915b50505050509150612a0c565b600260038111156128c9576128c861426d565b5b846020015160038111156128e0576128df61426d565b5b0361297a57600b60020180546128f59061481e565b80601f01602080910402602001604051908101604052809291908181526020018280546129219061481e565b801561296e5780601f106129435761010080835404028352916020019161296e565b820191906000526020600020905b81548152906001019060200180831161295157829003601f168201915b50505050509150612a0b565b600b600301805461298a9061481e565b80601f01602080910402602001604051908101604052809291908181526020018280546129b69061481e565b8015612a035780601f106129d857610100808354040283529160200191612a03565b820191906000526020600020905b8154815290600101906020018083116129e657829003601f168201915b505050505091505b5b5b600860009054906101000a900473ffffffffffffffffffffffffffffffffffffffff1673ffffffffffffffffffffffffffffffffffffffff16631e5769128685856040518463ffffffff1660e01b8152600401612a6c939291906156ac565b600060405180830381600087803b158015612a8657600080fd5b505af1158015612a9a573d6000803e3d6000fd5b5050505083601760008581526020019081526020016000206000820151816000015560208201518160010160006101000a81548160ff02191690836003811115612ae757612ae661426d565b5b0217905550905050600060158054905003612b64576015859080600181540180825580915050600190039060005260206000200160009091909190916101000a81548173ffffffffffffffffffffffffffffffffffffffff021916908373ffffffffffffffffffffffffffffffffffffffff160217905550612c6e565b6000805b601580549050811015612c02578673ffffffffffffffffffffffffffffffffffffffff1660158281548110612ba057612b9f614b6f565b5b9060005260206000200160009054906101000a900473ffffffffffffffffffffffffffffffffffffffff1673ffffffffffffffffffffffffffffffffffffffff1603612bef5760019150612c02565b8080612bfa90614bcd565b915050612b68565b5080612c6c576015869080600181540180825580915050600190039060005260206000200160009091909190916101000a81548173ffffffffffffffffffffffffffffffffffffffff021916908373ffffffffffffffffffffffffffffffffffffffff1602179055505b505b827fe5177288d661448b7d383a5e5f1be3886695859c8c327562a87df71d65e21ac28242604051612ca09291906156ea565b60405180910390a25050505050565b600081600001549050919050565b60008073ffffffffffffffffffffffffffffffffffffffff16612cdf8361334d565b73ffffffffffffffffffffffffffffffffffffffff1614159050919050565b600073ffffffffffffffffffffffffffffffffffffffff168273ffffffffffffffffffffffffffffffffffffffff1603612d6d576040517f08c379a0000000000000000000000000000000000000000000000000000000008152600401612d649061575f565b60405180910390fd5b612d7681612cbd565b15612db6576040517f08c379a0000000000000000000000000000000000000000000000000000000008152600401612dad906157cb565b60405180910390fd5b612dc460008383600161378f565b612dcd81612cbd565b15612e0d576040517f08c379a0000000000000000000000000000000000000000000000000000000008152600401612e04906157cb565b60405180910390fd5b6001600360008473ffffffffffffffffffffffffffffffffffffffff1673ffffffffffffffffffffffffffffffffffffffff16815260200190815260200160002060008282540192505081905550816002600083815260200190815260200160002060006101000a81548173ffffffffffffffffffffffffffffffffffffffff021916908373ffffffffffffffffffffffffffffffffffffffff160217905550808273ffffffffffffffffffffffffffffffffffffffff16600073ffffffffffffffffffffffffffffffffffffffff167fddf252ad1be2c89b69c2b068fc378daa952ba7f163c4a11628f55a4df523b3ef60405160405180910390a4612f17600083836001613795565b5050565b612f2482612cbd565b612f63576040517f08c379a0000000000000000000000000000000000000000000000000000000008152600401612f5a9061585d565b60405180910390fd5b80600660008481526020019081526020016000209081612f839190615a29565b507ff8e1a15aba9398e019f0b49df1a4fde98ee17ae345cb5f6b5e2c27f5033e8ce782604051612fb39190614002565b60405180910390a15050565b600080612fcb83611483565b90508073ffffffffffffffffffffffffffffffffffffffff168473ffffffffffffffffffffffffffffffffffffffff16148061300d575061300c818561215e565b5b8061304b57508373ffffffffffffffffffffffffffffffffffffffff1661303384610b0b565b73ffffffffffffffffffffffffffffffffffffffff16145b91505092915050565b8273ffffffffffffffffffffffffffffffffffffffff1661307482611483565b73ffffffffffffffffffffffffffffffffffffffff16146130ca576040517f08c379a00000000000000000000000000000000000000000000000000000000081526004016130c190615b6d565b60405180910390fd5b600073ffffffffffffffffffffffffffffffffffffffff168273ffffffffffffffffffffffffffffffffffffffff1603613139576040517f08c379a000000000000000000000000000000000000000000000000000000000815260040161313090615bff565b60405180910390fd5b613146838383600161378f565b8273ffffffffffffffffffffffffffffffffffffffff1661316682611483565b73ffffffffffffffffffffffffffffffffffffffff16146131bc576040517f08c379a00000000000000000000000000000000000000000000000000000000081526004016131b390615b6d565b60405180910390fd5b6004600082815260200190815260200160002060006101000a81549073ffffffffffffffffffffffffffffffffffffffff02191690556001600360008573ffffffffffffffffffffffffffffffffffffffff1673ffffffffffffffffffffffffffffffffffffffff168152602001908152602001600020600082825403925050819055506001600360008473ffffffffffffffffffffffffffffffffffffffff1673ffffffffffffffffffffffffffffffffffffffff16815260200190815260200160002060008282540192505081905550816002600083815260200190815260200160002060006101000a81548173ffffffffffffffffffffffffffffffffffffffff021916908373ffffffffffffffffffffffffffffffffffffffff160217905550808273ffffffffffffffffffffffffffffffffffffffff168473ffffffffffffffffffffffffffffffffffffffff167fddf252ad1be2c89b69c2b068fc378daa952ba7f163c4a11628f55a4df523b3ef60405160405180910390a46133488383836001613795565b505050565b60006002600083815260200190815260200160002060009054906101000a900473ffffffffffffffffffffffffffffffffffffffff169050919050565b6000600760009054906101000a900473ffffffffffffffffffffffffffffffffffffffff16905081600760006101000a81548173ffffffffffffffffffffffffffffffffffffffff021916908373ffffffffffffffffffffffffffffffffffffffff1602179055508173ffffffffffffffffffffffffffffffffffffffff168173ffffffffffffffffffffffffffffffffffffffff167f8be0079c531659141344cd1fd0a4f28419497f9722a3daafe3b4186f6b6457e060405160405180910390a35050565b8173ffffffffffffffffffffffffffffffffffffffff168373ffffffffffffffffffffffffffffffffffffffff16036134be576040517f08c379a00000000000000000000000000000000000000000000000000000000081526004016134b590615c6b565b60405180910390fd5b80600560008573ffffffffffffffffffffffffffffffffffffffff1673ffffffffffffffffffffffffffffffffffffffff16815260200190815260200160002060008473ffffffffffffffffffffffffffffffffffffffff1673ffffffffffffffffffffffffffffffffffffffff16815260200190815260200160002060006101000a81548160ff0219169083151502179055508173ffffffffffffffffffffffffffffffffffffffff168373ffffffffffffffffffffffffffffffffffffffff167f17307eab39ab6107e8899845ad3d59bd9653f200f220920489ca2b5937696c31836040516135af9190613cee565b60405180910390a3505050565b6135c7848484613054565b6135d38484848461379b565b613612576040517f08c379a000000000000000000000000000000000000000000000000000000000815260040161360990615cfd565b60405180910390fd5b50505050565b606060405180602001604052806000815250905090565b606061363a82612464565b6000613644613618565b90506000815111613664576040518060200160405280600081525061368f565b8061366e84613922565b60405160200161367f92919061529d565b6040516020818303038152906040525b915050919050565b60007f80ac58cd000000000000000000000000000000000000000000000000000000007bffffffffffffffffffffffffffffffffffffffffffffffffffffffff1916827bffffffffffffffffffffffffffffffffffffffffffffffffffffffff1916148061376257507f5b5e139f000000000000000000000000000000000000000000000000000000007bffffffffffffffffffffffffffffffffffffffffffffffffffffffff1916827bffffffffffffffffffffffffffffffffffffffffffffffffffffffff1916145b806137725750613771826139f0565b5b9050919050565b6001816000016000828254019250508190555050565b50505050565b50505050565b60006137bc8473ffffffffffffffffffffffffffffffffffffffff16613a5a565b15613915578373ffffffffffffffffffffffffffffffffffffffff1663150b7a026137e56124af565b8786866040518563ffffffff1660e01b81526004016138079493929190615d72565b6020604051808303816000875af192505050801561384357506040513d601f19601f820116820180604052508101906138409190615dd3565b60015b6138c5573d8060008114613873576040519150601f19603f3d011682016040523d82523d6000602084013e613878565b606091505b5060008151036138bd576040517f08c379a00000000000000000000000000000000000000000000000000000000081526004016138b490615cfd565b60405180910390fd5b805181602001fd5b63150b7a0260e01b7bffffffffffffffffffffffffffffffffffffffffffffffffffffffff1916817bffffffffffffffffffffffffffffffffffffffffffffffffffffffff19161491505061391a565b600190505b949350505050565b60606000600161393184613a7d565b01905060008167ffffffffffffffff8111156139505761394f614027565b5b6040519080825280601f01601f1916602001820160405280156139825781602001600182028036833780820191505090505b509050600082602001820190505b6001156139e5578080600190039150507f3031323334353637383961626364656600000000000000000000000000000000600a86061a8153600a85816139d9576139d86151cd565b5b04945060008503613990575b819350505050919050565b60007f01ffc9a7000000000000000000000000000000000000000000000000000000007bffffffffffffffffffffffffffffffffffffffffffffffffffffffff1916827bffffffffffffffffffffffffffffffffffffffffffffffffffffffff1916149050919050565b6000808273ffffffffffffffffffffffffffffffffffffffff163b119050919050565b600080600090507a184f03e93ff9f4daa797ed6e38ed64bf6a1f0100000000000000008310613adb577a184f03e93ff9f4daa797ed6e38ed64bf6a1f0100000000000000008381613ad157613ad06151cd565b5b0492506040810190505b6d04ee2d6d415b85acef81000000008310613b18576d04ee2d6d415b85acef81000000008381613b0e57613b0d6151cd565b5b0492506020810190505b662386f26fc100008310613b4757662386f26fc100008381613b3d57613b3c6151cd565b5b0492506010810190505b6305f5e1008310613b70576305f5e1008381613b6657613b656151cd565b5b0492506008810190505b6127108310613b95576127108381613b8b57613b8a6151cd565b5b0492506004810190505b60648310613bb85760648381613bae57613bad6151cd565b5b0492506002810190505b600a8310613bc7576001810190505b80915050919050565b828054828255906000526020600020908101928215613c0c579160200282015b82811115613c0b578251825591602001919060010190613bf0565b5b509050613c199190613c1d565b5090565b5b80821115613c36576000816000905550600101613c1e565b5090565b6000604051905090565b600080fd5b600080fd5b60007fffffffff0000000000000000000000000000000000000000000000000000000082169050919050565b613c8381613c4e565b8114613c8e57600080fd5b50565b600081359050613ca081613c7a565b92915050565b600060208284031215613cbc57613cbb613c44565b5b6000613cca84828501613c91565b91505092915050565b60008115159050919050565b613ce881613cd3565b82525050565b6000602082019050613d036000830184613cdf565b92915050565b600073ffffffffffffffffffffffffffffffffffffffff82169050919050565b6000613d3482613d09565b9050919050565b613d4481613d29565b8114613d4f57600080fd5b50565b600081359050613d6181613d3b565b92915050565b600060208284031215613d7d57613d7c613c44565b5b6000613d8b84828501613d52565b91505092915050565b600081519050919050565b600082825260208201905092915050565b60005b83811015613dce578082015181840152602081019050613db3565b60008484015250505050565b6000601f19601f8301169050919050565b6000613df682613d94565b613e008185613d9f565b9350613e10818560208601613db0565b613e1981613dda565b840191505092915050565b60006020820190508181036000830152613e3e8184613deb565b905092915050565b6000819050919050565b613e5981613e46565b8114613e6457600080fd5b50565b600081359050613e7681613e50565b92915050565b600060208284031215613e9257613e91613c44565b5b6000613ea084828501613e67565b91505092915050565b613eb281613d29565b82525050565b6000602082019050613ecd6000830184613ea9565b92915050565b60008060408385031215613eea57613ee9613c44565b5b6000613ef885828601613d52565b9250506020613f0985828601613e67565b9150509250929050565b600081519050919050565b600082825260208201905092915050565b6000819050602082019050919050565b613f4881613e46565b82525050565b6000613f5a8383613f3f565b60208301905092915050565b6000602082019050919050565b6000613f7e82613f13565b613f888185613f1e565b9350613f9383613f2f565b8060005b83811015613fc4578151613fab8882613f4e565b9750613fb683613f66565b925050600181019050613f97565b5085935050505092915050565b60006020820190508181036000830152613feb8184613f73565b905092915050565b613ffc81613e46565b82525050565b60006020820190506140176000830184613ff3565b92915050565b600080fd5b600080fd5b7f4e487b7100000000000000000000000000000000000000000000000000000000600052604160045260246000fd5b61405f82613dda565b810181811067ffffffffffffffff8211171561407e5761407d614027565b5b80604052505050565b6000614091613c3a565b905061409d8282614056565b919050565b600067ffffffffffffffff8211156140bd576140bc614027565b5b6140c682613dda565b9050602081019050919050565b82818337600083830152505050565b60006140f56140f0846140a2565b614087565b90508281526020810184848401111561411157614110614022565b5b61411c8482856140d3565b509392505050565b600082601f8301126141395761413861401d565b5b81356141498482602086016140e2565b91505092915050565b60008060006060848603121561416b5761416a613c44565b5b600061417986828701613d52565b935050602061418a86828701613e67565b925050604084013567ffffffffffffffff8111156141ab576141aa613c49565b5b6141b786828701614124565b9150509250925092565b6000806000606084860312156141da576141d9613c44565b5b60006141e886828701613d52565b93505060206141f986828701613d52565b925050604061420a86828701613e67565b9150509250925092565b61421d81613cd3565b811461422857600080fd5b50565b60008135905061423a81614214565b92915050565b60006020828403121561425657614255613c44565b5b60006142648482850161422b565b91505092915050565b7f4e487b7100000000000000000000000000000000000000000000000000000000600052602160045260246000fd5b600481106142ad576142ac61426d565b5b50565b60008190506142be8261429c565b919050565b60006142ce826142b0565b9050919050565b6142de816142c3565b82525050565b60006020820190506142f960008301846142d5565b92915050565b6000806040838503121561431657614315613c44565b5b600061432485828601613d52565b92505060206143358582860161422b565b9150509250929050565b60006040820190506143546000830185613ff3565b61436160208301846142d5565b9392505050565b600067ffffffffffffffff82111561438357614382614027565b5b61438c82613dda565b9050602081019050919050565b60006143ac6143a784614368565b614087565b9050828152602081018484840111156143c8576143c7614022565b5b6143d38482856140d3565b509392505050565b600082601f8301126143f0576143ef61401d565b5b8135614400848260208601614399565b91505092915050565b6000806000806080858703121561442357614422613c44565b5b600061443187828801613d52565b945050602061444287828801613d52565b935050604061445387828801613e67565b925050606085013567ffffffffffffffff81111561447457614473613c49565b5b614480878288016143db565b91505092959194509250565b600067ffffffffffffffff8211156144a7576144a6614027565b5b602082029050602081019050919050565b600080fd5b60006144d06144cb8461448c565b614087565b905080838252602082019050602084028301858111156144f3576144f26144b8565b5b835b8181101561451c57806145088882613d52565b8452602084019350506020810190506144f5565b5050509392505050565b600082601f83011261453b5761453a61401d565b5b813561454b8482602086016144bd565b91505092915050565b60008060006060848603121561456d5761456c613c44565b5b600061457b86828701613e67565b935050602061458c86828701613e67565b925050604084013567ffffffffffffffff8111156145ad576145ac613c49565b5b6145b986828701614526565b9150509250925092565b600067ffffffffffffffff8211156145de576145dd614027565b5b602082029050602081019050919050565b60006146026145fd846145c3565b614087565b90508083825260208201905060208402830185811115614625576146246144b8565b5b835b8181101561464e578061463a8882613e67565b845260208401935050602081019050614627565b5050509392505050565b600082601f83011261466d5761466c61401d565b5b813561467d8482602086016145ef565b91505092915050565b60006020828403121561469c5761469b613c44565b5b600082013567ffffffffffffffff8111156146ba576146b9613c49565b5b6146c684828501614658565b91505092915050565b600081519050919050565b600082825260208201905092915050565b6000819050602082019050919050565b61470481613d29565b82525050565b600061471683836146fb565b60208301905092915050565b6000602082019050919050565b600061473a826146cf565b61474481856146da565b935061474f836146eb565b8060005b83811015614780578151614767888261470a565b975061477283614722565b925050600181019050614753565b5085935050505092915050565b600060208201905081810360008301526147a7818461472f565b905092915050565b600080604083850312156147c6576147c5613c44565b5b60006147d485828601613d52565b92505060206147e585828601613d52565b9150509250929050565b7f4e487b7100000000000000000000000000000000000000000000000000000000600052602260045260246000fd5b6000600282049050600182168061483657607f821691505b602082108103614849576148486147ef565b5b50919050565b7f4552433732313a20617070726f76616c20746f2063757272656e74206f776e6560008201527f7200000000000000000000000000000000000000000000000000000000000000602082015250565b60006148ab602183613d9f565b91506148b68261484f565b604082019050919050565b600060208201905081810360008301526148da8161489e565b9050919050565b7f4552433732313a20617070726f76652063616c6c6572206973206e6f7420746f60008201527f6b656e206f776e6572206f7220617070726f76656420666f7220616c6c000000602082015250565b600061493d603d83613d9f565b9150614948826148e1565b604082019050919050565b6000602082019050818103600083015261496c81614930565b9050919050565b7f5468697320636f6c6c656374696f6e206861732072656163686564207468652060008201527f6c696d6974206f66206d696e74696e6700000000000000000000000000000000602082015250565b60006149cf603083613d9f565b91506149da82614973565b604082019050919050565b600060208201905081810360008301526149fe816149c2565b9050919050565b7f596f7520617265206e6f7420616c6c6f77656420746f206d696e740000000000600082015250565b6000614a3b601b83613d9f565b9150614a4682614a05565b602082019050919050565b60006020820190508181036000830152614a6a81614a2e565b9050919050565b7f596f752068617665207265616368656420746865206c696d6974206f66206d6960008201527f6e74696e67000000000000000000000000000000000000000000000000000000602082015250565b6000614acd602583613d9f565b9150614ad882614a71565b604082019050919050565b60006020820190508181036000830152614afc81614ac0565b9050919050565b7f496e73756666696369656e742065746865722073656e74000000000000000000600082015250565b6000614b39601783613d9f565b9150614b4482614b03565b602082019050919050565b60006020820190508181036000830152614b6881614b2c565b9050919050565b7f4e487b7100000000000000000000000000000000000000000000000000000000600052603260045260246000fd5b7f4e487b7100000000000000000000000000000000000000000000000000000000600052601160045260246000fd5b6000614bd882613e46565b91507fffffffffffffffffffffffffffffffffffffffffffffffffffffffffffffffff8203614c0a57614c09614b9e565b5b600182019050919050565b7f4552433732313a2063616c6c6572206973206e6f7420746f6b656e206f776e6560008201527f72206f7220617070726f76656400000000000000000000000000000000000000602082015250565b6000614c71602d83613d9f565b9150614c7c82614c15565b604082019050919050565b60006020820190508181036000830152614ca081614c64565b9050919050565b7f596f752063616e206e6f7420776974686472617720617420746869732074696d60008201527f6500000000000000000000000000000000000000000000000000000000000000602082015250565b6000614d03602183613d9f565b9150614d0e82614ca7565b604082019050919050565b60006020820190508181036000830152614d3281614cf6565b9050919050565b6000614d4482613e46565b9150614d4f83613e46565b9250828201905080821115614d6757614d66614b9e565b5b92915050565b7f596f7520617265206e6f7420746865206f776e65720000000000000000000000600082015250565b6000614da3601583613d9f565b9150614dae82614d6d565b602082019050919050565b60006020820190508181036000830152614dd281614d96565b9050919050565b7f4552433732313a20696e76616c696420746f6b656e2049440000000000000000600082015250565b6000614e0f601883613d9f565b9150614e1a82614dd9565b602082019050919050565b60006020820190508181036000830152614e3e81614e02565b9050919050565b7f546f6b656e20494420646f6573206e6f74206578697374000000000000000000600082015250565b6000614e7b601783613d9f565b9150614e8682614e45565b602082019050919050565b60006020820190508181036000830152614eaa81614e6e565b9050919050565b7f4552433732313a2061646472657373207a65726f206973206e6f74206120766160008201527f6c6964206f776e65720000000000000000000000000000000000000000000000602082015250565b6000614f0d602983613d9f565b9150614f1882614eb1565b604082019050919050565b60006020820190508181036000830152614f3c81614f00565b9050919050565b7f596f7520617265206e6f7420746865206f776e6572206f662074686973204e4660008201527f5400000000000000000000000000000000000000000000000000000000000000602082015250565b6000614f9f602183613d9f565b9150614faa82614f43565b604082019050919050565b60006020820190508181036000830152614fce81614f92565b9050919050565b7f4e756d626572206f662077696e6e657273206d7573742062652067726561746560008201527f72207468616e207a65726f000000000000000000000000000000000000000000602082015250565b6000615031602b83613d9f565b915061503c82614fd5565b604082019050919050565b6000602082019050818103600083015261506081615024565b9050919050565b7f4e756d626572206f662077696e6e657273206578636565647320746865206e7560008201527f6d626572206f66206d696e74696e672061646472657373657300000000000000602082015250565b60006150c3603983613d9f565b91506150ce82615067565b604082019050919050565b600060208201905081810360008301526150f2816150b6565b9050919050565b7f5265776172642070657263656e74616765206d7573742062652062657477656560008201527f6e203120616e6420313030000000000000000000000000000000000000000000602082015250565b6000615155602b83613d9f565b9150615160826150f9565b604082019050919050565b6000602082019050818103600083015261518481615148565b9050919050565b600061519682613e46565b91506151a183613e46565b92508282026151af81613e46565b915082820484148315176151c6576151c5614b9e565b5b5092915050565b7f4e487b7100000000000000000000000000000000000000000000000000000000600052601260045260246000fd5b600061520782613e46565b915061521283613e46565b925082615222576152216151cd565b5b828204905092915050565b600061523882613e46565b915061524383613e46565b925082820390508181111561525b5761525a614b9e565b5b92915050565b600081905092915050565b600061527782613d94565b6152818185615261565b9350615291818560208601613db0565b80840191505092915050565b60006152a9828561526c565b91506152b5828461526c565b91508190509392505050565b7f526172697479206d7573742068617665203420656c656d656e74730000000000600082015250565b60006152f7601b83613d9f565b9150615302826152c1565b602082019050919050565b60006020820190508181036000830152615326816152ea565b9050919050565b7f5468652073756d206f6620726172697479206d75737420626520313030000000600082015250565b6000615363601d83613d9f565b915061536e8261532d565b602082019050919050565b6000602082019050818103600083015261539281615356565b9050919050565b7f4f776e61626c653a206e6577206f776e657220697320746865207a65726f206160008201527f6464726573730000000000000000000000000000000000000000000000000000602082015250565b60006153f5602683613d9f565b915061540082615399565b604082019050919050565b60006020820190508181036000830152615424816153e8565b9050919050565b7f4f6e6c79207468652064657369676e6174656420616464726573732063616e2060008201527f7769746864726177000000000000000000000000000000000000000000000000602082015250565b6000615487602883613d9f565b91506154928261542b565b604082019050919050565b600060208201905081810360008301526154b68161547a565b9050919050565b7f4f776e61626c653a2063616c6c6572206973206e6f7420746865206f776e6572600082015250565b60006154f3602083613d9f565b91506154fe826154bd565b602082019050919050565b60006020820190508181036000830152615522816154e6565b9050919050565b61553281613e46565b82525050565b61554181613d29565b82525050565b600060a08201905061555c6000830188615529565b6155696020830187615529565b6155766040830186615529565b6155836060830185615538565b6155906080830184615538565b9695505050505050565b600080fd5b6000815190506155ae81613e50565b92915050565b600481106155c157600080fd5b50565b6000815190506155d3816155b4565b92915050565b6000604082840312156155ef576155ee61559a565b5b6155f96040614087565b905060006156098482850161559f565b600083015250602061561d848285016155c4565b60208301525092915050565b60006040828403121561563f5761563e613c44565b5b600061564d848285016155d9565b91505092915050565b600060408201905061566b6000830185615529565b6156786020830184615529565b9392505050565b60006020828403121561569557615694613c44565b5b60006156a38482850161559f565b91505092915050565b60006060820190506156c16000830186613ea9565b6156ce6020830185613ff3565b81810360408301526156e08184613deb565b9050949350505050565b60006040820190506156ff6000830185613ff3565b61570c6020830184613ff3565b9392505050565b7f4552433732313a206d696e7420746f20746865207a65726f2061646472657373600082015250565b6000615749602083613d9f565b915061575482615713565b602082019050919050565b600060208201905081810360008301526157788161573c565b9050919050565b7f4552433732313a20746f6b656e20616c7265616479206d696e74656400000000600082015250565b60006157b5601c83613d9f565b91506157c08261577f565b602082019050919050565b600060208201905081810360008301526157e4816157a8565b9050919050565b7f45524337323155524953746f726167653a2055524920736574206f66206e6f6e60008201527f6578697374656e7420746f6b656e000000000000000000000000000000000000602082015250565b6000615847602e83613d9f565b9150615852826157eb565b604082019050919050565b600060208201905081810360008301526158768161583a565b9050919050565b60008190508160005260206000209050919050565b60006020601f8301049050919050565b600082821b905092915050565b6000600883026158df7fffffffffffffffffffffffffffffffffffffffffffffffffffffffffffffffff826158a2565b6158e986836158a2565b95508019841693508086168417925050509392505050565b6000819050919050565b600061592661592161591c84613e46565b615901565b613e46565b9050919050565b6000819050919050565b6159408361590b565b61595461594c8261592d565b8484546158af565b825550505050565b600090565b61596961595c565b615974818484615937565b505050565b5b818110156159985761598d600082615961565b60018101905061597a565b5050565b601f8211156159dd576159ae8161587d565b6159b784615892565b810160208510156159c6578190505b6159da6159d285615892565b830182615979565b50505b505050565b600082821c905092915050565b6000615a00600019846008026159e2565b1980831691505092915050565b6000615a1983836159ef565b9150826002028217905092915050565b615a3282613d94565b67ffffffffffffffff811115615a4b57615a4a614027565b5b615a55825461481e565b615a6082828561599c565b600060209050601f831160018114615a935760008415615a81578287015190505b615a8b8582615a0d565b865550615af3565b601f198416615aa18661587d565b60005b82811015615ac957848901518255600182019150602085019450602081019050615aa4565b86831015615ae65784890151615ae2601f8916826159ef565b8355505b6001600288020188555050505b505050505050565b7f4552433732313a207472616e736665722066726f6d20696e636f72726563742060008201527f6f776e6572000000000000000000000000000000000000000000000000000000602082015250565b6000615b57602583613d9f565b9150615b6282615afb565b604082019050919050565b60006020820190508181036000830152615b8681615b4a565b9050919050565b7f4552433732313a207472616e7366657220746f20746865207a65726f2061646460008201527f7265737300000000000000000000000000000000000000000000000000000000602082015250565b6000615be9602483613d9f565b9150615bf482615b8d565b604082019050919050565b60006020820190508181036000830152615c1881615bdc565b9050919050565b7f4552433732313a20617070726f766520746f2063616c6c657200000000000000600082015250565b6000615c55601983613d9f565b9150615c6082615c1f565b602082019050919050565b60006020820190508181036000830152615c8481615c48565b9050919050565b7f4552433732313a207472616e7366657220746f206e6f6e20455243373231526560008201527f63656976657220696d706c656d656e7465720000000000000000000000000000602082015250565b6000615ce7603283613d9f565b9150615cf282615c8b565b604082019050919050565b60006020820190508181036000830152615d1681615cda565b9050919050565b600081519050919050565b600082825260208201905092915050565b6000615d4482615d1d565b615d4e8185615d28565b9350615d5e818560208601613db0565b615d6781613dda565b840191505092915050565b6000608082019050615d876000830187613ea9565b615d946020830186613ea9565b615da16040830185613ff3565b8181036060830152615db38184615d39565b905095945050505050565b600081519050615dcd81613c7a565b92915050565b600060208284031215615de957615de8613c44565b5b6000615df784828501615dbe565b9150509291505056fea2646970667358221220b84caa5d60f9030b0419a3dd2b745834440ec0608d4dc3af5e3f68614940ec3364736f6c6343000812003368747470733a2f2f697066732e696f2f697066732f516d636144524b6235634d35434e3647444d425977346d334474557548565a366653654371695639594d715a77773f66696c656e616d653d4e4654302e6a736f6e68747470733a2f2f697066732e696f2f697066732f516d634a314641445757465775704838334b50566d633171684e416d694b6d48624d356735546a767452673965353f66696c656e616d653d4e4654312e6a736f6e68747470733a2f2f697066732e696f2f697066732f516d5467714d64374d594e4c4e47517968737a45506777636169756d5935346b3939745a4e6162466471596956663f66696c656e616d653d4e4654322e6a736f6e68747470733a2f2f697066732e696f2f697066732f516d52516d4c6d6f78433861436f44556b537155544b75734733743270354d64745531716a4741473973734c35753f66696c656e616d653d4e4654332e6a736f6e",
  "linkReferences": {
    "contracts/libraries/BaseXNFTLibrary.sol": {
      "BaseXNFTLibrary": [
        {
          "length": 20,
          "start": 11819
        },
        {
          "length": 20,
          "start": 12035
        }
      ]
    }
  },
  "deployedLinkReferences": {
    "contracts/libraries/BaseXNFTLibrary.sol": {
      "BaseXNFTLibrary": [
        {
          "length": 20,
          "start": 9588
        },
        {
          "length": 20,
          "start": 9804
        }
      ]
    }
  }
}