{
  "_format": "hh-sol-artifact-1",
  "contractName": "BaseXNFTLibrary",
  "sourceName": "contracts/BaseXNFT.sol",
  "abi": [
    {
      "inputs": [
        {
          "internalType": "uint256",
          "name": "blockNumber",
          "type": "uint256"
        },
        {
          "internalType": "uint256",
          "name": "blockTimestamp",
          "type": "uint256"
        },
        {
          "internalType": "uint256",
          "name": "blockDifficulty",
          "type": "uint256"
        },
        {
          "internalType": "address",
          "name": "msgSender",
          "type": "address"
        },
        {
          "internalType": "address",
          "name": "lastAddress",
          "type": "address"
        }
      ],
      "name": "calculateNFTInfo",
      "outputs": [
        {
          "components": [
            {
              "internalType": "uint256",
              "name": "tokenId",
              "type": "uint256"
            },
            {
              "internalType": "enum BaseXNFTLibrary.Rank",
              "name": "rank",
              "type": "BaseXNFTLibrary.Rank"
            }
          ],
          "internalType": "struct BaseXNFTLibrary.NFT",
          "name": "",
          "type": "tuple"
        }
      ],
      "stateMutability": "view",
      "type": "function"
    }
  ],
  "bytecode": "0x6104c9610053600b82828239805160001a607314610046577f4e487b7100000000000000000000000000000000000000000000000000000000600052600060045260246000fd5b30600052607381538281f3fe73000000000000000000000000000000000000000030146080604052600436106100355760003560e01c80638b5c98fa1461003a575b600080fd5b610054600480360381019061004f9190610220565b61006a565b6040516100619190610350565b60405180910390f35b61007261015b565b6000868686868660405160200161008d9594939291906103d4565b6040516020818303038152906040528051906020012060001c905060006064826100b79190610462565b90506000603c821080156100cc575060008210155b156100da576000905061011f565b6055821080156100eb5750603c8210155b156100f9576001905061011e565b605f8210801561010a575060558210155b15610118576002905061011d565b600390505b5b5b6000604051806040016040528060008152602001836003811115610146576101456102aa565b5b81525090508094505050505095945050505050565b60405180604001604052806000815260200160006003811115610181576101806102aa565b5b81525090565b600080fd5b6000819050919050565b61019f8161018c565b81146101aa57600080fd5b50565b6000813590506101bc81610196565b92915050565b600073ffffffffffffffffffffffffffffffffffffffff82169050919050565b60006101ed826101c2565b9050919050565b6101fd816101e2565b811461020857600080fd5b50565b60008135905061021a816101f4565b92915050565b600080600080600060a0868803121561023c5761023b610187565b5b600061024a888289016101ad565b955050602061025b888289016101ad565b945050604061026c888289016101ad565b935050606061027d8882890161020b565b925050608061028e8882890161020b565b9150509295509295909350565b6102a48161018c565b82525050565b7f4e487b7100000000000000000000000000000000000000000000000000000000600052602160045260246000fd5b600481106102ea576102e96102aa565b5b50565b60008190506102fb826102d9565b919050565b600061030b826102ed565b9050919050565b61031b81610300565b82525050565b604082016000820151610337600085018261029b565b50602082015161034a6020850182610312565b50505050565b60006040820190506103656000830184610321565b92915050565b6000819050919050565b6103866103818261018c565b61036b565b82525050565b60008160601b9050919050565b60006103a48261038c565b9050919050565b60006103b682610399565b9050919050565b6103ce6103c9826101e2565b6103ab565b82525050565b60006103e08288610375565b6020820191506103f08287610375565b6020820191506104008286610375565b60208201915061041082856103bd565b60148201915061042082846103bd565b6014820191508190509695505050505050565b7f4e487b7100000000000000000000000000000000000000000000000000000000600052601260045260246000fd5b600061046d8261018c565b91506104788361018c565b92508261048857610487610433565b5b82820690509291505056fea264697066735822122042c5286db7ffc1200a034f37db3b99fd8f69ee2d870e7fa766f316bd265c19c364736f6c63430008120033",
  "linkReferences": {},
  "deployedLinkReferences": {}
}