{
  "_format": "hh-sol-artifact-1",
  "contractName": "BaseXNFT",
  "sourceName": "contracts/BaseXNFT.sol",
  "abi": [
    {
      "inputs": [],
      "stateMutability": "nonpayable",
      "type": "constructor"
    },
    {
      "anonymous": false,
      "inputs": [
        {
          "indexed": true,
          "internalType": "address",
          "name": "owner",
          "type": "address"
        },
        {
          "indexed": true,
          "internalType": "address",
          "name": "approved",
          "type": "address"
        },
        {
          "indexed": true,
          "internalType": "uint256",
          "name": "tokenId",
          "type": "uint256"
        }
      ],
      "name": "Approval",
      "type": "event"
    },
    {
      "anonymous": false,
      "inputs": [
        {
          "indexed": true,
          "internalType": "address",
          "name": "owner",
          "type": "address"
        },
        {
          "indexed": true,
          "internalType": "address",
          "name": "operator",
          "type": "address"
        },
        {
          "indexed": false,
          "internalType": "bool",
          "name": "approved",
          "type": "bool"
        }
      ],
      "name": "ApprovalForAll",
      "type": "event"
    },
    {
      "anonymous": false,
      "inputs": [
        {
          "indexed": false,
          "internalType": "uint256",
          "name": "_fromTokenId",
          "type": "uint256"
        },
        {
          "indexed": false,
          "internalType": "uint256",
          "name": "_toTokenId",
          "type": "uint256"
        }
      ],
      "name": "BatchMetadataUpdate",
      "type": "event"
    },
    {
      "anonymous": false,
      "inputs": [
        {
          "indexed": false,
          "internalType": "uint256",
          "name": "_tokenId",
          "type": "uint256"
        }
      ],
      "name": "MetadataUpdate",
      "type": "event"
    },
    {
      "anonymous": false,
      "inputs": [
        {
          "indexed": true,
          "internalType": "uint256",
          "name": "tokenId",
          "type": "uint256"
        },
        {
          "indexed": false,
          "internalType": "uint256",
          "name": "rank",
          "type": "uint256"
        },
        {
          "indexed": false,
          "internalType": "address",
          "name": "owner_minted",
          "type": "address"
        },
        {
          "indexed": false,
          "internalType": "uint256",
          "name": "time_minted",
          "type": "uint256"
        }
      ],
      "name": "NFTMinted",
      "type": "event"
    },
    {
      "anonymous": false,
      "inputs": [
        {
          "indexed": true,
          "internalType": "address",
          "name": "previousOwner",
          "type": "address"
        },
        {
          "indexed": true,
          "internalType": "address",
          "name": "newOwner",
          "type": "address"
        }
      ],
      "name": "OwnershipTransferred",
      "type": "event"
    },
    {
      "anonymous": false,
      "inputs": [
        {
          "indexed": true,
          "internalType": "address",
          "name": "from",
          "type": "address"
        },
        {
          "indexed": true,
          "internalType": "address",
          "name": "to",
          "type": "address"
        },
        {
          "indexed": true,
          "internalType": "uint256",
          "name": "tokenId",
          "type": "uint256"
        }
      ],
      "name": "Transfer",
      "type": "event"
    },
    {
      "inputs": [],
      "name": "NFT_url",
      "outputs": [
        {
          "internalType": "string",
          "name": "",
          "type": "string"
        }
      ],
      "stateMutability": "view",
      "type": "function"
    },
    {
      "inputs": [
        {
          "internalType": "uint256",
          "name": "",
          "type": "uint256"
        }
      ],
      "name": "NFTs",
      "outputs": [
        {
          "internalType": "uint256",
          "name": "tokenId",
          "type": "uint256"
        },
        {
          "internalType": "enum BaseXNFT.Rank",
          "name": "rank",
          "type": "uint8"
        }
      ],
      "stateMutability": "view",
      "type": "function"
    },
    {
      "inputs": [
        {
          "internalType": "address",
          "name": "to",
          "type": "address"
        },
        {
          "internalType": "uint256",
          "name": "tokenId",
          "type": "uint256"
        }
      ],
      "name": "approve",
      "outputs": [],
      "stateMutability": "nonpayable",
      "type": "function"
    },
    {
      "inputs": [
        {
          "internalType": "address",
          "name": "owner",
          "type": "address"
        }
      ],
      "name": "balanceOf",
      "outputs": [
        {
          "internalType": "uint256",
          "name": "",
          "type": "uint256"
        }
      ],
      "stateMutability": "view",
      "type": "function"
    },
    {
      "inputs": [
        {
          "internalType": "uint256",
          "name": "_newLimit",
          "type": "uint256"
        }
      ],
      "name": "editLimitMint",
      "outputs": [],
      "stateMutability": "nonpayable",
      "type": "function"
    },
    {
      "inputs": [
        {
          "internalType": "uint256",
          "name": "_newPrice",
          "type": "uint256"
        }
      ],
      "name": "editPriceMint",
      "outputs": [],
      "stateMutability": "nonpayable",
      "type": "function"
    },
    {
      "inputs": [],
      "name": "getAllMyNFT",
      "outputs": [
        {
          "components": [
            {
              "internalType": "uint256",
              "name": "tokenId",
              "type": "uint256"
            },
            {
              "internalType": "enum BaseXNFT.Rank",
              "name": "rank",
              "type": "uint8"
            }
          ],
          "internalType": "struct BaseXNFT.NFT[]",
          "name": "",
          "type": "tuple[]"
        }
      ],
      "stateMutability": "view",
      "type": "function"
    },
    {
      "inputs": [
        {
          "internalType": "uint256",
          "name": "tokenId",
          "type": "uint256"
        }
      ],
      "name": "getApproved",
      "outputs": [
        {
          "internalType": "address",
          "name": "",
          "type": "address"
        }
      ],
      "stateMutability": "view",
      "type": "function"
    },
    {
      "inputs": [],
      "name": "getLastAdress",
      "outputs": [
        {
          "internalType": "address",
          "name": "",
          "type": "address"
        }
      ],
      "stateMutability": "view",
      "type": "function"
    },
    {
      "inputs": [
        {
          "internalType": "address",
          "name": "user",
          "type": "address"
        }
      ],
      "name": "getMintedNFTs",
      "outputs": [
        {
          "internalType": "uint256[]",
          "name": "",
          "type": "uint256[]"
        }
      ],
      "stateMutability": "view",
      "type": "function"
    },
    {
      "inputs": [
        {
          "internalType": "uint256",
          "name": "tokenId",
          "type": "uint256"
        }
      ],
      "name": "getNFTRank",
      "outputs": [
        {
          "internalType": "enum BaseXNFT.Rank",
          "name": "",
          "type": "uint8"
        }
      ],
      "stateMutability": "view",
      "type": "function"
    },
    {
      "inputs": [
        {
          "internalType": "uint256",
          "name": "tokenId",
          "type": "uint256"
        }
      ],
      "name": "getNFTURI",
      "outputs": [
        {
          "internalType": "string",
          "name": "",
          "type": "string"
        }
      ],
      "stateMutability": "view",
      "type": "function"
    },
    {
      "inputs": [
        {
          "internalType": "address",
          "name": "user",
          "type": "address"
        }
      ],
      "name": "getPoint",
      "outputs": [
        {
          "internalType": "uint256",
          "name": "",
          "type": "uint256"
        }
      ],
      "stateMutability": "view",
      "type": "function"
    },
    {
      "inputs": [],
      "name": "getPrice",
      "outputs": [
        {
          "internalType": "uint256",
          "name": "",
          "type": "uint256"
        }
      ],
      "stateMutability": "view",
      "type": "function"
    },
    {
      "inputs": [
        {
          "internalType": "uint256",
          "name": "top",
          "type": "uint256"
        }
      ],
      "name": "getTopMintNFT",
      "outputs": [
        {
          "internalType": "address[]",
          "name": "",
          "type": "address[]"
        }
      ],
      "stateMutability": "view",
      "type": "function"
    },
    {
      "inputs": [
        {
          "internalType": "address",
          "name": "owner",
          "type": "address"
        },
        {
          "internalType": "address",
          "name": "operator",
          "type": "address"
        }
      ],
      "name": "isApprovedForAll",
      "outputs": [
        {
          "internalType": "bool",
          "name": "",
          "type": "bool"
        }
      ],
      "stateMutability": "view",
      "type": "function"
    },
    {
      "inputs": [
        {
          "internalType": "address",
          "name": "",
          "type": "address"
        }
      ],
      "name": "lastMintTimestamp",
      "outputs": [
        {
          "internalType": "uint256",
          "name": "",
          "type": "uint256"
        }
      ],
      "stateMutability": "view",
      "type": "function"
    },
    {
      "inputs": [],
      "name": "limitMint",
      "outputs": [
        {
          "internalType": "uint256",
          "name": "",
          "type": "uint256"
        }
      ],
      "stateMutability": "view",
      "type": "function"
    },
    {
      "inputs": [
        {
          "internalType": "string",
          "name": "_NFT_url",
          "type": "string"
        }
      ],
      "name": "mintNFT",
      "outputs": [],
      "stateMutability": "payable",
      "type": "function"
    },
    {
      "inputs": [],
      "name": "name",
      "outputs": [
        {
          "internalType": "string",
          "name": "",
          "type": "string"
        }
      ],
      "stateMutability": "view",
      "type": "function"
    },
    {
      "inputs": [],
      "name": "owner",
      "outputs": [
        {
          "internalType": "address",
          "name": "",
          "type": "address"
        }
      ],
      "stateMutability": "view",
      "type": "function"
    },
    {
      "inputs": [
        {
          "internalType": "uint256",
          "name": "tokenId",
          "type": "uint256"
        }
      ],
      "name": "ownerOf",
      "outputs": [
        {
          "internalType": "address",
          "name": "",
          "type": "address"
        }
      ],
      "stateMutability": "view",
      "type": "function"
    },
    {
      "inputs": [],
      "name": "price",
      "outputs": [
        {
          "internalType": "uint256",
          "name": "",
          "type": "uint256"
        }
      ],
      "stateMutability": "view",
      "type": "function"
    },
    {
      "inputs": [],
      "name": "renounceOwnership",
      "outputs": [],
      "stateMutability": "nonpayable",
      "type": "function"
    },
    {
      "inputs": [
        {
          "internalType": "address",
          "name": "from",
          "type": "address"
        },
        {
          "internalType": "address",
          "name": "to",
          "type": "address"
        },
        {
          "internalType": "uint256",
          "name": "tokenId",
          "type": "uint256"
        }
      ],
      "name": "safeTransferFrom",
      "outputs": [],
      "stateMutability": "nonpayable",
      "type": "function"
    },
    {
      "inputs": [
        {
          "internalType": "address",
          "name": "from",
          "type": "address"
        },
        {
          "internalType": "address",
          "name": "to",
          "type": "address"
        },
        {
          "internalType": "uint256",
          "name": "tokenId",
          "type": "uint256"
        },
        {
          "internalType": "bytes",
          "name": "data",
          "type": "bytes"
        }
      ],
      "name": "safeTransferFrom",
      "outputs": [],
      "stateMutability": "nonpayable",
      "type": "function"
    },
    {
      "inputs": [
        {
          "internalType": "address",
          "name": "operator",
          "type": "address"
        },
        {
          "internalType": "bool",
          "name": "approved",
          "type": "bool"
        }
      ],
      "name": "setApprovalForAll",
      "outputs": [],
      "stateMutability": "nonpayable",
      "type": "function"
    },
    {
      "inputs": [
        {
          "internalType": "bytes4",
          "name": "interfaceId",
          "type": "bytes4"
        }
      ],
      "name": "supportsInterface",
      "outputs": [
        {
          "internalType": "bool",
          "name": "",
          "type": "bool"
        }
      ],
      "stateMutability": "view",
      "type": "function"
    },
    {
      "inputs": [],
      "name": "symbol",
      "outputs": [
        {
          "internalType": "string",
          "name": "",
          "type": "string"
        }
      ],
      "stateMutability": "view",
      "type": "function"
    },
    {
      "inputs": [
        {
          "internalType": "uint256",
          "name": "tokenId",
          "type": "uint256"
        }
      ],
      "name": "tokenURI",
      "outputs": [
        {
          "internalType": "string",
          "name": "",
          "type": "string"
        }
      ],
      "stateMutability": "view",
      "type": "function"
    },
    {
      "inputs": [],
      "name": "totalSupply",
      "outputs": [
        {
          "internalType": "uint256",
          "name": "",
          "type": "uint256"
        }
      ],
      "stateMutability": "view",
      "type": "function"
    },
    {
      "inputs": [
        {
          "internalType": "address",
          "name": "from",
          "type": "address"
        },
        {
          "internalType": "address",
          "name": "to",
          "type": "address"
        },
        {
          "internalType": "uint256",
          "name": "tokenId",
          "type": "uint256"
        }
      ],
      "name": "transferFrom",
      "outputs": [],
      "stateMutability": "nonpayable",
      "type": "function"
    },
    {
      "inputs": [
        {
          "internalType": "address",
          "name": "_to",
          "type": "address"
        },
        {
          "internalType": "uint256",
          "name": "_tokenId",
          "type": "uint256"
        }
      ],
      "name": "transferNFT",
      "outputs": [],
      "stateMutability": "nonpayable",
      "type": "function"
    },
    {
      "inputs": [
        {
          "internalType": "address",
          "name": "newOwner",
          "type": "address"
        }
      ],
      "name": "transferOwnership",
      "outputs": [],
      "stateMutability": "nonpayable",
      "type": "function"
    },
    {
      "inputs": [],
      "name": "withdraw",
      "outputs": [],
      "stateMutability": "nonpayable",
      "type": "function"
    }
  ],
  "bytecode": "0x60806040523480156200001157600080fd5b506040518060400160405280600981526020017f4261736558204e465400000000000000000000000000000000000000000000008152506040518060400160405280600281526020017f425800000000000000000000000000000000000000000000000000000000000081525081600090816200008f91906200046b565b508060019081620000a191906200046b565b505050620000c4620000b86200012360201b60201c565b6200012b60201b60201c565b6064600a8190555033600c60006101000a81548173ffffffffffffffffffffffffffffffffffffffff021916908373ffffffffffffffffffffffffffffffffffffffff1602179055506000600d819055506000600b8190555062000552565b600033905090565b6000600760009054906101000a900473ffffffffffffffffffffffffffffffffffffffff16905081600760006101000a81548173ffffffffffffffffffffffffffffffffffffffff021916908373ffffffffffffffffffffffffffffffffffffffff1602179055508173ffffffffffffffffffffffffffffffffffffffff168173ffffffffffffffffffffffffffffffffffffffff167f8be0079c531659141344cd1fd0a4f28419497f9722a3daafe3b4186f6b6457e060405160405180910390a35050565b600081519050919050565b7f4e487b7100000000000000000000000000000000000000000000000000000000600052604160045260246000fd5b7f4e487b7100000000000000000000000000000000000000000000000000000000600052602260045260246000fd5b600060028204905060018216806200027357607f821691505b6020821081036200028957620002886200022b565b5b50919050565b60008190508160005260206000209050919050565b60006020601f8301049050919050565b600082821b905092915050565b600060088302620002f37fffffffffffffffffffffffffffffffffffffffffffffffffffffffffffffffff82620002b4565b620002ff8683620002b4565b95508019841693508086168417925050509392505050565b6000819050919050565b6000819050919050565b60006200034c62000346620003408462000317565b62000321565b62000317565b9050919050565b6000819050919050565b62000368836200032b565b62000380620003778262000353565b848454620002c1565b825550505050565b600090565b6200039762000388565b620003a48184846200035d565b505050565b5b81811015620003cc57620003c06000826200038d565b600181019050620003aa565b5050565b601f8211156200041b57620003e5816200028f565b620003f084620002a4565b8101602085101562000400578190505b620004186200040f85620002a4565b830182620003a9565b50505b505050565b600082821c905092915050565b6000620004406000198460080262000420565b1980831691505092915050565b60006200045b83836200042d565b9150826002028217905092915050565b6200047682620001f1565b67ffffffffffffffff811115620004925762000491620001fc565b5b6200049e82546200025a565b620004ab828285620003d0565b600060209050601f831160018114620004e35760008415620004ce578287015190505b620004da85826200044d565b8655506200054a565b601f198416620004f3866200028f565b60005b828110156200051d57848901518255600182019150602085019450602081019050620004f6565b868310156200053d578489015162000539601f8916826200042d565b8355505b6001600288020188555050505b505050505050565b614f4b80620005626000396000f3fe6080604052600436106102035760003560e01c80638da5cb5b11610118578063b63b3d57116100a0578063e985e9c51161006f578063e985e9c5146107b7578063ebb24c32146107f4578063f2fde38b1461081d578063f4f3b05914610846578063fb37e8831461086f57610203565b8063b63b3d57146106e9578063b88d4fde14610714578063be13197b1461073d578063c87b56dd1461077a57610203565b80639b525924116100e75780639b525924146105ef578063a035b1fe1461061a578063a22cb46514610645578063a23af5cb1461066e578063a3c0b95b146106ab57610203565b80638da5cb5b1461054557806394ab67fe1461057057806395d89b411461059957806398d5fdca146105c457610203565b80633ccfd60b1161019b5780636352211e1161016a5780636352211e1461044c5780636c5bf32e1461048957806370a08231146104c6578063715018a614610503578063724950811461051a57610203565b80633ccfd60b1461039257806342842e0e146103a95780634ff531b6146103d257806362766dec1461040f57610203565b8063095ea7b3116101d7578063095ea7b3146102ea57806318160ddd146103135780631b163a9d1461033e57806323b872dd1461036957610203565b8062621fda1461020857806301ffc9a71461024557806306fdde0314610282578063081812fc146102ad575b600080fd5b34801561021457600080fd5b5061022f600480360381019061022a919061347c565b61088b565b60405161023c9190613539565b60405180910390f35b34801561025157600080fd5b5061026c600480360381019061026791906135b3565b61089d565b60405161027991906135fb565b60405180910390f35b34801561028e57600080fd5b506102976108af565b6040516102a49190613539565b60405180910390f35b3480156102b957600080fd5b506102d460048036038101906102cf919061347c565b610941565b6040516102e19190613657565b60405180910390f35b3480156102f657600080fd5b50610311600480360381019061030c919061369e565b610987565b005b34801561031f57600080fd5b50610328610a9e565b60405161033591906136ed565b60405180910390f35b34801561034a57600080fd5b50610353610aa4565b6040516103609190613657565b60405180910390f35b34801561037557600080fd5b50610390600480360381019061038b9190613708565b610ad6565b005b34801561039e57600080fd5b506103a7610b36565b005b3480156103b557600080fd5b506103d060048036038101906103cb9190613708565b610b8d565b005b3480156103de57600080fd5b506103f960048036038101906103f4919061375b565b610bad565b60405161040691906136ed565b60405180910390f35b34801561041b57600080fd5b506104366004803603810190610431919061375b565b610e5d565b6040516104439190613846565b60405180910390f35b34801561045857600080fd5b50610473600480360381019061046e919061347c565b610ef4565b6040516104809190613657565b60405180910390f35b34801561049557600080fd5b506104b060048036038101906104ab919061347c565b610f7a565b6040516104bd91906138df565b60405180910390f35b3480156104d257600080fd5b506104ed60048036038101906104e8919061375b565b610fef565b6040516104fa91906136ed565b60405180910390f35b34801561050f57600080fd5b506105186110a6565b005b34801561052657600080fd5b5061052f6110ba565b60405161053c91906139e7565b60405180910390f35b34801561055157600080fd5b5061055a61126a565b6040516105679190613657565b60405180910390f35b34801561057c57600080fd5b506105976004803603810190610592919061369e565b611294565b005b3480156105a557600080fd5b506105ae611319565b6040516105bb9190613539565b60405180910390f35b3480156105d057600080fd5b506105d96113ab565b6040516105e691906136ed565b60405180910390f35b3480156105fb57600080fd5b506106046113b5565b60405161061191906136ed565b60405180910390f35b34801561062657600080fd5b5061062f6113bb565b60405161063c91906136ed565b60405180910390f35b34801561065157600080fd5b5061066c60048036038101906106679190613a35565b6113c1565b005b34801561067a57600080fd5b506106956004803603810190610690919061347c565b6113d7565b6040516106a29190613b33565b60405180910390f35b3480156106b757600080fd5b506106d260048036038101906106cd919061347c565b61158c565b6040516106e0929190613b55565b60405180910390f35b3480156106f557600080fd5b506106fe6115bd565b60405161070b9190613539565b60405180910390f35b34801561072057600080fd5b5061073b60048036038101906107369190613cb3565b61164b565b005b34801561074957600080fd5b50610764600480360381019061075f919061375b565b6116ad565b60405161077191906136ed565b60405180910390f35b34801561078657600080fd5b506107a1600480360381019061079c919061347c565b6116c5565b6040516107ae9190613539565b60405180910390f35b3480156107c357600080fd5b506107de60048036038101906107d99190613d36565b6116d7565b6040516107eb91906135fb565b60405180910390f35b34801561080057600080fd5b5061081b6004803603810190610816919061347c565b61176b565b005b34801561082957600080fd5b50610844600480360381019061083f919061375b565b61177d565b005b34801561085257600080fd5b5061086d6004803603810190610868919061347c565b611800565b005b61088960048036038101906108849190613e17565b611812565b005b6060610896826116c5565b9050919050565b60006108a882611d2d565b9050919050565b6060600080546108be90613e8f565b80601f01602080910402602001604051908101604052809291908181526020018280546108ea90613e8f565b80156109375780601f1061090c57610100808354040283529160200191610937565b820191906000526020600020905b81548152906001019060200180831161091a57829003601f168201915b5050505050905090565b600061094c82611d8e565b6004600083815260200190815260200160002060009054906101000a900473ffffffffffffffffffffffffffffffffffffffff169050919050565b600061099282610ef4565b90508073ffffffffffffffffffffffffffffffffffffffff168373ffffffffffffffffffffffffffffffffffffffff1603610a02576040517f08c379a00000000000000000000000000000000000000000000000000000000081526004016109f990613f32565b60405180910390fd5b8073ffffffffffffffffffffffffffffffffffffffff16610a21611dd9565b73ffffffffffffffffffffffffffffffffffffffff161480610a505750610a4f81610a4a611dd9565b6116d7565b5b610a8f576040517f08c379a0000000000000000000000000000000000000000000000000000000008152600401610a8690613fc4565b60405180910390fd5b610a998383611de1565b505050565b600d5481565b6000610aae611e9a565b600c60009054906101000a900473ffffffffffffffffffffffffffffffffffffffff16905090565b610ae7610ae1611dd9565b82611f18565b610b26576040517f08c379a0000000000000000000000000000000000000000000000000000000008152600401610b1d90614056565b60405180910390fd5b610b31838383611fad565b505050565b610b3e611e9a565b60004790503373ffffffffffffffffffffffffffffffffffffffff166108fc829081150290604051600060405180830381858888f19350505050158015610b89573d6000803e3d6000fd5b5050565b610ba88383836040518060200160405280600081525061164b565b505050565b600080600e60008473ffffffffffffffffffffffffffffffffffffffff1673ffffffffffffffffffffffffffffffffffffffff168152602001908152602001600020805480602002602001604051908101604052809291908181526020018280548015610c3957602002820191906000526020600020905b815481526020019060010190808311610c25575b505050505090506000805b8251811015610e525760006003811115610c6157610c60613868565b5b60116000858481518110610c7857610c77614076565b5b6020026020010151815260200190815260200160002060010160009054906101000a900460ff166003811115610cb157610cb0613868565b5b03610cca57600182610cc391906140d4565b9150610e3f565b60016003811115610cde57610cdd613868565b5b60116000858481518110610cf557610cf4614076565b5b6020026020010151815260200190815260200160002060010160009054906101000a900460ff166003811115610d2e57610d2d613868565b5b03610d4757600582610d4091906140d4565b9150610e3e565b60026003811115610d5b57610d5a613868565b5b60116000858481518110610d7257610d71614076565b5b6020026020010151815260200190815260200160002060010160009054906101000a900460ff166003811115610dab57610daa613868565b5b03610dc457600f82610dbd91906140d4565b9150610e3d565b600380811115610dd757610dd6613868565b5b60116000858481518110610dee57610ded614076565b5b6020026020010151815260200190815260200160002060010160009054906101000a900460ff166003811115610e2757610e26613868565b5b03610e3c57603282610e3991906140d4565b91505b5b5b5b8080610e4a90614108565b915050610c44565b508092505050919050565b6060600e60008373ffffffffffffffffffffffffffffffffffffffff1673ffffffffffffffffffffffffffffffffffffffff168152602001908152602001600020805480602002602001604051908101604052809291908181526020018280548015610ee857602002820191906000526020600020905b815481526020019060010190808311610ed4575b50505050509050919050565b600080610f00836122a6565b9050600073ffffffffffffffffffffffffffffffffffffffff168173ffffffffffffffffffffffffffffffffffffffff1603610f71576040517f08c379a0000000000000000000000000000000000000000000000000000000008152600401610f689061419c565b60405180910390fd5b80915050919050565b6000610f85826122e3565b610fc4576040517f08c379a0000000000000000000000000000000000000000000000000000000008152600401610fbb90614208565b60405180910390fd5b6011600083815260200190815260200160002060010160009054906101000a900460ff169050919050565b60008073ffffffffffffffffffffffffffffffffffffffff168273ffffffffffffffffffffffffffffffffffffffff160361105f576040517f08c379a00000000000000000000000000000000000000000000000000000000081526004016110569061429a565b60405180910390fd5b600360008373ffffffffffffffffffffffffffffffffffffffff1673ffffffffffffffffffffffffffffffffffffffff168152602001908152602001600020549050919050565b6110ae611e9a565b6110b86000612324565b565b60606000600e60003373ffffffffffffffffffffffffffffffffffffffff1673ffffffffffffffffffffffffffffffffffffffff16815260200190815260200160002080548060200260200160405190810160405280929190818152602001828054801561114757602002820191906000526020600020905b815481526020019060010190808311611133575b505050505090506000815167ffffffffffffffff81111561116b5761116a613b88565b5b6040519080825280602002602001820160405280156111a457816020015b611191613406565b8152602001906001900390816111895790505b50905060005b825181101561126157601160008483815181106111ca576111c9614076565b5b60200260200101518152602001908152602001600020604051806040016040529081600082015481526020016001820160009054906101000a900460ff16600381111561121a57611219613868565b5b600381111561122c5761122b613868565b5b8152505082828151811061124357611242614076565b5b6020026020010181905250808061125990614108565b9150506111aa565b50809250505090565b6000600760009054906101000a900473ffffffffffffffffffffffffffffffffffffffff16905090565b3373ffffffffffffffffffffffffffffffffffffffff166112b482610ef4565b73ffffffffffffffffffffffffffffffffffffffff161461130a576040517f08c379a00000000000000000000000000000000000000000000000000000000081526004016113019061432c565b60405180910390fd5b611315338383610b8d565b5050565b60606001805461132890613e8f565b80601f016020809104026020016040519081016040528092919081815260200182805461135490613e8f565b80156113a15780601f10611376576101008083540402835291602001916113a1565b820191906000526020600020905b81548152906001019060200180831161138457829003601f168201915b5050505050905090565b6000600b54905090565b600a5481565b600b5481565b6113d36113cc611dd9565b83836123ea565b5050565b60606000821161141c576040517f08c379a000000000000000000000000000000000000000000000000000000000815260040161141390614398565b60405180910390fd5b600f80549050821115611464576040517f08c379a000000000000000000000000000000000000000000000000000000000815260040161145b9061442a565b60405180910390fd5b60008267ffffffffffffffff8111156114805761147f613b88565b5b6040519080825280602002602001820160405280156114ae5781602001602082028036833780820191505090505b50905060006114bb612556565b905060005b8481101561158157600f8282815181106114dd576114dc614076565b5b6020026020010151815481106114f6576114f5614076565b5b9060005260206000200160009054906101000a900473ffffffffffffffffffffffffffffffffffffffff1683828151811061153457611533614076565b5b602002602001019073ffffffffffffffffffffffffffffffffffffffff16908173ffffffffffffffffffffffffffffffffffffffff1681525050808061157990614108565b9150506114c0565b508192505050919050565b60116020528060005260406000206000915090508060000154908060010160009054906101000a900460ff16905082565b600980546115ca90613e8f565b80601f01602080910402602001604051908101604052809291908181526020018280546115f690613e8f565b80156116435780601f1061161857610100808354040283529160200191611643565b820191906000526020600020905b81548152906001019060200180831161162657829003601f168201915b505050505081565b61165c611656611dd9565b83611f18565b61169b576040517f08c379a000000000000000000000000000000000000000000000000000000000815260040161169290614056565b60405180910390fd5b6116a784848484612761565b50505050565b60106020528060005260406000206000915090505481565b60606116d0826127bd565b9050919050565b6000600560008473ffffffffffffffffffffffffffffffffffffffff1673ffffffffffffffffffffffffffffffffffffffff16815260200190815260200160002060008373ffffffffffffffffffffffffffffffffffffffff1673ffffffffffffffffffffffffffffffffffffffff16815260200190815260200160002060009054906101000a900460ff16905092915050565b611773611e9a565b80600b8190555050565b611785611e9a565b600073ffffffffffffffffffffffffffffffffffffffff168173ffffffffffffffffffffffffffffffffffffffff16036117f4576040517f08c379a00000000000000000000000000000000000000000000000000000000081526004016117eb906144bc565b60405180910390fd5b6117fd81612324565b50565b611808611e9a565b80600a8190555050565b600a5461181e33610fef565b1061185e576040517f08c379a00000000000000000000000000000000000000000000000000000000081526004016118559061454e565b60405180910390fd5b600b543410156118a3576040517f08c379a000000000000000000000000000000000000000000000000000000000815260040161189a906145ba565b60405180910390fd5b6000424433600c60009054906101000a900473ffffffffffffffffffffffffffffffffffffffff166040516020016118de9493929190614643565b6040516020818303038152906040528051906020012060001c9050600060648261190891906146c0565b90506000603c82101561191e5760009050611949565b60558210156119305760019050611948565b605f8210156119425760029050611947565b600390505b5b5b6001600d600082825461195c91906140d4565b92505081905550613a98600d541061198057655af3107a4000600b819055506119c5565b612710600d541061199d57652d79883d2000600b819055506119c4565b611388600d54106119ba576512309ce54000600b819055506119c3565b6000600b819055505b5b5b33600c60006101000a81548173ffffffffffffffffffffffffffffffffffffffff021916908373ffffffffffffffffffffffffffffffffffffffff160217905550611a1060086128cf565b6000611a1c60086128e5565b9050611a2833826128f3565b611a328186612b10565b60006040518060400160405280838152602001846003811115611a5857611a57613868565b5b8152509050600e60003373ffffffffffffffffffffffffffffffffffffffff1673ffffffffffffffffffffffffffffffffffffffff16815260200190815260200160002082908060018154018082558091505060019003906000526020600020016000909190919091505580601160008481526020019081526020016000206000820151816000015560208201518160010160006101000a81548160ff02191690836003811115611b0c57611b0b613868565b5b021790555090505042601060003373ffffffffffffffffffffffffffffffffffffffff1673ffffffffffffffffffffffffffffffffffffffff168152602001908152602001600020819055506000600f8054905003611bcd57600f339080600181540180825580915050600190039060005260206000200160009091909190916101000a81548173ffffffffffffffffffffffffffffffffffffffff021916908373ffffffffffffffffffffffffffffffffffffffff160217905550611cd7565b6000805b600f80549050811015611c6b573373ffffffffffffffffffffffffffffffffffffffff16600f8281548110611c0957611c08614076565b5b9060005260206000200160009054906101000a900473ffffffffffffffffffffffffffffffffffffffff1673ffffffffffffffffffffffffffffffffffffffff1603611c585760019150611c6b565b8080611c6390614108565b915050611bd1565b5080611cd557600f339080600181540180825580915050600190039060005260206000200160009091909190916101000a81548173ffffffffffffffffffffffffffffffffffffffff021916908373ffffffffffffffffffffffffffffffffffffffff1602179055505b505b817f1f8e224df372b1305000c3f246efd7adce7c93d99ef7f8369a6f61a441f47dfa846003811115611d0c57611d0b613868565b5b3342604051611d1d939291906146f1565b60405180910390a2505050505050565b6000634906490660e01b7bffffffffffffffffffffffffffffffffffffffffffffffffffffffff1916827bffffffffffffffffffffffffffffffffffffffffffffffffffffffff19161480611d875750611d8682612bb4565b5b9050919050565b611d97816122e3565b611dd6576040517f08c379a0000000000000000000000000000000000000000000000000000000008152600401611dcd9061419c565b60405180910390fd5b50565b600033905090565b816004600083815260200190815260200160002060006101000a81548173ffffffffffffffffffffffffffffffffffffffff021916908373ffffffffffffffffffffffffffffffffffffffff160217905550808273ffffffffffffffffffffffffffffffffffffffff16611e5483610ef4565b73ffffffffffffffffffffffffffffffffffffffff167f8c5be1e5ebec7d5bd14f71427d1e84f3dd0314c0f7b2291e5b200ac8c7c3b92560405160405180910390a45050565b611ea2611dd9565b73ffffffffffffffffffffffffffffffffffffffff16611ec061126a565b73ffffffffffffffffffffffffffffffffffffffff1614611f16576040517f08c379a0000000000000000000000000000000000000000000000000000000008152600401611f0d90614774565b60405180910390fd5b565b600080611f2483610ef4565b90508073ffffffffffffffffffffffffffffffffffffffff168473ffffffffffffffffffffffffffffffffffffffff161480611f665750611f6581856116d7565b5b80611fa457508373ffffffffffffffffffffffffffffffffffffffff16611f8c84610941565b73ffffffffffffffffffffffffffffffffffffffff16145b91505092915050565b8273ffffffffffffffffffffffffffffffffffffffff16611fcd82610ef4565b73ffffffffffffffffffffffffffffffffffffffff1614612023576040517f08c379a000000000000000000000000000000000000000000000000000000000815260040161201a90614806565b60405180910390fd5b600073ffffffffffffffffffffffffffffffffffffffff168273ffffffffffffffffffffffffffffffffffffffff1603612092576040517f08c379a000000000000000000000000000000000000000000000000000000000815260040161208990614898565b60405180910390fd5b61209f8383836001612c96565b8273ffffffffffffffffffffffffffffffffffffffff166120bf82610ef4565b73ffffffffffffffffffffffffffffffffffffffff1614612115576040517f08c379a000000000000000000000000000000000000000000000000000000000815260040161210c90614806565b60405180910390fd5b6004600082815260200190815260200160002060006101000a81549073ffffffffffffffffffffffffffffffffffffffff02191690556001600360008573ffffffffffffffffffffffffffffffffffffffff1673ffffffffffffffffffffffffffffffffffffffff168152602001908152602001600020600082825403925050819055506001600360008473ffffffffffffffffffffffffffffffffffffffff1673ffffffffffffffffffffffffffffffffffffffff16815260200190815260200160002060008282540192505081905550816002600083815260200190815260200160002060006101000a81548173ffffffffffffffffffffffffffffffffffffffff021916908373ffffffffffffffffffffffffffffffffffffffff160217905550808273ffffffffffffffffffffffffffffffffffffffff168473ffffffffffffffffffffffffffffffffffffffff167fddf252ad1be2c89b69c2b068fc378daa952ba7f163c4a11628f55a4df523b3ef60405160405180910390a46122a18383836001612c9c565b505050565b60006002600083815260200190815260200160002060009054906101000a900473ffffffffffffffffffffffffffffffffffffffff169050919050565b60008073ffffffffffffffffffffffffffffffffffffffff16612305836122a6565b73ffffffffffffffffffffffffffffffffffffffff1614159050919050565b6000600760009054906101000a900473ffffffffffffffffffffffffffffffffffffffff16905081600760006101000a81548173ffffffffffffffffffffffffffffffffffffffff021916908373ffffffffffffffffffffffffffffffffffffffff1602179055508173ffffffffffffffffffffffffffffffffffffffff168173ffffffffffffffffffffffffffffffffffffffff167f8be0079c531659141344cd1fd0a4f28419497f9722a3daafe3b4186f6b6457e060405160405180910390a35050565b8173ffffffffffffffffffffffffffffffffffffffff168373ffffffffffffffffffffffffffffffffffffffff1603612458576040517f08c379a000000000000000000000000000000000000000000000000000000000815260040161244f90614904565b60405180910390fd5b80600560008573ffffffffffffffffffffffffffffffffffffffff1673ffffffffffffffffffffffffffffffffffffffff16815260200190815260200160002060008473ffffffffffffffffffffffffffffffffffffffff1673ffffffffffffffffffffffffffffffffffffffff16815260200190815260200160002060006101000a81548160ff0219169083151502179055508173ffffffffffffffffffffffffffffffffffffffff168373ffffffffffffffffffffffffffffffffffffffff167f17307eab39ab6107e8899845ad3d59bd9653f200f220920489ca2b5937696c318360405161254991906135fb565b60405180910390a3505050565b60606000600f8054905067ffffffffffffffff81111561257957612578613b88565b5b6040519080825280602002602001820160405280156125a75781602001602082028036833780820191505090505b50905060005b600f805490508110156125ed57808282815181106125ce576125cd614076565b5b60200260200101818152505080806125e590614108565b9150506125ad565b5060005b6001600f805490506126039190614924565b81101561275957600060018261261991906140d4565b90505b600f8054905081101561274557612670600f82815481106126405761263f614076565b5b9060005260206000200160009054906101000a900473ffffffffffffffffffffffffffffffffffffffff16612ca2565b6126b7600f848154811061268757612686614076565b5b9060005260206000200160009054906101000a900473ffffffffffffffffffffffffffffffffffffffff16612ca2565b1015612732578281815181106126d0576126cf614076565b5b60200260200101518383815181106126eb576126ea614076565b5b602002602001015184848151811061270657612705614076565b5b602002602001018584815181106127205761271f614076565b5b60200260200101828152508281525050505b808061273d90614108565b91505061261c565b50808061275190614108565b9150506125f1565b508091505090565b61276c848484611fad565b61277884848484612f52565b6127b7576040517f08c379a00000000000000000000000000000000000000000000000000000000081526004016127ae906149ca565b60405180910390fd5b50505050565b60606127c882611d8e565b60006006600084815260200190815260200160002080546127e890613e8f565b80601f016020809104026020016040519081016040528092919081815260200182805461281490613e8f565b80156128615780601f1061283657610100808354040283529160200191612861565b820191906000526020600020905b81548152906001019060200180831161284457829003601f168201915b5050505050905060006128726130d9565b905060008151036128875781925050506128ca565b6000825111156128bc5780826040516020016128a4929190614a26565b604051602081830303815290604052925050506128ca565b6128c5846130f0565b925050505b919050565b6001816000016000828254019250508190555050565b600081600001549050919050565b600073ffffffffffffffffffffffffffffffffffffffff168273ffffffffffffffffffffffffffffffffffffffff1603612962576040517f08c379a000000000000000000000000000000000000000000000000000000000815260040161295990614a96565b60405180910390fd5b61296b816122e3565b156129ab576040517f08c379a00000000000000000000000000000000000000000000000000000000081526004016129a290614b02565b60405180910390fd5b6129b9600083836001612c96565b6129c2816122e3565b15612a02576040517f08c379a00000000000000000000000000000000000000000000000000000000081526004016129f990614b02565b60405180910390fd5b6001600360008473ffffffffffffffffffffffffffffffffffffffff1673ffffffffffffffffffffffffffffffffffffffff16815260200190815260200160002060008282540192505081905550816002600083815260200190815260200160002060006101000a81548173ffffffffffffffffffffffffffffffffffffffff021916908373ffffffffffffffffffffffffffffffffffffffff160217905550808273ffffffffffffffffffffffffffffffffffffffff16600073ffffffffffffffffffffffffffffffffffffffff167fddf252ad1be2c89b69c2b068fc378daa952ba7f163c4a11628f55a4df523b3ef60405160405180910390a4612b0c600083836001612c9c565b5050565b612b19826122e3565b612b58576040517f08c379a0000000000000000000000000000000000000000000000000000000008152600401612b4f90614b94565b60405180910390fd5b80600660008481526020019081526020016000209081612b789190614d60565b507ff8e1a15aba9398e019f0b49df1a4fde98ee17ae345cb5f6b5e2c27f5033e8ce782604051612ba891906136ed565b60405180910390a15050565b60007f80ac58cd000000000000000000000000000000000000000000000000000000007bffffffffffffffffffffffffffffffffffffffffffffffffffffffff1916827bffffffffffffffffffffffffffffffffffffffffffffffffffffffff19161480612c7f57507f5b5e139f000000000000000000000000000000000000000000000000000000007bffffffffffffffffffffffffffffffffffffffffffffffffffffffff1916827bffffffffffffffffffffffffffffffffffffffffffffffffffffffff1916145b80612c8f5750612c8e82613158565b5b9050919050565b50505050565b50505050565b600080600e60008473ffffffffffffffffffffffffffffffffffffffff1673ffffffffffffffffffffffffffffffffffffffff168152602001908152602001600020805480602002602001604051908101604052809291908181526020018280548015612d2e57602002820191906000526020600020905b815481526020019060010190808311612d1a575b505050505090506000805b8251811015612f475760006003811115612d5657612d55613868565b5b60116000858481518110612d6d57612d6c614076565b5b6020026020010151815260200190815260200160002060010160009054906101000a900460ff166003811115612da657612da5613868565b5b03612dbf57600182612db891906140d4565b9150612f34565b60016003811115612dd357612dd2613868565b5b60116000858481518110612dea57612de9614076565b5b6020026020010151815260200190815260200160002060010160009054906101000a900460ff166003811115612e2357612e22613868565b5b03612e3c57600582612e3591906140d4565b9150612f33565b60026003811115612e5057612e4f613868565b5b60116000858481518110612e6757612e66614076565b5b6020026020010151815260200190815260200160002060010160009054906101000a900460ff166003811115612ea057612e9f613868565b5b03612eb957600f82612eb291906140d4565b9150612f32565b600380811115612ecc57612ecb613868565b5b60116000858481518110612ee357612ee2614076565b5b6020026020010151815260200190815260200160002060010160009054906101000a900460ff166003811115612f1c57612f1b613868565b5b03612f3157603282612f2e91906140d4565b91505b5b5b5b8080612f3f90614108565b915050612d39565b508092505050919050565b6000612f738473ffffffffffffffffffffffffffffffffffffffff166131c2565b156130cc578373ffffffffffffffffffffffffffffffffffffffff1663150b7a02612f9c611dd9565b8786866040518563ffffffff1660e01b8152600401612fbe9493929190614e87565b6020604051808303816000875af1925050508015612ffa57506040513d601f19601f82011682018060405250810190612ff79190614ee8565b60015b61307c573d806000811461302a576040519150601f19603f3d011682016040523d82523d6000602084013e61302f565b606091505b506000815103613074576040517f08c379a000000000000000000000000000000000000000000000000000000000815260040161306b906149ca565b60405180910390fd5b805181602001fd5b63150b7a0260e01b7bffffffffffffffffffffffffffffffffffffffffffffffffffffffff1916817bffffffffffffffffffffffffffffffffffffffffffffffffffffffff1916149150506130d1565b600190505b949350505050565b606060405180602001604052806000815250905090565b60606130fb82611d8e565b60006131056130d9565b905060008151116131255760405180602001604052806000815250613150565b8061312f846131e5565b604051602001613140929190614a26565b6040516020818303038152906040525b915050919050565b60007f01ffc9a7000000000000000000000000000000000000000000000000000000007bffffffffffffffffffffffffffffffffffffffffffffffffffffffff1916827bffffffffffffffffffffffffffffffffffffffffffffffffffffffff1916149050919050565b6000808273ffffffffffffffffffffffffffffffffffffffff163b119050919050565b6060600060016131f4846132b3565b01905060008167ffffffffffffffff81111561321357613212613b88565b5b6040519080825280601f01601f1916602001820160405280156132455781602001600182028036833780820191505090505b509050600082602001820190505b6001156132a8578080600190039150507f3031323334353637383961626364656600000000000000000000000000000000600a86061a8153600a858161329c5761329b614691565b5b04945060008503613253575b819350505050919050565b600080600090507a184f03e93ff9f4daa797ed6e38ed64bf6a1f0100000000000000008310613311577a184f03e93ff9f4daa797ed6e38ed64bf6a1f010000000000000000838161330757613306614691565b5b0492506040810190505b6d04ee2d6d415b85acef8100000000831061334e576d04ee2d6d415b85acef8100000000838161334457613343614691565b5b0492506020810190505b662386f26fc10000831061337d57662386f26fc10000838161337357613372614691565b5b0492506010810190505b6305f5e10083106133a6576305f5e100838161339c5761339b614691565b5b0492506008810190505b61271083106133cb5761271083816133c1576133c0614691565b5b0492506004810190505b606483106133ee57606483816133e4576133e3614691565b5b0492506002810190505b600a83106133fd576001810190505b80915050919050565b6040518060400160405280600081526020016000600381111561342c5761342b613868565b5b81525090565b6000604051905090565b600080fd5b600080fd5b6000819050919050565b61345981613446565b811461346457600080fd5b50565b60008135905061347681613450565b92915050565b6000602082840312156134925761349161343c565b5b60006134a084828501613467565b91505092915050565b600081519050919050565b600082825260208201905092915050565b60005b838110156134e35780820151818401526020810190506134c8565b60008484015250505050565b6000601f19601f8301169050919050565b600061350b826134a9565b61351581856134b4565b93506135258185602086016134c5565b61352e816134ef565b840191505092915050565b600060208201905081810360008301526135538184613500565b905092915050565b60007fffffffff0000000000000000000000000000000000000000000000000000000082169050919050565b6135908161355b565b811461359b57600080fd5b50565b6000813590506135ad81613587565b92915050565b6000602082840312156135c9576135c861343c565b5b60006135d78482850161359e565b91505092915050565b60008115159050919050565b6135f5816135e0565b82525050565b600060208201905061361060008301846135ec565b92915050565b600073ffffffffffffffffffffffffffffffffffffffff82169050919050565b600061364182613616565b9050919050565b61365181613636565b82525050565b600060208201905061366c6000830184613648565b92915050565b61367b81613636565b811461368657600080fd5b50565b60008135905061369881613672565b92915050565b600080604083850312156136b5576136b461343c565b5b60006136c385828601613689565b92505060206136d485828601613467565b9150509250929050565b6136e781613446565b82525050565b600060208201905061370260008301846136de565b92915050565b6000806000606084860312156137215761372061343c565b5b600061372f86828701613689565b935050602061374086828701613689565b925050604061375186828701613467565b9150509250925092565b6000602082840312156137715761377061343c565b5b600061377f84828501613689565b91505092915050565b600081519050919050565b600082825260208201905092915050565b6000819050602082019050919050565b6137bd81613446565b82525050565b60006137cf83836137b4565b60208301905092915050565b6000602082019050919050565b60006137f382613788565b6137fd8185613793565b9350613808836137a4565b8060005b8381101561383957815161382088826137c3565b975061382b836137db565b92505060018101905061380c565b5085935050505092915050565b6000602082019050818103600083015261386081846137e8565b905092915050565b7f4e487b7100000000000000000000000000000000000000000000000000000000600052602160045260246000fd5b600481106138a8576138a7613868565b5b50565b60008190506138b982613897565b919050565b60006138c9826138ab565b9050919050565b6138d9816138be565b82525050565b60006020820190506138f460008301846138d0565b92915050565b600081519050919050565b600082825260208201905092915050565b6000819050602082019050919050565b61392f816138be565b82525050565b60408201600082015161394b60008501826137b4565b50602082015161395e6020850182613926565b50505050565b60006139708383613935565b60408301905092915050565b6000602082019050919050565b6000613994826138fa565b61399e8185613905565b93506139a983613916565b8060005b838110156139da5781516139c18882613964565b97506139cc8361397c565b9250506001810190506139ad565b5085935050505092915050565b60006020820190508181036000830152613a018184613989565b905092915050565b613a12816135e0565b8114613a1d57600080fd5b50565b600081359050613a2f81613a09565b92915050565b60008060408385031215613a4c57613a4b61343c565b5b6000613a5a85828601613689565b9250506020613a6b85828601613a20565b9150509250929050565b600081519050919050565b600082825260208201905092915050565b6000819050602082019050919050565b613aaa81613636565b82525050565b6000613abc8383613aa1565b60208301905092915050565b6000602082019050919050565b6000613ae082613a75565b613aea8185613a80565b9350613af583613a91565b8060005b83811015613b26578151613b0d8882613ab0565b9750613b1883613ac8565b925050600181019050613af9565b5085935050505092915050565b60006020820190508181036000830152613b4d8184613ad5565b905092915050565b6000604082019050613b6a60008301856136de565b613b7760208301846138d0565b9392505050565b600080fd5b600080fd5b7f4e487b7100000000000000000000000000000000000000000000000000000000600052604160045260246000fd5b613bc0826134ef565b810181811067ffffffffffffffff82111715613bdf57613bde613b88565b5b80604052505050565b6000613bf2613432565b9050613bfe8282613bb7565b919050565b600067ffffffffffffffff821115613c1e57613c1d613b88565b5b613c27826134ef565b9050602081019050919050565b82818337600083830152505050565b6000613c56613c5184613c03565b613be8565b905082815260208101848484011115613c7257613c71613b83565b5b613c7d848285613c34565b509392505050565b600082601f830112613c9a57613c99613b7e565b5b8135613caa848260208601613c43565b91505092915050565b60008060008060808587031215613ccd57613ccc61343c565b5b6000613cdb87828801613689565b9450506020613cec87828801613689565b9350506040613cfd87828801613467565b925050606085013567ffffffffffffffff811115613d1e57613d1d613441565b5b613d2a87828801613c85565b91505092959194509250565b60008060408385031215613d4d57613d4c61343c565b5b6000613d5b85828601613689565b9250506020613d6c85828601613689565b9150509250929050565b600067ffffffffffffffff821115613d9157613d90613b88565b5b613d9a826134ef565b9050602081019050919050565b6000613dba613db584613d76565b613be8565b905082815260208101848484011115613dd657613dd5613b83565b5b613de1848285613c34565b509392505050565b600082601f830112613dfe57613dfd613b7e565b5b8135613e0e848260208601613da7565b91505092915050565b600060208284031215613e2d57613e2c61343c565b5b600082013567ffffffffffffffff811115613e4b57613e4a613441565b5b613e5784828501613de9565b91505092915050565b7f4e487b7100000000000000000000000000000000000000000000000000000000600052602260045260246000fd5b60006002820490506001821680613ea757607f821691505b602082108103613eba57613eb9613e60565b5b50919050565b7f4552433732313a20617070726f76616c20746f2063757272656e74206f776e6560008201527f7200000000000000000000000000000000000000000000000000000000000000602082015250565b6000613f1c6021836134b4565b9150613f2782613ec0565b604082019050919050565b60006020820190508181036000830152613f4b81613f0f565b9050919050565b7f4552433732313a20617070726f76652063616c6c6572206973206e6f7420746f60008201527f6b656e206f776e6572206f7220617070726f76656420666f7220616c6c000000602082015250565b6000613fae603d836134b4565b9150613fb982613f52565b604082019050919050565b60006020820190508181036000830152613fdd81613fa1565b9050919050565b7f4552433732313a2063616c6c6572206973206e6f7420746f6b656e206f776e6560008201527f72206f7220617070726f76656400000000000000000000000000000000000000602082015250565b6000614040602d836134b4565b915061404b82613fe4565b604082019050919050565b6000602082019050818103600083015261406f81614033565b9050919050565b7f4e487b7100000000000000000000000000000000000000000000000000000000600052603260045260246000fd5b7f4e487b7100000000000000000000000000000000000000000000000000000000600052601160045260246000fd5b60006140df82613446565b91506140ea83613446565b9250828201905080821115614102576141016140a5565b5b92915050565b600061411382613446565b91507fffffffffffffffffffffffffffffffffffffffffffffffffffffffffffffffff8203614145576141446140a5565b5b600182019050919050565b7f4552433732313a20696e76616c696420746f6b656e2049440000000000000000600082015250565b60006141866018836134b4565b915061419182614150565b602082019050919050565b600060208201905081810360008301526141b581614179565b9050919050565b7f546f6b656e20494420646f6573206e6f74206578697374000000000000000000600082015250565b60006141f26017836134b4565b91506141fd826141bc565b602082019050919050565b60006020820190508181036000830152614221816141e5565b9050919050565b7f4552433732313a2061646472657373207a65726f206973206e6f74206120766160008201527f6c6964206f776e65720000000000000000000000000000000000000000000000602082015250565b60006142846029836134b4565b915061428f82614228565b604082019050919050565b600060208201905081810360008301526142b381614277565b9050919050565b7f596f7520617265206e6f7420746865206f776e6572206f662074686973204e4660008201527f5400000000000000000000000000000000000000000000000000000000000000602082015250565b60006143166021836134b4565b9150614321826142ba565b604082019050919050565b6000602082019050818103600083015261434581614309565b9050919050565b7f546f70206d7573742062652067726561746572207468616e207a65726f000000600082015250565b6000614382601d836134b4565b915061438d8261434c565b602082019050919050565b600060208201905081810360008301526143b181614375565b9050919050565b7f546f70206578636565647320746865206e756d626572206f66206d696e74696e60008201527f6720616464726573736573000000000000000000000000000000000000000000602082015250565b6000614414602b836134b4565b915061441f826143b8565b604082019050919050565b6000602082019050818103600083015261444381614407565b9050919050565b7f4f776e61626c653a206e6577206f776e657220697320746865207a65726f206160008201527f6464726573730000000000000000000000000000000000000000000000000000602082015250565b60006144a66026836134b4565b91506144b18261444a565b604082019050919050565b600060208201905081810360008301526144d581614499565b9050919050565b7f596f752068617665207265616368656420746865206c696d6974206f66206d6960008201527f6e74696e67000000000000000000000000000000000000000000000000000000602082015250565b60006145386025836134b4565b9150614543826144dc565b604082019050919050565b600060208201905081810360008301526145678161452b565b9050919050565b7f496e73756666696369656e742065746865722073656e74000000000000000000600082015250565b60006145a46017836134b4565b91506145af8261456e565b602082019050919050565b600060208201905081810360008301526145d381614597565b9050919050565b6000819050919050565b6145f56145f082613446565b6145da565b82525050565b60008160601b9050919050565b6000614613826145fb565b9050919050565b600061462582614608565b9050919050565b61463d61463882613636565b61461a565b82525050565b600061464f82876145e4565b60208201915061465f82866145e4565b60208201915061466f828561462c565b60148201915061467f828461462c565b60148201915081905095945050505050565b7f4e487b7100000000000000000000000000000000000000000000000000000000600052601260045260246000fd5b60006146cb82613446565b91506146d683613446565b9250826146e6576146e5614691565b5b828206905092915050565b600060608201905061470660008301866136de565b6147136020830185613648565b61472060408301846136de565b949350505050565b7f4f776e61626c653a2063616c6c6572206973206e6f7420746865206f776e6572600082015250565b600061475e6020836134b4565b915061476982614728565b602082019050919050565b6000602082019050818103600083015261478d81614751565b9050919050565b7f4552433732313a207472616e736665722066726f6d20696e636f72726563742060008201527f6f776e6572000000000000000000000000000000000000000000000000000000602082015250565b60006147f06025836134b4565b91506147fb82614794565b604082019050919050565b6000602082019050818103600083015261481f816147e3565b9050919050565b7f4552433732313a207472616e7366657220746f20746865207a65726f2061646460008201527f7265737300000000000000000000000000000000000000000000000000000000602082015250565b60006148826024836134b4565b915061488d82614826565b604082019050919050565b600060208201905081810360008301526148b181614875565b9050919050565b7f4552433732313a20617070726f766520746f2063616c6c657200000000000000600082015250565b60006148ee6019836134b4565b91506148f9826148b8565b602082019050919050565b6000602082019050818103600083015261491d816148e1565b9050919050565b600061492f82613446565b915061493a83613446565b9250828203905081811115614952576149516140a5565b5b92915050565b7f4552433732313a207472616e7366657220746f206e6f6e20455243373231526560008201527f63656976657220696d706c656d656e7465720000000000000000000000000000602082015250565b60006149b46032836134b4565b91506149bf82614958565b604082019050919050565b600060208201905081810360008301526149e3816149a7565b9050919050565b600081905092915050565b6000614a00826134a9565b614a0a81856149ea565b9350614a1a8185602086016134c5565b80840191505092915050565b6000614a3282856149f5565b9150614a3e82846149f5565b91508190509392505050565b7f4552433732313a206d696e7420746f20746865207a65726f2061646472657373600082015250565b6000614a806020836134b4565b9150614a8b82614a4a565b602082019050919050565b60006020820190508181036000830152614aaf81614a73565b9050919050565b7f4552433732313a20746f6b656e20616c7265616479206d696e74656400000000600082015250565b6000614aec601c836134b4565b9150614af782614ab6565b602082019050919050565b60006020820190508181036000830152614b1b81614adf565b9050919050565b7f45524337323155524953746f726167653a2055524920736574206f66206e6f6e60008201527f6578697374656e7420746f6b656e000000000000000000000000000000000000602082015250565b6000614b7e602e836134b4565b9150614b8982614b22565b604082019050919050565b60006020820190508181036000830152614bad81614b71565b9050919050565b60008190508160005260206000209050919050565b60006020601f8301049050919050565b600082821b905092915050565b600060088302614c167fffffffffffffffffffffffffffffffffffffffffffffffffffffffffffffffff82614bd9565b614c208683614bd9565b95508019841693508086168417925050509392505050565b6000819050919050565b6000614c5d614c58614c5384613446565b614c38565b613446565b9050919050565b6000819050919050565b614c7783614c42565b614c8b614c8382614c64565b848454614be6565b825550505050565b600090565b614ca0614c93565b614cab818484614c6e565b505050565b5b81811015614ccf57614cc4600082614c98565b600181019050614cb1565b5050565b601f821115614d1457614ce581614bb4565b614cee84614bc9565b81016020851015614cfd578190505b614d11614d0985614bc9565b830182614cb0565b50505b505050565b600082821c905092915050565b6000614d3760001984600802614d19565b1980831691505092915050565b6000614d508383614d26565b9150826002028217905092915050565b614d69826134a9565b67ffffffffffffffff811115614d8257614d81613b88565b5b614d8c8254613e8f565b614d97828285614cd3565b600060209050601f831160018114614dca5760008415614db8578287015190505b614dc28582614d44565b865550614e2a565b601f198416614dd886614bb4565b60005b82811015614e0057848901518255600182019150602085019450602081019050614ddb565b86831015614e1d5784890151614e19601f891682614d26565b8355505b6001600288020188555050505b505050505050565b600081519050919050565b600082825260208201905092915050565b6000614e5982614e32565b614e638185614e3d565b9350614e738185602086016134c5565b614e7c816134ef565b840191505092915050565b6000608082019050614e9c6000830187613648565b614ea96020830186613648565b614eb660408301856136de565b8181036060830152614ec88184614e4e565b905095945050505050565b600081519050614ee281613587565b92915050565b600060208284031215614efe57614efd61343c565b5b6000614f0c84828501614ed3565b9150509291505056fea2646970667358221220f9bee651635c8af371d1d77565721594cc85c06f32315ff9567b504526e1b83c64736f6c63430008120033",
  "linkReferences": {},
  "deployedLinkReferences": {}
}