{
  "_format": "hh-sol-artifact-1",
  "contractName": "BaseXNFT",
  "sourceName": "contracts/BaseXNFT.sol",
  "abi": [
    {
      "inputs": [],
      "stateMutability": "nonpayable",
      "type": "constructor"
    },
    {
      "anonymous": false,
      "inputs": [
        {
          "indexed": true,
          "internalType": "address",
          "name": "owner",
          "type": "address"
        },
        {
          "indexed": true,
          "internalType": "address",
          "name": "approved",
          "type": "address"
        },
        {
          "indexed": true,
          "internalType": "uint256",
          "name": "tokenId",
          "type": "uint256"
        }
      ],
      "name": "Approval",
      "type": "event"
    },
    {
      "anonymous": false,
      "inputs": [
        {
          "indexed": true,
          "internalType": "address",
          "name": "owner",
          "type": "address"
        },
        {
          "indexed": true,
          "internalType": "address",
          "name": "operator",
          "type": "address"
        },
        {
          "indexed": false,
          "internalType": "bool",
          "name": "approved",
          "type": "bool"
        }
      ],
      "name": "ApprovalForAll",
      "type": "event"
    },
    {
      "anonymous": false,
      "inputs": [
        {
          "indexed": false,
          "internalType": "uint256",
          "name": "_fromTokenId",
          "type": "uint256"
        },
        {
          "indexed": false,
          "internalType": "uint256",
          "name": "_toTokenId",
          "type": "uint256"
        }
      ],
      "name": "BatchMetadataUpdate",
      "type": "event"
    },
    {
      "anonymous": false,
      "inputs": [
        {
          "indexed": false,
          "internalType": "uint256",
          "name": "_tokenId",
          "type": "uint256"
        }
      ],
      "name": "MetadataUpdate",
      "type": "event"
    },
    {
      "anonymous": false,
      "inputs": [
        {
          "indexed": true,
          "internalType": "uint256",
          "name": "tokenId",
          "type": "uint256"
        },
        {
          "indexed": false,
          "internalType": "uint256",
          "name": "rank",
          "type": "uint256"
        },
        {
          "indexed": false,
          "internalType": "address",
          "name": "owner_minted",
          "type": "address"
        },
        {
          "indexed": false,
          "internalType": "uint256",
          "name": "time_minted",
          "type": "uint256"
        }
      ],
      "name": "NFTMinted",
      "type": "event"
    },
    {
      "anonymous": false,
      "inputs": [
        {
          "indexed": true,
          "internalType": "address",
          "name": "previousOwner",
          "type": "address"
        },
        {
          "indexed": true,
          "internalType": "address",
          "name": "newOwner",
          "type": "address"
        }
      ],
      "name": "OwnershipTransferred",
      "type": "event"
    },
    {
      "anonymous": false,
      "inputs": [
        {
          "indexed": true,
          "internalType": "address",
          "name": "from",
          "type": "address"
        },
        {
          "indexed": true,
          "internalType": "address",
          "name": "to",
          "type": "address"
        },
        {
          "indexed": true,
          "internalType": "uint256",
          "name": "tokenId",
          "type": "uint256"
        }
      ],
      "name": "Transfer",
      "type": "event"
    },
    {
      "inputs": [],
      "name": "NFT_url",
      "outputs": [
        {
          "internalType": "string",
          "name": "",
          "type": "string"
        }
      ],
      "stateMutability": "view",
      "type": "function"
    },
    {
      "inputs": [
        {
          "internalType": "uint256",
          "name": "",
          "type": "uint256"
        }
      ],
      "name": "NFTs",
      "outputs": [
        {
          "internalType": "uint256",
          "name": "tokenId",
          "type": "uint256"
        },
        {
          "internalType": "enum BaseXNFT.Rank",
          "name": "rank",
          "type": "uint8"
        }
      ],
      "stateMutability": "view",
      "type": "function"
    },
    {
      "inputs": [
        {
          "internalType": "address",
          "name": "_address",
          "type": "address"
        }
      ],
      "name": "addFreeMintAddress",
      "outputs": [],
      "stateMutability": "nonpayable",
      "type": "function"
    },
    {
      "inputs": [
        {
          "internalType": "address",
          "name": "to",
          "type": "address"
        },
        {
          "internalType": "uint256",
          "name": "tokenId",
          "type": "uint256"
        }
      ],
      "name": "approve",
      "outputs": [],
      "stateMutability": "nonpayable",
      "type": "function"
    },
    {
      "inputs": [
        {
          "internalType": "address",
          "name": "owner",
          "type": "address"
        }
      ],
      "name": "balanceOf",
      "outputs": [
        {
          "internalType": "uint256",
          "name": "",
          "type": "uint256"
        }
      ],
      "stateMutability": "view",
      "type": "function"
    },
    {
      "inputs": [],
      "name": "changePriceChanged",
      "outputs": [],
      "stateMutability": "nonpayable",
      "type": "function"
    },
    {
      "inputs": [
        {
          "internalType": "uint256",
          "name": "_newLimit",
          "type": "uint256"
        }
      ],
      "name": "editLimitMint",
      "outputs": [],
      "stateMutability": "nonpayable",
      "type": "function"
    },
    {
      "inputs": [
        {
          "internalType": "uint256",
          "name": "_newPrice",
          "type": "uint256"
        }
      ],
      "name": "editPriceMint",
      "outputs": [],
      "stateMutability": "nonpayable",
      "type": "function"
    },
    {
      "inputs": [
        {
          "internalType": "string",
          "name": "_newUrl",
          "type": "string"
        },
        {
          "internalType": "uint256",
          "name": "_rank",
          "type": "uint256"
        }
      ],
      "name": "editUrlNFT",
      "outputs": [],
      "stateMutability": "nonpayable",
      "type": "function"
    },
    {
      "inputs": [
        {
          "internalType": "uint256",
          "name": "tokenId",
          "type": "uint256"
        }
      ],
      "name": "getApproved",
      "outputs": [
        {
          "internalType": "address",
          "name": "",
          "type": "address"
        }
      ],
      "stateMutability": "view",
      "type": "function"
    },
    {
      "inputs": [],
      "name": "getLastAdress",
      "outputs": [
        {
          "internalType": "address",
          "name": "",
          "type": "address"
        }
      ],
      "stateMutability": "view",
      "type": "function"
    },
    {
      "inputs": [
        {
          "internalType": "address",
          "name": "user",
          "type": "address"
        }
      ],
      "name": "getMintedNFTs",
      "outputs": [
        {
          "internalType": "uint256[]",
          "name": "",
          "type": "uint256[]"
        }
      ],
      "stateMutability": "view",
      "type": "function"
    },
    {
      "inputs": [
        {
          "internalType": "uint256",
          "name": "tokenId",
          "type": "uint256"
        }
      ],
      "name": "getNFTRank",
      "outputs": [
        {
          "internalType": "enum BaseXNFT.Rank",
          "name": "",
          "type": "uint8"
        }
      ],
      "stateMutability": "view",
      "type": "function"
    },
    {
      "inputs": [
        {
          "internalType": "uint256",
          "name": "tokenId",
          "type": "uint256"
        }
      ],
      "name": "getNFTURI",
      "outputs": [
        {
          "internalType": "string",
          "name": "",
          "type": "string"
        }
      ],
      "stateMutability": "view",
      "type": "function"
    },
    {
      "inputs": [
        {
          "internalType": "address",
          "name": "user",
          "type": "address"
        }
      ],
      "name": "getPoint",
      "outputs": [
        {
          "internalType": "uint256",
          "name": "",
          "type": "uint256"
        }
      ],
      "stateMutability": "view",
      "type": "function"
    },
    {
      "inputs": [],
      "name": "getPrice",
      "outputs": [
        {
          "internalType": "uint256",
          "name": "",
          "type": "uint256"
        }
      ],
      "stateMutability": "view",
      "type": "function"
    },
    {
      "inputs": [
        {
          "internalType": "uint256",
          "name": "top",
          "type": "uint256"
        }
      ],
      "name": "getTopMintNFT",
      "outputs": [
        {
          "internalType": "address[]",
          "name": "",
          "type": "address[]"
        }
      ],
      "stateMutability": "view",
      "type": "function"
    },
    {
      "inputs": [
        {
          "internalType": "address",
          "name": "owner",
          "type": "address"
        },
        {
          "internalType": "address",
          "name": "operator",
          "type": "address"
        }
      ],
      "name": "isApprovedForAll",
      "outputs": [
        {
          "internalType": "bool",
          "name": "",
          "type": "bool"
        }
      ],
      "stateMutability": "view",
      "type": "function"
    },
    {
      "inputs": [
        {
          "internalType": "address",
          "name": "",
          "type": "address"
        }
      ],
      "name": "lastMintTimestamp",
      "outputs": [
        {
          "internalType": "uint256",
          "name": "",
          "type": "uint256"
        }
      ],
      "stateMutability": "view",
      "type": "function"
    },
    {
      "inputs": [],
      "name": "limitMint",
      "outputs": [
        {
          "internalType": "uint256",
          "name": "",
          "type": "uint256"
        }
      ],
      "stateMutability": "view",
      "type": "function"
    },
    {
      "inputs": [],
      "name": "mintNFT",
      "outputs": [],
      "stateMutability": "payable",
      "type": "function"
    },
    {
      "inputs": [],
      "name": "name",
      "outputs": [
        {
          "internalType": "string",
          "name": "",
          "type": "string"
        }
      ],
      "stateMutability": "view",
      "type": "function"
    },
    {
      "inputs": [],
      "name": "owner",
      "outputs": [
        {
          "internalType": "address",
          "name": "",
          "type": "address"
        }
      ],
      "stateMutability": "view",
      "type": "function"
    },
    {
      "inputs": [
        {
          "internalType": "uint256",
          "name": "tokenId",
          "type": "uint256"
        }
      ],
      "name": "ownerOf",
      "outputs": [
        {
          "internalType": "address",
          "name": "",
          "type": "address"
        }
      ],
      "stateMutability": "view",
      "type": "function"
    },
    {
      "inputs": [],
      "name": "price",
      "outputs": [
        {
          "internalType": "uint256",
          "name": "",
          "type": "uint256"
        }
      ],
      "stateMutability": "view",
      "type": "function"
    },
    {
      "inputs": [
        {
          "internalType": "address",
          "name": "_address",
          "type": "address"
        }
      ],
      "name": "removeFreeMintAddress",
      "outputs": [],
      "stateMutability": "nonpayable",
      "type": "function"
    },
    {
      "inputs": [],
      "name": "renounceOwnership",
      "outputs": [],
      "stateMutability": "nonpayable",
      "type": "function"
    },
    {
      "inputs": [
        {
          "internalType": "address",
          "name": "from",
          "type": "address"
        },
        {
          "internalType": "address",
          "name": "to",
          "type": "address"
        },
        {
          "internalType": "uint256",
          "name": "tokenId",
          "type": "uint256"
        }
      ],
      "name": "safeTransferFrom",
      "outputs": [],
      "stateMutability": "nonpayable",
      "type": "function"
    },
    {
      "inputs": [
        {
          "internalType": "address",
          "name": "from",
          "type": "address"
        },
        {
          "internalType": "address",
          "name": "to",
          "type": "address"
        },
        {
          "internalType": "uint256",
          "name": "tokenId",
          "type": "uint256"
        },
        {
          "internalType": "bytes",
          "name": "data",
          "type": "bytes"
        }
      ],
      "name": "safeTransferFrom",
      "outputs": [],
      "stateMutability": "nonpayable",
      "type": "function"
    },
    {
      "inputs": [
        {
          "internalType": "address",
          "name": "operator",
          "type": "address"
        },
        {
          "internalType": "bool",
          "name": "approved",
          "type": "bool"
        }
      ],
      "name": "setApprovalForAll",
      "outputs": [],
      "stateMutability": "nonpayable",
      "type": "function"
    },
    {
      "inputs": [
        {
          "internalType": "bytes4",
          "name": "interfaceId",
          "type": "bytes4"
        }
      ],
      "name": "supportsInterface",
      "outputs": [
        {
          "internalType": "bool",
          "name": "",
          "type": "bool"
        }
      ],
      "stateMutability": "view",
      "type": "function"
    },
    {
      "inputs": [],
      "name": "symbol",
      "outputs": [
        {
          "internalType": "string",
          "name": "",
          "type": "string"
        }
      ],
      "stateMutability": "view",
      "type": "function"
    },
    {
      "inputs": [
        {
          "internalType": "uint256",
          "name": "tokenId",
          "type": "uint256"
        }
      ],
      "name": "tokenURI",
      "outputs": [
        {
          "internalType": "string",
          "name": "",
          "type": "string"
        }
      ],
      "stateMutability": "view",
      "type": "function"
    },
    {
      "inputs": [],
      "name": "totalSupply",
      "outputs": [
        {
          "internalType": "uint256",
          "name": "",
          "type": "uint256"
        }
      ],
      "stateMutability": "view",
      "type": "function"
    },
    {
      "inputs": [
        {
          "internalType": "address",
          "name": "from",
          "type": "address"
        },
        {
          "internalType": "address",
          "name": "to",
          "type": "address"
        },
        {
          "internalType": "uint256",
          "name": "tokenId",
          "type": "uint256"
        }
      ],
      "name": "transferFrom",
      "outputs": [],
      "stateMutability": "nonpayable",
      "type": "function"
    },
    {
      "inputs": [
        {
          "internalType": "address",
          "name": "_to",
          "type": "address"
        },
        {
          "internalType": "uint256",
          "name": "_tokenId",
          "type": "uint256"
        }
      ],
      "name": "transferNFT",
      "outputs": [],
      "stateMutability": "nonpayable",
      "type": "function"
    },
    {
      "inputs": [
        {
          "internalType": "address",
          "name": "newOwner",
          "type": "address"
        }
      ],
      "name": "transferOwnership",
      "outputs": [],
      "stateMutability": "nonpayable",
      "type": "function"
    },
    {
      "inputs": [],
      "name": "withdraw",
      "outputs": [],
      "stateMutability": "nonpayable",
      "type": "function"
    },
    {
      "inputs": [
        {
          "internalType": "uint256",
          "name": "numberOfWinners",
          "type": "uint256"
        },
        {
          "internalType": "uint256",
          "name": "rewardPercentage",
          "type": "uint256"
        }
      ],
      "name": "withdrawRewards",
      "outputs": [],
      "stateMutability": "nonpayable",
      "type": "function"
    }
  ],
  "bytecode": "0x6080604052604051806080016040528060405180610100016040528060c8815260200162005ccf60c89139815260200160405180610100016040528060c9815260200162005c0660c99139815260200160405180610100016040528060c9815260200162005b3d60c99139815260200160405180610100016040528060c8815260200162005d9760c89139815250600e6000820151816000019081620000a6919062000573565b506020820151816001019081620000be919062000573565b506040820151816002019081620000d6919062000573565b506060820151816003019081620000ee919062000573565b5050506000601260006101000a81548160ff0219169083151502179055503480156200011957600080fd5b506040518060400160405280600981526020017f4261736558204e465400000000000000000000000000000000000000000000008152506040518060400160405280600281526020017f4258000000000000000000000000000000000000000000000000000000000000815250816000908162000197919062000573565b508060019081620001a9919062000573565b505050620001cc620001c06200022b60201b60201c565b6200023360201b60201c565b6064600a8190555033600c60006101000a81548173ffffffffffffffffffffffffffffffffffffffff021916908373ffffffffffffffffffffffffffffffffffffffff1602179055506000600d819055506000600b819055506200065a565b600033905090565b6000600760009054906101000a900473ffffffffffffffffffffffffffffffffffffffff16905081600760006101000a81548173ffffffffffffffffffffffffffffffffffffffff021916908373ffffffffffffffffffffffffffffffffffffffff1602179055508173ffffffffffffffffffffffffffffffffffffffff168173ffffffffffffffffffffffffffffffffffffffff167f8be0079c531659141344cd1fd0a4f28419497f9722a3daafe3b4186f6b6457e060405160405180910390a35050565b600081519050919050565b7f4e487b7100000000000000000000000000000000000000000000000000000000600052604160045260246000fd5b7f4e487b7100000000000000000000000000000000000000000000000000000000600052602260045260246000fd5b600060028204905060018216806200037b57607f821691505b60208210810362000391576200039062000333565b5b50919050565b60008190508160005260206000209050919050565b60006020601f8301049050919050565b600082821b905092915050565b600060088302620003fb7fffffffffffffffffffffffffffffffffffffffffffffffffffffffffffffffff82620003bc565b620004078683620003bc565b95508019841693508086168417925050509392505050565b6000819050919050565b6000819050919050565b6000620004546200044e62000448846200041f565b62000429565b6200041f565b9050919050565b6000819050919050565b620004708362000433565b620004886200047f826200045b565b848454620003c9565b825550505050565b600090565b6200049f62000490565b620004ac81848462000465565b505050565b5b81811015620004d457620004c860008262000495565b600181019050620004b2565b5050565b601f8211156200052357620004ed8162000397565b620004f884620003ac565b8101602085101562000508578190505b620005206200051785620003ac565b830182620004b1565b50505b505050565b600082821c905092915050565b6000620005486000198460080262000528565b1980831691505092915050565b600062000563838362000535565b9150826002028217905092915050565b6200057e82620002f9565b67ffffffffffffffff8111156200059a576200059962000304565b5b620005a6825462000362565b620005b3828285620004d8565b600060209050601f831160018114620005eb5760008415620005d6578287015190505b620005e2858262000555565b86555062000652565b601f198416620005fb8662000397565b60005b828110156200062557848901518255600182019150602085019450602081019050620005fe565b8683101562000645578489015162000641601f89168262000535565b8355505b6001600288020188555050505b505050505050565b6154d3806200066a6000396000f3fe60806040526004361061022f5760003560e01c8063840286971161012e578063ac399914116100ab578063c87b56dd1161006f578063c87b56dd14610840578063e985e9c51461087d578063ebb24c32146108ba578063f2fde38b146108e3578063f4f3b0591461090c5761022f565b8063ac3999141461076f578063b63b3d5714610798578063b69cbd50146107c3578063b88d4fde146107da578063be13197b146108035761022f565b80639b525924116100f25780639b52592414610675578063a035b1fe146106a0578063a22cb465146106cb578063a23af5cb146106f4578063a3c0b95b146107315761022f565b806384028697146105a25780638da5cb5b146105cb57806394ab67fe146105f657806395d89b411461061f57806398d5fdca1461064a5761022f565b806323b872dd116101bc57806362766dec1161018057806362766dec146104975780636352211e146104d45780636c5bf32e1461051157806370a082311461054e578063715018a61461058b5761022f565b806323b872dd146103c85780633ccfd60b146103f157806342842e0e146104085780634ff531b61461043157806352cb51331461046e5761022f565b8063081812fc11610203578063081812fc14610302578063095ea7b31461033f57806314f710fe1461036857806318160ddd146103725780631b163a9d1461039d5761022f565b8062621fda1461023457806301ffc9a71461027157806304890b24146102ae57806306fdde03146102d7575b600080fd5b34801561024057600080fd5b5061025b60048036038101906102569190613897565b610935565b6040516102689190613954565b60405180910390f35b34801561027d57600080fd5b50610298600480360381019061029391906139ce565b610947565b6040516102a59190613a16565b60405180910390f35b3480156102ba57600080fd5b506102d560048036038101906102d09190613a8f565b610959565b005b3480156102e357600080fd5b506102ec6109bc565b6040516102f99190613954565b60405180910390f35b34801561030e57600080fd5b5061032960048036038101906103249190613897565b610a4e565b6040516103369190613acb565b60405180910390f35b34801561034b57600080fd5b5061036660048036038101906103619190613ae6565b610a94565b005b610370610bab565b005b34801561037e57600080fd5b5061038761141e565b6040516103949190613b35565b60405180910390f35b3480156103a957600080fd5b506103b2611424565b6040516103bf9190613acb565b60405180910390f35b3480156103d457600080fd5b506103ef60048036038101906103ea9190613b50565b611456565b005b3480156103fd57600080fd5b506104066114b6565b005b34801561041457600080fd5b5061042f600480360381019061042a9190613b50565b61150d565b005b34801561043d57600080fd5b5061045860048036038101906104539190613a8f565b61152d565b6040516104659190613b35565b60405180910390f35b34801561047a57600080fd5b5061049560048036038101906104909190613ba3565b6117dd565b005b3480156104a357600080fd5b506104be60048036038101906104b99190613a8f565b611982565b6040516104cb9190613ca1565b60405180910390f35b3480156104e057600080fd5b506104fb60048036038101906104f69190613897565b611a19565b6040516105089190613acb565b60405180910390f35b34801561051d57600080fd5b5061053860048036038101906105339190613897565b611a9f565b6040516105459190613d3a565b60405180910390f35b34801561055a57600080fd5b5061057560048036038101906105709190613a8f565b611b14565b6040516105829190613b35565b60405180910390f35b34801561059757600080fd5b506105a0611bcb565b005b3480156105ae57600080fd5b506105c960048036038101906105c49190613a8f565b611bdf565b005b3480156105d757600080fd5b506105e0611c42565b6040516105ed9190613acb565b60405180910390f35b34801561060257600080fd5b5061061d60048036038101906106189190613ae6565b611c6c565b005b34801561062b57600080fd5b50610634611cf1565b6040516106419190613954565b60405180910390f35b34801561065657600080fd5b5061065f611d83565b60405161066c9190613b35565b60405180910390f35b34801561068157600080fd5b5061068a611de9565b6040516106979190613b35565b60405180910390f35b3480156106ac57600080fd5b506106b5611def565b6040516106c29190613b35565b60405180910390f35b3480156106d757600080fd5b506106f260048036038101906106ed9190613d81565b611df5565b005b34801561070057600080fd5b5061071b60048036038101906107169190613897565b611e0b565b6040516107289190613e7f565b60405180910390f35b34801561073d57600080fd5b5061075860048036038101906107539190613897565b611f82565b604051610766929190613ea1565b60405180910390f35b34801561077b57600080fd5b5061079660048036038101906107919190613fff565b611fb3565b005b3480156107a457600080fd5b506107ad61203e565b6040516107ba9190613954565b60405180910390f35b3480156107cf57600080fd5b506107d86120cc565b005b3480156107e657600080fd5b5061080160048036038101906107fc91906140fc565b6120f1565b005b34801561080f57600080fd5b5061082a60048036038101906108259190613a8f565b612153565b6040516108379190613b35565b60405180910390f35b34801561084c57600080fd5b5061086760048036038101906108629190613897565b61216b565b6040516108749190613954565b60405180910390f35b34801561088957600080fd5b506108a4600480360381019061089f919061417f565b61217d565b6040516108b19190613a16565b60405180910390f35b3480156108c657600080fd5b506108e160048036038101906108dc9190613897565b612211565b005b3480156108ef57600080fd5b5061090a60048036038101906109059190613a8f565b61223e565b005b34801561091857600080fd5b50610933600480360381019061092e9190613897565b6122c1565b005b60606109408261216b565b9050919050565b6000610952826122d3565b9050919050565b610961612334565b6000601560008373ffffffffffffffffffffffffffffffffffffffff1673ffffffffffffffffffffffffffffffffffffffff16815260200190815260200160002060006101000a81548160ff02191690831515021790555050565b6060600080546109cb906141ee565b80601f01602080910402602001604051908101604052809291908181526020018280546109f7906141ee565b8015610a445780601f10610a1957610100808354040283529160200191610a44565b820191906000526020600020905b815481529060010190602001808311610a2757829003601f168201915b5050505050905090565b6000610a59826123b2565b6004600083815260200190815260200160002060009054906101000a900473ffffffffffffffffffffffffffffffffffffffff169050919050565b6000610a9f82611a19565b90508073ffffffffffffffffffffffffffffffffffffffff168373ffffffffffffffffffffffffffffffffffffffff1603610b0f576040517f08c379a0000000000000000000000000000000000000000000000000000000008152600401610b0690614291565b60405180910390fd5b8073ffffffffffffffffffffffffffffffffffffffff16610b2e6123fd565b73ffffffffffffffffffffffffffffffffffffffff161480610b5d5750610b5c81610b576123fd565b61217d565b5b610b9c576040517f08c379a0000000000000000000000000000000000000000000000000000000008152600401610b9390614323565b60405180910390fd5b610ba68383612405565b505050565b600a54610bb733611b14565b10610bf7576040517f08c379a0000000000000000000000000000000000000000000000000000000008152600401610bee906143b5565b60405180910390fd5b601560003373ffffffffffffffffffffffffffffffffffffffff1673ffffffffffffffffffffffffffffffffffffffff16815260200190815260200160002060009054906101000a900460ff16610c8e57600b54341015610c8d576040517f08c379a0000000000000000000000000000000000000000000000000000000008152600401610c8490614421565b60405180910390fd5b5b6000424433600c60009054906101000a900473ffffffffffffffffffffffffffffffffffffffff16604051602001610cc994939291906144aa565b6040516020818303038152906040528051906020012060001c90506000606482610cf39190614527565b90506000603c821015610d095760009050610d34565b6055821015610d1b5760019050610d33565b605f821015610d2d5760029050610d32565b600390505b5b5b6001600d6000828254610d479190614587565b9250508190555060001515601260009054906101000a900460ff16151503610dcc57613a98600d5410610d8657655af3107a4000600b81905550610dcb565b612710600d5410610da357652d79883d2000600b81905550610dca565b611388600d5410610dc0576512309ce54000600b81905550610dc9565b6000600b819055505b5b5b5b33600c60006101000a81548173ffffffffffffffffffffffffffffffffffffffff021916908373ffffffffffffffffffffffffffffffffffffffff160217905550610e1760086124be565b6000610e2360086124d4565b9050610e2f33826124e2565b600060405180602001604052806000815250905060006003811115610e5757610e56613cc3565b5b836003811115610e6a57610e69613cc3565b5b03610f0457600e6000018054610e7f906141ee565b80601f0160208091040260200160405190810160405280929190818152602001828054610eab906141ee565b8015610ef85780601f10610ecd57610100808354040283529160200191610ef8565b820191906000526020600020905b815481529060010190602001808311610edb57829003601f168201915b50505050509050611119565b60016003811115610f1857610f17613cc3565b5b836003811115610f2b57610f2a613cc3565b5b03610fc557600e6001018054610f40906141ee565b80601f0160208091040260200160405190810160405280929190818152602001828054610f6c906141ee565b8015610fb95780601f10610f8e57610100808354040283529160200191610fb9565b820191906000526020600020905b815481529060010190602001808311610f9c57829003601f168201915b50505050509050611118565b60026003811115610fd957610fd8613cc3565b5b836003811115610fec57610feb613cc3565b5b0361108657600e6002018054611001906141ee565b80601f016020809104026020016040519081016040528092919081815260200182805461102d906141ee565b801561107a5780601f1061104f5761010080835404028352916020019161107a565b820191906000526020600020905b81548152906001019060200180831161105d57829003601f168201915b50505050509050611117565b600e6003018054611096906141ee565b80601f01602080910402602001604051908101604052809291908181526020018280546110c2906141ee565b801561110f5780601f106110e45761010080835404028352916020019161110f565b820191906000526020600020905b8154815290600101906020018083116110f257829003601f168201915b505050505090505b5b5b61112382826126ff565b6000604051806040016040528084815260200185600381111561114957611148613cc3565b5b8152509050601360003373ffffffffffffffffffffffffffffffffffffffff1673ffffffffffffffffffffffffffffffffffffffff16815260200190815260200160002083908060018154018082558091505060019003906000526020600020016000909190919091505580601760008581526020019081526020016000206000820151816000015560208201518160010160006101000a81548160ff021916908360038111156111fd576111fc613cc3565b5b021790555090505042601660003373ffffffffffffffffffffffffffffffffffffffff1673ffffffffffffffffffffffffffffffffffffffff168152602001908152602001600020819055506000601480549050036112be576014339080600181540180825580915050600190039060005260206000200160009091909190916101000a81548173ffffffffffffffffffffffffffffffffffffffff021916908373ffffffffffffffffffffffffffffffffffffffff1602179055506113c8565b6000805b60148054905081101561135c573373ffffffffffffffffffffffffffffffffffffffff16601482815481106112fa576112f96145bb565b5b9060005260206000200160009054906101000a900473ffffffffffffffffffffffffffffffffffffffff1673ffffffffffffffffffffffffffffffffffffffff1603611349576001915061135c565b8080611354906145ea565b9150506112c2565b50806113c6576014339080600181540180825580915050600190039060005260206000200160009091909190916101000a81548173ffffffffffffffffffffffffffffffffffffffff021916908373ffffffffffffffffffffffffffffffffffffffff1602179055505b505b827f1f8e224df372b1305000c3f246efd7adce7c93d99ef7f8369a6f61a441f47dfa8560038111156113fd576113fc613cc3565b5b334260405161140e93929190614632565b60405180910390a2505050505050565b600d5481565b600061142e612334565b600c60009054906101000a900473ffffffffffffffffffffffffffffffffffffffff16905090565b6114676114616123fd565b826127a3565b6114a6576040517f08c379a000000000000000000000000000000000000000000000000000000000815260040161149d906146db565b60405180910390fd5b6114b1838383612838565b505050565b6114be612334565b60004790503373ffffffffffffffffffffffffffffffffffffffff166108fc829081150290604051600060405180830381858888f19350505050158015611509573d6000803e3d6000fd5b5050565b611528838383604051806020016040528060008152506120f1565b505050565b600080601360008473ffffffffffffffffffffffffffffffffffffffff1673ffffffffffffffffffffffffffffffffffffffff1681526020019081526020016000208054806020026020016040519081016040528092919081815260200182805480156115b957602002820191906000526020600020905b8154815260200190600101908083116115a5575b505050505090506000805b82518110156117d257600060038111156115e1576115e0613cc3565b5b601760008584815181106115f8576115f76145bb565b5b6020026020010151815260200190815260200160002060010160009054906101000a900460ff16600381111561163157611630613cc3565b5b0361164a576001826116439190614587565b91506117bf565b6001600381111561165e5761165d613cc3565b5b60176000858481518110611675576116746145bb565b5b6020026020010151815260200190815260200160002060010160009054906101000a900460ff1660038111156116ae576116ad613cc3565b5b036116c7576005826116c09190614587565b91506117be565b600260038111156116db576116da613cc3565b5b601760008584815181106116f2576116f16145bb565b5b6020026020010151815260200190815260200160002060010160009054906101000a900460ff16600381111561172b5761172a613cc3565b5b0361174457600f8261173d9190614587565b91506117bd565b60038081111561175757611756613cc3565b5b6017600085848151811061176e5761176d6145bb565b5b6020026020010151815260200190815260200160002060010160009054906101000a900460ff1660038111156117a7576117a6613cc3565b5b036117bc576032826117b99190614587565b91505b5b5b5b80806117ca906145ea565b9150506115c4565b508092505050919050565b6117e5612334565b60008211611828576040517f08c379a000000000000000000000000000000000000000000000000000000000815260040161181f9061476d565b60405180910390fd5b601480549050821115611870576040517f08c379a0000000000000000000000000000000000000000000000000000000008152600401611867906147ff565b60405180910390fd5b600081118015611881575060648111155b6118c0576040517f08c379a00000000000000000000000000000000000000000000000000000000081526004016118b790614891565b60405180910390fd5b60006118cb83611e0b565b90506000606483476118dd91906148b1565b6118e791906148f3565b905060005b8481101561197357828181518110611907576119066145bb565b5b602002602001015173ffffffffffffffffffffffffffffffffffffffff166108fc868461193491906148f3565b9081150290604051600060405180830381858888f1935050505015801561195f573d6000803e3d6000fd5b50808061196b906145ea565b9150506118ec565b5061197c6114b6565b50505050565b6060601360008373ffffffffffffffffffffffffffffffffffffffff1673ffffffffffffffffffffffffffffffffffffffff168152602001908152602001600020805480602002602001604051908101604052809291908181526020018280548015611a0d57602002820191906000526020600020905b8154815260200190600101908083116119f9575b50505050509050919050565b600080611a2583612b31565b9050600073ffffffffffffffffffffffffffffffffffffffff168173ffffffffffffffffffffffffffffffffffffffff1603611a96576040517f08c379a0000000000000000000000000000000000000000000000000000000008152600401611a8d90614970565b60405180910390fd5b80915050919050565b6000611aaa82612b6e565b611ae9576040517f08c379a0000000000000000000000000000000000000000000000000000000008152600401611ae0906149dc565b60405180910390fd5b6017600083815260200190815260200160002060010160009054906101000a900460ff169050919050565b60008073ffffffffffffffffffffffffffffffffffffffff168273ffffffffffffffffffffffffffffffffffffffff1603611b84576040517f08c379a0000000000000000000000000000000000000000000000000000000008152600401611b7b90614a6e565b60405180910390fd5b600360008373ffffffffffffffffffffffffffffffffffffffff1673ffffffffffffffffffffffffffffffffffffffff168152602001908152602001600020549050919050565b611bd3612334565b611bdd6000612baf565b565b611be7612334565b6001601560008373ffffffffffffffffffffffffffffffffffffffff1673ffffffffffffffffffffffffffffffffffffffff16815260200190815260200160002060006101000a81548160ff02191690831515021790555050565b6000600760009054906101000a900473ffffffffffffffffffffffffffffffffffffffff16905090565b3373ffffffffffffffffffffffffffffffffffffffff16611c8c82611a19565b73ffffffffffffffffffffffffffffffffffffffff1614611ce2576040517f08c379a0000000000000000000000000000000000000000000000000000000008152600401611cd990614b00565b60405180910390fd5b611ced33838361150d565b5050565b606060018054611d00906141ee565b80601f0160208091040260200160405190810160405280929190818152602001828054611d2c906141ee565b8015611d795780601f10611d4e57610100808354040283529160200191611d79565b820191906000526020600020905b815481529060010190602001808311611d5c57829003601f168201915b5050505050905090565b6000601560003373ffffffffffffffffffffffffffffffffffffffff1673ffffffffffffffffffffffffffffffffffffffff16815260200190815260200160002060009054906101000a900460ff1615611de05760009050611de6565b600b5490505b90565b600a5481565b600b5481565b611e07611e006123fd565b8383612c75565b5050565b606060008211611e50576040517f08c379a0000000000000000000000000000000000000000000000000000000008152600401611e4790614b6c565b60405180910390fd5b601480549050821115611e98576040517f08c379a0000000000000000000000000000000000000000000000000000000008152600401611e8f90614bfe565b60405180910390fd5b60008267ffffffffffffffff811115611eb457611eb3613ed4565b5b604051908082528060200260200182016040528015611ee25781602001602082028036833780820191505090505b5090506000611eef612de1565b905060005b84811015611f7757818181518110611f0f57611f0e6145bb565b5b6020026020010151838281518110611f2a57611f296145bb565b5b602002602001019073ffffffffffffffffffffffffffffffffffffffff16908173ffffffffffffffffffffffffffffffffffffffff16815250508080611f6f906145ea565b915050611ef4565b508192505050919050565b60176020528060005260406000206000915090508060000154908060010160009054906101000a900460ff16905082565b611fbb612334565b60008103611fdb5781600e6000019081611fd59190614dca565b5061203a565b60018103611ffb5781600e6001019081611ff59190614dca565b50612039565b6002810361201b5781600e60020190816120159190614dca565b50612038565b600381036120375781600e60030190816120359190614dca565b505b5b5b5b5050565b6009805461204b906141ee565b80601f0160208091040260200160405190810160405280929190818152602001828054612077906141ee565b80156120c45780601f10612099576101008083540402835291602001916120c4565b820191906000526020600020905b8154815290600101906020018083116120a757829003601f168201915b505050505081565b6120d4612334565b6000601260006101000a81548160ff021916908315150217905550565b6121026120fc6123fd565b836127a3565b612141576040517f08c379a0000000000000000000000000000000000000000000000000000000008152600401612138906146db565b60405180910390fd5b61214d8484848461313d565b50505050565b60166020528060005260406000206000915090505481565b606061217682613199565b9050919050565b6000600560008473ffffffffffffffffffffffffffffffffffffffff1673ffffffffffffffffffffffffffffffffffffffff16815260200190815260200160002060008373ffffffffffffffffffffffffffffffffffffffff1673ffffffffffffffffffffffffffffffffffffffff16815260200190815260200160002060009054906101000a900460ff16905092915050565b612219612334565b80600b819055506001601260006101000a81548160ff02191690831515021790555050565b612246612334565b600073ffffffffffffffffffffffffffffffffffffffff168173ffffffffffffffffffffffffffffffffffffffff16036122b5576040517f08c379a00000000000000000000000000000000000000000000000000000000081526004016122ac90614f0e565b60405180910390fd5b6122be81612baf565b50565b6122c9612334565b80600a8190555050565b6000634906490660e01b7bffffffffffffffffffffffffffffffffffffffffffffffffffffffff1916827bffffffffffffffffffffffffffffffffffffffffffffffffffffffff1916148061232d575061232c826132ab565b5b9050919050565b61233c6123fd565b73ffffffffffffffffffffffffffffffffffffffff1661235a611c42565b73ffffffffffffffffffffffffffffffffffffffff16146123b0576040517f08c379a00000000000000000000000000000000000000000000000000000000081526004016123a790614f7a565b60405180910390fd5b565b6123bb81612b6e565b6123fa576040517f08c379a00000000000000000000000000000000000000000000000000000000081526004016123f190614970565b60405180910390fd5b50565b600033905090565b816004600083815260200190815260200160002060006101000a81548173ffffffffffffffffffffffffffffffffffffffff021916908373ffffffffffffffffffffffffffffffffffffffff160217905550808273ffffffffffffffffffffffffffffffffffffffff1661247883611a19565b73ffffffffffffffffffffffffffffffffffffffff167f8c5be1e5ebec7d5bd14f71427d1e84f3dd0314c0f7b2291e5b200ac8c7c3b92560405160405180910390a45050565b6001816000016000828254019250508190555050565b600081600001549050919050565b600073ffffffffffffffffffffffffffffffffffffffff168273ffffffffffffffffffffffffffffffffffffffff1603612551576040517f08c379a000000000000000000000000000000000000000000000000000000000815260040161254890614fe6565b60405180910390fd5b61255a81612b6e565b1561259a576040517f08c379a000000000000000000000000000000000000000000000000000000000815260040161259190615052565b60405180910390fd5b6125a860008383600161338d565b6125b181612b6e565b156125f1576040517f08c379a00000000000000000000000000000000000000000000000000000000081526004016125e890615052565b60405180910390fd5b6001600360008473ffffffffffffffffffffffffffffffffffffffff1673ffffffffffffffffffffffffffffffffffffffff16815260200190815260200160002060008282540192505081905550816002600083815260200190815260200160002060006101000a81548173ffffffffffffffffffffffffffffffffffffffff021916908373ffffffffffffffffffffffffffffffffffffffff160217905550808273ffffffffffffffffffffffffffffffffffffffff16600073ffffffffffffffffffffffffffffffffffffffff167fddf252ad1be2c89b69c2b068fc378daa952ba7f163c4a11628f55a4df523b3ef60405160405180910390a46126fb600083836001613393565b5050565b61270882612b6e565b612747576040517f08c379a000000000000000000000000000000000000000000000000000000000815260040161273e906150e4565b60405180910390fd5b806006600084815260200190815260200160002090816127679190614dca565b507ff8e1a15aba9398e019f0b49df1a4fde98ee17ae345cb5f6b5e2c27f5033e8ce7826040516127979190613b35565b60405180910390a15050565b6000806127af83611a19565b90508073ffffffffffffffffffffffffffffffffffffffff168473ffffffffffffffffffffffffffffffffffffffff1614806127f157506127f0818561217d565b5b8061282f57508373ffffffffffffffffffffffffffffffffffffffff1661281784610a4e565b73ffffffffffffffffffffffffffffffffffffffff16145b91505092915050565b8273ffffffffffffffffffffffffffffffffffffffff1661285882611a19565b73ffffffffffffffffffffffffffffffffffffffff16146128ae576040517f08c379a00000000000000000000000000000000000000000000000000000000081526004016128a590615176565b60405180910390fd5b600073ffffffffffffffffffffffffffffffffffffffff168273ffffffffffffffffffffffffffffffffffffffff160361291d576040517f08c379a000000000000000000000000000000000000000000000000000000000815260040161291490615208565b60405180910390fd5b61292a838383600161338d565b8273ffffffffffffffffffffffffffffffffffffffff1661294a82611a19565b73ffffffffffffffffffffffffffffffffffffffff16146129a0576040517f08c379a000000000000000000000000000000000000000000000000000000000815260040161299790615176565b60405180910390fd5b6004600082815260200190815260200160002060006101000a81549073ffffffffffffffffffffffffffffffffffffffff02191690556001600360008573ffffffffffffffffffffffffffffffffffffffff1673ffffffffffffffffffffffffffffffffffffffff168152602001908152602001600020600082825403925050819055506001600360008473ffffffffffffffffffffffffffffffffffffffff1673ffffffffffffffffffffffffffffffffffffffff16815260200190815260200160002060008282540192505081905550816002600083815260200190815260200160002060006101000a81548173ffffffffffffffffffffffffffffffffffffffff021916908373ffffffffffffffffffffffffffffffffffffffff160217905550808273ffffffffffffffffffffffffffffffffffffffff168473ffffffffffffffffffffffffffffffffffffffff167fddf252ad1be2c89b69c2b068fc378daa952ba7f163c4a11628f55a4df523b3ef60405160405180910390a4612b2c8383836001613393565b505050565b60006002600083815260200190815260200160002060009054906101000a900473ffffffffffffffffffffffffffffffffffffffff169050919050565b60008073ffffffffffffffffffffffffffffffffffffffff16612b9083612b31565b73ffffffffffffffffffffffffffffffffffffffff1614159050919050565b6000600760009054906101000a900473ffffffffffffffffffffffffffffffffffffffff16905081600760006101000a81548173ffffffffffffffffffffffffffffffffffffffff021916908373ffffffffffffffffffffffffffffffffffffffff1602179055508173ffffffffffffffffffffffffffffffffffffffff168173ffffffffffffffffffffffffffffffffffffffff167f8be0079c531659141344cd1fd0a4f28419497f9722a3daafe3b4186f6b6457e060405160405180910390a35050565b8173ffffffffffffffffffffffffffffffffffffffff168373ffffffffffffffffffffffffffffffffffffffff1603612ce3576040517f08c379a0000000000000000000000000000000000000000000000000000000008152600401612cda90615274565b60405180910390fd5b80600560008573ffffffffffffffffffffffffffffffffffffffff1673ffffffffffffffffffffffffffffffffffffffff16815260200190815260200160002060008473ffffffffffffffffffffffffffffffffffffffff1673ffffffffffffffffffffffffffffffffffffffff16815260200190815260200160002060006101000a81548160ff0219169083151502179055508173ffffffffffffffffffffffffffffffffffffffff168373ffffffffffffffffffffffffffffffffffffffff167f17307eab39ab6107e8899845ad3d59bd9653f200f220920489ca2b5937696c3183604051612dd49190613a16565b60405180910390a3505050565b6060600060148054905067ffffffffffffffff811115612e0457612e03613ed4565b5b604051908082528060200260200182016040528015612e325781602001602082028036833780820191505090505b50905060005b601480549050811015612e785780828281518110612e5957612e586145bb565b5b6020026020010181815250508080612e70906145ea565b915050612e38565b5060005b6001601480549050612e8e9190615294565b811015613018576000600182612ea49190614587565b90505b60148054905081101561300457612f156014848381518110612ecc57612ecb6145bb565b5b602002602001015181548110612ee557612ee46145bb565b5b9060005260206000200160009054906101000a900473ffffffffffffffffffffffffffffffffffffffff1661152d565b612f766014858581518110612f2d57612f2c6145bb565b5b602002602001015181548110612f4657612f456145bb565b5b9060005260206000200160009054906101000a900473ffffffffffffffffffffffffffffffffffffffff1661152d565b1015612ff157828181518110612f8f57612f8e6145bb565b5b6020026020010151838381518110612faa57612fa96145bb565b5b6020026020010151848481518110612fc557612fc46145bb565b5b60200260200101858481518110612fdf57612fde6145bb565b5b60200260200101828152508281525050505b8080612ffc906145ea565b915050612ea7565b508080613010906145ea565b915050612e7c565b50600060148054905067ffffffffffffffff81111561303a57613039613ed4565b5b6040519080825280602002602001820160405280156130685781602001602082028036833780820191505090505b50905060005b6014805490508110156131345760148382815181106130905761308f6145bb565b5b6020026020010151815481106130a9576130a86145bb565b5b9060005260206000200160009054906101000a900473ffffffffffffffffffffffffffffffffffffffff168282815181106130e7576130e66145bb565b5b602002602001019073ffffffffffffffffffffffffffffffffffffffff16908173ffffffffffffffffffffffffffffffffffffffff1681525050808061312c906145ea565b91505061306e565b50809250505090565b613148848484612838565b61315484848484613399565b613193576040517f08c379a000000000000000000000000000000000000000000000000000000000815260040161318a9061533a565b60405180910390fd5b50505050565b60606131a4826123b2565b60006006600084815260200190815260200160002080546131c4906141ee565b80601f01602080910402602001604051908101604052809291908181526020018280546131f0906141ee565b801561323d5780601f106132125761010080835404028352916020019161323d565b820191906000526020600020905b81548152906001019060200180831161322057829003601f168201915b50505050509050600061324e613520565b905060008151036132635781925050506132a6565b600082511115613298578082604051602001613280929190615396565b604051602081830303815290604052925050506132a6565b6132a184613537565b925050505b919050565b60007f80ac58cd000000000000000000000000000000000000000000000000000000007bffffffffffffffffffffffffffffffffffffffffffffffffffffffff1916827bffffffffffffffffffffffffffffffffffffffffffffffffffffffff1916148061337657507f5b5e139f000000000000000000000000000000000000000000000000000000007bffffffffffffffffffffffffffffffffffffffffffffffffffffffff1916827bffffffffffffffffffffffffffffffffffffffffffffffffffffffff1916145b8061338657506133858261359f565b5b9050919050565b50505050565b50505050565b60006133ba8473ffffffffffffffffffffffffffffffffffffffff16613609565b15613513578373ffffffffffffffffffffffffffffffffffffffff1663150b7a026133e36123fd565b8786866040518563ffffffff1660e01b8152600401613405949392919061540f565b6020604051808303816000875af192505050801561344157506040513d601f19601f8201168201806040525081019061343e9190615470565b60015b6134c3573d8060008114613471576040519150601f19603f3d011682016040523d82523d6000602084013e613476565b606091505b5060008151036134bb576040517f08c379a00000000000000000000000000000000000000000000000000000000081526004016134b29061533a565b60405180910390fd5b805181602001fd5b63150b7a0260e01b7bffffffffffffffffffffffffffffffffffffffffffffffffffffffff1916817bffffffffffffffffffffffffffffffffffffffffffffffffffffffff191614915050613518565b600190505b949350505050565b606060405180602001604052806000815250905090565b6060613542826123b2565b600061354c613520565b9050600081511161356c5760405180602001604052806000815250613597565b806135768461362c565b604051602001613587929190615396565b6040516020818303038152906040525b915050919050565b60007f01ffc9a7000000000000000000000000000000000000000000000000000000007bffffffffffffffffffffffffffffffffffffffffffffffffffffffff1916827bffffffffffffffffffffffffffffffffffffffffffffffffffffffff1916149050919050565b6000808273ffffffffffffffffffffffffffffffffffffffff163b119050919050565b60606000600161363b846136fa565b01905060008167ffffffffffffffff81111561365a57613659613ed4565b5b6040519080825280601f01601f19166020018201604052801561368c5781602001600182028036833780820191505090505b509050600082602001820190505b6001156136ef578080600190039150507f3031323334353637383961626364656600000000000000000000000000000000600a86061a8153600a85816136e3576136e26144f8565b5b0494506000850361369a575b819350505050919050565b600080600090507a184f03e93ff9f4daa797ed6e38ed64bf6a1f0100000000000000008310613758577a184f03e93ff9f4daa797ed6e38ed64bf6a1f010000000000000000838161374e5761374d6144f8565b5b0492506040810190505b6d04ee2d6d415b85acef81000000008310613795576d04ee2d6d415b85acef8100000000838161378b5761378a6144f8565b5b0492506020810190505b662386f26fc1000083106137c457662386f26fc1000083816137ba576137b96144f8565b5b0492506010810190505b6305f5e10083106137ed576305f5e10083816137e3576137e26144f8565b5b0492506008810190505b6127108310613812576127108381613808576138076144f8565b5b0492506004810190505b60648310613835576064838161382b5761382a6144f8565b5b0492506002810190505b600a8310613844576001810190505b80915050919050565b6000604051905090565b600080fd5b600080fd5b6000819050919050565b61387481613861565b811461387f57600080fd5b50565b6000813590506138918161386b565b92915050565b6000602082840312156138ad576138ac613857565b5b60006138bb84828501613882565b91505092915050565b600081519050919050565b600082825260208201905092915050565b60005b838110156138fe5780820151818401526020810190506138e3565b60008484015250505050565b6000601f19601f8301169050919050565b6000613926826138c4565b61393081856138cf565b93506139408185602086016138e0565b6139498161390a565b840191505092915050565b6000602082019050818103600083015261396e818461391b565b905092915050565b60007fffffffff0000000000000000000000000000000000000000000000000000000082169050919050565b6139ab81613976565b81146139b657600080fd5b50565b6000813590506139c8816139a2565b92915050565b6000602082840312156139e4576139e3613857565b5b60006139f2848285016139b9565b91505092915050565b60008115159050919050565b613a10816139fb565b82525050565b6000602082019050613a2b6000830184613a07565b92915050565b600073ffffffffffffffffffffffffffffffffffffffff82169050919050565b6000613a5c82613a31565b9050919050565b613a6c81613a51565b8114613a7757600080fd5b50565b600081359050613a8981613a63565b92915050565b600060208284031215613aa557613aa4613857565b5b6000613ab384828501613a7a565b91505092915050565b613ac581613a51565b82525050565b6000602082019050613ae06000830184613abc565b92915050565b60008060408385031215613afd57613afc613857565b5b6000613b0b85828601613a7a565b9250506020613b1c85828601613882565b9150509250929050565b613b2f81613861565b82525050565b6000602082019050613b4a6000830184613b26565b92915050565b600080600060608486031215613b6957613b68613857565b5b6000613b7786828701613a7a565b9350506020613b8886828701613a7a565b9250506040613b9986828701613882565b9150509250925092565b60008060408385031215613bba57613bb9613857565b5b6000613bc885828601613882565b9250506020613bd985828601613882565b9150509250929050565b600081519050919050565b600082825260208201905092915050565b6000819050602082019050919050565b613c1881613861565b82525050565b6000613c2a8383613c0f565b60208301905092915050565b6000602082019050919050565b6000613c4e82613be3565b613c588185613bee565b9350613c6383613bff565b8060005b83811015613c94578151613c7b8882613c1e565b9750613c8683613c36565b925050600181019050613c67565b5085935050505092915050565b60006020820190508181036000830152613cbb8184613c43565b905092915050565b7f4e487b7100000000000000000000000000000000000000000000000000000000600052602160045260246000fd5b60048110613d0357613d02613cc3565b5b50565b6000819050613d1482613cf2565b919050565b6000613d2482613d06565b9050919050565b613d3481613d19565b82525050565b6000602082019050613d4f6000830184613d2b565b92915050565b613d5e816139fb565b8114613d6957600080fd5b50565b600081359050613d7b81613d55565b92915050565b60008060408385031215613d9857613d97613857565b5b6000613da685828601613a7a565b9250506020613db785828601613d6c565b9150509250929050565b600081519050919050565b600082825260208201905092915050565b6000819050602082019050919050565b613df681613a51565b82525050565b6000613e088383613ded565b60208301905092915050565b6000602082019050919050565b6000613e2c82613dc1565b613e368185613dcc565b9350613e4183613ddd565b8060005b83811015613e72578151613e598882613dfc565b9750613e6483613e14565b925050600181019050613e45565b5085935050505092915050565b60006020820190508181036000830152613e998184613e21565b905092915050565b6000604082019050613eb66000830185613b26565b613ec36020830184613d2b565b9392505050565b600080fd5b600080fd5b7f4e487b7100000000000000000000000000000000000000000000000000000000600052604160045260246000fd5b613f0c8261390a565b810181811067ffffffffffffffff82111715613f2b57613f2a613ed4565b5b80604052505050565b6000613f3e61384d565b9050613f4a8282613f03565b919050565b600067ffffffffffffffff821115613f6a57613f69613ed4565b5b613f738261390a565b9050602081019050919050565b82818337600083830152505050565b6000613fa2613f9d84613f4f565b613f34565b905082815260208101848484011115613fbe57613fbd613ecf565b5b613fc9848285613f80565b509392505050565b600082601f830112613fe657613fe5613eca565b5b8135613ff6848260208601613f8f565b91505092915050565b6000806040838503121561401657614015613857565b5b600083013567ffffffffffffffff8111156140345761403361385c565b5b61404085828601613fd1565b925050602061405185828601613882565b9150509250929050565b600067ffffffffffffffff82111561407657614075613ed4565b5b61407f8261390a565b9050602081019050919050565b600061409f61409a8461405b565b613f34565b9050828152602081018484840111156140bb576140ba613ecf565b5b6140c6848285613f80565b509392505050565b600082601f8301126140e3576140e2613eca565b5b81356140f384826020860161408c565b91505092915050565b6000806000806080858703121561411657614115613857565b5b600061412487828801613a7a565b945050602061413587828801613a7a565b935050604061414687828801613882565b925050606085013567ffffffffffffffff8111156141675761416661385c565b5b614173878288016140ce565b91505092959194509250565b6000806040838503121561419657614195613857565b5b60006141a485828601613a7a565b92505060206141b585828601613a7a565b9150509250929050565b7f4e487b7100000000000000000000000000000000000000000000000000000000600052602260045260246000fd5b6000600282049050600182168061420657607f821691505b602082108103614219576142186141bf565b5b50919050565b7f4552433732313a20617070726f76616c20746f2063757272656e74206f776e6560008201527f7200000000000000000000000000000000000000000000000000000000000000602082015250565b600061427b6021836138cf565b91506142868261421f565b604082019050919050565b600060208201905081810360008301526142aa8161426e565b9050919050565b7f4552433732313a20617070726f76652063616c6c6572206973206e6f7420746f60008201527f6b656e206f776e6572206f7220617070726f76656420666f7220616c6c000000602082015250565b600061430d603d836138cf565b9150614318826142b1565b604082019050919050565b6000602082019050818103600083015261433c81614300565b9050919050565b7f596f752068617665207265616368656420746865206c696d6974206f66206d6960008201527f6e74696e67000000000000000000000000000000000000000000000000000000602082015250565b600061439f6025836138cf565b91506143aa82614343565b604082019050919050565b600060208201905081810360008301526143ce81614392565b9050919050565b7f496e73756666696369656e742065746865722073656e74000000000000000000600082015250565b600061440b6017836138cf565b9150614416826143d5565b602082019050919050565b6000602082019050818103600083015261443a816143fe565b9050919050565b6000819050919050565b61445c61445782613861565b614441565b82525050565b60008160601b9050919050565b600061447a82614462565b9050919050565b600061448c8261446f565b9050919050565b6144a461449f82613a51565b614481565b82525050565b60006144b6828761444b565b6020820191506144c6828661444b565b6020820191506144d68285614493565b6014820191506144e68284614493565b60148201915081905095945050505050565b7f4e487b7100000000000000000000000000000000000000000000000000000000600052601260045260246000fd5b600061453282613861565b915061453d83613861565b92508261454d5761454c6144f8565b5b828206905092915050565b7f4e487b7100000000000000000000000000000000000000000000000000000000600052601160045260246000fd5b600061459282613861565b915061459d83613861565b92508282019050808211156145b5576145b4614558565b5b92915050565b7f4e487b7100000000000000000000000000000000000000000000000000000000600052603260045260246000fd5b60006145f582613861565b91507fffffffffffffffffffffffffffffffffffffffffffffffffffffffffffffffff820361462757614626614558565b5b600182019050919050565b60006060820190506146476000830186613b26565b6146546020830185613abc565b6146616040830184613b26565b949350505050565b7f4552433732313a2063616c6c6572206973206e6f7420746f6b656e206f776e6560008201527f72206f7220617070726f76656400000000000000000000000000000000000000602082015250565b60006146c5602d836138cf565b91506146d082614669565b604082019050919050565b600060208201905081810360008301526146f4816146b8565b9050919050565b7f4e756d626572206f662077696e6e657273206d7573742062652067726561746560008201527f72207468616e207a65726f000000000000000000000000000000000000000000602082015250565b6000614757602b836138cf565b9150614762826146fb565b604082019050919050565b600060208201905081810360008301526147868161474a565b9050919050565b7f4e756d626572206f662077696e6e657273206578636565647320746865206e7560008201527f6d626572206f66206d696e74696e672061646472657373657300000000000000602082015250565b60006147e96039836138cf565b91506147f48261478d565b604082019050919050565b60006020820190508181036000830152614818816147dc565b9050919050565b7f5265776172642070657263656e74616765206d7573742062652062657477656560008201527f6e203120616e6420313030000000000000000000000000000000000000000000602082015250565b600061487b602b836138cf565b91506148868261481f565b604082019050919050565b600060208201905081810360008301526148aa8161486e565b9050919050565b60006148bc82613861565b91506148c783613861565b92508282026148d581613861565b915082820484148315176148ec576148eb614558565b5b5092915050565b60006148fe82613861565b915061490983613861565b925082614919576149186144f8565b5b828204905092915050565b7f4552433732313a20696e76616c696420746f6b656e2049440000000000000000600082015250565b600061495a6018836138cf565b915061496582614924565b602082019050919050565b600060208201905081810360008301526149898161494d565b9050919050565b7f546f6b656e20494420646f6573206e6f74206578697374000000000000000000600082015250565b60006149c66017836138cf565b91506149d182614990565b602082019050919050565b600060208201905081810360008301526149f5816149b9565b9050919050565b7f4552433732313a2061646472657373207a65726f206973206e6f74206120766160008201527f6c6964206f776e65720000000000000000000000000000000000000000000000602082015250565b6000614a586029836138cf565b9150614a63826149fc565b604082019050919050565b60006020820190508181036000830152614a8781614a4b565b9050919050565b7f596f7520617265206e6f7420746865206f776e6572206f662074686973204e4660008201527f5400000000000000000000000000000000000000000000000000000000000000602082015250565b6000614aea6021836138cf565b9150614af582614a8e565b604082019050919050565b60006020820190508181036000830152614b1981614add565b9050919050565b7f546f70206d7573742062652067726561746572207468616e207a65726f000000600082015250565b6000614b56601d836138cf565b9150614b6182614b20565b602082019050919050565b60006020820190508181036000830152614b8581614b49565b9050919050565b7f546f70206578636565647320746865206e756d626572206f66206d696e74696e60008201527f6720616464726573736573000000000000000000000000000000000000000000602082015250565b6000614be8602b836138cf565b9150614bf382614b8c565b604082019050919050565b60006020820190508181036000830152614c1781614bdb565b9050919050565b60008190508160005260206000209050919050565b60006020601f8301049050919050565b600082821b905092915050565b600060088302614c807fffffffffffffffffffffffffffffffffffffffffffffffffffffffffffffffff82614c43565b614c8a8683614c43565b95508019841693508086168417925050509392505050565b6000819050919050565b6000614cc7614cc2614cbd84613861565b614ca2565b613861565b9050919050565b6000819050919050565b614ce183614cac565b614cf5614ced82614cce565b848454614c50565b825550505050565b600090565b614d0a614cfd565b614d15818484614cd8565b505050565b5b81811015614d3957614d2e600082614d02565b600181019050614d1b565b5050565b601f821115614d7e57614d4f81614c1e565b614d5884614c33565b81016020851015614d67578190505b614d7b614d7385614c33565b830182614d1a565b50505b505050565b600082821c905092915050565b6000614da160001984600802614d83565b1980831691505092915050565b6000614dba8383614d90565b9150826002028217905092915050565b614dd3826138c4565b67ffffffffffffffff811115614dec57614deb613ed4565b5b614df682546141ee565b614e01828285614d3d565b600060209050601f831160018114614e345760008415614e22578287015190505b614e2c8582614dae565b865550614e94565b601f198416614e4286614c1e565b60005b82811015614e6a57848901518255600182019150602085019450602081019050614e45565b86831015614e875784890151614e83601f891682614d90565b8355505b6001600288020188555050505b505050505050565b7f4f776e61626c653a206e6577206f776e657220697320746865207a65726f206160008201527f6464726573730000000000000000000000000000000000000000000000000000602082015250565b6000614ef86026836138cf565b9150614f0382614e9c565b604082019050919050565b60006020820190508181036000830152614f2781614eeb565b9050919050565b7f4f776e61626c653a2063616c6c6572206973206e6f7420746865206f776e6572600082015250565b6000614f646020836138cf565b9150614f6f82614f2e565b602082019050919050565b60006020820190508181036000830152614f9381614f57565b9050919050565b7f4552433732313a206d696e7420746f20746865207a65726f2061646472657373600082015250565b6000614fd06020836138cf565b9150614fdb82614f9a565b602082019050919050565b60006020820190508181036000830152614fff81614fc3565b9050919050565b7f4552433732313a20746f6b656e20616c7265616479206d696e74656400000000600082015250565b600061503c601c836138cf565b915061504782615006565b602082019050919050565b6000602082019050818103600083015261506b8161502f565b9050919050565b7f45524337323155524953746f726167653a2055524920736574206f66206e6f6e60008201527f6578697374656e7420746f6b656e000000000000000000000000000000000000602082015250565b60006150ce602e836138cf565b91506150d982615072565b604082019050919050565b600060208201905081810360008301526150fd816150c1565b9050919050565b7f4552433732313a207472616e736665722066726f6d20696e636f72726563742060008201527f6f776e6572000000000000000000000000000000000000000000000000000000602082015250565b60006151606025836138cf565b915061516b82615104565b604082019050919050565b6000602082019050818103600083015261518f81615153565b9050919050565b7f4552433732313a207472616e7366657220746f20746865207a65726f2061646460008201527f7265737300000000000000000000000000000000000000000000000000000000602082015250565b60006151f26024836138cf565b91506151fd82615196565b604082019050919050565b60006020820190508181036000830152615221816151e5565b9050919050565b7f4552433732313a20617070726f766520746f2063616c6c657200000000000000600082015250565b600061525e6019836138cf565b915061526982615228565b602082019050919050565b6000602082019050818103600083015261528d81615251565b9050919050565b600061529f82613861565b91506152aa83613861565b92508282039050818111156152c2576152c1614558565b5b92915050565b7f4552433732313a207472616e7366657220746f206e6f6e20455243373231526560008201527f63656976657220696d706c656d656e7465720000000000000000000000000000602082015250565b60006153246032836138cf565b915061532f826152c8565b604082019050919050565b6000602082019050818103600083015261535381615317565b9050919050565b600081905092915050565b6000615370826138c4565b61537a818561535a565b935061538a8185602086016138e0565b80840191505092915050565b60006153a28285615365565b91506153ae8284615365565b91508190509392505050565b600081519050919050565b600082825260208201905092915050565b60006153e1826153ba565b6153eb81856153c5565b93506153fb8185602086016138e0565b6154048161390a565b840191505092915050565b60006080820190506154246000830187613abc565b6154316020830186613abc565b61543e6040830185613b26565b818103606083015261545081846153d6565b905095945050505050565b60008151905061546a816139a2565b92915050565b60006020828403121561548657615485613857565b5b60006154948482850161545b565b9150509291505056fea26469706673582212207fa674ddfa83b3dfc31a2729d07816255852f0ff2a75f453e994843d5df6c97264736f6c6343000812003368747470733a2f2f7265642d666c79696e672d6c796e782d3537382e6d7970696e6174612e636c6f75642f697066732f516d587352764753554869556f58764b6578635a53314855474766477067623545764337463245524166587532613f5f676c3d312a317574776763382a5f67612a4d5463794e4455344d5441354c6a45324f5441784f544d334d7a592e2a5f67615f35524d505847313454452a4d5459354d6a45794e4449794f5334314c6a45754d5459354d6a45794e4451334d4334324d4334774c6a412e68747470733a2f2f7265642d666c79696e672d6c796e782d3537382e6d7970696e6174612e636c6f75642f697066732f516d654d46445573565064646e5a73324c366d4b746373644e437159695672613759486a756a6a51663272714d443f5f676c3d312a316174356a38702a5f67612a4d5463794e4455344d5441354c6a45324f5441784f544d334d7a592e2a5f67615f35524d505847313454452a4d5459354d6a45794e4449794f5334314c6a45754d5459354d6a45794e44517a4d4334794c6a41754d412e2e68747470733a2f2f7265642d666c79696e672d6c796e782d3537382e6d7970696e6174612e636c6f75642f697066732f516d614c5a5974516b6554545855726b6f4534485247794669434736767242707445476a557469616e3772567a393f5f676c3d312a686d386b6a312a5f67612a4d5463794e4455344d5441354c6a45324f5441784f544d334d7a592e2a5f67615f35524d505847313454452a4d5459354d6a45794e4449794f5334314c6a45754d5459354d6a45794e444d334d6934324d4334774c6a412e68747470733a2f2f7265642d666c79696e672d6c796e782d3537382e6d7970696e6174612e636c6f75642f697066732f516d533558376645553459316d646a674d756e36524832644a6778784b73314b774654325476636b376d6f7470783f5f676c3d312a69326f377a682a5f67612a4d5463794e4455344d5441354c6a45324f5441784f544d334d7a592e2a5f67615f35524d505847313454452a4d5459354d6a45794e4449794f5334314c6a45754d5459354d6a45794e4455794d4334784d4334774c6a412e",
  "linkReferences": {},
  "deployedLinkReferences": {}
}