{
  "_format": "hh-sol-artifact-1",
  "contractName": "BaseXNFT",
  "sourceName": "contracts/BaseXNFT.sol",
  "abi": [
    {
      "inputs": [],
      "stateMutability": "nonpayable",
      "type": "constructor"
    },
    {
      "anonymous": false,
      "inputs": [
        {
          "indexed": true,
          "internalType": "address",
          "name": "owner",
          "type": "address"
        },
        {
          "indexed": true,
          "internalType": "address",
          "name": "approved",
          "type": "address"
        },
        {
          "indexed": true,
          "internalType": "uint256",
          "name": "tokenId",
          "type": "uint256"
        }
      ],
      "name": "Approval",
      "type": "event"
    },
    {
      "anonymous": false,
      "inputs": [
        {
          "indexed": true,
          "internalType": "address",
          "name": "owner",
          "type": "address"
        },
        {
          "indexed": true,
          "internalType": "address",
          "name": "operator",
          "type": "address"
        },
        {
          "indexed": false,
          "internalType": "bool",
          "name": "approved",
          "type": "bool"
        }
      ],
      "name": "ApprovalForAll",
      "type": "event"
    },
    {
      "anonymous": false,
      "inputs": [
        {
          "indexed": false,
          "internalType": "uint256",
          "name": "_fromTokenId",
          "type": "uint256"
        },
        {
          "indexed": false,
          "internalType": "uint256",
          "name": "_toTokenId",
          "type": "uint256"
        }
      ],
      "name": "BatchMetadataUpdate",
      "type": "event"
    },
    {
      "anonymous": false,
      "inputs": [
        {
          "indexed": false,
          "internalType": "uint256",
          "name": "_tokenId",
          "type": "uint256"
        }
      ],
      "name": "MetadataUpdate",
      "type": "event"
    },
    {
      "anonymous": false,
      "inputs": [
        {
          "indexed": true,
          "internalType": "uint256",
          "name": "tokenId",
          "type": "uint256"
        },
        {
          "indexed": false,
          "internalType": "uint256",
          "name": "rank",
          "type": "uint256"
        },
        {
          "indexed": false,
          "internalType": "address",
          "name": "owner_minted",
          "type": "address"
        },
        {
          "indexed": false,
          "internalType": "uint256",
          "name": "time_minted",
          "type": "uint256"
        }
      ],
      "name": "NFTMinted",
      "type": "event"
    },
    {
      "anonymous": false,
      "inputs": [
        {
          "indexed": true,
          "internalType": "address",
          "name": "previousOwner",
          "type": "address"
        },
        {
          "indexed": true,
          "internalType": "address",
          "name": "newOwner",
          "type": "address"
        }
      ],
      "name": "OwnershipTransferred",
      "type": "event"
    },
    {
      "anonymous": false,
      "inputs": [
        {
          "indexed": true,
          "internalType": "address",
          "name": "from",
          "type": "address"
        },
        {
          "indexed": true,
          "internalType": "address",
          "name": "to",
          "type": "address"
        },
        {
          "indexed": true,
          "internalType": "uint256",
          "name": "tokenId",
          "type": "uint256"
        }
      ],
      "name": "Transfer",
      "type": "event"
    },
    {
      "inputs": [],
      "name": "NFT_url",
      "outputs": [
        {
          "internalType": "string",
          "name": "",
          "type": "string"
        }
      ],
      "stateMutability": "view",
      "type": "function"
    },
    {
      "inputs": [
        {
          "internalType": "uint256",
          "name": "",
          "type": "uint256"
        }
      ],
      "name": "NFTs",
      "outputs": [
        {
          "internalType": "uint256",
          "name": "tokenId",
          "type": "uint256"
        },
        {
          "internalType": "enum BaseXNFT.Rank",
          "name": "rank",
          "type": "uint8"
        }
      ],
      "stateMutability": "view",
      "type": "function"
    },
    {
      "inputs": [
        {
          "internalType": "address",
          "name": "to",
          "type": "address"
        },
        {
          "internalType": "uint256",
          "name": "tokenId",
          "type": "uint256"
        }
      ],
      "name": "approve",
      "outputs": [],
      "stateMutability": "nonpayable",
      "type": "function"
    },
    {
      "inputs": [
        {
          "internalType": "address",
          "name": "owner",
          "type": "address"
        }
      ],
      "name": "balanceOf",
      "outputs": [
        {
          "internalType": "uint256",
          "name": "",
          "type": "uint256"
        }
      ],
      "stateMutability": "view",
      "type": "function"
    },
    {
      "inputs": [],
      "name": "changePriceChanged",
      "outputs": [],
      "stateMutability": "nonpayable",
      "type": "function"
    },
    {
      "inputs": [
        {
          "internalType": "uint256",
          "name": "_newLimit",
          "type": "uint256"
        }
      ],
      "name": "editLimitMint",
      "outputs": [],
      "stateMutability": "nonpayable",
      "type": "function"
    },
    {
      "inputs": [
        {
          "internalType": "uint256",
          "name": "_newPrice",
          "type": "uint256"
        }
      ],
      "name": "editPriceMint",
      "outputs": [],
      "stateMutability": "nonpayable",
      "type": "function"
    },
    {
      "inputs": [
        {
          "internalType": "string",
          "name": "_newUrl",
          "type": "string"
        },
        {
          "internalType": "uint256",
          "name": "_rank",
          "type": "uint256"
        }
      ],
      "name": "editUrlNFT",
      "outputs": [],
      "stateMutability": "nonpayable",
      "type": "function"
    },
    {
      "inputs": [
        {
          "internalType": "uint256",
          "name": "tokenId",
          "type": "uint256"
        }
      ],
      "name": "getApproved",
      "outputs": [
        {
          "internalType": "address",
          "name": "",
          "type": "address"
        }
      ],
      "stateMutability": "view",
      "type": "function"
    },
    {
      "inputs": [],
      "name": "getLastAdress",
      "outputs": [
        {
          "internalType": "address",
          "name": "",
          "type": "address"
        }
      ],
      "stateMutability": "view",
      "type": "function"
    },
    {
      "inputs": [
        {
          "internalType": "address",
          "name": "user",
          "type": "address"
        }
      ],
      "name": "getMintedNFTs",
      "outputs": [
        {
          "internalType": "uint256[]",
          "name": "",
          "type": "uint256[]"
        }
      ],
      "stateMutability": "view",
      "type": "function"
    },
    {
      "inputs": [
        {
          "internalType": "uint256",
          "name": "tokenId",
          "type": "uint256"
        }
      ],
      "name": "getNFTRank",
      "outputs": [
        {
          "internalType": "enum BaseXNFT.Rank",
          "name": "",
          "type": "uint8"
        }
      ],
      "stateMutability": "view",
      "type": "function"
    },
    {
      "inputs": [
        {
          "internalType": "uint256",
          "name": "tokenId",
          "type": "uint256"
        }
      ],
      "name": "getNFTURI",
      "outputs": [
        {
          "internalType": "string",
          "name": "",
          "type": "string"
        }
      ],
      "stateMutability": "view",
      "type": "function"
    },
    {
      "inputs": [
        {
          "internalType": "address",
          "name": "user",
          "type": "address"
        }
      ],
      "name": "getPoint",
      "outputs": [
        {
          "internalType": "uint256",
          "name": "",
          "type": "uint256"
        }
      ],
      "stateMutability": "view",
      "type": "function"
    },
    {
      "inputs": [],
      "name": "getPrice",
      "outputs": [
        {
          "internalType": "uint256",
          "name": "",
          "type": "uint256"
        }
      ],
      "stateMutability": "view",
      "type": "function"
    },
    {
      "inputs": [
        {
          "internalType": "uint256",
          "name": "top",
          "type": "uint256"
        }
      ],
      "name": "getTopMintNFT",
      "outputs": [
        {
          "internalType": "address[]",
          "name": "",
          "type": "address[]"
        }
      ],
      "stateMutability": "view",
      "type": "function"
    },
    {
      "inputs": [
        {
          "internalType": "address",
          "name": "owner",
          "type": "address"
        },
        {
          "internalType": "address",
          "name": "operator",
          "type": "address"
        }
      ],
      "name": "isApprovedForAll",
      "outputs": [
        {
          "internalType": "bool",
          "name": "",
          "type": "bool"
        }
      ],
      "stateMutability": "view",
      "type": "function"
    },
    {
      "inputs": [
        {
          "internalType": "address",
          "name": "",
          "type": "address"
        }
      ],
      "name": "lastMintTimestamp",
      "outputs": [
        {
          "internalType": "uint256",
          "name": "",
          "type": "uint256"
        }
      ],
      "stateMutability": "view",
      "type": "function"
    },
    {
      "inputs": [],
      "name": "limitMint",
      "outputs": [
        {
          "internalType": "uint256",
          "name": "",
          "type": "uint256"
        }
      ],
      "stateMutability": "view",
      "type": "function"
    },
    {
      "inputs": [],
      "name": "mintNFT",
      "outputs": [],
      "stateMutability": "payable",
      "type": "function"
    },
    {
      "inputs": [],
      "name": "name",
      "outputs": [
        {
          "internalType": "string",
          "name": "",
          "type": "string"
        }
      ],
      "stateMutability": "view",
      "type": "function"
    },
    {
      "inputs": [],
      "name": "owner",
      "outputs": [
        {
          "internalType": "address",
          "name": "",
          "type": "address"
        }
      ],
      "stateMutability": "view",
      "type": "function"
    },
    {
      "inputs": [
        {
          "internalType": "uint256",
          "name": "tokenId",
          "type": "uint256"
        }
      ],
      "name": "ownerOf",
      "outputs": [
        {
          "internalType": "address",
          "name": "",
          "type": "address"
        }
      ],
      "stateMutability": "view",
      "type": "function"
    },
    {
      "inputs": [],
      "name": "price",
      "outputs": [
        {
          "internalType": "uint256",
          "name": "",
          "type": "uint256"
        }
      ],
      "stateMutability": "view",
      "type": "function"
    },
    {
      "inputs": [],
      "name": "renounceOwnership",
      "outputs": [],
      "stateMutability": "nonpayable",
      "type": "function"
    },
    {
      "inputs": [
        {
          "internalType": "address",
          "name": "from",
          "type": "address"
        },
        {
          "internalType": "address",
          "name": "to",
          "type": "address"
        },
        {
          "internalType": "uint256",
          "name": "tokenId",
          "type": "uint256"
        }
      ],
      "name": "safeTransferFrom",
      "outputs": [],
      "stateMutability": "nonpayable",
      "type": "function"
    },
    {
      "inputs": [
        {
          "internalType": "address",
          "name": "from",
          "type": "address"
        },
        {
          "internalType": "address",
          "name": "to",
          "type": "address"
        },
        {
          "internalType": "uint256",
          "name": "tokenId",
          "type": "uint256"
        },
        {
          "internalType": "bytes",
          "name": "data",
          "type": "bytes"
        }
      ],
      "name": "safeTransferFrom",
      "outputs": [],
      "stateMutability": "nonpayable",
      "type": "function"
    },
    {
      "inputs": [
        {
          "internalType": "address",
          "name": "operator",
          "type": "address"
        },
        {
          "internalType": "bool",
          "name": "approved",
          "type": "bool"
        }
      ],
      "name": "setApprovalForAll",
      "outputs": [],
      "stateMutability": "nonpayable",
      "type": "function"
    },
    {
      "inputs": [
        {
          "internalType": "bytes4",
          "name": "interfaceId",
          "type": "bytes4"
        }
      ],
      "name": "supportsInterface",
      "outputs": [
        {
          "internalType": "bool",
          "name": "",
          "type": "bool"
        }
      ],
      "stateMutability": "view",
      "type": "function"
    },
    {
      "inputs": [],
      "name": "symbol",
      "outputs": [
        {
          "internalType": "string",
          "name": "",
          "type": "string"
        }
      ],
      "stateMutability": "view",
      "type": "function"
    },
    {
      "inputs": [
        {
          "internalType": "uint256",
          "name": "tokenId",
          "type": "uint256"
        }
      ],
      "name": "tokenURI",
      "outputs": [
        {
          "internalType": "string",
          "name": "",
          "type": "string"
        }
      ],
      "stateMutability": "view",
      "type": "function"
    },
    {
      "inputs": [],
      "name": "totalSupply",
      "outputs": [
        {
          "internalType": "uint256",
          "name": "",
          "type": "uint256"
        }
      ],
      "stateMutability": "view",
      "type": "function"
    },
    {
      "inputs": [
        {
          "internalType": "address",
          "name": "from",
          "type": "address"
        },
        {
          "internalType": "address",
          "name": "to",
          "type": "address"
        },
        {
          "internalType": "uint256",
          "name": "tokenId",
          "type": "uint256"
        }
      ],
      "name": "transferFrom",
      "outputs": [],
      "stateMutability": "nonpayable",
      "type": "function"
    },
    {
      "inputs": [
        {
          "internalType": "address",
          "name": "_to",
          "type": "address"
        },
        {
          "internalType": "uint256",
          "name": "_tokenId",
          "type": "uint256"
        }
      ],
      "name": "transferNFT",
      "outputs": [],
      "stateMutability": "nonpayable",
      "type": "function"
    },
    {
      "inputs": [
        {
          "internalType": "address",
          "name": "newOwner",
          "type": "address"
        }
      ],
      "name": "transferOwnership",
      "outputs": [],
      "stateMutability": "nonpayable",
      "type": "function"
    },
    {
      "inputs": [],
      "name": "withdraw",
      "outputs": [],
      "stateMutability": "nonpayable",
      "type": "function"
    },
    {
      "inputs": [
        {
          "internalType": "uint256",
          "name": "numberOfWinners",
          "type": "uint256"
        },
        {
          "internalType": "uint256",
          "name": "rewardPercentage",
          "type": "uint256"
        }
      ],
      "name": "withdrawRewards",
      "outputs": [],
      "stateMutability": "nonpayable",
      "type": "function"
    }
  ],
  "bytecode": "0x608060405260405180608001604052806040518060a00160405280606781526020016200595d6067913981526020016040518060a00160405280606781526020016200595d6067913981526020016040518060a00160405280606781526020016200595d6067913981526020016040518060a00160405280606781526020016200595d60679139815250600e6000820151816000019081620000a291906200056f565b506020820151816001019081620000ba91906200056f565b506040820151816002019081620000d291906200056f565b506060820151816003019081620000ea91906200056f565b5050506000601260006101000a81548160ff0219169083151502179055503480156200011557600080fd5b506040518060400160405280600981526020017f4261736558204e465400000000000000000000000000000000000000000000008152506040518060400160405280600281526020017f425800000000000000000000000000000000000000000000000000000000000081525081600090816200019391906200056f565b508060019081620001a591906200056f565b505050620001c8620001bc6200022760201b60201c565b6200022f60201b60201c565b6064600a8190555033600c60006101000a81548173ffffffffffffffffffffffffffffffffffffffff021916908373ffffffffffffffffffffffffffffffffffffffff1602179055506000600d819055506000600b8190555062000656565b600033905090565b6000600760009054906101000a900473ffffffffffffffffffffffffffffffffffffffff16905081600760006101000a81548173ffffffffffffffffffffffffffffffffffffffff021916908373ffffffffffffffffffffffffffffffffffffffff1602179055508173ffffffffffffffffffffffffffffffffffffffff168173ffffffffffffffffffffffffffffffffffffffff167f8be0079c531659141344cd1fd0a4f28419497f9722a3daafe3b4186f6b6457e060405160405180910390a35050565b600081519050919050565b7f4e487b7100000000000000000000000000000000000000000000000000000000600052604160045260246000fd5b7f4e487b7100000000000000000000000000000000000000000000000000000000600052602260045260246000fd5b600060028204905060018216806200037757607f821691505b6020821081036200038d576200038c6200032f565b5b50919050565b60008190508160005260206000209050919050565b60006020601f8301049050919050565b600082821b905092915050565b600060088302620003f77fffffffffffffffffffffffffffffffffffffffffffffffffffffffffffffffff82620003b8565b620004038683620003b8565b95508019841693508086168417925050509392505050565b6000819050919050565b6000819050919050565b6000620004506200044a62000444846200041b565b62000425565b6200041b565b9050919050565b6000819050919050565b6200046c836200042f565b620004846200047b8262000457565b848454620003c5565b825550505050565b600090565b6200049b6200048c565b620004a881848462000461565b505050565b5b81811015620004d057620004c460008262000491565b600181019050620004ae565b5050565b601f8211156200051f57620004e98162000393565b620004f484620003a8565b8101602085101562000504578190505b6200051c6200051385620003a8565b830182620004ad565b50505b505050565b600082821c905092915050565b6000620005446000198460080262000524565b1980831691505092915050565b60006200055f838362000531565b9150826002028217905092915050565b6200057a82620002f5565b67ffffffffffffffff81111562000596576200059562000300565b5b620005a282546200035e565b620005af828285620004d4565b600060209050601f831160018114620005e75760008415620005d2578287015190505b620005de858262000551565b8655506200064e565b601f198416620005f78662000393565b60005b828110156200062157848901518255600182019150602085019450602081019050620005fa565b868310156200064157848901516200063d601f89168262000531565b8355505b6001600288020188555050505b505050505050565b6152f780620006666000396000f3fe6080604052600436106102195760003560e01c80638da5cb5b11610123578063ac399914116100ab578063c87b56dd1161006f578063c87b56dd146107d8578063e985e9c514610815578063ebb24c3214610852578063f2fde38b1461087b578063f4f3b059146108a457610219565b8063ac39991414610707578063b63b3d5714610730578063b69cbd501461075b578063b88d4fde14610772578063be13197b1461079b57610219565b80639b525924116100f25780639b5259241461060d578063a035b1fe14610638578063a22cb46514610663578063a23af5cb1461068c578063a3c0b95b146106c957610219565b80638da5cb5b1461056357806394ab67fe1461058e57806395d89b41146105b757806398d5fdca146105e257610219565b80633ccfd60b116101a657806362766dec1161017557806362766dec146104585780636352211e146104955780636c5bf32e146104d257806370a082311461050f578063715018a61461054c57610219565b80633ccfd60b146103b257806342842e0e146103c95780634ff531b6146103f257806352cb51331461042f57610219565b8063095ea7b3116101ed578063095ea7b31461030057806314f710fe1461032957806318160ddd146103335780631b163a9d1461035e57806323b872dd1461038957610219565b8062621fda1461021e57806301ffc9a71461025b57806306fdde0314610298578063081812fc146102c3575b600080fd5b34801561022a57600080fd5b50610245600480360381019061024091906136bb565b6108cd565b6040516102529190613778565b60405180910390f35b34801561026757600080fd5b50610282600480360381019061027d91906137f2565b6108df565b60405161028f919061383a565b60405180910390f35b3480156102a457600080fd5b506102ad6108f1565b6040516102ba9190613778565b60405180910390f35b3480156102cf57600080fd5b506102ea60048036038101906102e591906136bb565b610983565b6040516102f79190613896565b60405180910390f35b34801561030c57600080fd5b50610327600480360381019061032291906138dd565b6109c9565b005b610331610ae0565b005b34801561033f57600080fd5b50610348611301565b604051610355919061392c565b60405180910390f35b34801561036a57600080fd5b50610373611307565b6040516103809190613896565b60405180910390f35b34801561039557600080fd5b506103b060048036038101906103ab9190613947565b611339565b005b3480156103be57600080fd5b506103c7611399565b005b3480156103d557600080fd5b506103f060048036038101906103eb9190613947565b6113f0565b005b3480156103fe57600080fd5b506104196004803603810190610414919061399a565b611410565b604051610426919061392c565b60405180910390f35b34801561043b57600080fd5b50610456600480360381019061045191906139c7565b6116c0565b005b34801561046457600080fd5b5061047f600480360381019061047a919061399a565b611865565b60405161048c9190613ac5565b60405180910390f35b3480156104a157600080fd5b506104bc60048036038101906104b791906136bb565b6118fc565b6040516104c99190613896565b60405180910390f35b3480156104de57600080fd5b506104f960048036038101906104f491906136bb565b611982565b6040516105069190613b5e565b60405180910390f35b34801561051b57600080fd5b506105366004803603810190610531919061399a565b6119f7565b604051610543919061392c565b60405180910390f35b34801561055857600080fd5b50610561611aae565b005b34801561056f57600080fd5b50610578611ac2565b6040516105859190613896565b60405180910390f35b34801561059a57600080fd5b506105b560048036038101906105b091906138dd565b611aec565b005b3480156105c357600080fd5b506105cc611b71565b6040516105d99190613778565b60405180910390f35b3480156105ee57600080fd5b506105f7611c03565b604051610604919061392c565b60405180910390f35b34801561061957600080fd5b50610622611c0d565b60405161062f919061392c565b60405180910390f35b34801561064457600080fd5b5061064d611c13565b60405161065a919061392c565b60405180910390f35b34801561066f57600080fd5b5061068a60048036038101906106859190613ba5565b611c19565b005b34801561069857600080fd5b506106b360048036038101906106ae91906136bb565b611c2f565b6040516106c09190613ca3565b60405180910390f35b3480156106d557600080fd5b506106f060048036038101906106eb91906136bb565b611da6565b6040516106fe929190613cc5565b60405180910390f35b34801561071357600080fd5b5061072e60048036038101906107299190613e23565b611dd7565b005b34801561073c57600080fd5b50610745611e62565b6040516107529190613778565b60405180910390f35b34801561076757600080fd5b50610770611ef0565b005b34801561077e57600080fd5b5061079960048036038101906107949190613f20565b611f15565b005b3480156107a757600080fd5b506107c260048036038101906107bd919061399a565b611f77565b6040516107cf919061392c565b60405180910390f35b3480156107e457600080fd5b506107ff60048036038101906107fa91906136bb565b611f8f565b60405161080c9190613778565b60405180910390f35b34801561082157600080fd5b5061083c60048036038101906108379190613fa3565b611fa1565b604051610849919061383a565b60405180910390f35b34801561085e57600080fd5b50610879600480360381019061087491906136bb565b612035565b005b34801561088757600080fd5b506108a2600480360381019061089d919061399a565b612062565b005b3480156108b057600080fd5b506108cb60048036038101906108c691906136bb565b6120e5565b005b60606108d882611f8f565b9050919050565b60006108ea826120f7565b9050919050565b60606000805461090090614012565b80601f016020809104026020016040519081016040528092919081815260200182805461092c90614012565b80156109795780601f1061094e57610100808354040283529160200191610979565b820191906000526020600020905b81548152906001019060200180831161095c57829003601f168201915b5050505050905090565b600061098e82612158565b6004600083815260200190815260200160002060009054906101000a900473ffffffffffffffffffffffffffffffffffffffff169050919050565b60006109d4826118fc565b90508073ffffffffffffffffffffffffffffffffffffffff168373ffffffffffffffffffffffffffffffffffffffff1603610a44576040517f08c379a0000000000000000000000000000000000000000000000000000000008152600401610a3b906140b5565b60405180910390fd5b8073ffffffffffffffffffffffffffffffffffffffff16610a636121a3565b73ffffffffffffffffffffffffffffffffffffffff161480610a925750610a9181610a8c6121a3565b611fa1565b5b610ad1576040517f08c379a0000000000000000000000000000000000000000000000000000000008152600401610ac890614147565b60405180910390fd5b610adb83836121ab565b505050565b600a54610aec336119f7565b10610b2c576040517f08c379a0000000000000000000000000000000000000000000000000000000008152600401610b23906141d9565b60405180910390fd5b600b54341015610b71576040517f08c379a0000000000000000000000000000000000000000000000000000000008152600401610b6890614245565b60405180910390fd5b6000424433600c60009054906101000a900473ffffffffffffffffffffffffffffffffffffffff16604051602001610bac94939291906142ce565b6040516020818303038152906040528051906020012060001c90506000606482610bd6919061434b565b90506000603c821015610bec5760009050610c17565b6055821015610bfe5760019050610c16565b605f821015610c105760029050610c15565b600390505b5b5b6001600d6000828254610c2a91906143ab565b9250508190555060001515601260009054906101000a900460ff16151503610caf57613a98600d5410610c6957655af3107a4000600b81905550610cae565b612710600d5410610c8657652d79883d2000600b81905550610cad565b611388600d5410610ca3576512309ce54000600b81905550610cac565b6000600b819055505b5b5b5b33600c60006101000a81548173ffffffffffffffffffffffffffffffffffffffff021916908373ffffffffffffffffffffffffffffffffffffffff160217905550610cfa6008612264565b6000610d06600861227a565b9050610d123382612288565b600060405180602001604052806000815250905060006003811115610d3a57610d39613ae7565b5b836003811115610d4d57610d4c613ae7565b5b03610de757600e6000018054610d6290614012565b80601f0160208091040260200160405190810160405280929190818152602001828054610d8e90614012565b8015610ddb5780601f10610db057610100808354040283529160200191610ddb565b820191906000526020600020905b815481529060010190602001808311610dbe57829003601f168201915b50505050509050610ffc565b60016003811115610dfb57610dfa613ae7565b5b836003811115610e0e57610e0d613ae7565b5b03610ea857600e6001018054610e2390614012565b80601f0160208091040260200160405190810160405280929190818152602001828054610e4f90614012565b8015610e9c5780601f10610e7157610100808354040283529160200191610e9c565b820191906000526020600020905b815481529060010190602001808311610e7f57829003601f168201915b50505050509050610ffb565b60026003811115610ebc57610ebb613ae7565b5b836003811115610ecf57610ece613ae7565b5b03610f6957600e6002018054610ee490614012565b80601f0160208091040260200160405190810160405280929190818152602001828054610f1090614012565b8015610f5d5780601f10610f3257610100808354040283529160200191610f5d565b820191906000526020600020905b815481529060010190602001808311610f4057829003601f168201915b50505050509050610ffa565b600e6003018054610f7990614012565b80601f0160208091040260200160405190810160405280929190818152602001828054610fa590614012565b8015610ff25780601f10610fc757610100808354040283529160200191610ff2565b820191906000526020600020905b815481529060010190602001808311610fd557829003601f168201915b505050505090505b5b5b61100682826124a5565b6000604051806040016040528084815260200185600381111561102c5761102b613ae7565b5b8152509050601360003373ffffffffffffffffffffffffffffffffffffffff1673ffffffffffffffffffffffffffffffffffffffff16815260200190815260200160002083908060018154018082558091505060019003906000526020600020016000909190919091505580601660008581526020019081526020016000206000820151816000015560208201518160010160006101000a81548160ff021916908360038111156110e0576110df613ae7565b5b021790555090505042601560003373ffffffffffffffffffffffffffffffffffffffff1673ffffffffffffffffffffffffffffffffffffffff168152602001908152602001600020819055506000601480549050036111a1576014339080600181540180825580915050600190039060005260206000200160009091909190916101000a81548173ffffffffffffffffffffffffffffffffffffffff021916908373ffffffffffffffffffffffffffffffffffffffff1602179055506112ab565b6000805b60148054905081101561123f573373ffffffffffffffffffffffffffffffffffffffff16601482815481106111dd576111dc6143df565b5b9060005260206000200160009054906101000a900473ffffffffffffffffffffffffffffffffffffffff1673ffffffffffffffffffffffffffffffffffffffff160361122c576001915061123f565b80806112379061440e565b9150506111a5565b50806112a9576014339080600181540180825580915050600190039060005260206000200160009091909190916101000a81548173ffffffffffffffffffffffffffffffffffffffff021916908373ffffffffffffffffffffffffffffffffffffffff1602179055505b505b827f1f8e224df372b1305000c3f246efd7adce7c93d99ef7f8369a6f61a441f47dfa8560038111156112e0576112df613ae7565b5b33426040516112f193929190614456565b60405180910390a2505050505050565b600d5481565b6000611311612549565b600c60009054906101000a900473ffffffffffffffffffffffffffffffffffffffff16905090565b61134a6113446121a3565b826125c7565b611389576040517f08c379a0000000000000000000000000000000000000000000000000000000008152600401611380906144ff565b60405180910390fd5b61139483838361265c565b505050565b6113a1612549565b60004790503373ffffffffffffffffffffffffffffffffffffffff166108fc829081150290604051600060405180830381858888f193505050501580156113ec573d6000803e3d6000fd5b5050565b61140b83838360405180602001604052806000815250611f15565b505050565b600080601360008473ffffffffffffffffffffffffffffffffffffffff1673ffffffffffffffffffffffffffffffffffffffff16815260200190815260200160002080548060200260200160405190810160405280929190818152602001828054801561149c57602002820191906000526020600020905b815481526020019060010190808311611488575b505050505090506000805b82518110156116b557600060038111156114c4576114c3613ae7565b5b601660008584815181106114db576114da6143df565b5b6020026020010151815260200190815260200160002060010160009054906101000a900460ff16600381111561151457611513613ae7565b5b0361152d5760018261152691906143ab565b91506116a2565b6001600381111561154157611540613ae7565b5b60166000858481518110611558576115576143df565b5b6020026020010151815260200190815260200160002060010160009054906101000a900460ff16600381111561159157611590613ae7565b5b036115aa576005826115a391906143ab565b91506116a1565b600260038111156115be576115bd613ae7565b5b601660008584815181106115d5576115d46143df565b5b6020026020010151815260200190815260200160002060010160009054906101000a900460ff16600381111561160e5761160d613ae7565b5b0361162757600f8261162091906143ab565b91506116a0565b60038081111561163a57611639613ae7565b5b60166000858481518110611651576116506143df565b5b6020026020010151815260200190815260200160002060010160009054906101000a900460ff16600381111561168a57611689613ae7565b5b0361169f5760328261169c91906143ab565b91505b5b5b5b80806116ad9061440e565b9150506114a7565b508092505050919050565b6116c8612549565b6000821161170b576040517f08c379a000000000000000000000000000000000000000000000000000000000815260040161170290614591565b60405180910390fd5b601480549050821115611753576040517f08c379a000000000000000000000000000000000000000000000000000000000815260040161174a90614623565b60405180910390fd5b600081118015611764575060648111155b6117a3576040517f08c379a000000000000000000000000000000000000000000000000000000000815260040161179a906146b5565b60405180910390fd5b60006117ae83611c2f565b90506000606483476117c091906146d5565b6117ca9190614717565b905060005b84811015611856578281815181106117ea576117e96143df565b5b602002602001015173ffffffffffffffffffffffffffffffffffffffff166108fc86846118179190614717565b9081150290604051600060405180830381858888f19350505050158015611842573d6000803e3d6000fd5b50808061184e9061440e565b9150506117cf565b5061185f611399565b50505050565b6060601360008373ffffffffffffffffffffffffffffffffffffffff1673ffffffffffffffffffffffffffffffffffffffff1681526020019081526020016000208054806020026020016040519081016040528092919081815260200182805480156118f057602002820191906000526020600020905b8154815260200190600101908083116118dc575b50505050509050919050565b60008061190883612955565b9050600073ffffffffffffffffffffffffffffffffffffffff168173ffffffffffffffffffffffffffffffffffffffff1603611979576040517f08c379a000000000000000000000000000000000000000000000000000000000815260040161197090614794565b60405180910390fd5b80915050919050565b600061198d82612992565b6119cc576040517f08c379a00000000000000000000000000000000000000000000000000000000081526004016119c390614800565b60405180910390fd5b6016600083815260200190815260200160002060010160009054906101000a900460ff169050919050565b60008073ffffffffffffffffffffffffffffffffffffffff168273ffffffffffffffffffffffffffffffffffffffff1603611a67576040517f08c379a0000000000000000000000000000000000000000000000000000000008152600401611a5e90614892565b60405180910390fd5b600360008373ffffffffffffffffffffffffffffffffffffffff1673ffffffffffffffffffffffffffffffffffffffff168152602001908152602001600020549050919050565b611ab6612549565b611ac060006129d3565b565b6000600760009054906101000a900473ffffffffffffffffffffffffffffffffffffffff16905090565b3373ffffffffffffffffffffffffffffffffffffffff16611b0c826118fc565b73ffffffffffffffffffffffffffffffffffffffff1614611b62576040517f08c379a0000000000000000000000000000000000000000000000000000000008152600401611b5990614924565b60405180910390fd5b611b6d3383836113f0565b5050565b606060018054611b8090614012565b80601f0160208091040260200160405190810160405280929190818152602001828054611bac90614012565b8015611bf95780601f10611bce57610100808354040283529160200191611bf9565b820191906000526020600020905b815481529060010190602001808311611bdc57829003601f168201915b5050505050905090565b6000600b54905090565b600a5481565b600b5481565b611c2b611c246121a3565b8383612a99565b5050565b606060008211611c74576040517f08c379a0000000000000000000000000000000000000000000000000000000008152600401611c6b90614990565b60405180910390fd5b601480549050821115611cbc576040517f08c379a0000000000000000000000000000000000000000000000000000000008152600401611cb390614a22565b60405180910390fd5b60008267ffffffffffffffff811115611cd857611cd7613cf8565b5b604051908082528060200260200182016040528015611d065781602001602082028036833780820191505090505b5090506000611d13612c05565b905060005b84811015611d9b57818181518110611d3357611d326143df565b5b6020026020010151838281518110611d4e57611d4d6143df565b5b602002602001019073ffffffffffffffffffffffffffffffffffffffff16908173ffffffffffffffffffffffffffffffffffffffff16815250508080611d939061440e565b915050611d18565b508192505050919050565b60166020528060005260406000206000915090508060000154908060010160009054906101000a900460ff16905082565b611ddf612549565b60008103611dff5781600e6000019081611df99190614bee565b50611e5e565b60018103611e1f5781600e6001019081611e199190614bee565b50611e5d565b60028103611e3f5781600e6002019081611e399190614bee565b50611e5c565b60038103611e5b5781600e6003019081611e599190614bee565b505b5b5b5b5050565b60098054611e6f90614012565b80601f0160208091040260200160405190810160405280929190818152602001828054611e9b90614012565b8015611ee85780601f10611ebd57610100808354040283529160200191611ee8565b820191906000526020600020905b815481529060010190602001808311611ecb57829003601f168201915b505050505081565b611ef8612549565b6000601260006101000a81548160ff021916908315150217905550565b611f26611f206121a3565b836125c7565b611f65576040517f08c379a0000000000000000000000000000000000000000000000000000000008152600401611f5c906144ff565b60405180910390fd5b611f7184848484612f61565b50505050565b60156020528060005260406000206000915090505481565b6060611f9a82612fbd565b9050919050565b6000600560008473ffffffffffffffffffffffffffffffffffffffff1673ffffffffffffffffffffffffffffffffffffffff16815260200190815260200160002060008373ffffffffffffffffffffffffffffffffffffffff1673ffffffffffffffffffffffffffffffffffffffff16815260200190815260200160002060009054906101000a900460ff16905092915050565b61203d612549565b80600b819055506001601260006101000a81548160ff02191690831515021790555050565b61206a612549565b600073ffffffffffffffffffffffffffffffffffffffff168173ffffffffffffffffffffffffffffffffffffffff16036120d9576040517f08c379a00000000000000000000000000000000000000000000000000000000081526004016120d090614d32565b60405180910390fd5b6120e2816129d3565b50565b6120ed612549565b80600a8190555050565b6000634906490660e01b7bffffffffffffffffffffffffffffffffffffffffffffffffffffffff1916827bffffffffffffffffffffffffffffffffffffffffffffffffffffffff191614806121515750612150826130cf565b5b9050919050565b61216181612992565b6121a0576040517f08c379a000000000000000000000000000000000000000000000000000000000815260040161219790614794565b60405180910390fd5b50565b600033905090565b816004600083815260200190815260200160002060006101000a81548173ffffffffffffffffffffffffffffffffffffffff021916908373ffffffffffffffffffffffffffffffffffffffff160217905550808273ffffffffffffffffffffffffffffffffffffffff1661221e836118fc565b73ffffffffffffffffffffffffffffffffffffffff167f8c5be1e5ebec7d5bd14f71427d1e84f3dd0314c0f7b2291e5b200ac8c7c3b92560405160405180910390a45050565b6001816000016000828254019250508190555050565b600081600001549050919050565b600073ffffffffffffffffffffffffffffffffffffffff168273ffffffffffffffffffffffffffffffffffffffff16036122f7576040517f08c379a00000000000000000000000000000000000000000000000000000000081526004016122ee90614d9e565b60405180910390fd5b61230081612992565b15612340576040517f08c379a000000000000000000000000000000000000000000000000000000000815260040161233790614e0a565b60405180910390fd5b61234e6000838360016131b1565b61235781612992565b15612397576040517f08c379a000000000000000000000000000000000000000000000000000000000815260040161238e90614e0a565b60405180910390fd5b6001600360008473ffffffffffffffffffffffffffffffffffffffff1673ffffffffffffffffffffffffffffffffffffffff16815260200190815260200160002060008282540192505081905550816002600083815260200190815260200160002060006101000a81548173ffffffffffffffffffffffffffffffffffffffff021916908373ffffffffffffffffffffffffffffffffffffffff160217905550808273ffffffffffffffffffffffffffffffffffffffff16600073ffffffffffffffffffffffffffffffffffffffff167fddf252ad1be2c89b69c2b068fc378daa952ba7f163c4a11628f55a4df523b3ef60405160405180910390a46124a16000838360016131b7565b5050565b6124ae82612992565b6124ed576040517f08c379a00000000000000000000000000000000000000000000000000000000081526004016124e490614e9c565b60405180910390fd5b8060066000848152602001908152602001600020908161250d9190614bee565b507ff8e1a15aba9398e019f0b49df1a4fde98ee17ae345cb5f6b5e2c27f5033e8ce78260405161253d919061392c565b60405180910390a15050565b6125516121a3565b73ffffffffffffffffffffffffffffffffffffffff1661256f611ac2565b73ffffffffffffffffffffffffffffffffffffffff16146125c5576040517f08c379a00000000000000000000000000000000000000000000000000000000081526004016125bc90614f08565b60405180910390fd5b565b6000806125d3836118fc565b90508073ffffffffffffffffffffffffffffffffffffffff168473ffffffffffffffffffffffffffffffffffffffff16148061261557506126148185611fa1565b5b8061265357508373ffffffffffffffffffffffffffffffffffffffff1661263b84610983565b73ffffffffffffffffffffffffffffffffffffffff16145b91505092915050565b8273ffffffffffffffffffffffffffffffffffffffff1661267c826118fc565b73ffffffffffffffffffffffffffffffffffffffff16146126d2576040517f08c379a00000000000000000000000000000000000000000000000000000000081526004016126c990614f9a565b60405180910390fd5b600073ffffffffffffffffffffffffffffffffffffffff168273ffffffffffffffffffffffffffffffffffffffff1603612741576040517f08c379a00000000000000000000000000000000000000000000000000000000081526004016127389061502c565b60405180910390fd5b61274e83838360016131b1565b8273ffffffffffffffffffffffffffffffffffffffff1661276e826118fc565b73ffffffffffffffffffffffffffffffffffffffff16146127c4576040517f08c379a00000000000000000000000000000000000000000000000000000000081526004016127bb90614f9a565b60405180910390fd5b6004600082815260200190815260200160002060006101000a81549073ffffffffffffffffffffffffffffffffffffffff02191690556001600360008573ffffffffffffffffffffffffffffffffffffffff1673ffffffffffffffffffffffffffffffffffffffff168152602001908152602001600020600082825403925050819055506001600360008473ffffffffffffffffffffffffffffffffffffffff1673ffffffffffffffffffffffffffffffffffffffff16815260200190815260200160002060008282540192505081905550816002600083815260200190815260200160002060006101000a81548173ffffffffffffffffffffffffffffffffffffffff021916908373ffffffffffffffffffffffffffffffffffffffff160217905550808273ffffffffffffffffffffffffffffffffffffffff168473ffffffffffffffffffffffffffffffffffffffff167fddf252ad1be2c89b69c2b068fc378daa952ba7f163c4a11628f55a4df523b3ef60405160405180910390a461295083838360016131b7565b505050565b60006002600083815260200190815260200160002060009054906101000a900473ffffffffffffffffffffffffffffffffffffffff169050919050565b60008073ffffffffffffffffffffffffffffffffffffffff166129b483612955565b73ffffffffffffffffffffffffffffffffffffffff1614159050919050565b6000600760009054906101000a900473ffffffffffffffffffffffffffffffffffffffff16905081600760006101000a81548173ffffffffffffffffffffffffffffffffffffffff021916908373ffffffffffffffffffffffffffffffffffffffff1602179055508173ffffffffffffffffffffffffffffffffffffffff168173ffffffffffffffffffffffffffffffffffffffff167f8be0079c531659141344cd1fd0a4f28419497f9722a3daafe3b4186f6b6457e060405160405180910390a35050565b8173ffffffffffffffffffffffffffffffffffffffff168373ffffffffffffffffffffffffffffffffffffffff1603612b07576040517f08c379a0000000000000000000000000000000000000000000000000000000008152600401612afe90615098565b60405180910390fd5b80600560008573ffffffffffffffffffffffffffffffffffffffff1673ffffffffffffffffffffffffffffffffffffffff16815260200190815260200160002060008473ffffffffffffffffffffffffffffffffffffffff1673ffffffffffffffffffffffffffffffffffffffff16815260200190815260200160002060006101000a81548160ff0219169083151502179055508173ffffffffffffffffffffffffffffffffffffffff168373ffffffffffffffffffffffffffffffffffffffff167f17307eab39ab6107e8899845ad3d59bd9653f200f220920489ca2b5937696c3183604051612bf8919061383a565b60405180910390a3505050565b6060600060148054905067ffffffffffffffff811115612c2857612c27613cf8565b5b604051908082528060200260200182016040528015612c565781602001602082028036833780820191505090505b50905060005b601480549050811015612c9c5780828281518110612c7d57612c7c6143df565b5b6020026020010181815250508080612c949061440e565b915050612c5c565b5060005b6001601480549050612cb291906150b8565b811015612e3c576000600182612cc891906143ab565b90505b601480549050811015612e2857612d396014848381518110612cf057612cef6143df565b5b602002602001015181548110612d0957612d086143df565b5b9060005260206000200160009054906101000a900473ffffffffffffffffffffffffffffffffffffffff16611410565b612d9a6014858581518110612d5157612d506143df565b5b602002602001015181548110612d6a57612d696143df565b5b9060005260206000200160009054906101000a900473ffffffffffffffffffffffffffffffffffffffff16611410565b1015612e1557828181518110612db357612db26143df565b5b6020026020010151838381518110612dce57612dcd6143df565b5b6020026020010151848481518110612de957612de86143df565b5b60200260200101858481518110612e0357612e026143df565b5b60200260200101828152508281525050505b8080612e209061440e565b915050612ccb565b508080612e349061440e565b915050612ca0565b50600060148054905067ffffffffffffffff811115612e5e57612e5d613cf8565b5b604051908082528060200260200182016040528015612e8c5781602001602082028036833780820191505090505b50905060005b601480549050811015612f58576014838281518110612eb457612eb36143df565b5b602002602001015181548110612ecd57612ecc6143df565b5b9060005260206000200160009054906101000a900473ffffffffffffffffffffffffffffffffffffffff16828281518110612f0b57612f0a6143df565b5b602002602001019073ffffffffffffffffffffffffffffffffffffffff16908173ffffffffffffffffffffffffffffffffffffffff16815250508080612f509061440e565b915050612e92565b50809250505090565b612f6c84848461265c565b612f78848484846131bd565b612fb7576040517f08c379a0000000000000000000000000000000000000000000000000000000008152600401612fae9061515e565b60405180910390fd5b50505050565b6060612fc882612158565b6000600660008481526020019081526020016000208054612fe890614012565b80601f016020809104026020016040519081016040528092919081815260200182805461301490614012565b80156130615780601f1061303657610100808354040283529160200191613061565b820191906000526020600020905b81548152906001019060200180831161304457829003601f168201915b505050505090506000613072613344565b905060008151036130875781925050506130ca565b6000825111156130bc5780826040516020016130a49291906151ba565b604051602081830303815290604052925050506130ca565b6130c58461335b565b925050505b919050565b60007f80ac58cd000000000000000000000000000000000000000000000000000000007bffffffffffffffffffffffffffffffffffffffffffffffffffffffff1916827bffffffffffffffffffffffffffffffffffffffffffffffffffffffff1916148061319a57507f5b5e139f000000000000000000000000000000000000000000000000000000007bffffffffffffffffffffffffffffffffffffffffffffffffffffffff1916827bffffffffffffffffffffffffffffffffffffffffffffffffffffffff1916145b806131aa57506131a9826133c3565b5b9050919050565b50505050565b50505050565b60006131de8473ffffffffffffffffffffffffffffffffffffffff1661342d565b15613337578373ffffffffffffffffffffffffffffffffffffffff1663150b7a026132076121a3565b8786866040518563ffffffff1660e01b81526004016132299493929190615233565b6020604051808303816000875af192505050801561326557506040513d601f19601f820116820180604052508101906132629190615294565b60015b6132e7573d8060008114613295576040519150601f19603f3d011682016040523d82523d6000602084013e61329a565b606091505b5060008151036132df576040517f08c379a00000000000000000000000000000000000000000000000000000000081526004016132d69061515e565b60405180910390fd5b805181602001fd5b63150b7a0260e01b7bffffffffffffffffffffffffffffffffffffffffffffffffffffffff1916817bffffffffffffffffffffffffffffffffffffffffffffffffffffffff19161491505061333c565b600190505b949350505050565b606060405180602001604052806000815250905090565b606061336682612158565b6000613370613344565b9050600081511161339057604051806020016040528060008152506133bb565b8061339a84613450565b6040516020016133ab9291906151ba565b6040516020818303038152906040525b915050919050565b60007f01ffc9a7000000000000000000000000000000000000000000000000000000007bffffffffffffffffffffffffffffffffffffffffffffffffffffffff1916827bffffffffffffffffffffffffffffffffffffffffffffffffffffffff1916149050919050565b6000808273ffffffffffffffffffffffffffffffffffffffff163b119050919050565b60606000600161345f8461351e565b01905060008167ffffffffffffffff81111561347e5761347d613cf8565b5b6040519080825280601f01601f1916602001820160405280156134b05781602001600182028036833780820191505090505b509050600082602001820190505b600115613513578080600190039150507f3031323334353637383961626364656600000000000000000000000000000000600a86061a8153600a85816135075761350661431c565b5b049450600085036134be575b819350505050919050565b600080600090507a184f03e93ff9f4daa797ed6e38ed64bf6a1f010000000000000000831061357c577a184f03e93ff9f4daa797ed6e38ed64bf6a1f01000000000000000083816135725761357161431c565b5b0492506040810190505b6d04ee2d6d415b85acef810000000083106135b9576d04ee2d6d415b85acef810000000083816135af576135ae61431c565b5b0492506020810190505b662386f26fc1000083106135e857662386f26fc1000083816135de576135dd61431c565b5b0492506010810190505b6305f5e1008310613611576305f5e10083816136075761360661431c565b5b0492506008810190505b612710831061363657612710838161362c5761362b61431c565b5b0492506004810190505b60648310613659576064838161364f5761364e61431c565b5b0492506002810190505b600a8310613668576001810190505b80915050919050565b6000604051905090565b600080fd5b600080fd5b6000819050919050565b61369881613685565b81146136a357600080fd5b50565b6000813590506136b58161368f565b92915050565b6000602082840312156136d1576136d061367b565b5b60006136df848285016136a6565b91505092915050565b600081519050919050565b600082825260208201905092915050565b60005b83811015613722578082015181840152602081019050613707565b60008484015250505050565b6000601f19601f8301169050919050565b600061374a826136e8565b61375481856136f3565b9350613764818560208601613704565b61376d8161372e565b840191505092915050565b60006020820190508181036000830152613792818461373f565b905092915050565b60007fffffffff0000000000000000000000000000000000000000000000000000000082169050919050565b6137cf8161379a565b81146137da57600080fd5b50565b6000813590506137ec816137c6565b92915050565b6000602082840312156138085761380761367b565b5b6000613816848285016137dd565b91505092915050565b60008115159050919050565b6138348161381f565b82525050565b600060208201905061384f600083018461382b565b92915050565b600073ffffffffffffffffffffffffffffffffffffffff82169050919050565b600061388082613855565b9050919050565b61389081613875565b82525050565b60006020820190506138ab6000830184613887565b92915050565b6138ba81613875565b81146138c557600080fd5b50565b6000813590506138d7816138b1565b92915050565b600080604083850312156138f4576138f361367b565b5b6000613902858286016138c8565b9250506020613913858286016136a6565b9150509250929050565b61392681613685565b82525050565b6000602082019050613941600083018461391d565b92915050565b6000806000606084860312156139605761395f61367b565b5b600061396e868287016138c8565b935050602061397f868287016138c8565b9250506040613990868287016136a6565b9150509250925092565b6000602082840312156139b0576139af61367b565b5b60006139be848285016138c8565b91505092915050565b600080604083850312156139de576139dd61367b565b5b60006139ec858286016136a6565b92505060206139fd858286016136a6565b9150509250929050565b600081519050919050565b600082825260208201905092915050565b6000819050602082019050919050565b613a3c81613685565b82525050565b6000613a4e8383613a33565b60208301905092915050565b6000602082019050919050565b6000613a7282613a07565b613a7c8185613a12565b9350613a8783613a23565b8060005b83811015613ab8578151613a9f8882613a42565b9750613aaa83613a5a565b925050600181019050613a8b565b5085935050505092915050565b60006020820190508181036000830152613adf8184613a67565b905092915050565b7f4e487b7100000000000000000000000000000000000000000000000000000000600052602160045260246000fd5b60048110613b2757613b26613ae7565b5b50565b6000819050613b3882613b16565b919050565b6000613b4882613b2a565b9050919050565b613b5881613b3d565b82525050565b6000602082019050613b736000830184613b4f565b92915050565b613b828161381f565b8114613b8d57600080fd5b50565b600081359050613b9f81613b79565b92915050565b60008060408385031215613bbc57613bbb61367b565b5b6000613bca858286016138c8565b9250506020613bdb85828601613b90565b9150509250929050565b600081519050919050565b600082825260208201905092915050565b6000819050602082019050919050565b613c1a81613875565b82525050565b6000613c2c8383613c11565b60208301905092915050565b6000602082019050919050565b6000613c5082613be5565b613c5a8185613bf0565b9350613c6583613c01565b8060005b83811015613c96578151613c7d8882613c20565b9750613c8883613c38565b925050600181019050613c69565b5085935050505092915050565b60006020820190508181036000830152613cbd8184613c45565b905092915050565b6000604082019050613cda600083018561391d565b613ce76020830184613b4f565b9392505050565b600080fd5b600080fd5b7f4e487b7100000000000000000000000000000000000000000000000000000000600052604160045260246000fd5b613d308261372e565b810181811067ffffffffffffffff82111715613d4f57613d4e613cf8565b5b80604052505050565b6000613d62613671565b9050613d6e8282613d27565b919050565b600067ffffffffffffffff821115613d8e57613d8d613cf8565b5b613d978261372e565b9050602081019050919050565b82818337600083830152505050565b6000613dc6613dc184613d73565b613d58565b905082815260208101848484011115613de257613de1613cf3565b5b613ded848285613da4565b509392505050565b600082601f830112613e0a57613e09613cee565b5b8135613e1a848260208601613db3565b91505092915050565b60008060408385031215613e3a57613e3961367b565b5b600083013567ffffffffffffffff811115613e5857613e57613680565b5b613e6485828601613df5565b9250506020613e75858286016136a6565b9150509250929050565b600067ffffffffffffffff821115613e9a57613e99613cf8565b5b613ea38261372e565b9050602081019050919050565b6000613ec3613ebe84613e7f565b613d58565b905082815260208101848484011115613edf57613ede613cf3565b5b613eea848285613da4565b509392505050565b600082601f830112613f0757613f06613cee565b5b8135613f17848260208601613eb0565b91505092915050565b60008060008060808587031215613f3a57613f3961367b565b5b6000613f48878288016138c8565b9450506020613f59878288016138c8565b9350506040613f6a878288016136a6565b925050606085013567ffffffffffffffff811115613f8b57613f8a613680565b5b613f9787828801613ef2565b91505092959194509250565b60008060408385031215613fba57613fb961367b565b5b6000613fc8858286016138c8565b9250506020613fd9858286016138c8565b9150509250929050565b7f4e487b7100000000000000000000000000000000000000000000000000000000600052602260045260246000fd5b6000600282049050600182168061402a57607f821691505b60208210810361403d5761403c613fe3565b5b50919050565b7f4552433732313a20617070726f76616c20746f2063757272656e74206f776e6560008201527f7200000000000000000000000000000000000000000000000000000000000000602082015250565b600061409f6021836136f3565b91506140aa82614043565b604082019050919050565b600060208201905081810360008301526140ce81614092565b9050919050565b7f4552433732313a20617070726f76652063616c6c6572206973206e6f7420746f60008201527f6b656e206f776e6572206f7220617070726f76656420666f7220616c6c000000602082015250565b6000614131603d836136f3565b915061413c826140d5565b604082019050919050565b6000602082019050818103600083015261416081614124565b9050919050565b7f596f752068617665207265616368656420746865206c696d6974206f66206d6960008201527f6e74696e67000000000000000000000000000000000000000000000000000000602082015250565b60006141c36025836136f3565b91506141ce82614167565b604082019050919050565b600060208201905081810360008301526141f2816141b6565b9050919050565b7f496e73756666696369656e742065746865722073656e74000000000000000000600082015250565b600061422f6017836136f3565b915061423a826141f9565b602082019050919050565b6000602082019050818103600083015261425e81614222565b9050919050565b6000819050919050565b61428061427b82613685565b614265565b82525050565b60008160601b9050919050565b600061429e82614286565b9050919050565b60006142b082614293565b9050919050565b6142c86142c382613875565b6142a5565b82525050565b60006142da828761426f565b6020820191506142ea828661426f565b6020820191506142fa82856142b7565b60148201915061430a82846142b7565b60148201915081905095945050505050565b7f4e487b7100000000000000000000000000000000000000000000000000000000600052601260045260246000fd5b600061435682613685565b915061436183613685565b9250826143715761437061431c565b5b828206905092915050565b7f4e487b7100000000000000000000000000000000000000000000000000000000600052601160045260246000fd5b60006143b682613685565b91506143c183613685565b92508282019050808211156143d9576143d861437c565b5b92915050565b7f4e487b7100000000000000000000000000000000000000000000000000000000600052603260045260246000fd5b600061441982613685565b91507fffffffffffffffffffffffffffffffffffffffffffffffffffffffffffffffff820361444b5761444a61437c565b5b600182019050919050565b600060608201905061446b600083018661391d565b6144786020830185613887565b614485604083018461391d565b949350505050565b7f4552433732313a2063616c6c6572206973206e6f7420746f6b656e206f776e6560008201527f72206f7220617070726f76656400000000000000000000000000000000000000602082015250565b60006144e9602d836136f3565b91506144f48261448d565b604082019050919050565b60006020820190508181036000830152614518816144dc565b9050919050565b7f4e756d626572206f662077696e6e657273206d7573742062652067726561746560008201527f72207468616e207a65726f000000000000000000000000000000000000000000602082015250565b600061457b602b836136f3565b91506145868261451f565b604082019050919050565b600060208201905081810360008301526145aa8161456e565b9050919050565b7f4e756d626572206f662077696e6e657273206578636565647320746865206e7560008201527f6d626572206f66206d696e74696e672061646472657373657300000000000000602082015250565b600061460d6039836136f3565b9150614618826145b1565b604082019050919050565b6000602082019050818103600083015261463c81614600565b9050919050565b7f5265776172642070657263656e74616765206d7573742062652062657477656560008201527f6e203120616e6420313030000000000000000000000000000000000000000000602082015250565b600061469f602b836136f3565b91506146aa82614643565b604082019050919050565b600060208201905081810360008301526146ce81614692565b9050919050565b60006146e082613685565b91506146eb83613685565b92508282026146f981613685565b915082820484148315176147105761470f61437c565b5b5092915050565b600061472282613685565b915061472d83613685565b92508261473d5761473c61431c565b5b828204905092915050565b7f4552433732313a20696e76616c696420746f6b656e2049440000000000000000600082015250565b600061477e6018836136f3565b915061478982614748565b602082019050919050565b600060208201905081810360008301526147ad81614771565b9050919050565b7f546f6b656e20494420646f6573206e6f74206578697374000000000000000000600082015250565b60006147ea6017836136f3565b91506147f5826147b4565b602082019050919050565b60006020820190508181036000830152614819816147dd565b9050919050565b7f4552433732313a2061646472657373207a65726f206973206e6f74206120766160008201527f6c6964206f776e65720000000000000000000000000000000000000000000000602082015250565b600061487c6029836136f3565b915061488782614820565b604082019050919050565b600060208201905081810360008301526148ab8161486f565b9050919050565b7f596f7520617265206e6f7420746865206f776e6572206f662074686973204e4660008201527f5400000000000000000000000000000000000000000000000000000000000000602082015250565b600061490e6021836136f3565b9150614919826148b2565b604082019050919050565b6000602082019050818103600083015261493d81614901565b9050919050565b7f546f70206d7573742062652067726561746572207468616e207a65726f000000600082015250565b600061497a601d836136f3565b915061498582614944565b602082019050919050565b600060208201905081810360008301526149a98161496d565b9050919050565b7f546f70206578636565647320746865206e756d626572206f66206d696e74696e60008201527f6720616464726573736573000000000000000000000000000000000000000000602082015250565b6000614a0c602b836136f3565b9150614a17826149b0565b604082019050919050565b60006020820190508181036000830152614a3b816149ff565b9050919050565b60008190508160005260206000209050919050565b60006020601f8301049050919050565b600082821b905092915050565b600060088302614aa47fffffffffffffffffffffffffffffffffffffffffffffffffffffffffffffffff82614a67565b614aae8683614a67565b95508019841693508086168417925050509392505050565b6000819050919050565b6000614aeb614ae6614ae184613685565b614ac6565b613685565b9050919050565b6000819050919050565b614b0583614ad0565b614b19614b1182614af2565b848454614a74565b825550505050565b600090565b614b2e614b21565b614b39818484614afc565b505050565b5b81811015614b5d57614b52600082614b26565b600181019050614b3f565b5050565b601f821115614ba257614b7381614a42565b614b7c84614a57565b81016020851015614b8b578190505b614b9f614b9785614a57565b830182614b3e565b50505b505050565b600082821c905092915050565b6000614bc560001984600802614ba7565b1980831691505092915050565b6000614bde8383614bb4565b9150826002028217905092915050565b614bf7826136e8565b67ffffffffffffffff811115614c1057614c0f613cf8565b5b614c1a8254614012565b614c25828285614b61565b600060209050601f831160018114614c585760008415614c46578287015190505b614c508582614bd2565b865550614cb8565b601f198416614c6686614a42565b60005b82811015614c8e57848901518255600182019150602085019450602081019050614c69565b86831015614cab5784890151614ca7601f891682614bb4565b8355505b6001600288020188555050505b505050505050565b7f4f776e61626c653a206e6577206f776e657220697320746865207a65726f206160008201527f6464726573730000000000000000000000000000000000000000000000000000602082015250565b6000614d1c6026836136f3565b9150614d2782614cc0565b604082019050919050565b60006020820190508181036000830152614d4b81614d0f565b9050919050565b7f4552433732313a206d696e7420746f20746865207a65726f2061646472657373600082015250565b6000614d886020836136f3565b9150614d9382614d52565b602082019050919050565b60006020820190508181036000830152614db781614d7b565b9050919050565b7f4552433732313a20746f6b656e20616c7265616479206d696e74656400000000600082015250565b6000614df4601c836136f3565b9150614dff82614dbe565b602082019050919050565b60006020820190508181036000830152614e2381614de7565b9050919050565b7f45524337323155524953746f726167653a2055524920736574206f66206e6f6e60008201527f6578697374656e7420746f6b656e000000000000000000000000000000000000602082015250565b6000614e86602e836136f3565b9150614e9182614e2a565b604082019050919050565b60006020820190508181036000830152614eb581614e79565b9050919050565b7f4f776e61626c653a2063616c6c6572206973206e6f7420746865206f776e6572600082015250565b6000614ef26020836136f3565b9150614efd82614ebc565b602082019050919050565b60006020820190508181036000830152614f2181614ee5565b9050919050565b7f4552433732313a207472616e736665722066726f6d20696e636f72726563742060008201527f6f776e6572000000000000000000000000000000000000000000000000000000602082015250565b6000614f846025836136f3565b9150614f8f82614f28565b604082019050919050565b60006020820190508181036000830152614fb381614f77565b9050919050565b7f4552433732313a207472616e7366657220746f20746865207a65726f2061646460008201527f7265737300000000000000000000000000000000000000000000000000000000602082015250565b60006150166024836136f3565b915061502182614fba565b604082019050919050565b6000602082019050818103600083015261504581615009565b9050919050565b7f4552433732313a20617070726f766520746f2063616c6c657200000000000000600082015250565b60006150826019836136f3565b915061508d8261504c565b602082019050919050565b600060208201905081810360008301526150b181615075565b9050919050565b60006150c382613685565b91506150ce83613685565b92508282039050818111156150e6576150e561437c565b5b92915050565b7f4552433732313a207472616e7366657220746f206e6f6e20455243373231526560008201527f63656976657220696d706c656d656e7465720000000000000000000000000000602082015250565b60006151486032836136f3565b9150615153826150ec565b604082019050919050565b600060208201905081810360008301526151778161513b565b9050919050565b600081905092915050565b6000615194826136e8565b61519e818561517e565b93506151ae818560208601613704565b80840191505092915050565b60006151c68285615189565b91506151d28284615189565b91508190509392505050565b600081519050919050565b600082825260208201905092915050565b6000615205826151de565b61520f81856151e9565b935061521f818560208601613704565b6152288161372e565b840191505092915050565b60006080820190506152486000830187613887565b6152556020830186613887565b615262604083018561391d565b818103606083015261527481846151fa565b905095945050505050565b60008151905061528e816137c6565b92915050565b6000602082840312156152aa576152a961367b565b5b60006152b88482850161527f565b9150509291505056fea264697066735822122083ce04a96198aa2b84491c4044e5b63ab94bf3aeec115c06ca6a78bc07d5b6f864736f6c6343000812003368747470733a2f2f7265642d666c79696e672d6c796e782d3537382e6d7970696e6174612e636c6f75642f697066732f516d5a71654b6d476f71754d47356e4643623971383257485234463152643357654d6257315145504a69664873632f6e66742e6a736f6e",
  "linkReferences": {},
  "deployedLinkReferences": {}
}