{
	"data": {
		"bytecode": {
			"linkReferences": {},
			"object": "6080604052604051806080016040528060405180610100016040528060c8815260200162005db560c89139815260200160405180610100016040528060c9815260200162005cec60c99139815260200160405180610100016040528060c9815260200162005c2360c99139815260200160405180610100016040528060c8815260200162005e7d60c89139815250600e6000820151816000019081620000a6919062000573565b506020820151816001019081620000be919062000573565b506040820151816002019081620000d6919062000573565b506060820151816003019081620000ee919062000573565b5050506000601260006101000a81548160ff0219169083151502179055503480156200011957600080fd5b506040518060400160405280600981526020017f4261736558204e465400000000000000000000000000000000000000000000008152506040518060400160405280600281526020017f4258000000000000000000000000000000000000000000000000000000000000815250816000908162000197919062000573565b508060019081620001a9919062000573565b505050620001cc620001c06200022b60201b60201c565b6200023360201b60201c565b6064600a8190555033600c60006101000a81548173ffffffffffffffffffffffffffffffffffffffff021916908373ffffffffffffffffffffffffffffffffffffffff1602179055506000600d819055506000600b819055506200065a565b600033905090565b6000600760009054906101000a900473ffffffffffffffffffffffffffffffffffffffff16905081600760006101000a81548173ffffffffffffffffffffffffffffffffffffffff021916908373ffffffffffffffffffffffffffffffffffffffff1602179055508173ffffffffffffffffffffffffffffffffffffffff168173ffffffffffffffffffffffffffffffffffffffff167f8be0079c531659141344cd1fd0a4f28419497f9722a3daafe3b4186f6b6457e060405160405180910390a35050565b600081519050919050565b7f4e487b7100000000000000000000000000000000000000000000000000000000600052604160045260246000fd5b7f4e487b7100000000000000000000000000000000000000000000000000000000600052602260045260246000fd5b600060028204905060018216806200037b57607f821691505b60208210810362000391576200039062000333565b5b50919050565b60008190508160005260206000209050919050565b60006020601f8301049050919050565b600082821b905092915050565b600060088302620003fb7fffffffffffffffffffffffffffffffffffffffffffffffffffffffffffffffff82620003bc565b620004078683620003bc565b95508019841693508086168417925050509392505050565b6000819050919050565b6000819050919050565b6000620004546200044e62000448846200041f565b62000429565b6200041f565b9050919050565b6000819050919050565b620004708362000433565b620004886200047f826200045b565b848454620003c9565b825550505050565b600090565b6200049f62000490565b620004ac81848462000465565b505050565b5b81811015620004d457620004c860008262000495565b600181019050620004b2565b5050565b601f8211156200052357620004ed8162000397565b620004f884620003ac565b8101602085101562000508578190505b620005206200051785620003ac565b830182620004b1565b50505b505050565b600082821c905092915050565b6000620005486000198460080262000528565b1980831691505092915050565b600062000563838362000535565b9150826002028217905092915050565b6200057e82620002f9565b67ffffffffffffffff8111156200059a576200059962000304565b5b620005a6825462000362565b620005b3828285620004d8565b600060209050601f831160018114620005eb5760008415620005d6578287015190505b620005e2858262000555565b86555062000652565b601f198416620005fb8662000397565b60005b828110156200062557848901518255600182019150602085019450602081019050620005fe565b8683101562000645578489015162000641601f89168262000535565b8355505b6001600288020188555050505b505050505050565b6155b9806200066a6000396000f3fe6080604052600436106102455760003560e01c80638402869711610139578063ac399914116100b6578063be13197b1161007a578063be13197b1461087f578063c87b56dd146108bc578063e985e9c5146108f9578063ebb24c3214610936578063f2fde38b1461095f578063f4f3b0591461098857610245565b8063ac399914146107c2578063b63b3d57146107eb578063b69cbd5014610816578063b784902e1461082d578063b88d4fde1461085657610245565b80639b525924116100fd5780639b525924146106c8578063a035b1fe146106f3578063a22cb4651461071e578063a23af5cb14610747578063a3c0b95b1461078457610245565b806384028697146105f55780638da5cb5b1461061e57806394ab67fe1461064957806395d89b411461067257806398d5fdca1461069d57610245565b806323b872dd116101c757806362766dec1161018b57806362766dec146104ea5780636352211e146105275780636c5bf32e1461056457806370a08231146105a1578063715018a6146105de57610245565b806323b872dd1461041b5780633ccfd60b1461044457806342842e0e1461045b5780634ff531b61461048457806352cb5133146104c157610245565b8063095ea7b31161020e578063095ea7b31461035557806314f710fe1461037e57806318148f1b1461038857806318160ddd146103c55780631b163a9d146103f057610245565b8062621fda1461024a57806301ffc9a71461028757806304890b24146102c457806306fdde03146102ed578063081812fc14610318575b600080fd5b34801561025657600080fd5b50610271600480360381019061026c919061393f565b6109b1565b60405161027e91906139fc565b60405180910390f35b34801561029357600080fd5b506102ae60048036038101906102a99190613a76565b6109c3565b6040516102bb9190613abe565b60405180910390f35b3480156102d057600080fd5b506102eb60048036038101906102e69190613b37565b6109d5565b005b3480156102f957600080fd5b50610302610a38565b60405161030f91906139fc565b60405180910390f35b34801561032457600080fd5b5061033f600480360381019061033a919061393f565b610aca565b60405161034c9190613b73565b60405180910390f35b34801561036157600080fd5b5061037c60048036038101906103779190613b8e565b610b10565b005b610386610c27565b005b34801561039457600080fd5b506103af60048036038101906103aa9190613b37565b61149c565b6040516103bc9190613c8c565b60405180910390f35b3480156103d157600080fd5b506103da6115ab565b6040516103e79190613cbd565b60405180910390f35b3480156103fc57600080fd5b506104056115b1565b6040516104129190613b73565b60405180910390f35b34801561042757600080fd5b50610442600480360381019061043d9190613cd8565b6115e3565b005b34801561045057600080fd5b50610459611643565b005b34801561046757600080fd5b50610482600480360381019061047d9190613cd8565b61169a565b005b34801561049057600080fd5b506104ab60048036038101906104a69190613b37565b6116ba565b6040516104b89190613cbd565b60405180910390f35b3480156104cd57600080fd5b506104e860048036038101906104e39190613d2b565b6118e5565b005b3480156104f657600080fd5b50610511600480360381019061050c9190613b37565b611a8a565b60405161051e9190613c8c565b60405180910390f35b34801561053357600080fd5b5061054e6004803603810190610549919061393f565b611a9c565b60405161055b9190613b73565b60405180910390f35b34801561057057600080fd5b5061058b6004803603810190610586919061393f565b611b22565b6040516105989190613de2565b60405180910390f35b3480156105ad57600080fd5b506105c860048036038101906105c39190613b37565b611b97565b6040516105d59190613cbd565b60405180910390f35b3480156105ea57600080fd5b506105f3611c4e565b005b34801561060157600080fd5b5061061c60048036038101906106179190613b37565b611c62565b005b34801561062a57600080fd5b50610633611cc5565b6040516106409190613b73565b60405180910390f35b34801561065557600080fd5b50610670600480360381019061066b9190613b8e565b611cef565b005b34801561067e57600080fd5b50610687611d74565b60405161069491906139fc565b60405180910390f35b3480156106a957600080fd5b506106b2611e06565b6040516106bf9190613cbd565b60405180910390f35b3480156106d457600080fd5b506106dd611e6c565b6040516106ea9190613cbd565b60405180910390f35b3480156106ff57600080fd5b50610708611e72565b6040516107159190613cbd565b60405180910390f35b34801561072a57600080fd5b5061074560048036038101906107409190613e29565b611e78565b005b34801561075357600080fd5b5061076e6004803603810190610769919061393f565b611e8e565b60405161077b9190613f27565b60405180910390f35b34801561079057600080fd5b506107ab60048036038101906107a6919061393f565b612005565b6040516107b9929190613f49565b60405180910390f35b3480156107ce57600080fd5b506107e960048036038101906107e491906140a7565b612036565b005b3480156107f757600080fd5b506108006120c1565b60405161080d91906139fc565b60405180910390f35b34801561082257600080fd5b5061082b61214f565b005b34801561083957600080fd5b50610854600480360381019061084f9190614103565b612174565b005b34801561086257600080fd5b5061087d600480360381019061087891906141d1565b612199565b005b34801561088b57600080fd5b506108a660048036038101906108a19190613b37565b6121fb565b6040516108b39190613cbd565b60405180910390f35b3480156108c857600080fd5b506108e360048036038101906108de919061393f565b612213565b6040516108f091906139fc565b60405180910390f35b34801561090557600080fd5b50610920600480360381019061091b9190614254565b612225565b60405161092d9190613abe565b60405180910390f35b34801561094257600080fd5b5061095d6004803603810190610958919061393f565b6122b9565b005b34801561096b57600080fd5b5061098660048036038101906109819190613b37565b6122e6565b005b34801561099457600080fd5b506109af60048036038101906109aa919061393f565b612369565b005b60606109bc82612213565b9050919050565b60006109ce8261237b565b9050919050565b6109dd6123dc565b6000601560008373ffffffffffffffffffffffffffffffffffffffff1673ffffffffffffffffffffffffffffffffffffffff16815260200190815260200160002060006101000a81548160ff02191690831515021790555050565b606060008054610a47906142c3565b80601f0160208091040260200160405190810160405280929190818152602001828054610a73906142c3565b8015610ac05780601f10610a9557610100808354040283529160200191610ac0565b820191906000526020600020905b815481529060010190602001808311610aa357829003601f168201915b5050505050905090565b6000610ad58261245a565b6004600083815260200190815260200160002060009054906101000a900473ffffffffffffffffffffffffffffffffffffffff169050919050565b6000610b1b82611a9c565b90508073ffffffffffffffffffffffffffffffffffffffff168373ffffffffffffffffffffffffffffffffffffffff1603610b8b576040517f08c379a0000000000000000000000000000000000000000000000000000000008152600401610b8290614366565b60405180910390fd5b8073ffffffffffffffffffffffffffffffffffffffff16610baa6124a5565b73ffffffffffffffffffffffffffffffffffffffff161480610bd95750610bd881610bd36124a5565b612225565b5b610c18576040517f08c379a0000000000000000000000000000000000000000000000000000000008152600401610c0f906143f8565b60405180910390fd5b610c2283836124ad565b505050565b600a54610c3333611b97565b10610c73576040517f08c379a0000000000000000000000000000000000000000000000000000000008152600401610c6a9061448a565b60405180910390fd5b601560003373ffffffffffffffffffffffffffffffffffffffff1673ffffffffffffffffffffffffffffffffffffffff16815260200190815260200160002060009054906101000a900460ff16610d0a57600b54341015610d09576040517f08c379a0000000000000000000000000000000000000000000000000000000008152600401610d00906144f6565b60405180910390fd5b5b600043424433600c60009054906101000a900473ffffffffffffffffffffffffffffffffffffffff16604051602001610d4795949392919061457f565b6040516020818303038152906040528051906020012060001c90506000606482610d71919061460d565b90506000603c821015610d875760009050610db2565b6055821015610d995760019050610db1565b605f821015610dab5760029050610db0565b600390505b5b5b6001600d6000828254610dc5919061466d565b9250508190555060001515601260009054906101000a900460ff16151503610e4a57613a98600d5410610e0457655af3107a4000600b81905550610e49565b612710600d5410610e2157652d79883d2000600b81905550610e48565b611388600d5410610e3e576512309ce54000600b81905550610e47565b6000600b819055505b5b5b5b33600c60006101000a81548173ffffffffffffffffffffffffffffffffffffffff021916908373ffffffffffffffffffffffffffffffffffffffff160217905550610e956008612566565b6000610ea1600861257c565b9050610ead338261258a565b600060405180602001604052806000815250905060006003811115610ed557610ed4613d6b565b5b836003811115610ee857610ee7613d6b565b5b03610f8257600e6000018054610efd906142c3565b80601f0160208091040260200160405190810160405280929190818152602001828054610f29906142c3565b8015610f765780601f10610f4b57610100808354040283529160200191610f76565b820191906000526020600020905b815481529060010190602001808311610f5957829003601f168201915b50505050509050611197565b60016003811115610f9657610f95613d6b565b5b836003811115610fa957610fa8613d6b565b5b0361104357600e6001018054610fbe906142c3565b80601f0160208091040260200160405190810160405280929190818152602001828054610fea906142c3565b80156110375780601f1061100c57610100808354040283529160200191611037565b820191906000526020600020905b81548152906001019060200180831161101a57829003601f168201915b50505050509050611196565b6002600381111561105757611056613d6b565b5b83600381111561106a57611069613d6b565b5b0361110457600e600201805461107f906142c3565b80601f01602080910402602001604051908101604052809291908181526020018280546110ab906142c3565b80156110f85780601f106110cd576101008083540402835291602001916110f8565b820191906000526020600020905b8154815290600101906020018083116110db57829003601f168201915b50505050509050611195565b600e6003018054611114906142c3565b80601f0160208091040260200160405190810160405280929190818152602001828054611140906142c3565b801561118d5780601f106111625761010080835404028352916020019161118d565b820191906000526020600020905b81548152906001019060200180831161117057829003601f168201915b505050505090505b5b5b6111a182826127a7565b600060405180604001604052808481526020018560038111156111c7576111c6613d6b565b5b8152509050601360003373ffffffffffffffffffffffffffffffffffffffff1673ffffffffffffffffffffffffffffffffffffffff16815260200190815260200160002083908060018154018082558091505060019003906000526020600020016000909190919091505580601760008581526020019081526020016000206000820151816000015560208201518160010160006101000a81548160ff0219169083600381111561127b5761127a613d6b565b5b021790555090505042601660003373ffffffffffffffffffffffffffffffffffffffff1673ffffffffffffffffffffffffffffffffffffffff1681526020019081526020016000208190555060006014805490500361133c576014339080600181540180825580915050600190039060005260206000200160009091909190916101000a81548173ffffffffffffffffffffffffffffffffffffffff021916908373ffffffffffffffffffffffffffffffffffffffff160217905550611446565b6000805b6014805490508110156113da573373ffffffffffffffffffffffffffffffffffffffff1660148281548110611378576113776146a1565b5b9060005260206000200160009054906101000a900473ffffffffffffffffffffffffffffffffffffffff1673ffffffffffffffffffffffffffffffffffffffff16036113c757600191506113da565b80806113d2906146d0565b915050611340565b5080611444576014339080600181540180825580915050600190039060005260206000200160009091909190916101000a81548173ffffffffffffffffffffffffffffffffffffffff021916908373ffffffffffffffffffffffffffffffffffffffff1602179055505b505b827f1f8e224df372b1305000c3f246efd7adce7c93d99ef7f8369a6f61a441f47dfa85600381111561147b5761147a613d6b565b5b334260405161148c93929190614718565b60405180910390a2505050505050565b606060006114a983611b97565b905060008167ffffffffffffffff8111156114c7576114c6613f7c565b5b6040519080825280602002602001820160405280156114f55781602001602082028036833780820191505090505b509050600080600190505b61150a600861257c565b811161159f576115198161284b565b801561155857508573ffffffffffffffffffffffffffffffffffffffff1661154082611a9c565b73ffffffffffffffffffffffffffffffffffffffff16145b1561158c5780838381518110611571576115706146a1565b5b6020026020010181815250508180611588906146d0565b9250505b8080611597906146d0565b915050611500565b50819350505050919050565b600d5481565b60006115bb6123dc565b600c60009054906101000a900473ffffffffffffffffffffffffffffffffffffffff16905090565b6115f46115ee6124a5565b8261288c565b611633576040517f08c379a000000000000000000000000000000000000000000000000000000000815260040161162a906147c1565b60405180910390fd5b61163e838383612921565b505050565b61164b6123dc565b60004790503373ffffffffffffffffffffffffffffffffffffffff166108fc829081150290604051600060405180830381858888f19350505050158015611696573d6000803e3d6000fd5b5050565b6116b583838360405180602001604052806000815250612199565b505050565b6000806116c63361149c565b90506000805b82518110156118da57600060038111156116e9576116e8613d6b565b5b60176000858481518110611700576116ff6146a1565b5b6020026020010151815260200190815260200160002060010160009054906101000a900460ff16600381111561173957611738613d6b565b5b036117525760018261174b919061466d565b91506118c7565b6001600381111561176657611765613d6b565b5b6017600085848151811061177d5761177c6146a1565b5b6020026020010151815260200190815260200160002060010160009054906101000a900460ff1660038111156117b6576117b5613d6b565b5b036117cf576005826117c8919061466d565b91506118c6565b600260038111156117e3576117e2613d6b565b5b601760008584815181106117fa576117f96146a1565b5b6020026020010151815260200190815260200160002060010160009054906101000a900460ff16600381111561183357611832613d6b565b5b0361184c57600f82611845919061466d565b91506118c5565b60038081111561185f5761185e613d6b565b5b60176000858481518110611876576118756146a1565b5b6020026020010151815260200190815260200160002060010160009054906101000a900460ff1660038111156118af576118ae613d6b565b5b036118c4576032826118c1919061466d565b91505b5b5b5b80806118d2906146d0565b9150506116cc565b508092505050919050565b6118ed6123dc565b60008211611930576040517f08c379a000000000000000000000000000000000000000000000000000000000815260040161192790614853565b60405180910390fd5b601480549050821115611978576040517f08c379a000000000000000000000000000000000000000000000000000000000815260040161196f906148e5565b60405180910390fd5b600081118015611989575060648111155b6119c8576040517f08c379a00000000000000000000000000000000000000000000000000000000081526004016119bf90614977565b60405180910390fd5b60006119d383611e8e565b90506000606483476119e59190614997565b6119ef91906149d9565b905060005b84811015611a7b57828181518110611a0f57611a0e6146a1565b5b602002602001015173ffffffffffffffffffffffffffffffffffffffff166108fc8684611a3c91906149d9565b9081150290604051600060405180830381858888f19350505050158015611a67573d6000803e3d6000fd5b508080611a73906146d0565b9150506119f4565b50611a84611643565b50505050565b6060611a953361149c565b9050919050565b600080611aa883612c1a565b9050600073ffffffffffffffffffffffffffffffffffffffff168173ffffffffffffffffffffffffffffffffffffffff1603611b19576040517f08c379a0000000000000000000000000000000000000000000000000000000008152600401611b1090614a56565b60405180910390fd5b80915050919050565b6000611b2d8261284b565b611b6c576040517f08c379a0000000000000000000000000000000000000000000000000000000008152600401611b6390614ac2565b60405180910390fd5b6017600083815260200190815260200160002060010160009054906101000a900460ff169050919050565b60008073ffffffffffffffffffffffffffffffffffffffff168273ffffffffffffffffffffffffffffffffffffffff1603611c07576040517f08c379a0000000000000000000000000000000000000000000000000000000008152600401611bfe90614b54565b60405180910390fd5b600360008373ffffffffffffffffffffffffffffffffffffffff1673ffffffffffffffffffffffffffffffffffffffff168152602001908152602001600020549050919050565b611c566123dc565b611c606000612c57565b565b611c6a6123dc565b6001601560008373ffffffffffffffffffffffffffffffffffffffff1673ffffffffffffffffffffffffffffffffffffffff16815260200190815260200160002060006101000a81548160ff02191690831515021790555050565b6000600760009054906101000a900473ffffffffffffffffffffffffffffffffffffffff16905090565b3373ffffffffffffffffffffffffffffffffffffffff16611d0f82611a9c565b73ffffffffffffffffffffffffffffffffffffffff1614611d65576040517f08c379a0000000000000000000000000000000000000000000000000000000008152600401611d5c90614be6565b60405180910390fd5b611d7033838361169a565b5050565b606060018054611d83906142c3565b80601f0160208091040260200160405190810160405280929190818152602001828054611daf906142c3565b8015611dfc5780601f10611dd157610100808354040283529160200191611dfc565b820191906000526020600020905b815481529060010190602001808311611ddf57829003601f168201915b5050505050905090565b6000601560003373ffffffffffffffffffffffffffffffffffffffff1673ffffffffffffffffffffffffffffffffffffffff16815260200190815260200160002060009054906101000a900460ff1615611e635760009050611e69565b600b5490505b90565b600a5481565b600b5481565b611e8a611e836124a5565b8383612d1d565b5050565b606060008211611ed3576040517f08c379a0000000000000000000000000000000000000000000000000000000008152600401611eca90614c52565b60405180910390fd5b601480549050821115611f1b576040517f08c379a0000000000000000000000000000000000000000000000000000000008152600401611f1290614ce4565b60405180910390fd5b60008267ffffffffffffffff811115611f3757611f36613f7c565b5b604051908082528060200260200182016040528015611f655781602001602082028036833780820191505090505b5090506000611f72612e89565b905060005b84811015611ffa57818181518110611f9257611f916146a1565b5b6020026020010151838281518110611fad57611fac6146a1565b5b602002602001019073ffffffffffffffffffffffffffffffffffffffff16908173ffffffffffffffffffffffffffffffffffffffff16815250508080611ff2906146d0565b915050611f77565b508192505050919050565b60176020528060005260406000206000915090508060000154908060010160009054906101000a900460ff16905082565b61203e6123dc565b6000810361205e5781600e60000190816120589190614eb0565b506120bd565b6001810361207e5781600e60010190816120789190614eb0565b506120bc565b6002810361209e5781600e60020190816120989190614eb0565b506120bb565b600381036120ba5781600e60030190816120b89190614eb0565b505b5b5b5b5050565b600980546120ce906142c3565b80601f01602080910402602001604051908101604052809291908181526020018280546120fa906142c3565b80156121475780601f1061211c57610100808354040283529160200191612147565b820191906000526020600020905b81548152906001019060200180831161212a57829003601f168201915b505050505081565b6121576123dc565b6000601260006101000a81548160ff021916908315150217905550565b61217c6123dc565b80601260006101000a81548160ff02191690831515021790555050565b6121aa6121a46124a5565b8361288c565b6121e9576040517f08c379a00000000000000000000000000000000000000000000000000000000081526004016121e0906147c1565b60405180910390fd5b6121f5848484846131e5565b50505050565b60166020528060005260406000206000915090505481565b606061221e82613241565b9050919050565b6000600560008473ffffffffffffffffffffffffffffffffffffffff1673ffffffffffffffffffffffffffffffffffffffff16815260200190815260200160002060008373ffffffffffffffffffffffffffffffffffffffff1673ffffffffffffffffffffffffffffffffffffffff16815260200190815260200160002060009054906101000a900460ff16905092915050565b6122c16123dc565b80600b819055506001601260006101000a81548160ff02191690831515021790555050565b6122ee6123dc565b600073ffffffffffffffffffffffffffffffffffffffff168173ffffffffffffffffffffffffffffffffffffffff160361235d576040517f08c379a000000000000000000000000000000000000000000000000000000000815260040161235490614ff4565b60405180910390fd5b61236681612c57565b50565b6123716123dc565b80600a8190555050565b6000634906490660e01b7bffffffffffffffffffffffffffffffffffffffffffffffffffffffff1916827bffffffffffffffffffffffffffffffffffffffffffffffffffffffff191614806123d557506123d482613353565b5b9050919050565b6123e46124a5565b73ffffffffffffffffffffffffffffffffffffffff16612402611cc5565b73ffffffffffffffffffffffffffffffffffffffff1614612458576040517f08c379a000000000000000000000000000000000000000000000000000000000815260040161244f90615060565b60405180910390fd5b565b6124638161284b565b6124a2576040517f08c379a000000000000000000000000000000000000000000000000000000000815260040161249990614a56565b60405180910390fd5b50565b600033905090565b816004600083815260200190815260200160002060006101000a81548173ffffffffffffffffffffffffffffffffffffffff021916908373ffffffffffffffffffffffffffffffffffffffff160217905550808273ffffffffffffffffffffffffffffffffffffffff1661252083611a9c565b73ffffffffffffffffffffffffffffffffffffffff167f8c5be1e5ebec7d5bd14f71427d1e84f3dd0314c0f7b2291e5b200ac8c7c3b92560405160405180910390a45050565b6001816000016000828254019250508190555050565b600081600001549050919050565b600073ffffffffffffffffffffffffffffffffffffffff168273ffffffffffffffffffffffffffffffffffffffff16036125f9576040517f08c379a00000000000000000000000000000000000000000000000000000000081526004016125f0906150cc565b60405180910390fd5b6126028161284b565b15612642576040517f08c379a000000000000000000000000000000000000000000000000000000000815260040161263990615138565b60405180910390fd5b612650600083836001613435565b6126598161284b565b15612699576040517f08c379a000000000000000000000000000000000000000000000000000000000815260040161269090615138565b60405180910390fd5b6001600360008473ffffffffffffffffffffffffffffffffffffffff1673ffffffffffffffffffffffffffffffffffffffff16815260200190815260200160002060008282540192505081905550816002600083815260200190815260200160002060006101000a81548173ffffffffffffffffffffffffffffffffffffffff021916908373ffffffffffffffffffffffffffffffffffffffff160217905550808273ffffffffffffffffffffffffffffffffffffffff16600073ffffffffffffffffffffffffffffffffffffffff167fddf252ad1be2c89b69c2b068fc378daa952ba7f163c4a11628f55a4df523b3ef60405160405180910390a46127a360008383600161343b565b5050565b6127b08261284b565b6127ef576040517f08c379a00000000000000000000000000000000000000000000000000000000081526004016127e6906151ca565b60405180910390fd5b8060066000848152602001908152602001600020908161280f9190614eb0565b507ff8e1a15aba9398e019f0b49df1a4fde98ee17ae345cb5f6b5e2c27f5033e8ce78260405161283f9190613cbd565b60405180910390a15050565b60008073ffffffffffffffffffffffffffffffffffffffff1661286d83612c1a565b73ffffffffffffffffffffffffffffffffffffffff1614159050919050565b60008061289883611a9c565b90508073ffffffffffffffffffffffffffffffffffffffff168473ffffffffffffffffffffffffffffffffffffffff1614806128da57506128d98185612225565b5b8061291857508373ffffffffffffffffffffffffffffffffffffffff1661290084610aca565b73ffffffffffffffffffffffffffffffffffffffff16145b91505092915050565b8273ffffffffffffffffffffffffffffffffffffffff1661294182611a9c565b73ffffffffffffffffffffffffffffffffffffffff1614612997576040517f08c379a000000000000000000000000000000000000000000000000000000000815260040161298e9061525c565b60405180910390fd5b600073ffffffffffffffffffffffffffffffffffffffff168273ffffffffffffffffffffffffffffffffffffffff1603612a06576040517f08c379a00000000000000000000000000000000000000000000000000000000081526004016129fd906152ee565b60405180910390fd5b612a138383836001613435565b8273ffffffffffffffffffffffffffffffffffffffff16612a3382611a9c565b73ffffffffffffffffffffffffffffffffffffffff1614612a89576040517f08c379a0000000000000000000000000000000000000000000000000000000008152600401612a809061525c565b60405180910390fd5b6004600082815260200190815260200160002060006101000a81549073ffffffffffffffffffffffffffffffffffffffff02191690556001600360008573ffffffffffffffffffffffffffffffffffffffff1673ffffffffffffffffffffffffffffffffffffffff168152602001908152602001600020600082825403925050819055506001600360008473ffffffffffffffffffffffffffffffffffffffff1673ffffffffffffffffffffffffffffffffffffffff16815260200190815260200160002060008282540192505081905550816002600083815260200190815260200160002060006101000a81548173ffffffffffffffffffffffffffffffffffffffff021916908373ffffffffffffffffffffffffffffffffffffffff160217905550808273ffffffffffffffffffffffffffffffffffffffff168473ffffffffffffffffffffffffffffffffffffffff167fddf252ad1be2c89b69c2b068fc378daa952ba7f163c4a11628f55a4df523b3ef60405160405180910390a4612c15838383600161343b565b505050565b60006002600083815260200190815260200160002060009054906101000a900473ffffffffffffffffffffffffffffffffffffffff169050919050565b6000600760009054906101000a900473ffffffffffffffffffffffffffffffffffffffff16905081600760006101000a81548173ffffffffffffffffffffffffffffffffffffffff021916908373ffffffffffffffffffffffffffffffffffffffff1602179055508173ffffffffffffffffffffffffffffffffffffffff168173ffffffffffffffffffffffffffffffffffffffff167f8be0079c531659141344cd1fd0a4f28419497f9722a3daafe3b4186f6b6457e060405160405180910390a35050565b8173ffffffffffffffffffffffffffffffffffffffff168373ffffffffffffffffffffffffffffffffffffffff1603612d8b576040517f08c379a0000000000000000000000000000000000000000000000000000000008152600401612d829061535a565b60405180910390fd5b80600560008573ffffffffffffffffffffffffffffffffffffffff1673ffffffffffffffffffffffffffffffffffffffff16815260200190815260200160002060008473ffffffffffffffffffffffffffffffffffffffff1673ffffffffffffffffffffffffffffffffffffffff16815260200190815260200160002060006101000a81548160ff0219169083151502179055508173ffffffffffffffffffffffffffffffffffffffff168373ffffffffffffffffffffffffffffffffffffffff167f17307eab39ab6107e8899845ad3d59bd9653f200f220920489ca2b5937696c3183604051612e7c9190613abe565b60405180910390a3505050565b6060600060148054905067ffffffffffffffff811115612eac57612eab613f7c565b5b604051908082528060200260200182016040528015612eda5781602001602082028036833780820191505090505b50905060005b601480549050811015612f205780828281518110612f0157612f006146a1565b5b6020026020010181815250508080612f18906146d0565b915050612ee0565b5060005b6001601480549050612f36919061537a565b8110156130c0576000600182612f4c919061466d565b90505b6014805490508110156130ac57612fbd6014848381518110612f7457612f736146a1565b5b602002602001015181548110612f8d57612f8c6146a1565b5b9060005260206000200160009054906101000a900473ffffffffffffffffffffffffffffffffffffffff166116ba565b61301e6014858581518110612fd557612fd46146a1565b5b602002602001015181548110612fee57612fed6146a1565b5b9060005260206000200160009054906101000a900473ffffffffffffffffffffffffffffffffffffffff166116ba565b101561309957828181518110613037576130366146a1565b5b6020026020010151838381518110613052576130516146a1565b5b602002602001015184848151811061306d5761306c6146a1565b5b60200260200101858481518110613087576130866146a1565b5b60200260200101828152508281525050505b80806130a4906146d0565b915050612f4f565b5080806130b8906146d0565b915050612f24565b50600060148054905067ffffffffffffffff8111156130e2576130e1613f7c565b5b6040519080825280602002602001820160405280156131105781602001602082028036833780820191505090505b50905060005b6014805490508110156131dc576014838281518110613138576131376146a1565b5b602002602001015181548110613151576131506146a1565b5b9060005260206000200160009054906101000a900473ffffffffffffffffffffffffffffffffffffffff1682828151811061318f5761318e6146a1565b5b602002602001019073ffffffffffffffffffffffffffffffffffffffff16908173ffffffffffffffffffffffffffffffffffffffff168152505080806131d4906146d0565b915050613116565b50809250505090565b6131f0848484612921565b6131fc84848484613441565b61323b576040517f08c379a000000000000000000000000000000000000000000000000000000000815260040161323290615420565b60405180910390fd5b50505050565b606061324c8261245a565b600060066000848152602001908152602001600020805461326c906142c3565b80601f0160208091040260200160405190810160405280929190818152602001828054613298906142c3565b80156132e55780601f106132ba576101008083540402835291602001916132e5565b820191906000526020600020905b8154815290600101906020018083116132c857829003601f168201915b5050505050905060006132f66135c8565b9050600081510361330b57819250505061334e565b60008251111561334057808260405160200161332892919061547c565b6040516020818303038152906040529250505061334e565b613349846135df565b925050505b919050565b60007f80ac58cd000000000000000000000000000000000000000000000000000000007bffffffffffffffffffffffffffffffffffffffffffffffffffffffff1916827bffffffffffffffffffffffffffffffffffffffffffffffffffffffff1916148061341e57507f5b5e139f000000000000000000000000000000000000000000000000000000007bffffffffffffffffffffffffffffffffffffffffffffffffffffffff1916827bffffffffffffffffffffffffffffffffffffffffffffffffffffffff1916145b8061342e575061342d82613647565b5b9050919050565b50505050565b50505050565b60006134628473ffffffffffffffffffffffffffffffffffffffff166136b1565b156135bb578373ffffffffffffffffffffffffffffffffffffffff1663150b7a0261348b6124a5565b8786866040518563ffffffff1660e01b81526004016134ad94939291906154f5565b6020604051808303816000875af19250505080156134e957506040513d601f19601f820116820180604052508101906134e69190615556565b60015b61356b573d8060008114613519576040519150601f19603f3d011682016040523d82523d6000602084013e61351e565b606091505b506000815103613563576040517f08c379a000000000000000000000000000000000000000000000000000000000815260040161355a90615420565b60405180910390fd5b805181602001fd5b63150b7a0260e01b7bffffffffffffffffffffffffffffffffffffffffffffffffffffffff1916817bffffffffffffffffffffffffffffffffffffffffffffffffffffffff1916149150506135c0565b600190505b949350505050565b606060405180602001604052806000815250905090565b60606135ea8261245a565b60006135f46135c8565b90506000815111613614576040518060200160405280600081525061363f565b8061361e846136d4565b60405160200161362f92919061547c565b6040516020818303038152906040525b915050919050565b60007f01ffc9a7000000000000000000000000000000000000000000000000000000007bffffffffffffffffffffffffffffffffffffffffffffffffffffffff1916827bffffffffffffffffffffffffffffffffffffffffffffffffffffffff1916149050919050565b6000808273ffffffffffffffffffffffffffffffffffffffff163b119050919050565b6060600060016136e3846137a2565b01905060008167ffffffffffffffff81111561370257613701613f7c565b5b6040519080825280601f01601f1916602001820160405280156137345781602001600182028036833780820191505090505b509050600082602001820190505b600115613797578080600190039150507f3031323334353637383961626364656600000000000000000000000000000000600a86061a8153600a858161378b5761378a6145de565b5b04945060008503613742575b819350505050919050565b600080600090507a184f03e93ff9f4daa797ed6e38ed64bf6a1f0100000000000000008310613800577a184f03e93ff9f4daa797ed6e38ed64bf6a1f01000000000000000083816137f6576137f56145de565b5b0492506040810190505b6d04ee2d6d415b85acef8100000000831061383d576d04ee2d6d415b85acef81000000008381613833576138326145de565b5b0492506020810190505b662386f26fc10000831061386c57662386f26fc100008381613862576138616145de565b5b0492506010810190505b6305f5e1008310613895576305f5e100838161388b5761388a6145de565b5b0492506008810190505b61271083106138ba5761271083816138b0576138af6145de565b5b0492506004810190505b606483106138dd57606483816138d3576138d26145de565b5b0492506002810190505b600a83106138ec576001810190505b80915050919050565b6000604051905090565b600080fd5b600080fd5b6000819050919050565b61391c81613909565b811461392757600080fd5b50565b60008135905061393981613913565b92915050565b600060208284031215613955576139546138ff565b5b60006139638482850161392a565b91505092915050565b600081519050919050565b600082825260208201905092915050565b60005b838110156139a657808201518184015260208101905061398b565b60008484015250505050565b6000601f19601f8301169050919050565b60006139ce8261396c565b6139d88185613977565b93506139e8818560208601613988565b6139f1816139b2565b840191505092915050565b60006020820190508181036000830152613a1681846139c3565b905092915050565b60007fffffffff0000000000000000000000000000000000000000000000000000000082169050919050565b613a5381613a1e565b8114613a5e57600080fd5b50565b600081359050613a7081613a4a565b92915050565b600060208284031215613a8c57613a8b6138ff565b5b6000613a9a84828501613a61565b91505092915050565b60008115159050919050565b613ab881613aa3565b82525050565b6000602082019050613ad36000830184613aaf565b92915050565b600073ffffffffffffffffffffffffffffffffffffffff82169050919050565b6000613b0482613ad9565b9050919050565b613b1481613af9565b8114613b1f57600080fd5b50565b600081359050613b3181613b0b565b92915050565b600060208284031215613b4d57613b4c6138ff565b5b6000613b5b84828501613b22565b91505092915050565b613b6d81613af9565b82525050565b6000602082019050613b886000830184613b64565b92915050565b60008060408385031215613ba557613ba46138ff565b5b6000613bb385828601613b22565b9250506020613bc48582860161392a565b9150509250929050565b600081519050919050565b600082825260208201905092915050565b6000819050602082019050919050565b613c0381613909565b82525050565b6000613c158383613bfa565b60208301905092915050565b6000602082019050919050565b6000613c3982613bce565b613c438185613bd9565b9350613c4e83613bea565b8060005b83811015613c7f578151613c668882613c09565b9750613c7183613c21565b925050600181019050613c52565b5085935050505092915050565b60006020820190508181036000830152613ca68184613c2e565b905092915050565b613cb781613909565b82525050565b6000602082019050613cd26000830184613cae565b92915050565b600080600060608486031215613cf157613cf06138ff565b5b6000613cff86828701613b22565b9350506020613d1086828701613b22565b9250506040613d218682870161392a565b9150509250925092565b60008060408385031215613d4257613d416138ff565b5b6000613d508582860161392a565b9250506020613d618582860161392a565b9150509250929050565b7f4e487b7100000000000000000000000000000000000000000000000000000000600052602160045260246000fd5b60048110613dab57613daa613d6b565b5b50565b6000819050613dbc82613d9a565b919050565b6000613dcc82613dae565b9050919050565b613ddc81613dc1565b82525050565b6000602082019050613df76000830184613dd3565b92915050565b613e0681613aa3565b8114613e1157600080fd5b50565b600081359050613e2381613dfd565b92915050565b60008060408385031215613e4057613e3f6138ff565b5b6000613e4e85828601613b22565b9250506020613e5f85828601613e14565b9150509250929050565b600081519050919050565b600082825260208201905092915050565b6000819050602082019050919050565b613e9e81613af9565b82525050565b6000613eb08383613e95565b60208301905092915050565b6000602082019050919050565b6000613ed482613e69565b613ede8185613e74565b9350613ee983613e85565b8060005b83811015613f1a578151613f018882613ea4565b9750613f0c83613ebc565b925050600181019050613eed565b5085935050505092915050565b60006020820190508181036000830152613f418184613ec9565b905092915050565b6000604082019050613f5e6000830185613cae565b613f6b6020830184613dd3565b9392505050565b600080fd5b600080fd5b7f4e487b7100000000000000000000000000000000000000000000000000000000600052604160045260246000fd5b613fb4826139b2565b810181811067ffffffffffffffff82111715613fd357613fd2613f7c565b5b80604052505050565b6000613fe66138f5565b9050613ff28282613fab565b919050565b600067ffffffffffffffff82111561401257614011613f7c565b5b61401b826139b2565b9050602081019050919050565b82818337600083830152505050565b600061404a61404584613ff7565b613fdc565b90508281526020810184848401111561406657614065613f77565b5b614071848285614028565b509392505050565b600082601f83011261408e5761408d613f72565b5b813561409e848260208601614037565b91505092915050565b600080604083850312156140be576140bd6138ff565b5b600083013567ffffffffffffffff8111156140dc576140db613904565b5b6140e885828601614079565b92505060206140f98582860161392a565b9150509250929050565b600060208284031215614119576141186138ff565b5b600061412784828501613e14565b91505092915050565b600067ffffffffffffffff82111561414b5761414a613f7c565b5b614154826139b2565b9050602081019050919050565b600061417461416f84614130565b613fdc565b9050828152602081018484840111156141905761418f613f77565b5b61419b848285614028565b509392505050565b600082601f8301126141b8576141b7613f72565b5b81356141c8848260208601614161565b91505092915050565b600080600080608085870312156141eb576141ea6138ff565b5b60006141f987828801613b22565b945050602061420a87828801613b22565b935050604061421b8782880161392a565b925050606085013567ffffffffffffffff81111561423c5761423b613904565b5b614248878288016141a3565b91505092959194509250565b6000806040838503121561426b5761426a6138ff565b5b600061427985828601613b22565b925050602061428a85828601613b22565b9150509250929050565b7f4e487b7100000000000000000000000000000000000000000000000000000000600052602260045260246000fd5b600060028204905060018216806142db57607f821691505b6020821081036142ee576142ed614294565b5b50919050565b7f4552433732313a20617070726f76616c20746f2063757272656e74206f776e6560008201527f7200000000000000000000000000000000000000000000000000000000000000602082015250565b6000614350602183613977565b915061435b826142f4565b604082019050919050565b6000602082019050818103600083015261437f81614343565b9050919050565b7f4552433732313a20617070726f76652063616c6c6572206973206e6f7420746f60008201527f6b656e206f776e6572206f7220617070726f76656420666f7220616c6c000000602082015250565b60006143e2603d83613977565b91506143ed82614386565b604082019050919050565b60006020820190508181036000830152614411816143d5565b9050919050565b7f596f752068617665207265616368656420746865206c696d6974206f66206d6960008201527f6e74696e67000000000000000000000000000000000000000000000000000000602082015250565b6000614474602583613977565b915061447f82614418565b604082019050919050565b600060208201905081810360008301526144a381614467565b9050919050565b7f496e73756666696369656e742065746865722073656e74000000000000000000600082015250565b60006144e0601783613977565b91506144eb826144aa565b602082019050919050565b6000602082019050818103600083015261450f816144d3565b9050919050565b6000819050919050565b61453161452c82613909565b614516565b82525050565b60008160601b9050919050565b600061454f82614537565b9050919050565b600061456182614544565b9050919050565b61457961457482613af9565b614556565b82525050565b600061458b8288614520565b60208201915061459b8287614520565b6020820191506145ab8286614520565b6020820191506145bb8285614568565b6014820191506145cb8284614568565b6014820191508190509695505050505050565b7f4e487b7100000000000000000000000000000000000000000000000000000000600052601260045260246000fd5b600061461882613909565b915061462383613909565b925082614633576146326145de565b5b828206905092915050565b7f4e487b7100000000000000000000000000000000000000000000000000000000600052601160045260246000fd5b600061467882613909565b915061468383613909565b925082820190508082111561469b5761469a61463e565b5b92915050565b7f4e487b7100000000000000000000000000000000000000000000000000000000600052603260045260246000fd5b60006146db82613909565b91507fffffffffffffffffffffffffffffffffffffffffffffffffffffffffffffffff820361470d5761470c61463e565b5b600182019050919050565b600060608201905061472d6000830186613cae565b61473a6020830185613b64565b6147476040830184613cae565b949350505050565b7f4552433732313a2063616c6c6572206973206e6f7420746f6b656e206f776e6560008201527f72206f7220617070726f76656400000000000000000000000000000000000000602082015250565b60006147ab602d83613977565b91506147b68261474f565b604082019050919050565b600060208201905081810360008301526147da8161479e565b9050919050565b7f4e756d626572206f662077696e6e657273206d7573742062652067726561746560008201527f72207468616e207a65726f000000000000000000000000000000000000000000602082015250565b600061483d602b83613977565b9150614848826147e1565b604082019050919050565b6000602082019050818103600083015261486c81614830565b9050919050565b7f4e756d626572206f662077696e6e657273206578636565647320746865206e7560008201527f6d626572206f66206d696e74696e672061646472657373657300000000000000602082015250565b60006148cf603983613977565b91506148da82614873565b604082019050919050565b600060208201905081810360008301526148fe816148c2565b9050919050565b7f5265776172642070657263656e74616765206d7573742062652062657477656560008201527f6e203120616e6420313030000000000000000000000000000000000000000000602082015250565b6000614961602b83613977565b915061496c82614905565b604082019050919050565b6000602082019050818103600083015261499081614954565b9050919050565b60006149a282613909565b91506149ad83613909565b92508282026149bb81613909565b915082820484148315176149d2576149d161463e565b5b5092915050565b60006149e482613909565b91506149ef83613909565b9250826149ff576149fe6145de565b5b828204905092915050565b7f4552433732313a20696e76616c696420746f6b656e2049440000000000000000600082015250565b6000614a40601883613977565b9150614a4b82614a0a565b602082019050919050565b60006020820190508181036000830152614a6f81614a33565b9050919050565b7f546f6b656e20494420646f6573206e6f74206578697374000000000000000000600082015250565b6000614aac601783613977565b9150614ab782614a76565b602082019050919050565b60006020820190508181036000830152614adb81614a9f565b9050919050565b7f4552433732313a2061646472657373207a65726f206973206e6f74206120766160008201527f6c6964206f776e65720000000000000000000000000000000000000000000000602082015250565b6000614b3e602983613977565b9150614b4982614ae2565b604082019050919050565b60006020820190508181036000830152614b6d81614b31565b9050919050565b7f596f7520617265206e6f7420746865206f776e6572206f662074686973204e4660008201527f5400000000000000000000000000000000000000000000000000000000000000602082015250565b6000614bd0602183613977565b9150614bdb82614b74565b604082019050919050565b60006020820190508181036000830152614bff81614bc3565b9050919050565b7f546f70206d7573742062652067726561746572207468616e207a65726f000000600082015250565b6000614c3c601d83613977565b9150614c4782614c06565b602082019050919050565b60006020820190508181036000830152614c6b81614c2f565b9050919050565b7f546f70206578636565647320746865206e756d626572206f66206d696e74696e60008201527f6720616464726573736573000000000000000000000000000000000000000000602082015250565b6000614cce602b83613977565b9150614cd982614c72565b604082019050919050565b60006020820190508181036000830152614cfd81614cc1565b9050919050565b60008190508160005260206000209050919050565b60006020601f8301049050919050565b600082821b905092915050565b600060088302614d667fffffffffffffffffffffffffffffffffffffffffffffffffffffffffffffffff82614d29565b614d708683614d29565b95508019841693508086168417925050509392505050565b6000819050919050565b6000614dad614da8614da384613909565b614d88565b613909565b9050919050565b6000819050919050565b614dc783614d92565b614ddb614dd382614db4565b848454614d36565b825550505050565b600090565b614df0614de3565b614dfb818484614dbe565b505050565b5b81811015614e1f57614e14600082614de8565b600181019050614e01565b5050565b601f821115614e6457614e3581614d04565b614e3e84614d19565b81016020851015614e4d578190505b614e61614e5985614d19565b830182614e00565b50505b505050565b600082821c905092915050565b6000614e8760001984600802614e69565b1980831691505092915050565b6000614ea08383614e76565b9150826002028217905092915050565b614eb98261396c565b67ffffffffffffffff811115614ed257614ed1613f7c565b5b614edc82546142c3565b614ee7828285614e23565b600060209050601f831160018114614f1a5760008415614f08578287015190505b614f128582614e94565b865550614f7a565b601f198416614f2886614d04565b60005b82811015614f5057848901518255600182019150602085019450602081019050614f2b565b86831015614f6d5784890151614f69601f891682614e76565b8355505b6001600288020188555050505b505050505050565b7f4f776e61626c653a206e6577206f776e657220697320746865207a65726f206160008201527f6464726573730000000000000000000000000000000000000000000000000000602082015250565b6000614fde602683613977565b9150614fe982614f82565b604082019050919050565b6000602082019050818103600083015261500d81614fd1565b9050919050565b7f4f776e61626c653a2063616c6c6572206973206e6f7420746865206f776e6572600082015250565b600061504a602083613977565b915061505582615014565b602082019050919050565b600060208201905081810360008301526150798161503d565b9050919050565b7f4552433732313a206d696e7420746f20746865207a65726f2061646472657373600082015250565b60006150b6602083613977565b91506150c182615080565b602082019050919050565b600060208201905081810360008301526150e5816150a9565b9050919050565b7f4552433732313a20746f6b656e20616c7265616479206d696e74656400000000600082015250565b6000615122601c83613977565b915061512d826150ec565b602082019050919050565b6000602082019050818103600083015261515181615115565b9050919050565b7f45524337323155524953746f726167653a2055524920736574206f66206e6f6e60008201527f6578697374656e7420746f6b656e000000000000000000000000000000000000602082015250565b60006151b4602e83613977565b91506151bf82615158565b604082019050919050565b600060208201905081810360008301526151e3816151a7565b9050919050565b7f4552433732313a207472616e736665722066726f6d20696e636f72726563742060008201527f6f776e6572000000000000000000000000000000000000000000000000000000602082015250565b6000615246602583613977565b9150615251826151ea565b604082019050919050565b6000602082019050818103600083015261527581615239565b9050919050565b7f4552433732313a207472616e7366657220746f20746865207a65726f2061646460008201527f7265737300000000000000000000000000000000000000000000000000000000602082015250565b60006152d8602483613977565b91506152e38261527c565b604082019050919050565b60006020820190508181036000830152615307816152cb565b9050919050565b7f4552433732313a20617070726f766520746f2063616c6c657200000000000000600082015250565b6000615344601983613977565b915061534f8261530e565b602082019050919050565b6000602082019050818103600083015261537381615337565b9050919050565b600061538582613909565b915061539083613909565b92508282039050818111156153a8576153a761463e565b5b92915050565b7f4552433732313a207472616e7366657220746f206e6f6e20455243373231526560008201527f63656976657220696d706c656d656e7465720000000000000000000000000000602082015250565b600061540a603283613977565b9150615415826153ae565b604082019050919050565b60006020820190508181036000830152615439816153fd565b9050919050565b600081905092915050565b60006154568261396c565b6154608185615440565b9350615470818560208601613988565b80840191505092915050565b6000615488828561544b565b9150615494828461544b565b91508190509392505050565b600081519050919050565b600082825260208201905092915050565b60006154c7826154a0565b6154d181856154ab565b93506154e1818560208601613988565b6154ea816139b2565b840191505092915050565b600060808201905061550a6000830187613b64565b6155176020830186613b64565b6155246040830185613cae565b818103606083015261553681846154bc565b905095945050505050565b60008151905061555081613a4a565b92915050565b60006020828403121561556c5761556b6138ff565b5b600061557a84828501615541565b9150509291505056fea2646970667358221220d4245e6a2082446409e06ec0349a73b6f0146e4577fb8c67a4bbc6541dcc47e464736f6c6343000812003368747470733a2f2f7265642d666c79696e672d6c796e782d3537382e6d7970696e6174612e636c6f75642f697066732f516d587352764753554869556f58764b6578635a53314855474766477067623545764337463245524166587532613f5f676c3d312a317574776763382a5f67612a4d5463794e4455344d5441354c6a45324f5441784f544d334d7a592e2a5f67615f35524d505847313454452a4d5459354d6a45794e4449794f5334314c6a45754d5459354d6a45794e4451334d4334324d4334774c6a412e68747470733a2f2f7265642d666c79696e672d6c796e782d3537382e6d7970696e6174612e636c6f75642f697066732f516d654d46445573565064646e5a73324c366d4b746373644e437159695672613759486a756a6a51663272714d443f5f676c3d312a316174356a38702a5f67612a4d5463794e4455344d5441354c6a45324f5441784f544d334d7a592e2a5f67615f35524d505847313454452a4d5459354d6a45794e4449794f5334314c6a45754d5459354d6a45794e44517a4d4334794c6a41754d412e2e68747470733a2f2f7265642d666c79696e672d6c796e782d3537382e6d7970696e6174612e636c6f75642f697066732f516d614c5a5974516b6554545855726b6f4534485247794669434736767242707445476a557469616e3772567a393f5f676c3d312a686d386b6a312a5f67612a4d5463794e4455344d5441354c6a45324f5441784f544d334d7a592e2a5f67615f35524d505847313454452a4d5459354d6a45794e4449794f5334314c6a45754d5459354d6a45794e444d334d6934324d4334774c6a412e68747470733a2f2f7265642d666c79696e672d6c796e782d3537382e6d7970696e6174612e636c6f75642f697066732f516d533558376645553459316d646a674d756e36524832644a6778784b73314b774654325476636b376d6f7470783f5f676c3d312a69326f377a682a5f67612a4d5463794e4455344d5441354c6a45324f5441784f544d334d7a592e2a5f67615f35524d505847313454452a4d5459354d6a45794e4449794f5334314c6a45754d5459354d6a45794e4455794d4334784d4334774c6a412e",
			"opcodes": "PUSH1 0x80 PUSH1 0x40 MSTORE PUSH1 0x40 MLOAD DUP1 PUSH1 0x80 ADD PUSH1 0x40 MSTORE DUP1 PUSH1 0x40 MLOAD DUP1 PUSH2 0x100 ADD PUSH1 0x40 MSTORE DUP1 PUSH1 0xC8 DUP2 MSTORE PUSH1 0x20 ADD PUSH3 0x5DB5 PUSH1 0xC8 SWAP2 CODECOPY DUP2 MSTORE PUSH1 0x20 ADD PUSH1 0x40 MLOAD DUP1 PUSH2 0x100 ADD PUSH1 0x40 MSTORE DUP1 PUSH1 0xC9 DUP2 MSTORE PUSH1 0x20 ADD PUSH3 0x5CEC PUSH1 0xC9 SWAP2 CODECOPY DUP2 MSTORE PUSH1 0x20 ADD PUSH1 0x40 MLOAD DUP1 PUSH2 0x100 ADD PUSH1 0x40 MSTORE DUP1 PUSH1 0xC9 DUP2 MSTORE PUSH1 0x20 ADD PUSH3 0x5C23 PUSH1 0xC9 SWAP2 CODECOPY DUP2 MSTORE PUSH1 0x20 ADD PUSH1 0x40 MLOAD DUP1 PUSH2 0x100 ADD PUSH1 0x40 MSTORE DUP1 PUSH1 0xC8 DUP2 MSTORE PUSH1 0x20 ADD PUSH3 0x5E7D PUSH1 0xC8 SWAP2 CODECOPY DUP2 MSTORE POP PUSH1 0xE PUSH1 0x0 DUP3 ADD MLOAD DUP2 PUSH1 0x0 ADD SWAP1 DUP2 PUSH3 0xA6 SWAP2 SWAP1 PUSH3 0x573 JUMP JUMPDEST POP PUSH1 0x20 DUP3 ADD MLOAD DUP2 PUSH1 0x1 ADD SWAP1 DUP2 PUSH3 0xBE SWAP2 SWAP1 PUSH3 0x573 JUMP JUMPDEST POP PUSH1 0x40 DUP3 ADD MLOAD DUP2 PUSH1 0x2 ADD SWAP1 DUP2 PUSH3 0xD6 SWAP2 SWAP1 PUSH3 0x573 JUMP JUMPDEST POP PUSH1 0x60 DUP3 ADD MLOAD DUP2 PUSH1 0x3 ADD SWAP1 DUP2 PUSH3 0xEE SWAP2 SWAP1 PUSH3 0x573 JUMP JUMPDEST POP POP POP PUSH1 0x0 PUSH1 0x12 PUSH1 0x0 PUSH2 0x100 EXP DUP2 SLOAD DUP2 PUSH1 0xFF MUL NOT AND SWAP1 DUP4 ISZERO ISZERO MUL OR SWAP1 SSTORE POP CALLVALUE DUP1 ISZERO PUSH3 0x119 JUMPI PUSH1 0x0 DUP1 REVERT JUMPDEST POP PUSH1 0x40 MLOAD DUP1 PUSH1 0x40 ADD PUSH1 0x40 MSTORE DUP1 PUSH1 0x9 DUP2 MSTORE PUSH1 0x20 ADD PUSH32 0x4261736558204E46540000000000000000000000000000000000000000000000 DUP2 MSTORE POP PUSH1 0x40 MLOAD DUP1 PUSH1 0x40 ADD PUSH1 0x40 MSTORE DUP1 PUSH1 0x2 DUP2 MSTORE PUSH1 0x20 ADD PUSH32 0x4258000000000000000000000000000000000000000000000000000000000000 DUP2 MSTORE POP DUP2 PUSH1 0x0 SWAP1 DUP2 PUSH3 0x197 SWAP2 SWAP1 PUSH3 0x573 JUMP JUMPDEST POP DUP1 PUSH1 0x1 SWAP1 DUP2 PUSH3 0x1A9 SWAP2 SWAP1 PUSH3 0x573 JUMP JUMPDEST POP POP POP PUSH3 0x1CC PUSH3 0x1C0 PUSH3 0x22B PUSH1 0x20 SHL PUSH1 0x20 SHR JUMP JUMPDEST PUSH3 0x233 PUSH1 0x20 SHL PUSH1 0x20 SHR JUMP JUMPDEST PUSH1 0x64 PUSH1 0xA DUP2 SWAP1 SSTORE POP CALLER PUSH1 0xC PUSH1 0x0 PUSH2 0x100 EXP DUP2 SLOAD DUP2 PUSH20 0xFFFFFFFFFFFFFFFFFFFFFFFFFFFFFFFFFFFFFFFF MUL NOT AND SWAP1 DUP4 PUSH20 0xFFFFFFFFFFFFFFFFFFFFFFFFFFFFFFFFFFFFFFFF AND MUL OR SWAP1 SSTORE POP PUSH1 0x0 PUSH1 0xD DUP2 SWAP1 SSTORE POP PUSH1 0x0 PUSH1 0xB DUP2 SWAP1 SSTORE POP PUSH3 0x65A JUMP JUMPDEST PUSH1 0x0 CALLER SWAP1 POP SWAP1 JUMP JUMPDEST PUSH1 0x0 PUSH1 0x7 PUSH1 0x0 SWAP1 SLOAD SWAP1 PUSH2 0x100 EXP SWAP1 DIV PUSH20 0xFFFFFFFFFFFFFFFFFFFFFFFFFFFFFFFFFFFFFFFF AND SWAP1 POP DUP2 PUSH1 0x7 PUSH1 0x0 PUSH2 0x100 EXP DUP2 SLOAD DUP2 PUSH20 0xFFFFFFFFFFFFFFFFFFFFFFFFFFFFFFFFFFFFFFFF MUL NOT AND SWAP1 DUP4 PUSH20 0xFFFFFFFFFFFFFFFFFFFFFFFFFFFFFFFFFFFFFFFF AND MUL OR SWAP1 SSTORE POP DUP2 PUSH20 0xFFFFFFFFFFFFFFFFFFFFFFFFFFFFFFFFFFFFFFFF AND DUP2 PUSH20 0xFFFFFFFFFFFFFFFFFFFFFFFFFFFFFFFFFFFFFFFF AND PUSH32 0x8BE0079C531659141344CD1FD0A4F28419497F9722A3DAAFE3B4186F6B6457E0 PUSH1 0x40 MLOAD PUSH1 0x40 MLOAD DUP1 SWAP2 SUB SWAP1 LOG3 POP POP JUMP JUMPDEST PUSH1 0x0 DUP2 MLOAD SWAP1 POP SWAP2 SWAP1 POP JUMP JUMPDEST PUSH32 0x4E487B7100000000000000000000000000000000000000000000000000000000 PUSH1 0x0 MSTORE PUSH1 0x41 PUSH1 0x4 MSTORE PUSH1 0x24 PUSH1 0x0 REVERT JUMPDEST PUSH32 0x4E487B7100000000000000000000000000000000000000000000000000000000 PUSH1 0x0 MSTORE PUSH1 0x22 PUSH1 0x4 MSTORE PUSH1 0x24 PUSH1 0x0 REVERT JUMPDEST PUSH1 0x0 PUSH1 0x2 DUP3 DIV SWAP1 POP PUSH1 0x1 DUP3 AND DUP1 PUSH3 0x37B JUMPI PUSH1 0x7F DUP3 AND SWAP2 POP JUMPDEST PUSH1 0x20 DUP3 LT DUP2 SUB PUSH3 0x391 JUMPI PUSH3 0x390 PUSH3 0x333 JUMP JUMPDEST JUMPDEST POP SWAP2 SWAP1 POP JUMP JUMPDEST PUSH1 0x0 DUP2 SWAP1 POP DUP2 PUSH1 0x0 MSTORE PUSH1 0x20 PUSH1 0x0 KECCAK256 SWAP1 POP SWAP2 SWAP1 POP JUMP JUMPDEST PUSH1 0x0 PUSH1 0x20 PUSH1 0x1F DUP4 ADD DIV SWAP1 POP SWAP2 SWAP1 POP JUMP JUMPDEST PUSH1 0x0 DUP3 DUP3 SHL SWAP1 POP SWAP3 SWAP2 POP POP JUMP JUMPDEST PUSH1 0x0 PUSH1 0x8 DUP4 MUL PUSH3 0x3FB PUSH32 0xFFFFFFFFFFFFFFFFFFFFFFFFFFFFFFFFFFFFFFFFFFFFFFFFFFFFFFFFFFFFFFFF DUP3 PUSH3 0x3BC JUMP JUMPDEST PUSH3 0x407 DUP7 DUP4 PUSH3 0x3BC JUMP JUMPDEST SWAP6 POP DUP1 NOT DUP5 AND SWAP4 POP DUP1 DUP7 AND DUP5 OR SWAP3 POP POP POP SWAP4 SWAP3 POP POP POP JUMP JUMPDEST PUSH1 0x0 DUP2 SWAP1 POP SWAP2 SWAP1 POP JUMP JUMPDEST PUSH1 0x0 DUP2 SWAP1 POP SWAP2 SWAP1 POP JUMP JUMPDEST PUSH1 0x0 PUSH3 0x454 PUSH3 0x44E PUSH3 0x448 DUP5 PUSH3 0x41F JUMP JUMPDEST PUSH3 0x429 JUMP JUMPDEST PUSH3 0x41F JUMP JUMPDEST SWAP1 POP SWAP2 SWAP1 POP JUMP JUMPDEST PUSH1 0x0 DUP2 SWAP1 POP SWAP2 SWAP1 POP JUMP JUMPDEST PUSH3 0x470 DUP4 PUSH3 0x433 JUMP JUMPDEST PUSH3 0x488 PUSH3 0x47F DUP3 PUSH3 0x45B JUMP JUMPDEST DUP5 DUP5 SLOAD PUSH3 0x3C9 JUMP JUMPDEST DUP3 SSTORE POP POP POP POP JUMP JUMPDEST PUSH1 0x0 SWAP1 JUMP JUMPDEST PUSH3 0x49F PUSH3 0x490 JUMP JUMPDEST PUSH3 0x4AC DUP2 DUP5 DUP5 PUSH3 0x465 JUMP JUMPDEST POP POP POP JUMP JUMPDEST JUMPDEST DUP2 DUP2 LT ISZERO PUSH3 0x4D4 JUMPI PUSH3 0x4C8 PUSH1 0x0 DUP3 PUSH3 0x495 JUMP JUMPDEST PUSH1 0x1 DUP2 ADD SWAP1 POP PUSH3 0x4B2 JUMP JUMPDEST POP POP JUMP JUMPDEST PUSH1 0x1F DUP3 GT ISZERO PUSH3 0x523 JUMPI PUSH3 0x4ED DUP2 PUSH3 0x397 JUMP JUMPDEST PUSH3 0x4F8 DUP5 PUSH3 0x3AC JUMP JUMPDEST DUP2 ADD PUSH1 0x20 DUP6 LT ISZERO PUSH3 0x508 JUMPI DUP2 SWAP1 POP JUMPDEST PUSH3 0x520 PUSH3 0x517 DUP6 PUSH3 0x3AC JUMP JUMPDEST DUP4 ADD DUP3 PUSH3 0x4B1 JUMP JUMPDEST POP POP JUMPDEST POP POP POP JUMP JUMPDEST PUSH1 0x0 DUP3 DUP3 SHR SWAP1 POP SWAP3 SWAP2 POP POP JUMP JUMPDEST PUSH1 0x0 PUSH3 0x548 PUSH1 0x0 NOT DUP5 PUSH1 0x8 MUL PUSH3 0x528 JUMP JUMPDEST NOT DUP1 DUP4 AND SWAP2 POP POP SWAP3 SWAP2 POP POP JUMP JUMPDEST PUSH1 0x0 PUSH3 0x563 DUP4 DUP4 PUSH3 0x535 JUMP JUMPDEST SWAP2 POP DUP3 PUSH1 0x2 MUL DUP3 OR SWAP1 POP SWAP3 SWAP2 POP POP JUMP JUMPDEST PUSH3 0x57E DUP3 PUSH3 0x2F9 JUMP JUMPDEST PUSH8 0xFFFFFFFFFFFFFFFF DUP2 GT ISZERO PUSH3 0x59A JUMPI PUSH3 0x599 PUSH3 0x304 JUMP JUMPDEST JUMPDEST PUSH3 0x5A6 DUP3 SLOAD PUSH3 0x362 JUMP JUMPDEST PUSH3 0x5B3 DUP3 DUP3 DUP6 PUSH3 0x4D8 JUMP JUMPDEST PUSH1 0x0 PUSH1 0x20 SWAP1 POP PUSH1 0x1F DUP4 GT PUSH1 0x1 DUP2 EQ PUSH3 0x5EB JUMPI PUSH1 0x0 DUP5 ISZERO PUSH3 0x5D6 JUMPI DUP3 DUP8 ADD MLOAD SWAP1 POP JUMPDEST PUSH3 0x5E2 DUP6 DUP3 PUSH3 0x555 JUMP JUMPDEST DUP7 SSTORE POP PUSH3 0x652 JUMP JUMPDEST PUSH1 0x1F NOT DUP5 AND PUSH3 0x5FB DUP7 PUSH3 0x397 JUMP JUMPDEST PUSH1 0x0 JUMPDEST DUP3 DUP2 LT ISZERO PUSH3 0x625 JUMPI DUP5 DUP10 ADD MLOAD DUP3 SSTORE PUSH1 0x1 DUP3 ADD SWAP2 POP PUSH1 0x20 DUP6 ADD SWAP5 POP PUSH1 0x20 DUP2 ADD SWAP1 POP PUSH3 0x5FE JUMP JUMPDEST DUP7 DUP4 LT ISZERO PUSH3 0x645 JUMPI DUP5 DUP10 ADD MLOAD PUSH3 0x641 PUSH1 0x1F DUP10 AND DUP3 PUSH3 0x535 JUMP JUMPDEST DUP4 SSTORE POP JUMPDEST PUSH1 0x1 PUSH1 0x2 DUP9 MUL ADD DUP9 SSTORE POP POP POP JUMPDEST POP POP POP POP POP POP JUMP JUMPDEST PUSH2 0x55B9 DUP1 PUSH3 0x66A PUSH1 0x0 CODECOPY PUSH1 0x0 RETURN INVALID PUSH1 0x80 PUSH1 0x40 MSTORE PUSH1 0x4 CALLDATASIZE LT PUSH2 0x245 JUMPI PUSH1 0x0 CALLDATALOAD PUSH1 0xE0 SHR DUP1 PUSH4 0x84028697 GT PUSH2 0x139 JUMPI DUP1 PUSH4 0xAC399914 GT PUSH2 0xB6 JUMPI DUP1 PUSH4 0xBE13197B GT PUSH2 0x7A JUMPI DUP1 PUSH4 0xBE13197B EQ PUSH2 0x87F JUMPI DUP1 PUSH4 0xC87B56DD EQ PUSH2 0x8BC JUMPI DUP1 PUSH4 0xE985E9C5 EQ PUSH2 0x8F9 JUMPI DUP1 PUSH4 0xEBB24C32 EQ PUSH2 0x936 JUMPI DUP1 PUSH4 0xF2FDE38B EQ PUSH2 0x95F JUMPI DUP1 PUSH4 0xF4F3B059 EQ PUSH2 0x988 JUMPI PUSH2 0x245 JUMP JUMPDEST DUP1 PUSH4 0xAC399914 EQ PUSH2 0x7C2 JUMPI DUP1 PUSH4 0xB63B3D57 EQ PUSH2 0x7EB JUMPI DUP1 PUSH4 0xB69CBD50 EQ PUSH2 0x816 JUMPI DUP1 PUSH4 0xB784902E EQ PUSH2 0x82D JUMPI DUP1 PUSH4 0xB88D4FDE EQ PUSH2 0x856 JUMPI PUSH2 0x245 JUMP JUMPDEST DUP1 PUSH4 0x9B525924 GT PUSH2 0xFD JUMPI DUP1 PUSH4 0x9B525924 EQ PUSH2 0x6C8 JUMPI DUP1 PUSH4 0xA035B1FE EQ PUSH2 0x6F3 JUMPI DUP1 PUSH4 0xA22CB465 EQ PUSH2 0x71E JUMPI DUP1 PUSH4 0xA23AF5CB EQ PUSH2 0x747 JUMPI DUP1 PUSH4 0xA3C0B95B EQ PUSH2 0x784 JUMPI PUSH2 0x245 JUMP JUMPDEST DUP1 PUSH4 0x84028697 EQ PUSH2 0x5F5 JUMPI DUP1 PUSH4 0x8DA5CB5B EQ PUSH2 0x61E JUMPI DUP1 PUSH4 0x94AB67FE EQ PUSH2 0x649 JUMPI DUP1 PUSH4 0x95D89B41 EQ PUSH2 0x672 JUMPI DUP1 PUSH4 0x98D5FDCA EQ PUSH2 0x69D JUMPI PUSH2 0x245 JUMP JUMPDEST DUP1 PUSH4 0x23B872DD GT PUSH2 0x1C7 JUMPI DUP1 PUSH4 0x62766DEC GT PUSH2 0x18B JUMPI DUP1 PUSH4 0x62766DEC EQ PUSH2 0x4EA JUMPI DUP1 PUSH4 0x6352211E EQ PUSH2 0x527 JUMPI DUP1 PUSH4 0x6C5BF32E EQ PUSH2 0x564 JUMPI DUP1 PUSH4 0x70A08231 EQ PUSH2 0x5A1 JUMPI DUP1 PUSH4 0x715018A6 EQ PUSH2 0x5DE JUMPI PUSH2 0x245 JUMP JUMPDEST DUP1 PUSH4 0x23B872DD EQ PUSH2 0x41B JUMPI DUP1 PUSH4 0x3CCFD60B EQ PUSH2 0x444 JUMPI DUP1 PUSH4 0x42842E0E EQ PUSH2 0x45B JUMPI DUP1 PUSH4 0x4FF531B6 EQ PUSH2 0x484 JUMPI DUP1 PUSH4 0x52CB5133 EQ PUSH2 0x4C1 JUMPI PUSH2 0x245 JUMP JUMPDEST DUP1 PUSH4 0x95EA7B3 GT PUSH2 0x20E JUMPI DUP1 PUSH4 0x95EA7B3 EQ PUSH2 0x355 JUMPI DUP1 PUSH4 0x14F710FE EQ PUSH2 0x37E JUMPI DUP1 PUSH4 0x18148F1B EQ PUSH2 0x388 JUMPI DUP1 PUSH4 0x18160DDD EQ PUSH2 0x3C5 JUMPI DUP1 PUSH4 0x1B163A9D EQ PUSH2 0x3F0 JUMPI PUSH2 0x245 JUMP JUMPDEST DUP1 PUSH3 0x621FDA EQ PUSH2 0x24A JUMPI DUP1 PUSH4 0x1FFC9A7 EQ PUSH2 0x287 JUMPI DUP1 PUSH4 0x4890B24 EQ PUSH2 0x2C4 JUMPI DUP1 PUSH4 0x6FDDE03 EQ PUSH2 0x2ED JUMPI DUP1 PUSH4 0x81812FC EQ PUSH2 0x318 JUMPI JUMPDEST PUSH1 0x0 DUP1 REVERT JUMPDEST CALLVALUE DUP1 ISZERO PUSH2 0x256 JUMPI PUSH1 0x0 DUP1 REVERT JUMPDEST POP PUSH2 0x271 PUSH1 0x4 DUP1 CALLDATASIZE SUB DUP2 ADD SWAP1 PUSH2 0x26C SWAP2 SWAP1 PUSH2 0x393F JUMP JUMPDEST PUSH2 0x9B1 JUMP JUMPDEST PUSH1 0x40 MLOAD PUSH2 0x27E SWAP2 SWAP1 PUSH2 0x39FC JUMP JUMPDEST PUSH1 0x40 MLOAD DUP1 SWAP2 SUB SWAP1 RETURN JUMPDEST CALLVALUE DUP1 ISZERO PUSH2 0x293 JUMPI PUSH1 0x0 DUP1 REVERT JUMPDEST POP PUSH2 0x2AE PUSH1 0x4 DUP1 CALLDATASIZE SUB DUP2 ADD SWAP1 PUSH2 0x2A9 SWAP2 SWAP1 PUSH2 0x3A76 JUMP JUMPDEST PUSH2 0x9C3 JUMP JUMPDEST PUSH1 0x40 MLOAD PUSH2 0x2BB SWAP2 SWAP1 PUSH2 0x3ABE JUMP JUMPDEST PUSH1 0x40 MLOAD DUP1 SWAP2 SUB SWAP1 RETURN JUMPDEST CALLVALUE DUP1 ISZERO PUSH2 0x2D0 JUMPI PUSH1 0x0 DUP1 REVERT JUMPDEST POP PUSH2 0x2EB PUSH1 0x4 DUP1 CALLDATASIZE SUB DUP2 ADD SWAP1 PUSH2 0x2E6 SWAP2 SWAP1 PUSH2 0x3B37 JUMP JUMPDEST PUSH2 0x9D5 JUMP JUMPDEST STOP JUMPDEST CALLVALUE DUP1 ISZERO PUSH2 0x2F9 JUMPI PUSH1 0x0 DUP1 REVERT JUMPDEST POP PUSH2 0x302 PUSH2 0xA38 JUMP JUMPDEST PUSH1 0x40 MLOAD PUSH2 0x30F SWAP2 SWAP1 PUSH2 0x39FC JUMP JUMPDEST PUSH1 0x40 MLOAD DUP1 SWAP2 SUB SWAP1 RETURN JUMPDEST CALLVALUE DUP1 ISZERO PUSH2 0x324 JUMPI PUSH1 0x0 DUP1 REVERT JUMPDEST POP PUSH2 0x33F PUSH1 0x4 DUP1 CALLDATASIZE SUB DUP2 ADD SWAP1 PUSH2 0x33A SWAP2 SWAP1 PUSH2 0x393F JUMP JUMPDEST PUSH2 0xACA JUMP JUMPDEST PUSH1 0x40 MLOAD PUSH2 0x34C SWAP2 SWAP1 PUSH2 0x3B73 JUMP JUMPDEST PUSH1 0x40 MLOAD DUP1 SWAP2 SUB SWAP1 RETURN JUMPDEST CALLVALUE DUP1 ISZERO PUSH2 0x361 JUMPI PUSH1 0x0 DUP1 REVERT JUMPDEST POP PUSH2 0x37C PUSH1 0x4 DUP1 CALLDATASIZE SUB DUP2 ADD SWAP1 PUSH2 0x377 SWAP2 SWAP1 PUSH2 0x3B8E JUMP JUMPDEST PUSH2 0xB10 JUMP JUMPDEST STOP JUMPDEST PUSH2 0x386 PUSH2 0xC27 JUMP JUMPDEST STOP JUMPDEST CALLVALUE DUP1 ISZERO PUSH2 0x394 JUMPI PUSH1 0x0 DUP1 REVERT JUMPDEST POP PUSH2 0x3AF PUSH1 0x4 DUP1 CALLDATASIZE SUB DUP2 ADD SWAP1 PUSH2 0x3AA SWAP2 SWAP1 PUSH2 0x3B37 JUMP JUMPDEST PUSH2 0x149C JUMP JUMPDEST PUSH1 0x40 MLOAD PUSH2 0x3BC SWAP2 SWAP1 PUSH2 0x3C8C JUMP JUMPDEST PUSH1 0x40 MLOAD DUP1 SWAP2 SUB SWAP1 RETURN JUMPDEST CALLVALUE DUP1 ISZERO PUSH2 0x3D1 JUMPI PUSH1 0x0 DUP1 REVERT JUMPDEST POP PUSH2 0x3DA PUSH2 0x15AB JUMP JUMPDEST PUSH1 0x40 MLOAD PUSH2 0x3E7 SWAP2 SWAP1 PUSH2 0x3CBD JUMP JUMPDEST PUSH1 0x40 MLOAD DUP1 SWAP2 SUB SWAP1 RETURN JUMPDEST CALLVALUE DUP1 ISZERO PUSH2 0x3FC JUMPI PUSH1 0x0 DUP1 REVERT JUMPDEST POP PUSH2 0x405 PUSH2 0x15B1 JUMP JUMPDEST PUSH1 0x40 MLOAD PUSH2 0x412 SWAP2 SWAP1 PUSH2 0x3B73 JUMP JUMPDEST PUSH1 0x40 MLOAD DUP1 SWAP2 SUB SWAP1 RETURN JUMPDEST CALLVALUE DUP1 ISZERO PUSH2 0x427 JUMPI PUSH1 0x0 DUP1 REVERT JUMPDEST POP PUSH2 0x442 PUSH1 0x4 DUP1 CALLDATASIZE SUB DUP2 ADD SWAP1 PUSH2 0x43D SWAP2 SWAP1 PUSH2 0x3CD8 JUMP JUMPDEST PUSH2 0x15E3 JUMP JUMPDEST STOP JUMPDEST CALLVALUE DUP1 ISZERO PUSH2 0x450 JUMPI PUSH1 0x0 DUP1 REVERT JUMPDEST POP PUSH2 0x459 PUSH2 0x1643 JUMP JUMPDEST STOP JUMPDEST CALLVALUE DUP1 ISZERO PUSH2 0x467 JUMPI PUSH1 0x0 DUP1 REVERT JUMPDEST POP PUSH2 0x482 PUSH1 0x4 DUP1 CALLDATASIZE SUB DUP2 ADD SWAP1 PUSH2 0x47D SWAP2 SWAP1 PUSH2 0x3CD8 JUMP JUMPDEST PUSH2 0x169A JUMP JUMPDEST STOP JUMPDEST CALLVALUE DUP1 ISZERO PUSH2 0x490 JUMPI PUSH1 0x0 DUP1 REVERT JUMPDEST POP PUSH2 0x4AB PUSH1 0x4 DUP1 CALLDATASIZE SUB DUP2 ADD SWAP1 PUSH2 0x4A6 SWAP2 SWAP1 PUSH2 0x3B37 JUMP JUMPDEST PUSH2 0x16BA JUMP JUMPDEST PUSH1 0x40 MLOAD PUSH2 0x4B8 SWAP2 SWAP1 PUSH2 0x3CBD JUMP JUMPDEST PUSH1 0x40 MLOAD DUP1 SWAP2 SUB SWAP1 RETURN JUMPDEST CALLVALUE DUP1 ISZERO PUSH2 0x4CD JUMPI PUSH1 0x0 DUP1 REVERT JUMPDEST POP PUSH2 0x4E8 PUSH1 0x4 DUP1 CALLDATASIZE SUB DUP2 ADD SWAP1 PUSH2 0x4E3 SWAP2 SWAP1 PUSH2 0x3D2B JUMP JUMPDEST PUSH2 0x18E5 JUMP JUMPDEST STOP JUMPDEST CALLVALUE DUP1 ISZERO PUSH2 0x4F6 JUMPI PUSH1 0x0 DUP1 REVERT JUMPDEST POP PUSH2 0x511 PUSH1 0x4 DUP1 CALLDATASIZE SUB DUP2 ADD SWAP1 PUSH2 0x50C SWAP2 SWAP1 PUSH2 0x3B37 JUMP JUMPDEST PUSH2 0x1A8A JUMP JUMPDEST PUSH1 0x40 MLOAD PUSH2 0x51E SWAP2 SWAP1 PUSH2 0x3C8C JUMP JUMPDEST PUSH1 0x40 MLOAD DUP1 SWAP2 SUB SWAP1 RETURN JUMPDEST CALLVALUE DUP1 ISZERO PUSH2 0x533 JUMPI PUSH1 0x0 DUP1 REVERT JUMPDEST POP PUSH2 0x54E PUSH1 0x4 DUP1 CALLDATASIZE SUB DUP2 ADD SWAP1 PUSH2 0x549 SWAP2 SWAP1 PUSH2 0x393F JUMP JUMPDEST PUSH2 0x1A9C JUMP JUMPDEST PUSH1 0x40 MLOAD PUSH2 0x55B SWAP2 SWAP1 PUSH2 0x3B73 JUMP JUMPDEST PUSH1 0x40 MLOAD DUP1 SWAP2 SUB SWAP1 RETURN JUMPDEST CALLVALUE DUP1 ISZERO PUSH2 0x570 JUMPI PUSH1 0x0 DUP1 REVERT JUMPDEST POP PUSH2 0x58B PUSH1 0x4 DUP1 CALLDATASIZE SUB DUP2 ADD SWAP1 PUSH2 0x586 SWAP2 SWAP1 PUSH2 0x393F JUMP JUMPDEST PUSH2 0x1B22 JUMP JUMPDEST PUSH1 0x40 MLOAD PUSH2 0x598 SWAP2 SWAP1 PUSH2 0x3DE2 JUMP JUMPDEST PUSH1 0x40 MLOAD DUP1 SWAP2 SUB SWAP1 RETURN JUMPDEST CALLVALUE DUP1 ISZERO PUSH2 0x5AD JUMPI PUSH1 0x0 DUP1 REVERT JUMPDEST POP PUSH2 0x5C8 PUSH1 0x4 DUP1 CALLDATASIZE SUB DUP2 ADD SWAP1 PUSH2 0x5C3 SWAP2 SWAP1 PUSH2 0x3B37 JUMP JUMPDEST PUSH2 0x1B97 JUMP JUMPDEST PUSH1 0x40 MLOAD PUSH2 0x5D5 SWAP2 SWAP1 PUSH2 0x3CBD JUMP JUMPDEST PUSH1 0x40 MLOAD DUP1 SWAP2 SUB SWAP1 RETURN JUMPDEST CALLVALUE DUP1 ISZERO PUSH2 0x5EA JUMPI PUSH1 0x0 DUP1 REVERT JUMPDEST POP PUSH2 0x5F3 PUSH2 0x1C4E JUMP JUMPDEST STOP JUMPDEST CALLVALUE DUP1 ISZERO PUSH2 0x601 JUMPI PUSH1 0x0 DUP1 REVERT JUMPDEST POP PUSH2 0x61C PUSH1 0x4 DUP1 CALLDATASIZE SUB DUP2 ADD SWAP1 PUSH2 0x617 SWAP2 SWAP1 PUSH2 0x3B37 JUMP JUMPDEST PUSH2 0x1C62 JUMP JUMPDEST STOP JUMPDEST CALLVALUE DUP1 ISZERO PUSH2 0x62A JUMPI PUSH1 0x0 DUP1 REVERT JUMPDEST POP PUSH2 0x633 PUSH2 0x1CC5 JUMP JUMPDEST PUSH1 0x40 MLOAD PUSH2 0x640 SWAP2 SWAP1 PUSH2 0x3B73 JUMP JUMPDEST PUSH1 0x40 MLOAD DUP1 SWAP2 SUB SWAP1 RETURN JUMPDEST CALLVALUE DUP1 ISZERO PUSH2 0x655 JUMPI PUSH1 0x0 DUP1 REVERT JUMPDEST POP PUSH2 0x670 PUSH1 0x4 DUP1 CALLDATASIZE SUB DUP2 ADD SWAP1 PUSH2 0x66B SWAP2 SWAP1 PUSH2 0x3B8E JUMP JUMPDEST PUSH2 0x1CEF JUMP JUMPDEST STOP JUMPDEST CALLVALUE DUP1 ISZERO PUSH2 0x67E JUMPI PUSH1 0x0 DUP1 REVERT JUMPDEST POP PUSH2 0x687 PUSH2 0x1D74 JUMP JUMPDEST PUSH1 0x40 MLOAD PUSH2 0x694 SWAP2 SWAP1 PUSH2 0x39FC JUMP JUMPDEST PUSH1 0x40 MLOAD DUP1 SWAP2 SUB SWAP1 RETURN JUMPDEST CALLVALUE DUP1 ISZERO PUSH2 0x6A9 JUMPI PUSH1 0x0 DUP1 REVERT JUMPDEST POP PUSH2 0x6B2 PUSH2 0x1E06 JUMP JUMPDEST PUSH1 0x40 MLOAD PUSH2 0x6BF SWAP2 SWAP1 PUSH2 0x3CBD JUMP JUMPDEST PUSH1 0x40 MLOAD DUP1 SWAP2 SUB SWAP1 RETURN JUMPDEST CALLVALUE DUP1 ISZERO PUSH2 0x6D4 JUMPI PUSH1 0x0 DUP1 REVERT JUMPDEST POP PUSH2 0x6DD PUSH2 0x1E6C JUMP JUMPDEST PUSH1 0x40 MLOAD PUSH2 0x6EA SWAP2 SWAP1 PUSH2 0x3CBD JUMP JUMPDEST PUSH1 0x40 MLOAD DUP1 SWAP2 SUB SWAP1 RETURN JUMPDEST CALLVALUE DUP1 ISZERO PUSH2 0x6FF JUMPI PUSH1 0x0 DUP1 REVERT JUMPDEST POP PUSH2 0x708 PUSH2 0x1E72 JUMP JUMPDEST PUSH1 0x40 MLOAD PUSH2 0x715 SWAP2 SWAP1 PUSH2 0x3CBD JUMP JUMPDEST PUSH1 0x40 MLOAD DUP1 SWAP2 SUB SWAP1 RETURN JUMPDEST CALLVALUE DUP1 ISZERO PUSH2 0x72A JUMPI PUSH1 0x0 DUP1 REVERT JUMPDEST POP PUSH2 0x745 PUSH1 0x4 DUP1 CALLDATASIZE SUB DUP2 ADD SWAP1 PUSH2 0x740 SWAP2 SWAP1 PUSH2 0x3E29 JUMP JUMPDEST PUSH2 0x1E78 JUMP JUMPDEST STOP JUMPDEST CALLVALUE DUP1 ISZERO PUSH2 0x753 JUMPI PUSH1 0x0 DUP1 REVERT JUMPDEST POP PUSH2 0x76E PUSH1 0x4 DUP1 CALLDATASIZE SUB DUP2 ADD SWAP1 PUSH2 0x769 SWAP2 SWAP1 PUSH2 0x393F JUMP JUMPDEST PUSH2 0x1E8E JUMP JUMPDEST PUSH1 0x40 MLOAD PUSH2 0x77B SWAP2 SWAP1 PUSH2 0x3F27 JUMP JUMPDEST PUSH1 0x40 MLOAD DUP1 SWAP2 SUB SWAP1 RETURN JUMPDEST CALLVALUE DUP1 ISZERO PUSH2 0x790 JUMPI PUSH1 0x0 DUP1 REVERT JUMPDEST POP PUSH2 0x7AB PUSH1 0x4 DUP1 CALLDATASIZE SUB DUP2 ADD SWAP1 PUSH2 0x7A6 SWAP2 SWAP1 PUSH2 0x393F JUMP JUMPDEST PUSH2 0x2005 JUMP JUMPDEST PUSH1 0x40 MLOAD PUSH2 0x7B9 SWAP3 SWAP2 SWAP1 PUSH2 0x3F49 JUMP JUMPDEST PUSH1 0x40 MLOAD DUP1 SWAP2 SUB SWAP1 RETURN JUMPDEST CALLVALUE DUP1 ISZERO PUSH2 0x7CE JUMPI PUSH1 0x0 DUP1 REVERT JUMPDEST POP PUSH2 0x7E9 PUSH1 0x4 DUP1 CALLDATASIZE SUB DUP2 ADD SWAP1 PUSH2 0x7E4 SWAP2 SWAP1 PUSH2 0x40A7 JUMP JUMPDEST PUSH2 0x2036 JUMP JUMPDEST STOP JUMPDEST CALLVALUE DUP1 ISZERO PUSH2 0x7F7 JUMPI PUSH1 0x0 DUP1 REVERT JUMPDEST POP PUSH2 0x800 PUSH2 0x20C1 JUMP JUMPDEST PUSH1 0x40 MLOAD PUSH2 0x80D SWAP2 SWAP1 PUSH2 0x39FC JUMP JUMPDEST PUSH1 0x40 MLOAD DUP1 SWAP2 SUB SWAP1 RETURN JUMPDEST CALLVALUE DUP1 ISZERO PUSH2 0x822 JUMPI PUSH1 0x0 DUP1 REVERT JUMPDEST POP PUSH2 0x82B PUSH2 0x214F JUMP JUMPDEST STOP JUMPDEST CALLVALUE DUP1 ISZERO PUSH2 0x839 JUMPI PUSH1 0x0 DUP1 REVERT JUMPDEST POP PUSH2 0x854 PUSH1 0x4 DUP1 CALLDATASIZE SUB DUP2 ADD SWAP1 PUSH2 0x84F SWAP2 SWAP1 PUSH2 0x4103 JUMP JUMPDEST PUSH2 0x2174 JUMP JUMPDEST STOP JUMPDEST CALLVALUE DUP1 ISZERO PUSH2 0x862 JUMPI PUSH1 0x0 DUP1 REVERT JUMPDEST POP PUSH2 0x87D PUSH1 0x4 DUP1 CALLDATASIZE SUB DUP2 ADD SWAP1 PUSH2 0x878 SWAP2 SWAP1 PUSH2 0x41D1 JUMP JUMPDEST PUSH2 0x2199 JUMP JUMPDEST STOP JUMPDEST CALLVALUE DUP1 ISZERO PUSH2 0x88B JUMPI PUSH1 0x0 DUP1 REVERT JUMPDEST POP PUSH2 0x8A6 PUSH1 0x4 DUP1 CALLDATASIZE SUB DUP2 ADD SWAP1 PUSH2 0x8A1 SWAP2 SWAP1 PUSH2 0x3B37 JUMP JUMPDEST PUSH2 0x21FB JUMP JUMPDEST PUSH1 0x40 MLOAD PUSH2 0x8B3 SWAP2 SWAP1 PUSH2 0x3CBD JUMP JUMPDEST PUSH1 0x40 MLOAD DUP1 SWAP2 SUB SWAP1 RETURN JUMPDEST CALLVALUE DUP1 ISZERO PUSH2 0x8C8 JUMPI PUSH1 0x0 DUP1 REVERT JUMPDEST POP PUSH2 0x8E3 PUSH1 0x4 DUP1 CALLDATASIZE SUB DUP2 ADD SWAP1 PUSH2 0x8DE SWAP2 SWAP1 PUSH2 0x393F JUMP JUMPDEST PUSH2 0x2213 JUMP JUMPDEST PUSH1 0x40 MLOAD PUSH2 0x8F0 SWAP2 SWAP1 PUSH2 0x39FC JUMP JUMPDEST PUSH1 0x40 MLOAD DUP1 SWAP2 SUB SWAP1 RETURN JUMPDEST CALLVALUE DUP1 ISZERO PUSH2 0x905 JUMPI PUSH1 0x0 DUP1 REVERT JUMPDEST POP PUSH2 0x920 PUSH1 0x4 DUP1 CALLDATASIZE SUB DUP2 ADD SWAP1 PUSH2 0x91B SWAP2 SWAP1 PUSH2 0x4254 JUMP JUMPDEST PUSH2 0x2225 JUMP JUMPDEST PUSH1 0x40 MLOAD PUSH2 0x92D SWAP2 SWAP1 PUSH2 0x3ABE JUMP JUMPDEST PUSH1 0x40 MLOAD DUP1 SWAP2 SUB SWAP1 RETURN JUMPDEST CALLVALUE DUP1 ISZERO PUSH2 0x942 JUMPI PUSH1 0x0 DUP1 REVERT JUMPDEST POP PUSH2 0x95D PUSH1 0x4 DUP1 CALLDATASIZE SUB DUP2 ADD SWAP1 PUSH2 0x958 SWAP2 SWAP1 PUSH2 0x393F JUMP JUMPDEST PUSH2 0x22B9 JUMP JUMPDEST STOP JUMPDEST CALLVALUE DUP1 ISZERO PUSH2 0x96B JUMPI PUSH1 0x0 DUP1 REVERT JUMPDEST POP PUSH2 0x986 PUSH1 0x4 DUP1 CALLDATASIZE SUB DUP2 ADD SWAP1 PUSH2 0x981 SWAP2 SWAP1 PUSH2 0x3B37 JUMP JUMPDEST PUSH2 0x22E6 JUMP JUMPDEST STOP JUMPDEST CALLVALUE DUP1 ISZERO PUSH2 0x994 JUMPI PUSH1 0x0 DUP1 REVERT JUMPDEST POP PUSH2 0x9AF PUSH1 0x4 DUP1 CALLDATASIZE SUB DUP2 ADD SWAP1 PUSH2 0x9AA SWAP2 SWAP1 PUSH2 0x393F JUMP JUMPDEST PUSH2 0x2369 JUMP JUMPDEST STOP JUMPDEST PUSH1 0x60 PUSH2 0x9BC DUP3 PUSH2 0x2213 JUMP JUMPDEST SWAP1 POP SWAP2 SWAP1 POP JUMP JUMPDEST PUSH1 0x0 PUSH2 0x9CE DUP3 PUSH2 0x237B JUMP JUMPDEST SWAP1 POP SWAP2 SWAP1 POP JUMP JUMPDEST PUSH2 0x9DD PUSH2 0x23DC JUMP JUMPDEST PUSH1 0x0 PUSH1 0x15 PUSH1 0x0 DUP4 PUSH20 0xFFFFFFFFFFFFFFFFFFFFFFFFFFFFFFFFFFFFFFFF AND PUSH20 0xFFFFFFFFFFFFFFFFFFFFFFFFFFFFFFFFFFFFFFFF AND DUP2 MSTORE PUSH1 0x20 ADD SWAP1 DUP2 MSTORE PUSH1 0x20 ADD PUSH1 0x0 KECCAK256 PUSH1 0x0 PUSH2 0x100 EXP DUP2 SLOAD DUP2 PUSH1 0xFF MUL NOT AND SWAP1 DUP4 ISZERO ISZERO MUL OR SWAP1 SSTORE POP POP JUMP JUMPDEST PUSH1 0x60 PUSH1 0x0 DUP1 SLOAD PUSH2 0xA47 SWAP1 PUSH2 0x42C3 JUMP JUMPDEST DUP1 PUSH1 0x1F ADD PUSH1 0x20 DUP1 SWAP2 DIV MUL PUSH1 0x20 ADD PUSH1 0x40 MLOAD SWAP1 DUP2 ADD PUSH1 0x40 MSTORE DUP1 SWAP3 SWAP2 SWAP1 DUP2 DUP2 MSTORE PUSH1 0x20 ADD DUP3 DUP1 SLOAD PUSH2 0xA73 SWAP1 PUSH2 0x42C3 JUMP JUMPDEST DUP1 ISZERO PUSH2 0xAC0 JUMPI DUP1 PUSH1 0x1F LT PUSH2 0xA95 JUMPI PUSH2 0x100 DUP1 DUP4 SLOAD DIV MUL DUP4 MSTORE SWAP2 PUSH1 0x20 ADD SWAP2 PUSH2 0xAC0 JUMP JUMPDEST DUP3 ADD SWAP2 SWAP1 PUSH1 0x0 MSTORE PUSH1 0x20 PUSH1 0x0 KECCAK256 SWAP1 JUMPDEST DUP2 SLOAD DUP2 MSTORE SWAP1 PUSH1 0x1 ADD SWAP1 PUSH1 0x20 ADD DUP1 DUP4 GT PUSH2 0xAA3 JUMPI DUP3 SWAP1 SUB PUSH1 0x1F AND DUP3 ADD SWAP2 JUMPDEST POP POP POP POP POP SWAP1 POP SWAP1 JUMP JUMPDEST PUSH1 0x0 PUSH2 0xAD5 DUP3 PUSH2 0x245A JUMP JUMPDEST PUSH1 0x4 PUSH1 0x0 DUP4 DUP2 MSTORE PUSH1 0x20 ADD SWAP1 DUP2 MSTORE PUSH1 0x20 ADD PUSH1 0x0 KECCAK256 PUSH1 0x0 SWAP1 SLOAD SWAP1 PUSH2 0x100 EXP SWAP1 DIV PUSH20 0xFFFFFFFFFFFFFFFFFFFFFFFFFFFFFFFFFFFFFFFF AND SWAP1 POP SWAP2 SWAP1 POP JUMP JUMPDEST PUSH1 0x0 PUSH2 0xB1B DUP3 PUSH2 0x1A9C JUMP JUMPDEST SWAP1 POP DUP1 PUSH20 0xFFFFFFFFFFFFFFFFFFFFFFFFFFFFFFFFFFFFFFFF AND DUP4 PUSH20 0xFFFFFFFFFFFFFFFFFFFFFFFFFFFFFFFFFFFFFFFF AND SUB PUSH2 0xB8B JUMPI PUSH1 0x40 MLOAD PUSH32 0x8C379A000000000000000000000000000000000000000000000000000000000 DUP2 MSTORE PUSH1 0x4 ADD PUSH2 0xB82 SWAP1 PUSH2 0x4366 JUMP JUMPDEST PUSH1 0x40 MLOAD DUP1 SWAP2 SUB SWAP1 REVERT JUMPDEST DUP1 PUSH20 0xFFFFFFFFFFFFFFFFFFFFFFFFFFFFFFFFFFFFFFFF AND PUSH2 0xBAA PUSH2 0x24A5 JUMP JUMPDEST PUSH20 0xFFFFFFFFFFFFFFFFFFFFFFFFFFFFFFFFFFFFFFFF AND EQ DUP1 PUSH2 0xBD9 JUMPI POP PUSH2 0xBD8 DUP2 PUSH2 0xBD3 PUSH2 0x24A5 JUMP JUMPDEST PUSH2 0x2225 JUMP JUMPDEST JUMPDEST PUSH2 0xC18 JUMPI PUSH1 0x40 MLOAD PUSH32 0x8C379A000000000000000000000000000000000000000000000000000000000 DUP2 MSTORE PUSH1 0x4 ADD PUSH2 0xC0F SWAP1 PUSH2 0x43F8 JUMP JUMPDEST PUSH1 0x40 MLOAD DUP1 SWAP2 SUB SWAP1 REVERT JUMPDEST PUSH2 0xC22 DUP4 DUP4 PUSH2 0x24AD JUMP JUMPDEST POP POP POP JUMP JUMPDEST PUSH1 0xA SLOAD PUSH2 0xC33 CALLER PUSH2 0x1B97 JUMP JUMPDEST LT PUSH2 0xC73 JUMPI PUSH1 0x40 MLOAD PUSH32 0x8C379A000000000000000000000000000000000000000000000000000000000 DUP2 MSTORE PUSH1 0x4 ADD PUSH2 0xC6A SWAP1 PUSH2 0x448A JUMP JUMPDEST PUSH1 0x40 MLOAD DUP1 SWAP2 SUB SWAP1 REVERT JUMPDEST PUSH1 0x15 PUSH1 0x0 CALLER PUSH20 0xFFFFFFFFFFFFFFFFFFFFFFFFFFFFFFFFFFFFFFFF AND PUSH20 0xFFFFFFFFFFFFFFFFFFFFFFFFFFFFFFFFFFFFFFFF AND DUP2 MSTORE PUSH1 0x20 ADD SWAP1 DUP2 MSTORE PUSH1 0x20 ADD PUSH1 0x0 KECCAK256 PUSH1 0x0 SWAP1 SLOAD SWAP1 PUSH2 0x100 EXP SWAP1 DIV PUSH1 0xFF AND PUSH2 0xD0A JUMPI PUSH1 0xB SLOAD CALLVALUE LT ISZERO PUSH2 0xD09 JUMPI PUSH1 0x40 MLOAD PUSH32 0x8C379A000000000000000000000000000000000000000000000000000000000 DUP2 MSTORE PUSH1 0x4 ADD PUSH2 0xD00 SWAP1 PUSH2 0x44F6 JUMP JUMPDEST PUSH1 0x40 MLOAD DUP1 SWAP2 SUB SWAP1 REVERT JUMPDEST JUMPDEST PUSH1 0x0 NUMBER TIMESTAMP PREVRANDAO CALLER PUSH1 0xC PUSH1 0x0 SWAP1 SLOAD SWAP1 PUSH2 0x100 EXP SWAP1 DIV PUSH20 0xFFFFFFFFFFFFFFFFFFFFFFFFFFFFFFFFFFFFFFFF AND PUSH1 0x40 MLOAD PUSH1 0x20 ADD PUSH2 0xD47 SWAP6 SWAP5 SWAP4 SWAP3 SWAP2 SWAP1 PUSH2 0x457F JUMP JUMPDEST PUSH1 0x40 MLOAD PUSH1 0x20 DUP2 DUP4 SUB SUB DUP2 MSTORE SWAP1 PUSH1 0x40 MSTORE DUP1 MLOAD SWAP1 PUSH1 0x20 ADD KECCAK256 PUSH1 0x0 SHR SWAP1 POP PUSH1 0x0 PUSH1 0x64 DUP3 PUSH2 0xD71 SWAP2 SWAP1 PUSH2 0x460D JUMP JUMPDEST SWAP1 POP PUSH1 0x0 PUSH1 0x3C DUP3 LT ISZERO PUSH2 0xD87 JUMPI PUSH1 0x0 SWAP1 POP PUSH2 0xDB2 JUMP JUMPDEST PUSH1 0x55 DUP3 LT ISZERO PUSH2 0xD99 JUMPI PUSH1 0x1 SWAP1 POP PUSH2 0xDB1 JUMP JUMPDEST PUSH1 0x5F DUP3 LT ISZERO PUSH2 0xDAB JUMPI PUSH1 0x2 SWAP1 POP PUSH2 0xDB0 JUMP JUMPDEST PUSH1 0x3 SWAP1 POP JUMPDEST JUMPDEST JUMPDEST PUSH1 0x1 PUSH1 0xD PUSH1 0x0 DUP3 DUP3 SLOAD PUSH2 0xDC5 SWAP2 SWAP1 PUSH2 0x466D JUMP JUMPDEST SWAP3 POP POP DUP2 SWAP1 SSTORE POP PUSH1 0x0 ISZERO ISZERO PUSH1 0x12 PUSH1 0x0 SWAP1 SLOAD SWAP1 PUSH2 0x100 EXP SWAP1 DIV PUSH1 0xFF AND ISZERO ISZERO SUB PUSH2 0xE4A JUMPI PUSH2 0x3A98 PUSH1 0xD SLOAD LT PUSH2 0xE04 JUMPI PUSH6 0x5AF3107A4000 PUSH1 0xB DUP2 SWAP1 SSTORE POP PUSH2 0xE49 JUMP JUMPDEST PUSH2 0x2710 PUSH1 0xD SLOAD LT PUSH2 0xE21 JUMPI PUSH6 0x2D79883D2000 PUSH1 0xB DUP2 SWAP1 SSTORE POP PUSH2 0xE48 JUMP JUMPDEST PUSH2 0x1388 PUSH1 0xD SLOAD LT PUSH2 0xE3E JUMPI PUSH6 0x12309CE54000 PUSH1 0xB DUP2 SWAP1 SSTORE POP PUSH2 0xE47 JUMP JUMPDEST PUSH1 0x0 PUSH1 0xB DUP2 SWAP1 SSTORE POP JUMPDEST JUMPDEST JUMPDEST JUMPDEST CALLER PUSH1 0xC PUSH1 0x0 PUSH2 0x100 EXP DUP2 SLOAD DUP2 PUSH20 0xFFFFFFFFFFFFFFFFFFFFFFFFFFFFFFFFFFFFFFFF MUL NOT AND SWAP1 DUP4 PUSH20 0xFFFFFFFFFFFFFFFFFFFFFFFFFFFFFFFFFFFFFFFF AND MUL OR SWAP1 SSTORE POP PUSH2 0xE95 PUSH1 0x8 PUSH2 0x2566 JUMP JUMPDEST PUSH1 0x0 PUSH2 0xEA1 PUSH1 0x8 PUSH2 0x257C JUMP JUMPDEST SWAP1 POP PUSH2 0xEAD CALLER DUP3 PUSH2 0x258A JUMP JUMPDEST PUSH1 0x0 PUSH1 0x40 MLOAD DUP1 PUSH1 0x20 ADD PUSH1 0x40 MSTORE DUP1 PUSH1 0x0 DUP2 MSTORE POP SWAP1 POP PUSH1 0x0 PUSH1 0x3 DUP2 GT ISZERO PUSH2 0xED5 JUMPI PUSH2 0xED4 PUSH2 0x3D6B JUMP JUMPDEST JUMPDEST DUP4 PUSH1 0x3 DUP2 GT ISZERO PUSH2 0xEE8 JUMPI PUSH2 0xEE7 PUSH2 0x3D6B JUMP JUMPDEST JUMPDEST SUB PUSH2 0xF82 JUMPI PUSH1 0xE PUSH1 0x0 ADD DUP1 SLOAD PUSH2 0xEFD SWAP1 PUSH2 0x42C3 JUMP JUMPDEST DUP1 PUSH1 0x1F ADD PUSH1 0x20 DUP1 SWAP2 DIV MUL PUSH1 0x20 ADD PUSH1 0x40 MLOAD SWAP1 DUP2 ADD PUSH1 0x40 MSTORE DUP1 SWAP3 SWAP2 SWAP1 DUP2 DUP2 MSTORE PUSH1 0x20 ADD DUP3 DUP1 SLOAD PUSH2 0xF29 SWAP1 PUSH2 0x42C3 JUMP JUMPDEST DUP1 ISZERO PUSH2 0xF76 JUMPI DUP1 PUSH1 0x1F LT PUSH2 0xF4B JUMPI PUSH2 0x100 DUP1 DUP4 SLOAD DIV MUL DUP4 MSTORE SWAP2 PUSH1 0x20 ADD SWAP2 PUSH2 0xF76 JUMP JUMPDEST DUP3 ADD SWAP2 SWAP1 PUSH1 0x0 MSTORE PUSH1 0x20 PUSH1 0x0 KECCAK256 SWAP1 JUMPDEST DUP2 SLOAD DUP2 MSTORE SWAP1 PUSH1 0x1 ADD SWAP1 PUSH1 0x20 ADD DUP1 DUP4 GT PUSH2 0xF59 JUMPI DUP3 SWAP1 SUB PUSH1 0x1F AND DUP3 ADD SWAP2 JUMPDEST POP POP POP POP POP SWAP1 POP PUSH2 0x1197 JUMP JUMPDEST PUSH1 0x1 PUSH1 0x3 DUP2 GT ISZERO PUSH2 0xF96 JUMPI PUSH2 0xF95 PUSH2 0x3D6B JUMP JUMPDEST JUMPDEST DUP4 PUSH1 0x3 DUP2 GT ISZERO PUSH2 0xFA9 JUMPI PUSH2 0xFA8 PUSH2 0x3D6B JUMP JUMPDEST JUMPDEST SUB PUSH2 0x1043 JUMPI PUSH1 0xE PUSH1 0x1 ADD DUP1 SLOAD PUSH2 0xFBE SWAP1 PUSH2 0x42C3 JUMP JUMPDEST DUP1 PUSH1 0x1F ADD PUSH1 0x20 DUP1 SWAP2 DIV MUL PUSH1 0x20 ADD PUSH1 0x40 MLOAD SWAP1 DUP2 ADD PUSH1 0x40 MSTORE DUP1 SWAP3 SWAP2 SWAP1 DUP2 DUP2 MSTORE PUSH1 0x20 ADD DUP3 DUP1 SLOAD PUSH2 0xFEA SWAP1 PUSH2 0x42C3 JUMP JUMPDEST DUP1 ISZERO PUSH2 0x1037 JUMPI DUP1 PUSH1 0x1F LT PUSH2 0x100C JUMPI PUSH2 0x100 DUP1 DUP4 SLOAD DIV MUL DUP4 MSTORE SWAP2 PUSH1 0x20 ADD SWAP2 PUSH2 0x1037 JUMP JUMPDEST DUP3 ADD SWAP2 SWAP1 PUSH1 0x0 MSTORE PUSH1 0x20 PUSH1 0x0 KECCAK256 SWAP1 JUMPDEST DUP2 SLOAD DUP2 MSTORE SWAP1 PUSH1 0x1 ADD SWAP1 PUSH1 0x20 ADD DUP1 DUP4 GT PUSH2 0x101A JUMPI DUP3 SWAP1 SUB PUSH1 0x1F AND DUP3 ADD SWAP2 JUMPDEST POP POP POP POP POP SWAP1 POP PUSH2 0x1196 JUMP JUMPDEST PUSH1 0x2 PUSH1 0x3 DUP2 GT ISZERO PUSH2 0x1057 JUMPI PUSH2 0x1056 PUSH2 0x3D6B JUMP JUMPDEST JUMPDEST DUP4 PUSH1 0x3 DUP2 GT ISZERO PUSH2 0x106A JUMPI PUSH2 0x1069 PUSH2 0x3D6B JUMP JUMPDEST JUMPDEST SUB PUSH2 0x1104 JUMPI PUSH1 0xE PUSH1 0x2 ADD DUP1 SLOAD PUSH2 0x107F SWAP1 PUSH2 0x42C3 JUMP JUMPDEST DUP1 PUSH1 0x1F ADD PUSH1 0x20 DUP1 SWAP2 DIV MUL PUSH1 0x20 ADD PUSH1 0x40 MLOAD SWAP1 DUP2 ADD PUSH1 0x40 MSTORE DUP1 SWAP3 SWAP2 SWAP1 DUP2 DUP2 MSTORE PUSH1 0x20 ADD DUP3 DUP1 SLOAD PUSH2 0x10AB SWAP1 PUSH2 0x42C3 JUMP JUMPDEST DUP1 ISZERO PUSH2 0x10F8 JUMPI DUP1 PUSH1 0x1F LT PUSH2 0x10CD JUMPI PUSH2 0x100 DUP1 DUP4 SLOAD DIV MUL DUP4 MSTORE SWAP2 PUSH1 0x20 ADD SWAP2 PUSH2 0x10F8 JUMP JUMPDEST DUP3 ADD SWAP2 SWAP1 PUSH1 0x0 MSTORE PUSH1 0x20 PUSH1 0x0 KECCAK256 SWAP1 JUMPDEST DUP2 SLOAD DUP2 MSTORE SWAP1 PUSH1 0x1 ADD SWAP1 PUSH1 0x20 ADD DUP1 DUP4 GT PUSH2 0x10DB JUMPI DUP3 SWAP1 SUB PUSH1 0x1F AND DUP3 ADD SWAP2 JUMPDEST POP POP POP POP POP SWAP1 POP PUSH2 0x1195 JUMP JUMPDEST PUSH1 0xE PUSH1 0x3 ADD DUP1 SLOAD PUSH2 0x1114 SWAP1 PUSH2 0x42C3 JUMP JUMPDEST DUP1 PUSH1 0x1F ADD PUSH1 0x20 DUP1 SWAP2 DIV MUL PUSH1 0x20 ADD PUSH1 0x40 MLOAD SWAP1 DUP2 ADD PUSH1 0x40 MSTORE DUP1 SWAP3 SWAP2 SWAP1 DUP2 DUP2 MSTORE PUSH1 0x20 ADD DUP3 DUP1 SLOAD PUSH2 0x1140 SWAP1 PUSH2 0x42C3 JUMP JUMPDEST DUP1 ISZERO PUSH2 0x118D JUMPI DUP1 PUSH1 0x1F LT PUSH2 0x1162 JUMPI PUSH2 0x100 DUP1 DUP4 SLOAD DIV MUL DUP4 MSTORE SWAP2 PUSH1 0x20 ADD SWAP2 PUSH2 0x118D JUMP JUMPDEST DUP3 ADD SWAP2 SWAP1 PUSH1 0x0 MSTORE PUSH1 0x20 PUSH1 0x0 KECCAK256 SWAP1 JUMPDEST DUP2 SLOAD DUP2 MSTORE SWAP1 PUSH1 0x1 ADD SWAP1 PUSH1 0x20 ADD DUP1 DUP4 GT PUSH2 0x1170 JUMPI DUP3 SWAP1 SUB PUSH1 0x1F AND DUP3 ADD SWAP2 JUMPDEST POP POP POP POP POP SWAP1 POP JUMPDEST JUMPDEST JUMPDEST PUSH2 0x11A1 DUP3 DUP3 PUSH2 0x27A7 JUMP JUMPDEST PUSH1 0x0 PUSH1 0x40 MLOAD DUP1 PUSH1 0x40 ADD PUSH1 0x40 MSTORE DUP1 DUP5 DUP2 MSTORE PUSH1 0x20 ADD DUP6 PUSH1 0x3 DUP2 GT ISZERO PUSH2 0x11C7 JUMPI PUSH2 0x11C6 PUSH2 0x3D6B JUMP JUMPDEST JUMPDEST DUP2 MSTORE POP SWAP1 POP PUSH1 0x13 PUSH1 0x0 CALLER PUSH20 0xFFFFFFFFFFFFFFFFFFFFFFFFFFFFFFFFFFFFFFFF AND PUSH20 0xFFFFFFFFFFFFFFFFFFFFFFFFFFFFFFFFFFFFFFFF AND DUP2 MSTORE PUSH1 0x20 ADD SWAP1 DUP2 MSTORE PUSH1 0x20 ADD PUSH1 0x0 KECCAK256 DUP4 SWAP1 DUP1 PUSH1 0x1 DUP2 SLOAD ADD DUP1 DUP3 SSTORE DUP1 SWAP2 POP POP PUSH1 0x1 SWAP1 SUB SWAP1 PUSH1 0x0 MSTORE PUSH1 0x20 PUSH1 0x0 KECCAK256 ADD PUSH1 0x0 SWAP1 SWAP2 SWAP1 SWAP2 SWAP1 SWAP2 POP SSTORE DUP1 PUSH1 0x17 PUSH1 0x0 DUP6 DUP2 MSTORE PUSH1 0x20 ADD SWAP1 DUP2 MSTORE PUSH1 0x20 ADD PUSH1 0x0 KECCAK256 PUSH1 0x0 DUP3 ADD MLOAD DUP2 PUSH1 0x0 ADD SSTORE PUSH1 0x20 DUP3 ADD MLOAD DUP2 PUSH1 0x1 ADD PUSH1 0x0 PUSH2 0x100 EXP DUP2 SLOAD DUP2 PUSH1 0xFF MUL NOT AND SWAP1 DUP4 PUSH1 0x3 DUP2 GT ISZERO PUSH2 0x127B JUMPI PUSH2 0x127A PUSH2 0x3D6B JUMP JUMPDEST JUMPDEST MUL OR SWAP1 SSTORE POP SWAP1 POP POP TIMESTAMP PUSH1 0x16 PUSH1 0x0 CALLER PUSH20 0xFFFFFFFFFFFFFFFFFFFFFFFFFFFFFFFFFFFFFFFF AND PUSH20 0xFFFFFFFFFFFFFFFFFFFFFFFFFFFFFFFFFFFFFFFF AND DUP2 MSTORE PUSH1 0x20 ADD SWAP1 DUP2 MSTORE PUSH1 0x20 ADD PUSH1 0x0 KECCAK256 DUP2 SWAP1 SSTORE POP PUSH1 0x0 PUSH1 0x14 DUP1 SLOAD SWAP1 POP SUB PUSH2 0x133C JUMPI PUSH1 0x14 CALLER SWAP1 DUP1 PUSH1 0x1 DUP2 SLOAD ADD DUP1 DUP3 SSTORE DUP1 SWAP2 POP POP PUSH1 0x1 SWAP1 SUB SWAP1 PUSH1 0x0 MSTORE PUSH1 0x20 PUSH1 0x0 KECCAK256 ADD PUSH1 0x0 SWAP1 SWAP2 SWAP1 SWAP2 SWAP1 SWAP2 PUSH2 0x100 EXP DUP2 SLOAD DUP2 PUSH20 0xFFFFFFFFFFFFFFFFFFFFFFFFFFFFFFFFFFFFFFFF MUL NOT AND SWAP1 DUP4 PUSH20 0xFFFFFFFFFFFFFFFFFFFFFFFFFFFFFFFFFFFFFFFF AND MUL OR SWAP1 SSTORE POP PUSH2 0x1446 JUMP JUMPDEST PUSH1 0x0 DUP1 JUMPDEST PUSH1 0x14 DUP1 SLOAD SWAP1 POP DUP2 LT ISZERO PUSH2 0x13DA JUMPI CALLER PUSH20 0xFFFFFFFFFFFFFFFFFFFFFFFFFFFFFFFFFFFFFFFF AND PUSH1 0x14 DUP3 DUP2 SLOAD DUP2 LT PUSH2 0x1378 JUMPI PUSH2 0x1377 PUSH2 0x46A1 JUMP JUMPDEST JUMPDEST SWAP1 PUSH1 0x0 MSTORE PUSH1 0x20 PUSH1 0x0 KECCAK256 ADD PUSH1 0x0 SWAP1 SLOAD SWAP1 PUSH2 0x100 EXP SWAP1 DIV PUSH20 0xFFFFFFFFFFFFFFFFFFFFFFFFFFFFFFFFFFFFFFFF AND PUSH20 0xFFFFFFFFFFFFFFFFFFFFFFFFFFFFFFFFFFFFFFFF AND SUB PUSH2 0x13C7 JUMPI PUSH1 0x1 SWAP2 POP PUSH2 0x13DA JUMP JUMPDEST DUP1 DUP1 PUSH2 0x13D2 SWAP1 PUSH2 0x46D0 JUMP JUMPDEST SWAP2 POP POP PUSH2 0x1340 JUMP JUMPDEST POP DUP1 PUSH2 0x1444 JUMPI PUSH1 0x14 CALLER SWAP1 DUP1 PUSH1 0x1 DUP2 SLOAD ADD DUP1 DUP3 SSTORE DUP1 SWAP2 POP POP PUSH1 0x1 SWAP1 SUB SWAP1 PUSH1 0x0 MSTORE PUSH1 0x20 PUSH1 0x0 KECCAK256 ADD PUSH1 0x0 SWAP1 SWAP2 SWAP1 SWAP2 SWAP1 SWAP2 PUSH2 0x100 EXP DUP2 SLOAD DUP2 PUSH20 0xFFFFFFFFFFFFFFFFFFFFFFFFFFFFFFFFFFFFFFFF MUL NOT AND SWAP1 DUP4 PUSH20 0xFFFFFFFFFFFFFFFFFFFFFFFFFFFFFFFFFFFFFFFF AND MUL OR SWAP1 SSTORE POP JUMPDEST POP JUMPDEST DUP3 PUSH32 0x1F8E224DF372B1305000C3F246EFD7ADCE7C93D99EF7F8369A6F61A441F47DFA DUP6 PUSH1 0x3 DUP2 GT ISZERO PUSH2 0x147B JUMPI PUSH2 0x147A PUSH2 0x3D6B JUMP JUMPDEST JUMPDEST CALLER TIMESTAMP PUSH1 0x40 MLOAD PUSH2 0x148C SWAP4 SWAP3 SWAP2 SWAP1 PUSH2 0x4718 JUMP JUMPDEST PUSH1 0x40 MLOAD DUP1 SWAP2 SUB SWAP1 LOG2 POP POP POP POP POP POP JUMP JUMPDEST PUSH1 0x60 PUSH1 0x0 PUSH2 0x14A9 DUP4 PUSH2 0x1B97 JUMP JUMPDEST SWAP1 POP PUSH1 0x0 DUP2 PUSH8 0xFFFFFFFFFFFFFFFF DUP2 GT ISZERO PUSH2 0x14C7 JUMPI PUSH2 0x14C6 PUSH2 0x3F7C JUMP JUMPDEST JUMPDEST PUSH1 0x40 MLOAD SWAP1 DUP1 DUP3 MSTORE DUP1 PUSH1 0x20 MUL PUSH1 0x20 ADD DUP3 ADD PUSH1 0x40 MSTORE DUP1 ISZERO PUSH2 0x14F5 JUMPI DUP2 PUSH1 0x20 ADD PUSH1 0x20 DUP3 MUL DUP1 CALLDATASIZE DUP4 CALLDATACOPY DUP1 DUP3 ADD SWAP2 POP POP SWAP1 POP JUMPDEST POP SWAP1 POP PUSH1 0x0 DUP1 PUSH1 0x1 SWAP1 POP JUMPDEST PUSH2 0x150A PUSH1 0x8 PUSH2 0x257C JUMP JUMPDEST DUP2 GT PUSH2 0x159F JUMPI PUSH2 0x1519 DUP2 PUSH2 0x284B JUMP JUMPDEST DUP1 ISZERO PUSH2 0x1558 JUMPI POP DUP6 PUSH20 0xFFFFFFFFFFFFFFFFFFFFFFFFFFFFFFFFFFFFFFFF AND PUSH2 0x1540 DUP3 PUSH2 0x1A9C JUMP JUMPDEST PUSH20 0xFFFFFFFFFFFFFFFFFFFFFFFFFFFFFFFFFFFFFFFF AND EQ JUMPDEST ISZERO PUSH2 0x158C JUMPI DUP1 DUP4 DUP4 DUP2 MLOAD DUP2 LT PUSH2 0x1571 JUMPI PUSH2 0x1570 PUSH2 0x46A1 JUMP JUMPDEST JUMPDEST PUSH1 0x20 MUL PUSH1 0x20 ADD ADD DUP2 DUP2 MSTORE POP POP DUP2 DUP1 PUSH2 0x1588 SWAP1 PUSH2 0x46D0 JUMP JUMPDEST SWAP3 POP POP JUMPDEST DUP1 DUP1 PUSH2 0x1597 SWAP1 PUSH2 0x46D0 JUMP JUMPDEST SWAP2 POP POP PUSH2 0x1500 JUMP JUMPDEST POP DUP2 SWAP4 POP POP POP POP SWAP2 SWAP1 POP JUMP JUMPDEST PUSH1 0xD SLOAD DUP2 JUMP JUMPDEST PUSH1 0x0 PUSH2 0x15BB PUSH2 0x23DC JUMP JUMPDEST PUSH1 0xC PUSH1 0x0 SWAP1 SLOAD SWAP1 PUSH2 0x100 EXP SWAP1 DIV PUSH20 0xFFFFFFFFFFFFFFFFFFFFFFFFFFFFFFFFFFFFFFFF AND SWAP1 POP SWAP1 JUMP JUMPDEST PUSH2 0x15F4 PUSH2 0x15EE PUSH2 0x24A5 JUMP JUMPDEST DUP3 PUSH2 0x288C JUMP JUMPDEST PUSH2 0x1633 JUMPI PUSH1 0x40 MLOAD PUSH32 0x8C379A000000000000000000000000000000000000000000000000000000000 DUP2 MSTORE PUSH1 0x4 ADD PUSH2 0x162A SWAP1 PUSH2 0x47C1 JUMP JUMPDEST PUSH1 0x40 MLOAD DUP1 SWAP2 SUB SWAP1 REVERT JUMPDEST PUSH2 0x163E DUP4 DUP4 DUP4 PUSH2 0x2921 JUMP JUMPDEST POP POP POP JUMP JUMPDEST PUSH2 0x164B PUSH2 0x23DC JUMP JUMPDEST PUSH1 0x0 SELFBALANCE SWAP1 POP CALLER PUSH20 0xFFFFFFFFFFFFFFFFFFFFFFFFFFFFFFFFFFFFFFFF AND PUSH2 0x8FC DUP3 SWAP1 DUP2 ISZERO MUL SWAP1 PUSH1 0x40 MLOAD PUSH1 0x0 PUSH1 0x40 MLOAD DUP1 DUP4 SUB DUP2 DUP6 DUP9 DUP9 CALL SWAP4 POP POP POP POP ISZERO DUP1 ISZERO PUSH2 0x1696 JUMPI RETURNDATASIZE PUSH1 0x0 DUP1 RETURNDATACOPY RETURNDATASIZE PUSH1 0x0 REVERT JUMPDEST POP POP JUMP JUMPDEST PUSH2 0x16B5 DUP4 DUP4 DUP4 PUSH1 0x40 MLOAD DUP1 PUSH1 0x20 ADD PUSH1 0x40 MSTORE DUP1 PUSH1 0x0 DUP2 MSTORE POP PUSH2 0x2199 JUMP JUMPDEST POP POP POP JUMP JUMPDEST PUSH1 0x0 DUP1 PUSH2 0x16C6 CALLER PUSH2 0x149C JUMP JUMPDEST SWAP1 POP PUSH1 0x0 DUP1 JUMPDEST DUP3 MLOAD DUP2 LT ISZERO PUSH2 0x18DA JUMPI PUSH1 0x0 PUSH1 0x3 DUP2 GT ISZERO PUSH2 0x16E9 JUMPI PUSH2 0x16E8 PUSH2 0x3D6B JUMP JUMPDEST JUMPDEST PUSH1 0x17 PUSH1 0x0 DUP6 DUP5 DUP2 MLOAD DUP2 LT PUSH2 0x1700 JUMPI PUSH2 0x16FF PUSH2 0x46A1 JUMP JUMPDEST JUMPDEST PUSH1 0x20 MUL PUSH1 0x20 ADD ADD MLOAD DUP2 MSTORE PUSH1 0x20 ADD SWAP1 DUP2 MSTORE PUSH1 0x20 ADD PUSH1 0x0 KECCAK256 PUSH1 0x1 ADD PUSH1 0x0 SWAP1 SLOAD SWAP1 PUSH2 0x100 EXP SWAP1 DIV PUSH1 0xFF AND PUSH1 0x3 DUP2 GT ISZERO PUSH2 0x1739 JUMPI PUSH2 0x1738 PUSH2 0x3D6B JUMP JUMPDEST JUMPDEST SUB PUSH2 0x1752 JUMPI PUSH1 0x1 DUP3 PUSH2 0x174B SWAP2 SWAP1 PUSH2 0x466D JUMP JUMPDEST SWAP2 POP PUSH2 0x18C7 JUMP JUMPDEST PUSH1 0x1 PUSH1 0x3 DUP2 GT ISZERO PUSH2 0x1766 JUMPI PUSH2 0x1765 PUSH2 0x3D6B JUMP JUMPDEST JUMPDEST PUSH1 0x17 PUSH1 0x0 DUP6 DUP5 DUP2 MLOAD DUP2 LT PUSH2 0x177D JUMPI PUSH2 0x177C PUSH2 0x46A1 JUMP JUMPDEST JUMPDEST PUSH1 0x20 MUL PUSH1 0x20 ADD ADD MLOAD DUP2 MSTORE PUSH1 0x20 ADD SWAP1 DUP2 MSTORE PUSH1 0x20 ADD PUSH1 0x0 KECCAK256 PUSH1 0x1 ADD PUSH1 0x0 SWAP1 SLOAD SWAP1 PUSH2 0x100 EXP SWAP1 DIV PUSH1 0xFF AND PUSH1 0x3 DUP2 GT ISZERO PUSH2 0x17B6 JUMPI PUSH2 0x17B5 PUSH2 0x3D6B JUMP JUMPDEST JUMPDEST SUB PUSH2 0x17CF JUMPI PUSH1 0x5 DUP3 PUSH2 0x17C8 SWAP2 SWAP1 PUSH2 0x466D JUMP JUMPDEST SWAP2 POP PUSH2 0x18C6 JUMP JUMPDEST PUSH1 0x2 PUSH1 0x3 DUP2 GT ISZERO PUSH2 0x17E3 JUMPI PUSH2 0x17E2 PUSH2 0x3D6B JUMP JUMPDEST JUMPDEST PUSH1 0x17 PUSH1 0x0 DUP6 DUP5 DUP2 MLOAD DUP2 LT PUSH2 0x17FA JUMPI PUSH2 0x17F9 PUSH2 0x46A1 JUMP JUMPDEST JUMPDEST PUSH1 0x20 MUL PUSH1 0x20 ADD ADD MLOAD DUP2 MSTORE PUSH1 0x20 ADD SWAP1 DUP2 MSTORE PUSH1 0x20 ADD PUSH1 0x0 KECCAK256 PUSH1 0x1 ADD PUSH1 0x0 SWAP1 SLOAD SWAP1 PUSH2 0x100 EXP SWAP1 DIV PUSH1 0xFF AND PUSH1 0x3 DUP2 GT ISZERO PUSH2 0x1833 JUMPI PUSH2 0x1832 PUSH2 0x3D6B JUMP JUMPDEST JUMPDEST SUB PUSH2 0x184C JUMPI PUSH1 0xF DUP3 PUSH2 0x1845 SWAP2 SWAP1 PUSH2 0x466D JUMP JUMPDEST SWAP2 POP PUSH2 0x18C5 JUMP JUMPDEST PUSH1 0x3 DUP1 DUP2 GT ISZERO PUSH2 0x185F JUMPI PUSH2 0x185E PUSH2 0x3D6B JUMP JUMPDEST JUMPDEST PUSH1 0x17 PUSH1 0x0 DUP6 DUP5 DUP2 MLOAD DUP2 LT PUSH2 0x1876 JUMPI PUSH2 0x1875 PUSH2 0x46A1 JUMP JUMPDEST JUMPDEST PUSH1 0x20 MUL PUSH1 0x20 ADD ADD MLOAD DUP2 MSTORE PUSH1 0x20 ADD SWAP1 DUP2 MSTORE PUSH1 0x20 ADD PUSH1 0x0 KECCAK256 PUSH1 0x1 ADD PUSH1 0x0 SWAP1 SLOAD SWAP1 PUSH2 0x100 EXP SWAP1 DIV PUSH1 0xFF AND PUSH1 0x3 DUP2 GT ISZERO PUSH2 0x18AF JUMPI PUSH2 0x18AE PUSH2 0x3D6B JUMP JUMPDEST JUMPDEST SUB PUSH2 0x18C4 JUMPI PUSH1 0x32 DUP3 PUSH2 0x18C1 SWAP2 SWAP1 PUSH2 0x466D JUMP JUMPDEST SWAP2 POP JUMPDEST JUMPDEST JUMPDEST JUMPDEST DUP1 DUP1 PUSH2 0x18D2 SWAP1 PUSH2 0x46D0 JUMP JUMPDEST SWAP2 POP POP PUSH2 0x16CC JUMP JUMPDEST POP DUP1 SWAP3 POP POP POP SWAP2 SWAP1 POP JUMP JUMPDEST PUSH2 0x18ED PUSH2 0x23DC JUMP JUMPDEST PUSH1 0x0 DUP3 GT PUSH2 0x1930 JUMPI PUSH1 0x40 MLOAD PUSH32 0x8C379A000000000000000000000000000000000000000000000000000000000 DUP2 MSTORE PUSH1 0x4 ADD PUSH2 0x1927 SWAP1 PUSH2 0x4853 JUMP JUMPDEST PUSH1 0x40 MLOAD DUP1 SWAP2 SUB SWAP1 REVERT JUMPDEST PUSH1 0x14 DUP1 SLOAD SWAP1 POP DUP3 GT ISZERO PUSH2 0x1978 JUMPI PUSH1 0x40 MLOAD PUSH32 0x8C379A000000000000000000000000000000000000000000000000000000000 DUP2 MSTORE PUSH1 0x4 ADD PUSH2 0x196F SWAP1 PUSH2 0x48E5 JUMP JUMPDEST PUSH1 0x40 MLOAD DUP1 SWAP2 SUB SWAP1 REVERT JUMPDEST PUSH1 0x0 DUP2 GT DUP1 ISZERO PUSH2 0x1989 JUMPI POP PUSH1 0x64 DUP2 GT ISZERO JUMPDEST PUSH2 0x19C8 JUMPI PUSH1 0x40 MLOAD PUSH32 0x8C379A000000000000000000000000000000000000000000000000000000000 DUP2 MSTORE PUSH1 0x4 ADD PUSH2 0x19BF SWAP1 PUSH2 0x4977 JUMP JUMPDEST PUSH1 0x40 MLOAD DUP1 SWAP2 SUB SWAP1 REVERT JUMPDEST PUSH1 0x0 PUSH2 0x19D3 DUP4 PUSH2 0x1E8E JUMP JUMPDEST SWAP1 POP PUSH1 0x0 PUSH1 0x64 DUP4 SELFBALANCE PUSH2 0x19E5 SWAP2 SWAP1 PUSH2 0x4997 JUMP JUMPDEST PUSH2 0x19EF SWAP2 SWAP1 PUSH2 0x49D9 JUMP JUMPDEST SWAP1 POP PUSH1 0x0 JUMPDEST DUP5 DUP2 LT ISZERO PUSH2 0x1A7B JUMPI DUP3 DUP2 DUP2 MLOAD DUP2 LT PUSH2 0x1A0F JUMPI PUSH2 0x1A0E PUSH2 0x46A1 JUMP JUMPDEST JUMPDEST PUSH1 0x20 MUL PUSH1 0x20 ADD ADD MLOAD PUSH20 0xFFFFFFFFFFFFFFFFFFFFFFFFFFFFFFFFFFFFFFFF AND PUSH2 0x8FC DUP7 DUP5 PUSH2 0x1A3C SWAP2 SWAP1 PUSH2 0x49D9 JUMP JUMPDEST SWAP1 DUP2 ISZERO MUL SWAP1 PUSH1 0x40 MLOAD PUSH1 0x0 PUSH1 0x40 MLOAD DUP1 DUP4 SUB DUP2 DUP6 DUP9 DUP9 CALL SWAP4 POP POP POP POP ISZERO DUP1 ISZERO PUSH2 0x1A67 JUMPI RETURNDATASIZE PUSH1 0x0 DUP1 RETURNDATACOPY RETURNDATASIZE PUSH1 0x0 REVERT JUMPDEST POP DUP1 DUP1 PUSH2 0x1A73 SWAP1 PUSH2 0x46D0 JUMP JUMPDEST SWAP2 POP POP PUSH2 0x19F4 JUMP JUMPDEST POP PUSH2 0x1A84 PUSH2 0x1643 JUMP JUMPDEST POP POP POP POP JUMP JUMPDEST PUSH1 0x60 PUSH2 0x1A95 CALLER PUSH2 0x149C JUMP JUMPDEST SWAP1 POP SWAP2 SWAP1 POP JUMP JUMPDEST PUSH1 0x0 DUP1 PUSH2 0x1AA8 DUP4 PUSH2 0x2C1A JUMP JUMPDEST SWAP1 POP PUSH1 0x0 PUSH20 0xFFFFFFFFFFFFFFFFFFFFFFFFFFFFFFFFFFFFFFFF AND DUP2 PUSH20 0xFFFFFFFFFFFFFFFFFFFFFFFFFFFFFFFFFFFFFFFF AND SUB PUSH2 0x1B19 JUMPI PUSH1 0x40 MLOAD PUSH32 0x8C379A000000000000000000000000000000000000000000000000000000000 DUP2 MSTORE PUSH1 0x4 ADD PUSH2 0x1B10 SWAP1 PUSH2 0x4A56 JUMP JUMPDEST PUSH1 0x40 MLOAD DUP1 SWAP2 SUB SWAP1 REVERT JUMPDEST DUP1 SWAP2 POP POP SWAP2 SWAP1 POP JUMP JUMPDEST PUSH1 0x0 PUSH2 0x1B2D DUP3 PUSH2 0x284B JUMP JUMPDEST PUSH2 0x1B6C JUMPI PUSH1 0x40 MLOAD PUSH32 0x8C379A000000000000000000000000000000000000000000000000000000000 DUP2 MSTORE PUSH1 0x4 ADD PUSH2 0x1B63 SWAP1 PUSH2 0x4AC2 JUMP JUMPDEST PUSH1 0x40 MLOAD DUP1 SWAP2 SUB SWAP1 REVERT JUMPDEST PUSH1 0x17 PUSH1 0x0 DUP4 DUP2 MSTORE PUSH1 0x20 ADD SWAP1 DUP2 MSTORE PUSH1 0x20 ADD PUSH1 0x0 KECCAK256 PUSH1 0x1 ADD PUSH1 0x0 SWAP1 SLOAD SWAP1 PUSH2 0x100 EXP SWAP1 DIV PUSH1 0xFF AND SWAP1 POP SWAP2 SWAP1 POP JUMP JUMPDEST PUSH1 0x0 DUP1 PUSH20 0xFFFFFFFFFFFFFFFFFFFFFFFFFFFFFFFFFFFFFFFF AND DUP3 PUSH20 0xFFFFFFFFFFFFFFFFFFFFFFFFFFFFFFFFFFFFFFFF AND SUB PUSH2 0x1C07 JUMPI PUSH1 0x40 MLOAD PUSH32 0x8C379A000000000000000000000000000000000000000000000000000000000 DUP2 MSTORE PUSH1 0x4 ADD PUSH2 0x1BFE SWAP1 PUSH2 0x4B54 JUMP JUMPDEST PUSH1 0x40 MLOAD DUP1 SWAP2 SUB SWAP1 REVERT JUMPDEST PUSH1 0x3 PUSH1 0x0 DUP4 PUSH20 0xFFFFFFFFFFFFFFFFFFFFFFFFFFFFFFFFFFFFFFFF AND PUSH20 0xFFFFFFFFFFFFFFFFFFFFFFFFFFFFFFFFFFFFFFFF AND DUP2 MSTORE PUSH1 0x20 ADD SWAP1 DUP2 MSTORE PUSH1 0x20 ADD PUSH1 0x0 KECCAK256 SLOAD SWAP1 POP SWAP2 SWAP1 POP JUMP JUMPDEST PUSH2 0x1C56 PUSH2 0x23DC JUMP JUMPDEST PUSH2 0x1C60 PUSH1 0x0 PUSH2 0x2C57 JUMP JUMPDEST JUMP JUMPDEST PUSH2 0x1C6A PUSH2 0x23DC JUMP JUMPDEST PUSH1 0x1 PUSH1 0x15 PUSH1 0x0 DUP4 PUSH20 0xFFFFFFFFFFFFFFFFFFFFFFFFFFFFFFFFFFFFFFFF AND PUSH20 0xFFFFFFFFFFFFFFFFFFFFFFFFFFFFFFFFFFFFFFFF AND DUP2 MSTORE PUSH1 0x20 ADD SWAP1 DUP2 MSTORE PUSH1 0x20 ADD PUSH1 0x0 KECCAK256 PUSH1 0x0 PUSH2 0x100 EXP DUP2 SLOAD DUP2 PUSH1 0xFF MUL NOT AND SWAP1 DUP4 ISZERO ISZERO MUL OR SWAP1 SSTORE POP POP JUMP JUMPDEST PUSH1 0x0 PUSH1 0x7 PUSH1 0x0 SWAP1 SLOAD SWAP1 PUSH2 0x100 EXP SWAP1 DIV PUSH20 0xFFFFFFFFFFFFFFFFFFFFFFFFFFFFFFFFFFFFFFFF AND SWAP1 POP SWAP1 JUMP JUMPDEST CALLER PUSH20 0xFFFFFFFFFFFFFFFFFFFFFFFFFFFFFFFFFFFFFFFF AND PUSH2 0x1D0F DUP3 PUSH2 0x1A9C JUMP JUMPDEST PUSH20 0xFFFFFFFFFFFFFFFFFFFFFFFFFFFFFFFFFFFFFFFF AND EQ PUSH2 0x1D65 JUMPI PUSH1 0x40 MLOAD PUSH32 0x8C379A000000000000000000000000000000000000000000000000000000000 DUP2 MSTORE PUSH1 0x4 ADD PUSH2 0x1D5C SWAP1 PUSH2 0x4BE6 JUMP JUMPDEST PUSH1 0x40 MLOAD DUP1 SWAP2 SUB SWAP1 REVERT JUMPDEST PUSH2 0x1D70 CALLER DUP4 DUP4 PUSH2 0x169A JUMP JUMPDEST POP POP JUMP JUMPDEST PUSH1 0x60 PUSH1 0x1 DUP1 SLOAD PUSH2 0x1D83 SWAP1 PUSH2 0x42C3 JUMP JUMPDEST DUP1 PUSH1 0x1F ADD PUSH1 0x20 DUP1 SWAP2 DIV MUL PUSH1 0x20 ADD PUSH1 0x40 MLOAD SWAP1 DUP2 ADD PUSH1 0x40 MSTORE DUP1 SWAP3 SWAP2 SWAP1 DUP2 DUP2 MSTORE PUSH1 0x20 ADD DUP3 DUP1 SLOAD PUSH2 0x1DAF SWAP1 PUSH2 0x42C3 JUMP JUMPDEST DUP1 ISZERO PUSH2 0x1DFC JUMPI DUP1 PUSH1 0x1F LT PUSH2 0x1DD1 JUMPI PUSH2 0x100 DUP1 DUP4 SLOAD DIV MUL DUP4 MSTORE SWAP2 PUSH1 0x20 ADD SWAP2 PUSH2 0x1DFC JUMP JUMPDEST DUP3 ADD SWAP2 SWAP1 PUSH1 0x0 MSTORE PUSH1 0x20 PUSH1 0x0 KECCAK256 SWAP1 JUMPDEST DUP2 SLOAD DUP2 MSTORE SWAP1 PUSH1 0x1 ADD SWAP1 PUSH1 0x20 ADD DUP1 DUP4 GT PUSH2 0x1DDF JUMPI DUP3 SWAP1 SUB PUSH1 0x1F AND DUP3 ADD SWAP2 JUMPDEST POP POP POP POP POP SWAP1 POP SWAP1 JUMP JUMPDEST PUSH1 0x0 PUSH1 0x15 PUSH1 0x0 CALLER PUSH20 0xFFFFFFFFFFFFFFFFFFFFFFFFFFFFFFFFFFFFFFFF AND PUSH20 0xFFFFFFFFFFFFFFFFFFFFFFFFFFFFFFFFFFFFFFFF AND DUP2 MSTORE PUSH1 0x20 ADD SWAP1 DUP2 MSTORE PUSH1 0x20 ADD PUSH1 0x0 KECCAK256 PUSH1 0x0 SWAP1 SLOAD SWAP1 PUSH2 0x100 EXP SWAP1 DIV PUSH1 0xFF AND ISZERO PUSH2 0x1E63 JUMPI PUSH1 0x0 SWAP1 POP PUSH2 0x1E69 JUMP JUMPDEST PUSH1 0xB SLOAD SWAP1 POP JUMPDEST SWAP1 JUMP JUMPDEST PUSH1 0xA SLOAD DUP2 JUMP JUMPDEST PUSH1 0xB SLOAD DUP2 JUMP JUMPDEST PUSH2 0x1E8A PUSH2 0x1E83 PUSH2 0x24A5 JUMP JUMPDEST DUP4 DUP4 PUSH2 0x2D1D JUMP JUMPDEST POP POP JUMP JUMPDEST PUSH1 0x60 PUSH1 0x0 DUP3 GT PUSH2 0x1ED3 JUMPI PUSH1 0x40 MLOAD PUSH32 0x8C379A000000000000000000000000000000000000000000000000000000000 DUP2 MSTORE PUSH1 0x4 ADD PUSH2 0x1ECA SWAP1 PUSH2 0x4C52 JUMP JUMPDEST PUSH1 0x40 MLOAD DUP1 SWAP2 SUB SWAP1 REVERT JUMPDEST PUSH1 0x14 DUP1 SLOAD SWAP1 POP DUP3 GT ISZERO PUSH2 0x1F1B JUMPI PUSH1 0x40 MLOAD PUSH32 0x8C379A000000000000000000000000000000000000000000000000000000000 DUP2 MSTORE PUSH1 0x4 ADD PUSH2 0x1F12 SWAP1 PUSH2 0x4CE4 JUMP JUMPDEST PUSH1 0x40 MLOAD DUP1 SWAP2 SUB SWAP1 REVERT JUMPDEST PUSH1 0x0 DUP3 PUSH8 0xFFFFFFFFFFFFFFFF DUP2 GT ISZERO PUSH2 0x1F37 JUMPI PUSH2 0x1F36 PUSH2 0x3F7C JUMP JUMPDEST JUMPDEST PUSH1 0x40 MLOAD SWAP1 DUP1 DUP3 MSTORE DUP1 PUSH1 0x20 MUL PUSH1 0x20 ADD DUP3 ADD PUSH1 0x40 MSTORE DUP1 ISZERO PUSH2 0x1F65 JUMPI DUP2 PUSH1 0x20 ADD PUSH1 0x20 DUP3 MUL DUP1 CALLDATASIZE DUP4 CALLDATACOPY DUP1 DUP3 ADD SWAP2 POP POP SWAP1 POP JUMPDEST POP SWAP1 POP PUSH1 0x0 PUSH2 0x1F72 PUSH2 0x2E89 JUMP JUMPDEST SWAP1 POP PUSH1 0x0 JUMPDEST DUP5 DUP2 LT ISZERO PUSH2 0x1FFA JUMPI DUP2 DUP2 DUP2 MLOAD DUP2 LT PUSH2 0x1F92 JUMPI PUSH2 0x1F91 PUSH2 0x46A1 JUMP JUMPDEST JUMPDEST PUSH1 0x20 MUL PUSH1 0x20 ADD ADD MLOAD DUP4 DUP3 DUP2 MLOAD DUP2 LT PUSH2 0x1FAD JUMPI PUSH2 0x1FAC PUSH2 0x46A1 JUMP JUMPDEST JUMPDEST PUSH1 0x20 MUL PUSH1 0x20 ADD ADD SWAP1 PUSH20 0xFFFFFFFFFFFFFFFFFFFFFFFFFFFFFFFFFFFFFFFF AND SWAP1 DUP2 PUSH20 0xFFFFFFFFFFFFFFFFFFFFFFFFFFFFFFFFFFFFFFFF AND DUP2 MSTORE POP POP DUP1 DUP1 PUSH2 0x1FF2 SWAP1 PUSH2 0x46D0 JUMP JUMPDEST SWAP2 POP POP PUSH2 0x1F77 JUMP JUMPDEST POP DUP2 SWAP3 POP POP POP SWAP2 SWAP1 POP JUMP JUMPDEST PUSH1 0x17 PUSH1 0x20 MSTORE DUP1 PUSH1 0x0 MSTORE PUSH1 0x40 PUSH1 0x0 KECCAK256 PUSH1 0x0 SWAP2 POP SWAP1 POP DUP1 PUSH1 0x0 ADD SLOAD SWAP1 DUP1 PUSH1 0x1 ADD PUSH1 0x0 SWAP1 SLOAD SWAP1 PUSH2 0x100 EXP SWAP1 DIV PUSH1 0xFF AND SWAP1 POP DUP3 JUMP JUMPDEST PUSH2 0x203E PUSH2 0x23DC JUMP JUMPDEST PUSH1 0x0 DUP2 SUB PUSH2 0x205E JUMPI DUP2 PUSH1 0xE PUSH1 0x0 ADD SWAP1 DUP2 PUSH2 0x2058 SWAP2 SWAP1 PUSH2 0x4EB0 JUMP JUMPDEST POP PUSH2 0x20BD JUMP JUMPDEST PUSH1 0x1 DUP2 SUB PUSH2 0x207E JUMPI DUP2 PUSH1 0xE PUSH1 0x1 ADD SWAP1 DUP2 PUSH2 0x2078 SWAP2 SWAP1 PUSH2 0x4EB0 JUMP JUMPDEST POP PUSH2 0x20BC JUMP JUMPDEST PUSH1 0x2 DUP2 SUB PUSH2 0x209E JUMPI DUP2 PUSH1 0xE PUSH1 0x2 ADD SWAP1 DUP2 PUSH2 0x2098 SWAP2 SWAP1 PUSH2 0x4EB0 JUMP JUMPDEST POP PUSH2 0x20BB JUMP JUMPDEST PUSH1 0x3 DUP2 SUB PUSH2 0x20BA JUMPI DUP2 PUSH1 0xE PUSH1 0x3 ADD SWAP1 DUP2 PUSH2 0x20B8 SWAP2 SWAP1 PUSH2 0x4EB0 JUMP JUMPDEST POP JUMPDEST JUMPDEST JUMPDEST JUMPDEST POP POP JUMP JUMPDEST PUSH1 0x9 DUP1 SLOAD PUSH2 0x20CE SWAP1 PUSH2 0x42C3 JUMP JUMPDEST DUP1 PUSH1 0x1F ADD PUSH1 0x20 DUP1 SWAP2 DIV MUL PUSH1 0x20 ADD PUSH1 0x40 MLOAD SWAP1 DUP2 ADD PUSH1 0x40 MSTORE DUP1 SWAP3 SWAP2 SWAP1 DUP2 DUP2 MSTORE PUSH1 0x20 ADD DUP3 DUP1 SLOAD PUSH2 0x20FA SWAP1 PUSH2 0x42C3 JUMP JUMPDEST DUP1 ISZERO PUSH2 0x2147 JUMPI DUP1 PUSH1 0x1F LT PUSH2 0x211C JUMPI PUSH2 0x100 DUP1 DUP4 SLOAD DIV MUL DUP4 MSTORE SWAP2 PUSH1 0x20 ADD SWAP2 PUSH2 0x2147 JUMP JUMPDEST DUP3 ADD SWAP2 SWAP1 PUSH1 0x0 MSTORE PUSH1 0x20 PUSH1 0x0 KECCAK256 SWAP1 JUMPDEST DUP2 SLOAD DUP2 MSTORE SWAP1 PUSH1 0x1 ADD SWAP1 PUSH1 0x20 ADD DUP1 DUP4 GT PUSH2 0x212A JUMPI DUP3 SWAP1 SUB PUSH1 0x1F AND DUP3 ADD SWAP2 JUMPDEST POP POP POP POP POP DUP2 JUMP JUMPDEST PUSH2 0x2157 PUSH2 0x23DC JUMP JUMPDEST PUSH1 0x0 PUSH1 0x12 PUSH1 0x0 PUSH2 0x100 EXP DUP2 SLOAD DUP2 PUSH1 0xFF MUL NOT AND SWAP1 DUP4 ISZERO ISZERO MUL OR SWAP1 SSTORE POP JUMP JUMPDEST PUSH2 0x217C PUSH2 0x23DC JUMP JUMPDEST DUP1 PUSH1 0x12 PUSH1 0x0 PUSH2 0x100 EXP DUP2 SLOAD DUP2 PUSH1 0xFF MUL NOT AND SWAP1 DUP4 ISZERO ISZERO MUL OR SWAP1 SSTORE POP POP JUMP JUMPDEST PUSH2 0x21AA PUSH2 0x21A4 PUSH2 0x24A5 JUMP JUMPDEST DUP4 PUSH2 0x288C JUMP JUMPDEST PUSH2 0x21E9 JUMPI PUSH1 0x40 MLOAD PUSH32 0x8C379A000000000000000000000000000000000000000000000000000000000 DUP2 MSTORE PUSH1 0x4 ADD PUSH2 0x21E0 SWAP1 PUSH2 0x47C1 JUMP JUMPDEST PUSH1 0x40 MLOAD DUP1 SWAP2 SUB SWAP1 REVERT JUMPDEST PUSH2 0x21F5 DUP5 DUP5 DUP5 DUP5 PUSH2 0x31E5 JUMP JUMPDEST POP POP POP POP JUMP JUMPDEST PUSH1 0x16 PUSH1 0x20 MSTORE DUP1 PUSH1 0x0 MSTORE PUSH1 0x40 PUSH1 0x0 KECCAK256 PUSH1 0x0 SWAP2 POP SWAP1 POP SLOAD DUP2 JUMP JUMPDEST PUSH1 0x60 PUSH2 0x221E DUP3 PUSH2 0x3241 JUMP JUMPDEST SWAP1 POP SWAP2 SWAP1 POP JUMP JUMPDEST PUSH1 0x0 PUSH1 0x5 PUSH1 0x0 DUP5 PUSH20 0xFFFFFFFFFFFFFFFFFFFFFFFFFFFFFFFFFFFFFFFF AND PUSH20 0xFFFFFFFFFFFFFFFFFFFFFFFFFFFFFFFFFFFFFFFF AND DUP2 MSTORE PUSH1 0x20 ADD SWAP1 DUP2 MSTORE PUSH1 0x20 ADD PUSH1 0x0 KECCAK256 PUSH1 0x0 DUP4 PUSH20 0xFFFFFFFFFFFFFFFFFFFFFFFFFFFFFFFFFFFFFFFF AND PUSH20 0xFFFFFFFFFFFFFFFFFFFFFFFFFFFFFFFFFFFFFFFF AND DUP2 MSTORE PUSH1 0x20 ADD SWAP1 DUP2 MSTORE PUSH1 0x20 ADD PUSH1 0x0 KECCAK256 PUSH1 0x0 SWAP1 SLOAD SWAP1 PUSH2 0x100 EXP SWAP1 DIV PUSH1 0xFF AND SWAP1 POP SWAP3 SWAP2 POP POP JUMP JUMPDEST PUSH2 0x22C1 PUSH2 0x23DC JUMP JUMPDEST DUP1 PUSH1 0xB DUP2 SWAP1 SSTORE POP PUSH1 0x1 PUSH1 0x12 PUSH1 0x0 PUSH2 0x100 EXP DUP2 SLOAD DUP2 PUSH1 0xFF MUL NOT AND SWAP1 DUP4 ISZERO ISZERO MUL OR SWAP1 SSTORE POP POP JUMP JUMPDEST PUSH2 0x22EE PUSH2 0x23DC JUMP JUMPDEST PUSH1 0x0 PUSH20 0xFFFFFFFFFFFFFFFFFFFFFFFFFFFFFFFFFFFFFFFF AND DUP2 PUSH20 0xFFFFFFFFFFFFFFFFFFFFFFFFFFFFFFFFFFFFFFFF AND SUB PUSH2 0x235D JUMPI PUSH1 0x40 MLOAD PUSH32 0x8C379A000000000000000000000000000000000000000000000000000000000 DUP2 MSTORE PUSH1 0x4 ADD PUSH2 0x2354 SWAP1 PUSH2 0x4FF4 JUMP JUMPDEST PUSH1 0x40 MLOAD DUP1 SWAP2 SUB SWAP1 REVERT JUMPDEST PUSH2 0x2366 DUP2 PUSH2 0x2C57 JUMP JUMPDEST POP JUMP JUMPDEST PUSH2 0x2371 PUSH2 0x23DC JUMP JUMPDEST DUP1 PUSH1 0xA DUP2 SWAP1 SSTORE POP POP JUMP JUMPDEST PUSH1 0x0 PUSH4 0x49064906 PUSH1 0xE0 SHL PUSH28 0xFFFFFFFFFFFFFFFFFFFFFFFFFFFFFFFFFFFFFFFFFFFFFFFFFFFFFFFF NOT AND DUP3 PUSH28 0xFFFFFFFFFFFFFFFFFFFFFFFFFFFFFFFFFFFFFFFFFFFFFFFFFFFFFFFF NOT AND EQ DUP1 PUSH2 0x23D5 JUMPI POP PUSH2 0x23D4 DUP3 PUSH2 0x3353 JUMP JUMPDEST JUMPDEST SWAP1 POP SWAP2 SWAP1 POP JUMP JUMPDEST PUSH2 0x23E4 PUSH2 0x24A5 JUMP JUMPDEST PUSH20 0xFFFFFFFFFFFFFFFFFFFFFFFFFFFFFFFFFFFFFFFF AND PUSH2 0x2402 PUSH2 0x1CC5 JUMP JUMPDEST PUSH20 0xFFFFFFFFFFFFFFFFFFFFFFFFFFFFFFFFFFFFFFFF AND EQ PUSH2 0x2458 JUMPI PUSH1 0x40 MLOAD PUSH32 0x8C379A000000000000000000000000000000000000000000000000000000000 DUP2 MSTORE PUSH1 0x4 ADD PUSH2 0x244F SWAP1 PUSH2 0x5060 JUMP JUMPDEST PUSH1 0x40 MLOAD DUP1 SWAP2 SUB SWAP1 REVERT JUMPDEST JUMP JUMPDEST PUSH2 0x2463 DUP2 PUSH2 0x284B JUMP JUMPDEST PUSH2 0x24A2 JUMPI PUSH1 0x40 MLOAD PUSH32 0x8C379A000000000000000000000000000000000000000000000000000000000 DUP2 MSTORE PUSH1 0x4 ADD PUSH2 0x2499 SWAP1 PUSH2 0x4A56 JUMP JUMPDEST PUSH1 0x40 MLOAD DUP1 SWAP2 SUB SWAP1 REVERT JUMPDEST POP JUMP JUMPDEST PUSH1 0x0 CALLER SWAP1 POP SWAP1 JUMP JUMPDEST DUP2 PUSH1 0x4 PUSH1 0x0 DUP4 DUP2 MSTORE PUSH1 0x20 ADD SWAP1 DUP2 MSTORE PUSH1 0x20 ADD PUSH1 0x0 KECCAK256 PUSH1 0x0 PUSH2 0x100 EXP DUP2 SLOAD DUP2 PUSH20 0xFFFFFFFFFFFFFFFFFFFFFFFFFFFFFFFFFFFFFFFF MUL NOT AND SWAP1 DUP4 PUSH20 0xFFFFFFFFFFFFFFFFFFFFFFFFFFFFFFFFFFFFFFFF AND MUL OR SWAP1 SSTORE POP DUP1 DUP3 PUSH20 0xFFFFFFFFFFFFFFFFFFFFFFFFFFFFFFFFFFFFFFFF AND PUSH2 0x2520 DUP4 PUSH2 0x1A9C JUMP JUMPDEST PUSH20 0xFFFFFFFFFFFFFFFFFFFFFFFFFFFFFFFFFFFFFFFF AND PUSH32 0x8C5BE1E5EBEC7D5BD14F71427D1E84F3DD0314C0F7B2291E5B200AC8C7C3B925 PUSH1 0x40 MLOAD PUSH1 0x40 MLOAD DUP1 SWAP2 SUB SWAP1 LOG4 POP POP JUMP JUMPDEST PUSH1 0x1 DUP2 PUSH1 0x0 ADD PUSH1 0x0 DUP3 DUP3 SLOAD ADD SWAP3 POP POP DUP2 SWAP1 SSTORE POP POP JUMP JUMPDEST PUSH1 0x0 DUP2 PUSH1 0x0 ADD SLOAD SWAP1 POP SWAP2 SWAP1 POP JUMP JUMPDEST PUSH1 0x0 PUSH20 0xFFFFFFFFFFFFFFFFFFFFFFFFFFFFFFFFFFFFFFFF AND DUP3 PUSH20 0xFFFFFFFFFFFFFFFFFFFFFFFFFFFFFFFFFFFFFFFF AND SUB PUSH2 0x25F9 JUMPI PUSH1 0x40 MLOAD PUSH32 0x8C379A000000000000000000000000000000000000000000000000000000000 DUP2 MSTORE PUSH1 0x4 ADD PUSH2 0x25F0 SWAP1 PUSH2 0x50CC JUMP JUMPDEST PUSH1 0x40 MLOAD DUP1 SWAP2 SUB SWAP1 REVERT JUMPDEST PUSH2 0x2602 DUP2 PUSH2 0x284B JUMP JUMPDEST ISZERO PUSH2 0x2642 JUMPI PUSH1 0x40 MLOAD PUSH32 0x8C379A000000000000000000000000000000000000000000000000000000000 DUP2 MSTORE PUSH1 0x4 ADD PUSH2 0x2639 SWAP1 PUSH2 0x5138 JUMP JUMPDEST PUSH1 0x40 MLOAD DUP1 SWAP2 SUB SWAP1 REVERT JUMPDEST PUSH2 0x2650 PUSH1 0x0 DUP4 DUP4 PUSH1 0x1 PUSH2 0x3435 JUMP JUMPDEST PUSH2 0x2659 DUP2 PUSH2 0x284B JUMP JUMPDEST ISZERO PUSH2 0x2699 JUMPI PUSH1 0x40 MLOAD PUSH32 0x8C379A000000000000000000000000000000000000000000000000000000000 DUP2 MSTORE PUSH1 0x4 ADD PUSH2 0x2690 SWAP1 PUSH2 0x5138 JUMP JUMPDEST PUSH1 0x40 MLOAD DUP1 SWAP2 SUB SWAP1 REVERT JUMPDEST PUSH1 0x1 PUSH1 0x3 PUSH1 0x0 DUP5 PUSH20 0xFFFFFFFFFFFFFFFFFFFFFFFFFFFFFFFFFFFFFFFF AND PUSH20 0xFFFFFFFFFFFFFFFFFFFFFFFFFFFFFFFFFFFFFFFF AND DUP2 MSTORE PUSH1 0x20 ADD SWAP1 DUP2 MSTORE PUSH1 0x20 ADD PUSH1 0x0 KECCAK256 PUSH1 0x0 DUP3 DUP3 SLOAD ADD SWAP3 POP POP DUP2 SWAP1 SSTORE POP DUP2 PUSH1 0x2 PUSH1 0x0 DUP4 DUP2 MSTORE PUSH1 0x20 ADD SWAP1 DUP2 MSTORE PUSH1 0x20 ADD PUSH1 0x0 KECCAK256 PUSH1 0x0 PUSH2 0x100 EXP DUP2 SLOAD DUP2 PUSH20 0xFFFFFFFFFFFFFFFFFFFFFFFFFFFFFFFFFFFFFFFF MUL NOT AND SWAP1 DUP4 PUSH20 0xFFFFFFFFFFFFFFFFFFFFFFFFFFFFFFFFFFFFFFFF AND MUL OR SWAP1 SSTORE POP DUP1 DUP3 PUSH20 0xFFFFFFFFFFFFFFFFFFFFFFFFFFFFFFFFFFFFFFFF AND PUSH1 0x0 PUSH20 0xFFFFFFFFFFFFFFFFFFFFFFFFFFFFFFFFFFFFFFFF AND PUSH32 0xDDF252AD1BE2C89B69C2B068FC378DAA952BA7F163C4A11628F55A4DF523B3EF PUSH1 0x40 MLOAD PUSH1 0x40 MLOAD DUP1 SWAP2 SUB SWAP1 LOG4 PUSH2 0x27A3 PUSH1 0x0 DUP4 DUP4 PUSH1 0x1 PUSH2 0x343B JUMP JUMPDEST POP POP JUMP JUMPDEST PUSH2 0x27B0 DUP3 PUSH2 0x284B JUMP JUMPDEST PUSH2 0x27EF JUMPI PUSH1 0x40 MLOAD PUSH32 0x8C379A000000000000000000000000000000000000000000000000000000000 DUP2 MSTORE PUSH1 0x4 ADD PUSH2 0x27E6 SWAP1 PUSH2 0x51CA JUMP JUMPDEST PUSH1 0x40 MLOAD DUP1 SWAP2 SUB SWAP1 REVERT JUMPDEST DUP1 PUSH1 0x6 PUSH1 0x0 DUP5 DUP2 MSTORE PUSH1 0x20 ADD SWAP1 DUP2 MSTORE PUSH1 0x20 ADD PUSH1 0x0 KECCAK256 SWAP1 DUP2 PUSH2 0x280F SWAP2 SWAP1 PUSH2 0x4EB0 JUMP JUMPDEST POP PUSH32 0xF8E1A15ABA9398E019F0B49DF1A4FDE98EE17AE345CB5F6B5E2C27F5033E8CE7 DUP3 PUSH1 0x40 MLOAD PUSH2 0x283F SWAP2 SWAP1 PUSH2 0x3CBD JUMP JUMPDEST PUSH1 0x40 MLOAD DUP1 SWAP2 SUB SWAP1 LOG1 POP POP JUMP JUMPDEST PUSH1 0x0 DUP1 PUSH20 0xFFFFFFFFFFFFFFFFFFFFFFFFFFFFFFFFFFFFFFFF AND PUSH2 0x286D DUP4 PUSH2 0x2C1A JUMP JUMPDEST PUSH20 0xFFFFFFFFFFFFFFFFFFFFFFFFFFFFFFFFFFFFFFFF AND EQ ISZERO SWAP1 POP SWAP2 SWAP1 POP JUMP JUMPDEST PUSH1 0x0 DUP1 PUSH2 0x2898 DUP4 PUSH2 0x1A9C JUMP JUMPDEST SWAP1 POP DUP1 PUSH20 0xFFFFFFFFFFFFFFFFFFFFFFFFFFFFFFFFFFFFFFFF AND DUP5 PUSH20 0xFFFFFFFFFFFFFFFFFFFFFFFFFFFFFFFFFFFFFFFF AND EQ DUP1 PUSH2 0x28DA JUMPI POP PUSH2 0x28D9 DUP2 DUP6 PUSH2 0x2225 JUMP JUMPDEST JUMPDEST DUP1 PUSH2 0x2918 JUMPI POP DUP4 PUSH20 0xFFFFFFFFFFFFFFFFFFFFFFFFFFFFFFFFFFFFFFFF AND PUSH2 0x2900 DUP5 PUSH2 0xACA JUMP JUMPDEST PUSH20 0xFFFFFFFFFFFFFFFFFFFFFFFFFFFFFFFFFFFFFFFF AND EQ JUMPDEST SWAP2 POP POP SWAP3 SWAP2 POP POP JUMP JUMPDEST DUP3 PUSH20 0xFFFFFFFFFFFFFFFFFFFFFFFFFFFFFFFFFFFFFFFF AND PUSH2 0x2941 DUP3 PUSH2 0x1A9C JUMP JUMPDEST PUSH20 0xFFFFFFFFFFFFFFFFFFFFFFFFFFFFFFFFFFFFFFFF AND EQ PUSH2 0x2997 JUMPI PUSH1 0x40 MLOAD PUSH32 0x8C379A000000000000000000000000000000000000000000000000000000000 DUP2 MSTORE PUSH1 0x4 ADD PUSH2 0x298E SWAP1 PUSH2 0x525C JUMP JUMPDEST PUSH1 0x40 MLOAD DUP1 SWAP2 SUB SWAP1 REVERT JUMPDEST PUSH1 0x0 PUSH20 0xFFFFFFFFFFFFFFFFFFFFFFFFFFFFFFFFFFFFFFFF AND DUP3 PUSH20 0xFFFFFFFFFFFFFFFFFFFFFFFFFFFFFFFFFFFFFFFF AND SUB PUSH2 0x2A06 JUMPI PUSH1 0x40 MLOAD PUSH32 0x8C379A000000000000000000000000000000000000000000000000000000000 DUP2 MSTORE PUSH1 0x4 ADD PUSH2 0x29FD SWAP1 PUSH2 0x52EE JUMP JUMPDEST PUSH1 0x40 MLOAD DUP1 SWAP2 SUB SWAP1 REVERT JUMPDEST PUSH2 0x2A13 DUP4 DUP4 DUP4 PUSH1 0x1 PUSH2 0x3435 JUMP JUMPDEST DUP3 PUSH20 0xFFFFFFFFFFFFFFFFFFFFFFFFFFFFFFFFFFFFFFFF AND PUSH2 0x2A33 DUP3 PUSH2 0x1A9C JUMP JUMPDEST PUSH20 0xFFFFFFFFFFFFFFFFFFFFFFFFFFFFFFFFFFFFFFFF AND EQ PUSH2 0x2A89 JUMPI PUSH1 0x40 MLOAD PUSH32 0x8C379A000000000000000000000000000000000000000000000000000000000 DUP2 MSTORE PUSH1 0x4 ADD PUSH2 0x2A80 SWAP1 PUSH2 0x525C JUMP JUMPDEST PUSH1 0x40 MLOAD DUP1 SWAP2 SUB SWAP1 REVERT JUMPDEST PUSH1 0x4 PUSH1 0x0 DUP3 DUP2 MSTORE PUSH1 0x20 ADD SWAP1 DUP2 MSTORE PUSH1 0x20 ADD PUSH1 0x0 KECCAK256 PUSH1 0x0 PUSH2 0x100 EXP DUP2 SLOAD SWAP1 PUSH20 0xFFFFFFFFFFFFFFFFFFFFFFFFFFFFFFFFFFFFFFFF MUL NOT AND SWAP1 SSTORE PUSH1 0x1 PUSH1 0x3 PUSH1 0x0 DUP6 PUSH20 0xFFFFFFFFFFFFFFFFFFFFFFFFFFFFFFFFFFFFFFFF AND PUSH20 0xFFFFFFFFFFFFFFFFFFFFFFFFFFFFFFFFFFFFFFFF AND DUP2 MSTORE PUSH1 0x20 ADD SWAP1 DUP2 MSTORE PUSH1 0x20 ADD PUSH1 0x0 KECCAK256 PUSH1 0x0 DUP3 DUP3 SLOAD SUB SWAP3 POP POP DUP2 SWAP1 SSTORE POP PUSH1 0x1 PUSH1 0x3 PUSH1 0x0 DUP5 PUSH20 0xFFFFFFFFFFFFFFFFFFFFFFFFFFFFFFFFFFFFFFFF AND PUSH20 0xFFFFFFFFFFFFFFFFFFFFFFFFFFFFFFFFFFFFFFFF AND DUP2 MSTORE PUSH1 0x20 ADD SWAP1 DUP2 MSTORE PUSH1 0x20 ADD PUSH1 0x0 KECCAK256 PUSH1 0x0 DUP3 DUP3 SLOAD ADD SWAP3 POP POP DUP2 SWAP1 SSTORE POP DUP2 PUSH1 0x2 PUSH1 0x0 DUP4 DUP2 MSTORE PUSH1 0x20 ADD SWAP1 DUP2 MSTORE PUSH1 0x20 ADD PUSH1 0x0 KECCAK256 PUSH1 0x0 PUSH2 0x100 EXP DUP2 SLOAD DUP2 PUSH20 0xFFFFFFFFFFFFFFFFFFFFFFFFFFFFFFFFFFFFFFFF MUL NOT AND SWAP1 DUP4 PUSH20 0xFFFFFFFFFFFFFFFFFFFFFFFFFFFFFFFFFFFFFFFF AND MUL OR SWAP1 SSTORE POP DUP1 DUP3 PUSH20 0xFFFFFFFFFFFFFFFFFFFFFFFFFFFFFFFFFFFFFFFF AND DUP5 PUSH20 0xFFFFFFFFFFFFFFFFFFFFFFFFFFFFFFFFFFFFFFFF AND PUSH32 0xDDF252AD1BE2C89B69C2B068FC378DAA952BA7F163C4A11628F55A4DF523B3EF PUSH1 0x40 MLOAD PUSH1 0x40 MLOAD DUP1 SWAP2 SUB SWAP1 LOG4 PUSH2 0x2C15 DUP4 DUP4 DUP4 PUSH1 0x1 PUSH2 0x343B JUMP JUMPDEST POP POP POP JUMP JUMPDEST PUSH1 0x0 PUSH1 0x2 PUSH1 0x0 DUP4 DUP2 MSTORE PUSH1 0x20 ADD SWAP1 DUP2 MSTORE PUSH1 0x20 ADD PUSH1 0x0 KECCAK256 PUSH1 0x0 SWAP1 SLOAD SWAP1 PUSH2 0x100 EXP SWAP1 DIV PUSH20 0xFFFFFFFFFFFFFFFFFFFFFFFFFFFFFFFFFFFFFFFF AND SWAP1 POP SWAP2 SWAP1 POP JUMP JUMPDEST PUSH1 0x0 PUSH1 0x7 PUSH1 0x0 SWAP1 SLOAD SWAP1 PUSH2 0x100 EXP SWAP1 DIV PUSH20 0xFFFFFFFFFFFFFFFFFFFFFFFFFFFFFFFFFFFFFFFF AND SWAP1 POP DUP2 PUSH1 0x7 PUSH1 0x0 PUSH2 0x100 EXP DUP2 SLOAD DUP2 PUSH20 0xFFFFFFFFFFFFFFFFFFFFFFFFFFFFFFFFFFFFFFFF MUL NOT AND SWAP1 DUP4 PUSH20 0xFFFFFFFFFFFFFFFFFFFFFFFFFFFFFFFFFFFFFFFF AND MUL OR SWAP1 SSTORE POP DUP2 PUSH20 0xFFFFFFFFFFFFFFFFFFFFFFFFFFFFFFFFFFFFFFFF AND DUP2 PUSH20 0xFFFFFFFFFFFFFFFFFFFFFFFFFFFFFFFFFFFFFFFF AND PUSH32 0x8BE0079C531659141344CD1FD0A4F28419497F9722A3DAAFE3B4186F6B6457E0 PUSH1 0x40 MLOAD PUSH1 0x40 MLOAD DUP1 SWAP2 SUB SWAP1 LOG3 POP POP JUMP JUMPDEST DUP2 PUSH20 0xFFFFFFFFFFFFFFFFFFFFFFFFFFFFFFFFFFFFFFFF AND DUP4 PUSH20 0xFFFFFFFFFFFFFFFFFFFFFFFFFFFFFFFFFFFFFFFF AND SUB PUSH2 0x2D8B JUMPI PUSH1 0x40 MLOAD PUSH32 0x8C379A000000000000000000000000000000000000000000000000000000000 DUP2 MSTORE PUSH1 0x4 ADD PUSH2 0x2D82 SWAP1 PUSH2 0x535A JUMP JUMPDEST PUSH1 0x40 MLOAD DUP1 SWAP2 SUB SWAP1 REVERT JUMPDEST DUP1 PUSH1 0x5 PUSH1 0x0 DUP6 PUSH20 0xFFFFFFFFFFFFFFFFFFFFFFFFFFFFFFFFFFFFFFFF AND PUSH20 0xFFFFFFFFFFFFFFFFFFFFFFFFFFFFFFFFFFFFFFFF AND DUP2 MSTORE PUSH1 0x20 ADD SWAP1 DUP2 MSTORE PUSH1 0x20 ADD PUSH1 0x0 KECCAK256 PUSH1 0x0 DUP5 PUSH20 0xFFFFFFFFFFFFFFFFFFFFFFFFFFFFFFFFFFFFFFFF AND PUSH20 0xFFFFFFFFFFFFFFFFFFFFFFFFFFFFFFFFFFFFFFFF AND DUP2 MSTORE PUSH1 0x20 ADD SWAP1 DUP2 MSTORE PUSH1 0x20 ADD PUSH1 0x0 KECCAK256 PUSH1 0x0 PUSH2 0x100 EXP DUP2 SLOAD DUP2 PUSH1 0xFF MUL NOT AND SWAP1 DUP4 ISZERO ISZERO MUL OR SWAP1 SSTORE POP DUP2 PUSH20 0xFFFFFFFFFFFFFFFFFFFFFFFFFFFFFFFFFFFFFFFF AND DUP4 PUSH20 0xFFFFFFFFFFFFFFFFFFFFFFFFFFFFFFFFFFFFFFFF AND PUSH32 0x17307EAB39AB6107E8899845AD3D59BD9653F200F220920489CA2B5937696C31 DUP4 PUSH1 0x40 MLOAD PUSH2 0x2E7C SWAP2 SWAP1 PUSH2 0x3ABE JUMP JUMPDEST PUSH1 0x40 MLOAD DUP1 SWAP2 SUB SWAP1 LOG3 POP POP POP JUMP JUMPDEST PUSH1 0x60 PUSH1 0x0 PUSH1 0x14 DUP1 SLOAD SWAP1 POP PUSH8 0xFFFFFFFFFFFFFFFF DUP2 GT ISZERO PUSH2 0x2EAC JUMPI PUSH2 0x2EAB PUSH2 0x3F7C JUMP JUMPDEST JUMPDEST PUSH1 0x40 MLOAD SWAP1 DUP1 DUP3 MSTORE DUP1 PUSH1 0x20 MUL PUSH1 0x20 ADD DUP3 ADD PUSH1 0x40 MSTORE DUP1 ISZERO PUSH2 0x2EDA JUMPI DUP2 PUSH1 0x20 ADD PUSH1 0x20 DUP3 MUL DUP1 CALLDATASIZE DUP4 CALLDATACOPY DUP1 DUP3 ADD SWAP2 POP POP SWAP1 POP JUMPDEST POP SWAP1 POP PUSH1 0x0 JUMPDEST PUSH1 0x14 DUP1 SLOAD SWAP1 POP DUP2 LT ISZERO PUSH2 0x2F20 JUMPI DUP1 DUP3 DUP3 DUP2 MLOAD DUP2 LT PUSH2 0x2F01 JUMPI PUSH2 0x2F00 PUSH2 0x46A1 JUMP JUMPDEST JUMPDEST PUSH1 0x20 MUL PUSH1 0x20 ADD ADD DUP2 DUP2 MSTORE POP POP DUP1 DUP1 PUSH2 0x2F18 SWAP1 PUSH2 0x46D0 JUMP JUMPDEST SWAP2 POP POP PUSH2 0x2EE0 JUMP JUMPDEST POP PUSH1 0x0 JUMPDEST PUSH1 0x1 PUSH1 0x14 DUP1 SLOAD SWAP1 POP PUSH2 0x2F36 SWAP2 SWAP1 PUSH2 0x537A JUMP JUMPDEST DUP2 LT ISZERO PUSH2 0x30C0 JUMPI PUSH1 0x0 PUSH1 0x1 DUP3 PUSH2 0x2F4C SWAP2 SWAP1 PUSH2 0x466D JUMP JUMPDEST SWAP1 POP JUMPDEST PUSH1 0x14 DUP1 SLOAD SWAP1 POP DUP2 LT ISZERO PUSH2 0x30AC JUMPI PUSH2 0x2FBD PUSH1 0x14 DUP5 DUP4 DUP2 MLOAD DUP2 LT PUSH2 0x2F74 JUMPI PUSH2 0x2F73 PUSH2 0x46A1 JUMP JUMPDEST JUMPDEST PUSH1 0x20 MUL PUSH1 0x20 ADD ADD MLOAD DUP2 SLOAD DUP2 LT PUSH2 0x2F8D JUMPI PUSH2 0x2F8C PUSH2 0x46A1 JUMP JUMPDEST JUMPDEST SWAP1 PUSH1 0x0 MSTORE PUSH1 0x20 PUSH1 0x0 KECCAK256 ADD PUSH1 0x0 SWAP1 SLOAD SWAP1 PUSH2 0x100 EXP SWAP1 DIV PUSH20 0xFFFFFFFFFFFFFFFFFFFFFFFFFFFFFFFFFFFFFFFF AND PUSH2 0x16BA JUMP JUMPDEST PUSH2 0x301E PUSH1 0x14 DUP6 DUP6 DUP2 MLOAD DUP2 LT PUSH2 0x2FD5 JUMPI PUSH2 0x2FD4 PUSH2 0x46A1 JUMP JUMPDEST JUMPDEST PUSH1 0x20 MUL PUSH1 0x20 ADD ADD MLOAD DUP2 SLOAD DUP2 LT PUSH2 0x2FEE JUMPI PUSH2 0x2FED PUSH2 0x46A1 JUMP JUMPDEST JUMPDEST SWAP1 PUSH1 0x0 MSTORE PUSH1 0x20 PUSH1 0x0 KECCAK256 ADD PUSH1 0x0 SWAP1 SLOAD SWAP1 PUSH2 0x100 EXP SWAP1 DIV PUSH20 0xFFFFFFFFFFFFFFFFFFFFFFFFFFFFFFFFFFFFFFFF AND PUSH2 0x16BA JUMP JUMPDEST LT ISZERO PUSH2 0x3099 JUMPI DUP3 DUP2 DUP2 MLOAD DUP2 LT PUSH2 0x3037 JUMPI PUSH2 0x3036 PUSH2 0x46A1 JUMP JUMPDEST JUMPDEST PUSH1 0x20 MUL PUSH1 0x20 ADD ADD MLOAD DUP4 DUP4 DUP2 MLOAD DUP2 LT PUSH2 0x3052 JUMPI PUSH2 0x3051 PUSH2 0x46A1 JUMP JUMPDEST JUMPDEST PUSH1 0x20 MUL PUSH1 0x20 ADD ADD MLOAD DUP5 DUP5 DUP2 MLOAD DUP2 LT PUSH2 0x306D JUMPI PUSH2 0x306C PUSH2 0x46A1 JUMP JUMPDEST JUMPDEST PUSH1 0x20 MUL PUSH1 0x20 ADD ADD DUP6 DUP5 DUP2 MLOAD DUP2 LT PUSH2 0x3087 JUMPI PUSH2 0x3086 PUSH2 0x46A1 JUMP JUMPDEST JUMPDEST PUSH1 0x20 MUL PUSH1 0x20 ADD ADD DUP3 DUP2 MSTORE POP DUP3 DUP2 MSTORE POP POP POP JUMPDEST DUP1 DUP1 PUSH2 0x30A4 SWAP1 PUSH2 0x46D0 JUMP JUMPDEST SWAP2 POP POP PUSH2 0x2F4F JUMP JUMPDEST POP DUP1 DUP1 PUSH2 0x30B8 SWAP1 PUSH2 0x46D0 JUMP JUMPDEST SWAP2 POP POP PUSH2 0x2F24 JUMP JUMPDEST POP PUSH1 0x0 PUSH1 0x14 DUP1 SLOAD SWAP1 POP PUSH8 0xFFFFFFFFFFFFFFFF DUP2 GT ISZERO PUSH2 0x30E2 JUMPI PUSH2 0x30E1 PUSH2 0x3F7C JUMP JUMPDEST JUMPDEST PUSH1 0x40 MLOAD SWAP1 DUP1 DUP3 MSTORE DUP1 PUSH1 0x20 MUL PUSH1 0x20 ADD DUP3 ADD PUSH1 0x40 MSTORE DUP1 ISZERO PUSH2 0x3110 JUMPI DUP2 PUSH1 0x20 ADD PUSH1 0x20 DUP3 MUL DUP1 CALLDATASIZE DUP4 CALLDATACOPY DUP1 DUP3 ADD SWAP2 POP POP SWAP1 POP JUMPDEST POP SWAP1 POP PUSH1 0x0 JUMPDEST PUSH1 0x14 DUP1 SLOAD SWAP1 POP DUP2 LT ISZERO PUSH2 0x31DC JUMPI PUSH1 0x14 DUP4 DUP3 DUP2 MLOAD DUP2 LT PUSH2 0x3138 JUMPI PUSH2 0x3137 PUSH2 0x46A1 JUMP JUMPDEST JUMPDEST PUSH1 0x20 MUL PUSH1 0x20 ADD ADD MLOAD DUP2 SLOAD DUP2 LT PUSH2 0x3151 JUMPI PUSH2 0x3150 PUSH2 0x46A1 JUMP JUMPDEST JUMPDEST SWAP1 PUSH1 0x0 MSTORE PUSH1 0x20 PUSH1 0x0 KECCAK256 ADD PUSH1 0x0 SWAP1 SLOAD SWAP1 PUSH2 0x100 EXP SWAP1 DIV PUSH20 0xFFFFFFFFFFFFFFFFFFFFFFFFFFFFFFFFFFFFFFFF AND DUP3 DUP3 DUP2 MLOAD DUP2 LT PUSH2 0x318F JUMPI PUSH2 0x318E PUSH2 0x46A1 JUMP JUMPDEST JUMPDEST PUSH1 0x20 MUL PUSH1 0x20 ADD ADD SWAP1 PUSH20 0xFFFFFFFFFFFFFFFFFFFFFFFFFFFFFFFFFFFFFFFF AND SWAP1 DUP2 PUSH20 0xFFFFFFFFFFFFFFFFFFFFFFFFFFFFFFFFFFFFFFFF AND DUP2 MSTORE POP POP DUP1 DUP1 PUSH2 0x31D4 SWAP1 PUSH2 0x46D0 JUMP JUMPDEST SWAP2 POP POP PUSH2 0x3116 JUMP JUMPDEST POP DUP1 SWAP3 POP POP POP SWAP1 JUMP JUMPDEST PUSH2 0x31F0 DUP5 DUP5 DUP5 PUSH2 0x2921 JUMP JUMPDEST PUSH2 0x31FC DUP5 DUP5 DUP5 DUP5 PUSH2 0x3441 JUMP JUMPDEST PUSH2 0x323B JUMPI PUSH1 0x40 MLOAD PUSH32 0x8C379A000000000000000000000000000000000000000000000000000000000 DUP2 MSTORE PUSH1 0x4 ADD PUSH2 0x3232 SWAP1 PUSH2 0x5420 JUMP JUMPDEST PUSH1 0x40 MLOAD DUP1 SWAP2 SUB SWAP1 REVERT JUMPDEST POP POP POP POP JUMP JUMPDEST PUSH1 0x60 PUSH2 0x324C DUP3 PUSH2 0x245A JUMP JUMPDEST PUSH1 0x0 PUSH1 0x6 PUSH1 0x0 DUP5 DUP2 MSTORE PUSH1 0x20 ADD SWAP1 DUP2 MSTORE PUSH1 0x20 ADD PUSH1 0x0 KECCAK256 DUP1 SLOAD PUSH2 0x326C SWAP1 PUSH2 0x42C3 JUMP JUMPDEST DUP1 PUSH1 0x1F ADD PUSH1 0x20 DUP1 SWAP2 DIV MUL PUSH1 0x20 ADD PUSH1 0x40 MLOAD SWAP1 DUP2 ADD PUSH1 0x40 MSTORE DUP1 SWAP3 SWAP2 SWAP1 DUP2 DUP2 MSTORE PUSH1 0x20 ADD DUP3 DUP1 SLOAD PUSH2 0x3298 SWAP1 PUSH2 0x42C3 JUMP JUMPDEST DUP1 ISZERO PUSH2 0x32E5 JUMPI DUP1 PUSH1 0x1F LT PUSH2 0x32BA JUMPI PUSH2 0x100 DUP1 DUP4 SLOAD DIV MUL DUP4 MSTORE SWAP2 PUSH1 0x20 ADD SWAP2 PUSH2 0x32E5 JUMP JUMPDEST DUP3 ADD SWAP2 SWAP1 PUSH1 0x0 MSTORE PUSH1 0x20 PUSH1 0x0 KECCAK256 SWAP1 JUMPDEST DUP2 SLOAD DUP2 MSTORE SWAP1 PUSH1 0x1 ADD SWAP1 PUSH1 0x20 ADD DUP1 DUP4 GT PUSH2 0x32C8 JUMPI DUP3 SWAP1 SUB PUSH1 0x1F AND DUP3 ADD SWAP2 JUMPDEST POP POP POP POP POP SWAP1 POP PUSH1 0x0 PUSH2 0x32F6 PUSH2 0x35C8 JUMP JUMPDEST SWAP1 POP PUSH1 0x0 DUP2 MLOAD SUB PUSH2 0x330B JUMPI DUP2 SWAP3 POP POP POP PUSH2 0x334E JUMP JUMPDEST PUSH1 0x0 DUP3 MLOAD GT ISZERO PUSH2 0x3340 JUMPI DUP1 DUP3 PUSH1 0x40 MLOAD PUSH1 0x20 ADD PUSH2 0x3328 SWAP3 SWAP2 SWAP1 PUSH2 0x547C JUMP JUMPDEST PUSH1 0x40 MLOAD PUSH1 0x20 DUP2 DUP4 SUB SUB DUP2 MSTORE SWAP1 PUSH1 0x40 MSTORE SWAP3 POP POP POP PUSH2 0x334E JUMP JUMPDEST PUSH2 0x3349 DUP5 PUSH2 0x35DF JUMP JUMPDEST SWAP3 POP POP POP JUMPDEST SWAP2 SWAP1 POP JUMP JUMPDEST PUSH1 0x0 PUSH32 0x80AC58CD00000000000000000000000000000000000000000000000000000000 PUSH28 0xFFFFFFFFFFFFFFFFFFFFFFFFFFFFFFFFFFFFFFFFFFFFFFFFFFFFFFFF NOT AND DUP3 PUSH28 0xFFFFFFFFFFFFFFFFFFFFFFFFFFFFFFFFFFFFFFFFFFFFFFFFFFFFFFFF NOT AND EQ DUP1 PUSH2 0x341E JUMPI POP PUSH32 0x5B5E139F00000000000000000000000000000000000000000000000000000000 PUSH28 0xFFFFFFFFFFFFFFFFFFFFFFFFFFFFFFFFFFFFFFFFFFFFFFFFFFFFFFFF NOT AND DUP3 PUSH28 0xFFFFFFFFFFFFFFFFFFFFFFFFFFFFFFFFFFFFFFFFFFFFFFFFFFFFFFFF NOT AND EQ JUMPDEST DUP1 PUSH2 0x342E JUMPI POP PUSH2 0x342D DUP3 PUSH2 0x3647 JUMP JUMPDEST JUMPDEST SWAP1 POP SWAP2 SWAP1 POP JUMP JUMPDEST POP POP POP POP JUMP JUMPDEST POP POP POP POP JUMP JUMPDEST PUSH1 0x0 PUSH2 0x3462 DUP5 PUSH20 0xFFFFFFFFFFFFFFFFFFFFFFFFFFFFFFFFFFFFFFFF AND PUSH2 0x36B1 JUMP JUMPDEST ISZERO PUSH2 0x35BB JUMPI DUP4 PUSH20 0xFFFFFFFFFFFFFFFFFFFFFFFFFFFFFFFFFFFFFFFF AND PUSH4 0x150B7A02 PUSH2 0x348B PUSH2 0x24A5 JUMP JUMPDEST DUP8 DUP7 DUP7 PUSH1 0x40 MLOAD DUP6 PUSH4 0xFFFFFFFF AND PUSH1 0xE0 SHL DUP2 MSTORE PUSH1 0x4 ADD PUSH2 0x34AD SWAP5 SWAP4 SWAP3 SWAP2 SWAP1 PUSH2 0x54F5 JUMP JUMPDEST PUSH1 0x20 PUSH1 0x40 MLOAD DUP1 DUP4 SUB DUP2 PUSH1 0x0 DUP8 GAS CALL SWAP3 POP POP POP DUP1 ISZERO PUSH2 0x34E9 JUMPI POP PUSH1 0x40 MLOAD RETURNDATASIZE PUSH1 0x1F NOT PUSH1 0x1F DUP3 ADD AND DUP3 ADD DUP1 PUSH1 0x40 MSTORE POP DUP2 ADD SWAP1 PUSH2 0x34E6 SWAP2 SWAP1 PUSH2 0x5556 JUMP JUMPDEST PUSH1 0x1 JUMPDEST PUSH2 0x356B JUMPI RETURNDATASIZE DUP1 PUSH1 0x0 DUP2 EQ PUSH2 0x3519 JUMPI PUSH1 0x40 MLOAD SWAP2 POP PUSH1 0x1F NOT PUSH1 0x3F RETURNDATASIZE ADD AND DUP3 ADD PUSH1 0x40 MSTORE RETURNDATASIZE DUP3 MSTORE RETURNDATASIZE PUSH1 0x0 PUSH1 0x20 DUP5 ADD RETURNDATACOPY PUSH2 0x351E JUMP JUMPDEST PUSH1 0x60 SWAP2 POP JUMPDEST POP PUSH1 0x0 DUP2 MLOAD SUB PUSH2 0x3563 JUMPI PUSH1 0x40 MLOAD PUSH32 0x8C379A000000000000000000000000000000000000000000000000000000000 DUP2 MSTORE PUSH1 0x4 ADD PUSH2 0x355A SWAP1 PUSH2 0x5420 JUMP JUMPDEST PUSH1 0x40 MLOAD DUP1 SWAP2 SUB SWAP1 REVERT JUMPDEST DUP1 MLOAD DUP2 PUSH1 0x20 ADD REVERT JUMPDEST PUSH4 0x150B7A02 PUSH1 0xE0 SHL PUSH28 0xFFFFFFFFFFFFFFFFFFFFFFFFFFFFFFFFFFFFFFFFFFFFFFFFFFFFFFFF NOT AND DUP2 PUSH28 0xFFFFFFFFFFFFFFFFFFFFFFFFFFFFFFFFFFFFFFFFFFFFFFFFFFFFFFFF NOT AND EQ SWAP2 POP POP PUSH2 0x35C0 JUMP JUMPDEST PUSH1 0x1 SWAP1 POP JUMPDEST SWAP5 SWAP4 POP POP POP POP JUMP JUMPDEST PUSH1 0x60 PUSH1 0x40 MLOAD DUP1 PUSH1 0x20 ADD PUSH1 0x40 MSTORE DUP1 PUSH1 0x0 DUP2 MSTORE POP SWAP1 POP SWAP1 JUMP JUMPDEST PUSH1 0x60 PUSH2 0x35EA DUP3 PUSH2 0x245A JUMP JUMPDEST PUSH1 0x0 PUSH2 0x35F4 PUSH2 0x35C8 JUMP JUMPDEST SWAP1 POP PUSH1 0x0 DUP2 MLOAD GT PUSH2 0x3614 JUMPI PUSH1 0x40 MLOAD DUP1 PUSH1 0x20 ADD PUSH1 0x40 MSTORE DUP1 PUSH1 0x0 DUP2 MSTORE POP PUSH2 0x363F JUMP JUMPDEST DUP1 PUSH2 0x361E DUP5 PUSH2 0x36D4 JUMP JUMPDEST PUSH1 0x40 MLOAD PUSH1 0x20 ADD PUSH2 0x362F SWAP3 SWAP2 SWAP1 PUSH2 0x547C JUMP JUMPDEST PUSH1 0x40 MLOAD PUSH1 0x20 DUP2 DUP4 SUB SUB DUP2 MSTORE SWAP1 PUSH1 0x40 MSTORE JUMPDEST SWAP2 POP POP SWAP2 SWAP1 POP JUMP JUMPDEST PUSH1 0x0 PUSH32 0x1FFC9A700000000000000000000000000000000000000000000000000000000 PUSH28 0xFFFFFFFFFFFFFFFFFFFFFFFFFFFFFFFFFFFFFFFFFFFFFFFFFFFFFFFF NOT AND DUP3 PUSH28 0xFFFFFFFFFFFFFFFFFFFFFFFFFFFFFFFFFFFFFFFFFFFFFFFFFFFFFFFF NOT AND EQ SWAP1 POP SWAP2 SWAP1 POP JUMP JUMPDEST PUSH1 0x0 DUP1 DUP3 PUSH20 0xFFFFFFFFFFFFFFFFFFFFFFFFFFFFFFFFFFFFFFFF AND EXTCODESIZE GT SWAP1 POP SWAP2 SWAP1 POP JUMP JUMPDEST PUSH1 0x60 PUSH1 0x0 PUSH1 0x1 PUSH2 0x36E3 DUP5 PUSH2 0x37A2 JUMP JUMPDEST ADD SWAP1 POP PUSH1 0x0 DUP2 PUSH8 0xFFFFFFFFFFFFFFFF DUP2 GT ISZERO PUSH2 0x3702 JUMPI PUSH2 0x3701 PUSH2 0x3F7C JUMP JUMPDEST JUMPDEST PUSH1 0x40 MLOAD SWAP1 DUP1 DUP3 MSTORE DUP1 PUSH1 0x1F ADD PUSH1 0x1F NOT AND PUSH1 0x20 ADD DUP3 ADD PUSH1 0x40 MSTORE DUP1 ISZERO PUSH2 0x3734 JUMPI DUP2 PUSH1 0x20 ADD PUSH1 0x1 DUP3 MUL DUP1 CALLDATASIZE DUP4 CALLDATACOPY DUP1 DUP3 ADD SWAP2 POP POP SWAP1 POP JUMPDEST POP SWAP1 POP PUSH1 0x0 DUP3 PUSH1 0x20 ADD DUP3 ADD SWAP1 POP JUMPDEST PUSH1 0x1 ISZERO PUSH2 0x3797 JUMPI DUP1 DUP1 PUSH1 0x1 SWAP1 SUB SWAP2 POP POP PUSH32 0x3031323334353637383961626364656600000000000000000000000000000000 PUSH1 0xA DUP7 MOD BYTE DUP2 MSTORE8 PUSH1 0xA DUP6 DUP2 PUSH2 0x378B JUMPI PUSH2 0x378A PUSH2 0x45DE JUMP JUMPDEST JUMPDEST DIV SWAP5 POP PUSH1 0x0 DUP6 SUB PUSH2 0x3742 JUMPI JUMPDEST DUP2 SWAP4 POP POP POP POP SWAP2 SWAP1 POP JUMP JUMPDEST PUSH1 0x0 DUP1 PUSH1 0x0 SWAP1 POP PUSH27 0x184F03E93FF9F4DAA797ED6E38ED64BF6A1F010000000000000000 DUP4 LT PUSH2 0x3800 JUMPI PUSH27 0x184F03E93FF9F4DAA797ED6E38ED64BF6A1F010000000000000000 DUP4 DUP2 PUSH2 0x37F6 JUMPI PUSH2 0x37F5 PUSH2 0x45DE JUMP JUMPDEST JUMPDEST DIV SWAP3 POP PUSH1 0x40 DUP2 ADD SWAP1 POP JUMPDEST PUSH14 0x4EE2D6D415B85ACEF8100000000 DUP4 LT PUSH2 0x383D JUMPI PUSH14 0x4EE2D6D415B85ACEF8100000000 DUP4 DUP2 PUSH2 0x3833 JUMPI PUSH2 0x3832 PUSH2 0x45DE JUMP JUMPDEST JUMPDEST DIV SWAP3 POP PUSH1 0x20 DUP2 ADD SWAP1 POP JUMPDEST PUSH7 0x2386F26FC10000 DUP4 LT PUSH2 0x386C JUMPI PUSH7 0x2386F26FC10000 DUP4 DUP2 PUSH2 0x3862 JUMPI PUSH2 0x3861 PUSH2 0x45DE JUMP JUMPDEST JUMPDEST DIV SWAP3 POP PUSH1 0x10 DUP2 ADD SWAP1 POP JUMPDEST PUSH4 0x5F5E100 DUP4 LT PUSH2 0x3895 JUMPI PUSH4 0x5F5E100 DUP4 DUP2 PUSH2 0x388B JUMPI PUSH2 0x388A PUSH2 0x45DE JUMP JUMPDEST JUMPDEST DIV SWAP3 POP PUSH1 0x8 DUP2 ADD SWAP1 POP JUMPDEST PUSH2 0x2710 DUP4 LT PUSH2 0x38BA JUMPI PUSH2 0x2710 DUP4 DUP2 PUSH2 0x38B0 JUMPI PUSH2 0x38AF PUSH2 0x45DE JUMP JUMPDEST JUMPDEST DIV SWAP3 POP PUSH1 0x4 DUP2 ADD SWAP1 POP JUMPDEST PUSH1 0x64 DUP4 LT PUSH2 0x38DD JUMPI PUSH1 0x64 DUP4 DUP2 PUSH2 0x38D3 JUMPI PUSH2 0x38D2 PUSH2 0x45DE JUMP JUMPDEST JUMPDEST DIV SWAP3 POP PUSH1 0x2 DUP2 ADD SWAP1 POP JUMPDEST PUSH1 0xA DUP4 LT PUSH2 0x38EC JUMPI PUSH1 0x1 DUP2 ADD SWAP1 POP JUMPDEST DUP1 SWAP2 POP POP SWAP2 SWAP1 POP JUMP JUMPDEST PUSH1 0x0 PUSH1 0x40 MLOAD SWAP1 POP SWAP1 JUMP JUMPDEST PUSH1 0x0 DUP1 REVERT JUMPDEST PUSH1 0x0 DUP1 REVERT JUMPDEST PUSH1 0x0 DUP2 SWAP1 POP SWAP2 SWAP1 POP JUMP JUMPDEST PUSH2 0x391C DUP2 PUSH2 0x3909 JUMP JUMPDEST DUP2 EQ PUSH2 0x3927 JUMPI PUSH1 0x0 DUP1 REVERT JUMPDEST POP JUMP JUMPDEST PUSH1 0x0 DUP2 CALLDATALOAD SWAP1 POP PUSH2 0x3939 DUP2 PUSH2 0x3913 JUMP JUMPDEST SWAP3 SWAP2 POP POP JUMP JUMPDEST PUSH1 0x0 PUSH1 0x20 DUP3 DUP5 SUB SLT ISZERO PUSH2 0x3955 JUMPI PUSH2 0x3954 PUSH2 0x38FF JUMP JUMPDEST JUMPDEST PUSH1 0x0 PUSH2 0x3963 DUP5 DUP3 DUP6 ADD PUSH2 0x392A JUMP JUMPDEST SWAP2 POP POP SWAP3 SWAP2 POP POP JUMP JUMPDEST PUSH1 0x0 DUP2 MLOAD SWAP1 POP SWAP2 SWAP1 POP JUMP JUMPDEST PUSH1 0x0 DUP3 DUP3 MSTORE PUSH1 0x20 DUP3 ADD SWAP1 POP SWAP3 SWAP2 POP POP JUMP JUMPDEST PUSH1 0x0 JUMPDEST DUP4 DUP2 LT ISZERO PUSH2 0x39A6 JUMPI DUP1 DUP3 ADD MLOAD DUP2 DUP5 ADD MSTORE PUSH1 0x20 DUP2 ADD SWAP1 POP PUSH2 0x398B JUMP JUMPDEST PUSH1 0x0 DUP5 DUP5 ADD MSTORE POP POP POP POP JUMP JUMPDEST PUSH1 0x0 PUSH1 0x1F NOT PUSH1 0x1F DUP4 ADD AND SWAP1 POP SWAP2 SWAP1 POP JUMP JUMPDEST PUSH1 0x0 PUSH2 0x39CE DUP3 PUSH2 0x396C JUMP JUMPDEST PUSH2 0x39D8 DUP2 DUP6 PUSH2 0x3977 JUMP JUMPDEST SWAP4 POP PUSH2 0x39E8 DUP2 DUP6 PUSH1 0x20 DUP7 ADD PUSH2 0x3988 JUMP JUMPDEST PUSH2 0x39F1 DUP2 PUSH2 0x39B2 JUMP JUMPDEST DUP5 ADD SWAP2 POP POP SWAP3 SWAP2 POP POP JUMP JUMPDEST PUSH1 0x0 PUSH1 0x20 DUP3 ADD SWAP1 POP DUP2 DUP2 SUB PUSH1 0x0 DUP4 ADD MSTORE PUSH2 0x3A16 DUP2 DUP5 PUSH2 0x39C3 JUMP JUMPDEST SWAP1 POP SWAP3 SWAP2 POP POP JUMP JUMPDEST PUSH1 0x0 PUSH32 0xFFFFFFFF00000000000000000000000000000000000000000000000000000000 DUP3 AND SWAP1 POP SWAP2 SWAP1 POP JUMP JUMPDEST PUSH2 0x3A53 DUP2 PUSH2 0x3A1E JUMP JUMPDEST DUP2 EQ PUSH2 0x3A5E JUMPI PUSH1 0x0 DUP1 REVERT JUMPDEST POP JUMP JUMPDEST PUSH1 0x0 DUP2 CALLDATALOAD SWAP1 POP PUSH2 0x3A70 DUP2 PUSH2 0x3A4A JUMP JUMPDEST SWAP3 SWAP2 POP POP JUMP JUMPDEST PUSH1 0x0 PUSH1 0x20 DUP3 DUP5 SUB SLT ISZERO PUSH2 0x3A8C JUMPI PUSH2 0x3A8B PUSH2 0x38FF JUMP JUMPDEST JUMPDEST PUSH1 0x0 PUSH2 0x3A9A DUP5 DUP3 DUP6 ADD PUSH2 0x3A61 JUMP JUMPDEST SWAP2 POP POP SWAP3 SWAP2 POP POP JUMP JUMPDEST PUSH1 0x0 DUP2 ISZERO ISZERO SWAP1 POP SWAP2 SWAP1 POP JUMP JUMPDEST PUSH2 0x3AB8 DUP2 PUSH2 0x3AA3 JUMP JUMPDEST DUP3 MSTORE POP POP JUMP JUMPDEST PUSH1 0x0 PUSH1 0x20 DUP3 ADD SWAP1 POP PUSH2 0x3AD3 PUSH1 0x0 DUP4 ADD DUP5 PUSH2 0x3AAF JUMP JUMPDEST SWAP3 SWAP2 POP POP JUMP JUMPDEST PUSH1 0x0 PUSH20 0xFFFFFFFFFFFFFFFFFFFFFFFFFFFFFFFFFFFFFFFF DUP3 AND SWAP1 POP SWAP2 SWAP1 POP JUMP JUMPDEST PUSH1 0x0 PUSH2 0x3B04 DUP3 PUSH2 0x3AD9 JUMP JUMPDEST SWAP1 POP SWAP2 SWAP1 POP JUMP JUMPDEST PUSH2 0x3B14 DUP2 PUSH2 0x3AF9 JUMP JUMPDEST DUP2 EQ PUSH2 0x3B1F JUMPI PUSH1 0x0 DUP1 REVERT JUMPDEST POP JUMP JUMPDEST PUSH1 0x0 DUP2 CALLDATALOAD SWAP1 POP PUSH2 0x3B31 DUP2 PUSH2 0x3B0B JUMP JUMPDEST SWAP3 SWAP2 POP POP JUMP JUMPDEST PUSH1 0x0 PUSH1 0x20 DUP3 DUP5 SUB SLT ISZERO PUSH2 0x3B4D JUMPI PUSH2 0x3B4C PUSH2 0x38FF JUMP JUMPDEST JUMPDEST PUSH1 0x0 PUSH2 0x3B5B DUP5 DUP3 DUP6 ADD PUSH2 0x3B22 JUMP JUMPDEST SWAP2 POP POP SWAP3 SWAP2 POP POP JUMP JUMPDEST PUSH2 0x3B6D DUP2 PUSH2 0x3AF9 JUMP JUMPDEST DUP3 MSTORE POP POP JUMP JUMPDEST PUSH1 0x0 PUSH1 0x20 DUP3 ADD SWAP1 POP PUSH2 0x3B88 PUSH1 0x0 DUP4 ADD DUP5 PUSH2 0x3B64 JUMP JUMPDEST SWAP3 SWAP2 POP POP JUMP JUMPDEST PUSH1 0x0 DUP1 PUSH1 0x40 DUP4 DUP6 SUB SLT ISZERO PUSH2 0x3BA5 JUMPI PUSH2 0x3BA4 PUSH2 0x38FF JUMP JUMPDEST JUMPDEST PUSH1 0x0 PUSH2 0x3BB3 DUP6 DUP3 DUP7 ADD PUSH2 0x3B22 JUMP JUMPDEST SWAP3 POP POP PUSH1 0x20 PUSH2 0x3BC4 DUP6 DUP3 DUP7 ADD PUSH2 0x392A JUMP JUMPDEST SWAP2 POP POP SWAP3 POP SWAP3 SWAP1 POP JUMP JUMPDEST PUSH1 0x0 DUP2 MLOAD SWAP1 POP SWAP2 SWAP1 POP JUMP JUMPDEST PUSH1 0x0 DUP3 DUP3 MSTORE PUSH1 0x20 DUP3 ADD SWAP1 POP SWAP3 SWAP2 POP POP JUMP JUMPDEST PUSH1 0x0 DUP2 SWAP1 POP PUSH1 0x20 DUP3 ADD SWAP1 POP SWAP2 SWAP1 POP JUMP JUMPDEST PUSH2 0x3C03 DUP2 PUSH2 0x3909 JUMP JUMPDEST DUP3 MSTORE POP POP JUMP JUMPDEST PUSH1 0x0 PUSH2 0x3C15 DUP4 DUP4 PUSH2 0x3BFA JUMP JUMPDEST PUSH1 0x20 DUP4 ADD SWAP1 POP SWAP3 SWAP2 POP POP JUMP JUMPDEST PUSH1 0x0 PUSH1 0x20 DUP3 ADD SWAP1 POP SWAP2 SWAP1 POP JUMP JUMPDEST PUSH1 0x0 PUSH2 0x3C39 DUP3 PUSH2 0x3BCE JUMP JUMPDEST PUSH2 0x3C43 DUP2 DUP6 PUSH2 0x3BD9 JUMP JUMPDEST SWAP4 POP PUSH2 0x3C4E DUP4 PUSH2 0x3BEA JUMP JUMPDEST DUP1 PUSH1 0x0 JUMPDEST DUP4 DUP2 LT ISZERO PUSH2 0x3C7F JUMPI DUP2 MLOAD PUSH2 0x3C66 DUP9 DUP3 PUSH2 0x3C09 JUMP JUMPDEST SWAP8 POP PUSH2 0x3C71 DUP4 PUSH2 0x3C21 JUMP JUMPDEST SWAP3 POP POP PUSH1 0x1 DUP2 ADD SWAP1 POP PUSH2 0x3C52 JUMP JUMPDEST POP DUP6 SWAP4 POP POP POP POP SWAP3 SWAP2 POP POP JUMP JUMPDEST PUSH1 0x0 PUSH1 0x20 DUP3 ADD SWAP1 POP DUP2 DUP2 SUB PUSH1 0x0 DUP4 ADD MSTORE PUSH2 0x3CA6 DUP2 DUP5 PUSH2 0x3C2E JUMP JUMPDEST SWAP1 POP SWAP3 SWAP2 POP POP JUMP JUMPDEST PUSH2 0x3CB7 DUP2 PUSH2 0x3909 JUMP JUMPDEST DUP3 MSTORE POP POP JUMP JUMPDEST PUSH1 0x0 PUSH1 0x20 DUP3 ADD SWAP1 POP PUSH2 0x3CD2 PUSH1 0x0 DUP4 ADD DUP5 PUSH2 0x3CAE JUMP JUMPDEST SWAP3 SWAP2 POP POP JUMP JUMPDEST PUSH1 0x0 DUP1 PUSH1 0x0 PUSH1 0x60 DUP5 DUP7 SUB SLT ISZERO PUSH2 0x3CF1 JUMPI PUSH2 0x3CF0 PUSH2 0x38FF JUMP JUMPDEST JUMPDEST PUSH1 0x0 PUSH2 0x3CFF DUP7 DUP3 DUP8 ADD PUSH2 0x3B22 JUMP JUMPDEST SWAP4 POP POP PUSH1 0x20 PUSH2 0x3D10 DUP7 DUP3 DUP8 ADD PUSH2 0x3B22 JUMP JUMPDEST SWAP3 POP POP PUSH1 0x40 PUSH2 0x3D21 DUP7 DUP3 DUP8 ADD PUSH2 0x392A JUMP JUMPDEST SWAP2 POP POP SWAP3 POP SWAP3 POP SWAP3 JUMP JUMPDEST PUSH1 0x0 DUP1 PUSH1 0x40 DUP4 DUP6 SUB SLT ISZERO PUSH2 0x3D42 JUMPI PUSH2 0x3D41 PUSH2 0x38FF JUMP JUMPDEST JUMPDEST PUSH1 0x0 PUSH2 0x3D50 DUP6 DUP3 DUP7 ADD PUSH2 0x392A JUMP JUMPDEST SWAP3 POP POP PUSH1 0x20 PUSH2 0x3D61 DUP6 DUP3 DUP7 ADD PUSH2 0x392A JUMP JUMPDEST SWAP2 POP POP SWAP3 POP SWAP3 SWAP1 POP JUMP JUMPDEST PUSH32 0x4E487B7100000000000000000000000000000000000000000000000000000000 PUSH1 0x0 MSTORE PUSH1 0x21 PUSH1 0x4 MSTORE PUSH1 0x24 PUSH1 0x0 REVERT JUMPDEST PUSH1 0x4 DUP2 LT PUSH2 0x3DAB JUMPI PUSH2 0x3DAA PUSH2 0x3D6B JUMP JUMPDEST JUMPDEST POP JUMP JUMPDEST PUSH1 0x0 DUP2 SWAP1 POP PUSH2 0x3DBC DUP3 PUSH2 0x3D9A JUMP JUMPDEST SWAP2 SWAP1 POP JUMP JUMPDEST PUSH1 0x0 PUSH2 0x3DCC DUP3 PUSH2 0x3DAE JUMP JUMPDEST SWAP1 POP SWAP2 SWAP1 POP JUMP JUMPDEST PUSH2 0x3DDC DUP2 PUSH2 0x3DC1 JUMP JUMPDEST DUP3 MSTORE POP POP JUMP JUMPDEST PUSH1 0x0 PUSH1 0x20 DUP3 ADD SWAP1 POP PUSH2 0x3DF7 PUSH1 0x0 DUP4 ADD DUP5 PUSH2 0x3DD3 JUMP JUMPDEST SWAP3 SWAP2 POP POP JUMP JUMPDEST PUSH2 0x3E06 DUP2 PUSH2 0x3AA3 JUMP JUMPDEST DUP2 EQ PUSH2 0x3E11 JUMPI PUSH1 0x0 DUP1 REVERT JUMPDEST POP JUMP JUMPDEST PUSH1 0x0 DUP2 CALLDATALOAD SWAP1 POP PUSH2 0x3E23 DUP2 PUSH2 0x3DFD JUMP JUMPDEST SWAP3 SWAP2 POP POP JUMP JUMPDEST PUSH1 0x0 DUP1 PUSH1 0x40 DUP4 DUP6 SUB SLT ISZERO PUSH2 0x3E40 JUMPI PUSH2 0x3E3F PUSH2 0x38FF JUMP JUMPDEST JUMPDEST PUSH1 0x0 PUSH2 0x3E4E DUP6 DUP3 DUP7 ADD PUSH2 0x3B22 JUMP JUMPDEST SWAP3 POP POP PUSH1 0x20 PUSH2 0x3E5F DUP6 DUP3 DUP7 ADD PUSH2 0x3E14 JUMP JUMPDEST SWAP2 POP POP SWAP3 POP SWAP3 SWAP1 POP JUMP JUMPDEST PUSH1 0x0 DUP2 MLOAD SWAP1 POP SWAP2 SWAP1 POP JUMP JUMPDEST PUSH1 0x0 DUP3 DUP3 MSTORE PUSH1 0x20 DUP3 ADD SWAP1 POP SWAP3 SWAP2 POP POP JUMP JUMPDEST PUSH1 0x0 DUP2 SWAP1 POP PUSH1 0x20 DUP3 ADD SWAP1 POP SWAP2 SWAP1 POP JUMP JUMPDEST PUSH2 0x3E9E DUP2 PUSH2 0x3AF9 JUMP JUMPDEST DUP3 MSTORE POP POP JUMP JUMPDEST PUSH1 0x0 PUSH2 0x3EB0 DUP4 DUP4 PUSH2 0x3E95 JUMP JUMPDEST PUSH1 0x20 DUP4 ADD SWAP1 POP SWAP3 SWAP2 POP POP JUMP JUMPDEST PUSH1 0x0 PUSH1 0x20 DUP3 ADD SWAP1 POP SWAP2 SWAP1 POP JUMP JUMPDEST PUSH1 0x0 PUSH2 0x3ED4 DUP3 PUSH2 0x3E69 JUMP JUMPDEST PUSH2 0x3EDE DUP2 DUP6 PUSH2 0x3E74 JUMP JUMPDEST SWAP4 POP PUSH2 0x3EE9 DUP4 PUSH2 0x3E85 JUMP JUMPDEST DUP1 PUSH1 0x0 JUMPDEST DUP4 DUP2 LT ISZERO PUSH2 0x3F1A JUMPI DUP2 MLOAD PUSH2 0x3F01 DUP9 DUP3 PUSH2 0x3EA4 JUMP JUMPDEST SWAP8 POP PUSH2 0x3F0C DUP4 PUSH2 0x3EBC JUMP JUMPDEST SWAP3 POP POP PUSH1 0x1 DUP2 ADD SWAP1 POP PUSH2 0x3EED JUMP JUMPDEST POP DUP6 SWAP4 POP POP POP POP SWAP3 SWAP2 POP POP JUMP JUMPDEST PUSH1 0x0 PUSH1 0x20 DUP3 ADD SWAP1 POP DUP2 DUP2 SUB PUSH1 0x0 DUP4 ADD MSTORE PUSH2 0x3F41 DUP2 DUP5 PUSH2 0x3EC9 JUMP JUMPDEST SWAP1 POP SWAP3 SWAP2 POP POP JUMP JUMPDEST PUSH1 0x0 PUSH1 0x40 DUP3 ADD SWAP1 POP PUSH2 0x3F5E PUSH1 0x0 DUP4 ADD DUP6 PUSH2 0x3CAE JUMP JUMPDEST PUSH2 0x3F6B PUSH1 0x20 DUP4 ADD DUP5 PUSH2 0x3DD3 JUMP JUMPDEST SWAP4 SWAP3 POP POP POP JUMP JUMPDEST PUSH1 0x0 DUP1 REVERT JUMPDEST PUSH1 0x0 DUP1 REVERT JUMPDEST PUSH32 0x4E487B7100000000000000000000000000000000000000000000000000000000 PUSH1 0x0 MSTORE PUSH1 0x41 PUSH1 0x4 MSTORE PUSH1 0x24 PUSH1 0x0 REVERT JUMPDEST PUSH2 0x3FB4 DUP3 PUSH2 0x39B2 JUMP JUMPDEST DUP2 ADD DUP2 DUP2 LT PUSH8 0xFFFFFFFFFFFFFFFF DUP3 GT OR ISZERO PUSH2 0x3FD3 JUMPI PUSH2 0x3FD2 PUSH2 0x3F7C JUMP JUMPDEST JUMPDEST DUP1 PUSH1 0x40 MSTORE POP POP POP JUMP JUMPDEST PUSH1 0x0 PUSH2 0x3FE6 PUSH2 0x38F5 JUMP JUMPDEST SWAP1 POP PUSH2 0x3FF2 DUP3 DUP3 PUSH2 0x3FAB JUMP JUMPDEST SWAP2 SWAP1 POP JUMP JUMPDEST PUSH1 0x0 PUSH8 0xFFFFFFFFFFFFFFFF DUP3 GT ISZERO PUSH2 0x4012 JUMPI PUSH2 0x4011 PUSH2 0x3F7C JUMP JUMPDEST JUMPDEST PUSH2 0x401B DUP3 PUSH2 0x39B2 JUMP JUMPDEST SWAP1 POP PUSH1 0x20 DUP2 ADD SWAP1 POP SWAP2 SWAP1 POP JUMP JUMPDEST DUP3 DUP2 DUP4 CALLDATACOPY PUSH1 0x0 DUP4 DUP4 ADD MSTORE POP POP POP JUMP JUMPDEST PUSH1 0x0 PUSH2 0x404A PUSH2 0x4045 DUP5 PUSH2 0x3FF7 JUMP JUMPDEST PUSH2 0x3FDC JUMP JUMPDEST SWAP1 POP DUP3 DUP2 MSTORE PUSH1 0x20 DUP2 ADD DUP5 DUP5 DUP5 ADD GT ISZERO PUSH2 0x4066 JUMPI PUSH2 0x4065 PUSH2 0x3F77 JUMP JUMPDEST JUMPDEST PUSH2 0x4071 DUP5 DUP3 DUP6 PUSH2 0x4028 JUMP JUMPDEST POP SWAP4 SWAP3 POP POP POP JUMP JUMPDEST PUSH1 0x0 DUP3 PUSH1 0x1F DUP4 ADD SLT PUSH2 0x408E JUMPI PUSH2 0x408D PUSH2 0x3F72 JUMP JUMPDEST JUMPDEST DUP2 CALLDATALOAD PUSH2 0x409E DUP5 DUP3 PUSH1 0x20 DUP7 ADD PUSH2 0x4037 JUMP JUMPDEST SWAP2 POP POP SWAP3 SWAP2 POP POP JUMP JUMPDEST PUSH1 0x0 DUP1 PUSH1 0x40 DUP4 DUP6 SUB SLT ISZERO PUSH2 0x40BE JUMPI PUSH2 0x40BD PUSH2 0x38FF JUMP JUMPDEST JUMPDEST PUSH1 0x0 DUP4 ADD CALLDATALOAD PUSH8 0xFFFFFFFFFFFFFFFF DUP2 GT ISZERO PUSH2 0x40DC JUMPI PUSH2 0x40DB PUSH2 0x3904 JUMP JUMPDEST JUMPDEST PUSH2 0x40E8 DUP6 DUP3 DUP7 ADD PUSH2 0x4079 JUMP JUMPDEST SWAP3 POP POP PUSH1 0x20 PUSH2 0x40F9 DUP6 DUP3 DUP7 ADD PUSH2 0x392A JUMP JUMPDEST SWAP2 POP POP SWAP3 POP SWAP3 SWAP1 POP JUMP JUMPDEST PUSH1 0x0 PUSH1 0x20 DUP3 DUP5 SUB SLT ISZERO PUSH2 0x4119 JUMPI PUSH2 0x4118 PUSH2 0x38FF JUMP JUMPDEST JUMPDEST PUSH1 0x0 PUSH2 0x4127 DUP5 DUP3 DUP6 ADD PUSH2 0x3E14 JUMP JUMPDEST SWAP2 POP POP SWAP3 SWAP2 POP POP JUMP JUMPDEST PUSH1 0x0 PUSH8 0xFFFFFFFFFFFFFFFF DUP3 GT ISZERO PUSH2 0x414B JUMPI PUSH2 0x414A PUSH2 0x3F7C JUMP JUMPDEST JUMPDEST PUSH2 0x4154 DUP3 PUSH2 0x39B2 JUMP JUMPDEST SWAP1 POP PUSH1 0x20 DUP2 ADD SWAP1 POP SWAP2 SWAP1 POP JUMP JUMPDEST PUSH1 0x0 PUSH2 0x4174 PUSH2 0x416F DUP5 PUSH2 0x4130 JUMP JUMPDEST PUSH2 0x3FDC JUMP JUMPDEST SWAP1 POP DUP3 DUP2 MSTORE PUSH1 0x20 DUP2 ADD DUP5 DUP5 DUP5 ADD GT ISZERO PUSH2 0x4190 JUMPI PUSH2 0x418F PUSH2 0x3F77 JUMP JUMPDEST JUMPDEST PUSH2 0x419B DUP5 DUP3 DUP6 PUSH2 0x4028 JUMP JUMPDEST POP SWAP4 SWAP3 POP POP POP JUMP JUMPDEST PUSH1 0x0 DUP3 PUSH1 0x1F DUP4 ADD SLT PUSH2 0x41B8 JUMPI PUSH2 0x41B7 PUSH2 0x3F72 JUMP JUMPDEST JUMPDEST DUP2 CALLDATALOAD PUSH2 0x41C8 DUP5 DUP3 PUSH1 0x20 DUP7 ADD PUSH2 0x4161 JUMP JUMPDEST SWAP2 POP POP SWAP3 SWAP2 POP POP JUMP JUMPDEST PUSH1 0x0 DUP1 PUSH1 0x0 DUP1 PUSH1 0x80 DUP6 DUP8 SUB SLT ISZERO PUSH2 0x41EB JUMPI PUSH2 0x41EA PUSH2 0x38FF JUMP JUMPDEST JUMPDEST PUSH1 0x0 PUSH2 0x41F9 DUP8 DUP3 DUP9 ADD PUSH2 0x3B22 JUMP JUMPDEST SWAP5 POP POP PUSH1 0x20 PUSH2 0x420A DUP8 DUP3 DUP9 ADD PUSH2 0x3B22 JUMP JUMPDEST SWAP4 POP POP PUSH1 0x40 PUSH2 0x421B DUP8 DUP3 DUP9 ADD PUSH2 0x392A JUMP JUMPDEST SWAP3 POP POP PUSH1 0x60 DUP6 ADD CALLDATALOAD PUSH8 0xFFFFFFFFFFFFFFFF DUP2 GT ISZERO PUSH2 0x423C JUMPI PUSH2 0x423B PUSH2 0x3904 JUMP JUMPDEST JUMPDEST PUSH2 0x4248 DUP8 DUP3 DUP9 ADD PUSH2 0x41A3 JUMP JUMPDEST SWAP2 POP POP SWAP3 SWAP6 SWAP2 SWAP5 POP SWAP3 POP JUMP JUMPDEST PUSH1 0x0 DUP1 PUSH1 0x40 DUP4 DUP6 SUB SLT ISZERO PUSH2 0x426B JUMPI PUSH2 0x426A PUSH2 0x38FF JUMP JUMPDEST JUMPDEST PUSH1 0x0 PUSH2 0x4279 DUP6 DUP3 DUP7 ADD PUSH2 0x3B22 JUMP JUMPDEST SWAP3 POP POP PUSH1 0x20 PUSH2 0x428A DUP6 DUP3 DUP7 ADD PUSH2 0x3B22 JUMP JUMPDEST SWAP2 POP POP SWAP3 POP SWAP3 SWAP1 POP JUMP JUMPDEST PUSH32 0x4E487B7100000000000000000000000000000000000000000000000000000000 PUSH1 0x0 MSTORE PUSH1 0x22 PUSH1 0x4 MSTORE PUSH1 0x24 PUSH1 0x0 REVERT JUMPDEST PUSH1 0x0 PUSH1 0x2 DUP3 DIV SWAP1 POP PUSH1 0x1 DUP3 AND DUP1 PUSH2 0x42DB JUMPI PUSH1 0x7F DUP3 AND SWAP2 POP JUMPDEST PUSH1 0x20 DUP3 LT DUP2 SUB PUSH2 0x42EE JUMPI PUSH2 0x42ED PUSH2 0x4294 JUMP JUMPDEST JUMPDEST POP SWAP2 SWAP1 POP JUMP JUMPDEST PUSH32 0x4552433732313A20617070726F76616C20746F2063757272656E74206F776E65 PUSH1 0x0 DUP3 ADD MSTORE PUSH32 0x7200000000000000000000000000000000000000000000000000000000000000 PUSH1 0x20 DUP3 ADD MSTORE POP JUMP JUMPDEST PUSH1 0x0 PUSH2 0x4350 PUSH1 0x21 DUP4 PUSH2 0x3977 JUMP JUMPDEST SWAP2 POP PUSH2 0x435B DUP3 PUSH2 0x42F4 JUMP JUMPDEST PUSH1 0x40 DUP3 ADD SWAP1 POP SWAP2 SWAP1 POP JUMP JUMPDEST PUSH1 0x0 PUSH1 0x20 DUP3 ADD SWAP1 POP DUP2 DUP2 SUB PUSH1 0x0 DUP4 ADD MSTORE PUSH2 0x437F DUP2 PUSH2 0x4343 JUMP JUMPDEST SWAP1 POP SWAP2 SWAP1 POP JUMP JUMPDEST PUSH32 0x4552433732313A20617070726F76652063616C6C6572206973206E6F7420746F PUSH1 0x0 DUP3 ADD MSTORE PUSH32 0x6B656E206F776E6572206F7220617070726F76656420666F7220616C6C000000 PUSH1 0x20 DUP3 ADD MSTORE POP JUMP JUMPDEST PUSH1 0x0 PUSH2 0x43E2 PUSH1 0x3D DUP4 PUSH2 0x3977 JUMP JUMPDEST SWAP2 POP PUSH2 0x43ED DUP3 PUSH2 0x4386 JUMP JUMPDEST PUSH1 0x40 DUP3 ADD SWAP1 POP SWAP2 SWAP1 POP JUMP JUMPDEST PUSH1 0x0 PUSH1 0x20 DUP3 ADD SWAP1 POP DUP2 DUP2 SUB PUSH1 0x0 DUP4 ADD MSTORE PUSH2 0x4411 DUP2 PUSH2 0x43D5 JUMP JUMPDEST SWAP1 POP SWAP2 SWAP1 POP JUMP JUMPDEST PUSH32 0x596F752068617665207265616368656420746865206C696D6974206F66206D69 PUSH1 0x0 DUP3 ADD MSTORE PUSH32 0x6E74696E67000000000000000000000000000000000000000000000000000000 PUSH1 0x20 DUP3 ADD MSTORE POP JUMP JUMPDEST PUSH1 0x0 PUSH2 0x4474 PUSH1 0x25 DUP4 PUSH2 0x3977 JUMP JUMPDEST SWAP2 POP PUSH2 0x447F DUP3 PUSH2 0x4418 JUMP JUMPDEST PUSH1 0x40 DUP3 ADD SWAP1 POP SWAP2 SWAP1 POP JUMP JUMPDEST PUSH1 0x0 PUSH1 0x20 DUP3 ADD SWAP1 POP DUP2 DUP2 SUB PUSH1 0x0 DUP4 ADD MSTORE PUSH2 0x44A3 DUP2 PUSH2 0x4467 JUMP JUMPDEST SWAP1 POP SWAP2 SWAP1 POP JUMP JUMPDEST PUSH32 0x496E73756666696369656E742065746865722073656E74000000000000000000 PUSH1 0x0 DUP3 ADD MSTORE POP JUMP JUMPDEST PUSH1 0x0 PUSH2 0x44E0 PUSH1 0x17 DUP4 PUSH2 0x3977 JUMP JUMPDEST SWAP2 POP PUSH2 0x44EB DUP3 PUSH2 0x44AA JUMP JUMPDEST PUSH1 0x20 DUP3 ADD SWAP1 POP SWAP2 SWAP1 POP JUMP JUMPDEST PUSH1 0x0 PUSH1 0x20 DUP3 ADD SWAP1 POP DUP2 DUP2 SUB PUSH1 0x0 DUP4 ADD MSTORE PUSH2 0x450F DUP2 PUSH2 0x44D3 JUMP JUMPDEST SWAP1 POP SWAP2 SWAP1 POP JUMP JUMPDEST PUSH1 0x0 DUP2 SWAP1 POP SWAP2 SWAP1 POP JUMP JUMPDEST PUSH2 0x4531 PUSH2 0x452C DUP3 PUSH2 0x3909 JUMP JUMPDEST PUSH2 0x4516 JUMP JUMPDEST DUP3 MSTORE POP POP JUMP JUMPDEST PUSH1 0x0 DUP2 PUSH1 0x60 SHL SWAP1 POP SWAP2 SWAP1 POP JUMP JUMPDEST PUSH1 0x0 PUSH2 0x454F DUP3 PUSH2 0x4537 JUMP JUMPDEST SWAP1 POP SWAP2 SWAP1 POP JUMP JUMPDEST PUSH1 0x0 PUSH2 0x4561 DUP3 PUSH2 0x4544 JUMP JUMPDEST SWAP1 POP SWAP2 SWAP1 POP JUMP JUMPDEST PUSH2 0x4579 PUSH2 0x4574 DUP3 PUSH2 0x3AF9 JUMP JUMPDEST PUSH2 0x4556 JUMP JUMPDEST DUP3 MSTORE POP POP JUMP JUMPDEST PUSH1 0x0 PUSH2 0x458B DUP3 DUP9 PUSH2 0x4520 JUMP JUMPDEST PUSH1 0x20 DUP3 ADD SWAP2 POP PUSH2 0x459B DUP3 DUP8 PUSH2 0x4520 JUMP JUMPDEST PUSH1 0x20 DUP3 ADD SWAP2 POP PUSH2 0x45AB DUP3 DUP7 PUSH2 0x4520 JUMP JUMPDEST PUSH1 0x20 DUP3 ADD SWAP2 POP PUSH2 0x45BB DUP3 DUP6 PUSH2 0x4568 JUMP JUMPDEST PUSH1 0x14 DUP3 ADD SWAP2 POP PUSH2 0x45CB DUP3 DUP5 PUSH2 0x4568 JUMP JUMPDEST PUSH1 0x14 DUP3 ADD SWAP2 POP DUP2 SWAP1 POP SWAP7 SWAP6 POP POP POP POP POP POP JUMP JUMPDEST PUSH32 0x4E487B7100000000000000000000000000000000000000000000000000000000 PUSH1 0x0 MSTORE PUSH1 0x12 PUSH1 0x4 MSTORE PUSH1 0x24 PUSH1 0x0 REVERT JUMPDEST PUSH1 0x0 PUSH2 0x4618 DUP3 PUSH2 0x3909 JUMP JUMPDEST SWAP2 POP PUSH2 0x4623 DUP4 PUSH2 0x3909 JUMP JUMPDEST SWAP3 POP DUP3 PUSH2 0x4633 JUMPI PUSH2 0x4632 PUSH2 0x45DE JUMP JUMPDEST JUMPDEST DUP3 DUP3 MOD SWAP1 POP SWAP3 SWAP2 POP POP JUMP JUMPDEST PUSH32 0x4E487B7100000000000000000000000000000000000000000000000000000000 PUSH1 0x0 MSTORE PUSH1 0x11 PUSH1 0x4 MSTORE PUSH1 0x24 PUSH1 0x0 REVERT JUMPDEST PUSH1 0x0 PUSH2 0x4678 DUP3 PUSH2 0x3909 JUMP JUMPDEST SWAP2 POP PUSH2 0x4683 DUP4 PUSH2 0x3909 JUMP JUMPDEST SWAP3 POP DUP3 DUP3 ADD SWAP1 POP DUP1 DUP3 GT ISZERO PUSH2 0x469B JUMPI PUSH2 0x469A PUSH2 0x463E JUMP JUMPDEST JUMPDEST SWAP3 SWAP2 POP POP JUMP JUMPDEST PUSH32 0x4E487B7100000000000000000000000000000000000000000000000000000000 PUSH1 0x0 MSTORE PUSH1 0x32 PUSH1 0x4 MSTORE PUSH1 0x24 PUSH1 0x0 REVERT JUMPDEST PUSH1 0x0 PUSH2 0x46DB DUP3 PUSH2 0x3909 JUMP JUMPDEST SWAP2 POP PUSH32 0xFFFFFFFFFFFFFFFFFFFFFFFFFFFFFFFFFFFFFFFFFFFFFFFFFFFFFFFFFFFFFFFF DUP3 SUB PUSH2 0x470D JUMPI PUSH2 0x470C PUSH2 0x463E JUMP JUMPDEST JUMPDEST PUSH1 0x1 DUP3 ADD SWAP1 POP SWAP2 SWAP1 POP JUMP JUMPDEST PUSH1 0x0 PUSH1 0x60 DUP3 ADD SWAP1 POP PUSH2 0x472D PUSH1 0x0 DUP4 ADD DUP7 PUSH2 0x3CAE JUMP JUMPDEST PUSH2 0x473A PUSH1 0x20 DUP4 ADD DUP6 PUSH2 0x3B64 JUMP JUMPDEST PUSH2 0x4747 PUSH1 0x40 DUP4 ADD DUP5 PUSH2 0x3CAE JUMP JUMPDEST SWAP5 SWAP4 POP POP POP POP JUMP JUMPDEST PUSH32 0x4552433732313A2063616C6C6572206973206E6F7420746F6B656E206F776E65 PUSH1 0x0 DUP3 ADD MSTORE PUSH32 0x72206F7220617070726F76656400000000000000000000000000000000000000 PUSH1 0x20 DUP3 ADD MSTORE POP JUMP JUMPDEST PUSH1 0x0 PUSH2 0x47AB PUSH1 0x2D DUP4 PUSH2 0x3977 JUMP JUMPDEST SWAP2 POP PUSH2 0x47B6 DUP3 PUSH2 0x474F JUMP JUMPDEST PUSH1 0x40 DUP3 ADD SWAP1 POP SWAP2 SWAP1 POP JUMP JUMPDEST PUSH1 0x0 PUSH1 0x20 DUP3 ADD SWAP1 POP DUP2 DUP2 SUB PUSH1 0x0 DUP4 ADD MSTORE PUSH2 0x47DA DUP2 PUSH2 0x479E JUMP JUMPDEST SWAP1 POP SWAP2 SWAP1 POP JUMP JUMPDEST PUSH32 0x4E756D626572206F662077696E6E657273206D75737420626520677265617465 PUSH1 0x0 DUP3 ADD MSTORE PUSH32 0x72207468616E207A65726F000000000000000000000000000000000000000000 PUSH1 0x20 DUP3 ADD MSTORE POP JUMP JUMPDEST PUSH1 0x0 PUSH2 0x483D PUSH1 0x2B DUP4 PUSH2 0x3977 JUMP JUMPDEST SWAP2 POP PUSH2 0x4848 DUP3 PUSH2 0x47E1 JUMP JUMPDEST PUSH1 0x40 DUP3 ADD SWAP1 POP SWAP2 SWAP1 POP JUMP JUMPDEST PUSH1 0x0 PUSH1 0x20 DUP3 ADD SWAP1 POP DUP2 DUP2 SUB PUSH1 0x0 DUP4 ADD MSTORE PUSH2 0x486C DUP2 PUSH2 0x4830 JUMP JUMPDEST SWAP1 POP SWAP2 SWAP1 POP JUMP JUMPDEST PUSH32 0x4E756D626572206F662077696E6E657273206578636565647320746865206E75 PUSH1 0x0 DUP3 ADD MSTORE PUSH32 0x6D626572206F66206D696E74696E672061646472657373657300000000000000 PUSH1 0x20 DUP3 ADD MSTORE POP JUMP JUMPDEST PUSH1 0x0 PUSH2 0x48CF PUSH1 0x39 DUP4 PUSH2 0x3977 JUMP JUMPDEST SWAP2 POP PUSH2 0x48DA DUP3 PUSH2 0x4873 JUMP JUMPDEST PUSH1 0x40 DUP3 ADD SWAP1 POP SWAP2 SWAP1 POP JUMP JUMPDEST PUSH1 0x0 PUSH1 0x20 DUP3 ADD SWAP1 POP DUP2 DUP2 SUB PUSH1 0x0 DUP4 ADD MSTORE PUSH2 0x48FE DUP2 PUSH2 0x48C2 JUMP JUMPDEST SWAP1 POP SWAP2 SWAP1 POP JUMP JUMPDEST PUSH32 0x5265776172642070657263656E74616765206D75737420626520626574776565 PUSH1 0x0 DUP3 ADD MSTORE PUSH32 0x6E203120616E6420313030000000000000000000000000000000000000000000 PUSH1 0x20 DUP3 ADD MSTORE POP JUMP JUMPDEST PUSH1 0x0 PUSH2 0x4961 PUSH1 0x2B DUP4 PUSH2 0x3977 JUMP JUMPDEST SWAP2 POP PUSH2 0x496C DUP3 PUSH2 0x4905 JUMP JUMPDEST PUSH1 0x40 DUP3 ADD SWAP1 POP SWAP2 SWAP1 POP JUMP JUMPDEST PUSH1 0x0 PUSH1 0x20 DUP3 ADD SWAP1 POP DUP2 DUP2 SUB PUSH1 0x0 DUP4 ADD MSTORE PUSH2 0x4990 DUP2 PUSH2 0x4954 JUMP JUMPDEST SWAP1 POP SWAP2 SWAP1 POP JUMP JUMPDEST PUSH1 0x0 PUSH2 0x49A2 DUP3 PUSH2 0x3909 JUMP JUMPDEST SWAP2 POP PUSH2 0x49AD DUP4 PUSH2 0x3909 JUMP JUMPDEST SWAP3 POP DUP3 DUP3 MUL PUSH2 0x49BB DUP2 PUSH2 0x3909 JUMP JUMPDEST SWAP2 POP DUP3 DUP3 DIV DUP5 EQ DUP4 ISZERO OR PUSH2 0x49D2 JUMPI PUSH2 0x49D1 PUSH2 0x463E JUMP JUMPDEST JUMPDEST POP SWAP3 SWAP2 POP POP JUMP JUMPDEST PUSH1 0x0 PUSH2 0x49E4 DUP3 PUSH2 0x3909 JUMP JUMPDEST SWAP2 POP PUSH2 0x49EF DUP4 PUSH2 0x3909 JUMP JUMPDEST SWAP3 POP DUP3 PUSH2 0x49FF JUMPI PUSH2 0x49FE PUSH2 0x45DE JUMP JUMPDEST JUMPDEST DUP3 DUP3 DIV SWAP1 POP SWAP3 SWAP2 POP POP JUMP JUMPDEST PUSH32 0x4552433732313A20696E76616C696420746F6B656E2049440000000000000000 PUSH1 0x0 DUP3 ADD MSTORE POP JUMP JUMPDEST PUSH1 0x0 PUSH2 0x4A40 PUSH1 0x18 DUP4 PUSH2 0x3977 JUMP JUMPDEST SWAP2 POP PUSH2 0x4A4B DUP3 PUSH2 0x4A0A JUMP JUMPDEST PUSH1 0x20 DUP3 ADD SWAP1 POP SWAP2 SWAP1 POP JUMP JUMPDEST PUSH1 0x0 PUSH1 0x20 DUP3 ADD SWAP1 POP DUP2 DUP2 SUB PUSH1 0x0 DUP4 ADD MSTORE PUSH2 0x4A6F DUP2 PUSH2 0x4A33 JUMP JUMPDEST SWAP1 POP SWAP2 SWAP1 POP JUMP JUMPDEST PUSH32 0x546F6B656E20494420646F6573206E6F74206578697374000000000000000000 PUSH1 0x0 DUP3 ADD MSTORE POP JUMP JUMPDEST PUSH1 0x0 PUSH2 0x4AAC PUSH1 0x17 DUP4 PUSH2 0x3977 JUMP JUMPDEST SWAP2 POP PUSH2 0x4AB7 DUP3 PUSH2 0x4A76 JUMP JUMPDEST PUSH1 0x20 DUP3 ADD SWAP1 POP SWAP2 SWAP1 POP JUMP JUMPDEST PUSH1 0x0 PUSH1 0x20 DUP3 ADD SWAP1 POP DUP2 DUP2 SUB PUSH1 0x0 DUP4 ADD MSTORE PUSH2 0x4ADB DUP2 PUSH2 0x4A9F JUMP JUMPDEST SWAP1 POP SWAP2 SWAP1 POP JUMP JUMPDEST PUSH32 0x4552433732313A2061646472657373207A65726F206973206E6F742061207661 PUSH1 0x0 DUP3 ADD MSTORE PUSH32 0x6C6964206F776E65720000000000000000000000000000000000000000000000 PUSH1 0x20 DUP3 ADD MSTORE POP JUMP JUMPDEST PUSH1 0x0 PUSH2 0x4B3E PUSH1 0x29 DUP4 PUSH2 0x3977 JUMP JUMPDEST SWAP2 POP PUSH2 0x4B49 DUP3 PUSH2 0x4AE2 JUMP JUMPDEST PUSH1 0x40 DUP3 ADD SWAP1 POP SWAP2 SWAP1 POP JUMP JUMPDEST PUSH1 0x0 PUSH1 0x20 DUP3 ADD SWAP1 POP DUP2 DUP2 SUB PUSH1 0x0 DUP4 ADD MSTORE PUSH2 0x4B6D DUP2 PUSH2 0x4B31 JUMP JUMPDEST SWAP1 POP SWAP2 SWAP1 POP JUMP JUMPDEST PUSH32 0x596F7520617265206E6F7420746865206F776E6572206F662074686973204E46 PUSH1 0x0 DUP3 ADD MSTORE PUSH32 0x5400000000000000000000000000000000000000000000000000000000000000 PUSH1 0x20 DUP3 ADD MSTORE POP JUMP JUMPDEST PUSH1 0x0 PUSH2 0x4BD0 PUSH1 0x21 DUP4 PUSH2 0x3977 JUMP JUMPDEST SWAP2 POP PUSH2 0x4BDB DUP3 PUSH2 0x4B74 JUMP JUMPDEST PUSH1 0x40 DUP3 ADD SWAP1 POP SWAP2 SWAP1 POP JUMP JUMPDEST PUSH1 0x0 PUSH1 0x20 DUP3 ADD SWAP1 POP DUP2 DUP2 SUB PUSH1 0x0 DUP4 ADD MSTORE PUSH2 0x4BFF DUP2 PUSH2 0x4BC3 JUMP JUMPDEST SWAP1 POP SWAP2 SWAP1 POP JUMP JUMPDEST PUSH32 0x546F70206D7573742062652067726561746572207468616E207A65726F000000 PUSH1 0x0 DUP3 ADD MSTORE POP JUMP JUMPDEST PUSH1 0x0 PUSH2 0x4C3C PUSH1 0x1D DUP4 PUSH2 0x3977 JUMP JUMPDEST SWAP2 POP PUSH2 0x4C47 DUP3 PUSH2 0x4C06 JUMP JUMPDEST PUSH1 0x20 DUP3 ADD SWAP1 POP SWAP2 SWAP1 POP JUMP JUMPDEST PUSH1 0x0 PUSH1 0x20 DUP3 ADD SWAP1 POP DUP2 DUP2 SUB PUSH1 0x0 DUP4 ADD MSTORE PUSH2 0x4C6B DUP2 PUSH2 0x4C2F JUMP JUMPDEST SWAP1 POP SWAP2 SWAP1 POP JUMP JUMPDEST PUSH32 0x546F70206578636565647320746865206E756D626572206F66206D696E74696E PUSH1 0x0 DUP3 ADD MSTORE PUSH32 0x6720616464726573736573000000000000000000000000000000000000000000 PUSH1 0x20 DUP3 ADD MSTORE POP JUMP JUMPDEST PUSH1 0x0 PUSH2 0x4CCE PUSH1 0x2B DUP4 PUSH2 0x3977 JUMP JUMPDEST SWAP2 POP PUSH2 0x4CD9 DUP3 PUSH2 0x4C72 JUMP JUMPDEST PUSH1 0x40 DUP3 ADD SWAP1 POP SWAP2 SWAP1 POP JUMP JUMPDEST PUSH1 0x0 PUSH1 0x20 DUP3 ADD SWAP1 POP DUP2 DUP2 SUB PUSH1 0x0 DUP4 ADD MSTORE PUSH2 0x4CFD DUP2 PUSH2 0x4CC1 JUMP JUMPDEST SWAP1 POP SWAP2 SWAP1 POP JUMP JUMPDEST PUSH1 0x0 DUP2 SWAP1 POP DUP2 PUSH1 0x0 MSTORE PUSH1 0x20 PUSH1 0x0 KECCAK256 SWAP1 POP SWAP2 SWAP1 POP JUMP JUMPDEST PUSH1 0x0 PUSH1 0x20 PUSH1 0x1F DUP4 ADD DIV SWAP1 POP SWAP2 SWAP1 POP JUMP JUMPDEST PUSH1 0x0 DUP3 DUP3 SHL SWAP1 POP SWAP3 SWAP2 POP POP JUMP JUMPDEST PUSH1 0x0 PUSH1 0x8 DUP4 MUL PUSH2 0x4D66 PUSH32 0xFFFFFFFFFFFFFFFFFFFFFFFFFFFFFFFFFFFFFFFFFFFFFFFFFFFFFFFFFFFFFFFF DUP3 PUSH2 0x4D29 JUMP JUMPDEST PUSH2 0x4D70 DUP7 DUP4 PUSH2 0x4D29 JUMP JUMPDEST SWAP6 POP DUP1 NOT DUP5 AND SWAP4 POP DUP1 DUP7 AND DUP5 OR SWAP3 POP POP POP SWAP4 SWAP3 POP POP POP JUMP JUMPDEST PUSH1 0x0 DUP2 SWAP1 POP SWAP2 SWAP1 POP JUMP JUMPDEST PUSH1 0x0 PUSH2 0x4DAD PUSH2 0x4DA8 PUSH2 0x4DA3 DUP5 PUSH2 0x3909 JUMP JUMPDEST PUSH2 0x4D88 JUMP JUMPDEST PUSH2 0x3909 JUMP JUMPDEST SWAP1 POP SWAP2 SWAP1 POP JUMP JUMPDEST PUSH1 0x0 DUP2 SWAP1 POP SWAP2 SWAP1 POP JUMP JUMPDEST PUSH2 0x4DC7 DUP4 PUSH2 0x4D92 JUMP JUMPDEST PUSH2 0x4DDB PUSH2 0x4DD3 DUP3 PUSH2 0x4DB4 JUMP JUMPDEST DUP5 DUP5 SLOAD PUSH2 0x4D36 JUMP JUMPDEST DUP3 SSTORE POP POP POP POP JUMP JUMPDEST PUSH1 0x0 SWAP1 JUMP JUMPDEST PUSH2 0x4DF0 PUSH2 0x4DE3 JUMP JUMPDEST PUSH2 0x4DFB DUP2 DUP5 DUP5 PUSH2 0x4DBE JUMP JUMPDEST POP POP POP JUMP JUMPDEST JUMPDEST DUP2 DUP2 LT ISZERO PUSH2 0x4E1F JUMPI PUSH2 0x4E14 PUSH1 0x0 DUP3 PUSH2 0x4DE8 JUMP JUMPDEST PUSH1 0x1 DUP2 ADD SWAP1 POP PUSH2 0x4E01 JUMP JUMPDEST POP POP JUMP JUMPDEST PUSH1 0x1F DUP3 GT ISZERO PUSH2 0x4E64 JUMPI PUSH2 0x4E35 DUP2 PUSH2 0x4D04 JUMP JUMPDEST PUSH2 0x4E3E DUP5 PUSH2 0x4D19 JUMP JUMPDEST DUP2 ADD PUSH1 0x20 DUP6 LT ISZERO PUSH2 0x4E4D JUMPI DUP2 SWAP1 POP JUMPDEST PUSH2 0x4E61 PUSH2 0x4E59 DUP6 PUSH2 0x4D19 JUMP JUMPDEST DUP4 ADD DUP3 PUSH2 0x4E00 JUMP JUMPDEST POP POP JUMPDEST POP POP POP JUMP JUMPDEST PUSH1 0x0 DUP3 DUP3 SHR SWAP1 POP SWAP3 SWAP2 POP POP JUMP JUMPDEST PUSH1 0x0 PUSH2 0x4E87 PUSH1 0x0 NOT DUP5 PUSH1 0x8 MUL PUSH2 0x4E69 JUMP JUMPDEST NOT DUP1 DUP4 AND SWAP2 POP POP SWAP3 SWAP2 POP POP JUMP JUMPDEST PUSH1 0x0 PUSH2 0x4EA0 DUP4 DUP4 PUSH2 0x4E76 JUMP JUMPDEST SWAP2 POP DUP3 PUSH1 0x2 MUL DUP3 OR SWAP1 POP SWAP3 SWAP2 POP POP JUMP JUMPDEST PUSH2 0x4EB9 DUP3 PUSH2 0x396C JUMP JUMPDEST PUSH8 0xFFFFFFFFFFFFFFFF DUP2 GT ISZERO PUSH2 0x4ED2 JUMPI PUSH2 0x4ED1 PUSH2 0x3F7C JUMP JUMPDEST JUMPDEST PUSH2 0x4EDC DUP3 SLOAD PUSH2 0x42C3 JUMP JUMPDEST PUSH2 0x4EE7 DUP3 DUP3 DUP6 PUSH2 0x4E23 JUMP JUMPDEST PUSH1 0x0 PUSH1 0x20 SWAP1 POP PUSH1 0x1F DUP4 GT PUSH1 0x1 DUP2 EQ PUSH2 0x4F1A JUMPI PUSH1 0x0 DUP5 ISZERO PUSH2 0x4F08 JUMPI DUP3 DUP8 ADD MLOAD SWAP1 POP JUMPDEST PUSH2 0x4F12 DUP6 DUP3 PUSH2 0x4E94 JUMP JUMPDEST DUP7 SSTORE POP PUSH2 0x4F7A JUMP JUMPDEST PUSH1 0x1F NOT DUP5 AND PUSH2 0x4F28 DUP7 PUSH2 0x4D04 JUMP JUMPDEST PUSH1 0x0 JUMPDEST DUP3 DUP2 LT ISZERO PUSH2 0x4F50 JUMPI DUP5 DUP10 ADD MLOAD DUP3 SSTORE PUSH1 0x1 DUP3 ADD SWAP2 POP PUSH1 0x20 DUP6 ADD SWAP5 POP PUSH1 0x20 DUP2 ADD SWAP1 POP PUSH2 0x4F2B JUMP JUMPDEST DUP7 DUP4 LT ISZERO PUSH2 0x4F6D JUMPI DUP5 DUP10 ADD MLOAD PUSH2 0x4F69 PUSH1 0x1F DUP10 AND DUP3 PUSH2 0x4E76 JUMP JUMPDEST DUP4 SSTORE POP JUMPDEST PUSH1 0x1 PUSH1 0x2 DUP9 MUL ADD DUP9 SSTORE POP POP POP JUMPDEST POP POP POP POP POP POP JUMP JUMPDEST PUSH32 0x4F776E61626C653A206E6577206F776E657220697320746865207A65726F2061 PUSH1 0x0 DUP3 ADD MSTORE PUSH32 0x6464726573730000000000000000000000000000000000000000000000000000 PUSH1 0x20 DUP3 ADD MSTORE POP JUMP JUMPDEST PUSH1 0x0 PUSH2 0x4FDE PUSH1 0x26 DUP4 PUSH2 0x3977 JUMP JUMPDEST SWAP2 POP PUSH2 0x4FE9 DUP3 PUSH2 0x4F82 JUMP JUMPDEST PUSH1 0x40 DUP3 ADD SWAP1 POP SWAP2 SWAP1 POP JUMP JUMPDEST PUSH1 0x0 PUSH1 0x20 DUP3 ADD SWAP1 POP DUP2 DUP2 SUB PUSH1 0x0 DUP4 ADD MSTORE PUSH2 0x500D DUP2 PUSH2 0x4FD1 JUMP JUMPDEST SWAP1 POP SWAP2 SWAP1 POP JUMP JUMPDEST PUSH32 0x4F776E61626C653A2063616C6C6572206973206E6F7420746865206F776E6572 PUSH1 0x0 DUP3 ADD MSTORE POP JUMP JUMPDEST PUSH1 0x0 PUSH2 0x504A PUSH1 0x20 DUP4 PUSH2 0x3977 JUMP JUMPDEST SWAP2 POP PUSH2 0x5055 DUP3 PUSH2 0x5014 JUMP JUMPDEST PUSH1 0x20 DUP3 ADD SWAP1 POP SWAP2 SWAP1 POP JUMP JUMPDEST PUSH1 0x0 PUSH1 0x20 DUP3 ADD SWAP1 POP DUP2 DUP2 SUB PUSH1 0x0 DUP4 ADD MSTORE PUSH2 0x5079 DUP2 PUSH2 0x503D JUMP JUMPDEST SWAP1 POP SWAP2 SWAP1 POP JUMP JUMPDEST PUSH32 0x4552433732313A206D696E7420746F20746865207A65726F2061646472657373 PUSH1 0x0 DUP3 ADD MSTORE POP JUMP JUMPDEST PUSH1 0x0 PUSH2 0x50B6 PUSH1 0x20 DUP4 PUSH2 0x3977 JUMP JUMPDEST SWAP2 POP PUSH2 0x50C1 DUP3 PUSH2 0x5080 JUMP JUMPDEST PUSH1 0x20 DUP3 ADD SWAP1 POP SWAP2 SWAP1 POP JUMP JUMPDEST PUSH1 0x0 PUSH1 0x20 DUP3 ADD SWAP1 POP DUP2 DUP2 SUB PUSH1 0x0 DUP4 ADD MSTORE PUSH2 0x50E5 DUP2 PUSH2 0x50A9 JUMP JUMPDEST SWAP1 POP SWAP2 SWAP1 POP JUMP JUMPDEST PUSH32 0x4552433732313A20746F6B656E20616C7265616479206D696E74656400000000 PUSH1 0x0 DUP3 ADD MSTORE POP JUMP JUMPDEST PUSH1 0x0 PUSH2 0x5122 PUSH1 0x1C DUP4 PUSH2 0x3977 JUMP JUMPDEST SWAP2 POP PUSH2 0x512D DUP3 PUSH2 0x50EC JUMP JUMPDEST PUSH1 0x20 DUP3 ADD SWAP1 POP SWAP2 SWAP1 POP JUMP JUMPDEST PUSH1 0x0 PUSH1 0x20 DUP3 ADD SWAP1 POP DUP2 DUP2 SUB PUSH1 0x0 DUP4 ADD MSTORE PUSH2 0x5151 DUP2 PUSH2 0x5115 JUMP JUMPDEST SWAP1 POP SWAP2 SWAP1 POP JUMP JUMPDEST PUSH32 0x45524337323155524953746F726167653A2055524920736574206F66206E6F6E PUSH1 0x0 DUP3 ADD MSTORE PUSH32 0x6578697374656E7420746F6B656E000000000000000000000000000000000000 PUSH1 0x20 DUP3 ADD MSTORE POP JUMP JUMPDEST PUSH1 0x0 PUSH2 0x51B4 PUSH1 0x2E DUP4 PUSH2 0x3977 JUMP JUMPDEST SWAP2 POP PUSH2 0x51BF DUP3 PUSH2 0x5158 JUMP JUMPDEST PUSH1 0x40 DUP3 ADD SWAP1 POP SWAP2 SWAP1 POP JUMP JUMPDEST PUSH1 0x0 PUSH1 0x20 DUP3 ADD SWAP1 POP DUP2 DUP2 SUB PUSH1 0x0 DUP4 ADD MSTORE PUSH2 0x51E3 DUP2 PUSH2 0x51A7 JUMP JUMPDEST SWAP1 POP SWAP2 SWAP1 POP JUMP JUMPDEST PUSH32 0x4552433732313A207472616E736665722066726F6D20696E636F727265637420 PUSH1 0x0 DUP3 ADD MSTORE PUSH32 0x6F776E6572000000000000000000000000000000000000000000000000000000 PUSH1 0x20 DUP3 ADD MSTORE POP JUMP JUMPDEST PUSH1 0x0 PUSH2 0x5246 PUSH1 0x25 DUP4 PUSH2 0x3977 JUMP JUMPDEST SWAP2 POP PUSH2 0x5251 DUP3 PUSH2 0x51EA JUMP JUMPDEST PUSH1 0x40 DUP3 ADD SWAP1 POP SWAP2 SWAP1 POP JUMP JUMPDEST PUSH1 0x0 PUSH1 0x20 DUP3 ADD SWAP1 POP DUP2 DUP2 SUB PUSH1 0x0 DUP4 ADD MSTORE PUSH2 0x5275 DUP2 PUSH2 0x5239 JUMP JUMPDEST SWAP1 POP SWAP2 SWAP1 POP JUMP JUMPDEST PUSH32 0x4552433732313A207472616E7366657220746F20746865207A65726F20616464 PUSH1 0x0 DUP3 ADD MSTORE PUSH32 0x7265737300000000000000000000000000000000000000000000000000000000 PUSH1 0x20 DUP3 ADD MSTORE POP JUMP JUMPDEST PUSH1 0x0 PUSH2 0x52D8 PUSH1 0x24 DUP4 PUSH2 0x3977 JUMP JUMPDEST SWAP2 POP PUSH2 0x52E3 DUP3 PUSH2 0x527C JUMP JUMPDEST PUSH1 0x40 DUP3 ADD SWAP1 POP SWAP2 SWAP1 POP JUMP JUMPDEST PUSH1 0x0 PUSH1 0x20 DUP3 ADD SWAP1 POP DUP2 DUP2 SUB PUSH1 0x0 DUP4 ADD MSTORE PUSH2 0x5307 DUP2 PUSH2 0x52CB JUMP JUMPDEST SWAP1 POP SWAP2 SWAP1 POP JUMP JUMPDEST PUSH32 0x4552433732313A20617070726F766520746F2063616C6C657200000000000000 PUSH1 0x0 DUP3 ADD MSTORE POP JUMP JUMPDEST PUSH1 0x0 PUSH2 0x5344 PUSH1 0x19 DUP4 PUSH2 0x3977 JUMP JUMPDEST SWAP2 POP PUSH2 0x534F DUP3 PUSH2 0x530E JUMP JUMPDEST PUSH1 0x20 DUP3 ADD SWAP1 POP SWAP2 SWAP1 POP JUMP JUMPDEST PUSH1 0x0 PUSH1 0x20 DUP3 ADD SWAP1 POP DUP2 DUP2 SUB PUSH1 0x0 DUP4 ADD MSTORE PUSH2 0x5373 DUP2 PUSH2 0x5337 JUMP JUMPDEST SWAP1 POP SWAP2 SWAP1 POP JUMP JUMPDEST PUSH1 0x0 PUSH2 0x5385 DUP3 PUSH2 0x3909 JUMP JUMPDEST SWAP2 POP PUSH2 0x5390 DUP4 PUSH2 0x3909 JUMP JUMPDEST SWAP3 POP DUP3 DUP3 SUB SWAP1 POP DUP2 DUP2 GT ISZERO PUSH2 0x53A8 JUMPI PUSH2 0x53A7 PUSH2 0x463E JUMP JUMPDEST JUMPDEST SWAP3 SWAP2 POP POP JUMP JUMPDEST PUSH32 0x4552433732313A207472616E7366657220746F206E6F6E204552433732315265 PUSH1 0x0 DUP3 ADD MSTORE PUSH32 0x63656976657220696D706C656D656E7465720000000000000000000000000000 PUSH1 0x20 DUP3 ADD MSTORE POP JUMP JUMPDEST PUSH1 0x0 PUSH2 0x540A PUSH1 0x32 DUP4 PUSH2 0x3977 JUMP JUMPDEST SWAP2 POP PUSH2 0x5415 DUP3 PUSH2 0x53AE JUMP JUMPDEST PUSH1 0x40 DUP3 ADD SWAP1 POP SWAP2 SWAP1 POP JUMP JUMPDEST PUSH1 0x0 PUSH1 0x20 DUP3 ADD SWAP1 POP DUP2 DUP2 SUB PUSH1 0x0 DUP4 ADD MSTORE PUSH2 0x5439 DUP2 PUSH2 0x53FD JUMP JUMPDEST SWAP1 POP SWAP2 SWAP1 POP JUMP JUMPDEST PUSH1 0x0 DUP2 SWAP1 POP SWAP3 SWAP2 POP POP JUMP JUMPDEST PUSH1 0x0 PUSH2 0x5456 DUP3 PUSH2 0x396C JUMP JUMPDEST PUSH2 0x5460 DUP2 DUP6 PUSH2 0x5440 JUMP JUMPDEST SWAP4 POP PUSH2 0x5470 DUP2 DUP6 PUSH1 0x20 DUP7 ADD PUSH2 0x3988 JUMP JUMPDEST DUP1 DUP5 ADD SWAP2 POP POP SWAP3 SWAP2 POP POP JUMP JUMPDEST PUSH1 0x0 PUSH2 0x5488 DUP3 DUP6 PUSH2 0x544B JUMP JUMPDEST SWAP2 POP PUSH2 0x5494 DUP3 DUP5 PUSH2 0x544B JUMP JUMPDEST SWAP2 POP DUP2 SWAP1 POP SWAP4 SWAP3 POP POP POP JUMP JUMPDEST PUSH1 0x0 DUP2 MLOAD SWAP1 POP SWAP2 SWAP1 POP JUMP JUMPDEST PUSH1 0x0 DUP3 DUP3 MSTORE PUSH1 0x20 DUP3 ADD SWAP1 POP SWAP3 SWAP2 POP POP JUMP JUMPDEST PUSH1 0x0 PUSH2 0x54C7 DUP3 PUSH2 0x54A0 JUMP JUMPDEST PUSH2 0x54D1 DUP2 DUP6 PUSH2 0x54AB JUMP JUMPDEST SWAP4 POP PUSH2 0x54E1 DUP2 DUP6 PUSH1 0x20 DUP7 ADD PUSH2 0x3988 JUMP JUMPDEST PUSH2 0x54EA DUP2 PUSH2 0x39B2 JUMP JUMPDEST DUP5 ADD SWAP2 POP POP SWAP3 SWAP2 POP POP JUMP JUMPDEST PUSH1 0x0 PUSH1 0x80 DUP3 ADD SWAP1 POP PUSH2 0x550A PUSH1 0x0 DUP4 ADD DUP8 PUSH2 0x3B64 JUMP JUMPDEST PUSH2 0x5517 PUSH1 0x20 DUP4 ADD DUP7 PUSH2 0x3B64 JUMP JUMPDEST PUSH2 0x5524 PUSH1 0x40 DUP4 ADD DUP6 PUSH2 0x3CAE JUMP JUMPDEST DUP2 DUP2 SUB PUSH1 0x60 DUP4 ADD MSTORE PUSH2 0x5536 DUP2 DUP5 PUSH2 0x54BC JUMP JUMPDEST SWAP1 POP SWAP6 SWAP5 POP POP POP POP POP JUMP JUMPDEST PUSH1 0x0 DUP2 MLOAD SWAP1 POP PUSH2 0x5550 DUP2 PUSH2 0x3A4A JUMP JUMPDEST SWAP3 SWAP2 POP POP JUMP JUMPDEST PUSH1 0x0 PUSH1 0x20 DUP3 DUP5 SUB SLT ISZERO PUSH2 0x556C JUMPI PUSH2 0x556B PUSH2 0x38FF JUMP JUMPDEST JUMPDEST PUSH1 0x0 PUSH2 0x557A DUP5 DUP3 DUP6 ADD PUSH2 0x5541 JUMP JUMPDEST SWAP2 POP POP SWAP3 SWAP2 POP POP JUMP INVALID LOG2 PUSH5 0x6970667358 0x22 SLT KECCAK256 0xD4 0x24 0x5E PUSH11 0x2082446409E06EC0349A73 0xB6 CREATE EQ PUSH15 0x4577FB8C67A4BBC6541DCC47E46473 PUSH16 0x6C6343000812003368747470733A2F2F PUSH19 0x65642D666C79696E672D6C796E782D3537382E PUSH14 0x7970696E6174612E636C6F75642F PUSH10 0x7066732F516D58735276 SELFBALANCE MSTORE8 SSTORE BASEFEE PUSH10 0x556F58764B6578635A53 BALANCE BASEFEE SSTORE SELFBALANCE SELFBALANCE PUSH7 0x47706762354576 NUMBER CALLDATACOPY CHAINID ORIGIN GASLIMIT MSTORE COINBASE PUSH7 0x587532613F5F67 PUSH13 0x3D312A317574776763382A5F67 PUSH2 0x2A4D SLOAD PUSH4 0x794E4455 CALLVALUE 0x4D SLOAD COINBASE CALLDATALOAD 0x4C PUSH11 0x45324F5441784F544D334D PUSH27 0x592E2A5F67615F35524D505847313454452A4D5459354D6A45794E PREVRANDAO 0x49 PUSH26 0x4F5334314C6A45754D5459354D6A45794E4451334D4334324D43 CALLVALUE PUSH24 0x4C6A412E68747470733A2F2F7265642D666C79696E672D6C PUSH26 0x6E782D3537382E6D7970696E6174612E636C6F75642F69706673 0x2F MLOAD PUSH14 0x654D46445573565064646E5A7332 0x4C CALLDATASIZE PUSH14 0x4B746373644E4371596956726137 MSIZE BASEFEE PUSH11 0x756A6A51663272714D443F 0x5F PUSH8 0x6C3D312A31617435 PUSH11 0x38702A5F67612A4D546379 0x4E PREVRANDAO SSTORE CALLVALUE 0x4D SLOAD COINBASE CALLDATALOAD 0x4C PUSH11 0x45324F5441784F544D334D PUSH27 0x592E2A5F67615F35524D505847313454452A4D5459354D6A45794E PREVRANDAO 0x49 PUSH26 0x4F5334314C6A45754D5459354D6A45794E44517A4D4334794C6A COINBASE PUSH22 0x4D412E2E68747470733A2F2F7265642D666C79696E67 0x2D PUSH13 0x796E782D3537382E6D7970696E PUSH2 0x7461 0x2E PUSH4 0x6C6F7564 0x2F PUSH10 0x7066732F516D614C5A59 PUSH21 0x516B6554545855726B6F4534485247794669434736 PUSH23 0x7242707445476A557469616E3772567A393F5F676C3D31 0x2A PUSH9 0x6D386B6A312A5F6761 0x2A 0x4D SLOAD PUSH4 0x794E4455 CALLVALUE 0x4D SLOAD COINBASE CALLDATALOAD 0x4C PUSH11 0x45324F5441784F544D334D PUSH27 0x592E2A5F67615F35524D505847313454452A4D5459354D6A45794E PREVRANDAO 0x49 PUSH26 0x4F5334314C6A45754D5459354D6A45794E444D334D6934324D43 CALLVALUE PUSH24 0x4C6A412E68747470733A2F2F7265642D666C79696E672D6C PUSH26 0x6E782D3537382E6D7970696E6174612E636C6F75642F69706673 0x2F MLOAD PUSH14 0x533558376645553459316D646A67 0x4D PUSH22 0x6E36524832644A6778784B73314B774654325476636B CALLDATACOPY PUSH14 0x6F7470783F5F676C3D312A69326F CALLDATACOPY PUSH27 0x682A5F67612A4D5463794E4455344D5441354C6A45324F5441784F SLOAD 0x4D CALLER 0x4D PUSH27 0x592E2A5F67615F35524D505847313454452A4D5459354D6A45794E PREVRANDAO 0x49 PUSH26 0x4F5334314C6A45754D5459354D6A45794E4455794D4334784D43 CALLVALUE PUSH24 0x4C6A412E0000000000000000000000000000000000000000 "
		},
		"gasEstimates": {
			"creation": {
				"codeDepositCost": "4389000",
				"executionCost": "infinite",
				"totalCost": "infinite"
			},
			"external": {
				"NFT_url()": "infinite",
				"NFTs(uint256)": "infinite",
				"addFreeMintAddress(address)": "27122",
				"approve(address,uint256)": "infinite",
				"balanceOf(address)": "2987",
				"changePriceChanged()": "26764",
				"changeflagPriceChanged(bool)": "27054",
				"editLimitMint(uint256)": "24938",
				"editPriceMint(uint256)": "49161",
				"editUrlNFT(string,uint256)": "infinite",
				"getApproved(uint256)": "5367",
				"getLastAdress()": "4920",
				"getMintedNFTs(address)": "infinite",
				"getNFTRank(uint256)": "5344",
				"getNFTURI(uint256)": "infinite",
				"getOwnedNFTs(address)": "infinite",
				"getPoint(address)": "infinite",
				"getPrice()": "4817",
				"getTopMintNFT(uint256)": "infinite",
				"isApprovedForAll(address,address)": "infinite",
				"lastMintTimestamp(address)": "2858",
				"limitMint()": "2474",
				"mintNFT()": "infinite",
				"name()": "infinite",
				"owner()": "2590",
				"ownerOf(uint256)": "3066",
				"price()": "2496",
				"removeFreeMintAddress(address)": "27167",
				"renounceOwnership()": "30531",
				"safeTransferFrom(address,address,uint256)": "infinite",
				"safeTransferFrom(address,address,uint256,bytes)": "infinite",
				"setApprovalForAll(address,bool)": "infinite",
				"supportsInterface(bytes4)": "980",
				"symbol()": "infinite",
				"tokenURI(uint256)": "infinite",
				"totalSupply()": "2541",
				"transferFrom(address,address,uint256)": "infinite",
				"transferNFT(address,uint256)": "infinite",
				"transferOwnership(address)": "30876",
				"withdraw()": "infinite",
				"withdrawRewards(uint256,uint256)": "infinite"
			},
			"internal": {
				"_burn(uint256)": "infinite",
				"_sortTopMintingAddresses()": "infinite"
			}
		},
		"methodIdentifiers": {
			"NFT_url()": "b63b3d57",
			"NFTs(uint256)": "a3c0b95b",
			"addFreeMintAddress(address)": "84028697",
			"approve(address,uint256)": "095ea7b3",
			"balanceOf(address)": "70a08231",
			"changePriceChanged()": "b69cbd50",
			"changeflagPriceChanged(bool)": "b784902e",
			"editLimitMint(uint256)": "f4f3b059",
			"editPriceMint(uint256)": "ebb24c32",
			"editUrlNFT(string,uint256)": "ac399914",
			"getApproved(uint256)": "081812fc",
			"getLastAdress()": "1b163a9d",
			"getMintedNFTs(address)": "62766dec",
			"getNFTRank(uint256)": "6c5bf32e",
			"getNFTURI(uint256)": "00621fda",
			"getOwnedNFTs(address)": "18148f1b",
			"getPoint(address)": "4ff531b6",
			"getPrice()": "98d5fdca",
			"getTopMintNFT(uint256)": "a23af5cb",
			"isApprovedForAll(address,address)": "e985e9c5",
			"lastMintTimestamp(address)": "be13197b",
			"limitMint()": "9b525924",
			"mintNFT()": "14f710fe",
			"name()": "06fdde03",
			"owner()": "8da5cb5b",
			"ownerOf(uint256)": "6352211e",
			"price()": "a035b1fe",
			"removeFreeMintAddress(address)": "04890b24",
			"renounceOwnership()": "715018a6",
			"safeTransferFrom(address,address,uint256)": "42842e0e",
			"safeTransferFrom(address,address,uint256,bytes)": "b88d4fde",
			"setApprovalForAll(address,bool)": "a22cb465",
			"supportsInterface(bytes4)": "01ffc9a7",
			"symbol()": "95d89b41",
			"tokenURI(uint256)": "c87b56dd",
			"totalSupply()": "18160ddd",
			"transferFrom(address,address,uint256)": "23b872dd",
			"transferNFT(address,uint256)": "94ab67fe",
			"transferOwnership(address)": "f2fde38b",
			"withdraw()": "3ccfd60b",
			"withdrawRewards(uint256,uint256)": "52cb5133"
		}
	},
	"abi": [
		{
			"inputs": [],
			"stateMutability": "nonpayable",
			"type": "constructor"
		},
		{
			"anonymous": false,
			"inputs": [
				{
					"indexed": true,
					"internalType": "address",
					"name": "owner",
					"type": "address"
				},
				{
					"indexed": true,
					"internalType": "address",
					"name": "approved",
					"type": "address"
				},
				{
					"indexed": true,
					"internalType": "uint256",
					"name": "tokenId",
					"type": "uint256"
				}
			],
			"name": "Approval",
			"type": "event"
		},
		{
			"anonymous": false,
			"inputs": [
				{
					"indexed": true,
					"internalType": "address",
					"name": "owner",
					"type": "address"
				},
				{
					"indexed": true,
					"internalType": "address",
					"name": "operator",
					"type": "address"
				},
				{
					"indexed": false,
					"internalType": "bool",
					"name": "approved",
					"type": "bool"
				}
			],
			"name": "ApprovalForAll",
			"type": "event"
		},
		{
			"anonymous": false,
			"inputs": [
				{
					"indexed": false,
					"internalType": "uint256",
					"name": "_fromTokenId",
					"type": "uint256"
				},
				{
					"indexed": false,
					"internalType": "uint256",
					"name": "_toTokenId",
					"type": "uint256"
				}
			],
			"name": "BatchMetadataUpdate",
			"type": "event"
		},
		{
			"anonymous": false,
			"inputs": [
				{
					"indexed": false,
					"internalType": "uint256",
					"name": "_tokenId",
					"type": "uint256"
				}
			],
			"name": "MetadataUpdate",
			"type": "event"
		},
		{
			"anonymous": false,
			"inputs": [
				{
					"indexed": true,
					"internalType": "uint256",
					"name": "tokenId",
					"type": "uint256"
				},
				{
					"indexed": false,
					"internalType": "uint256",
					"name": "rank",
					"type": "uint256"
				},
				{
					"indexed": false,
					"internalType": "address",
					"name": "owner_minted",
					"type": "address"
				},
				{
					"indexed": false,
					"internalType": "uint256",
					"name": "time_minted",
					"type": "uint256"
				}
			],
			"name": "NFTMinted",
			"type": "event"
		},
		{
			"anonymous": false,
			"inputs": [
				{
					"indexed": true,
					"internalType": "address",
					"name": "previousOwner",
					"type": "address"
				},
				{
					"indexed": true,
					"internalType": "address",
					"name": "newOwner",
					"type": "address"
				}
			],
			"name": "OwnershipTransferred",
			"type": "event"
		},
		{
			"anonymous": false,
			"inputs": [
				{
					"indexed": true,
					"internalType": "address",
					"name": "from",
					"type": "address"
				},
				{
					"indexed": true,
					"internalType": "address",
					"name": "to",
					"type": "address"
				},
				{
					"indexed": true,
					"internalType": "uint256",
					"name": "tokenId",
					"type": "uint256"
				}
			],
			"name": "Transfer",
			"type": "event"
		},
		{
			"inputs": [],
			"name": "NFT_url",
			"outputs": [
				{
					"internalType": "string",
					"name": "",
					"type": "string"
				}
			],
			"stateMutability": "view",
			"type": "function"
		},
		{
			"inputs": [
				{
					"internalType": "uint256",
					"name": "",
					"type": "uint256"
				}
			],
			"name": "NFTs",
			"outputs": [
				{
					"internalType": "uint256",
					"name": "tokenId",
					"type": "uint256"
				},
				{
					"internalType": "enum BaseXNFT.Rank",
					"name": "rank",
					"type": "uint8"
				}
			],
			"stateMutability": "view",
			"type": "function"
		},
		{
			"inputs": [
				{
					"internalType": "address",
					"name": "_address",
					"type": "address"
				}
			],
			"name": "addFreeMintAddress",
			"outputs": [],
			"stateMutability": "nonpayable",
			"type": "function"
		},
		{
			"inputs": [
				{
					"internalType": "address",
					"name": "to",
					"type": "address"
				},
				{
					"internalType": "uint256",
					"name": "tokenId",
					"type": "uint256"
				}
			],
			"name": "approve",
			"outputs": [],
			"stateMutability": "nonpayable",
			"type": "function"
		},
		{
			"inputs": [
				{
					"internalType": "address",
					"name": "owner",
					"type": "address"
				}
			],
			"name": "balanceOf",
			"outputs": [
				{
					"internalType": "uint256",
					"name": "",
					"type": "uint256"
				}
			],
			"stateMutability": "view",
			"type": "function"
		},
		{
			"inputs": [],
			"name": "changePriceChanged",
			"outputs": [],
			"stateMutability": "nonpayable",
			"type": "function"
		},
		{
			"inputs": [
				{
					"internalType": "bool",
					"name": "_flag",
					"type": "bool"
				}
			],
			"name": "changeflagPriceChanged",
			"outputs": [],
			"stateMutability": "nonpayable",
			"type": "function"
		},
		{
			"inputs": [
				{
					"internalType": "uint256",
					"name": "_newLimit",
					"type": "uint256"
				}
			],
			"name": "editLimitMint",
			"outputs": [],
			"stateMutability": "nonpayable",
			"type": "function"
		},
		{
			"inputs": [
				{
					"internalType": "uint256",
					"name": "_newPrice",
					"type": "uint256"
				}
			],
			"name": "editPriceMint",
			"outputs": [],
			"stateMutability": "nonpayable",
			"type": "function"
		},
		{
			"inputs": [
				{
					"internalType": "string",
					"name": "_newUrl",
					"type": "string"
				},
				{
					"internalType": "uint256",
					"name": "_rank",
					"type": "uint256"
				}
			],
			"name": "editUrlNFT",
			"outputs": [],
			"stateMutability": "nonpayable",
			"type": "function"
		},
		{
			"inputs": [
				{
					"internalType": "uint256",
					"name": "tokenId",
					"type": "uint256"
				}
			],
			"name": "getApproved",
			"outputs": [
				{
					"internalType": "address",
					"name": "",
					"type": "address"
				}
			],
			"stateMutability": "view",
			"type": "function"
		},
		{
			"inputs": [],
			"name": "getLastAdress",
			"outputs": [
				{
					"internalType": "address",
					"name": "",
					"type": "address"
				}
			],
			"stateMutability": "view",
			"type": "function"
		},
		{
			"inputs": [
				{
					"internalType": "address",
					"name": "user",
					"type": "address"
				}
			],
			"name": "getMintedNFTs",
			"outputs": [
				{
					"internalType": "uint256[]",
					"name": "",
					"type": "uint256[]"
				}
			],
			"stateMutability": "view",
			"type": "function"
		},
		{
			"inputs": [
				{
					"internalType": "uint256",
					"name": "tokenId",
					"type": "uint256"
				}
			],
			"name": "getNFTRank",
			"outputs": [
				{
					"internalType": "enum BaseXNFT.Rank",
					"name": "",
					"type": "uint8"
				}
			],
			"stateMutability": "view",
			"type": "function"
		},
		{
			"inputs": [
				{
					"internalType": "uint256",
					"name": "tokenId",
					"type": "uint256"
				}
			],
			"name": "getNFTURI",
			"outputs": [
				{
					"internalType": "string",
					"name": "",
					"type": "string"
				}
			],
			"stateMutability": "view",
			"type": "function"
		},
		{
			"inputs": [
				{
					"internalType": "address",
					"name": "user",
					"type": "address"
				}
			],
			"name": "getOwnedNFTs",
			"outputs": [
				{
					"internalType": "uint256[]",
					"name": "",
					"type": "uint256[]"
				}
			],
			"stateMutability": "view",
			"type": "function"
		},
		{
			"inputs": [
				{
					"internalType": "address",
					"name": "user",
					"type": "address"
				}
			],
			"name": "getPoint",
			"outputs": [
				{
					"internalType": "uint256",
					"name": "",
					"type": "uint256"
				}
			],
			"stateMutability": "view",
			"type": "function"
		},
		{
			"inputs": [],
			"name": "getPrice",
			"outputs": [
				{
					"internalType": "uint256",
					"name": "",
					"type": "uint256"
				}
			],
			"stateMutability": "view",
			"type": "function"
		},
		{
			"inputs": [
				{
					"internalType": "uint256",
					"name": "top",
					"type": "uint256"
				}
			],
			"name": "getTopMintNFT",
			"outputs": [
				{
					"internalType": "address[]",
					"name": "",
					"type": "address[]"
				}
			],
			"stateMutability": "view",
			"type": "function"
		},
		{
			"inputs": [
				{
					"internalType": "address",
					"name": "owner",
					"type": "address"
				},
				{
					"internalType": "address",
					"name": "operator",
					"type": "address"
				}
			],
			"name": "isApprovedForAll",
			"outputs": [
				{
					"internalType": "bool",
					"name": "",
					"type": "bool"
				}
			],
			"stateMutability": "view",
			"type": "function"
		},
		{
			"inputs": [
				{
					"internalType": "address",
					"name": "",
					"type": "address"
				}
			],
			"name": "lastMintTimestamp",
			"outputs": [
				{
					"internalType": "uint256",
					"name": "",
					"type": "uint256"
				}
			],
			"stateMutability": "view",
			"type": "function"
		},
		{
			"inputs": [],
			"name": "limitMint",
			"outputs": [
				{
					"internalType": "uint256",
					"name": "",
					"type": "uint256"
				}
			],
			"stateMutability": "view",
			"type": "function"
		},
		{
			"inputs": [],
			"name": "mintNFT",
			"outputs": [],
			"stateMutability": "payable",
			"type": "function"
		},
		{
			"inputs": [],
			"name": "name",
			"outputs": [
				{
					"internalType": "string",
					"name": "",
					"type": "string"
				}
			],
			"stateMutability": "view",
			"type": "function"
		},
		{
			"inputs": [],
			"name": "owner",
			"outputs": [
				{
					"internalType": "address",
					"name": "",
					"type": "address"
				}
			],
			"stateMutability": "view",
			"type": "function"
		},
		{
			"inputs": [
				{
					"internalType": "uint256",
					"name": "tokenId",
					"type": "uint256"
				}
			],
			"name": "ownerOf",
			"outputs": [
				{
					"internalType": "address",
					"name": "",
					"type": "address"
				}
			],
			"stateMutability": "view",
			"type": "function"
		},
		{
			"inputs": [],
			"name": "price",
			"outputs": [
				{
					"internalType": "uint256",
					"name": "",
					"type": "uint256"
				}
			],
			"stateMutability": "view",
			"type": "function"
		},
		{
			"inputs": [
				{
					"internalType": "address",
					"name": "_address",
					"type": "address"
				}
			],
			"name": "removeFreeMintAddress",
			"outputs": [],
			"stateMutability": "nonpayable",
			"type": "function"
		},
		{
			"inputs": [],
			"name": "renounceOwnership",
			"outputs": [],
			"stateMutability": "nonpayable",
			"type": "function"
		},
		{
			"inputs": [
				{
					"internalType": "address",
					"name": "from",
					"type": "address"
				},
				{
					"internalType": "address",
					"name": "to",
					"type": "address"
				},
				{
					"internalType": "uint256",
					"name": "tokenId",
					"type": "uint256"
				}
			],
			"name": "safeTransferFrom",
			"outputs": [],
			"stateMutability": "nonpayable",
			"type": "function"
		},
		{
			"inputs": [
				{
					"internalType": "address",
					"name": "from",
					"type": "address"
				},
				{
					"internalType": "address",
					"name": "to",
					"type": "address"
				},
				{
					"internalType": "uint256",
					"name": "tokenId",
					"type": "uint256"
				},
				{
					"internalType": "bytes",
					"name": "data",
					"type": "bytes"
				}
			],
			"name": "safeTransferFrom",
			"outputs": [],
			"stateMutability": "nonpayable",
			"type": "function"
		},
		{
			"inputs": [
				{
					"internalType": "address",
					"name": "operator",
					"type": "address"
				},
				{
					"internalType": "bool",
					"name": "approved",
					"type": "bool"
				}
			],
			"name": "setApprovalForAll",
			"outputs": [],
			"stateMutability": "nonpayable",
			"type": "function"
		},
		{
			"inputs": [
				{
					"internalType": "bytes4",
					"name": "interfaceId",
					"type": "bytes4"
				}
			],
			"name": "supportsInterface",
			"outputs": [
				{
					"internalType": "bool",
					"name": "",
					"type": "bool"
				}
			],
			"stateMutability": "view",
			"type": "function"
		},
		{
			"inputs": [],
			"name": "symbol",
			"outputs": [
				{
					"internalType": "string",
					"name": "",
					"type": "string"
				}
			],
			"stateMutability": "view",
			"type": "function"
		},
		{
			"inputs": [
				{
					"internalType": "uint256",
					"name": "tokenId",
					"type": "uint256"
				}
			],
			"name": "tokenURI",
			"outputs": [
				{
					"internalType": "string",
					"name": "",
					"type": "string"
				}
			],
			"stateMutability": "view",
			"type": "function"
		},
		{
			"inputs": [],
			"name": "totalSupply",
			"outputs": [
				{
					"internalType": "uint256",
					"name": "",
					"type": "uint256"
				}
			],
			"stateMutability": "view",
			"type": "function"
		},
		{
			"inputs": [
				{
					"internalType": "address",
					"name": "from",
					"type": "address"
				},
				{
					"internalType": "address",
					"name": "to",
					"type": "address"
				},
				{
					"internalType": "uint256",
					"name": "tokenId",
					"type": "uint256"
				}
			],
			"name": "transferFrom",
			"outputs": [],
			"stateMutability": "nonpayable",
			"type": "function"
		},
		{
			"inputs": [
				{
					"internalType": "address",
					"name": "_to",
					"type": "address"
				},
				{
					"internalType": "uint256",
					"name": "_tokenId",
					"type": "uint256"
				}
			],
			"name": "transferNFT",
			"outputs": [],
			"stateMutability": "nonpayable",
			"type": "function"
		},
		{
			"inputs": [
				{
					"internalType": "address",
					"name": "newOwner",
					"type": "address"
				}
			],
			"name": "transferOwnership",
			"outputs": [],
			"stateMutability": "nonpayable",
			"type": "function"
		},
		{
			"inputs": [],
			"name": "withdraw",
			"outputs": [],
			"stateMutability": "nonpayable",
			"type": "function"
		},
		{
			"inputs": [
				{
					"internalType": "uint256",
					"name": "numberOfWinners",
					"type": "uint256"
				},
				{
					"internalType": "uint256",
					"name": "rewardPercentage",
					"type": "uint256"
				}
			],
			"name": "withdrawRewards",
			"outputs": [],
			"stateMutability": "nonpayable",
			"type": "function"
		}
	]
}