{
  "_format": "hh-sol-artifact-1",
  "contractName": "BaseXNFTLibrary",
  "sourceName": "contracts/libraries/BaseXNFTLibrary.sol",
  "abi": [
    {
      "inputs": [
        {
          "internalType": "uint256",
          "name": "blockNumber",
          "type": "uint256"
        },
        {
          "internalType": "uint256",
          "name": "blockTimestamp",
          "type": "uint256"
        },
        {
          "internalType": "uint256",
          "name": "blockDifficulty",
          "type": "uint256"
        },
        {
          "internalType": "address",
          "name": "msgSender",
          "type": "address"
        },
        {
          "internalType": "address",
          "name": "lastAddress",
          "type": "address"
        }
      ],
      "name": "calculateNFTInfo",
      "outputs": [
        {
          "components": [
            {
              "internalType": "uint256",
              "name": "tokenId",
              "type": "uint256"
            },
            {
              "internalType": "enum BaseXNFTLibrary.Rank",
              "name": "rank",
              "type": "BaseXNFTLibrary.Rank"
            }
          ],
          "internalType": "struct BaseXNFTLibrary.NFT",
          "name": "",
          "type": "tuple"
        }
      ],
      "stateMutability": "view",
      "type": "function"
    },
    {
      "inputs": [
        {
          "internalType": "uint256",
          "name": "_totalSupply",
          "type": "uint256"
        },
        {
          "internalType": "uint256",
          "name": "_limitMintWhilteList",
          "type": "uint256"
        }
      ],
      "name": "calculatePrice",
      "outputs": [
        {
          "internalType": "uint256",
          "name": "",
          "type": "uint256"
        }
      ],
      "stateMutability": "view",
      "type": "function"
    }
  ],
  "bytecode": "0x61062a610053600b82828239805160001a607314610046577f4e487b7100000000000000000000000000000000000000000000000000000000600052600060045260246000fd5b30600052607381538281f3fe73000000000000000000000000000000000000000030146080604052600436106100405760003560e01c80638b5c98fa14610045578063a6413a2714610075575b600080fd5b61005f600480360381019061005a91906102b4565b6100a5565b60405161006c91906103e4565b60405180910390f35b61008f600480360381019061008a91906103ff565b610196565b60405161009c919061044e565b60405180910390f35b6100ad6101ef565b600086868686866040516020016100c89594939291906104d2565b6040516020818303038152906040528051906020012060001c905060006064826100f29190610560565b90506000603c82108015610107575060008210155b15610115576000905061015a565b6055821080156101265750603c8210155b156101345760019050610159565b605f82108015610145575060558210155b156101535760029050610158565b600390505b5b5b60006040518060400160405280600081526020018360038111156101815761018061033e565b5b81525090508094505050505095945050505050565b60008060009050602883856101ab91906105c0565b106101be576512309ce5400090506101e5565b600a83856101cc91906105c0565b106101df576509184e72a00090506101e4565b600090505b5b8091505092915050565b604051806040016040528060008152602001600060038111156102155761021461033e565b5b81525090565b600080fd5b6000819050919050565b61023381610220565b811461023e57600080fd5b50565b6000813590506102508161022a565b92915050565b600073ffffffffffffffffffffffffffffffffffffffff82169050919050565b600061028182610256565b9050919050565b61029181610276565b811461029c57600080fd5b50565b6000813590506102ae81610288565b92915050565b600080600080600060a086880312156102d0576102cf61021b565b5b60006102de88828901610241565b95505060206102ef88828901610241565b945050604061030088828901610241565b93505060606103118882890161029f565b92505060806103228882890161029f565b9150509295509295909350565b61033881610220565b82525050565b7f4e487b7100000000000000000000000000000000000000000000000000000000600052602160045260246000fd5b6004811061037e5761037d61033e565b5b50565b600081905061038f8261036d565b919050565b600061039f82610381565b9050919050565b6103af81610394565b82525050565b6040820160008201516103cb600085018261032f565b5060208201516103de60208501826103a6565b50505050565b60006040820190506103f960008301846103b5565b92915050565b600080604083850312156104165761041561021b565b5b600061042485828601610241565b925050602061043585828601610241565b9150509250929050565b61044881610220565b82525050565b6000602082019050610463600083018461043f565b92915050565b6000819050919050565b61048461047f82610220565b610469565b82525050565b60008160601b9050919050565b60006104a28261048a565b9050919050565b60006104b482610497565b9050919050565b6104cc6104c782610276565b6104a9565b82525050565b60006104de8288610473565b6020820191506104ee8287610473565b6020820191506104fe8286610473565b60208201915061050e82856104bb565b60148201915061051e82846104bb565b6014820191508190509695505050505050565b7f4e487b7100000000000000000000000000000000000000000000000000000000600052601260045260246000fd5b600061056b82610220565b915061057683610220565b92508261058657610585610531565b5b828206905092915050565b7f4e487b7100000000000000000000000000000000000000000000000000000000600052601160045260246000fd5b60006105cb82610220565b91506105d683610220565b92508282019050808211156105ee576105ed610591565b5b9291505056fea26469706673582212204e26a8f197d0dee0cb34ae3e99d8a03e14a0f25961009cd016378fa9431161b464736f6c63430008120033",
  "linkReferences": {},
  "deployedLinkReferences": {}
}